{
	"node.sol": {
		"Node": {
			"abi": [
				{
					"inputs": [
						{
							"internalType": "uint256",
							"name": "_startTime",
							"type": "uint256"
						}
					],
					"stateMutability": "nonpayable",
					"type": "constructor"
				},
				{
					"anonymous": false,
					"inputs": [
						{
							"indexed": false,
							"internalType": "uint256",
							"name": "timestamp",
							"type": "uint256"
						},
						{
							"indexed": false,
							"internalType": "address",
							"name": "account",
							"type": "address"
						},
						{
							"indexed": false,
							"internalType": "uint256",
							"name": "num",
							"type": "uint256"
						}
					],
					"name": "CreateNode",
					"type": "event"
				},
				{
					"inputs": [],
					"name": "MULTIPLIER",
					"outputs": [
						{
							"internalType": "uint256",
							"name": "",
							"type": "uint256"
						}
					],
					"stateMutability": "view",
					"type": "function"
				},
				{
					"inputs": [],
					"name": "TOKEN",
					"outputs": [
						{
							"internalType": "contract IERC20",
							"name": "",
							"type": "address"
						}
					],
					"stateMutability": "view",
					"type": "function"
				},
				{
					"inputs": [
						{
							"internalType": "address",
							"name": "account",
							"type": "address"
						}
					],
					"name": "allocPoints",
					"outputs": [
						{
							"internalType": "uint256",
							"name": "",
							"type": "uint256"
						}
					],
					"stateMutability": "view",
					"type": "function"
				},
				{
					"inputs": [
						{
							"internalType": "address payable",
							"name": "newDev",
							"type": "address"
						}
					],
					"name": "changeDev",
					"outputs": [],
					"stateMutability": "nonpayable",
					"type": "function"
				},
				{
					"inputs": [],
					"name": "claim",
					"outputs": [],
					"stateMutability": "nonpayable",
					"type": "function"
				},
				{
					"inputs": [],
					"name": "claimTreasuryRewards",
					"outputs": [],
					"stateMutability": "nonpayable",
					"type": "function"
				},
				{
					"inputs": [],
					"name": "compound",
					"outputs": [],
					"stateMutability": "nonpayable",
					"type": "function"
				},
				{
					"inputs": [
						{
							"internalType": "uint256",
							"name": "nodeTier",
							"type": "uint256"
						},
						{
							"internalType": "uint256",
							"name": "numNodes",
							"type": "uint256"
						}
					],
					"name": "create",
					"outputs": [],
					"stateMutability": "nonpayable",
					"type": "function"
				},
				{
					"inputs": [],
					"name": "dripRate",
					"outputs": [
						{
							"internalType": "uint256",
							"name": "",
							"type": "uint256"
						}
					],
					"stateMutability": "view",
					"type": "function"
				},
				{
					"inputs": [],
					"name": "dripRewards",
					"outputs": [],
					"stateMutability": "nonpayable",
					"type": "function"
				},
				{
					"inputs": [
						{
							"internalType": "contract IERC20",
							"name": "token",
							"type": "address"
						},
						{
							"internalType": "uint256",
							"name": "amnt",
							"type": "uint256"
						}
					],
					"name": "emergencyWithdraw",
					"outputs": [],
					"stateMutability": "nonpayable",
					"type": "function"
				},
				{
					"inputs": [],
					"name": "enabled",
					"outputs": [
						{
							"internalType": "bool",
							"name": "",
							"type": "bool"
						}
					],
					"stateMutability": "view",
					"type": "function"
				},
				{
					"inputs": [],
					"name": "getBalance",
					"outputs": [
						{
							"internalType": "uint256",
							"name": "",
							"type": "uint256"
						}
					],
					"stateMutability": "view",
					"type": "function"
				},
				{
					"inputs": [],
					"name": "getBalancePool",
					"outputs": [
						{
							"internalType": "uint256",
							"name": "",
							"type": "uint256"
						}
					],
					"stateMutability": "view",
					"type": "function"
				},
				{
					"inputs": [
						{
							"internalType": "address",
							"name": "_user",
							"type": "address"
						}
					],
					"name": "getDayDripEstimate",
					"outputs": [
						{
							"internalType": "uint256",
							"name": "",
							"type": "uint256"
						}
					],
					"stateMutability": "view",
					"type": "function"
				},
				{
					"inputs": [
						{
							"internalType": "address",
							"name": "account",
							"type": "address"
						}
					],
					"name": "getDistributionRewards",
					"outputs": [
						{
							"internalType": "uint256",
							"name": "",
							"type": "uint256"
						}
					],
					"stateMutability": "view",
					"type": "function"
				},
				{
					"inputs": [
						{
							"internalType": "address",
							"name": "_sender",
							"type": "address"
						}
					],
					"name": "getNodes",
					"outputs": [
						{
							"internalType": "uint256[]",
							"name": "",
							"type": "uint256[]"
						}
					],
					"stateMutability": "view",
					"type": "function"
				},
				{
					"inputs": [],
					"name": "getRewardDrip",
					"outputs": [
						{
							"internalType": "uint256",
							"name": "",
							"type": "uint256"
						}
					],
					"stateMutability": "view",
					"type": "function"
				},
				{
					"inputs": [],
					"name": "getTotalNodes",
					"outputs": [
						{
							"internalType": "uint256[]",
							"name": "",
							"type": "uint256[]"
						}
					],
					"stateMutability": "view",
					"type": "function"
				},
				{
					"inputs": [
						{
							"internalType": "address",
							"name": "_sender",
							"type": "address"
						}
					],
					"name": "getTotalRewards",
					"outputs": [
						{
							"internalType": "uint256",
							"name": "",
							"type": "uint256"
						}
					],
					"stateMutability": "view",
					"type": "function"
				},
				{
					"inputs": [
						{
							"internalType": "address",
							"name": "_sender",
							"type": "address"
						}
					],
					"name": "isMaxPayout",
					"outputs": [
						{
							"internalType": "bool",
							"name": "",
							"type": "bool"
						}
					],
					"stateMutability": "view",
					"type": "function"
				},
				{
					"inputs": [],
					"name": "lastDripTime",
					"outputs": [
						{
							"internalType": "uint256",
							"name": "",
							"type": "uint256"
						}
					],
					"stateMutability": "view",
					"type": "function"
				},
				{
					"inputs": [
						{
							"internalType": "address",
							"name": "_sender",
							"type": "address"
						}
					],
					"name": "maxPayout",
					"outputs": [
						{
							"internalType": "uint256",
							"name": "",
							"type": "uint256"
						}
					],
					"stateMutability": "view",
					"type": "function"
				},
				{
					"inputs": [],
					"name": "maxReturnPercent",
					"outputs": [
						{
							"internalType": "uint256",
							"name": "",
							"type": "uint256"
						}
					],
					"stateMutability": "view",
					"type": "function"
				},
				{
					"inputs": [
						{
							"internalType": "address",
							"name": "",
							"type": "address"
						},
						{
							"internalType": "uint256",
							"name": "",
							"type": "uint256"
						}
					],
					"name": "nodes",
					"outputs": [
						{
							"internalType": "uint256",
							"name": "",
							"type": "uint256"
						}
					],
					"stateMutability": "view",
					"type": "function"
				},
				{
					"inputs": [
						{
							"internalType": "address",
							"name": "_sender",
							"type": "address"
						},
						{
							"internalType": "uint256",
							"name": "_nodeId",
							"type": "uint256"
						}
					],
					"name": "numNodes",
					"outputs": [
						{
							"internalType": "uint256",
							"name": "",
							"type": "uint256"
						}
					],
					"stateMutability": "view",
					"type": "function"
				},
				{
					"inputs": [
						{
							"internalType": "uint256",
							"name": "rate",
							"type": "uint256"
						}
					],
					"name": "setDripRate",
					"outputs": [],
					"stateMutability": "nonpayable",
					"type": "function"
				},
				{
					"inputs": [
						{
							"internalType": "bool",
							"name": "_enabled",
							"type": "bool"
						}
					],
					"name": "setEnabled",
					"outputs": [],
					"stateMutability": "nonpayable",
					"type": "function"
				},
				{
					"inputs": [
						{
							"internalType": "uint256",
							"name": "timestamp",
							"type": "uint256"
						}
					],
					"name": "setLastDripTime",
					"outputs": [],
					"stateMutability": "nonpayable",
					"type": "function"
				},
				{
					"inputs": [
						{
							"internalType": "uint256",
							"name": "percent",
							"type": "uint256"
						}
					],
					"name": "setMaxReturnPercent",
					"outputs": [],
					"stateMutability": "nonpayable",
					"type": "function"
				},
				{
					"inputs": [
						{
							"internalType": "address",
							"name": "_user",
							"type": "address"
						},
						{
							"internalType": "uint256[]",
							"name": "_nodes",
							"type": "uint256[]"
						}
					],
					"name": "setNodes",
					"outputs": [],
					"stateMutability": "nonpayable",
					"type": "function"
				},
				{
					"inputs": [
						{
							"internalType": "uint256",
							"name": "_startTime",
							"type": "uint256"
						}
					],
					"name": "setStartTime",
					"outputs": [],
					"stateMutability": "nonpayable",
					"type": "function"
				},
				{
					"inputs": [
						{
							"internalType": "uint256[]",
							"name": "_tierAllocPoints",
							"type": "uint256[]"
						},
						{
							"internalType": "uint256[]",
							"name": "_tierAmounts",
							"type": "uint256[]"
						}
					],
					"name": "setTierValues",
					"outputs": [],
					"stateMutability": "nonpayable",
					"type": "function"
				},
				{
					"inputs": [
						{
							"internalType": "uint256",
							"name": "percent",
							"type": "uint256"
						}
					],
					"name": "setTreasuryFeePercent",
					"outputs": [],
					"stateMutability": "nonpayable",
					"type": "function"
				},
				{
					"inputs": [
						{
							"internalType": "address",
							"name": "_addr",
							"type": "address"
						},
						{
							"components": [
								{
									"internalType": "uint256",
									"name": "total_deposits",
									"type": "uint256"
								},
								{
									"internalType": "uint256",
									"name": "total_claims",
									"type": "uint256"
								},
								{
									"internalType": "uint256",
									"name": "last_distPoints",
									"type": "uint256"
								}
							],
							"internalType": "struct Node.User",
							"name": "_user",
							"type": "tuple"
						}
					],
					"name": "setUser",
					"outputs": [],
					"stateMutability": "nonpayable",
					"type": "function"
				},
				{
					"inputs": [],
					"name": "startTime",
					"outputs": [
						{
							"internalType": "uint256",
							"name": "",
							"type": "uint256"
						}
					],
					"stateMutability": "view",
					"type": "function"
				},
				{
					"inputs": [
						{
							"internalType": "uint256",
							"name": "",
							"type": "uint256"
						}
					],
					"name": "tierAllocPoints",
					"outputs": [
						{
							"internalType": "uint256",
							"name": "",
							"type": "uint256"
						}
					],
					"stateMutability": "view",
					"type": "function"
				},
				{
					"inputs": [
						{
							"internalType": "uint256",
							"name": "",
							"type": "uint256"
						}
					],
					"name": "tierAmounts",
					"outputs": [
						{
							"internalType": "uint256",
							"name": "",
							"type": "uint256"
						}
					],
					"stateMutability": "view",
					"type": "function"
				},
				{
					"inputs": [],
					"name": "totalAllocPoints",
					"outputs": [
						{
							"internalType": "uint256",
							"name": "",
							"type": "uint256"
						}
					],
					"stateMutability": "view",
					"type": "function"
				},
				{
					"inputs": [],
					"name": "totalDistributePoints",
					"outputs": [
						{
							"internalType": "uint256",
							"name": "",
							"type": "uint256"
						}
					],
					"stateMutability": "view",
					"type": "function"
				},
				{
					"inputs": [],
					"name": "totalDistributeRewards",
					"outputs": [
						{
							"internalType": "uint256",
							"name": "",
							"type": "uint256"
						}
					],
					"stateMutability": "view",
					"type": "function"
				},
				{
					"inputs": [
						{
							"internalType": "uint256",
							"name": "",
							"type": "uint256"
						}
					],
					"name": "totalNodes",
					"outputs": [
						{
							"internalType": "uint256",
							"name": "",
							"type": "uint256"
						}
					],
					"stateMutability": "view",
					"type": "function"
				},
				{
					"inputs": [],
					"name": "total_claimed",
					"outputs": [
						{
							"internalType": "uint256",
							"name": "",
							"type": "uint256"
						}
					],
					"stateMutability": "view",
					"type": "function"
				},
				{
					"inputs": [],
					"name": "total_deposited",
					"outputs": [
						{
							"internalType": "uint256",
							"name": "",
							"type": "uint256"
						}
					],
					"stateMutability": "view",
					"type": "function"
				},
				{
					"inputs": [],
					"name": "total_rewards",
					"outputs": [
						{
							"internalType": "uint256",
							"name": "",
							"type": "uint256"
						}
					],
					"stateMutability": "view",
					"type": "function"
				},
				{
					"inputs": [],
					"name": "total_users",
					"outputs": [
						{
							"internalType": "uint256",
							"name": "",
							"type": "uint256"
						}
					],
					"stateMutability": "view",
					"type": "function"
				},
				{
					"inputs": [],
					"name": "treasuryFeePercent",
					"outputs": [
						{
							"internalType": "uint256",
							"name": "",
							"type": "uint256"
						}
					],
					"stateMutability": "view",
					"type": "function"
				},
				{
					"inputs": [],
					"name": "treasury_rewards",
					"outputs": [
						{
							"internalType": "uint256",
							"name": "",
							"type": "uint256"
						}
					],
					"stateMutability": "view",
					"type": "function"
				},
				{
					"inputs": [
						{
							"internalType": "uint256",
							"name": "",
							"type": "uint256"
						}
					],
					"name": "userIndices",
					"outputs": [
						{
							"internalType": "address",
							"name": "",
							"type": "address"
						}
					],
					"stateMutability": "view",
					"type": "function"
				},
				{
					"inputs": [
						{
							"internalType": "address",
							"name": "",
							"type": "address"
						}
					],
					"name": "users",
					"outputs": [
						{
							"internalType": "uint256",
							"name": "total_deposits",
							"type": "uint256"
						},
						{
							"internalType": "uint256",
							"name": "total_claims",
							"type": "uint256"
						},
						{
							"internalType": "uint256",
							"name": "last_distPoints",
							"type": "uint256"
						}
					],
					"stateMutability": "view",
					"type": "function"
				},
				{
					"stateMutability": "payable",
					"type": "receive"
				}
			],
			"devdoc": {
				"kind": "dev",
				"methods": {},
				"version": 1
			},
			"evm": {
				"assembly": "    /* \"node.sol\":14979:27397  contract Node {\r... */\n  mstore(0x40, 0x80)\n    /* \"node.sol\":15162:15257  uint256[] public tierAllocPoints = [1 ether, 2.1 ether, 4.41 ether, 9.261 ether, 19.4481 ether] */\n  mload(0x40)\n  dup1\n  0xa0\n  add\n  0x40\n  mstore\n  dup1\n    /* \"node.sol\":15198:15205  1 ether */\n  0x0de0b6b3a7640000\n    /* \"node.sol\":15162:15257  uint256[] public tierAllocPoints = [1 ether, 2.1 ether, 4.41 ether, 9.261 ether, 19.4481 ether] */\n  0xffffffffffffffffff\n  and\n  dup2\n  mstore\n  0x20\n  add\n    /* \"node.sol\":15207:15216  2.1 ether */\n  0x1d24b2dfac520000\n    /* \"node.sol\":15162:15257  uint256[] public tierAllocPoints = [1 ether, 2.1 ether, 4.41 ether, 9.261 ether, 19.4481 ether] */\n  0xffffffffffffffffff\n  and\n  dup2\n  mstore\n  0x20\n  add\n    /* \"node.sol\":15218:15228  4.41 ether */\n  0x3d3377a283790000\n    /* \"node.sol\":15162:15257  uint256[] public tierAllocPoints = [1 ether, 2.1 ether, 4.41 ether, 9.261 ether, 19.4481 ether] */\n  0xffffffffffffffffff\n  and\n  dup2\n  mstore\n  0x20\n  add\n    /* \"node.sol\":15230:15241  9.261 ether */\n  0x8085ae6ee0e48000\n    /* \"node.sol\":15162:15257  uint256[] public tierAllocPoints = [1 ether, 2.1 ether, 4.41 ether, 9.261 ether, 19.4481 ether] */\n  0xffffffffffffffffff\n  and\n  dup2\n  mstore\n  0x20\n  add\n    /* \"node.sol\":15243:15256  19.4481 ether */\n  0x010de587e8d8464000\n    /* \"node.sol\":15162:15257  uint256[] public tierAllocPoints = [1 ether, 2.1 ether, 4.41 ether, 9.261 ether, 19.4481 ether] */\n  0xffffffffffffffffff\n  and\n  dup2\n  mstore\n  pop\n  0x00\n  swap1\n  0x05\n  tag_1\n  swap3\n  swap2\n  swap1\n  tag_2\n  jump\t// in\ntag_1:\n  pop\n    /* \"node.sol\":15264:15348  uint256[] public tierAmounts = [1 ether, 4 ether, 800 ether, 1600 ether, 3000 ether] */\n  mload(0x40)\n  dup1\n  0xa0\n  add\n  0x40\n  mstore\n  dup1\n    /* \"node.sol\":15296:15303  1 ether */\n  0x0de0b6b3a7640000\n    /* \"node.sol\":15264:15348  uint256[] public tierAmounts = [1 ether, 4 ether, 800 ether, 1600 ether, 3000 ether] */\n  0xffffffffffffffffff\n  and\n  dup2\n  mstore\n  0x20\n  add\n    /* \"node.sol\":15305:15312  4 ether */\n  0x3782dace9d900000\n    /* \"node.sol\":15264:15348  uint256[] public tierAmounts = [1 ether, 4 ether, 800 ether, 1600 ether, 3000 ether] */\n  0xffffffffffffffffff\n  and\n  dup2\n  mstore\n  0x20\n  add\n    /* \"node.sol\":15314:15323  800 ether */\n  0x2b5e3af16b18800000\n    /* \"node.sol\":15264:15348  uint256[] public tierAmounts = [1 ether, 4 ether, 800 ether, 1600 ether, 3000 ether] */\n  0xffffffffffffffffff\n  and\n  dup2\n  mstore\n  0x20\n  add\n    /* \"node.sol\":15325:15335  1600 ether */\n  0x56bc75e2d631000000\n    /* \"node.sol\":15264:15348  uint256[] public tierAmounts = [1 ether, 4 ether, 800 ether, 1600 ether, 3000 ether] */\n  0xffffffffffffffffff\n  and\n  dup2\n  mstore\n  0x20\n  add\n    /* \"node.sol\":15337:15347  3000 ether */\n  0xa2a15d09519be00000\n    /* \"node.sol\":15264:15348  uint256[] public tierAmounts = [1 ether, 4 ether, 800 ether, 1600 ether, 3000 ether] */\n  0xffffffffffffffffff\n  and\n  dup2\n  mstore\n  pop\n  0x01\n  swap1\n  0x05\n  tag_3\n  swap3\n  swap2\n  swap1\n  tag_2\n  jump\t// in\ntag_3:\n  pop\n    /* \"node.sol\":16271:16633  constructor(uint256 _startTime) public {\r... */\n  callvalue\n  dup1\n  iszero\n  tag_4\n  jumpi\n  0x00\n  dup1\n  revert\ntag_4:\n  pop\n  mload(0x40)\n  sub(codesize, bytecodeSize)\n  dup1\n  bytecodeSize\n  dup4\n  codecopy\n  dup2\n  dup2\n  add\n  0x40\n  mstore\n  dup2\n  add\n  swap1\n  tag_5\n  swap2\n  swap1\n  tag_6\n  jump\t// in\ntag_5:\n    /* \"node.sol\":16340:16343  400 */\n  0x0190\n    /* \"node.sol\":16321:16337  maxReturnPercent */\n  0x0e\n    /* \"node.sol\":16321:16343  maxReturnPercent = 400 */\n  dup2\n  swap1\n  sstore\n  pop\n    /* \"node.sol\":16381:16388  2880000 */\n  0x2bf200\n    /* \"node.sol\":16370:16378  dripRate */\n  0x0f\n    /* \"node.sol\":16370:16388  dripRate = 2880000 */\n  dup2\n  swap1\n  sstore\n  pop\n    /* \"node.sol\":16432:16434  20 */\n  0x14\n    /* \"node.sol\":16411:16429  treasuryFeePercent */\n  0x0b\n    /* \"node.sol\":16411:16434  treasuryFeePercent = 20 */\n  dup2\n  swap1\n  sstore\n  pop\n    /* \"node.sol\":16494:16509  block.timestamp */\n  timestamp\n    /* \"node.sol\":16481:16491  _startTime */\n  dup2\n    /* \"node.sol\":16481:16509  _startTime > block.timestamp */\n  gt\n    /* \"node.sol\":16481:16540  _startTime > block.timestamp ? _startTime : block.timestamp */\n  tag_9\n  jumpi\n    /* \"node.sol\":16525:16540  block.timestamp */\n  timestamp\n    /* \"node.sol\":16481:16540  _startTime > block.timestamp ? _startTime : block.timestamp */\n  jump(tag_10)\ntag_9:\n    /* \"node.sol\":16512:16522  _startTime */\n  dup1\n    /* \"node.sol\":16481:16540  _startTime > block.timestamp ? _startTime : block.timestamp */\ntag_10:\n    /* \"node.sol\":16466:16478  lastDripTime */\n  0x10\n    /* \"node.sol\":16466:16540  lastDripTime = _startTime > block.timestamp ? _startTime : block.timestamp */\n  dup2\n  swap1\n  sstore\n  pop\n    /* \"node.sol\":16563:16573  _startTime */\n  dup1\n    /* \"node.sol\":16551:16560  startTime */\n  0x11\n    /* \"node.sol\":16551:16573  startTime = _startTime */\n  dup2\n  swap1\n  sstore\n  pop\n    /* \"node.sol\":16594:16598  true */\n  0x01\n    /* \"node.sol\":16584:16591  enabled */\n  0x12\n  0x00\n    /* \"node.sol\":16584:16598  enabled = true */\n  0x0100\n  exp\n  dup2\n  sload\n  dup2\n  0xff\n  mul\n  not\n  and\n  swap1\n  dup4\n  iszero\n  iszero\n  mul\n  or\n  swap1\n  sstore\n  pop\n    /* \"node.sol\":16615:16625  msg.sender */\n  caller\n    /* \"node.sol\":16609:16612  dev */\n  0x02\n  0x00\n    /* \"node.sol\":16609:16625  dev = msg.sender */\n  0x0100\n  exp\n  dup2\n  sload\n  dup2\n  0xffffffffffffffffffffffffffffffffffffffff\n  mul\n  not\n  and\n  swap1\n  dup4\n  0xffffffffffffffffffffffffffffffffffffffff\n  and\n  mul\n  or\n  swap1\n  sstore\n  pop\n    /* \"node.sol\":16271:16633  constructor(uint256 _startTime) public {\r... */\n  pop\n    /* \"node.sol\":14979:27397  contract Node {\r... */\n  jump(tag_11)\ntag_2:\n  dup3\n  dup1\n  sload\n  dup3\n  dup3\n  sstore\n  swap1\n  0x00\n  mstore\n  keccak256(0x00, 0x20)\n  swap1\n  dup2\n  add\n  swap3\n  dup3\n  iszero\n  tag_12\n  jumpi\n  swap2\n  0x20\n  mul\n  dup3\n  add\ntag_13:\n  dup3\n  dup2\n  gt\n  iszero\n  tag_14\n  jumpi\n  dup3\n  mload\n  dup3\n  swap1\n  0xffffffffffffffffff\n  and\n  swap1\n  sstore\n  swap2\n  0x20\n  add\n  swap2\n  swap1\n  0x01\n  add\n  swap1\n  jump(tag_13)\ntag_14:\ntag_12:\n  pop\n  swap1\n  pop\n  tag_15\n  swap2\n  swap1\n  tag_16\n  jump\t// in\ntag_15:\n  pop\n  swap1\n  jump\t// out\ntag_16:\ntag_17:\n  dup1\n  dup3\n  gt\n  iszero\n  tag_18\n  jumpi\n  0x00\n  dup2\n  0x00\n  swap1\n  sstore\n  pop\n  0x01\n  add\n  jump(tag_17)\ntag_18:\n  pop\n  swap1\n  jump\t// out\n    /* \"--CODEGEN--\":5:139   */\ntag_20:\n  0x00\n    /* \"--CODEGEN--\":89:95   */\n  dup2\n    /* \"--CODEGEN--\":83:96   */\n  mload\n    /* \"--CODEGEN--\":74:96   */\n  swap1\n  pop\n    /* \"--CODEGEN--\":101:134   */\n  tag_22\n    /* \"--CODEGEN--\":128:133   */\n  dup2\n    /* \"--CODEGEN--\":101:134   */\n  tag_23\n  jump\t// in\ntag_22:\n    /* \"--CODEGEN--\":68:139   */\n  swap3\n  swap2\n  pop\n  pop\n  jump\t// out\n    /* \"--CODEGEN--\":146:409   */\ntag_6:\n  0x00\n    /* \"--CODEGEN--\":261:263   */\n  0x20\n    /* \"--CODEGEN--\":249:258   */\n  dup3\n    /* \"--CODEGEN--\":240:247   */\n  dup5\n    /* \"--CODEGEN--\":236:259   */\n  sub\n    /* \"--CODEGEN--\":232:264   */\n  slt\n    /* \"--CODEGEN--\":229:231   */\n  iszero\n  tag_25\n  jumpi\n    /* \"--CODEGEN--\":277:278   */\n  0x00\n    /* \"--CODEGEN--\":274:275   */\n  dup1\n    /* \"--CODEGEN--\":267:279   */\n  revert\n    /* \"--CODEGEN--\":229:231   */\ntag_25:\n    /* \"--CODEGEN--\":312:313   */\n  0x00\n    /* \"--CODEGEN--\":329:393   */\n  tag_26\n    /* \"--CODEGEN--\":385:392   */\n  dup5\n    /* \"--CODEGEN--\":376:382   */\n  dup3\n    /* \"--CODEGEN--\":365:374   */\n  dup6\n    /* \"--CODEGEN--\":361:383   */\n  add\n    /* \"--CODEGEN--\":329:393   */\n  tag_20\n  jump\t// in\ntag_26:\n    /* \"--CODEGEN--\":319:393   */\n  swap2\n  pop\n    /* \"--CODEGEN--\":291:399   */\n  pop\n    /* \"--CODEGEN--\":223:409   */\n  swap3\n  swap2\n  pop\n  pop\n  jump\t// out\n    /* \"--CODEGEN--\":416:488   */\ntag_27:\n  0x00\n    /* \"--CODEGEN--\":478:483   */\n  dup2\n    /* \"--CODEGEN--\":467:483   */\n  swap1\n  pop\n    /* \"--CODEGEN--\":461:488   */\n  swap2\n  swap1\n  pop\n  jump\t// out\n    /* \"--CODEGEN--\":495:612   */\ntag_23:\n    /* \"--CODEGEN--\":564:588   */\n  tag_30\n    /* \"--CODEGEN--\":582:587   */\n  dup2\n    /* \"--CODEGEN--\":564:588   */\n  tag_27\n  jump\t// in\ntag_30:\n    /* \"--CODEGEN--\":557:562   */\n  dup2\n    /* \"--CODEGEN--\":554:589   */\n  eq\n    /* \"--CODEGEN--\":544:546   */\n  tag_31\n  jumpi\n    /* \"--CODEGEN--\":603:604   */\n  0x00\n    /* \"--CODEGEN--\":600:601   */\n  dup1\n    /* \"--CODEGEN--\":593:605   */\n  revert\n    /* \"--CODEGEN--\":544:546   */\ntag_31:\n    /* \"--CODEGEN--\":538:612   */\n  pop\n  jump\t// out\n    /* \"node.sol\":14979:27397  contract Node {\r... */\ntag_11:\n  dataSize(sub_0)\n  dup1\n  dataOffset(sub_0)\n  0x00\n  codecopy\n  0x00\n  return\nstop\n\nsub_0: assembly {\n        /* \"node.sol\":14979:27397  contract Node {\r... */\n      mstore(0x40, 0x80)\n      jumpi(tag_1, lt(calldatasize, 0x04))\n      shr(0xe0, calldataload(0x00))\n      dup1\n      0x5c75dcbc\n      gt\n      tag_53\n      jumpi\n      dup1\n      0x9f7b4579\n      gt\n      tag_54\n      jumpi\n      dup1\n      0xd3261592\n      gt\n      tag_55\n      jumpi\n      dup1\n      0xe7cc62bd\n      gt\n      tag_56\n      jumpi\n      dup1\n      0xe7cc62bd\n      eq\n      tag_49\n      jumpi\n      dup1\n      0xf65f4eaf\n      eq\n      tag_50\n      jumpi\n      dup1\n      0xf69e2046\n      eq\n      tag_51\n      jumpi\n      dup1\n      0xfba1f7b0\n      eq\n      tag_52\n      jumpi\n      jump(tag_2)\n    tag_56:\n      dup1\n      0xd3261592\n      eq\n      tag_46\n      jumpi\n      dup1\n      0xde560cca\n      eq\n      tag_47\n      jumpi\n      dup1\n      0xe300e98b\n      eq\n      tag_48\n      jumpi\n      jump(tag_2)\n    tag_55:\n      dup1\n      0x9f7b4579\n      eq\n      tag_40\n      jumpi\n      dup1\n      0xa87430ba\n      eq\n      tag_41\n      jumpi\n      dup1\n      0xab4e2785\n      eq\n      tag_42\n      jumpi\n      dup1\n      0xadf1b67e\n      eq\n      tag_43\n      jumpi\n      dup1\n      0xbcb11639\n      eq\n      tag_44\n      jumpi\n      dup1\n      0xc7ce9560\n      eq\n      tag_45\n      jumpi\n      jump(tag_2)\n    tag_54:\n      dup1\n      0x740c8af7\n      gt\n      tag_57\n      jumpi\n      dup1\n      0x740c8af7\n      eq\n      tag_34\n      jumpi\n      dup1\n      0x78e97925\n      eq\n      tag_35\n      jumpi\n      dup1\n      0x82bfefc8\n      eq\n      tag_36\n      jumpi\n      dup1\n      0x88a8c95c\n      eq\n      tag_37\n      jumpi\n      dup1\n      0x94ac42cc\n      eq\n      tag_38\n      jumpi\n      dup1\n      0x95ccea67\n      eq\n      tag_39\n      jumpi\n      jump(tag_2)\n    tag_57:\n      dup1\n      0x5c75dcbc\n      eq\n      tag_28\n      jumpi\n      dup1\n      0x5fb11d7e\n      eq\n      tag_29\n      jumpi\n      dup1\n      0x5fbb48dc\n      eq\n      tag_30\n      jumpi\n      dup1\n      0x63584ecd\n      eq\n      tag_31\n      jumpi\n      dup1\n      0x648acb09\n      eq\n      tag_32\n      jumpi\n      dup1\n      0x6af904c6\n      eq\n      tag_33\n      jumpi\n      jump(tag_2)\n    tag_53:\n      dup1\n      0x2ae27071\n      gt\n      tag_58\n      jumpi\n      dup1\n      0x486af96a\n      gt\n      tag_59\n      jumpi\n      dup1\n      0x5083f17b\n      gt\n      tag_60\n      jumpi\n      dup1\n      0x5083f17b\n      eq\n      tag_24\n      jumpi\n      dup1\n      0x56e1221c\n      eq\n      tag_25\n      jumpi\n      dup1\n      0x5b0d2d8c\n      eq\n      tag_26\n      jumpi\n      dup1\n      0x5b2f3c8e\n      eq\n      tag_27\n      jumpi\n      jump(tag_2)\n    tag_60:\n      dup1\n      0x486af96a\n      eq\n      tag_21\n      jumpi\n      dup1\n      0x4b3dd5b5\n      eq\n      tag_22\n      jumpi\n      dup1\n      0x4e71d92d\n      eq\n      tag_23\n      jumpi\n      jump(tag_2)\n    tag_59:\n      dup1\n      0x2ae27071\n      eq\n      tag_15\n      jumpi\n      dup1\n      0x2bcf161c\n      eq\n      tag_16\n      jumpi\n      dup1\n      0x328d8f72\n      eq\n      tag_17\n      jumpi\n      dup1\n      0x35771fe0\n      eq\n      tag_18\n      jumpi\n      dup1\n      0x3e0a322d\n      eq\n      tag_19\n      jumpi\n      dup1\n      0x44886d70\n      eq\n      tag_20\n      jumpi\n      jump(tag_2)\n    tag_58:\n      dup1\n      0x1fa36cbe\n      gt\n      tag_61\n      jumpi\n      dup1\n      0x1fa36cbe\n      eq\n      tag_9\n      jumpi\n      dup1\n      0x211aea02\n      eq\n      tag_10\n      jumpi\n      dup1\n      0x2365d7bc\n      eq\n      tag_11\n      jumpi\n      dup1\n      0x238dafe0\n      eq\n      tag_12\n      jumpi\n      dup1\n      0x2702dfe7\n      eq\n      tag_13\n      jumpi\n      dup1\n      0x277e5316\n      eq\n      tag_14\n      jumpi\n      jump(tag_2)\n    tag_61:\n      dup1\n      0x059f8b16\n      eq\n      tag_3\n      jumpi\n      dup1\n      0x05c4744b\n      eq\n      tag_4\n      jumpi\n      dup1\n      0x05d6bbf4\n      eq\n      tag_5\n      jumpi\n      dup1\n      0x12065fe0\n      eq\n      tag_6\n      jumpi\n      dup1\n      0x1d1c7b4e\n      eq\n      tag_7\n      jumpi\n      dup1\n      0x1ed5c6c2\n      eq\n      tag_8\n      jumpi\n      jump(tag_2)\n    tag_1:\n      jumpi(tag_2, calldatasize)\n        /* \"node.sol\":16679:16706  revert(\"Do not send AVAX.\") */\n      mload(0x40)\n      0x08c379a000000000000000000000000000000000000000000000000000000000\n      dup2\n      mstore\n      0x04\n      add\n      tag_64\n      swap1\n      tag_65\n      jump\t// in\n    tag_64:\n      mload(0x40)\n      dup1\n      swap2\n      sub\n      swap1\n      revert\n        /* \"node.sol\":14979:27397  contract Node {\r... */\n    tag_2:\n      0x00\n      dup1\n      revert\n        /* \"node.sol\":16218:16260  uint256 public constant MULTIPLIER = 10e18 */\n    tag_3:\n      callvalue\n      dup1\n      iszero\n      tag_66\n      jumpi\n      0x00\n      dup1\n      revert\n    tag_66:\n      pop\n      tag_67\n      tag_68\n      jump\t// in\n    tag_67:\n      mload(0x40)\n      tag_69\n      swap2\n      swap1\n      tag_70\n      jump\t// in\n    tag_69:\n      mload(0x40)\n      dup1\n      swap2\n      sub\n      swap1\n      return\n        /* \"node.sol\":16987:17178  function claimTreasuryRewards() external {\r... */\n    tag_4:\n      callvalue\n      dup1\n      iszero\n      tag_71\n      jumpi\n      0x00\n      dup1\n      revert\n    tag_71:\n      pop\n      tag_72\n      tag_73\n      jump\t// in\n    tag_72:\n      stop\n        /* \"node.sol\":15859:15887  uint256 public total_rewards */\n    tag_5:\n      callvalue\n      dup1\n      iszero\n      tag_74\n      jumpi\n      0x00\n      dup1\n      revert\n    tag_74:\n      pop\n      tag_75\n      tag_76\n      jump\t// in\n    tag_75:\n      mload(0x40)\n      tag_77\n      swap2\n      swap1\n      tag_70\n      jump\t// in\n    tag_77:\n      mload(0x40)\n      dup1\n      swap2\n      sub\n      swap1\n      return\n        /* \"node.sol\":27006:27122  function getBalance() public view returns (uint256) {\r... */\n    tag_6:\n      callvalue\n      dup1\n      iszero\n      tag_78\n      jumpi\n      0x00\n      dup1\n      revert\n    tag_78:\n      pop\n      tag_79\n      tag_80\n      jump\t// in\n    tag_79:\n      mload(0x40)\n      tag_81\n      swap2\n      swap1\n      tag_70\n      jump\t// in\n    tag_81:\n      mload(0x40)\n      dup1\n      swap2\n      sub\n      swap1\n      return\n        /* \"node.sol\":15698:15743  mapping(uint256 => uint256) public totalNodes */\n    tag_7:\n      callvalue\n      dup1\n      iszero\n      tag_82\n      jumpi\n      0x00\n      dup1\n      revert\n    tag_82:\n      pop\n      tag_83\n      0x04\n      dup1\n      calldatasize\n      sub\n      dup2\n      add\n      swap1\n      tag_84\n      swap2\n      swap1\n      tag_85\n      jump\t// in\n    tag_84:\n      tag_86\n      jump\t// in\n    tag_83:\n      mload(0x40)\n      tag_87\n      swap2\n      swap1\n      tag_70\n      jump\t// in\n    tag_87:\n      mload(0x40)\n      dup1\n      swap2\n      sub\n      swap1\n      return\n        /* \"node.sol\":17613:17717  function setLastDripTime(uint256 timestamp) external onlyDev {\r... */\n    tag_8:\n      callvalue\n      dup1\n      iszero\n      tag_88\n      jumpi\n      0x00\n      dup1\n      revert\n    tag_88:\n      pop\n      tag_89\n      0x04\n      dup1\n      calldatasize\n      sub\n      dup2\n      add\n      swap1\n      tag_90\n      swap2\n      swap1\n      tag_85\n      jump\t// in\n    tag_90:\n      tag_91\n      jump\t// in\n    tag_89:\n      stop\n        /* \"node.sol\":18809:19072  function totalAllocPoints() public view returns (uint256) {\r... */\n    tag_9:\n      callvalue\n      dup1\n      iszero\n      tag_92\n      jumpi\n      0x00\n      dup1\n      revert\n    tag_92:\n      pop\n      tag_93\n      tag_94\n      jump\t// in\n    tag_93:\n      mload(0x40)\n      tag_95\n      swap2\n      swap1\n      tag_70\n      jump\t// in\n    tag_95:\n      mload(0x40)\n      dup1\n      swap2\n      sub\n      swap1\n      return\n        /* \"node.sol\":15750:15778  address[] public userIndices */\n    tag_10:\n      callvalue\n      dup1\n      iszero\n      tag_96\n      jumpi\n      0x00\n      dup1\n      revert\n    tag_96:\n      pop\n      tag_97\n      0x04\n      dup1\n      calldatasize\n      sub\n      dup2\n      add\n      swap1\n      tag_98\n      swap2\n      swap1\n      tag_85\n      jump\t// in\n    tag_98:\n      tag_99\n      jump\t// in\n    tag_97:\n      mload(0x40)\n      tag_100\n      swap2\n      swap1\n      tag_101\n      jump\t// in\n    tag_100:\n      mload(0x40)\n      dup1\n      swap2\n      sub\n      swap1\n      return\n        /* \"node.sol\":15162:15257  uint256[] public tierAllocPoints = [1 ether, 2.1 ether, 4.41 ether, 9.261 ether, 19.4481 ether] */\n    tag_11:\n      callvalue\n      dup1\n      iszero\n      tag_102\n      jumpi\n      0x00\n      dup1\n      revert\n    tag_102:\n      pop\n      tag_103\n      0x04\n      dup1\n      calldatasize\n      sub\n      dup2\n      add\n      swap1\n      tag_104\n      swap2\n      swap1\n      tag_85\n      jump\t// in\n    tag_104:\n      tag_105\n      jump\t// in\n    tag_103:\n      mload(0x40)\n      tag_106\n      swap2\n      swap1\n      tag_70\n      jump\t// in\n    tag_106:\n      mload(0x40)\n      dup1\n      swap2\n      sub\n      swap1\n      return\n        /* \"node.sol\":16192:16211  bool public enabled */\n    tag_12:\n      callvalue\n      dup1\n      iszero\n      tag_107\n      jumpi\n      0x00\n      dup1\n      revert\n    tag_107:\n      pop\n      tag_108\n      tag_109\n      jump\t// in\n    tag_108:\n      mload(0x40)\n      tag_110\n      swap2\n      swap1\n      tag_111\n      jump\t// in\n    tag_110:\n      mload(0x40)\n      dup1\n      swap2\n      sub\n      swap1\n      return\n        /* \"node.sol\":18130:18522  function setUser(address _addr, User memory _user) external onlyDev {\r... */\n    tag_13:\n      callvalue\n      dup1\n      iszero\n      tag_112\n      jumpi\n      0x00\n      dup1\n      revert\n    tag_112:\n      pop\n      tag_113\n      0x04\n      dup1\n      calldatasize\n      sub\n      dup2\n      add\n      swap1\n      tag_114\n      swap2\n      swap1\n      tag_115\n      jump\t// in\n    tag_114:\n      tag_116\n      jump\t// in\n    tag_113:\n      stop\n        /* \"node.sol\":19365:19759  function getDistributionRewards(address account) public view returns (uint256) {\r... */\n    tag_14:\n      callvalue\n      dup1\n      iszero\n      tag_117\n      jumpi\n      0x00\n      dup1\n      revert\n    tag_117:\n      pop\n      tag_118\n      0x04\n      dup1\n      calldatasize\n      sub\n      dup2\n      add\n      swap1\n      tag_119\n      swap2\n      swap1\n      tag_120\n      jump\t// in\n    tag_119:\n      tag_121\n      jump\t// in\n    tag_118:\n      mload(0x40)\n      tag_122\n      swap2\n      swap1\n      tag_70\n      jump\t// in\n    tag_122:\n      mload(0x40)\n      dup1\n      swap2\n      sub\n      swap1\n      return\n        /* \"node.sol\":17841:18122  function setTierValues(uint256[] memory _tierAllocPoints, uint256[] memory _tierAmounts) external onlyDev {\r... */\n    tag_15:\n      callvalue\n      dup1\n      iszero\n      tag_123\n      jumpi\n      0x00\n      dup1\n      revert\n    tag_123:\n      pop\n      tag_124\n      0x04\n      dup1\n      calldatasize\n      sub\n      dup2\n      add\n      swap1\n      tag_125\n      swap2\n      swap1\n      tag_126\n      jump\t// in\n    tag_125:\n      tag_127\n      jump\t// in\n    tag_124:\n      stop\n        /* \"node.sol\":19771:20311  function getTotalRewards(address _sender) public view returns (uint256) {\r... */\n    tag_16:\n      callvalue\n      dup1\n      iszero\n      tag_128\n      jumpi\n      0x00\n      dup1\n      revert\n    tag_128:\n      pop\n      tag_129\n      0x04\n      dup1\n      calldatasize\n      sub\n      dup2\n      add\n      swap1\n      tag_130\n      swap2\n      swap1\n      tag_120\n      jump\t// in\n    tag_130:\n      tag_131\n      jump\t// in\n    tag_129:\n      mload(0x40)\n      tag_132\n      swap2\n      swap1\n      tag_70\n      jump\t// in\n    tag_132:\n      mload(0x40)\n      dup1\n      swap2\n      sub\n      swap1\n      return\n        /* \"node.sol\":17298:17387  function setEnabled(bool _enabled) external onlyDev {\r... */\n    tag_17:\n      callvalue\n      dup1\n      iszero\n      tag_133\n      jumpi\n      0x00\n      dup1\n      revert\n    tag_133:\n      pop\n      tag_134\n      0x04\n      dup1\n      calldatasize\n      sub\n      dup2\n      add\n      swap1\n      tag_135\n      swap2\n      swap1\n      tag_136\n      jump\t// in\n    tag_135:\n      tag_137\n      jump\t// in\n    tag_134:\n      stop\n        /* \"node.sol\":15264:15348  uint256[] public tierAmounts = [1 ether, 4 ether, 800 ether, 1600 ether, 3000 ether] */\n    tag_18:\n      callvalue\n      dup1\n      iszero\n      tag_138\n      jumpi\n      0x00\n      dup1\n      revert\n    tag_138:\n      pop\n      tag_139\n      0x04\n      dup1\n      calldatasize\n      sub\n      dup2\n      add\n      swap1\n      tag_140\n      swap2\n      swap1\n      tag_85\n      jump\t// in\n    tag_140:\n      tag_141\n      jump\t// in\n    tag_139:\n      mload(0x40)\n      tag_142\n      swap2\n      swap1\n      tag_70\n      jump\t// in\n    tag_142:\n      mload(0x40)\n      dup1\n      swap2\n      sub\n      swap1\n      return\n        /* \"node.sol\":17186:17286  function setStartTime(uint256 _startTime) external onlyDev {\r... */\n    tag_19:\n      callvalue\n      dup1\n      iszero\n      tag_143\n      jumpi\n      0x00\n      dup1\n      revert\n    tag_143:\n      pop\n      tag_144\n      0x04\n      dup1\n      calldatasize\n      sub\n      dup2\n      add\n      swap1\n      tag_145\n      swap2\n      swap1\n      tag_85\n      jump\t// in\n    tag_145:\n      tag_146\n      jump\t// in\n    tag_144:\n      stop\n        /* \"node.sol\":24566:24706  function isMaxPayout(address _sender) public view returns (bool) {\r... */\n    tag_20:\n      callvalue\n      dup1\n      iszero\n      tag_147\n      jumpi\n      0x00\n      dup1\n      revert\n    tag_147:\n      pop\n      tag_148\n      0x04\n      dup1\n      calldatasize\n      sub\n      dup2\n      add\n      swap1\n      tag_149\n      swap2\n      swap1\n      tag_120\n      jump\t// in\n    tag_149:\n      tag_150\n      jump\t// in\n    tag_148:\n      mload(0x40)\n      tag_151\n      swap2\n      swap1\n      tag_111\n      jump\t// in\n    tag_151:\n      mload(0x40)\n      dup1\n      swap2\n      sub\n      swap1\n      return\n        /* \"node.sol\":26356:26684  function getNodes(address _sender) external view returns (uint256[] memory) {\r... */\n    tag_21:\n      callvalue\n      dup1\n      iszero\n      tag_152\n      jumpi\n      0x00\n      dup1\n      revert\n    tag_152:\n      pop\n      tag_153\n      0x04\n      dup1\n      calldatasize\n      sub\n      dup2\n      add\n      swap1\n      tag_154\n      swap2\n      swap1\n      tag_120\n      jump\t// in\n    tag_154:\n      tag_155\n      jump\t// in\n    tag_153:\n      mload(0x40)\n      tag_156\n      swap2\n      swap1\n      tag_157\n      jump\t// in\n    tag_156:\n      mload(0x40)\n      dup1\n      swap2\n      sub\n      swap1\n      return\n        /* \"node.sol\":25255:25715  function getRewardDrip() public view returns (uint256) {\r... */\n    tag_22:\n      callvalue\n      dup1\n      iszero\n      tag_158\n      jumpi\n      0x00\n      dup1\n      revert\n    tag_158:\n      pop\n      tag_159\n      tag_160\n      jump\t// in\n    tag_159:\n      mload(0x40)\n      tag_161\n      swap2\n      swap1\n      tag_70\n      jump\t// in\n    tag_161:\n      mload(0x40)\n      dup1\n      swap2\n      sub\n      swap1\n      return\n        /* \"node.sol\":21774:22638  function claim() public {\r... */\n    tag_23:\n      callvalue\n      dup1\n      iszero\n      tag_162\n      jumpi\n      0x00\n      dup1\n      revert\n    tag_162:\n      pop\n      tag_163\n      tag_164\n      jump\t// in\n    tag_163:\n      stop\n        /* \"node.sol\":18530:18801  function setNodes(address _user, uint256[] memory _nodes) external onlyDev {\r... */\n    tag_24:\n      callvalue\n      dup1\n      iszero\n      tag_165\n      jumpi\n      0x00\n      dup1\n      revert\n    tag_165:\n      pop\n      tag_166\n      0x04\n      dup1\n      calldatasize\n      sub\n      dup2\n      add\n      swap1\n      tag_167\n      swap2\n      swap1\n      tag_168\n      jump\t// in\n    tag_167:\n      tag_169\n      jump\t// in\n    tag_166:\n      stop\n        /* \"node.sol\":17395:17507  function setTreasuryFeePercent(uint256 percent) external onlyDev {\r... */\n    tag_25:\n      callvalue\n      dup1\n      iszero\n      tag_170\n      jumpi\n      0x00\n      dup1\n      revert\n    tag_170:\n      pop\n      tag_171\n      0x04\n      dup1\n      calldatasize\n      sub\n      dup2\n      add\n      swap1\n      tag_172\n      swap2\n      swap1\n      tag_85\n      jump\t// in\n    tag_172:\n      tag_173\n      jump\t// in\n    tag_171:\n      stop\n        /* \"node.sol\":27131:27266  function getBalancePool() public view returns (uint256) {\r... */\n    tag_26:\n      callvalue\n      dup1\n      iszero\n      tag_174\n      jumpi\n      0x00\n      dup1\n      revert\n    tag_174:\n      pop\n      tag_175\n      tag_176\n      jump\t// in\n    tag_175:\n      mload(0x40)\n      tag_177\n      swap2\n      swap1\n      tag_70\n      jump\t// in\n    tag_177:\n      mload(0x40)\n      dup1\n      swap2\n      sub\n      swap1\n      return\n        /* \"node.sol\":25055:25247  function dripRewards() public {\r... */\n    tag_27:\n      callvalue\n      dup1\n      iszero\n      tag_178\n      jumpi\n      0x00\n      dup1\n      revert\n    tag_178:\n      pop\n      tag_179\n      tag_180\n      jump\t// in\n    tag_179:\n      stop\n        /* \"node.sol\":15932:15965  uint256 public treasuryFeePercent */\n    tag_28:\n      callvalue\n      dup1\n      iszero\n      tag_181\n      jumpi\n      0x00\n      dup1\n      revert\n    tag_181:\n      pop\n      tag_182\n      tag_183\n      jump\t// in\n    tag_182:\n      mload(0x40)\n      tag_184\n      swap2\n      swap1\n      tag_70\n      jump\t// in\n    tag_184:\n      mload(0x40)\n      dup1\n      swap2\n      sub\n      swap1\n      return\n        /* \"node.sol\":19080:19357  function allocPoints(address account) public view returns (uint256) {\r... */\n    tag_29:\n      callvalue\n      dup1\n      iszero\n      tag_185\n      jumpi\n      0x00\n      dup1\n      revert\n    tag_185:\n      pop\n      tag_186\n      0x04\n      dup1\n      calldatasize\n      sub\n      dup2\n      add\n      swap1\n      tag_187\n      swap2\n      swap1\n      tag_120\n      jump\t// in\n    tag_187:\n      tag_188\n      jump\t// in\n    tag_186:\n      mload(0x40)\n      tag_189\n      swap2\n      swap1\n      tag_70\n      jump\t// in\n    tag_189:\n      mload(0x40)\n      dup1\n      swap2\n      sub\n      swap1\n      return\n        /* \"node.sol\":17515:17601  function setDripRate(uint256 rate) external onlyDev {\r... */\n    tag_30:\n      callvalue\n      dup1\n      iszero\n      tag_190\n      jumpi\n      0x00\n      dup1\n      revert\n    tag_190:\n      pop\n      tag_191\n      0x04\n      dup1\n      calldatasize\n      sub\n      dup2\n      add\n      swap1\n      tag_192\n      swap2\n      swap1\n      tag_85\n      jump\t// in\n    tag_192:\n      tag_193\n      jump\t// in\n    tag_191:\n      stop\n        /* \"node.sol\":26696:26998  function getTotalNodes() external view returns (uint256[] memory) {\r... */\n    tag_31:\n      callvalue\n      dup1\n      iszero\n      tag_194\n      jumpi\n      0x00\n      dup1\n      revert\n    tag_194:\n      pop\n      tag_195\n      tag_196\n      jump\t// in\n    tag_195:\n      mload(0x40)\n      tag_197\n      swap2\n      swap1\n      tag_157\n      jump\t// in\n    tag_197:\n      mload(0x40)\n      dup1\n      swap2\n      sub\n      swap1\n      return\n        /* \"node.sol\":17725:17833  function setMaxReturnPercent(uint256 percent) external onlyDev {\r... */\n    tag_32:\n      callvalue\n      dup1\n      iszero\n      tag_198\n      jumpi\n      0x00\n      dup1\n      revert\n    tag_198:\n      pop\n      tag_199\n      0x04\n      dup1\n      calldatasize\n      sub\n      dup2\n      add\n      swap1\n      tag_200\n      swap2\n      swap1\n      tag_85\n      jump\t// in\n    tag_200:\n      tag_201\n      jump\t// in\n    tag_199:\n      stop\n        /* \"node.sol\":15824:15852  uint256 public total_claimed */\n    tag_33:\n      callvalue\n      dup1\n      iszero\n      tag_202\n      jumpi\n      0x00\n      dup1\n      revert\n    tag_202:\n      pop\n      tag_203\n      tag_204\n      jump\t// in\n    tag_203:\n      mload(0x40)\n      tag_205\n      swap2\n      swap1\n      tag_70\n      jump\t// in\n    tag_205:\n      mload(0x40)\n      dup1\n      swap2\n      sub\n      swap1\n      return\n        /* \"node.sol\":16059:16090  uint256 public maxReturnPercent */\n    tag_34:\n      callvalue\n      dup1\n      iszero\n      tag_206\n      jumpi\n      0x00\n      dup1\n      revert\n    tag_206:\n      pop\n      tag_207\n      tag_208\n      jump\t// in\n    tag_207:\n      mload(0x40)\n      tag_209\n      swap2\n      swap1\n      tag_70\n      jump\t// in\n    tag_209:\n      mload(0x40)\n      dup1\n      swap2\n      sub\n      swap1\n      return\n        /* \"node.sol\":16161:16185  uint256 public startTime */\n    tag_35:\n      callvalue\n      dup1\n      iszero\n      tag_210\n      jumpi\n      0x00\n      dup1\n      revert\n    tag_210:\n      pop\n      tag_211\n      tag_212\n      jump\t// in\n    tag_211:\n      mload(0x40)\n      tag_213\n      swap2\n      swap1\n      tag_70\n      jump\t// in\n    tag_213:\n      mload(0x40)\n      dup1\n      swap2\n      sub\n      swap1\n      return\n        /* \"node.sol\":15074:15155  IERC20 public constant TOKEN = IERC20(0xD9FF12172803c072a36785DeFea1Aa981A6A0C18) */\n    tag_36:\n      callvalue\n      dup1\n      iszero\n      tag_214\n      jumpi\n      0x00\n      dup1\n      revert\n    tag_214:\n      pop\n      tag_215\n      tag_216\n      jump\t// in\n    tag_215:\n      mload(0x40)\n      tag_217\n      swap2\n      swap1\n      tag_218\n      jump\t// in\n    tag_217:\n      mload(0x40)\n      dup1\n      swap2\n      sub\n      swap1\n      return\n        /* \"node.sol\":16832:16979  function changeDev(address payable newDev) external onlyDev {\r... */\n    tag_37:\n      callvalue\n      dup1\n      iszero\n      tag_219\n      jumpi\n      0x00\n      dup1\n      revert\n    tag_219:\n      pop\n      tag_220\n      0x04\n      dup1\n      calldatasize\n      sub\n      dup2\n      add\n      swap1\n      tag_221\n      swap2\n      swap1\n      tag_222\n      jump\t// in\n    tag_221:\n      tag_223\n      jump\t// in\n    tag_220:\n      stop\n        /* \"node.sol\":25723:26100  function getDayDripEstimate(address _user) external view returns (uint256) {\r... */\n    tag_38:\n      callvalue\n      dup1\n      iszero\n      tag_224\n      jumpi\n      0x00\n      dup1\n      revert\n    tag_224:\n      pop\n      tag_225\n      0x04\n      dup1\n      calldatasize\n      sub\n      dup2\n      add\n      swap1\n      tag_226\n      swap2\n      swap1\n      tag_120\n      jump\t// in\n    tag_226:\n      tag_227\n      jump\t// in\n    tag_225:\n      mload(0x40)\n      tag_228\n      swap2\n      swap1\n      tag_70\n      jump\t// in\n    tag_228:\n      mload(0x40)\n      dup1\n      swap2\n      sub\n      swap1\n      return\n        /* \"node.sol\":27274:27394  function emergencyWithdraw(IERC20 token, uint256 amnt) external onlyDev {\r... */\n    tag_39:\n      callvalue\n      dup1\n      iszero\n      tag_229\n      jumpi\n      0x00\n      dup1\n      revert\n    tag_229:\n      pop\n      tag_230\n      0x04\n      dup1\n      calldatasize\n      sub\n      dup2\n      add\n      swap1\n      tag_231\n      swap2\n      swap1\n      tag_232\n      jump\t// in\n    tag_231:\n      tag_233\n      jump\t// in\n    tag_230:\n      stop\n        /* \"node.sol\":20321:21766  function create(uint256 nodeTier, uint256 numNodes) external {\r... */\n    tag_40:\n      callvalue\n      dup1\n      iszero\n      tag_234\n      jumpi\n      0x00\n      dup1\n      revert\n    tag_234:\n      pop\n      tag_235\n      0x04\n      dup1\n      calldatasize\n      sub\n      dup2\n      add\n      swap1\n      tag_236\n      swap2\n      swap1\n      tag_237\n      jump\t// in\n    tag_236:\n      tag_238\n      jump\t// in\n    tag_235:\n      stop\n        /* \"node.sol\":15587:15624  mapping(address => User) public users */\n    tag_41:\n      callvalue\n      dup1\n      iszero\n      tag_239\n      jumpi\n      0x00\n      dup1\n      revert\n    tag_239:\n      pop\n      tag_240\n      0x04\n      dup1\n      calldatasize\n      sub\n      dup2\n      add\n      swap1\n      tag_241\n      swap2\n      swap1\n      tag_120\n      jump\t// in\n    tag_241:\n      tag_242\n      jump\t// in\n    tag_240:\n      mload(0x40)\n      tag_243\n      swap4\n      swap3\n      swap2\n      swap1\n      tag_244\n      jump\t// in\n    tag_243:\n      mload(0x40)\n      dup1\n      swap2\n      sub\n      swap1\n      return\n        /* \"node.sol\":15894:15925  uint256 public treasury_rewards */\n    tag_42:\n      callvalue\n      dup1\n      iszero\n      tag_245\n      jumpi\n      0x00\n      dup1\n      revert\n    tag_245:\n      pop\n      tag_246\n      tag_247\n      jump\t// in\n    tag_246:\n      mload(0x40)\n      tag_248\n      swap2\n      swap1\n      tag_70\n      jump\t// in\n    tag_248:\n      mload(0x40)\n      dup1\n      swap2\n      sub\n      swap1\n      return\n        /* \"node.sol\":15631:15691  mapping(address => mapping(uint256 => uint256)) public nodes */\n    tag_43:\n      callvalue\n      dup1\n      iszero\n      tag_249\n      jumpi\n      0x00\n      dup1\n      revert\n    tag_249:\n      pop\n      tag_250\n      0x04\n      dup1\n      calldatasize\n      sub\n      dup2\n      add\n      swap1\n      tag_251\n      swap2\n      swap1\n      tag_252\n      jump\t// in\n    tag_251:\n      tag_253\n      jump\t// in\n    tag_250:\n      mload(0x40)\n      tag_254\n      swap2\n      swap1\n      tag_70\n      jump\t// in\n    tag_254:\n      mload(0x40)\n      dup1\n      swap2\n      sub\n      swap1\n      return\n        /* \"node.sol\":26215:26348  function numNodes(address _sender, uint256 _nodeId) external view returns (uint256) {\r... */\n    tag_44:\n      callvalue\n      dup1\n      iszero\n      tag_255\n      jumpi\n      0x00\n      dup1\n      revert\n    tag_255:\n      pop\n      tag_256\n      0x04\n      dup1\n      calldatasize\n      sub\n      dup2\n      add\n      swap1\n      tag_257\n      swap2\n      swap1\n      tag_252\n      jump\t// in\n    tag_257:\n      tag_258\n      jump\t// in\n    tag_256:\n      mload(0x40)\n      tag_259\n      swap2\n      swap1\n      tag_70\n      jump\t// in\n    tag_259:\n      mload(0x40)\n      dup1\n      swap2\n      sub\n      swap1\n      return\n        /* \"node.sol\":16016:16052  uint256 public totalDistributePoints */\n    tag_45:\n      callvalue\n      dup1\n      iszero\n      tag_260\n      jumpi\n      0x00\n      dup1\n      revert\n    tag_260:\n      pop\n      tag_261\n      tag_262\n      jump\t// in\n    tag_261:\n      mload(0x40)\n      tag_263\n      swap2\n      swap1\n      tag_70\n      jump\t// in\n    tag_263:\n      mload(0x40)\n      dup1\n      swap2\n      sub\n      swap1\n      return\n        /* \"node.sol\":16097:16120  uint256 public dripRate */\n    tag_46:\n      callvalue\n      dup1\n      iszero\n      tag_264\n      jumpi\n      0x00\n      dup1\n      revert\n    tag_264:\n      pop\n      tag_265\n      tag_266\n      jump\t// in\n    tag_265:\n      mload(0x40)\n      tag_267\n      swap2\n      swap1\n      tag_70\n      jump\t// in\n    tag_267:\n      mload(0x40)\n      dup1\n      swap2\n      sub\n      swap1\n      return\n        /* \"node.sol\":15787:15817  uint256 public total_deposited */\n    tag_47:\n      callvalue\n      dup1\n      iszero\n      tag_268\n      jumpi\n      0x00\n      dup1\n      revert\n    tag_268:\n      pop\n      tag_269\n      tag_270\n      jump\t// in\n    tag_269:\n      mload(0x40)\n      tag_271\n      swap2\n      swap1\n      tag_70\n      jump\t// in\n    tag_271:\n      mload(0x40)\n      dup1\n      swap2\n      sub\n      swap1\n      return\n        /* \"node.sol\":24406:24558  function maxPayout(address _sender) public view returns (uint256) {\r... */\n    tag_48:\n      callvalue\n      dup1\n      iszero\n      tag_272\n      jumpi\n      0x00\n      dup1\n      revert\n    tag_272:\n      pop\n      tag_273\n      0x04\n      dup1\n      calldatasize\n      sub\n      dup2\n      add\n      swap1\n      tag_274\n      swap2\n      swap1\n      tag_120\n      jump\t// in\n    tag_274:\n      tag_275\n      jump\t// in\n    tag_273:\n      mload(0x40)\n      tag_276\n      swap2\n      swap1\n      tag_70\n      jump\t// in\n    tag_276:\n      mload(0x40)\n      dup1\n      swap2\n      sub\n      swap1\n      return\n        /* \"node.sol\":26108:26207  function total_users() external view returns (uint256) {\r... */\n    tag_49:\n      callvalue\n      dup1\n      iszero\n      tag_277\n      jumpi\n      0x00\n      dup1\n      revert\n    tag_277:\n      pop\n      tag_278\n      tag_279\n      jump\t// in\n    tag_278:\n      mload(0x40)\n      tag_280\n      swap2\n      swap1\n      tag_70\n      jump\t// in\n    tag_280:\n      mload(0x40)\n      dup1\n      swap2\n      sub\n      swap1\n      return\n        /* \"node.sol\":15972:16009  uint256 public totalDistributeRewards */\n    tag_50:\n      callvalue\n      dup1\n      iszero\n      tag_281\n      jumpi\n      0x00\n      dup1\n      revert\n    tag_281:\n      pop\n      tag_282\n      tag_283\n      jump\t// in\n    tag_282:\n      mload(0x40)\n      tag_284\n      swap2\n      swap1\n      tag_70\n      jump\t// in\n    tag_284:\n      mload(0x40)\n      dup1\n      swap2\n      sub\n      swap1\n      return\n        /* \"node.sol\":24105:24396  function compound() public {\r... */\n    tag_51:\n      callvalue\n      dup1\n      iszero\n      tag_285\n      jumpi\n      0x00\n      dup1\n      revert\n    tag_285:\n      pop\n      tag_286\n      tag_287\n      jump\t// in\n    tag_286:\n      stop\n        /* \"node.sol\":16127:16154  uint256 public lastDripTime */\n    tag_52:\n      callvalue\n      dup1\n      iszero\n      tag_288\n      jumpi\n      0x00\n      dup1\n      revert\n    tag_288:\n      pop\n      tag_289\n      tag_290\n      jump\t// in\n    tag_289:\n      mload(0x40)\n      tag_291\n      swap2\n      swap1\n      tag_70\n      jump\t// in\n    tag_291:\n      mload(0x40)\n      dup1\n      swap2\n      sub\n      swap1\n      return\n        /* \"node.sol\":16218:16260  uint256 public constant MULTIPLIER = 10e18 */\n    tag_68:\n        /* \"node.sol\":16255:16260  10e18 */\n      0x8ac7230489e80000\n        /* \"node.sol\":16218:16260  uint256 public constant MULTIPLIER = 10e18 */\n      dup2\n      jump\t// out\n        /* \"node.sol\":16987:17178  function claimTreasuryRewards() external {\r... */\n    tag_73:\n        /* \"node.sol\":17062:17063  0 */\n      0x00\n        /* \"node.sol\":17043:17059  treasury_rewards */\n      sload(0x0a)\n        /* \"node.sol\":17043:17063  treasury_rewards > 0 */\n      gt\n        /* \"node.sol\":17039:17168  if (treasury_rewards > 0) {\r... */\n      iszero\n      tag_293\n      jumpi\n        /* \"node.sol\":17080:17121  TOKEN.safeTransfer(dev, treasury_rewards) */\n      tag_294\n        /* \"node.sol\":17099:17102  dev */\n      0x02\n      0x00\n      swap1\n      sload\n      swap1\n      0x0100\n      exp\n      swap1\n      div\n      0xffffffffffffffffffffffffffffffffffffffff\n      and\n        /* \"node.sol\":17104:17120  treasury_rewards */\n      sload(0x0a)\n        /* \"node.sol\":15112:15154  0xD9FF12172803c072a36785DeFea1Aa981A6A0C18 */\n      0xd9ff12172803c072a36785defea1aa981a6a0c18\n        /* \"node.sol\":17080:17098  TOKEN.safeTransfer */\n      0xffffffffffffffffffffffffffffffffffffffff\n      and\n      tag_295\n      swap1\n        /* \"node.sol\":17080:17121  TOKEN.safeTransfer(dev, treasury_rewards) */\n      swap3\n      swap2\n      swap1\n      0xffffffff\n      and\n      jump\t// in\n    tag_294:\n        /* \"node.sol\":17155:17156  0 */\n      0x00\n        /* \"node.sol\":17136:17152  treasury_rewards */\n      0x0a\n        /* \"node.sol\":17136:17156  treasury_rewards = 0 */\n      dup2\n      swap1\n      sstore\n      pop\n        /* \"node.sol\":17039:17168  if (treasury_rewards > 0) {\r... */\n    tag_293:\n        /* \"node.sol\":16987:17178  function claimTreasuryRewards() external {\r... */\n      jump\t// out\n        /* \"node.sol\":15859:15887  uint256 public total_rewards */\n    tag_76:\n      sload(0x09)\n      dup2\n      jump\t// out\n        /* \"node.sol\":27006:27122  function getBalance() public view returns (uint256) {\r... */\n    tag_80:\n        /* \"node.sol\":27049:27056  uint256 */\n      0x00\n        /* \"node.sol\":15112:15154  0xD9FF12172803c072a36785DeFea1Aa981A6A0C18 */\n      0xd9ff12172803c072a36785defea1aa981a6a0c18\n        /* \"node.sol\":27076:27099  IERC20(TOKEN).balanceOf */\n      0xffffffffffffffffffffffffffffffffffffffff\n      and\n      0x70a08231\n        /* \"node.sol\":27108:27112  this */\n      address\n        /* \"node.sol\":27076:27114  IERC20(TOKEN).balanceOf(address(this)) */\n      mload(0x40)\n      dup3\n      0xffffffff\n      and\n      0xe0\n      shl\n      dup2\n      mstore\n      0x04\n      add\n      tag_297\n      swap2\n      swap1\n      tag_298\n      jump\t// in\n    tag_297:\n      0x20\n      mload(0x40)\n      dup1\n      dup4\n      sub\n      dup2\n      dup7\n      dup1\n      extcodesize\n      iszero\n      dup1\n      iszero\n      tag_299\n      jumpi\n      0x00\n      dup1\n      revert\n    tag_299:\n      pop\n      gas\n      staticcall\n      iszero\n      dup1\n      iszero\n      tag_301\n      jumpi\n      returndatasize\n      0x00\n      dup1\n      returndatacopy\n      revert(0x00, returndatasize)\n    tag_301:\n      pop\n      pop\n      pop\n      pop\n      mload(0x40)\n      returndatasize\n      not(0x1f)\n      0x1f\n      dup3\n      add\n      and\n      dup3\n      add\n      dup1\n      0x40\n      mstore\n      pop\n      dup2\n      add\n      swap1\n      tag_302\n      swap2\n      swap1\n      tag_303\n      jump\t// in\n    tag_302:\n        /* \"node.sol\":27069:27114  return IERC20(TOKEN).balanceOf(address(this)) */\n      swap1\n      pop\n        /* \"node.sol\":27006:27122  function getBalance() public view returns (uint256) {\r... */\n      swap1\n      jump\t// out\n        /* \"node.sol\":15698:15743  mapping(uint256 => uint256) public totalNodes */\n    tag_86:\n      mstore(0x20, 0x05)\n      dup1\n      0x00\n      mstore\n      keccak256(0x00, 0x40)\n      0x00\n      swap2\n      pop\n      swap1\n      pop\n      sload\n      dup2\n      jump\t// out\n        /* \"node.sol\":17613:17717  function setLastDripTime(uint256 timestamp) external onlyDev {\r... */\n    tag_91:\n        /* \"node.sol\":16774:16777  dev */\n      0x02\n      0x00\n      swap1\n      sload\n      swap1\n      0x0100\n      exp\n      swap1\n      div\n      0xffffffffffffffffffffffffffffffffffffffff\n      and\n        /* \"node.sol\":16760:16777  msg.sender == dev */\n      0xffffffffffffffffffffffffffffffffffffffff\n      and\n        /* \"node.sol\":16760:16770  msg.sender */\n      caller\n        /* \"node.sol\":16760:16777  msg.sender == dev */\n      0xffffffffffffffffffffffffffffffffffffffff\n      and\n      eq\n        /* \"node.sol\":16752:16804  require(msg.sender == dev, \"Caller is not the dev!\") */\n      tag_305\n      jumpi\n      mload(0x40)\n      0x08c379a000000000000000000000000000000000000000000000000000000000\n      dup2\n      mstore\n      0x04\n      add\n      tag_306\n      swap1\n      tag_307\n      jump\t// in\n    tag_306:\n      mload(0x40)\n      dup1\n      swap2\n      sub\n      swap1\n      revert\n    tag_305:\n        /* \"node.sol\":17700:17709  timestamp */\n      dup1\n        /* \"node.sol\":17685:17697  lastDripTime */\n      0x10\n        /* \"node.sol\":17685:17709  lastDripTime = timestamp */\n      dup2\n      swap1\n      sstore\n      pop\n        /* \"node.sol\":17613:17717  function setLastDripTime(uint256 timestamp) external onlyDev {\r... */\n      pop\n      jump\t// out\n        /* \"node.sol\":18809:19072  function totalAllocPoints() public view returns (uint256) {\r... */\n    tag_94:\n        /* \"node.sol\":18858:18865  uint256 */\n      0x00\n        /* \"node.sol\":18878:18891  uint256 total */\n      dup1\n        /* \"node.sol\":18894:18895  0 */\n      0x00\n        /* \"node.sol\":18878:18895  uint256 total = 0 */\n      swap1\n      pop\n        /* \"node.sol\":18911:18920  uint256 i */\n      0x00\n        /* \"node.sol\":18906:19042  for (uint256 i = 0; i < tierAllocPoints.length; i++) {\r... */\n    tag_310:\n        /* \"node.sol\":18930:18945  tierAllocPoints */\n      0x00\n        /* \"node.sol\":18930:18952  tierAllocPoints.length */\n      dup1\n      sload\n      swap1\n      pop\n        /* \"node.sol\":18926:18927  i */\n      dup2\n        /* \"node.sol\":18926:18952  i < tierAllocPoints.length */\n      lt\n        /* \"node.sol\":18906:19042  for (uint256 i = 0; i < tierAllocPoints.length; i++) {\r... */\n      iszero\n      tag_311\n      jumpi\n        /* \"node.sol\":18982:19030  total.add(tierAllocPoints[i].mul(totalNodes[i])) */\n      tag_313\n        /* \"node.sol\":18992:19029  tierAllocPoints[i].mul(totalNodes[i]) */\n      tag_314\n        /* \"node.sol\":19015:19025  totalNodes */\n      0x05\n        /* \"node.sol\":19015:19028  totalNodes[i] */\n      0x00\n        /* \"node.sol\":19026:19027  i */\n      dup5\n        /* \"node.sol\":19015:19028  totalNodes[i] */\n      dup2\n      mstore\n      0x20\n      add\n      swap1\n      dup2\n      mstore\n      0x20\n      add\n      0x00\n      keccak256\n      sload\n        /* \"node.sol\":18992:19007  tierAllocPoints */\n      0x00\n        /* \"node.sol\":19008:19009  i */\n      dup5\n        /* \"node.sol\":18992:19010  tierAllocPoints[i] */\n      dup2\n      sload\n      dup2\n      lt\n      tag_315\n      jumpi\n      invalid\n    tag_315:\n      swap1\n      0x00\n      mstore\n      keccak256(0x00, 0x20)\n      add\n      sload\n        /* \"node.sol\":18992:19014  tierAllocPoints[i].mul */\n      tag_317\n      swap1\n        /* \"node.sol\":18992:19029  tierAllocPoints[i].mul(totalNodes[i]) */\n      swap2\n      swap1\n      0xffffffff\n      and\n      jump\t// in\n    tag_314:\n        /* \"node.sol\":18982:18987  total */\n      dup4\n        /* \"node.sol\":18982:18991  total.add */\n      tag_318\n      swap1\n        /* \"node.sol\":18982:19030  total.add(tierAllocPoints[i].mul(totalNodes[i])) */\n      swap2\n      swap1\n      0xffffffff\n      and\n      jump\t// in\n    tag_313:\n        /* \"node.sol\":18974:19030  total = total.add(tierAllocPoints[i].mul(totalNodes[i])) */\n      swap2\n      pop\n        /* \"node.sol\":18954:18957  i++ */\n      dup1\n      dup1\n      0x01\n      add\n      swap2\n      pop\n      pop\n        /* \"node.sol\":18906:19042  for (uint256 i = 0; i < tierAllocPoints.length; i++) {\r... */\n      jump(tag_310)\n    tag_311:\n      pop\n        /* \"node.sol\":19059:19064  total */\n      dup1\n        /* \"node.sol\":19052:19064  return total */\n      swap2\n      pop\n      pop\n        /* \"node.sol\":18809:19072  function totalAllocPoints() public view returns (uint256) {\r... */\n      swap1\n      jump\t// out\n        /* \"node.sol\":15750:15778  address[] public userIndices */\n    tag_99:\n      0x06\n      dup2\n      dup2\n      sload\n      dup2\n      lt\n      tag_319\n      jumpi\n      invalid\n    tag_319:\n      swap1\n      0x00\n      mstore\n      keccak256(0x00, 0x20)\n      add\n      0x00\n      swap2\n      pop\n      sload\n      swap1\n      0x0100\n      exp\n      swap1\n      div\n      0xffffffffffffffffffffffffffffffffffffffff\n      and\n      dup2\n      jump\t// out\n        /* \"node.sol\":15162:15257  uint256[] public tierAllocPoints = [1 ether, 2.1 ether, 4.41 ether, 9.261 ether, 19.4481 ether] */\n    tag_105:\n      0x00\n      dup2\n      dup2\n      sload\n      dup2\n      lt\n      tag_321\n      jumpi\n      invalid\n    tag_321:\n      swap1\n      0x00\n      mstore\n      keccak256(0x00, 0x20)\n      add\n      0x00\n      swap2\n      pop\n      swap1\n      pop\n      sload\n      dup2\n      jump\t// out\n        /* \"node.sol\":16192:16211  bool public enabled */\n    tag_109:\n      0x12\n      0x00\n      swap1\n      sload\n      swap1\n      0x0100\n      exp\n      swap1\n      div\n      0xff\n      and\n      dup2\n      jump\t// out\n        /* \"node.sol\":18130:18522  function setUser(address _addr, User memory _user) external onlyDev {\r... */\n    tag_116:\n        /* \"node.sol\":16774:16777  dev */\n      0x02\n      0x00\n      swap1\n      sload\n      swap1\n      0x0100\n      exp\n      swap1\n      div\n      0xffffffffffffffffffffffffffffffffffffffff\n      and\n        /* \"node.sol\":16760:16777  msg.sender == dev */\n      0xffffffffffffffffffffffffffffffffffffffff\n      and\n        /* \"node.sol\":16760:16770  msg.sender */\n      caller\n        /* \"node.sol\":16760:16777  msg.sender == dev */\n      0xffffffffffffffffffffffffffffffffffffffff\n      and\n      eq\n        /* \"node.sol\":16752:16804  require(msg.sender == dev, \"Caller is not the dev!\") */\n      tag_324\n      jumpi\n      mload(0x40)\n      0x08c379a000000000000000000000000000000000000000000000000000000000\n      dup2\n      mstore\n      0x04\n      add\n      tag_325\n      swap1\n      tag_307\n      jump\t// in\n    tag_325:\n      mload(0x40)\n      dup1\n      swap2\n      sub\n      swap1\n      revert\n    tag_324:\n        /* \"node.sol\":18227:18301  total_deposited.sub(users[_addr].total_deposits).add(_user.total_deposits) */\n      tag_327\n        /* \"node.sol\":18280:18285  _user */\n      dup2\n        /* \"node.sol\":18280:18300  _user.total_deposits */\n      0x00\n      add\n      mload\n        /* \"node.sol\":18227:18275  total_deposited.sub(users[_addr].total_deposits) */\n      tag_328\n        /* \"node.sol\":18247:18252  users */\n      0x03\n        /* \"node.sol\":18247:18259  users[_addr] */\n      0x00\n        /* \"node.sol\":18253:18258  _addr */\n      dup7\n        /* \"node.sol\":18247:18259  users[_addr] */\n      0xffffffffffffffffffffffffffffffffffffffff\n      and\n      0xffffffffffffffffffffffffffffffffffffffff\n      and\n      dup2\n      mstore\n      0x20\n      add\n      swap1\n      dup2\n      mstore\n      0x20\n      add\n      0x00\n      keccak256\n        /* \"node.sol\":18247:18274  users[_addr].total_deposits */\n      0x00\n      add\n      sload\n        /* \"node.sol\":18227:18242  total_deposited */\n      sload(0x07)\n        /* \"node.sol\":18227:18246  total_deposited.sub */\n      tag_329\n      swap1\n        /* \"node.sol\":18227:18275  total_deposited.sub(users[_addr].total_deposits) */\n      swap2\n      swap1\n      0xffffffff\n      and\n      jump\t// in\n    tag_328:\n        /* \"node.sol\":18227:18279  total_deposited.sub(users[_addr].total_deposits).add */\n      tag_318\n      swap1\n        /* \"node.sol\":18227:18301  total_deposited.sub(users[_addr].total_deposits).add(_user.total_deposits) */\n      swap2\n      swap1\n      0xffffffff\n      and\n      jump\t// in\n    tag_327:\n        /* \"node.sol\":18209:18224  total_deposited */\n      0x07\n        /* \"node.sol\":18209:18301  total_deposited = total_deposited.sub(users[_addr].total_deposits).add(_user.total_deposits) */\n      dup2\n      swap1\n      sstore\n      pop\n        /* \"node.sol\":18328:18396  total_claimed.sub(users[_addr].total_claims).add(_user.total_claims) */\n      tag_330\n        /* \"node.sol\":18377:18382  _user */\n      dup2\n        /* \"node.sol\":18377:18395  _user.total_claims */\n      0x20\n      add\n      mload\n        /* \"node.sol\":18328:18372  total_claimed.sub(users[_addr].total_claims) */\n      tag_331\n        /* \"node.sol\":18346:18351  users */\n      0x03\n        /* \"node.sol\":18346:18358  users[_addr] */\n      0x00\n        /* \"node.sol\":18352:18357  _addr */\n      dup7\n        /* \"node.sol\":18346:18358  users[_addr] */\n      0xffffffffffffffffffffffffffffffffffffffff\n      and\n      0xffffffffffffffffffffffffffffffffffffffff\n      and\n      dup2\n      mstore\n      0x20\n      add\n      swap1\n      dup2\n      mstore\n      0x20\n      add\n      0x00\n      keccak256\n        /* \"node.sol\":18346:18371  users[_addr].total_claims */\n      0x01\n      add\n      sload\n        /* \"node.sol\":18328:18341  total_claimed */\n      sload(0x08)\n        /* \"node.sol\":18328:18345  total_claimed.sub */\n      tag_329\n      swap1\n        /* \"node.sol\":18328:18372  total_claimed.sub(users[_addr].total_claims) */\n      swap2\n      swap1\n      0xffffffff\n      and\n      jump\t// in\n    tag_331:\n        /* \"node.sol\":18328:18376  total_claimed.sub(users[_addr].total_claims).add */\n      tag_318\n      swap1\n        /* \"node.sol\":18328:18396  total_claimed.sub(users[_addr].total_claims).add(_user.total_claims) */\n      swap2\n      swap1\n      0xffffffff\n      and\n      jump\t// in\n    tag_330:\n        /* \"node.sol\":18312:18325  total_claimed */\n      0x08\n        /* \"node.sol\":18312:18396  total_claimed = total_claimed.sub(users[_addr].total_claims).add(_user.total_claims) */\n      dup2\n      swap1\n      sstore\n      pop\n        /* \"node.sol\":18437:18442  _user */\n      dup1\n        /* \"node.sol\":18437:18457  _user.total_deposits */\n      0x00\n      add\n      mload\n        /* \"node.sol\":18407:18412  users */\n      0x03\n        /* \"node.sol\":18407:18419  users[_addr] */\n      0x00\n        /* \"node.sol\":18413:18418  _addr */\n      dup5\n        /* \"node.sol\":18407:18419  users[_addr] */\n      0xffffffffffffffffffffffffffffffffffffffff\n      and\n      0xffffffffffffffffffffffffffffffffffffffff\n      and\n      dup2\n      mstore\n      0x20\n      add\n      swap1\n      dup2\n      mstore\n      0x20\n      add\n      0x00\n      keccak256\n        /* \"node.sol\":18407:18434  users[_addr].total_deposits */\n      0x00\n      add\n        /* \"node.sol\":18407:18457  users[_addr].total_deposits = _user.total_deposits */\n      dup2\n      swap1\n      sstore\n      pop\n        /* \"node.sol\":18496:18501  _user */\n      dup1\n        /* \"node.sol\":18496:18514  _user.total_claims */\n      0x20\n      add\n      mload\n        /* \"node.sol\":18468:18473  users */\n      0x03\n        /* \"node.sol\":18468:18480  users[_addr] */\n      0x00\n        /* \"node.sol\":18474:18479  _addr */\n      dup5\n        /* \"node.sol\":18468:18480  users[_addr] */\n      0xffffffffffffffffffffffffffffffffffffffff\n      and\n      0xffffffffffffffffffffffffffffffffffffffff\n      and\n      dup2\n      mstore\n      0x20\n      add\n      swap1\n      dup2\n      mstore\n      0x20\n      add\n      0x00\n      keccak256\n        /* \"node.sol\":18468:18493  users[_addr].total_claims */\n      0x01\n      add\n        /* \"node.sol\":18468:18514  users[_addr].total_claims = _user.total_claims */\n      dup2\n      swap1\n      sstore\n      pop\n        /* \"node.sol\":18130:18522  function setUser(address _addr, User memory _user) external onlyDev {\r... */\n      pop\n      pop\n      jump\t// out\n        /* \"node.sol\":19365:19759  function getDistributionRewards(address account) public view returns (uint256) {\r... */\n    tag_121:\n        /* \"node.sol\":19435:19442  uint256 */\n      0x00\n        /* \"node.sol\":19459:19479  isMaxPayout(account) */\n      tag_333\n        /* \"node.sol\":19471:19478  account */\n      dup3\n        /* \"node.sol\":19459:19470  isMaxPayout */\n      tag_150\n        /* \"node.sol\":19459:19479  isMaxPayout(account) */\n      jump\t// in\n    tag_333:\n        /* \"node.sol\":19455:19489  if (isMaxPayout(account)) return 0 */\n      iszero\n      tag_334\n      jumpi\n        /* \"node.sol\":19488:19489  0 */\n      0x00\n        /* \"node.sol\":19481:19489  return 0 */\n      swap1\n      pop\n      jump(tag_332)\n        /* \"node.sol\":19455:19489  if (isMaxPayout(account)) return 0 */\n    tag_334:\n        /* \"node.sol\":19502:19527  uint256 newDividendPoints */\n      0x00\n        /* \"node.sol\":19530:19587  totalDistributePoints.sub(users[account].last_distPoints) */\n      tag_335\n        /* \"node.sol\":19556:19561  users */\n      0x03\n        /* \"node.sol\":19556:19570  users[account] */\n      0x00\n        /* \"node.sol\":19562:19569  account */\n      dup6\n        /* \"node.sol\":19556:19570  users[account] */\n      0xffffffffffffffffffffffffffffffffffffffff\n      and\n      0xffffffffffffffffffffffffffffffffffffffff\n      and\n      dup2\n      mstore\n      0x20\n      add\n      swap1\n      dup2\n      mstore\n      0x20\n      add\n      0x00\n      keccak256\n        /* \"node.sol\":19556:19586  users[account].last_distPoints */\n      0x02\n      add\n      sload\n        /* \"node.sol\":19530:19551  totalDistributePoints */\n      sload(0x0d)\n        /* \"node.sol\":19530:19555  totalDistributePoints.sub */\n      tag_329\n      swap1\n        /* \"node.sol\":19530:19587  totalDistributePoints.sub(users[account].last_distPoints) */\n      swap2\n      swap1\n      0xffffffff\n      and\n      jump\t// in\n    tag_335:\n        /* \"node.sol\":19502:19587  uint256 newDividendPoints = totalDistributePoints.sub(users[account].last_distPoints) */\n      swap1\n      pop\n        /* \"node.sol\":19598:19616  uint256 distribute */\n      0x00\n        /* \"node.sol\":19619:19678  allocPoints(account).mul(newDividendPoints).div(MULTIPLIER) */\n      tag_336\n        /* \"node.sol\":16255:16260  10e18 */\n      0x8ac7230489e80000\n        /* \"node.sol\":19619:19662  allocPoints(account).mul(newDividendPoints) */\n      tag_337\n        /* \"node.sol\":19644:19661  newDividendPoints */\n      dup5\n        /* \"node.sol\":19619:19639  allocPoints(account) */\n      tag_338\n        /* \"node.sol\":19631:19638  account */\n      dup9\n        /* \"node.sol\":19619:19630  allocPoints */\n      tag_188\n        /* \"node.sol\":19619:19639  allocPoints(account) */\n      jump\t// in\n    tag_338:\n        /* \"node.sol\":19619:19643  allocPoints(account).mul */\n      tag_317\n      swap1\n        /* \"node.sol\":19619:19662  allocPoints(account).mul(newDividendPoints) */\n      swap2\n      swap1\n      0xffffffff\n      and\n      jump\t// in\n    tag_337:\n        /* \"node.sol\":19619:19666  allocPoints(account).mul(newDividendPoints).div */\n      tag_339\n      swap1\n        /* \"node.sol\":19619:19678  allocPoints(account).mul(newDividendPoints).div(MULTIPLIER) */\n      swap2\n      swap1\n      0xffffffff\n      and\n      jump\t// in\n    tag_336:\n        /* \"node.sol\":19598:19678  uint256 distribute = allocPoints(account).mul(newDividendPoints).div(MULTIPLIER) */\n      swap1\n      pop\n        /* \"node.sol\":19709:19722  total_rewards */\n      sload(0x09)\n        /* \"node.sol\":19696:19706  distribute */\n      dup2\n        /* \"node.sol\":19696:19722  distribute > total_rewards */\n      gt\n        /* \"node.sol\":19696:19751  distribute > total_rewards ? total_rewards : distribute */\n      tag_340\n      jumpi\n        /* \"node.sol\":19741:19751  distribute */\n      dup1\n        /* \"node.sol\":19696:19751  distribute > total_rewards ? total_rewards : distribute */\n      jump(tag_341)\n    tag_340:\n        /* \"node.sol\":19725:19738  total_rewards */\n      sload(0x09)\n        /* \"node.sol\":19696:19751  distribute > total_rewards ? total_rewards : distribute */\n    tag_341:\n        /* \"node.sol\":19689:19751  return distribute > total_rewards ? total_rewards : distribute */\n      swap3\n      pop\n      pop\n      pop\n        /* \"node.sol\":19365:19759  function getDistributionRewards(address account) public view returns (uint256) {\r... */\n    tag_332:\n      swap2\n      swap1\n      pop\n      jump\t// out\n        /* \"node.sol\":17841:18122  function setTierValues(uint256[] memory _tierAllocPoints, uint256[] memory _tierAmounts) external onlyDev {\r... */\n    tag_127:\n        /* \"node.sol\":16774:16777  dev */\n      0x02\n      0x00\n      swap1\n      sload\n      swap1\n      0x0100\n      exp\n      swap1\n      div\n      0xffffffffffffffffffffffffffffffffffffffff\n      and\n        /* \"node.sol\":16760:16777  msg.sender == dev */\n      0xffffffffffffffffffffffffffffffffffffffff\n      and\n        /* \"node.sol\":16760:16770  msg.sender */\n      caller\n        /* \"node.sol\":16760:16777  msg.sender == dev */\n      0xffffffffffffffffffffffffffffffffffffffff\n      and\n      eq\n        /* \"node.sol\":16752:16804  require(msg.sender == dev, \"Caller is not the dev!\") */\n      tag_343\n      jumpi\n      mload(0x40)\n      0x08c379a000000000000000000000000000000000000000000000000000000000\n      dup2\n      mstore\n      0x04\n      add\n      tag_344\n      swap1\n      tag_307\n      jump\t// in\n    tag_344:\n      mload(0x40)\n      dup1\n      swap2\n      sub\n      swap1\n      revert\n    tag_343:\n        /* \"node.sol\":17993:18005  _tierAmounts */\n      dup1\n        /* \"node.sol\":17993:18012  _tierAmounts.length */\n      mload\n        /* \"node.sol\":17966:17982  _tierAllocPoints */\n      dup3\n        /* \"node.sol\":17966:17989  _tierAllocPoints.length */\n      mload\n        /* \"node.sol\":17966:18012  _tierAllocPoints.length == _tierAmounts.length */\n      eq\n        /* \"node.sol\":17958:18032  require(_tierAllocPoints.length == _tierAmounts.length, \"Length mismatch\") */\n      tag_346\n      jumpi\n      mload(0x40)\n      0x08c379a000000000000000000000000000000000000000000000000000000000\n      dup2\n      mstore\n      0x04\n      add\n      tag_347\n      swap1\n      tag_348\n      jump\t// in\n    tag_347:\n      mload(0x40)\n      dup1\n      swap2\n      sub\n      swap1\n      revert\n    tag_346:\n        /* \"node.sol\":18061:18077  _tierAllocPoints */\n      dup2\n        /* \"node.sol\":18043:18058  tierAllocPoints */\n      0x00\n        /* \"node.sol\":18043:18077  tierAllocPoints = _tierAllocPoints */\n      swap1\n      dup1\n      mload\n      swap1\n      0x20\n      add\n      swap1\n      tag_349\n      swap3\n      swap2\n      swap1\n      tag_350\n      jump\t// in\n    tag_349:\n      pop\n        /* \"node.sol\":18102:18114  _tierAmounts */\n      dup1\n        /* \"node.sol\":18088:18099  tierAmounts */\n      0x01\n        /* \"node.sol\":18088:18114  tierAmounts = _tierAmounts */\n      swap1\n      dup1\n      mload\n      swap1\n      0x20\n      add\n      swap1\n      tag_351\n      swap3\n      swap2\n      swap1\n      tag_350\n      jump\t// in\n    tag_351:\n      pop\n        /* \"node.sol\":17841:18122  function setTierValues(uint256[] memory _tierAllocPoints, uint256[] memory _tierAmounts) external onlyDev {\r... */\n      pop\n      pop\n      jump\t// out\n        /* \"node.sol\":19771:20311  function getTotalRewards(address _sender) public view returns (uint256) {\r... */\n    tag_131:\n        /* \"node.sol\":19834:19841  uint256 */\n      0x00\n        /* \"node.sol\":19891:19892  0 */\n      dup1\n        /* \"node.sol\":19858:19863  users */\n      0x03\n        /* \"node.sol\":19858:19872  users[_sender] */\n      0x00\n        /* \"node.sol\":19864:19871  _sender */\n      dup5\n        /* \"node.sol\":19858:19872  users[_sender] */\n      0xffffffffffffffffffffffffffffffffffffffff\n      and\n      0xffffffffffffffffffffffffffffffffffffffff\n      and\n      dup2\n      mstore\n      0x20\n      add\n      swap1\n      dup2\n      mstore\n      0x20\n      add\n      0x00\n      keccak256\n        /* \"node.sol\":19858:19887  users[_sender].total_deposits */\n      0x00\n      add\n      sload\n        /* \"node.sol\":19858:19892  users[_sender].total_deposits == 0 */\n      eq\n        /* \"node.sol\":19854:19916  if (users[_sender].total_deposits == 0) \r... */\n      iszero\n      tag_353\n      jumpi\n        /* \"node.sol\":19915:19916  0 */\n      0x00\n        /* \"node.sol\":19908:19916  return 0 */\n      swap1\n      pop\n      jump(tag_352)\n        /* \"node.sol\":19854:19916  if (users[_sender].total_deposits == 0) \r... */\n    tag_353:\n        /* \"node.sol\":19937:19952  uint256 rewards */\n      0x00\n        /* \"node.sol\":19955:20057  getDistributionRewards(_sender).add(getRewardDrip().mul(allocPoints(_sender)).div(totalAllocPoints())) */\n      tag_354\n        /* \"node.sol\":19991:20056  getRewardDrip().mul(allocPoints(_sender)).div(totalAllocPoints()) */\n      tag_355\n        /* \"node.sol\":20037:20055  totalAllocPoints() */\n      tag_356\n        /* \"node.sol\":20037:20053  totalAllocPoints */\n      tag_94\n        /* \"node.sol\":20037:20055  totalAllocPoints() */\n      jump\t// in\n    tag_356:\n        /* \"node.sol\":19991:20032  getRewardDrip().mul(allocPoints(_sender)) */\n      tag_357\n        /* \"node.sol\":20011:20031  allocPoints(_sender) */\n      tag_358\n        /* \"node.sol\":20023:20030  _sender */\n      dup8\n        /* \"node.sol\":20011:20022  allocPoints */\n      tag_188\n        /* \"node.sol\":20011:20031  allocPoints(_sender) */\n      jump\t// in\n    tag_358:\n        /* \"node.sol\":19991:20006  getRewardDrip() */\n      tag_359\n        /* \"node.sol\":19991:20004  getRewardDrip */\n      tag_160\n        /* \"node.sol\":19991:20006  getRewardDrip() */\n      jump\t// in\n    tag_359:\n        /* \"node.sol\":19991:20010  getRewardDrip().mul */\n      tag_317\n      swap1\n        /* \"node.sol\":19991:20032  getRewardDrip().mul(allocPoints(_sender)) */\n      swap2\n      swap1\n      0xffffffff\n      and\n      jump\t// in\n    tag_357:\n        /* \"node.sol\":19991:20036  getRewardDrip().mul(allocPoints(_sender)).div */\n      tag_339\n      swap1\n        /* \"node.sol\":19991:20056  getRewardDrip().mul(allocPoints(_sender)).div(totalAllocPoints()) */\n      swap2\n      swap1\n      0xffffffff\n      and\n      jump\t// in\n    tag_355:\n        /* \"node.sol\":19955:19986  getDistributionRewards(_sender) */\n      tag_360\n        /* \"node.sol\":19978:19985  _sender */\n      dup6\n        /* \"node.sol\":19955:19977  getDistributionRewards */\n      tag_121\n        /* \"node.sol\":19955:19986  getDistributionRewards(_sender) */\n      jump\t// in\n    tag_360:\n        /* \"node.sol\":19955:19990  getDistributionRewards(_sender).add */\n      tag_318\n      swap1\n        /* \"node.sol\":19955:20057  getDistributionRewards(_sender).add(getRewardDrip().mul(allocPoints(_sender)).div(totalAllocPoints())) */\n      swap2\n      swap1\n      0xffffffff\n      and\n      jump\t// in\n    tag_354:\n        /* \"node.sol\":19937:20057  uint256 rewards = getDistributionRewards(_sender).add(getRewardDrip().mul(allocPoints(_sender)).div(totalAllocPoints())) */\n      swap1\n      pop\n        /* \"node.sol\":20068:20087  uint256 totalClaims */\n      0x00\n        /* \"node.sol\":20090:20095  users */\n      0x03\n        /* \"node.sol\":20090:20104  users[_sender] */\n      0x00\n        /* \"node.sol\":20096:20103  _sender */\n      dup6\n        /* \"node.sol\":20090:20104  users[_sender] */\n      0xffffffffffffffffffffffffffffffffffffffff\n      and\n      0xffffffffffffffffffffffffffffffffffffffff\n      and\n      dup2\n      mstore\n      0x20\n      add\n      swap1\n      dup2\n      mstore\n      0x20\n      add\n      0x00\n      keccak256\n        /* \"node.sol\":20090:20117  users[_sender].total_claims */\n      0x01\n      add\n      sload\n        /* \"node.sol\":20068:20117  uint256 totalClaims = users[_sender].total_claims */\n      swap1\n      pop\n        /* \"node.sol\":20128:20142  uint256 maxPay */\n      0x00\n        /* \"node.sol\":20145:20163  maxPayout(_sender) */\n      tag_361\n        /* \"node.sol\":20155:20162  _sender */\n      dup6\n        /* \"node.sol\":20145:20154  maxPayout */\n      tag_275\n        /* \"node.sol\":20145:20163  maxPayout(_sender) */\n      jump\t// in\n    tag_361:\n        /* \"node.sol\":20128:20163  uint256 maxPay = maxPayout(_sender) */\n      swap1\n      pop\n        /* \"node.sol\":20261:20267  maxPay */\n      dup1\n        /* \"node.sol\":20234:20258  totalClaims.add(rewards) */\n      tag_362\n        /* \"node.sol\":20250:20257  rewards */\n      dup5\n        /* \"node.sol\":20234:20245  totalClaims */\n      dup5\n        /* \"node.sol\":20234:20249  totalClaims.add */\n      tag_318\n      swap1\n        /* \"node.sol\":20234:20258  totalClaims.add(rewards) */\n      swap2\n      swap1\n      0xffffffff\n      and\n      jump\t// in\n    tag_362:\n        /* \"node.sol\":20234:20267  totalClaims.add(rewards) > maxPay */\n      gt\n        /* \"node.sol\":20234:20303  totalClaims.add(rewards) > maxPay ? maxPay.sub(totalClaims) : rewards */\n      tag_363\n      jumpi\n        /* \"node.sol\":20296:20303  rewards */\n      dup3\n        /* \"node.sol\":20234:20303  totalClaims.add(rewards) > maxPay ? maxPay.sub(totalClaims) : rewards */\n      jump(tag_364)\n    tag_363:\n        /* \"node.sol\":20270:20293  maxPay.sub(totalClaims) */\n      tag_365\n        /* \"node.sol\":20281:20292  totalClaims */\n      dup3\n        /* \"node.sol\":20270:20276  maxPay */\n      dup3\n        /* \"node.sol\":20270:20280  maxPay.sub */\n      tag_329\n      swap1\n        /* \"node.sol\":20270:20293  maxPay.sub(totalClaims) */\n      swap2\n      swap1\n      0xffffffff\n      and\n      jump\t// in\n    tag_365:\n        /* \"node.sol\":20234:20303  totalClaims.add(rewards) > maxPay ? maxPay.sub(totalClaims) : rewards */\n    tag_364:\n        /* \"node.sol\":20227:20303  return totalClaims.add(rewards) > maxPay ? maxPay.sub(totalClaims) : rewards */\n      swap4\n      pop\n      pop\n      pop\n      pop\n        /* \"node.sol\":19771:20311  function getTotalRewards(address _sender) public view returns (uint256) {\r... */\n    tag_352:\n      swap2\n      swap1\n      pop\n      jump\t// out\n        /* \"node.sol\":17298:17387  function setEnabled(bool _enabled) external onlyDev {\r... */\n    tag_137:\n        /* \"node.sol\":16774:16777  dev */\n      0x02\n      0x00\n      swap1\n      sload\n      swap1\n      0x0100\n      exp\n      swap1\n      div\n      0xffffffffffffffffffffffffffffffffffffffff\n      and\n        /* \"node.sol\":16760:16777  msg.sender == dev */\n      0xffffffffffffffffffffffffffffffffffffffff\n      and\n        /* \"node.sol\":16760:16770  msg.sender */\n      caller\n        /* \"node.sol\":16760:16777  msg.sender == dev */\n      0xffffffffffffffffffffffffffffffffffffffff\n      and\n      eq\n        /* \"node.sol\":16752:16804  require(msg.sender == dev, \"Caller is not the dev!\") */\n      tag_367\n      jumpi\n      mload(0x40)\n      0x08c379a000000000000000000000000000000000000000000000000000000000\n      dup2\n      mstore\n      0x04\n      add\n      tag_368\n      swap1\n      tag_307\n      jump\t// in\n    tag_368:\n      mload(0x40)\n      dup1\n      swap2\n      sub\n      swap1\n      revert\n    tag_367:\n        /* \"node.sol\":17371:17379  _enabled */\n      dup1\n        /* \"node.sol\":17361:17368  enabled */\n      0x12\n      0x00\n        /* \"node.sol\":17361:17379  enabled = _enabled */\n      0x0100\n      exp\n      dup2\n      sload\n      dup2\n      0xff\n      mul\n      not\n      and\n      swap1\n      dup4\n      iszero\n      iszero\n      mul\n      or\n      swap1\n      sstore\n      pop\n        /* \"node.sol\":17298:17387  function setEnabled(bool _enabled) external onlyDev {\r... */\n      pop\n      jump\t// out\n        /* \"node.sol\":15264:15348  uint256[] public tierAmounts = [1 ether, 4 ether, 800 ether, 1600 ether, 3000 ether] */\n    tag_141:\n      0x01\n      dup2\n      dup2\n      sload\n      dup2\n      lt\n      tag_370\n      jumpi\n      invalid\n    tag_370:\n      swap1\n      0x00\n      mstore\n      keccak256(0x00, 0x20)\n      add\n      0x00\n      swap2\n      pop\n      swap1\n      pop\n      sload\n      dup2\n      jump\t// out\n        /* \"node.sol\":17186:17286  function setStartTime(uint256 _startTime) external onlyDev {\r... */\n    tag_146:\n        /* \"node.sol\":16774:16777  dev */\n      0x02\n      0x00\n      swap1\n      sload\n      swap1\n      0x0100\n      exp\n      swap1\n      div\n      0xffffffffffffffffffffffffffffffffffffffff\n      and\n        /* \"node.sol\":16760:16777  msg.sender == dev */\n      0xffffffffffffffffffffffffffffffffffffffff\n      and\n        /* \"node.sol\":16760:16770  msg.sender */\n      caller\n        /* \"node.sol\":16760:16777  msg.sender == dev */\n      0xffffffffffffffffffffffffffffffffffffffff\n      and\n      eq\n        /* \"node.sol\":16752:16804  require(msg.sender == dev, \"Caller is not the dev!\") */\n      tag_373\n      jumpi\n      mload(0x40)\n      0x08c379a000000000000000000000000000000000000000000000000000000000\n      dup2\n      mstore\n      0x04\n      add\n      tag_374\n      swap1\n      tag_307\n      jump\t// in\n    tag_374:\n      mload(0x40)\n      dup1\n      swap2\n      sub\n      swap1\n      revert\n    tag_373:\n        /* \"node.sol\":17268:17278  _startTime */\n      dup1\n        /* \"node.sol\":17256:17265  startTime */\n      0x11\n        /* \"node.sol\":17256:17278  startTime = _startTime */\n      dup2\n      swap1\n      sstore\n      pop\n        /* \"node.sol\":17186:17286  function setStartTime(uint256 _startTime) external onlyDev {\r... */\n      pop\n      jump\t// out\n        /* \"node.sol\":24566:24706  function isMaxPayout(address _sender) public view returns (bool) {\r... */\n    tag_150:\n        /* \"node.sol\":24625:24629  bool */\n      0x00\n        /* \"node.sol\":24680:24698  maxPayout(_sender) */\n      tag_377\n        /* \"node.sol\":24690:24697  _sender */\n      dup3\n        /* \"node.sol\":24680:24689  maxPayout */\n      tag_275\n        /* \"node.sol\":24680:24698  maxPayout(_sender) */\n      jump\t// in\n    tag_377:\n        /* \"node.sol\":24649:24654  users */\n      0x03\n        /* \"node.sol\":24649:24663  users[_sender] */\n      0x00\n        /* \"node.sol\":24655:24662  _sender */\n      dup5\n        /* \"node.sol\":24649:24663  users[_sender] */\n      0xffffffffffffffffffffffffffffffffffffffff\n      and\n      0xffffffffffffffffffffffffffffffffffffffff\n      and\n      dup2\n      mstore\n      0x20\n      add\n      swap1\n      dup2\n      mstore\n      0x20\n      add\n      0x00\n      keccak256\n        /* \"node.sol\":24649:24676  users[_sender].total_claims */\n      0x01\n      add\n      sload\n        /* \"node.sol\":24649:24698  users[_sender].total_claims >= maxPayout(_sender) */\n      lt\n      iszero\n        /* \"node.sol\":24642:24698  return users[_sender].total_claims >= maxPayout(_sender) */\n      swap1\n      pop\n        /* \"node.sol\":24566:24706  function isMaxPayout(address _sender) public view returns (bool) {\r... */\n      swap2\n      swap1\n      pop\n      jump\t// out\n        /* \"node.sol\":26356:26684  function getNodes(address _sender) external view returns (uint256[] memory) {\r... */\n    tag_155:\n        /* \"node.sol\":26414:26430  uint256[] memory */\n      0x60\n        /* \"node.sol\":26443:26469  uint256[] memory userNodes */\n      dup1\n        /* \"node.sol\":26486:26501  tierAllocPoints */\n      0x00\n        /* \"node.sol\":26486:26508  tierAllocPoints.length */\n      dup1\n      sload\n      swap1\n      pop\n        /* \"node.sol\":26472:26509  new uint256[](tierAllocPoints.length) */\n      0xffffffffffffffff\n      dup2\n      gt\n      dup1\n      iszero\n      tag_379\n      jumpi\n      0x00\n      dup1\n      revert\n    tag_379:\n      pop\n      mload(0x40)\n      swap1\n      dup1\n      dup3\n      mstore\n      dup1\n      0x20\n      mul\n      0x20\n      add\n      dup3\n      add\n      0x40\n      mstore\n      dup1\n      iszero\n      tag_380\n      jumpi\n      dup2\n      0x20\n      add\n      0x20\n      dup3\n      mul\n      dup1\n      calldatasize\n      dup4\n      calldatacopy\n      dup1\n      dup3\n      add\n      swap2\n      pop\n      pop\n      swap1\n      pop\n    tag_380:\n      pop\n        /* \"node.sol\":26443:26509  uint256[] memory userNodes = new uint256[](tierAllocPoints.length) */\n      swap1\n      pop\n        /* \"node.sol\":26525:26534  uint256 i */\n      0x00\n        /* \"node.sol\":26520:26650  for (uint256 i = 0; i < tierAllocPoints.length; i++) {\r... */\n    tag_381:\n        /* \"node.sol\":26544:26559  tierAllocPoints */\n      0x00\n        /* \"node.sol\":26544:26566  tierAllocPoints.length */\n      dup1\n      sload\n      swap1\n      pop\n        /* \"node.sol\":26540:26541  i */\n      dup2\n        /* \"node.sol\":26540:26566  i < tierAllocPoints.length */\n      lt\n        /* \"node.sol\":26520:26650  for (uint256 i = 0; i < tierAllocPoints.length; i++) {\r... */\n      iszero\n      tag_382\n      jumpi\n        /* \"node.sol\":26603:26638  userNodes[i].add(nodes[_sender][i]) */\n      tag_384\n        /* \"node.sol\":26620:26625  nodes */\n      0x04\n        /* \"node.sol\":26620:26634  nodes[_sender] */\n      0x00\n        /* \"node.sol\":26626:26633  _sender */\n      dup7\n        /* \"node.sol\":26620:26634  nodes[_sender] */\n      0xffffffffffffffffffffffffffffffffffffffff\n      and\n      0xffffffffffffffffffffffffffffffffffffffff\n      and\n      dup2\n      mstore\n      0x20\n      add\n      swap1\n      dup2\n      mstore\n      0x20\n      add\n      0x00\n      keccak256\n        /* \"node.sol\":26620:26637  nodes[_sender][i] */\n      0x00\n        /* \"node.sol\":26635:26636  i */\n      dup4\n        /* \"node.sol\":26620:26637  nodes[_sender][i] */\n      dup2\n      mstore\n      0x20\n      add\n      swap1\n      dup2\n      mstore\n      0x20\n      add\n      0x00\n      keccak256\n      sload\n        /* \"node.sol\":26603:26612  userNodes */\n      dup4\n        /* \"node.sol\":26613:26614  i */\n      dup4\n        /* \"node.sol\":26603:26615  userNodes[i] */\n      dup2\n      mload\n      dup2\n      lt\n      tag_385\n      jumpi\n      invalid\n    tag_385:\n      0x20\n      mul\n      0x20\n      add\n      add\n      mload\n        /* \"node.sol\":26603:26619  userNodes[i].add */\n      tag_318\n      swap1\n        /* \"node.sol\":26603:26638  userNodes[i].add(nodes[_sender][i]) */\n      swap2\n      swap1\n      0xffffffff\n      and\n      jump\t// in\n    tag_384:\n        /* \"node.sol\":26588:26597  userNodes */\n      dup3\n        /* \"node.sol\":26598:26599  i */\n      dup3\n        /* \"node.sol\":26588:26600  userNodes[i] */\n      dup2\n      mload\n      dup2\n      lt\n      tag_386\n      jumpi\n      invalid\n    tag_386:\n      0x20\n      mul\n      0x20\n      add\n      add\n        /* \"node.sol\":26588:26638  userNodes[i] = userNodes[i].add(nodes[_sender][i]) */\n      dup2\n      dup2\n      mstore\n      pop\n      pop\n        /* \"node.sol\":26568:26571  i++ */\n      dup1\n      dup1\n      0x01\n      add\n      swap2\n      pop\n      pop\n        /* \"node.sol\":26520:26650  for (uint256 i = 0; i < tierAllocPoints.length; i++) {\r... */\n      jump(tag_381)\n    tag_382:\n      pop\n        /* \"node.sol\":26667:26676  userNodes */\n      dup1\n        /* \"node.sol\":26660:26676  return userNodes */\n      swap2\n      pop\n      pop\n        /* \"node.sol\":26356:26684  function getNodes(address _sender) external view returns (uint256[] memory) {\r... */\n      swap2\n      swap1\n      pop\n      jump\t// out\n        /* \"node.sol\":25255:25715  function getRewardDrip() public view returns (uint256) {\r... */\n    tag_160:\n        /* \"node.sol\":25301:25308  uint256 */\n      0x00\n        /* \"node.sol\":25340:25355  block.timestamp */\n      timestamp\n        /* \"node.sol\":25325:25337  lastDripTime */\n      sload(0x10)\n        /* \"node.sol\":25325:25355  lastDripTime < block.timestamp */\n      lt\n        /* \"node.sol\":25321:25689  if (lastDripTime < block.timestamp) {\r... */\n      iszero\n      tag_388\n      jumpi\n        /* \"node.sol\":25372:25391  uint256 poolBalance */\n      0x00\n        /* \"node.sol\":25394:25410  getBalancePool() */\n      tag_389\n        /* \"node.sol\":25394:25408  getBalancePool */\n      tag_176\n        /* \"node.sol\":25394:25410  getBalancePool() */\n      jump\t// in\n    tag_389:\n        /* \"node.sol\":25372:25410  uint256 poolBalance = getBalancePool() */\n      swap1\n      pop\n        /* \"node.sol\":25425:25446  uint256 secondsPassed */\n      0x00\n        /* \"node.sol\":25449:25482  block.timestamp.sub(lastDripTime) */\n      tag_390\n        /* \"node.sol\":25469:25481  lastDripTime */\n      sload(0x10)\n        /* \"node.sol\":25449:25464  block.timestamp */\n      timestamp\n        /* \"node.sol\":25449:25468  block.timestamp.sub */\n      tag_329\n      swap1\n        /* \"node.sol\":25449:25482  block.timestamp.sub(lastDripTime) */\n      swap2\n      swap1\n      0xffffffff\n      and\n      jump\t// in\n    tag_390:\n        /* \"node.sol\":25425:25482  uint256 secondsPassed = block.timestamp.sub(lastDripTime) */\n      swap1\n      pop\n        /* \"node.sol\":25497:25509  uint256 drip */\n      0x00\n        /* \"node.sol\":25512:25556  secondsPassed.mul(poolBalance).div(dripRate) */\n      tag_391\n        /* \"node.sol\":25547:25555  dripRate */\n      sload(0x0f)\n        /* \"node.sol\":25512:25542  secondsPassed.mul(poolBalance) */\n      tag_392\n        /* \"node.sol\":25530:25541  poolBalance */\n      dup6\n        /* \"node.sol\":25512:25525  secondsPassed */\n      dup6\n        /* \"node.sol\":25512:25529  secondsPassed.mul */\n      tag_317\n      swap1\n        /* \"node.sol\":25512:25542  secondsPassed.mul(poolBalance) */\n      swap2\n      swap1\n      0xffffffff\n      and\n      jump\t// in\n    tag_392:\n        /* \"node.sol\":25512:25546  secondsPassed.mul(poolBalance).div */\n      tag_339\n      swap1\n        /* \"node.sol\":25512:25556  secondsPassed.mul(poolBalance).div(dripRate) */\n      swap2\n      swap1\n      0xffffffff\n      and\n      jump\t// in\n    tag_391:\n        /* \"node.sol\":25497:25556  uint256 drip = secondsPassed.mul(poolBalance).div(dripRate) */\n      swap1\n      pop\n        /* \"node.sol\":25584:25595  poolBalance */\n      dup3\n        /* \"node.sol\":25577:25581  drip */\n      dup2\n        /* \"node.sol\":25577:25595  drip > poolBalance */\n      gt\n        /* \"node.sol\":25573:25650  if (drip > poolBalance) {\r... */\n      iszero\n      tag_393\n      jumpi\n        /* \"node.sol\":25623:25634  poolBalance */\n      dup3\n        /* \"node.sol\":25616:25634  drip = poolBalance */\n      swap1\n      pop\n        /* \"node.sol\":25573:25650  if (drip > poolBalance) {\r... */\n    tag_393:\n        /* \"node.sol\":25673:25677  drip */\n      dup1\n        /* \"node.sol\":25666:25677  return drip */\n      swap4\n      pop\n      pop\n      pop\n      pop\n      jump(tag_387)\n        /* \"node.sol\":25321:25689  if (lastDripTime < block.timestamp) {\r... */\n    tag_388:\n        /* \"node.sol\":25706:25707  0 */\n      0x00\n        /* \"node.sol\":25699:25707  return 0 */\n      swap1\n      pop\n        /* \"node.sol\":25255:25715  function getRewardDrip() public view returns (uint256) {\r... */\n    tag_387:\n      swap1\n      jump\t// out\n        /* \"node.sol\":21774:22638  function claim() public {\r... */\n    tag_164:\n        /* \"node.sol\":21809:21822  dripRewards() */\n      tag_395\n        /* \"node.sol\":21809:21820  dripRewards */\n      tag_180\n        /* \"node.sol\":21809:21822  dripRewards() */\n      jump\t// in\n    tag_395:\n        /* \"node.sol\":21835:21850  address _sender */\n      0x00\n        /* \"node.sol\":21853:21863  msg.sender */\n      caller\n        /* \"node.sol\":21835:21863  address _sender = msg.sender */\n      swap1\n      pop\n        /* \"node.sol\":21874:21890  uint256 _rewards */\n      0x00\n        /* \"node.sol\":21893:21924  getDistributionRewards(_sender) */\n      tag_396\n        /* \"node.sol\":21916:21923  _sender */\n      dup3\n        /* \"node.sol\":21893:21915  getDistributionRewards */\n      tag_121\n        /* \"node.sol\":21893:21924  getDistributionRewards(_sender) */\n      jump\t// in\n    tag_396:\n        /* \"node.sol\":21874:21924  uint256 _rewards = getDistributionRewards(_sender) */\n      swap1\n      pop\n        /* \"node.sol\":21960:21961  0 */\n      0x00\n        /* \"node.sol\":21949:21957  _rewards */\n      dup2\n        /* \"node.sol\":21949:21961  _rewards > 0 */\n      gt\n        /* \"node.sol\":21945:22631  if (_rewards > 0) {\r... */\n      iszero\n      tag_397\n      jumpi\n        /* \"node.sol\":22008:22035  total_rewards.sub(_rewards) */\n      tag_398\n        /* \"node.sol\":22026:22034  _rewards */\n      dup2\n        /* \"node.sol\":22008:22021  total_rewards */\n      sload(0x09)\n        /* \"node.sol\":22008:22025  total_rewards.sub */\n      tag_329\n      swap1\n        /* \"node.sol\":22008:22035  total_rewards.sub(_rewards) */\n      swap2\n      swap1\n      0xffffffff\n      and\n      jump\t// in\n    tag_398:\n        /* \"node.sol\":21992:22005  total_rewards */\n      0x09\n        /* \"node.sol\":21992:22035  total_rewards = total_rewards.sub(_rewards) */\n      dup2\n      swap1\n      sstore\n      pop\n        /* \"node.sol\":22050:22069  uint256 totalClaims */\n      0x00\n        /* \"node.sol\":22072:22077  users */\n      0x03\n        /* \"node.sol\":22072:22086  users[_sender] */\n      0x00\n        /* \"node.sol\":22078:22085  _sender */\n      dup5\n        /* \"node.sol\":22072:22086  users[_sender] */\n      0xffffffffffffffffffffffffffffffffffffffff\n      and\n      0xffffffffffffffffffffffffffffffffffffffff\n      and\n      dup2\n      mstore\n      0x20\n      add\n      swap1\n      dup2\n      mstore\n      0x20\n      add\n      0x00\n      keccak256\n        /* \"node.sol\":22072:22099  users[_sender].total_claims */\n      0x01\n      add\n      sload\n        /* \"node.sol\":22050:22099  uint256 totalClaims = users[_sender].total_claims */\n      swap1\n      pop\n        /* \"node.sol\":22114:22128  uint256 maxPay */\n      0x00\n        /* \"node.sol\":22131:22149  maxPayout(_sender) */\n      tag_399\n        /* \"node.sol\":22141:22148  _sender */\n      dup5\n        /* \"node.sol\":22131:22140  maxPayout */\n      tag_275\n        /* \"node.sol\":22131:22149  maxPayout(_sender) */\n      jump\t// in\n    tag_399:\n        /* \"node.sol\":22114:22149  uint256 maxPay = maxPayout(_sender) */\n      swap1\n      pop\n        /* \"node.sol\":22252:22258  maxPay */\n      dup1\n        /* \"node.sol\":22224:22249  totalClaims.add(_rewards) */\n      tag_400\n        /* \"node.sol\":22240:22248  _rewards */\n      dup5\n        /* \"node.sol\":22224:22235  totalClaims */\n      dup5\n        /* \"node.sol\":22224:22239  totalClaims.add */\n      tag_318\n      swap1\n        /* \"node.sol\":22224:22249  totalClaims.add(_rewards) */\n      swap2\n      swap1\n      0xffffffff\n      and\n      jump\t// in\n    tag_400:\n        /* \"node.sol\":22224:22258  totalClaims.add(_rewards) > maxPay */\n      gt\n        /* \"node.sol\":22221:22329  if(totalClaims.add(_rewards) > maxPay) {\r... */\n      iszero\n      tag_401\n      jumpi\n        /* \"node.sol\":22290:22313  maxPay.sub(totalClaims) */\n      tag_402\n        /* \"node.sol\":22301:22312  totalClaims */\n      dup3\n        /* \"node.sol\":22290:22296  maxPay */\n      dup3\n        /* \"node.sol\":22290:22300  maxPay.sub */\n      tag_329\n      swap1\n        /* \"node.sol\":22290:22313  maxPay.sub(totalClaims) */\n      swap2\n      swap1\n      0xffffffff\n      and\n      jump\t// in\n    tag_402:\n        /* \"node.sol\":22279:22313  _rewards = maxPay.sub(totalClaims) */\n      swap3\n      pop\n        /* \"node.sol\":22221:22329  if(totalClaims.add(_rewards) > maxPay) {\r... */\n    tag_401:\n        /* \"node.sol\":22375:22416  users[_sender].total_claims.add(_rewards) */\n      tag_403\n        /* \"node.sol\":22407:22415  _rewards */\n      dup4\n        /* \"node.sol\":22375:22380  users */\n      0x03\n        /* \"node.sol\":22375:22389  users[_sender] */\n      0x00\n        /* \"node.sol\":22381:22388  _sender */\n      dup8\n        /* \"node.sol\":22375:22389  users[_sender] */\n      0xffffffffffffffffffffffffffffffffffffffff\n      and\n      0xffffffffffffffffffffffffffffffffffffffff\n      and\n      dup2\n      mstore\n      0x20\n      add\n      swap1\n      dup2\n      mstore\n      0x20\n      add\n      0x00\n      keccak256\n        /* \"node.sol\":22375:22402  users[_sender].total_claims */\n      0x01\n      add\n      sload\n        /* \"node.sol\":22375:22406  users[_sender].total_claims.add */\n      tag_318\n      swap1\n        /* \"node.sol\":22375:22416  users[_sender].total_claims.add(_rewards) */\n      swap2\n      swap1\n      0xffffffff\n      and\n      jump\t// in\n    tag_403:\n        /* \"node.sol\":22345:22350  users */\n      0x03\n        /* \"node.sol\":22345:22359  users[_sender] */\n      0x00\n        /* \"node.sol\":22351:22358  _sender */\n      dup7\n        /* \"node.sol\":22345:22359  users[_sender] */\n      0xffffffffffffffffffffffffffffffffffffffff\n      and\n      0xffffffffffffffffffffffffffffffffffffffff\n      and\n      dup2\n      mstore\n      0x20\n      add\n      swap1\n      dup2\n      mstore\n      0x20\n      add\n      0x00\n      keccak256\n        /* \"node.sol\":22345:22372  users[_sender].total_claims */\n      0x01\n      add\n        /* \"node.sol\":22345:22416  users[_sender].total_claims = users[_sender].total_claims.add(_rewards) */\n      dup2\n      swap1\n      sstore\n      pop\n        /* \"node.sol\":22447:22474  total_claimed.add(_rewards) */\n      tag_404\n        /* \"node.sol\":22465:22473  _rewards */\n      dup4\n        /* \"node.sol\":22447:22460  total_claimed */\n      sload(0x08)\n        /* \"node.sol\":22447:22464  total_claimed.add */\n      tag_318\n      swap1\n        /* \"node.sol\":22447:22474  total_claimed.add(_rewards) */\n      swap2\n      swap1\n      0xffffffff\n      and\n      jump\t// in\n    tag_404:\n        /* \"node.sol\":22431:22444  total_claimed */\n      0x08\n        /* \"node.sol\":22431:22474  total_claimed = total_claimed.add(_rewards) */\n      dup2\n      swap1\n      sstore\n      pop\n        /* \"node.sol\":22491:22536  IERC20(TOKEN).safeTransfer(_sender, _rewards) */\n      tag_405\n        /* \"node.sol\":22518:22525  _sender */\n      dup5\n        /* \"node.sol\":22527:22535  _rewards */\n      dup5\n        /* \"node.sol\":15112:15154  0xD9FF12172803c072a36785DeFea1Aa981A6A0C18 */\n      0xd9ff12172803c072a36785defea1aa981a6a0c18\n        /* \"node.sol\":22491:22517  IERC20(TOKEN).safeTransfer */\n      0xffffffffffffffffffffffffffffffffffffffff\n      and\n      tag_295\n      swap1\n        /* \"node.sol\":22491:22536  IERC20(TOKEN).safeTransfer(_sender, _rewards) */\n      swap3\n      swap2\n      swap1\n      0xffffffff\n      and\n      jump\t// in\n    tag_405:\n        /* \"node.sol\":22598:22619  totalDistributePoints */\n      sload(0x0d)\n        /* \"node.sol\":22565:22570  users */\n      0x03\n        /* \"node.sol\":22565:22579  users[_sender] */\n      0x00\n        /* \"node.sol\":22571:22578  _sender */\n      dup7\n        /* \"node.sol\":22565:22579  users[_sender] */\n      0xffffffffffffffffffffffffffffffffffffffff\n      and\n      0xffffffffffffffffffffffffffffffffffffffff\n      and\n      dup2\n      mstore\n      0x20\n      add\n      swap1\n      dup2\n      mstore\n      0x20\n      add\n      0x00\n      keccak256\n        /* \"node.sol\":22565:22595  users[_sender].last_distPoints */\n      0x02\n      add\n        /* \"node.sol\":22565:22619  users[_sender].last_distPoints = totalDistributePoints */\n      dup2\n      swap1\n      sstore\n      pop\n        /* \"node.sol\":21945:22631  if (_rewards > 0) {\r... */\n      pop\n      pop\n    tag_397:\n        /* \"node.sol\":21774:22638  function claim() public {\r... */\n      pop\n      pop\n      jump\t// out\n        /* \"node.sol\":18530:18801  function setNodes(address _user, uint256[] memory _nodes) external onlyDev {\r... */\n    tag_169:\n        /* \"node.sol\":16774:16777  dev */\n      0x02\n      0x00\n      swap1\n      sload\n      swap1\n      0x0100\n      exp\n      swap1\n      div\n      0xffffffffffffffffffffffffffffffffffffffff\n      and\n        /* \"node.sol\":16760:16777  msg.sender == dev */\n      0xffffffffffffffffffffffffffffffffffffffff\n      and\n        /* \"node.sol\":16760:16770  msg.sender */\n      caller\n        /* \"node.sol\":16760:16777  msg.sender == dev */\n      0xffffffffffffffffffffffffffffffffffffffff\n      and\n      eq\n        /* \"node.sol\":16752:16804  require(msg.sender == dev, \"Caller is not the dev!\") */\n      tag_407\n      jumpi\n      mload(0x40)\n      0x08c379a000000000000000000000000000000000000000000000000000000000\n      dup2\n      mstore\n      0x04\n      add\n      tag_408\n      swap1\n      tag_307\n      jump\t// in\n    tag_408:\n      mload(0x40)\n      dup1\n      swap2\n      sub\n      swap1\n      revert\n    tag_407:\n        /* \"node.sol\":18620:18629  uint256 i */\n      0x00\n        /* \"node.sol\":18616:18794  for(uint256 i = 0; i < _nodes.length; i++) {\r... */\n    tag_410:\n        /* \"node.sol\":18639:18645  _nodes */\n      dup2\n        /* \"node.sol\":18639:18652  _nodes.length */\n      mload\n        /* \"node.sol\":18635:18636  i */\n      dup2\n        /* \"node.sol\":18635:18652  i < _nodes.length */\n      lt\n        /* \"node.sol\":18616:18794  for(uint256 i = 0; i < _nodes.length; i++) {\r... */\n      iszero\n      tag_411\n      jumpi\n        /* \"node.sol\":18690:18740  totalNodes[i].sub(nodes[_user][i]).add( _nodes[i]) */\n      tag_413\n        /* \"node.sol\":18730:18736  _nodes */\n      dup3\n        /* \"node.sol\":18737:18738  i */\n      dup3\n        /* \"node.sol\":18730:18739  _nodes[i] */\n      dup2\n      mload\n      dup2\n      lt\n      tag_414\n      jumpi\n      invalid\n    tag_414:\n      0x20\n      mul\n      0x20\n      add\n      add\n      mload\n        /* \"node.sol\":18690:18724  totalNodes[i].sub(nodes[_user][i]) */\n      tag_415\n        /* \"node.sol\":18708:18713  nodes */\n      0x04\n        /* \"node.sol\":18708:18720  nodes[_user] */\n      0x00\n        /* \"node.sol\":18714:18719  _user */\n      dup8\n        /* \"node.sol\":18708:18720  nodes[_user] */\n      0xffffffffffffffffffffffffffffffffffffffff\n      and\n      0xffffffffffffffffffffffffffffffffffffffff\n      and\n      dup2\n      mstore\n      0x20\n      add\n      swap1\n      dup2\n      mstore\n      0x20\n      add\n      0x00\n      keccak256\n        /* \"node.sol\":18708:18723  nodes[_user][i] */\n      0x00\n        /* \"node.sol\":18721:18722  i */\n      dup6\n        /* \"node.sol\":18708:18723  nodes[_user][i] */\n      dup2\n      mstore\n      0x20\n      add\n      swap1\n      dup2\n      mstore\n      0x20\n      add\n      0x00\n      keccak256\n      sload\n        /* \"node.sol\":18690:18700  totalNodes */\n      0x05\n        /* \"node.sol\":18690:18703  totalNodes[i] */\n      0x00\n        /* \"node.sol\":18701:18702  i */\n      dup7\n        /* \"node.sol\":18690:18703  totalNodes[i] */\n      dup2\n      mstore\n      0x20\n      add\n      swap1\n      dup2\n      mstore\n      0x20\n      add\n      0x00\n      keccak256\n      sload\n        /* \"node.sol\":18690:18707  totalNodes[i].sub */\n      tag_329\n      swap1\n        /* \"node.sol\":18690:18724  totalNodes[i].sub(nodes[_user][i]) */\n      swap2\n      swap1\n      0xffffffff\n      and\n      jump\t// in\n    tag_415:\n        /* \"node.sol\":18690:18728  totalNodes[i].sub(nodes[_user][i]).add */\n      tag_318\n      swap1\n        /* \"node.sol\":18690:18740  totalNodes[i].sub(nodes[_user][i]).add( _nodes[i]) */\n      swap2\n      swap1\n      0xffffffff\n      and\n      jump\t// in\n    tag_413:\n        /* \"node.sol\":18674:18684  totalNodes */\n      0x05\n        /* \"node.sol\":18674:18687  totalNodes[i] */\n      0x00\n        /* \"node.sol\":18685:18686  i */\n      dup4\n        /* \"node.sol\":18674:18687  totalNodes[i] */\n      dup2\n      mstore\n      0x20\n      add\n      swap1\n      dup2\n      mstore\n      0x20\n      add\n      0x00\n      keccak256\n        /* \"node.sol\":18674:18740  totalNodes[i] = totalNodes[i].sub(nodes[_user][i]).add( _nodes[i]) */\n      dup2\n      swap1\n      sstore\n      pop\n        /* \"node.sol\":18773:18779  _nodes */\n      dup2\n        /* \"node.sol\":18780:18781  i */\n      dup2\n        /* \"node.sol\":18773:18782  _nodes[i] */\n      dup2\n      mload\n      dup2\n      lt\n      tag_416\n      jumpi\n      invalid\n    tag_416:\n      0x20\n      mul\n      0x20\n      add\n      add\n      mload\n        /* \"node.sol\":18755:18760  nodes */\n      0x04\n        /* \"node.sol\":18755:18767  nodes[_user] */\n      0x00\n        /* \"node.sol\":18761:18766  _user */\n      dup6\n        /* \"node.sol\":18755:18767  nodes[_user] */\n      0xffffffffffffffffffffffffffffffffffffffff\n      and\n      0xffffffffffffffffffffffffffffffffffffffff\n      and\n      dup2\n      mstore\n      0x20\n      add\n      swap1\n      dup2\n      mstore\n      0x20\n      add\n      0x00\n      keccak256\n        /* \"node.sol\":18755:18770  nodes[_user][i] */\n      0x00\n        /* \"node.sol\":18768:18769  i */\n      dup4\n        /* \"node.sol\":18755:18770  nodes[_user][i] */\n      dup2\n      mstore\n      0x20\n      add\n      swap1\n      dup2\n      mstore\n      0x20\n      add\n      0x00\n      keccak256\n        /* \"node.sol\":18755:18782  nodes[_user][i] = _nodes[i] */\n      dup2\n      swap1\n      sstore\n      pop\n        /* \"node.sol\":18654:18657  i++ */\n      dup1\n      dup1\n      0x01\n      add\n      swap2\n      pop\n      pop\n        /* \"node.sol\":18616:18794  for(uint256 i = 0; i < _nodes.length; i++) {\r... */\n      jump(tag_410)\n    tag_411:\n      pop\n        /* \"node.sol\":18530:18801  function setNodes(address _user, uint256[] memory _nodes) external onlyDev {\r... */\n      pop\n      pop\n      jump\t// out\n        /* \"node.sol\":17395:17507  function setTreasuryFeePercent(uint256 percent) external onlyDev {\r... */\n    tag_173:\n        /* \"node.sol\":16774:16777  dev */\n      0x02\n      0x00\n      swap1\n      sload\n      swap1\n      0x0100\n      exp\n      swap1\n      div\n      0xffffffffffffffffffffffffffffffffffffffff\n      and\n        /* \"node.sol\":16760:16777  msg.sender == dev */\n      0xffffffffffffffffffffffffffffffffffffffff\n      and\n        /* \"node.sol\":16760:16770  msg.sender */\n      caller\n        /* \"node.sol\":16760:16777  msg.sender == dev */\n      0xffffffffffffffffffffffffffffffffffffffff\n      and\n      eq\n        /* \"node.sol\":16752:16804  require(msg.sender == dev, \"Caller is not the dev!\") */\n      tag_418\n      jumpi\n      mload(0x40)\n      0x08c379a000000000000000000000000000000000000000000000000000000000\n      dup2\n      mstore\n      0x04\n      add\n      tag_419\n      swap1\n      tag_307\n      jump\t// in\n    tag_419:\n      mload(0x40)\n      dup1\n      swap2\n      sub\n      swap1\n      revert\n    tag_418:\n        /* \"node.sol\":17492:17499  percent */\n      dup1\n        /* \"node.sol\":17471:17489  treasuryFeePercent */\n      0x0b\n        /* \"node.sol\":17471:17499  treasuryFeePercent = percent */\n      dup2\n      swap1\n      sstore\n      pop\n        /* \"node.sol\":17395:17507  function setTreasuryFeePercent(uint256 percent) external onlyDev {\r... */\n      pop\n      jump\t// out\n        /* \"node.sol\":27131:27266  function getBalancePool() public view returns (uint256) {\r... */\n    tag_176:\n        /* \"node.sol\":27178:27185  uint256 */\n      0x00\n        /* \"node.sol\":27205:27258  getBalance().sub(total_rewards).sub(treasury_rewards) */\n      tag_422\n        /* \"node.sol\":27241:27257  treasury_rewards */\n      sload(0x0a)\n        /* \"node.sol\":27205:27236  getBalance().sub(total_rewards) */\n      tag_423\n        /* \"node.sol\":27222:27235  total_rewards */\n      sload(0x09)\n        /* \"node.sol\":27205:27217  getBalance() */\n      tag_424\n        /* \"node.sol\":27205:27215  getBalance */\n      tag_80\n        /* \"node.sol\":27205:27217  getBalance() */\n      jump\t// in\n    tag_424:\n        /* \"node.sol\":27205:27221  getBalance().sub */\n      tag_329\n      swap1\n        /* \"node.sol\":27205:27236  getBalance().sub(total_rewards) */\n      swap2\n      swap1\n      0xffffffff\n      and\n      jump\t// in\n    tag_423:\n        /* \"node.sol\":27205:27240  getBalance().sub(total_rewards).sub */\n      tag_329\n      swap1\n        /* \"node.sol\":27205:27258  getBalance().sub(total_rewards).sub(treasury_rewards) */\n      swap2\n      swap1\n      0xffffffff\n      and\n      jump\t// in\n    tag_422:\n        /* \"node.sol\":27198:27258  return getBalance().sub(total_rewards).sub(treasury_rewards) */\n      swap1\n      pop\n        /* \"node.sol\":27131:27266  function getBalancePool() public view returns (uint256) {\r... */\n      swap1\n      jump\t// out\n        /* \"node.sol\":25055:25247  function dripRewards() public {\r... */\n    tag_180:\n        /* \"node.sol\":25096:25108  uint256 drip */\n      0x00\n        /* \"node.sol\":25111:25126  getRewardDrip() */\n      tag_426\n        /* \"node.sol\":25111:25124  getRewardDrip */\n      tag_160\n        /* \"node.sol\":25111:25126  getRewardDrip() */\n      jump\t// in\n    tag_426:\n        /* \"node.sol\":25096:25126  uint256 drip = getRewardDrip() */\n      swap1\n      pop\n        /* \"node.sol\":25150:25151  0 */\n      0x00\n        /* \"node.sol\":25143:25147  drip */\n      dup2\n        /* \"node.sol\":25143:25151  drip > 0 */\n      gt\n        /* \"node.sol\":25139:25240  if (drip > 0) {\r... */\n      iszero\n      tag_427\n      jumpi\n        /* \"node.sol\":25168:25183  _disperse(drip) */\n      tag_428\n        /* \"node.sol\":25178:25182  drip */\n      dup2\n        /* \"node.sol\":25168:25177  _disperse */\n      tag_429\n        /* \"node.sol\":25168:25183  _disperse(drip) */\n      jump\t// in\n    tag_428:\n        /* \"node.sol\":25213:25228  block.timestamp */\n      timestamp\n        /* \"node.sol\":25198:25210  lastDripTime */\n      0x10\n        /* \"node.sol\":25198:25228  lastDripTime = block.timestamp */\n      dup2\n      swap1\n      sstore\n      pop\n        /* \"node.sol\":25139:25240  if (drip > 0) {\r... */\n    tag_427:\n        /* \"node.sol\":25055:25247  function dripRewards() public {\r... */\n      pop\n      jump\t// out\n        /* \"node.sol\":15932:15965  uint256 public treasuryFeePercent */\n    tag_183:\n      sload(0x0b)\n      dup2\n      jump\t// out\n        /* \"node.sol\":19080:19357  function allocPoints(address account) public view returns (uint256) {\r... */\n    tag_188:\n        /* \"node.sol\":19139:19146  uint256 */\n      0x00\n        /* \"node.sol\":19159:19172  uint256 total */\n      dup1\n        /* \"node.sol\":19175:19176  0 */\n      0x00\n        /* \"node.sol\":19159:19176  uint256 total = 0 */\n      swap1\n      pop\n        /* \"node.sol\":19192:19201  uint256 i */\n      0x00\n        /* \"node.sol\":19187:19327  for (uint256 i = 0; i < tierAllocPoints.length; i++) {\r... */\n    tag_431:\n        /* \"node.sol\":19211:19226  tierAllocPoints */\n      0x00\n        /* \"node.sol\":19211:19233  tierAllocPoints.length */\n      dup1\n      sload\n      swap1\n      pop\n        /* \"node.sol\":19207:19208  i */\n      dup2\n        /* \"node.sol\":19207:19233  i < tierAllocPoints.length */\n      lt\n        /* \"node.sol\":19187:19327  for (uint256 i = 0; i < tierAllocPoints.length; i++) {\r... */\n      iszero\n      tag_432\n      jumpi\n        /* \"node.sol\":19263:19315  total.add(tierAllocPoints[i].mul(nodes[account][i])) */\n      tag_434\n        /* \"node.sol\":19273:19314  tierAllocPoints[i].mul(nodes[account][i]) */\n      tag_435\n        /* \"node.sol\":19296:19301  nodes */\n      0x04\n        /* \"node.sol\":19296:19310  nodes[account] */\n      0x00\n        /* \"node.sol\":19302:19309  account */\n      dup8\n        /* \"node.sol\":19296:19310  nodes[account] */\n      0xffffffffffffffffffffffffffffffffffffffff\n      and\n      0xffffffffffffffffffffffffffffffffffffffff\n      and\n      dup2\n      mstore\n      0x20\n      add\n      swap1\n      dup2\n      mstore\n      0x20\n      add\n      0x00\n      keccak256\n        /* \"node.sol\":19296:19313  nodes[account][i] */\n      0x00\n        /* \"node.sol\":19311:19312  i */\n      dup5\n        /* \"node.sol\":19296:19313  nodes[account][i] */\n      dup2\n      mstore\n      0x20\n      add\n      swap1\n      dup2\n      mstore\n      0x20\n      add\n      0x00\n      keccak256\n      sload\n        /* \"node.sol\":19273:19288  tierAllocPoints */\n      0x00\n        /* \"node.sol\":19289:19290  i */\n      dup5\n        /* \"node.sol\":19273:19291  tierAllocPoints[i] */\n      dup2\n      sload\n      dup2\n      lt\n      tag_436\n      jumpi\n      invalid\n    tag_436:\n      swap1\n      0x00\n      mstore\n      keccak256(0x00, 0x20)\n      add\n      sload\n        /* \"node.sol\":19273:19295  tierAllocPoints[i].mul */\n      tag_317\n      swap1\n        /* \"node.sol\":19273:19314  tierAllocPoints[i].mul(nodes[account][i]) */\n      swap2\n      swap1\n      0xffffffff\n      and\n      jump\t// in\n    tag_435:\n        /* \"node.sol\":19263:19268  total */\n      dup4\n        /* \"node.sol\":19263:19272  total.add */\n      tag_318\n      swap1\n        /* \"node.sol\":19263:19315  total.add(tierAllocPoints[i].mul(nodes[account][i])) */\n      swap2\n      swap1\n      0xffffffff\n      and\n      jump\t// in\n    tag_434:\n        /* \"node.sol\":19255:19315  total = total.add(tierAllocPoints[i].mul(nodes[account][i])) */\n      swap2\n      pop\n        /* \"node.sol\":19235:19238  i++ */\n      dup1\n      dup1\n      0x01\n      add\n      swap2\n      pop\n      pop\n        /* \"node.sol\":19187:19327  for (uint256 i = 0; i < tierAllocPoints.length; i++) {\r... */\n      jump(tag_431)\n    tag_432:\n      pop\n        /* \"node.sol\":19344:19349  total */\n      dup1\n        /* \"node.sol\":19337:19349  return total */\n      swap2\n      pop\n      pop\n        /* \"node.sol\":19080:19357  function allocPoints(address account) public view returns (uint256) {\r... */\n      swap2\n      swap1\n      pop\n      jump\t// out\n        /* \"node.sol\":17515:17601  function setDripRate(uint256 rate) external onlyDev {\r... */\n    tag_193:\n        /* \"node.sol\":16774:16777  dev */\n      0x02\n      0x00\n      swap1\n      sload\n      swap1\n      0x0100\n      exp\n      swap1\n      div\n      0xffffffffffffffffffffffffffffffffffffffff\n      and\n        /* \"node.sol\":16760:16777  msg.sender == dev */\n      0xffffffffffffffffffffffffffffffffffffffff\n      and\n        /* \"node.sol\":16760:16770  msg.sender */\n      caller\n        /* \"node.sol\":16760:16777  msg.sender == dev */\n      0xffffffffffffffffffffffffffffffffffffffff\n      and\n      eq\n        /* \"node.sol\":16752:16804  require(msg.sender == dev, \"Caller is not the dev!\") */\n      tag_439\n      jumpi\n      mload(0x40)\n      0x08c379a000000000000000000000000000000000000000000000000000000000\n      dup2\n      mstore\n      0x04\n      add\n      tag_440\n      swap1\n      tag_307\n      jump\t// in\n    tag_440:\n      mload(0x40)\n      dup1\n      swap2\n      sub\n      swap1\n      revert\n    tag_439:\n        /* \"node.sol\":17589:17593  rate */\n      dup1\n        /* \"node.sol\":17578:17586  dripRate */\n      0x0f\n        /* \"node.sol\":17578:17593  dripRate = rate */\n      dup2\n      swap1\n      sstore\n      pop\n        /* \"node.sol\":17515:17601  function setDripRate(uint256 rate) external onlyDev {\r... */\n      pop\n      jump\t// out\n        /* \"node.sol\":26696:26998  function getTotalNodes() external view returns (uint256[] memory) {\r... */\n    tag_196:\n        /* \"node.sol\":26744:26760  uint256[] memory */\n      0x60\n        /* \"node.sol\":26773:26796  uint256[] memory totals */\n      dup1\n        /* \"node.sol\":26813:26828  tierAllocPoints */\n      0x00\n        /* \"node.sol\":26813:26835  tierAllocPoints.length */\n      dup1\n      sload\n      swap1\n      pop\n        /* \"node.sol\":26799:26836  new uint256[](tierAllocPoints.length) */\n      0xffffffffffffffff\n      dup2\n      gt\n      dup1\n      iszero\n      tag_443\n      jumpi\n      0x00\n      dup1\n      revert\n    tag_443:\n      pop\n      mload(0x40)\n      swap1\n      dup1\n      dup3\n      mstore\n      dup1\n      0x20\n      mul\n      0x20\n      add\n      dup3\n      add\n      0x40\n      mstore\n      dup1\n      iszero\n      tag_444\n      jumpi\n      dup2\n      0x20\n      add\n      0x20\n      dup3\n      mul\n      dup1\n      calldatasize\n      dup4\n      calldatacopy\n      dup1\n      dup3\n      add\n      swap2\n      pop\n      pop\n      swap1\n      pop\n    tag_444:\n      pop\n        /* \"node.sol\":26773:26836  uint256[] memory totals = new uint256[](tierAllocPoints.length) */\n      swap1\n      pop\n        /* \"node.sol\":26852:26861  uint256 i */\n      0x00\n        /* \"node.sol\":26847:26967  for (uint256 i = 0; i < tierAllocPoints.length; i++) {\r... */\n    tag_445:\n        /* \"node.sol\":26871:26886  tierAllocPoints */\n      0x00\n        /* \"node.sol\":26871:26893  tierAllocPoints.length */\n      dup1\n      sload\n      swap1\n      pop\n        /* \"node.sol\":26867:26868  i */\n      dup2\n        /* \"node.sol\":26867:26893  i < tierAllocPoints.length */\n      lt\n        /* \"node.sol\":26847:26967  for (uint256 i = 0; i < tierAllocPoints.length; i++) {\r... */\n      iszero\n      tag_446\n      jumpi\n        /* \"node.sol\":26927:26955  totals[i].add(totalNodes[i]) */\n      tag_448\n        /* \"node.sol\":26941:26951  totalNodes */\n      0x05\n        /* \"node.sol\":26941:26954  totalNodes[i] */\n      0x00\n        /* \"node.sol\":26952:26953  i */\n      dup4\n        /* \"node.sol\":26941:26954  totalNodes[i] */\n      dup2\n      mstore\n      0x20\n      add\n      swap1\n      dup2\n      mstore\n      0x20\n      add\n      0x00\n      keccak256\n      sload\n        /* \"node.sol\":26927:26933  totals */\n      dup4\n        /* \"node.sol\":26934:26935  i */\n      dup4\n        /* \"node.sol\":26927:26936  totals[i] */\n      dup2\n      mload\n      dup2\n      lt\n      tag_449\n      jumpi\n      invalid\n    tag_449:\n      0x20\n      mul\n      0x20\n      add\n      add\n      mload\n        /* \"node.sol\":26927:26940  totals[i].add */\n      tag_318\n      swap1\n        /* \"node.sol\":26927:26955  totals[i].add(totalNodes[i]) */\n      swap2\n      swap1\n      0xffffffff\n      and\n      jump\t// in\n    tag_448:\n        /* \"node.sol\":26915:26921  totals */\n      dup3\n        /* \"node.sol\":26922:26923  i */\n      dup3\n        /* \"node.sol\":26915:26924  totals[i] */\n      dup2\n      mload\n      dup2\n      lt\n      tag_450\n      jumpi\n      invalid\n    tag_450:\n      0x20\n      mul\n      0x20\n      add\n      add\n        /* \"node.sol\":26915:26955  totals[i] = totals[i].add(totalNodes[i]) */\n      dup2\n      dup2\n      mstore\n      pop\n      pop\n        /* \"node.sol\":26895:26898  i++ */\n      dup1\n      dup1\n      0x01\n      add\n      swap2\n      pop\n      pop\n        /* \"node.sol\":26847:26967  for (uint256 i = 0; i < tierAllocPoints.length; i++) {\r... */\n      jump(tag_445)\n    tag_446:\n      pop\n        /* \"node.sol\":26984:26990  totals */\n      dup1\n        /* \"node.sol\":26977:26990  return totals */\n      swap2\n      pop\n      pop\n        /* \"node.sol\":26696:26998  function getTotalNodes() external view returns (uint256[] memory) {\r... */\n      swap1\n      jump\t// out\n        /* \"node.sol\":17725:17833  function setMaxReturnPercent(uint256 percent) external onlyDev {\r... */\n    tag_201:\n        /* \"node.sol\":16774:16777  dev */\n      0x02\n      0x00\n      swap1\n      sload\n      swap1\n      0x0100\n      exp\n      swap1\n      div\n      0xffffffffffffffffffffffffffffffffffffffff\n      and\n        /* \"node.sol\":16760:16777  msg.sender == dev */\n      0xffffffffffffffffffffffffffffffffffffffff\n      and\n        /* \"node.sol\":16760:16770  msg.sender */\n      caller\n        /* \"node.sol\":16760:16777  msg.sender == dev */\n      0xffffffffffffffffffffffffffffffffffffffff\n      and\n      eq\n        /* \"node.sol\":16752:16804  require(msg.sender == dev, \"Caller is not the dev!\") */\n      tag_452\n      jumpi\n      mload(0x40)\n      0x08c379a000000000000000000000000000000000000000000000000000000000\n      dup2\n      mstore\n      0x04\n      add\n      tag_453\n      swap1\n      tag_307\n      jump\t// in\n    tag_453:\n      mload(0x40)\n      dup1\n      swap2\n      sub\n      swap1\n      revert\n    tag_452:\n        /* \"node.sol\":17818:17825  percent */\n      dup1\n        /* \"node.sol\":17799:17815  maxReturnPercent */\n      0x0e\n        /* \"node.sol\":17799:17825  maxReturnPercent = percent */\n      dup2\n      swap1\n      sstore\n      pop\n        /* \"node.sol\":17725:17833  function setMaxReturnPercent(uint256 percent) external onlyDev {\r... */\n      pop\n      jump\t// out\n        /* \"node.sol\":15824:15852  uint256 public total_claimed */\n    tag_204:\n      sload(0x08)\n      dup2\n      jump\t// out\n        /* \"node.sol\":16059:16090  uint256 public maxReturnPercent */\n    tag_208:\n      sload(0x0e)\n      dup2\n      jump\t// out\n        /* \"node.sol\":16161:16185  uint256 public startTime */\n    tag_212:\n      sload(0x11)\n      dup2\n      jump\t// out\n        /* \"node.sol\":15074:15155  IERC20 public constant TOKEN = IERC20(0xD9FF12172803c072a36785DeFea1Aa981A6A0C18) */\n    tag_216:\n        /* \"node.sol\":15112:15154  0xD9FF12172803c072a36785DeFea1Aa981A6A0C18 */\n      0xd9ff12172803c072a36785defea1aa981a6a0c18\n        /* \"node.sol\":15074:15155  IERC20 public constant TOKEN = IERC20(0xD9FF12172803c072a36785DeFea1Aa981A6A0C18) */\n      dup2\n      jump\t// out\n        /* \"node.sol\":16832:16979  function changeDev(address payable newDev) external onlyDev {\r... */\n    tag_223:\n        /* \"node.sol\":16774:16777  dev */\n      0x02\n      0x00\n      swap1\n      sload\n      swap1\n      0x0100\n      exp\n      swap1\n      div\n      0xffffffffffffffffffffffffffffffffffffffff\n      and\n        /* \"node.sol\":16760:16777  msg.sender == dev */\n      0xffffffffffffffffffffffffffffffffffffffff\n      and\n        /* \"node.sol\":16760:16770  msg.sender */\n      caller\n        /* \"node.sol\":16760:16777  msg.sender == dev */\n      0xffffffffffffffffffffffffffffffffffffffff\n      and\n      eq\n        /* \"node.sol\":16752:16804  require(msg.sender == dev, \"Caller is not the dev!\") */\n      tag_456\n      jumpi\n      mload(0x40)\n      0x08c379a000000000000000000000000000000000000000000000000000000000\n      dup2\n      mstore\n      0x04\n      add\n      tag_457\n      swap1\n      tag_307\n      jump\t// in\n    tag_457:\n      mload(0x40)\n      dup1\n      swap2\n      sub\n      swap1\n      revert\n    tag_456:\n        /* \"node.sol\":16929:16930  0 */\n      0x00\n        /* \"node.sol\":16911:16931  newDev != address(0) */\n      0xffffffffffffffffffffffffffffffffffffffff\n      and\n        /* \"node.sol\":16911:16917  newDev */\n      dup2\n        /* \"node.sol\":16911:16931  newDev != address(0) */\n      0xffffffffffffffffffffffffffffffffffffffff\n      and\n      eq\n      iszero\n        /* \"node.sol\":16903:16948  require(newDev != address(0), \"Zero address\") */\n      tag_459\n      jumpi\n      mload(0x40)\n      0x08c379a000000000000000000000000000000000000000000000000000000000\n      dup2\n      mstore\n      0x04\n      add\n      tag_460\n      swap1\n      tag_461\n      jump\t// in\n    tag_460:\n      mload(0x40)\n      dup1\n      swap2\n      sub\n      swap1\n      revert\n    tag_459:\n        /* \"node.sol\":16965:16971  newDev */\n      dup1\n        /* \"node.sol\":16959:16962  dev */\n      0x02\n      0x00\n        /* \"node.sol\":16959:16971  dev = newDev */\n      0x0100\n      exp\n      dup2\n      sload\n      dup2\n      0xffffffffffffffffffffffffffffffffffffffff\n      mul\n      not\n      and\n      swap1\n      dup4\n      0xffffffffffffffffffffffffffffffffffffffff\n      and\n      mul\n      or\n      swap1\n      sstore\n      pop\n        /* \"node.sol\":16832:16979  function changeDev(address payable newDev) external onlyDev {\r... */\n      pop\n      jump\t// out\n        /* \"node.sol\":25723:26100  function getDayDripEstimate(address _user) external view returns (uint256) {\r... */\n    tag_227:\n        /* \"node.sol\":25789:25796  uint256 */\n      0x00\n        /* \"node.sol\":25850:25851  0 */\n      dup1\n        /* \"node.sol\":25829:25847  allocPoints(_user) */\n      tag_463\n        /* \"node.sol\":25841:25846  _user */\n      dup4\n        /* \"node.sol\":25829:25840  allocPoints */\n      tag_188\n        /* \"node.sol\":25829:25847  allocPoints(_user) */\n      jump\t// in\n    tag_463:\n        /* \"node.sol\":25829:25851  allocPoints(_user) > 0 */\n      gt\n        /* \"node.sol\":25829:25874  allocPoints(_user) > 0 && !isMaxPayout(_user) */\n      dup1\n      iszero\n      tag_464\n      jumpi\n      pop\n        /* \"node.sol\":25856:25874  isMaxPayout(_user) */\n      tag_465\n        /* \"node.sol\":25868:25873  _user */\n      dup3\n        /* \"node.sol\":25856:25867  isMaxPayout */\n      tag_150\n        /* \"node.sol\":25856:25874  isMaxPayout(_user) */\n      jump\t// in\n    tag_465:\n        /* \"node.sol\":25855:25874  !isMaxPayout(_user) */\n      iszero\n        /* \"node.sol\":25829:25874  allocPoints(_user) > 0 && !isMaxPayout(_user) */\n    tag_464:\n        /* \"node.sol\":25829:26092  allocPoints(_user) > 0 && !isMaxPayout(_user)\r... */\n      tag_466\n      jumpi\n        /* \"node.sol\":26091:26092  0 */\n      0x00\n        /* \"node.sol\":25829:26092  allocPoints(_user) > 0 && !isMaxPayout(_user)\r... */\n      jump(tag_467)\n    tag_466:\n        /* \"node.sol\":25894:26071  getBalancePool()\r... */\n      tag_468\n        /* \"node.sol\":26062:26070  dripRate */\n      sload(0x0f)\n        /* \"node.sol\":25894:26035  getBalancePool()\r... */\n      tag_469\n        /* \"node.sol\":26016:26034  totalAllocPoints() */\n      tag_470\n        /* \"node.sol\":26016:26032  totalAllocPoints */\n      tag_94\n        /* \"node.sol\":26016:26034  totalAllocPoints() */\n      jump\t// in\n    tag_470:\n        /* \"node.sol\":25894:25989  getBalancePool()\r... */\n      tag_471\n        /* \"node.sol\":25970:25988  allocPoints(_user) */\n      tag_472\n        /* \"node.sol\":25982:25987  _user */\n      dup8\n        /* \"node.sol\":25970:25981  allocPoints */\n      tag_188\n        /* \"node.sol\":25970:25988  allocPoints(_user) */\n      jump\t// in\n    tag_472:\n        /* \"node.sol\":25894:25943  getBalancePool()\r... */\n      tag_473\n        /* \"node.sol\":25937:25942  86400 */\n      0x015180\n        /* \"node.sol\":25894:25910  getBalancePool() */\n      tag_474\n        /* \"node.sol\":25894:25908  getBalancePool */\n      tag_176\n        /* \"node.sol\":25894:25910  getBalancePool() */\n      jump\t// in\n    tag_474:\n        /* \"node.sol\":25894:25936  getBalancePool()\r... */\n      tag_317\n      swap1\n        /* \"node.sol\":25894:25943  getBalancePool()\r... */\n      swap2\n      swap1\n      0xffffffff\n      and\n      jump\t// in\n    tag_473:\n        /* \"node.sol\":25894:25969  getBalancePool()\r... */\n      tag_317\n      swap1\n        /* \"node.sol\":25894:25989  getBalancePool()\r... */\n      swap2\n      swap1\n      0xffffffff\n      and\n      jump\t// in\n    tag_471:\n        /* \"node.sol\":25894:26015  getBalancePool()\r... */\n      tag_339\n      swap1\n        /* \"node.sol\":25894:26035  getBalancePool()\r... */\n      swap2\n      swap1\n      0xffffffff\n      and\n      jump\t// in\n    tag_469:\n        /* \"node.sol\":25894:26061  getBalancePool()\r... */\n      tag_339\n      swap1\n        /* \"node.sol\":25894:26071  getBalancePool()\r... */\n      swap2\n      swap1\n      0xffffffff\n      and\n      jump\t// in\n    tag_468:\n        /* \"node.sol\":25829:26092  allocPoints(_user) > 0 && !isMaxPayout(_user)\r... */\n    tag_467:\n        /* \"node.sol\":25809:26092  return\r... */\n      swap1\n      pop\n        /* \"node.sol\":25723:26100  function getDayDripEstimate(address _user) external view returns (uint256) {\r... */\n      swap2\n      swap1\n      pop\n      jump\t// out\n        /* \"node.sol\":27274:27394  function emergencyWithdraw(IERC20 token, uint256 amnt) external onlyDev {\r... */\n    tag_233:\n        /* \"node.sol\":16774:16777  dev */\n      0x02\n      0x00\n      swap1\n      sload\n      swap1\n      0x0100\n      exp\n      swap1\n      div\n      0xffffffffffffffffffffffffffffffffffffffff\n      and\n        /* \"node.sol\":16760:16777  msg.sender == dev */\n      0xffffffffffffffffffffffffffffffffffffffff\n      and\n        /* \"node.sol\":16760:16770  msg.sender */\n      caller\n        /* \"node.sol\":16760:16777  msg.sender == dev */\n      0xffffffffffffffffffffffffffffffffffffffff\n      and\n      eq\n        /* \"node.sol\":16752:16804  require(msg.sender == dev, \"Caller is not the dev!\") */\n      tag_476\n      jumpi\n      mload(0x40)\n      0x08c379a000000000000000000000000000000000000000000000000000000000\n      dup2\n      mstore\n      0x04\n      add\n      tag_477\n      swap1\n      tag_307\n      jump\t// in\n    tag_477:\n      mload(0x40)\n      dup1\n      swap2\n      sub\n      swap1\n      revert\n    tag_476:\n        /* \"node.sol\":27357:27386  token.safeTransfer(dev, amnt) */\n      tag_479\n        /* \"node.sol\":27376:27379  dev */\n      0x02\n      0x00\n      swap1\n      sload\n      swap1\n      0x0100\n      exp\n      swap1\n      div\n      0xffffffffffffffffffffffffffffffffffffffff\n      and\n        /* \"node.sol\":27381:27385  amnt */\n      dup3\n        /* \"node.sol\":27357:27362  token */\n      dup5\n        /* \"node.sol\":27357:27375  token.safeTransfer */\n      0xffffffffffffffffffffffffffffffffffffffff\n      and\n      tag_295\n      swap1\n        /* \"node.sol\":27357:27386  token.safeTransfer(dev, amnt) */\n      swap3\n      swap2\n      swap1\n      0xffffffff\n      and\n      jump\t// in\n    tag_479:\n        /* \"node.sol\":27274:27394  function emergencyWithdraw(IERC20 token, uint256 amnt) external onlyDev {\r... */\n      pop\n      pop\n      jump\t// out\n        /* \"node.sol\":20321:21766  function create(uint256 nodeTier, uint256 numNodes) external {\r... */\n    tag_238:\n        /* \"node.sol\":20393:20408  address _sender */\n      0x00\n        /* \"node.sol\":20411:20421  msg.sender */\n      caller\n        /* \"node.sol\":20393:20421  address _sender = msg.sender */\n      swap1\n      pop\n        /* \"node.sol\":20440:20447  enabled */\n      0x12\n      0x00\n      swap1\n      sload\n      swap1\n      0x0100\n      exp\n      swap1\n      div\n      0xff\n      and\n        /* \"node.sol\":20440:20479  enabled && block.timestamp >= startTime */\n      dup1\n      iszero\n      tag_481\n      jumpi\n      pop\n        /* \"node.sol\":20470:20479  startTime */\n      sload(0x11)\n        /* \"node.sol\":20451:20466  block.timestamp */\n      timestamp\n        /* \"node.sol\":20451:20479  block.timestamp >= startTime */\n      lt\n      iszero\n        /* \"node.sol\":20440:20479  enabled && block.timestamp >= startTime */\n    tag_481:\n        /* \"node.sol\":20432:20492  require(enabled && block.timestamp >= startTime, \"Disabled\") */\n      tag_482\n      jumpi\n      mload(0x40)\n      0x08c379a000000000000000000000000000000000000000000000000000000000\n      dup2\n      mstore\n      0x04\n      add\n      tag_483\n      swap1\n      tag_484\n      jump\t// in\n    tag_483:\n      mload(0x40)\n      dup1\n      swap2\n      sub\n      swap1\n      revert\n    tag_482:\n        /* \"node.sol\":20522:20537  tierAllocPoints */\n      0x00\n        /* \"node.sol\":20522:20544  tierAllocPoints.length */\n      dup1\n      sload\n      swap1\n      pop\n        /* \"node.sol\":20511:20519  nodeTier */\n      dup4\n        /* \"node.sol\":20511:20544  nodeTier < tierAllocPoints.length */\n      lt\n        /* \"node.sol\":20511:20577  nodeTier < tierAllocPoints.length && nodeTier < tierAmounts.length */\n      dup1\n      iszero\n      tag_485\n      jumpi\n      pop\n        /* \"node.sol\":20559:20570  tierAmounts */\n      0x01\n        /* \"node.sol\":20559:20577  tierAmounts.length */\n      dup1\n      sload\n      swap1\n      pop\n        /* \"node.sol\":20548:20556  nodeTier */\n      dup4\n        /* \"node.sol\":20548:20577  nodeTier < tierAmounts.length */\n      lt\n        /* \"node.sol\":20511:20577  nodeTier < tierAllocPoints.length && nodeTier < tierAmounts.length */\n    tag_485:\n        /* \"node.sol\":20503:20598  require(nodeTier < tierAllocPoints.length && nodeTier < tierAmounts.length, \"Invalid nodeTier\") */\n      tag_486\n      jumpi\n      mload(0x40)\n      0x08c379a000000000000000000000000000000000000000000000000000000000\n      dup2\n      mstore\n      0x04\n      add\n      tag_487\n      swap1\n      tag_488\n      jump\t// in\n    tag_487:\n      mload(0x40)\n      dup1\n      swap2\n      sub\n      swap1\n      revert\n    tag_486:\n        /* \"node.sol\":20648:20649  0 */\n      0x00\n        /* \"node.sol\":20615:20620  users */\n      0x03\n        /* \"node.sol\":20615:20629  users[_sender] */\n      0x00\n        /* \"node.sol\":20621:20628  _sender */\n      dup4\n        /* \"node.sol\":20615:20629  users[_sender] */\n      0xffffffffffffffffffffffffffffffffffffffff\n      and\n      0xffffffffffffffffffffffffffffffffffffffff\n      and\n      dup2\n      mstore\n      0x20\n      add\n      swap1\n      dup2\n      mstore\n      0x20\n      add\n      0x00\n      keccak256\n        /* \"node.sol\":20615:20644  users[_sender].total_deposits */\n      0x00\n      add\n      sload\n        /* \"node.sol\":20615:20649  users[_sender].total_deposits == 0 */\n      eq\n        /* \"node.sol\":20611:20784  if (users[_sender].total_deposits == 0) {\r... */\n      iszero\n      tag_489\n      jumpi\n        /* \"node.sol\":20666:20677  userIndices */\n      0x06\n        /* \"node.sol\":20683:20690  _sender */\n      dup2\n        /* \"node.sol\":20666:20691  userIndices.push(_sender) */\n      swap1\n      dup1\n      0x01\n      dup2\n      sload\n      add\n      dup1\n      dup3\n      sstore\n      dup1\n      swap2\n      pop\n      pop\n      0x01\n      swap1\n      sub\n      swap1\n      0x00\n      mstore\n      keccak256(0x00, 0x20)\n      add\n      0x00\n      swap1\n      swap2\n      swap1\n      swap2\n      swap1\n      swap2\n      0x0100\n      exp\n      dup2\n      sload\n      dup2\n      0xffffffffffffffffffffffffffffffffffffffff\n      mul\n      not\n      and\n      swap1\n      dup4\n      0xffffffffffffffffffffffffffffffffffffffff\n      and\n      mul\n      or\n      swap1\n      sstore\n      pop\n        /* \"node.sol\":20751:20772  totalDistributePoints */\n      sload(0x0d)\n        /* \"node.sol\":20718:20723  users */\n      0x03\n        /* \"node.sol\":20718:20732  users[_sender] */\n      0x00\n        /* \"node.sol\":20724:20731  _sender */\n      dup4\n        /* \"node.sol\":20718:20732  users[_sender] */\n      0xffffffffffffffffffffffffffffffffffffffff\n      and\n      0xffffffffffffffffffffffffffffffffffffffff\n      and\n      dup2\n      mstore\n      0x20\n      add\n      swap1\n      dup2\n      mstore\n      0x20\n      add\n      0x00\n      keccak256\n        /* \"node.sol\":20718:20748  users[_sender].last_distPoints */\n      0x02\n      add\n        /* \"node.sol\":20718:20772  users[_sender].last_distPoints = totalDistributePoints */\n      dup2\n      swap1\n      sstore\n      pop\n        /* \"node.sol\":20611:20784  if (users[_sender].total_deposits == 0) {\r... */\n    tag_489:\n        /* \"node.sol\":20832:20833  0 */\n      0x00\n        /* \"node.sol\":20799:20804  users */\n      0x03\n        /* \"node.sol\":20799:20813  users[_sender] */\n      0x00\n        /* \"node.sol\":20805:20812  _sender */\n      dup4\n        /* \"node.sol\":20799:20813  users[_sender] */\n      0xffffffffffffffffffffffffffffffffffffffff\n      and\n      0xffffffffffffffffffffffffffffffffffffffff\n      and\n      dup2\n      mstore\n      0x20\n      add\n      swap1\n      dup2\n      mstore\n      0x20\n      add\n      0x00\n      keccak256\n        /* \"node.sol\":20799:20828  users[_sender].total_deposits */\n      0x00\n      add\n      sload\n        /* \"node.sol\":20799:20833  users[_sender].total_deposits != 0 */\n      eq\n      iszero\n        /* \"node.sol\":20799:20857  users[_sender].total_deposits != 0 && isMaxPayout(_sender) */\n      dup1\n      iszero\n      tag_491\n      jumpi\n      pop\n        /* \"node.sol\":20837:20857  isMaxPayout(_sender) */\n      tag_492\n        /* \"node.sol\":20849:20856  _sender */\n      dup2\n        /* \"node.sol\":20837:20848  isMaxPayout */\n      tag_150\n        /* \"node.sol\":20837:20857  isMaxPayout(_sender) */\n      jump\t// in\n    tag_492:\n        /* \"node.sol\":20799:20857  users[_sender].total_deposits != 0 && isMaxPayout(_sender) */\n    tag_491:\n        /* \"node.sol\":20795:20940  if (users[_sender].total_deposits != 0 && isMaxPayout(_sender)) {\r... */\n      iszero\n      tag_493\n      jumpi\n        /* \"node.sol\":20907:20928  totalDistributePoints */\n      sload(0x0d)\n        /* \"node.sol\":20874:20879  users */\n      0x03\n        /* \"node.sol\":20874:20888  users[_sender] */\n      0x00\n        /* \"node.sol\":20880:20887  _sender */\n      dup4\n        /* \"node.sol\":20874:20888  users[_sender] */\n      0xffffffffffffffffffffffffffffffffffffffff\n      and\n      0xffffffffffffffffffffffffffffffffffffffff\n      and\n      dup2\n      mstore\n      0x20\n      add\n      swap1\n      dup2\n      mstore\n      0x20\n      add\n      0x00\n      keccak256\n        /* \"node.sol\":20874:20904  users[_sender].last_distPoints */\n      0x02\n      add\n        /* \"node.sol\":20874:20928  users[_sender].last_distPoints = totalDistributePoints */\n      dup2\n      swap1\n      sstore\n      pop\n        /* \"node.sol\":20795:20940  if (users[_sender].total_deposits != 0 && isMaxPayout(_sender)) {\r... */\n    tag_493:\n        /* \"node.sol\":20952:20969  uint256 tierPrice */\n      0x00\n        /* \"node.sol\":20972:21007  tierAmounts[nodeTier].mul(numNodes) */\n      tag_494\n        /* \"node.sol\":20998:21006  numNodes */\n      dup4\n        /* \"node.sol\":20972:20983  tierAmounts */\n      0x01\n        /* \"node.sol\":20984:20992  nodeTier */\n      dup7\n        /* \"node.sol\":20972:20993  tierAmounts[nodeTier] */\n      dup2\n      sload\n      dup2\n      lt\n      tag_495\n      jumpi\n      invalid\n    tag_495:\n      swap1\n      0x00\n      mstore\n      keccak256(0x00, 0x20)\n      add\n      sload\n        /* \"node.sol\":20972:20997  tierAmounts[nodeTier].mul */\n      tag_317\n      swap1\n        /* \"node.sol\":20972:21007  tierAmounts[nodeTier].mul(numNodes) */\n      swap2\n      swap1\n      0xffffffff\n      and\n      jump\t// in\n    tag_494:\n        /* \"node.sol\":20952:21007  uint256 tierPrice = tierAmounts[nodeTier].mul(numNodes) */\n      swap1\n      pop\n        /* \"node.sol\":21064:21073  tierPrice */\n      dup1\n        /* \"node.sol\":15112:15154  0xD9FF12172803c072a36785DeFea1Aa981A6A0C18 */\n      0xd9ff12172803c072a36785defea1aa981a6a0c18\n        /* \"node.sol\":21036:21051  TOKEN.balanceOf */\n      0xffffffffffffffffffffffffffffffffffffffff\n      and\n      0x70a08231\n        /* \"node.sol\":21052:21059  _sender */\n      dup5\n        /* \"node.sol\":21036:21060  TOKEN.balanceOf(_sender) */\n      mload(0x40)\n      dup3\n      0xffffffff\n      and\n      0xe0\n      shl\n      dup2\n      mstore\n      0x04\n      add\n      tag_497\n      swap2\n      swap1\n      tag_101\n      jump\t// in\n    tag_497:\n      0x20\n      mload(0x40)\n      dup1\n      dup4\n      sub\n      dup2\n      dup7\n      dup1\n      extcodesize\n      iszero\n      dup1\n      iszero\n      tag_498\n      jumpi\n      0x00\n      dup1\n      revert\n    tag_498:\n      pop\n      gas\n      staticcall\n      iszero\n      dup1\n      iszero\n      tag_500\n      jumpi\n      returndatasize\n      0x00\n      dup1\n      returndatacopy\n      revert(0x00, returndatasize)\n    tag_500:\n      pop\n      pop\n      pop\n      pop\n      mload(0x40)\n      returndatasize\n      not(0x1f)\n      0x1f\n      dup3\n      add\n      and\n      dup3\n      add\n      dup1\n      0x40\n      mstore\n      pop\n      dup2\n      add\n      swap1\n      tag_501\n      swap2\n      swap1\n      tag_303\n      jump\t// in\n    tag_501:\n        /* \"node.sol\":21036:21073  TOKEN.balanceOf(_sender) >= tierPrice */\n      lt\n      iszero\n        /* \"node.sol\":21028:21098  require(TOKEN.balanceOf(_sender) >= tierPrice, \"Insufficient balance\") */\n      tag_502\n      jumpi\n      mload(0x40)\n      0x08c379a000000000000000000000000000000000000000000000000000000000\n      dup2\n      mstore\n      0x04\n      add\n      tag_503\n      swap1\n      tag_504\n      jump\t// in\n    tag_503:\n      mload(0x40)\n      dup1\n      swap2\n      sub\n      swap1\n      revert\n    tag_502:\n        /* \"node.sol\":21160:21169  tierPrice */\n      dup1\n        /* \"node.sol\":15112:15154  0xD9FF12172803c072a36785DeFea1Aa981A6A0C18 */\n      0xd9ff12172803c072a36785defea1aa981a6a0c18\n        /* \"node.sol\":21117:21132  TOKEN.allowance */\n      0xffffffffffffffffffffffffffffffffffffffff\n      and\n      0xdd62ed3e\n        /* \"node.sol\":21133:21140  _sender */\n      dup5\n        /* \"node.sol\":21150:21154  this */\n      address\n        /* \"node.sol\":21117:21156  TOKEN.allowance(_sender, address(this)) */\n      mload(0x40)\n      dup4\n      0xffffffff\n      and\n      0xe0\n      shl\n      dup2\n      mstore\n      0x04\n      add\n      tag_505\n      swap3\n      swap2\n      swap1\n      tag_506\n      jump\t// in\n    tag_505:\n      0x20\n      mload(0x40)\n      dup1\n      dup4\n      sub\n      dup2\n      dup7\n      dup1\n      extcodesize\n      iszero\n      dup1\n      iszero\n      tag_507\n      jumpi\n      0x00\n      dup1\n      revert\n    tag_507:\n      pop\n      gas\n      staticcall\n      iszero\n      dup1\n      iszero\n      tag_509\n      jumpi\n      returndatasize\n      0x00\n      dup1\n      returndatacopy\n      revert(0x00, returndatasize)\n    tag_509:\n      pop\n      pop\n      pop\n      pop\n      mload(0x40)\n      returndatasize\n      not(0x1f)\n      0x1f\n      dup3\n      add\n      and\n      dup3\n      add\n      dup1\n      0x40\n      mstore\n      pop\n      dup2\n      add\n      swap1\n      tag_510\n      swap2\n      swap1\n      tag_303\n      jump\t// in\n    tag_510:\n        /* \"node.sol\":21117:21169  TOKEN.allowance(_sender, address(this)) >= tierPrice */\n      lt\n      iszero\n        /* \"node.sol\":21109:21196  require(TOKEN.allowance(_sender, address(this)) >= tierPrice, \"Insufficient allowance\") */\n      tag_511\n      jumpi\n      mload(0x40)\n      0x08c379a000000000000000000000000000000000000000000000000000000000\n      dup2\n      mstore\n      0x04\n      add\n      tag_512\n      swap1\n      tag_513\n      jump\t// in\n    tag_512:\n      mload(0x40)\n      dup1\n      swap2\n      sub\n      swap1\n      revert\n    tag_511:\n        /* \"node.sol\":21207:21264  TOKEN.safeTransferFrom(_sender, address(this), tierPrice) */\n      tag_514\n        /* \"node.sol\":21230:21237  _sender */\n      dup3\n        /* \"node.sol\":21247:21251  this */\n      address\n        /* \"node.sol\":21254:21263  tierPrice */\n      dup4\n        /* \"node.sol\":15112:15154  0xD9FF12172803c072a36785DeFea1Aa981A6A0C18 */\n      0xd9ff12172803c072a36785defea1aa981a6a0c18\n        /* \"node.sol\":21207:21229  TOKEN.safeTransferFrom */\n      0xffffffffffffffffffffffffffffffffffffffff\n      and\n      tag_515\n      swap1\n        /* \"node.sol\":21207:21264  TOKEN.safeTransferFrom(_sender, address(this), tierPrice) */\n      swap4\n      swap3\n      swap2\n      swap1\n      0xffffffff\n      and\n      jump\t// in\n    tag_514:\n        /* \"node.sol\":21309:21353  users[_sender].total_deposits.add(tierPrice) */\n      tag_516\n        /* \"node.sol\":21343:21352  tierPrice */\n      dup2\n        /* \"node.sol\":21309:21314  users */\n      0x03\n        /* \"node.sol\":21309:21323  users[_sender] */\n      0x00\n        /* \"node.sol\":21315:21322  _sender */\n      dup6\n        /* \"node.sol\":21309:21323  users[_sender] */\n      0xffffffffffffffffffffffffffffffffffffffff\n      and\n      0xffffffffffffffffffffffffffffffffffffffff\n      and\n      dup2\n      mstore\n      0x20\n      add\n      swap1\n      dup2\n      mstore\n      0x20\n      add\n      0x00\n      keccak256\n        /* \"node.sol\":21309:21338  users[_sender].total_deposits */\n      0x00\n      add\n      sload\n        /* \"node.sol\":21309:21342  users[_sender].total_deposits.add */\n      tag_318\n      swap1\n        /* \"node.sol\":21309:21353  users[_sender].total_deposits.add(tierPrice) */\n      swap2\n      swap1\n      0xffffffff\n      and\n      jump\t// in\n    tag_516:\n        /* \"node.sol\":21277:21282  users */\n      0x03\n        /* \"node.sol\":21277:21291  users[_sender] */\n      0x00\n        /* \"node.sol\":21283:21290  _sender */\n      dup5\n        /* \"node.sol\":21277:21291  users[_sender] */\n      0xffffffffffffffffffffffffffffffffffffffff\n      and\n      0xffffffffffffffffffffffffffffffffffffffff\n      and\n      dup2\n      mstore\n      0x20\n      add\n      swap1\n      dup2\n      mstore\n      0x20\n      add\n      0x00\n      keccak256\n        /* \"node.sol\":21277:21306  users[_sender].total_deposits */\n      0x00\n      add\n        /* \"node.sol\":21277:21353  users[_sender].total_deposits = users[_sender].total_deposits.add(tierPrice) */\n      dup2\n      swap1\n      sstore\n      pop\n        /* \"node.sol\":21392:21422  total_deposited.add(tierPrice) */\n      tag_517\n        /* \"node.sol\":21412:21421  tierPrice */\n      dup2\n        /* \"node.sol\":21392:21407  total_deposited */\n      sload(0x07)\n        /* \"node.sol\":21392:21411  total_deposited.add */\n      tag_318\n      swap1\n        /* \"node.sol\":21392:21422  total_deposited.add(tierPrice) */\n      swap2\n      swap1\n      0xffffffff\n      and\n      jump\t// in\n    tag_517:\n        /* \"node.sol\":21374:21389  total_deposited */\n      0x07\n        /* \"node.sol\":21374:21422  total_deposited = total_deposited.add(tierPrice) */\n      dup2\n      swap1\n      sstore\n      pop\n        /* \"node.sol\":21452:21540  treasury_rewards.add(\r... */\n      tag_518\n        /* \"node.sol\":21487:21529  tierPrice.mul(treasuryFeePercent).div(100) */\n      tag_519\n        /* \"node.sol\":21525:21528  100 */\n      0x64\n        /* \"node.sol\":21487:21520  tierPrice.mul(treasuryFeePercent) */\n      tag_520\n        /* \"node.sol\":21501:21519  treasuryFeePercent */\n      sload(0x0b)\n        /* \"node.sol\":21487:21496  tierPrice */\n      dup6\n        /* \"node.sol\":21487:21500  tierPrice.mul */\n      tag_317\n      swap1\n        /* \"node.sol\":21487:21520  tierPrice.mul(treasuryFeePercent) */\n      swap2\n      swap1\n      0xffffffff\n      and\n      jump\t// in\n    tag_520:\n        /* \"node.sol\":21487:21524  tierPrice.mul(treasuryFeePercent).div */\n      tag_339\n      swap1\n        /* \"node.sol\":21487:21529  tierPrice.mul(treasuryFeePercent).div(100) */\n      swap2\n      swap1\n      0xffffffff\n      and\n      jump\t// in\n    tag_519:\n        /* \"node.sol\":21452:21468  treasury_rewards */\n      sload(0x0a)\n        /* \"node.sol\":21452:21472  treasury_rewards.add */\n      tag_318\n      swap1\n        /* \"node.sol\":21452:21540  treasury_rewards.add(\r... */\n      swap2\n      swap1\n      0xffffffff\n      and\n      jump\t// in\n    tag_518:\n        /* \"node.sol\":21433:21449  treasury_rewards */\n      0x0a\n        /* \"node.sol\":21433:21540  treasury_rewards = treasury_rewards.add(\r... */\n      dup2\n      swap1\n      sstore\n      pop\n        /* \"node.sol\":21588:21626  nodes[_sender][nodeTier].add(numNodes) */\n      tag_521\n        /* \"node.sol\":21617:21625  numNodes */\n      dup4\n        /* \"node.sol\":21588:21593  nodes */\n      0x04\n        /* \"node.sol\":21588:21602  nodes[_sender] */\n      0x00\n        /* \"node.sol\":21594:21601  _sender */\n      dup6\n        /* \"node.sol\":21588:21602  nodes[_sender] */\n      0xffffffffffffffffffffffffffffffffffffffff\n      and\n      0xffffffffffffffffffffffffffffffffffffffff\n      and\n      dup2\n      mstore\n      0x20\n      add\n      swap1\n      dup2\n      mstore\n      0x20\n      add\n      0x00\n      keccak256\n        /* \"node.sol\":21588:21612  nodes[_sender][nodeTier] */\n      0x00\n        /* \"node.sol\":21603:21611  nodeTier */\n      dup8\n        /* \"node.sol\":21588:21612  nodes[_sender][nodeTier] */\n      dup2\n      mstore\n      0x20\n      add\n      swap1\n      dup2\n      mstore\n      0x20\n      add\n      0x00\n      keccak256\n      sload\n        /* \"node.sol\":21588:21616  nodes[_sender][nodeTier].add */\n      tag_318\n      swap1\n        /* \"node.sol\":21588:21626  nodes[_sender][nodeTier].add(numNodes) */\n      swap2\n      swap1\n      0xffffffff\n      and\n      jump\t// in\n    tag_521:\n        /* \"node.sol\":21561:21566  nodes */\n      0x04\n        /* \"node.sol\":21561:21575  nodes[_sender] */\n      0x00\n        /* \"node.sol\":21567:21574  _sender */\n      dup5\n        /* \"node.sol\":21561:21575  nodes[_sender] */\n      0xffffffffffffffffffffffffffffffffffffffff\n      and\n      0xffffffffffffffffffffffffffffffffffffffff\n      and\n      dup2\n      mstore\n      0x20\n      add\n      swap1\n      dup2\n      mstore\n      0x20\n      add\n      0x00\n      keccak256\n        /* \"node.sol\":21561:21585  nodes[_sender][nodeTier] */\n      0x00\n        /* \"node.sol\":21576:21584  nodeTier */\n      dup7\n        /* \"node.sol\":21561:21585  nodes[_sender][nodeTier] */\n      dup2\n      mstore\n      0x20\n      add\n      swap1\n      dup2\n      mstore\n      0x20\n      add\n      0x00\n      keccak256\n        /* \"node.sol\":21561:21626  nodes[_sender][nodeTier] = nodes[_sender][nodeTier].add(numNodes) */\n      dup2\n      swap1\n      sstore\n      pop\n        /* \"node.sol\":21660:21694  totalNodes[nodeTier].add(numNodes) */\n      tag_522\n        /* \"node.sol\":21685:21693  numNodes */\n      dup4\n        /* \"node.sol\":21660:21670  totalNodes */\n      0x05\n        /* \"node.sol\":21660:21680  totalNodes[nodeTier] */\n      0x00\n        /* \"node.sol\":21671:21679  nodeTier */\n      dup8\n        /* \"node.sol\":21660:21680  totalNodes[nodeTier] */\n      dup2\n      mstore\n      0x20\n      add\n      swap1\n      dup2\n      mstore\n      0x20\n      add\n      0x00\n      keccak256\n      sload\n        /* \"node.sol\":21660:21684  totalNodes[nodeTier].add */\n      tag_318\n      swap1\n        /* \"node.sol\":21660:21694  totalNodes[nodeTier].add(numNodes) */\n      swap2\n      swap1\n      0xffffffff\n      and\n      jump\t// in\n    tag_522:\n        /* \"node.sol\":21637:21647  totalNodes */\n      0x05\n        /* \"node.sol\":21637:21657  totalNodes[nodeTier] */\n      0x00\n        /* \"node.sol\":21648:21656  nodeTier */\n      dup7\n        /* \"node.sol\":21637:21657  totalNodes[nodeTier] */\n      dup2\n      mstore\n      0x20\n      add\n      swap1\n      dup2\n      mstore\n      0x20\n      add\n      0x00\n      keccak256\n        /* \"node.sol\":21637:21694  totalNodes[nodeTier] = totalNodes[nodeTier].add(numNodes) */\n      dup2\n      swap1\n      sstore\n      pop\n        /* \"node.sol\":21712:21758  CreateNode(block.timestamp, _sender, numNodes) */\n      0xddc82401ab579d868e816af720a563cdf9f9d0350abb3fa3266bcf33dd4f48ab\n        /* \"node.sol\":21723:21738  block.timestamp */\n      timestamp\n        /* \"node.sol\":21740:21747  _sender */\n      dup4\n        /* \"node.sol\":21749:21757  numNodes */\n      dup6\n        /* \"node.sol\":21712:21758  CreateNode(block.timestamp, _sender, numNodes) */\n      mload(0x40)\n      tag_523\n      swap4\n      swap3\n      swap2\n      swap1\n      tag_524\n      jump\t// in\n    tag_523:\n      mload(0x40)\n      dup1\n      swap2\n      sub\n      swap1\n      log1\n        /* \"node.sol\":20321:21766  function create(uint256 nodeTier, uint256 numNodes) external {\r... */\n      pop\n      pop\n      pop\n      pop\n      jump\t// out\n        /* \"node.sol\":15587:15624  mapping(address => User) public users */\n    tag_242:\n      mstore(0x20, 0x03)\n      dup1\n      0x00\n      mstore\n      keccak256(0x00, 0x40)\n      0x00\n      swap2\n      pop\n      swap1\n      pop\n      dup1\n      0x00\n      add\n      sload\n      swap1\n      dup1\n      0x01\n      add\n      sload\n      swap1\n      dup1\n      0x02\n      add\n      sload\n      swap1\n      pop\n      dup4\n      jump\t// out\n        /* \"node.sol\":15894:15925  uint256 public treasury_rewards */\n    tag_247:\n      sload(0x0a)\n      dup2\n      jump\t// out\n        /* \"node.sol\":15631:15691  mapping(address => mapping(uint256 => uint256)) public nodes */\n    tag_253:\n      mstore(0x20, 0x04)\n      dup2\n      0x00\n      mstore\n      mstore(0x20, keccak256(0x00, 0x40))\n      dup1\n      0x00\n      mstore\n      keccak256(0x00, 0x40)\n      0x00\n      swap2\n      pop\n      swap2\n      pop\n      pop\n      sload\n      dup2\n      jump\t// out\n        /* \"node.sol\":26215:26348  function numNodes(address _sender, uint256 _nodeId) external view returns (uint256) {\r... */\n    tag_258:\n        /* \"node.sol\":26290:26297  uint256 */\n      0x00\n        /* \"node.sol\":26317:26322  nodes */\n      0x04\n        /* \"node.sol\":26317:26331  nodes[_sender] */\n      0x00\n        /* \"node.sol\":26323:26330  _sender */\n      dup5\n        /* \"node.sol\":26317:26331  nodes[_sender] */\n      0xffffffffffffffffffffffffffffffffffffffff\n      and\n      0xffffffffffffffffffffffffffffffffffffffff\n      and\n      dup2\n      mstore\n      0x20\n      add\n      swap1\n      dup2\n      mstore\n      0x20\n      add\n      0x00\n      keccak256\n        /* \"node.sol\":26317:26340  nodes[_sender][_nodeId] */\n      0x00\n        /* \"node.sol\":26332:26339  _nodeId */\n      dup4\n        /* \"node.sol\":26317:26340  nodes[_sender][_nodeId] */\n      dup2\n      mstore\n      0x20\n      add\n      swap1\n      dup2\n      mstore\n      0x20\n      add\n      0x00\n      keccak256\n      sload\n        /* \"node.sol\":26310:26340  return nodes[_sender][_nodeId] */\n      swap1\n      pop\n        /* \"node.sol\":26215:26348  function numNodes(address _sender, uint256 _nodeId) external view returns (uint256) {\r... */\n      swap3\n      swap2\n      pop\n      pop\n      jump\t// out\n        /* \"node.sol\":16016:16052  uint256 public totalDistributePoints */\n    tag_262:\n      sload(0x0d)\n      dup2\n      jump\t// out\n        /* \"node.sol\":16097:16120  uint256 public dripRate */\n    tag_266:\n      sload(0x0f)\n      dup2\n      jump\t// out\n        /* \"node.sol\":15787:15817  uint256 public total_deposited */\n    tag_270:\n      sload(0x07)\n      dup2\n      jump\t// out\n        /* \"node.sol\":24406:24558  function maxPayout(address _sender) public view returns (uint256) {\r... */\n    tag_275:\n        /* \"node.sol\":24463:24470  uint256 */\n      0x00\n        /* \"node.sol\":24490:24550  users[_sender].total_deposits.mul(maxReturnPercent).div(100) */\n      tag_527\n        /* \"node.sol\":24546:24549  100 */\n      0x64\n        /* \"node.sol\":24490:24541  users[_sender].total_deposits.mul(maxReturnPercent) */\n      tag_528\n        /* \"node.sol\":24524:24540  maxReturnPercent */\n      sload(0x0e)\n        /* \"node.sol\":24490:24495  users */\n      0x03\n        /* \"node.sol\":24490:24504  users[_sender] */\n      0x00\n        /* \"node.sol\":24496:24503  _sender */\n      dup8\n        /* \"node.sol\":24490:24504  users[_sender] */\n      0xffffffffffffffffffffffffffffffffffffffff\n      and\n      0xffffffffffffffffffffffffffffffffffffffff\n      and\n      dup2\n      mstore\n      0x20\n      add\n      swap1\n      dup2\n      mstore\n      0x20\n      add\n      0x00\n      keccak256\n        /* \"node.sol\":24490:24519  users[_sender].total_deposits */\n      0x00\n      add\n      sload\n        /* \"node.sol\":24490:24523  users[_sender].total_deposits.mul */\n      tag_317\n      swap1\n        /* \"node.sol\":24490:24541  users[_sender].total_deposits.mul(maxReturnPercent) */\n      swap2\n      swap1\n      0xffffffff\n      and\n      jump\t// in\n    tag_528:\n        /* \"node.sol\":24490:24545  users[_sender].total_deposits.mul(maxReturnPercent).div */\n      tag_339\n      swap1\n        /* \"node.sol\":24490:24550  users[_sender].total_deposits.mul(maxReturnPercent).div(100) */\n      swap2\n      swap1\n      0xffffffff\n      and\n      jump\t// in\n    tag_527:\n        /* \"node.sol\":24483:24550  return users[_sender].total_deposits.mul(maxReturnPercent).div(100) */\n      swap1\n      pop\n        /* \"node.sol\":24406:24558  function maxPayout(address _sender) public view returns (uint256) {\r... */\n      swap2\n      swap1\n      pop\n      jump\t// out\n        /* \"node.sol\":26108:26207  function total_users() external view returns (uint256) {\r... */\n    tag_279:\n        /* \"node.sol\":26154:26161  uint256 */\n      0x00\n        /* \"node.sol\":26181:26192  userIndices */\n      0x06\n        /* \"node.sol\":26181:26199  userIndices.length */\n      dup1\n      sload\n      swap1\n      pop\n        /* \"node.sol\":26174:26199  return userIndices.length */\n      swap1\n      pop\n        /* \"node.sol\":26108:26207  function total_users() external view returns (uint256) {\r... */\n      swap1\n      jump\t// out\n        /* \"node.sol\":15972:16009  uint256 public totalDistributeRewards */\n    tag_283:\n      sload(0x0c)\n      dup2\n      jump\t// out\n        /* \"node.sol\":24105:24396  function compound() public {\r... */\n    tag_287:\n        /* \"node.sol\":24141:24163  uint256 rewardsPending */\n      0x00\n        /* \"node.sol\":24166:24193  getTotalRewards(msg.sender) */\n      tag_531\n        /* \"node.sol\":24182:24192  msg.sender */\n      caller\n        /* \"node.sol\":24166:24181  getTotalRewards */\n      tag_131\n        /* \"node.sol\":24166:24193  getTotalRewards(msg.sender) */\n      jump\t// in\n    tag_531:\n        /* \"node.sol\":24141:24193  uint256 rewardsPending = getTotalRewards(msg.sender) */\n      swap1\n      pop\n        /* \"node.sol\":24230:24241  tierAmounts */\n      0x01\n        /* \"node.sol\":24242:24243  0 */\n      0x00\n        /* \"node.sol\":24230:24244  tierAmounts[0] */\n      dup2\n      sload\n      dup2\n      lt\n      tag_532\n      jumpi\n      invalid\n    tag_532:\n      swap1\n      0x00\n      mstore\n      keccak256(0x00, 0x20)\n      add\n      sload\n        /* \"node.sol\":24212:24226  rewardsPending */\n      dup2\n        /* \"node.sol\":24212:24244  rewardsPending >= tierAmounts[0] */\n      lt\n      iszero\n        /* \"node.sol\":24204:24271  require(rewardsPending >= tierAmounts[0], \"Not enough to compound\") */\n      tag_534\n      jumpi\n      mload(0x40)\n      0x08c379a000000000000000000000000000000000000000000000000000000000\n      dup2\n      mstore\n      0x04\n      add\n      tag_535\n      swap1\n      tag_536\n      jump\t// in\n    tag_535:\n      mload(0x40)\n      dup1\n      swap2\n      sub\n      swap1\n      revert\n    tag_534:\n        /* \"node.sol\":24282:24301  uint256 numPossible */\n      0x00\n        /* \"node.sol\":24304:24338  rewardsPending.div(tierAmounts[0]) */\n      tag_537\n        /* \"node.sol\":24323:24334  tierAmounts */\n      0x01\n        /* \"node.sol\":24335:24336  0 */\n      0x00\n        /* \"node.sol\":24323:24337  tierAmounts[0] */\n      dup2\n      sload\n      dup2\n      lt\n      tag_538\n      jumpi\n      invalid\n    tag_538:\n      swap1\n      0x00\n      mstore\n      keccak256(0x00, 0x20)\n      add\n      sload\n        /* \"node.sol\":24304:24318  rewardsPending */\n      dup4\n        /* \"node.sol\":24304:24322  rewardsPending.div */\n      tag_339\n      swap1\n        /* \"node.sol\":24304:24338  rewardsPending.div(tierAmounts[0]) */\n      swap2\n      swap1\n      0xffffffff\n      and\n      jump\t// in\n    tag_537:\n        /* \"node.sol\":24282:24338  uint256 numPossible = rewardsPending.div(tierAmounts[0]) */\n      swap1\n      pop\n        /* \"node.sol\":24347:24354  claim() */\n      tag_540\n        /* \"node.sol\":24347:24352  claim */\n      tag_164\n        /* \"node.sol\":24347:24354  claim() */\n      jump\t// in\n    tag_540:\n        /* \"node.sol\":24363:24388  _compound(0, numPossible) */\n      tag_541\n        /* \"node.sol\":24373:24374  0 */\n      0x00\n        /* \"node.sol\":24376:24387  numPossible */\n      dup3\n        /* \"node.sol\":24363:24372  _compound */\n      tag_542\n        /* \"node.sol\":24363:24388  _compound(0, numPossible) */\n      jump\t// in\n    tag_541:\n        /* \"node.sol\":24105:24396  function compound() public {\r... */\n      pop\n      pop\n      jump\t// out\n        /* \"node.sol\":16127:16154  uint256 public lastDripTime */\n    tag_290:\n      sload(0x10)\n      dup2\n      jump\t// out\n        /* \"node.sol\":11706:11883  function safeTransfer(IERC20 token, address to, uint256 value) internal {\r... */\n    tag_295:\n        /* \"node.sol\":11789:11875  _callOptionalReturn(token, abi.encodeWithSelector(token.transfer.selector, to, value)) */\n      tag_544\n        /* \"node.sol\":11809:11814  token */\n      dup4\n        /* \"node.sol\":11839:11862  token.transfer.selector */\n      shl(0xe0, 0xa9059cbb)\n        /* \"node.sol\":11864:11866  to */\n      dup5\n        /* \"node.sol\":11868:11873  value */\n      dup5\n        /* \"node.sol\":11816:11874  abi.encodeWithSelector(token.transfer.selector, to, value) */\n      add(0x24, mload(0x40))\n      tag_545\n      swap3\n      swap2\n      swap1\n      tag_546\n      jump\t// in\n    tag_545:\n      mload(0x40)\n      0x20\n      dup2\n      dup4\n      sub\n      sub\n      dup2\n      mstore\n      swap1\n      0x40\n      mstore\n      swap1\n      not(0xffffffffffffffffffffffffffffffffffffffffffffffffffffffff)\n      and\n      0x20\n      dup3\n      add\n      dup1\n      mload\n      0xffffffffffffffffffffffffffffffffffffffffffffffffffffffff\n      dup4\n      dup2\n      dup4\n      and\n      or\n      dup4\n      mstore\n      pop\n      pop\n      pop\n      pop\n        /* \"node.sol\":11789:11808  _callOptionalReturn */\n      tag_547\n        /* \"node.sol\":11789:11875  _callOptionalReturn(token, abi.encodeWithSelector(token.transfer.selector, to, value)) */\n      jump\t// in\n    tag_544:\n        /* \"node.sol\":11706:11883  function safeTransfer(IERC20 token, address to, uint256 value) internal {\r... */\n      pop\n      pop\n      pop\n      jump\t// out\n        /* \"node.sol\":5170:5641  function mul(uint256 a, uint256 b) internal pure returns (uint256) {\r... */\n    tag_317:\n        /* \"node.sol\":5228:5235  uint256 */\n      0x00\n        /* \"node.sol\":5478:5479  0 */\n      dup1\n        /* \"node.sol\":5473:5474  a */\n      dup4\n        /* \"node.sol\":5473:5479  a == 0 */\n      eq\n        /* \"node.sol\":5469:5516  if (a == 0) {\r... */\n      iszero\n      tag_549\n      jumpi\n        /* \"node.sol\":5503:5504  0 */\n      0x00\n        /* \"node.sol\":5496:5504  return 0 */\n      swap1\n      pop\n      jump(tag_548)\n        /* \"node.sol\":5469:5516  if (a == 0) {\r... */\n    tag_549:\n        /* \"node.sol\":5528:5537  uint256 c */\n      0x00\n        /* \"node.sol\":5544:5545  b */\n      dup3\n        /* \"node.sol\":5540:5541  a */\n      dup5\n        /* \"node.sol\":5540:5545  a * b */\n      mul\n        /* \"node.sol\":5528:5545  uint256 c = a * b */\n      swap1\n      pop\n        /* \"node.sol\":5573:5574  b */\n      dup3\n        /* \"node.sol\":5568:5569  a */\n      dup5\n        /* \"node.sol\":5564:5565  c */\n      dup3\n        /* \"node.sol\":5564:5569  c / a */\n      dup2\n      tag_550\n      jumpi\n      invalid\n    tag_550:\n      div\n        /* \"node.sol\":5564:5574  c / a == b */\n      eq\n        /* \"node.sol\":5556:5612  require(c / a == b, \"SafeMath: multiplication overflow\") */\n      tag_551\n      jumpi\n      mload(0x40)\n      0x08c379a000000000000000000000000000000000000000000000000000000000\n      dup2\n      mstore\n      0x04\n      add\n      tag_552\n      swap1\n      tag_553\n      jump\t// in\n    tag_552:\n      mload(0x40)\n      dup1\n      swap2\n      sub\n      swap1\n      revert\n    tag_551:\n        /* \"node.sol\":5632:5633  c */\n      dup1\n        /* \"node.sol\":5625:5633  return c */\n      swap2\n      pop\n      pop\n        /* \"node.sol\":5170:5641  function mul(uint256 a, uint256 b) internal pure returns (uint256) {\r... */\n    tag_548:\n      swap3\n      swap2\n      pop\n      pop\n      jump\t// out\n        /* \"node.sol\":3840:4021  function add(uint256 a, uint256 b) internal pure returns (uint256) {\r... */\n    tag_318:\n        /* \"node.sol\":3898:3905  uint256 */\n      0x00\n        /* \"node.sol\":3918:3927  uint256 c */\n      dup1\n        /* \"node.sol\":3934:3935  b */\n      dup3\n        /* \"node.sol\":3930:3931  a */\n      dup5\n        /* \"node.sol\":3930:3935  a + b */\n      add\n        /* \"node.sol\":3918:3935  uint256 c = a + b */\n      swap1\n      pop\n        /* \"node.sol\":3959:3960  a */\n      dup4\n        /* \"node.sol\":3954:3955  c */\n      dup2\n        /* \"node.sol\":3954:3960  c >= a */\n      lt\n      iszero\n        /* \"node.sol\":3946:3992  require(c >= a, \"SafeMath: addition overflow\") */\n      tag_555\n      jumpi\n      mload(0x40)\n      0x08c379a000000000000000000000000000000000000000000000000000000000\n      dup2\n      mstore\n      0x04\n      add\n      tag_556\n      swap1\n      tag_557\n      jump\t// in\n    tag_556:\n      mload(0x40)\n      dup1\n      swap2\n      sub\n      swap1\n      revert\n    tag_555:\n        /* \"node.sol\":4012:4013  c */\n      dup1\n        /* \"node.sol\":4005:4013  return c */\n      swap2\n      pop\n      pop\n        /* \"node.sol\":3840:4021  function add(uint256 a, uint256 b) internal pure returns (uint256) {\r... */\n      swap3\n      swap2\n      pop\n      pop\n      jump\t// out\n        /* \"node.sol\":4296:4432  function sub(uint256 a, uint256 b) internal pure returns (uint256) {\r... */\n    tag_329:\n        /* \"node.sol\":4354:4361  uint256 */\n      0x00\n        /* \"node.sol\":4381:4424  sub(a, b, \"SafeMath: subtraction overflow\") */\n      tag_559\n        /* \"node.sol\":4385:4386  a */\n      dup4\n        /* \"node.sol\":4388:4389  b */\n      dup4\n        /* \"node.sol\":4381:4424  sub(a, b, \"SafeMath: subtraction overflow\") */\n      mload(0x40)\n      dup1\n      0x40\n      add\n      0x40\n      mstore\n      dup1\n      0x1e\n      dup2\n      mstore\n      0x20\n      add\n      0x536166654d6174683a207375627472616374696f6e206f766572666c6f770000\n      dup2\n      mstore\n      pop\n        /* \"node.sol\":4381:4384  sub */\n      tag_560\n        /* \"node.sol\":4381:4424  sub(a, b, \"SafeMath: subtraction overflow\") */\n      jump\t// in\n    tag_559:\n        /* \"node.sol\":4374:4424  return sub(a, b, \"SafeMath: subtraction overflow\") */\n      swap1\n      pop\n        /* \"node.sol\":4296:4432  function sub(uint256 a, uint256 b) internal pure returns (uint256) {\r... */\n      swap3\n      swap2\n      pop\n      pop\n      jump\t// out\n        /* \"node.sol\":6109:6241  function div(uint256 a, uint256 b) internal pure returns (uint256) {\r... */\n    tag_339:\n        /* \"node.sol\":6167:6174  uint256 */\n      0x00\n        /* \"node.sol\":6194:6233  div(a, b, \"SafeMath: division by zero\") */\n      tag_562\n        /* \"node.sol\":6198:6199  a */\n      dup4\n        /* \"node.sol\":6201:6202  b */\n      dup4\n        /* \"node.sol\":6194:6233  div(a, b, \"SafeMath: division by zero\") */\n      mload(0x40)\n      dup1\n      0x40\n      add\n      0x40\n      mstore\n      dup1\n      0x1a\n      dup2\n      mstore\n      0x20\n      add\n      0x536166654d6174683a206469766973696f6e206279207a65726f000000000000\n      dup2\n      mstore\n      pop\n        /* \"node.sol\":6194:6197  div */\n      tag_563\n        /* \"node.sol\":6194:6233  div(a, b, \"SafeMath: division by zero\") */\n      jump\t// in\n    tag_562:\n        /* \"node.sol\":6187:6233  return div(a, b, \"SafeMath: division by zero\") */\n      swap1\n      pop\n        /* \"node.sol\":6109:6241  function div(uint256 a, uint256 b) internal pure returns (uint256) {\r... */\n      swap3\n      swap2\n      pop\n      pop\n      jump\t// out\n        /* \"node.sol\":24714:25047  function _disperse(uint256 amount) internal {\r... */\n    tag_429:\n        /* \"node.sol\":24782:24783  0 */\n      0x00\n        /* \"node.sol\":24773:24779  amount */\n      dup2\n        /* \"node.sol\":24773:24783  amount > 0 */\n      gt\n        /* \"node.sol\":24769:25040  if (amount > 0 ) {\r... */\n      iszero\n      tag_565\n      jumpi\n        /* \"node.sol\":24825:24898  totalDistributePoints.add(amount.mul(MULTIPLIER).div(totalAllocPoints())) */\n      tag_566\n        /* \"node.sol\":24851:24897  amount.mul(MULTIPLIER).div(totalAllocPoints()) */\n      tag_567\n        /* \"node.sol\":24878:24896  totalAllocPoints() */\n      tag_568\n        /* \"node.sol\":24878:24894  totalAllocPoints */\n      tag_94\n        /* \"node.sol\":24878:24896  totalAllocPoints() */\n      jump\t// in\n    tag_568:\n        /* \"node.sol\":24851:24873  amount.mul(MULTIPLIER) */\n      tag_569\n        /* \"node.sol\":16255:16260  10e18 */\n      0x8ac7230489e80000\n        /* \"node.sol\":24851:24857  amount */\n      dup6\n        /* \"node.sol\":24851:24861  amount.mul */\n      tag_317\n      swap1\n        /* \"node.sol\":24851:24873  amount.mul(MULTIPLIER) */\n      swap2\n      swap1\n      0xffffffff\n      and\n      jump\t// in\n    tag_569:\n        /* \"node.sol\":24851:24877  amount.mul(MULTIPLIER).div */\n      tag_339\n      swap1\n        /* \"node.sol\":24851:24897  amount.mul(MULTIPLIER).div(totalAllocPoints()) */\n      swap2\n      swap1\n      0xffffffff\n      and\n      jump\t// in\n    tag_567:\n        /* \"node.sol\":24825:24846  totalDistributePoints */\n      sload(0x0d)\n        /* \"node.sol\":24825:24850  totalDistributePoints.add */\n      tag_318\n      swap1\n        /* \"node.sol\":24825:24898  totalDistributePoints.add(amount.mul(MULTIPLIER).div(totalAllocPoints())) */\n      swap2\n      swap1\n      0xffffffff\n      and\n      jump\t// in\n    tag_566:\n        /* \"node.sol\":24801:24822  totalDistributePoints */\n      0x0d\n        /* \"node.sol\":24801:24898  totalDistributePoints = totalDistributePoints.add(amount.mul(MULTIPLIER).div(totalAllocPoints())) */\n      dup2\n      swap1\n      sstore\n      pop\n        /* \"node.sol\":24938:24972  totalDistributeRewards.add(amount) */\n      tag_570\n        /* \"node.sol\":24965:24971  amount */\n      dup2\n        /* \"node.sol\":24938:24960  totalDistributeRewards */\n      sload(0x0c)\n        /* \"node.sol\":24938:24964  totalDistributeRewards.add */\n      tag_318\n      swap1\n        /* \"node.sol\":24938:24972  totalDistributeRewards.add(amount) */\n      swap2\n      swap1\n      0xffffffff\n      and\n      jump\t// in\n    tag_570:\n        /* \"node.sol\":24913:24935  totalDistributeRewards */\n      0x0c\n        /* \"node.sol\":24913:24972  totalDistributeRewards = totalDistributeRewards.add(amount) */\n      dup2\n      swap1\n      sstore\n      pop\n        /* \"node.sol\":25003:25028  total_rewards.add(amount) */\n      tag_571\n        /* \"node.sol\":25021:25027  amount */\n      dup2\n        /* \"node.sol\":25003:25016  total_rewards */\n      sload(0x09)\n        /* \"node.sol\":25003:25020  total_rewards.add */\n      tag_318\n      swap1\n        /* \"node.sol\":25003:25028  total_rewards.add(amount) */\n      swap2\n      swap1\n      0xffffffff\n      and\n      jump\t// in\n    tag_571:\n        /* \"node.sol\":24987:25000  total_rewards */\n      0x09\n        /* \"node.sol\":24987:25028  total_rewards = total_rewards.add(amount) */\n      dup2\n      swap1\n      sstore\n      pop\n        /* \"node.sol\":24769:25040  if (amount > 0 ) {\r... */\n    tag_565:\n        /* \"node.sol\":24714:25047  function _disperse(uint256 amount) internal {\r... */\n      pop\n      jump\t// out\n        /* \"node.sol\":11891:12096  function safeTransferFrom(IERC20 token, address from, address to, uint256 value) internal {\r... */\n    tag_515:\n        /* \"node.sol\":11992:12088  _callOptionalReturn(token, abi.encodeWithSelector(token.transferFrom.selector, from, to, value)) */\n      tag_573\n        /* \"node.sol\":12012:12017  token */\n      dup5\n        /* \"node.sol\":12042:12069  token.transferFrom.selector */\n      shl(0xe0, 0x23b872dd)\n        /* \"node.sol\":12071:12075  from */\n      dup6\n        /* \"node.sol\":12077:12079  to */\n      dup6\n        /* \"node.sol\":12081:12086  value */\n      dup6\n        /* \"node.sol\":12019:12087  abi.encodeWithSelector(token.transferFrom.selector, from, to, value) */\n      add(0x24, mload(0x40))\n      tag_574\n      swap4\n      swap3\n      swap2\n      swap1\n      tag_575\n      jump\t// in\n    tag_574:\n      mload(0x40)\n      0x20\n      dup2\n      dup4\n      sub\n      sub\n      dup2\n      mstore\n      swap1\n      0x40\n      mstore\n      swap1\n      not(0xffffffffffffffffffffffffffffffffffffffffffffffffffffffff)\n      and\n      0x20\n      dup3\n      add\n      dup1\n      mload\n      0xffffffffffffffffffffffffffffffffffffffffffffffffffffffff\n      dup4\n      dup2\n      dup4\n      and\n      or\n      dup4\n      mstore\n      pop\n      pop\n      pop\n      pop\n        /* \"node.sol\":11992:12011  _callOptionalReturn */\n      tag_547\n        /* \"node.sol\":11992:12088  _callOptionalReturn(token, abi.encodeWithSelector(token.transferFrom.selector, from, to, value)) */\n      jump\t// in\n    tag_573:\n        /* \"node.sol\":11891:12096  function safeTransferFrom(IERC20 token, address from, address to, uint256 value) internal {\r... */\n      pop\n      pop\n      pop\n      pop\n      jump\t// out\n        /* \"node.sol\":22649:24097  function _compound(uint256 nodeTier, uint256 numNodes) internal {\r... */\n    tag_542:\n        /* \"node.sol\":22724:22739  address _sender */\n      0x00\n        /* \"node.sol\":22742:22752  msg.sender */\n      caller\n        /* \"node.sol\":22724:22752  address _sender = msg.sender */\n      swap1\n      pop\n        /* \"node.sol\":22771:22778  enabled */\n      0x12\n      0x00\n      swap1\n      sload\n      swap1\n      0x0100\n      exp\n      swap1\n      div\n      0xff\n      and\n        /* \"node.sol\":22771:22810  enabled && block.timestamp >= startTime */\n      dup1\n      iszero\n      tag_577\n      jumpi\n      pop\n        /* \"node.sol\":22801:22810  startTime */\n      sload(0x11)\n        /* \"node.sol\":22782:22797  block.timestamp */\n      timestamp\n        /* \"node.sol\":22782:22810  block.timestamp >= startTime */\n      lt\n      iszero\n        /* \"node.sol\":22771:22810  enabled && block.timestamp >= startTime */\n    tag_577:\n        /* \"node.sol\":22763:22823  require(enabled && block.timestamp >= startTime, \"Disabled\") */\n      tag_578\n      jumpi\n      mload(0x40)\n      0x08c379a000000000000000000000000000000000000000000000000000000000\n      dup2\n      mstore\n      0x04\n      add\n      tag_579\n      swap1\n      tag_484\n      jump\t// in\n    tag_579:\n      mload(0x40)\n      dup1\n      swap2\n      sub\n      swap1\n      revert\n    tag_578:\n        /* \"node.sol\":22853:22868  tierAllocPoints */\n      0x00\n        /* \"node.sol\":22853:22875  tierAllocPoints.length */\n      dup1\n      sload\n      swap1\n      pop\n        /* \"node.sol\":22842:22850  nodeTier */\n      dup4\n        /* \"node.sol\":22842:22875  nodeTier < tierAllocPoints.length */\n      lt\n        /* \"node.sol\":22842:22908  nodeTier < tierAllocPoints.length && nodeTier < tierAmounts.length */\n      dup1\n      iszero\n      tag_580\n      jumpi\n      pop\n        /* \"node.sol\":22890:22901  tierAmounts */\n      0x01\n        /* \"node.sol\":22890:22908  tierAmounts.length */\n      dup1\n      sload\n      swap1\n      pop\n        /* \"node.sol\":22879:22887  nodeTier */\n      dup4\n        /* \"node.sol\":22879:22908  nodeTier < tierAmounts.length */\n      lt\n        /* \"node.sol\":22842:22908  nodeTier < tierAllocPoints.length && nodeTier < tierAmounts.length */\n    tag_580:\n        /* \"node.sol\":22834:22929  require(nodeTier < tierAllocPoints.length && nodeTier < tierAmounts.length, \"Invalid nodeTier\") */\n      tag_581\n      jumpi\n      mload(0x40)\n      0x08c379a000000000000000000000000000000000000000000000000000000000\n      dup2\n      mstore\n      0x04\n      add\n      tag_582\n      swap1\n      tag_488\n      jump\t// in\n    tag_582:\n      mload(0x40)\n      dup1\n      swap2\n      sub\n      swap1\n      revert\n    tag_581:\n        /* \"node.sol\":22979:22980  0 */\n      0x00\n        /* \"node.sol\":22946:22951  users */\n      0x03\n        /* \"node.sol\":22946:22960  users[_sender] */\n      0x00\n        /* \"node.sol\":22952:22959  _sender */\n      dup4\n        /* \"node.sol\":22946:22960  users[_sender] */\n      0xffffffffffffffffffffffffffffffffffffffff\n      and\n      0xffffffffffffffffffffffffffffffffffffffff\n      and\n      dup2\n      mstore\n      0x20\n      add\n      swap1\n      dup2\n      mstore\n      0x20\n      add\n      0x00\n      keccak256\n        /* \"node.sol\":22946:22975  users[_sender].total_deposits */\n      0x00\n      add\n      sload\n        /* \"node.sol\":22946:22980  users[_sender].total_deposits == 0 */\n      eq\n        /* \"node.sol\":22942:23115  if (users[_sender].total_deposits == 0) {\r... */\n      iszero\n      tag_583\n      jumpi\n        /* \"node.sol\":22997:23008  userIndices */\n      0x06\n        /* \"node.sol\":23014:23021  _sender */\n      dup2\n        /* \"node.sol\":22997:23022  userIndices.push(_sender) */\n      swap1\n      dup1\n      0x01\n      dup2\n      sload\n      add\n      dup1\n      dup3\n      sstore\n      dup1\n      swap2\n      pop\n      pop\n      0x01\n      swap1\n      sub\n      swap1\n      0x00\n      mstore\n      keccak256(0x00, 0x20)\n      add\n      0x00\n      swap1\n      swap2\n      swap1\n      swap2\n      swap1\n      swap2\n      0x0100\n      exp\n      dup2\n      sload\n      dup2\n      0xffffffffffffffffffffffffffffffffffffffff\n      mul\n      not\n      and\n      swap1\n      dup4\n      0xffffffffffffffffffffffffffffffffffffffff\n      and\n      mul\n      or\n      swap1\n      sstore\n      pop\n        /* \"node.sol\":23082:23103  totalDistributePoints */\n      sload(0x0d)\n        /* \"node.sol\":23049:23054  users */\n      0x03\n        /* \"node.sol\":23049:23063  users[_sender] */\n      0x00\n        /* \"node.sol\":23055:23062  _sender */\n      dup4\n        /* \"node.sol\":23049:23063  users[_sender] */\n      0xffffffffffffffffffffffffffffffffffffffff\n      and\n      0xffffffffffffffffffffffffffffffffffffffff\n      and\n      dup2\n      mstore\n      0x20\n      add\n      swap1\n      dup2\n      mstore\n      0x20\n      add\n      0x00\n      keccak256\n        /* \"node.sol\":23049:23079  users[_sender].last_distPoints */\n      0x02\n      add\n        /* \"node.sol\":23049:23103  users[_sender].last_distPoints = totalDistributePoints */\n      dup2\n      swap1\n      sstore\n      pop\n        /* \"node.sol\":22942:23115  if (users[_sender].total_deposits == 0) {\r... */\n    tag_583:\n        /* \"node.sol\":23163:23164  0 */\n      0x00\n        /* \"node.sol\":23130:23135  users */\n      0x03\n        /* \"node.sol\":23130:23144  users[_sender] */\n      0x00\n        /* \"node.sol\":23136:23143  _sender */\n      dup4\n        /* \"node.sol\":23130:23144  users[_sender] */\n      0xffffffffffffffffffffffffffffffffffffffff\n      and\n      0xffffffffffffffffffffffffffffffffffffffff\n      and\n      dup2\n      mstore\n      0x20\n      add\n      swap1\n      dup2\n      mstore\n      0x20\n      add\n      0x00\n      keccak256\n        /* \"node.sol\":23130:23159  users[_sender].total_deposits */\n      0x00\n      add\n      sload\n        /* \"node.sol\":23130:23164  users[_sender].total_deposits != 0 */\n      eq\n      iszero\n        /* \"node.sol\":23130:23188  users[_sender].total_deposits != 0 && isMaxPayout(_sender) */\n      dup1\n      iszero\n      tag_585\n      jumpi\n      pop\n        /* \"node.sol\":23168:23188  isMaxPayout(_sender) */\n      tag_586\n        /* \"node.sol\":23180:23187  _sender */\n      dup2\n        /* \"node.sol\":23168:23179  isMaxPayout */\n      tag_150\n        /* \"node.sol\":23168:23188  isMaxPayout(_sender) */\n      jump\t// in\n    tag_586:\n        /* \"node.sol\":23130:23188  users[_sender].total_deposits != 0 && isMaxPayout(_sender) */\n    tag_585:\n        /* \"node.sol\":23126:23271  if (users[_sender].total_deposits != 0 && isMaxPayout(_sender)) {\r... */\n      iszero\n      tag_587\n      jumpi\n        /* \"node.sol\":23238:23259  totalDistributePoints */\n      sload(0x0d)\n        /* \"node.sol\":23205:23210  users */\n      0x03\n        /* \"node.sol\":23205:23219  users[_sender] */\n      0x00\n        /* \"node.sol\":23211:23218  _sender */\n      dup4\n        /* \"node.sol\":23205:23219  users[_sender] */\n      0xffffffffffffffffffffffffffffffffffffffff\n      and\n      0xffffffffffffffffffffffffffffffffffffffff\n      and\n      dup2\n      mstore\n      0x20\n      add\n      swap1\n      dup2\n      mstore\n      0x20\n      add\n      0x00\n      keccak256\n        /* \"node.sol\":23205:23235  users[_sender].last_distPoints */\n      0x02\n      add\n        /* \"node.sol\":23205:23259  users[_sender].last_distPoints = totalDistributePoints */\n      dup2\n      swap1\n      sstore\n      pop\n        /* \"node.sol\":23126:23271  if (users[_sender].total_deposits != 0 && isMaxPayout(_sender)) {\r... */\n    tag_587:\n        /* \"node.sol\":23283:23300  uint256 tierPrice */\n      0x00\n        /* \"node.sol\":23303:23338  tierAmounts[nodeTier].mul(numNodes) */\n      tag_588\n        /* \"node.sol\":23329:23337  numNodes */\n      dup4\n        /* \"node.sol\":23303:23314  tierAmounts */\n      0x01\n        /* \"node.sol\":23315:23323  nodeTier */\n      dup7\n        /* \"node.sol\":23303:23324  tierAmounts[nodeTier] */\n      dup2\n      sload\n      dup2\n      lt\n      tag_589\n      jumpi\n      invalid\n    tag_589:\n      swap1\n      0x00\n      mstore\n      keccak256(0x00, 0x20)\n      add\n      sload\n        /* \"node.sol\":23303:23328  tierAmounts[nodeTier].mul */\n      tag_317\n      swap1\n        /* \"node.sol\":23303:23338  tierAmounts[nodeTier].mul(numNodes) */\n      swap2\n      swap1\n      0xffffffff\n      and\n      jump\t// in\n    tag_588:\n        /* \"node.sol\":23283:23338  uint256 tierPrice = tierAmounts[nodeTier].mul(numNodes) */\n      swap1\n      pop\n        /* \"node.sol\":23395:23404  tierPrice */\n      dup1\n        /* \"node.sol\":15112:15154  0xD9FF12172803c072a36785DeFea1Aa981A6A0C18 */\n      0xd9ff12172803c072a36785defea1aa981a6a0c18\n        /* \"node.sol\":23367:23382  TOKEN.balanceOf */\n      0xffffffffffffffffffffffffffffffffffffffff\n      and\n      0x70a08231\n        /* \"node.sol\":23383:23390  _sender */\n      dup5\n        /* \"node.sol\":23367:23391  TOKEN.balanceOf(_sender) */\n      mload(0x40)\n      dup3\n      0xffffffff\n      and\n      0xe0\n      shl\n      dup2\n      mstore\n      0x04\n      add\n      tag_591\n      swap2\n      swap1\n      tag_101\n      jump\t// in\n    tag_591:\n      0x20\n      mload(0x40)\n      dup1\n      dup4\n      sub\n      dup2\n      dup7\n      dup1\n      extcodesize\n      iszero\n      dup1\n      iszero\n      tag_592\n      jumpi\n      0x00\n      dup1\n      revert\n    tag_592:\n      pop\n      gas\n      staticcall\n      iszero\n      dup1\n      iszero\n      tag_594\n      jumpi\n      returndatasize\n      0x00\n      dup1\n      returndatacopy\n      revert(0x00, returndatasize)\n    tag_594:\n      pop\n      pop\n      pop\n      pop\n      mload(0x40)\n      returndatasize\n      not(0x1f)\n      0x1f\n      dup3\n      add\n      and\n      dup3\n      add\n      dup1\n      0x40\n      mstore\n      pop\n      dup2\n      add\n      swap1\n      tag_595\n      swap2\n      swap1\n      tag_303\n      jump\t// in\n    tag_595:\n        /* \"node.sol\":23367:23404  TOKEN.balanceOf(_sender) >= tierPrice */\n      lt\n      iszero\n        /* \"node.sol\":23359:23429  require(TOKEN.balanceOf(_sender) >= tierPrice, \"Insufficient balance\") */\n      tag_596\n      jumpi\n      mload(0x40)\n      0x08c379a000000000000000000000000000000000000000000000000000000000\n      dup2\n      mstore\n      0x04\n      add\n      tag_597\n      swap1\n      tag_504\n      jump\t// in\n    tag_597:\n      mload(0x40)\n      dup1\n      swap2\n      sub\n      swap1\n      revert\n    tag_596:\n        /* \"node.sol\":23491:23500  tierPrice */\n      dup1\n        /* \"node.sol\":15112:15154  0xD9FF12172803c072a36785DeFea1Aa981A6A0C18 */\n      0xd9ff12172803c072a36785defea1aa981a6a0c18\n        /* \"node.sol\":23448:23463  TOKEN.allowance */\n      0xffffffffffffffffffffffffffffffffffffffff\n      and\n      0xdd62ed3e\n        /* \"node.sol\":23464:23471  _sender */\n      dup5\n        /* \"node.sol\":23481:23485  this */\n      address\n        /* \"node.sol\":23448:23487  TOKEN.allowance(_sender, address(this)) */\n      mload(0x40)\n      dup4\n      0xffffffff\n      and\n      0xe0\n      shl\n      dup2\n      mstore\n      0x04\n      add\n      tag_598\n      swap3\n      swap2\n      swap1\n      tag_506\n      jump\t// in\n    tag_598:\n      0x20\n      mload(0x40)\n      dup1\n      dup4\n      sub\n      dup2\n      dup7\n      dup1\n      extcodesize\n      iszero\n      dup1\n      iszero\n      tag_599\n      jumpi\n      0x00\n      dup1\n      revert\n    tag_599:\n      pop\n      gas\n      staticcall\n      iszero\n      dup1\n      iszero\n      tag_601\n      jumpi\n      returndatasize\n      0x00\n      dup1\n      returndatacopy\n      revert(0x00, returndatasize)\n    tag_601:\n      pop\n      pop\n      pop\n      pop\n      mload(0x40)\n      returndatasize\n      not(0x1f)\n      0x1f\n      dup3\n      add\n      and\n      dup3\n      add\n      dup1\n      0x40\n      mstore\n      pop\n      dup2\n      add\n      swap1\n      tag_602\n      swap2\n      swap1\n      tag_303\n      jump\t// in\n    tag_602:\n        /* \"node.sol\":23448:23500  TOKEN.allowance(_sender, address(this)) >= tierPrice */\n      lt\n      iszero\n        /* \"node.sol\":23440:23527  require(TOKEN.allowance(_sender, address(this)) >= tierPrice, \"Insufficient allowance\") */\n      tag_603\n      jumpi\n      mload(0x40)\n      0x08c379a000000000000000000000000000000000000000000000000000000000\n      dup2\n      mstore\n      0x04\n      add\n      tag_604\n      swap1\n      tag_513\n      jump\t// in\n    tag_604:\n      mload(0x40)\n      dup1\n      swap2\n      sub\n      swap1\n      revert\n    tag_603:\n        /* \"node.sol\":23538:23595  TOKEN.safeTransferFrom(_sender, address(this), tierPrice) */\n      tag_605\n        /* \"node.sol\":23561:23568  _sender */\n      dup3\n        /* \"node.sol\":23578:23582  this */\n      address\n        /* \"node.sol\":23585:23594  tierPrice */\n      dup4\n        /* \"node.sol\":15112:15154  0xD9FF12172803c072a36785DeFea1Aa981A6A0C18 */\n      0xd9ff12172803c072a36785defea1aa981a6a0c18\n        /* \"node.sol\":23538:23560  TOKEN.safeTransferFrom */\n      0xffffffffffffffffffffffffffffffffffffffff\n      and\n      tag_515\n      swap1\n        /* \"node.sol\":23538:23595  TOKEN.safeTransferFrom(_sender, address(this), tierPrice) */\n      swap4\n      swap3\n      swap2\n      swap1\n      0xffffffff\n      and\n      jump\t// in\n    tag_605:\n        /* \"node.sol\":23640:23684  users[_sender].total_deposits.add(tierPrice) */\n      tag_606\n        /* \"node.sol\":23674:23683  tierPrice */\n      dup2\n        /* \"node.sol\":23640:23645  users */\n      0x03\n        /* \"node.sol\":23640:23654  users[_sender] */\n      0x00\n        /* \"node.sol\":23646:23653  _sender */\n      dup6\n        /* \"node.sol\":23640:23654  users[_sender] */\n      0xffffffffffffffffffffffffffffffffffffffff\n      and\n      0xffffffffffffffffffffffffffffffffffffffff\n      and\n      dup2\n      mstore\n      0x20\n      add\n      swap1\n      dup2\n      mstore\n      0x20\n      add\n      0x00\n      keccak256\n        /* \"node.sol\":23640:23669  users[_sender].total_deposits */\n      0x00\n      add\n      sload\n        /* \"node.sol\":23640:23673  users[_sender].total_deposits.add */\n      tag_318\n      swap1\n        /* \"node.sol\":23640:23684  users[_sender].total_deposits.add(tierPrice) */\n      swap2\n      swap1\n      0xffffffff\n      and\n      jump\t// in\n    tag_606:\n        /* \"node.sol\":23608:23613  users */\n      0x03\n        /* \"node.sol\":23608:23622  users[_sender] */\n      0x00\n        /* \"node.sol\":23614:23621  _sender */\n      dup5\n        /* \"node.sol\":23608:23622  users[_sender] */\n      0xffffffffffffffffffffffffffffffffffffffff\n      and\n      0xffffffffffffffffffffffffffffffffffffffff\n      and\n      dup2\n      mstore\n      0x20\n      add\n      swap1\n      dup2\n      mstore\n      0x20\n      add\n      0x00\n      keccak256\n        /* \"node.sol\":23608:23637  users[_sender].total_deposits */\n      0x00\n      add\n        /* \"node.sol\":23608:23684  users[_sender].total_deposits = users[_sender].total_deposits.add(tierPrice) */\n      dup2\n      swap1\n      sstore\n      pop\n        /* \"node.sol\":23723:23753  total_deposited.add(tierPrice) */\n      tag_607\n        /* \"node.sol\":23743:23752  tierPrice */\n      dup2\n        /* \"node.sol\":23723:23738  total_deposited */\n      sload(0x07)\n        /* \"node.sol\":23723:23742  total_deposited.add */\n      tag_318\n      swap1\n        /* \"node.sol\":23723:23753  total_deposited.add(tierPrice) */\n      swap2\n      swap1\n      0xffffffff\n      and\n      jump\t// in\n    tag_607:\n        /* \"node.sol\":23705:23720  total_deposited */\n      0x07\n        /* \"node.sol\":23705:23753  total_deposited = total_deposited.add(tierPrice) */\n      dup2\n      swap1\n      sstore\n      pop\n        /* \"node.sol\":23783:23871  treasury_rewards.add(\r... */\n      tag_608\n        /* \"node.sol\":23818:23860  tierPrice.mul(treasuryFeePercent).div(100) */\n      tag_609\n        /* \"node.sol\":23856:23859  100 */\n      0x64\n        /* \"node.sol\":23818:23851  tierPrice.mul(treasuryFeePercent) */\n      tag_610\n        /* \"node.sol\":23832:23850  treasuryFeePercent */\n      sload(0x0b)\n        /* \"node.sol\":23818:23827  tierPrice */\n      dup6\n        /* \"node.sol\":23818:23831  tierPrice.mul */\n      tag_317\n      swap1\n        /* \"node.sol\":23818:23851  tierPrice.mul(treasuryFeePercent) */\n      swap2\n      swap1\n      0xffffffff\n      and\n      jump\t// in\n    tag_610:\n        /* \"node.sol\":23818:23855  tierPrice.mul(treasuryFeePercent).div */\n      tag_339\n      swap1\n        /* \"node.sol\":23818:23860  tierPrice.mul(treasuryFeePercent).div(100) */\n      swap2\n      swap1\n      0xffffffff\n      and\n      jump\t// in\n    tag_609:\n        /* \"node.sol\":23783:23799  treasury_rewards */\n      sload(0x0a)\n        /* \"node.sol\":23783:23803  treasury_rewards.add */\n      tag_318\n      swap1\n        /* \"node.sol\":23783:23871  treasury_rewards.add(\r... */\n      swap2\n      swap1\n      0xffffffff\n      and\n      jump\t// in\n    tag_608:\n        /* \"node.sol\":23764:23780  treasury_rewards */\n      0x0a\n        /* \"node.sol\":23764:23871  treasury_rewards = treasury_rewards.add(\r... */\n      dup2\n      swap1\n      sstore\n      pop\n        /* \"node.sol\":23919:23957  nodes[_sender][nodeTier].add(numNodes) */\n      tag_611\n        /* \"node.sol\":23948:23956  numNodes */\n      dup4\n        /* \"node.sol\":23919:23924  nodes */\n      0x04\n        /* \"node.sol\":23919:23933  nodes[_sender] */\n      0x00\n        /* \"node.sol\":23925:23932  _sender */\n      dup6\n        /* \"node.sol\":23919:23933  nodes[_sender] */\n      0xffffffffffffffffffffffffffffffffffffffff\n      and\n      0xffffffffffffffffffffffffffffffffffffffff\n      and\n      dup2\n      mstore\n      0x20\n      add\n      swap1\n      dup2\n      mstore\n      0x20\n      add\n      0x00\n      keccak256\n        /* \"node.sol\":23919:23943  nodes[_sender][nodeTier] */\n      0x00\n        /* \"node.sol\":23934:23942  nodeTier */\n      dup8\n        /* \"node.sol\":23919:23943  nodes[_sender][nodeTier] */\n      dup2\n      mstore\n      0x20\n      add\n      swap1\n      dup2\n      mstore\n      0x20\n      add\n      0x00\n      keccak256\n      sload\n        /* \"node.sol\":23919:23947  nodes[_sender][nodeTier].add */\n      tag_318\n      swap1\n        /* \"node.sol\":23919:23957  nodes[_sender][nodeTier].add(numNodes) */\n      swap2\n      swap1\n      0xffffffff\n      and\n      jump\t// in\n    tag_611:\n        /* \"node.sol\":23892:23897  nodes */\n      0x04\n        /* \"node.sol\":23892:23906  nodes[_sender] */\n      0x00\n        /* \"node.sol\":23898:23905  _sender */\n      dup5\n        /* \"node.sol\":23892:23906  nodes[_sender] */\n      0xffffffffffffffffffffffffffffffffffffffff\n      and\n      0xffffffffffffffffffffffffffffffffffffffff\n      and\n      dup2\n      mstore\n      0x20\n      add\n      swap1\n      dup2\n      mstore\n      0x20\n      add\n      0x00\n      keccak256\n        /* \"node.sol\":23892:23916  nodes[_sender][nodeTier] */\n      0x00\n        /* \"node.sol\":23907:23915  nodeTier */\n      dup7\n        /* \"node.sol\":23892:23916  nodes[_sender][nodeTier] */\n      dup2\n      mstore\n      0x20\n      add\n      swap1\n      dup2\n      mstore\n      0x20\n      add\n      0x00\n      keccak256\n        /* \"node.sol\":23892:23957  nodes[_sender][nodeTier] = nodes[_sender][nodeTier].add(numNodes) */\n      dup2\n      swap1\n      sstore\n      pop\n        /* \"node.sol\":23991:24025  totalNodes[nodeTier].add(numNodes) */\n      tag_612\n        /* \"node.sol\":24016:24024  numNodes */\n      dup4\n        /* \"node.sol\":23991:24001  totalNodes */\n      0x05\n        /* \"node.sol\":23991:24011  totalNodes[nodeTier] */\n      0x00\n        /* \"node.sol\":24002:24010  nodeTier */\n      dup8\n        /* \"node.sol\":23991:24011  totalNodes[nodeTier] */\n      dup2\n      mstore\n      0x20\n      add\n      swap1\n      dup2\n      mstore\n      0x20\n      add\n      0x00\n      keccak256\n      sload\n        /* \"node.sol\":23991:24015  totalNodes[nodeTier].add */\n      tag_318\n      swap1\n        /* \"node.sol\":23991:24025  totalNodes[nodeTier].add(numNodes) */\n      swap2\n      swap1\n      0xffffffff\n      and\n      jump\t// in\n    tag_612:\n        /* \"node.sol\":23968:23978  totalNodes */\n      0x05\n        /* \"node.sol\":23968:23988  totalNodes[nodeTier] */\n      0x00\n        /* \"node.sol\":23979:23987  nodeTier */\n      dup7\n        /* \"node.sol\":23968:23988  totalNodes[nodeTier] */\n      dup2\n      mstore\n      0x20\n      add\n      swap1\n      dup2\n      mstore\n      0x20\n      add\n      0x00\n      keccak256\n        /* \"node.sol\":23968:24025  totalNodes[nodeTier] = totalNodes[nodeTier].add(numNodes) */\n      dup2\n      swap1\n      sstore\n      pop\n        /* \"node.sol\":24043:24089  CreateNode(block.timestamp, _sender, numNodes) */\n      0xddc82401ab579d868e816af720a563cdf9f9d0350abb3fa3266bcf33dd4f48ab\n        /* \"node.sol\":24054:24069  block.timestamp */\n      timestamp\n        /* \"node.sol\":24071:24078  _sender */\n      dup4\n        /* \"node.sol\":24080:24088  numNodes */\n      dup6\n        /* \"node.sol\":24043:24089  CreateNode(block.timestamp, _sender, numNodes) */\n      mload(0x40)\n      tag_613\n      swap4\n      swap3\n      swap2\n      swap1\n      tag_524\n      jump\t// in\n    tag_613:\n      mload(0x40)\n      dup1\n      swap2\n      sub\n      swap1\n      log1\n        /* \"node.sol\":22649:24097  function _compound(uint256 nodeTier, uint256 numNodes) internal {\r... */\n      pop\n      pop\n      pop\n      pop\n      jump\t// out\n        /* \"node.sol\":13750:14865  function _callOptionalReturn(IERC20 token, bytes memory data) private {\r... */\n    tag_547:\n        /* \"node.sol\":14355:14382  address(token).isContract() */\n      tag_615\n        /* \"node.sol\":14363:14368  token */\n      dup3\n        /* \"node.sol\":14355:14380  address(token).isContract */\n      0xffffffffffffffffffffffffffffffffffffffff\n      and\n      tag_616\n        /* \"node.sol\":14355:14382  address(token).isContract() */\n      jump\t// in\n    tag_615:\n        /* \"node.sol\":14347:14418  require(address(token).isContract(), \"SafeERC20: call to non-contract\") */\n      tag_617\n      jumpi\n      mload(0x40)\n      0x08c379a000000000000000000000000000000000000000000000000000000000\n      dup2\n      mstore\n      0x04\n      add\n      tag_618\n      swap1\n      tag_619\n      jump\t// in\n    tag_618:\n      mload(0x40)\n      dup1\n      swap2\n      sub\n      swap1\n      revert\n    tag_617:\n        /* \"node.sol\":14492:14504  bool success */\n      0x00\n        /* \"node.sol\":14506:14529  bytes memory returndata */\n      0x60\n        /* \"node.sol\":14541:14546  token */\n      dup4\n        /* \"node.sol\":14533:14552  address(token).call */\n      0xffffffffffffffffffffffffffffffffffffffff\n      and\n        /* \"node.sol\":14553:14557  data */\n      dup4\n        /* \"node.sol\":14533:14558  address(token).call(data) */\n      mload(0x40)\n      tag_620\n      swap2\n      swap1\n      tag_621\n      jump\t// in\n    tag_620:\n      0x00\n      mload(0x40)\n      dup1\n      dup4\n      sub\n      dup2\n      0x00\n      dup7\n      gas\n      call\n      swap2\n      pop\n      pop\n      returndatasize\n      dup1\n      0x00\n      dup2\n      eq\n      tag_624\n      jumpi\n      mload(0x40)\n      swap2\n      pop\n      and(add(returndatasize, 0x3f), not(0x1f))\n      dup3\n      add\n      0x40\n      mstore\n      returndatasize\n      dup3\n      mstore\n      returndatasize\n      0x00\n      0x20\n      dup5\n      add\n      returndatacopy\n      jump(tag_623)\n    tag_624:\n      0x60\n      swap2\n      pop\n    tag_623:\n      pop\n        /* \"node.sol\":14491:14558  (bool success, bytes memory returndata) = address(token).call(data) */\n      swap2\n      pop\n      swap2\n      pop\n        /* \"node.sol\":14577:14584  success */\n      dup2\n        /* \"node.sol\":14569:14621  require(success, \"SafeERC20: low-level call failed\") */\n      tag_625\n      jumpi\n      mload(0x40)\n      0x08c379a000000000000000000000000000000000000000000000000000000000\n      dup2\n      mstore\n      0x04\n      add\n      tag_626\n      swap1\n      tag_627\n      jump\t// in\n    tag_626:\n      mload(0x40)\n      dup1\n      swap2\n      sub\n      swap1\n      revert\n    tag_625:\n        /* \"node.sol\":14658:14659  0 */\n      0x00\n        /* \"node.sol\":14638:14648  returndata */\n      dup2\n        /* \"node.sol\":14638:14655  returndata.length */\n      mload\n        /* \"node.sol\":14638:14659  returndata.length > 0 */\n      gt\n        /* \"node.sol\":14634:14858  if (returndata.length > 0) { // Return data is optional\r... */\n      iszero\n      tag_628\n      jumpi\n        /* \"node.sol\":14780:14790  returndata */\n      dup1\n        /* \"node.sol\":14769:14799  abi.decode(returndata, (bool)) */\n      dup1\n      0x20\n      add\n      swap1\n      mload\n      dup2\n      add\n      swap1\n      tag_629\n      swap2\n      swap1\n      tag_630\n      jump\t// in\n    tag_629:\n        /* \"node.sol\":14761:14846  require(abi.decode(returndata, (bool)), \"SafeERC20: ERC20 operation did not succeed\") */\n      tag_631\n      jumpi\n      mload(0x40)\n      0x08c379a000000000000000000000000000000000000000000000000000000000\n      dup2\n      mstore\n      0x04\n      add\n      tag_632\n      swap1\n      tag_633\n      jump\t// in\n    tag_632:\n      mload(0x40)\n      dup1\n      swap2\n      sub\n      swap1\n      revert\n    tag_631:\n        /* \"node.sol\":14634:14858  if (returndata.length > 0) { // Return data is optional\r... */\n    tag_628:\n        /* \"node.sol\":13750:14865  function _callOptionalReturn(IERC20 token, bytes memory data) private {\r... */\n      pop\n      pop\n      pop\n      pop\n      jump\t// out\n        /* \"node.sol\":4727:4919  function sub(uint256 a, uint256 b, string memory errorMessage) internal pure returns (uint256) {\r... */\n    tag_560:\n        /* \"node.sol\":4813:4820  uint256 */\n      0x00\n        /* \"node.sol\":4846:4847  a */\n      dup4\n        /* \"node.sol\":4841:4842  b */\n      dup4\n        /* \"node.sol\":4841:4847  b <= a */\n      gt\n      iszero\n        /* \"node.sol\":4849:4861  errorMessage */\n      dup3\n        /* \"node.sol\":4833:4862  require(b <= a, errorMessage) */\n      swap1\n      tag_635\n      jumpi\n      mload(0x40)\n      0x08c379a000000000000000000000000000000000000000000000000000000000\n      dup2\n      mstore\n      0x04\n      add\n      tag_636\n      swap2\n      swap1\n      tag_637\n      jump\t// in\n    tag_636:\n      mload(0x40)\n      dup1\n      swap2\n      sub\n      swap1\n      revert\n    tag_635:\n      pop\n        /* \"node.sol\":4873:4882  uint256 c */\n      0x00\n        /* \"node.sol\":4889:4890  b */\n      dup4\n        /* \"node.sol\":4885:4886  a */\n      dup6\n        /* \"node.sol\":4885:4890  a - b */\n      sub\n        /* \"node.sol\":4873:4890  uint256 c = a - b */\n      swap1\n      pop\n        /* \"node.sol\":4910:4911  c */\n      dup1\n        /* \"node.sol\":4903:4911  return c */\n      swap2\n      pop\n      pop\n        /* \"node.sol\":4727:4919  function sub(uint256 a, uint256 b, string memory errorMessage) internal pure returns (uint256) {\r... */\n      swap4\n      swap3\n      pop\n      pop\n      pop\n      jump\t// out\n        /* \"node.sol\":6729:7074  function div(uint256 a, uint256 b, string memory errorMessage) internal pure returns (uint256) {\r... */\n    tag_563:\n        /* \"node.sol\":6815:6822  uint256 */\n      0x00\n        /* \"node.sol\":6914:6915  0 */\n      dup1\n        /* \"node.sol\":6910:6911  b */\n      dup4\n        /* \"node.sol\":6910:6915  b > 0 */\n      gt\n        /* \"node.sol\":6917:6929  errorMessage */\n      dup3\n        /* \"node.sol\":6902:6930  require(b > 0, errorMessage) */\n      swap1\n      tag_639\n      jumpi\n      mload(0x40)\n      0x08c379a000000000000000000000000000000000000000000000000000000000\n      dup2\n      mstore\n      0x04\n      add\n      tag_640\n      swap2\n      swap1\n      tag_637\n      jump\t// in\n    tag_640:\n      mload(0x40)\n      dup1\n      swap2\n      sub\n      swap1\n      revert\n    tag_639:\n      pop\n        /* \"node.sol\":6941:6950  uint256 c */\n      0x00\n        /* \"node.sol\":6957:6958  b */\n      dup4\n        /* \"node.sol\":6953:6954  a */\n      dup6\n        /* \"node.sol\":6953:6958  a / b */\n      dup2\n      tag_641\n      jumpi\n      invalid\n    tag_641:\n      div\n        /* \"node.sol\":6941:6958  uint256 c = a / b */\n      swap1\n      pop\n        /* \"node.sol\":7065:7066  c */\n      dup1\n        /* \"node.sol\":7058:7066  return c */\n      swap2\n      pop\n      pop\n        /* \"node.sol\":6729:7074  function div(uint256 a, uint256 b, string memory errorMessage) internal pure returns (uint256) {\r... */\n      swap4\n      swap3\n      pop\n      pop\n      pop\n      jump\t// out\n        /* \"node.sol\":9085:9704  function isContract(address account) internal view returns (bool) {\r... */\n    tag_616:\n        /* \"node.sol\":9145:9149  bool */\n      0x00\n        /* \"node.sol\":9407:9423  bytes32 codehash */\n      dup1\n        /* \"node.sol\":9434:9453  bytes32 accountHash */\n      0x00\n        /* \"node.sol\":9456:9522  0xc5d2460186f7233c927e7db2dcc703c0e500b653ca82273b7bfad8045d85a470 */\n      0xc5d2460186f7233c927e7db2dcc703c0e500b653ca82273b7bfad8045d85a470\n        /* \"node.sol\":9434:9522  bytes32 accountHash = 0xc5d2460186f7233c927e7db2dcc703c0e500b653ca82273b7bfad8045d85a470 */\n      0x00\n      shl\n      swap1\n      pop\n        /* \"node.sol\":9625:9632  account */\n      dup4\n        /* \"node.sol\":9613:9633  extcodehash(account) */\n      extcodehash\n        /* \"node.sol\":9601:9633  codehash := extcodehash(account) */\n      swap2\n      pop\n        /* \"node.sol\":9665:9676  accountHash */\n      dup1\n        /* \"node.sol\":9653:9661  codehash */\n      dup3\n        /* \"node.sol\":9653:9676  codehash != accountHash */\n      eq\n      iszero\n        /* \"node.sol\":9653:9695  codehash != accountHash && codehash != 0x0 */\n      dup1\n      iszero\n      tag_643\n      jumpi\n      pop\n        /* \"node.sol\":9692:9695  0x0 */\n      0x00\n        /* \"node.sol\":9680:9695  codehash != 0x0 */\n      dup1\n      shl\n        /* \"node.sol\":9680:9688  codehash */\n      dup3\n        /* \"node.sol\":9680:9695  codehash != 0x0 */\n      eq\n      iszero\n        /* \"node.sol\":9653:9695  codehash != accountHash && codehash != 0x0 */\n    tag_643:\n        /* \"node.sol\":9645:9696  return (codehash != accountHash && codehash != 0x0) */\n      swap3\n      pop\n      pop\n      pop\n        /* \"node.sol\":9085:9704  function isContract(address account) internal view returns (bool) {\r... */\n      swap2\n      swap1\n      pop\n      jump\t// out\n    tag_350:\n      dup3\n      dup1\n      sload\n      dup3\n      dup3\n      sstore\n      swap1\n      0x00\n      mstore\n      keccak256(0x00, 0x20)\n      swap1\n      dup2\n      add\n      swap3\n      dup3\n      iszero\n      tag_644\n      jumpi\n      swap2\n      0x20\n      mul\n      dup3\n      add\n    tag_645:\n      dup3\n      dup2\n      gt\n      iszero\n      tag_646\n      jumpi\n      dup3\n      mload\n      dup3\n      sstore\n      swap2\n      0x20\n      add\n      swap2\n      swap1\n      0x01\n      add\n      swap1\n      jump(tag_645)\n    tag_646:\n    tag_644:\n      pop\n      swap1\n      pop\n      tag_647\n      swap2\n      swap1\n      tag_648\n      jump\t// in\n    tag_647:\n      pop\n      swap1\n      jump\t// out\n    tag_648:\n    tag_649:\n      dup1\n      dup3\n      gt\n      iszero\n      tag_650\n      jumpi\n      0x00\n      dup2\n      0x00\n      swap1\n      sstore\n      pop\n      0x01\n      add\n      jump(tag_649)\n    tag_650:\n      pop\n      swap1\n      jump\t// out\n        /* \"--CODEGEN--\":5:135   */\n    tag_652:\n      0x00\n        /* \"--CODEGEN--\":85:91   */\n      dup2\n        /* \"--CODEGEN--\":72:92   */\n      calldataload\n        /* \"--CODEGEN--\":63:92   */\n      swap1\n      pop\n        /* \"--CODEGEN--\":97:130   */\n      tag_654\n        /* \"--CODEGEN--\":124:129   */\n      dup2\n        /* \"--CODEGEN--\":97:130   */\n      tag_655\n      jump\t// in\n    tag_654:\n        /* \"--CODEGEN--\":57:135   */\n      swap3\n      swap2\n      pop\n      pop\n      jump\t// out\n        /* \"--CODEGEN--\":142:288   */\n    tag_656:\n      0x00\n        /* \"--CODEGEN--\":230:236   */\n      dup2\n        /* \"--CODEGEN--\":217:237   */\n      calldataload\n        /* \"--CODEGEN--\":208:237   */\n      swap1\n      pop\n        /* \"--CODEGEN--\":242:283   */\n      tag_658\n        /* \"--CODEGEN--\":277:282   */\n      dup2\n        /* \"--CODEGEN--\":242:283   */\n      tag_659\n      jump\t// in\n    tag_658:\n        /* \"--CODEGEN--\":202:288   */\n      swap3\n      swap2\n      pop\n      pop\n      jump\t// out\n        /* \"--CODEGEN--\":313:1020   */\n    tag_660:\n      0x00\n        /* \"--CODEGEN--\":430:433   */\n      dup3\n        /* \"--CODEGEN--\":423:427   */\n      0x1f\n        /* \"--CODEGEN--\":415:421   */\n      dup4\n        /* \"--CODEGEN--\":411:428   */\n      add\n        /* \"--CODEGEN--\":407:434   */\n      slt\n        /* \"--CODEGEN--\":397:399   */\n      tag_662\n      jumpi\n        /* \"--CODEGEN--\":448:449   */\n      0x00\n        /* \"--CODEGEN--\":445:446   */\n      dup1\n        /* \"--CODEGEN--\":438:450   */\n      revert\n        /* \"--CODEGEN--\":397:399   */\n    tag_662:\n        /* \"--CODEGEN--\":485:491   */\n      dup2\n        /* \"--CODEGEN--\":472:492   */\n      calldataload\n        /* \"--CODEGEN--\":507:587   */\n      tag_663\n        /* \"--CODEGEN--\":522:586   */\n      tag_664\n        /* \"--CODEGEN--\":579:585   */\n      dup3\n        /* \"--CODEGEN--\":522:586   */\n      tag_665\n      jump\t// in\n    tag_664:\n        /* \"--CODEGEN--\":507:587   */\n      tag_666\n      jump\t// in\n    tag_663:\n        /* \"--CODEGEN--\":498:587   */\n      swap2\n      pop\n        /* \"--CODEGEN--\":604:609   */\n      dup2\n        /* \"--CODEGEN--\":629:635   */\n      dup2\n        /* \"--CODEGEN--\":622:627   */\n      dup4\n        /* \"--CODEGEN--\":615:636   */\n      mstore\n        /* \"--CODEGEN--\":659:663   */\n      0x20\n        /* \"--CODEGEN--\":651:657   */\n      dup5\n        /* \"--CODEGEN--\":647:664   */\n      add\n        /* \"--CODEGEN--\":637:664   */\n      swap4\n      pop\n        /* \"--CODEGEN--\":681:685   */\n      0x20\n        /* \"--CODEGEN--\":676:679   */\n      dup2\n        /* \"--CODEGEN--\":672:686   */\n      add\n        /* \"--CODEGEN--\":665:686   */\n      swap1\n      pop\n        /* \"--CODEGEN--\":734:740   */\n      dup4\n        /* \"--CODEGEN--\":781:784   */\n      dup6\n        /* \"--CODEGEN--\":773:777   */\n      0x20\n        /* \"--CODEGEN--\":765:771   */\n      dup5\n        /* \"--CODEGEN--\":761:778   */\n      mul\n        /* \"--CODEGEN--\":756:759   */\n      dup3\n        /* \"--CODEGEN--\":752:779   */\n      add\n        /* \"--CODEGEN--\":749:785   */\n      gt\n        /* \"--CODEGEN--\":746:748   */\n      iszero\n      tag_667\n      jumpi\n        /* \"--CODEGEN--\":798:799   */\n      0x00\n        /* \"--CODEGEN--\":795:796   */\n      dup1\n        /* \"--CODEGEN--\":788:800   */\n      revert\n        /* \"--CODEGEN--\":746:748   */\n    tag_667:\n        /* \"--CODEGEN--\":823:824   */\n      0x00\n        /* \"--CODEGEN--\":808:1014   */\n    tag_668:\n        /* \"--CODEGEN--\":833:839   */\n      dup4\n        /* \"--CODEGEN--\":830:831   */\n      dup2\n        /* \"--CODEGEN--\":827:840   */\n      lt\n        /* \"--CODEGEN--\":808:1014   */\n      iszero\n      tag_670\n      jumpi\n        /* \"--CODEGEN--\":891:894   */\n      dup2\n        /* \"--CODEGEN--\":913:950   */\n      tag_671\n        /* \"--CODEGEN--\":946:949   */\n      dup9\n        /* \"--CODEGEN--\":934:944   */\n      dup3\n        /* \"--CODEGEN--\":913:950   */\n      tag_672\n      jump\t// in\n    tag_671:\n        /* \"--CODEGEN--\":908:911   */\n      dup5\n        /* \"--CODEGEN--\":901:951   */\n      mstore\n        /* \"--CODEGEN--\":974:978   */\n      0x20\n        /* \"--CODEGEN--\":969:972   */\n      dup5\n        /* \"--CODEGEN--\":965:979   */\n      add\n        /* \"--CODEGEN--\":958:979   */\n      swap4\n      pop\n        /* \"--CODEGEN--\":1002:1006   */\n      0x20\n        /* \"--CODEGEN--\":997:1000   */\n      dup4\n        /* \"--CODEGEN--\":993:1007   */\n      add\n        /* \"--CODEGEN--\":986:1007   */\n      swap3\n      pop\n        /* \"--CODEGEN--\":865:1014   */\n      pop\n        /* \"--CODEGEN--\":855:856   */\n      0x01\n        /* \"--CODEGEN--\":852:853   */\n      dup2\n        /* \"--CODEGEN--\":848:857   */\n      add\n        /* \"--CODEGEN--\":843:857   */\n      swap1\n      pop\n        /* \"--CODEGEN--\":808:1014   */\n      jump(tag_668)\n    tag_670:\n        /* \"--CODEGEN--\":812:826   */\n      pop\n        /* \"--CODEGEN--\":390:1020   */\n      pop\n      pop\n      pop\n      swap3\n      swap2\n      pop\n      pop\n      jump\t// out\n        /* \"--CODEGEN--\":1028:1152   */\n    tag_673:\n      0x00\n        /* \"--CODEGEN--\":1105:1111   */\n      dup2\n        /* \"--CODEGEN--\":1092:1112   */\n      calldataload\n        /* \"--CODEGEN--\":1083:1112   */\n      swap1\n      pop\n        /* \"--CODEGEN--\":1117:1147   */\n      tag_675\n        /* \"--CODEGEN--\":1141:1146   */\n      dup2\n        /* \"--CODEGEN--\":1117:1147   */\n      tag_676\n      jump\t// in\n    tag_675:\n        /* \"--CODEGEN--\":1077:1152   */\n      swap3\n      swap2\n      pop\n      pop\n      jump\t// out\n        /* \"--CODEGEN--\":1159:1287   */\n    tag_677:\n      0x00\n        /* \"--CODEGEN--\":1240:1246   */\n      dup2\n        /* \"--CODEGEN--\":1234:1247   */\n      mload\n        /* \"--CODEGEN--\":1225:1247   */\n      swap1\n      pop\n        /* \"--CODEGEN--\":1252:1282   */\n      tag_679\n        /* \"--CODEGEN--\":1276:1281   */\n      dup2\n        /* \"--CODEGEN--\":1252:1282   */\n      tag_676\n      jump\t// in\n    tag_679:\n        /* \"--CODEGEN--\":1219:1287   */\n      swap3\n      swap2\n      pop\n      pop\n      jump\t// out\n        /* \"--CODEGEN--\":1294:1450   */\n    tag_680:\n      0x00\n        /* \"--CODEGEN--\":1387:1393   */\n      dup2\n        /* \"--CODEGEN--\":1374:1394   */\n      calldataload\n        /* \"--CODEGEN--\":1365:1394   */\n      swap1\n      pop\n        /* \"--CODEGEN--\":1399:1445   */\n      tag_682\n        /* \"--CODEGEN--\":1439:1444   */\n      dup2\n        /* \"--CODEGEN--\":1399:1445   */\n      tag_683\n      jump\t// in\n    tag_682:\n        /* \"--CODEGEN--\":1359:1450   */\n      swap3\n      swap2\n      pop\n      pop\n      jump\t// out\n        /* \"--CODEGEN--\":1480:2116   */\n    tag_684:\n      0x00\n        /* \"--CODEGEN--\":1590:1594   */\n      0x60\n        /* \"--CODEGEN--\":1578:1587   */\n      dup3\n        /* \"--CODEGEN--\":1573:1576   */\n      dup5\n        /* \"--CODEGEN--\":1569:1588   */\n      sub\n        /* \"--CODEGEN--\":1565:1595   */\n      slt\n        /* \"--CODEGEN--\":1562:1564   */\n      iszero\n      tag_686\n      jumpi\n        /* \"--CODEGEN--\":1608:1609   */\n      0x00\n        /* \"--CODEGEN--\":1605:1606   */\n      dup1\n        /* \"--CODEGEN--\":1598:1610   */\n      revert\n        /* \"--CODEGEN--\":1562:1564   */\n    tag_686:\n        /* \"--CODEGEN--\":1626:1646   */\n      tag_687\n        /* \"--CODEGEN--\":1641:1645   */\n      0x60\n        /* \"--CODEGEN--\":1626:1646   */\n      tag_666\n      jump\t// in\n    tag_687:\n        /* \"--CODEGEN--\":1617:1646   */\n      swap1\n      pop\n        /* \"--CODEGEN--\":1706:1707   */\n      0x00\n        /* \"--CODEGEN--\":1738:1787   */\n      tag_688\n        /* \"--CODEGEN--\":1783:1786   */\n      dup5\n        /* \"--CODEGEN--\":1774:1780   */\n      dup3\n        /* \"--CODEGEN--\":1763:1772   */\n      dup6\n        /* \"--CODEGEN--\":1759:1781   */\n      add\n        /* \"--CODEGEN--\":1738:1787   */\n      tag_672\n      jump\t// in\n    tag_688:\n        /* \"--CODEGEN--\":1731:1735   */\n      0x00\n        /* \"--CODEGEN--\":1724:1729   */\n      dup4\n        /* \"--CODEGEN--\":1720:1736   */\n      add\n        /* \"--CODEGEN--\":1713:1788   */\n      mstore\n        /* \"--CODEGEN--\":1656:1799   */\n      pop\n        /* \"--CODEGEN--\":1857:1859   */\n      0x20\n        /* \"--CODEGEN--\":1890:1939   */\n      tag_689\n        /* \"--CODEGEN--\":1935:1938   */\n      dup5\n        /* \"--CODEGEN--\":1926:1932   */\n      dup3\n        /* \"--CODEGEN--\":1915:1924   */\n      dup6\n        /* \"--CODEGEN--\":1911:1933   */\n      add\n        /* \"--CODEGEN--\":1890:1939   */\n      tag_672\n      jump\t// in\n    tag_689:\n        /* \"--CODEGEN--\":1883:1887   */\n      0x20\n        /* \"--CODEGEN--\":1876:1881   */\n      dup4\n        /* \"--CODEGEN--\":1872:1888   */\n      add\n        /* \"--CODEGEN--\":1865:1940   */\n      mstore\n        /* \"--CODEGEN--\":1809:1951   */\n      pop\n        /* \"--CODEGEN--\":2012:2014   */\n      0x40\n        /* \"--CODEGEN--\":2045:2094   */\n      tag_690\n        /* \"--CODEGEN--\":2090:2093   */\n      dup5\n        /* \"--CODEGEN--\":2081:2087   */\n      dup3\n        /* \"--CODEGEN--\":2070:2079   */\n      dup6\n        /* \"--CODEGEN--\":2066:2088   */\n      add\n        /* \"--CODEGEN--\":2045:2094   */\n      tag_672\n      jump\t// in\n    tag_690:\n        /* \"--CODEGEN--\":2038:2042   */\n      0x40\n        /* \"--CODEGEN--\":2031:2036   */\n      dup4\n        /* \"--CODEGEN--\":2027:2043   */\n      add\n        /* \"--CODEGEN--\":2020:2095   */\n      mstore\n        /* \"--CODEGEN--\":1961:2106   */\n      pop\n        /* \"--CODEGEN--\":1556:2116   */\n      swap3\n      swap2\n      pop\n      pop\n      jump\t// out\n        /* \"--CODEGEN--\":2123:2253   */\n    tag_672:\n      0x00\n        /* \"--CODEGEN--\":2203:2209   */\n      dup2\n        /* \"--CODEGEN--\":2190:2210   */\n      calldataload\n        /* \"--CODEGEN--\":2181:2210   */\n      swap1\n      pop\n        /* \"--CODEGEN--\":2215:2248   */\n      tag_692\n        /* \"--CODEGEN--\":2242:2247   */\n      dup2\n        /* \"--CODEGEN--\":2215:2248   */\n      tag_693\n      jump\t// in\n    tag_692:\n        /* \"--CODEGEN--\":2175:2253   */\n      swap3\n      swap2\n      pop\n      pop\n      jump\t// out\n        /* \"--CODEGEN--\":2260:2394   */\n    tag_694:\n      0x00\n        /* \"--CODEGEN--\":2344:2350   */\n      dup2\n        /* \"--CODEGEN--\":2338:2351   */\n      mload\n        /* \"--CODEGEN--\":2329:2351   */\n      swap1\n      pop\n        /* \"--CODEGEN--\":2356:2389   */\n      tag_696\n        /* \"--CODEGEN--\":2383:2388   */\n      dup2\n        /* \"--CODEGEN--\":2356:2389   */\n      tag_693\n      jump\t// in\n    tag_696:\n        /* \"--CODEGEN--\":2323:2394   */\n      swap3\n      swap2\n      pop\n      pop\n      jump\t// out\n        /* \"--CODEGEN--\":2401:2642   */\n    tag_120:\n      0x00\n        /* \"--CODEGEN--\":2505:2507   */\n      0x20\n        /* \"--CODEGEN--\":2493:2502   */\n      dup3\n        /* \"--CODEGEN--\":2484:2491   */\n      dup5\n        /* \"--CODEGEN--\":2480:2503   */\n      sub\n        /* \"--CODEGEN--\":2476:2508   */\n      slt\n        /* \"--CODEGEN--\":2473:2475   */\n      iszero\n      tag_698\n      jumpi\n        /* \"--CODEGEN--\":2521:2522   */\n      0x00\n        /* \"--CODEGEN--\":2518:2519   */\n      dup1\n        /* \"--CODEGEN--\":2511:2523   */\n      revert\n        /* \"--CODEGEN--\":2473:2475   */\n    tag_698:\n        /* \"--CODEGEN--\":2556:2557   */\n      0x00\n        /* \"--CODEGEN--\":2573:2626   */\n      tag_699\n        /* \"--CODEGEN--\":2618:2625   */\n      dup5\n        /* \"--CODEGEN--\":2609:2615   */\n      dup3\n        /* \"--CODEGEN--\":2598:2607   */\n      dup6\n        /* \"--CODEGEN--\":2594:2616   */\n      add\n        /* \"--CODEGEN--\":2573:2626   */\n      tag_652\n      jump\t// in\n    tag_699:\n        /* \"--CODEGEN--\":2563:2626   */\n      swap2\n      pop\n        /* \"--CODEGEN--\":2535:2632   */\n      pop\n        /* \"--CODEGEN--\":2467:2642   */\n      swap3\n      swap2\n      pop\n      pop\n      jump\t// out\n        /* \"--CODEGEN--\":2649:2906   */\n    tag_222:\n      0x00\n        /* \"--CODEGEN--\":2761:2763   */\n      0x20\n        /* \"--CODEGEN--\":2749:2758   */\n      dup3\n        /* \"--CODEGEN--\":2740:2747   */\n      dup5\n        /* \"--CODEGEN--\":2736:2759   */\n      sub\n        /* \"--CODEGEN--\":2732:2764   */\n      slt\n        /* \"--CODEGEN--\":2729:2731   */\n      iszero\n      tag_701\n      jumpi\n        /* \"--CODEGEN--\":2777:2778   */\n      0x00\n        /* \"--CODEGEN--\":2774:2775   */\n      dup1\n        /* \"--CODEGEN--\":2767:2779   */\n      revert\n        /* \"--CODEGEN--\":2729:2731   */\n    tag_701:\n        /* \"--CODEGEN--\":2812:2813   */\n      0x00\n        /* \"--CODEGEN--\":2829:2890   */\n      tag_702\n        /* \"--CODEGEN--\":2882:2889   */\n      dup5\n        /* \"--CODEGEN--\":2873:2879   */\n      dup3\n        /* \"--CODEGEN--\":2862:2871   */\n      dup6\n        /* \"--CODEGEN--\":2858:2880   */\n      add\n        /* \"--CODEGEN--\":2829:2890   */\n      tag_656\n      jump\t// in\n    tag_702:\n        /* \"--CODEGEN--\":2819:2890   */\n      swap2\n      pop\n        /* \"--CODEGEN--\":2791:2896   */\n      pop\n        /* \"--CODEGEN--\":2723:2906   */\n      swap3\n      swap2\n      pop\n      pop\n      jump\t// out\n        /* \"--CODEGEN--\":2913:3415   */\n    tag_168:\n      0x00\n      dup1\n        /* \"--CODEGEN--\":3059:3061   */\n      0x40\n        /* \"--CODEGEN--\":3047:3056   */\n      dup4\n        /* \"--CODEGEN--\":3038:3045   */\n      dup6\n        /* \"--CODEGEN--\":3034:3057   */\n      sub\n        /* \"--CODEGEN--\":3030:3062   */\n      slt\n        /* \"--CODEGEN--\":3027:3029   */\n      iszero\n      tag_704\n      jumpi\n        /* \"--CODEGEN--\":3075:3076   */\n      0x00\n        /* \"--CODEGEN--\":3072:3073   */\n      dup1\n        /* \"--CODEGEN--\":3065:3077   */\n      revert\n        /* \"--CODEGEN--\":3027:3029   */\n    tag_704:\n        /* \"--CODEGEN--\":3110:3111   */\n      0x00\n        /* \"--CODEGEN--\":3127:3180   */\n      tag_705\n        /* \"--CODEGEN--\":3172:3179   */\n      dup6\n        /* \"--CODEGEN--\":3163:3169   */\n      dup3\n        /* \"--CODEGEN--\":3152:3161   */\n      dup7\n        /* \"--CODEGEN--\":3148:3170   */\n      add\n        /* \"--CODEGEN--\":3127:3180   */\n      tag_652\n      jump\t// in\n    tag_705:\n        /* \"--CODEGEN--\":3117:3180   */\n      swap3\n      pop\n        /* \"--CODEGEN--\":3089:3186   */\n      pop\n        /* \"--CODEGEN--\":3245:3247   */\n      0x20\n        /* \"--CODEGEN--\":3234:3243   */\n      dup4\n        /* \"--CODEGEN--\":3230:3248   */\n      add\n        /* \"--CODEGEN--\":3217:3249   */\n      calldataload\n        /* \"--CODEGEN--\":3269:3287   */\n      0xffffffffffffffff\n        /* \"--CODEGEN--\":3261:3267   */\n      dup2\n        /* \"--CODEGEN--\":3258:3288   */\n      gt\n        /* \"--CODEGEN--\":3255:3257   */\n      iszero\n      tag_706\n      jumpi\n        /* \"--CODEGEN--\":3301:3302   */\n      0x00\n        /* \"--CODEGEN--\":3298:3299   */\n      dup1\n        /* \"--CODEGEN--\":3291:3303   */\n      revert\n        /* \"--CODEGEN--\":3255:3257   */\n    tag_706:\n        /* \"--CODEGEN--\":3321:3399   */\n      tag_707\n        /* \"--CODEGEN--\":3391:3398   */\n      dup6\n        /* \"--CODEGEN--\":3382:3388   */\n      dup3\n        /* \"--CODEGEN--\":3371:3380   */\n      dup7\n        /* \"--CODEGEN--\":3367:3389   */\n      add\n        /* \"--CODEGEN--\":3321:3399   */\n      tag_660\n      jump\t// in\n    tag_707:\n        /* \"--CODEGEN--\":3311:3399   */\n      swap2\n      pop\n        /* \"--CODEGEN--\":3196:3405   */\n      pop\n        /* \"--CODEGEN--\":3021:3415   */\n      swap3\n      pop\n      swap3\n      swap1\n      pop\n      jump\t// out\n        /* \"--CODEGEN--\":3422:3831   */\n    tag_115:\n      0x00\n      dup1\n        /* \"--CODEGEN--\":3564:3567   */\n      0x80\n        /* \"--CODEGEN--\":3552:3561   */\n      dup4\n        /* \"--CODEGEN--\":3543:3550   */\n      dup6\n        /* \"--CODEGEN--\":3539:3562   */\n      sub\n        /* \"--CODEGEN--\":3535:3568   */\n      slt\n        /* \"--CODEGEN--\":3532:3534   */\n      iszero\n      tag_709\n      jumpi\n        /* \"--CODEGEN--\":3581:3582   */\n      0x00\n        /* \"--CODEGEN--\":3578:3579   */\n      dup1\n        /* \"--CODEGEN--\":3571:3583   */\n      revert\n        /* \"--CODEGEN--\":3532:3534   */\n    tag_709:\n        /* \"--CODEGEN--\":3616:3617   */\n      0x00\n        /* \"--CODEGEN--\":3633:3686   */\n      tag_710\n        /* \"--CODEGEN--\":3678:3685   */\n      dup6\n        /* \"--CODEGEN--\":3669:3675   */\n      dup3\n        /* \"--CODEGEN--\":3658:3667   */\n      dup7\n        /* \"--CODEGEN--\":3654:3676   */\n      add\n        /* \"--CODEGEN--\":3633:3686   */\n      tag_652\n      jump\t// in\n    tag_710:\n        /* \"--CODEGEN--\":3623:3686   */\n      swap3\n      pop\n        /* \"--CODEGEN--\":3595:3692   */\n      pop\n        /* \"--CODEGEN--\":3723:3725   */\n      0x20\n        /* \"--CODEGEN--\":3741:3815   */\n      tag_711\n        /* \"--CODEGEN--\":3807:3814   */\n      dup6\n        /* \"--CODEGEN--\":3798:3804   */\n      dup3\n        /* \"--CODEGEN--\":3787:3796   */\n      dup7\n        /* \"--CODEGEN--\":3783:3805   */\n      add\n        /* \"--CODEGEN--\":3741:3815   */\n      tag_684\n      jump\t// in\n    tag_711:\n        /* \"--CODEGEN--\":3731:3815   */\n      swap2\n      pop\n        /* \"--CODEGEN--\":3702:3821   */\n      pop\n        /* \"--CODEGEN--\":3526:3831   */\n      swap3\n      pop\n      swap3\n      swap1\n      pop\n      jump\t// out\n        /* \"--CODEGEN--\":3838:4204   */\n    tag_252:\n      0x00\n      dup1\n        /* \"--CODEGEN--\":3959:3961   */\n      0x40\n        /* \"--CODEGEN--\":3947:3956   */\n      dup4\n        /* \"--CODEGEN--\":3938:3945   */\n      dup6\n        /* \"--CODEGEN--\":3934:3957   */\n      sub\n        /* \"--CODEGEN--\":3930:3962   */\n      slt\n        /* \"--CODEGEN--\":3927:3929   */\n      iszero\n      tag_713\n      jumpi\n        /* \"--CODEGEN--\":3975:3976   */\n      0x00\n        /* \"--CODEGEN--\":3972:3973   */\n      dup1\n        /* \"--CODEGEN--\":3965:3977   */\n      revert\n        /* \"--CODEGEN--\":3927:3929   */\n    tag_713:\n        /* \"--CODEGEN--\":4010:4011   */\n      0x00\n        /* \"--CODEGEN--\":4027:4080   */\n      tag_714\n        /* \"--CODEGEN--\":4072:4079   */\n      dup6\n        /* \"--CODEGEN--\":4063:4069   */\n      dup3\n        /* \"--CODEGEN--\":4052:4061   */\n      dup7\n        /* \"--CODEGEN--\":4048:4070   */\n      add\n        /* \"--CODEGEN--\":4027:4080   */\n      tag_652\n      jump\t// in\n    tag_714:\n        /* \"--CODEGEN--\":4017:4080   */\n      swap3\n      pop\n        /* \"--CODEGEN--\":3989:4086   */\n      pop\n        /* \"--CODEGEN--\":4117:4119   */\n      0x20\n        /* \"--CODEGEN--\":4135:4188   */\n      tag_715\n        /* \"--CODEGEN--\":4180:4187   */\n      dup6\n        /* \"--CODEGEN--\":4171:4177   */\n      dup3\n        /* \"--CODEGEN--\":4160:4169   */\n      dup7\n        /* \"--CODEGEN--\":4156:4178   */\n      add\n        /* \"--CODEGEN--\":4135:4188   */\n      tag_672\n      jump\t// in\n    tag_715:\n        /* \"--CODEGEN--\":4125:4188   */\n      swap2\n      pop\n        /* \"--CODEGEN--\":4096:4194   */\n      pop\n        /* \"--CODEGEN--\":3921:4204   */\n      swap3\n      pop\n      swap3\n      swap1\n      pop\n      jump\t// out\n        /* \"--CODEGEN--\":4211:4849   */\n    tag_126:\n      0x00\n      dup1\n        /* \"--CODEGEN--\":4382:4384   */\n      0x40\n        /* \"--CODEGEN--\":4370:4379   */\n      dup4\n        /* \"--CODEGEN--\":4361:4368   */\n      dup6\n        /* \"--CODEGEN--\":4357:4380   */\n      sub\n        /* \"--CODEGEN--\":4353:4385   */\n      slt\n        /* \"--CODEGEN--\":4350:4352   */\n      iszero\n      tag_717\n      jumpi\n        /* \"--CODEGEN--\":4398:4399   */\n      0x00\n        /* \"--CODEGEN--\":4395:4396   */\n      dup1\n        /* \"--CODEGEN--\":4388:4400   */\n      revert\n        /* \"--CODEGEN--\":4350:4352   */\n    tag_717:\n        /* \"--CODEGEN--\":4461:4462   */\n      0x00\n        /* \"--CODEGEN--\":4450:4459   */\n      dup4\n        /* \"--CODEGEN--\":4446:4463   */\n      add\n        /* \"--CODEGEN--\":4433:4464   */\n      calldataload\n        /* \"--CODEGEN--\":4484:4502   */\n      0xffffffffffffffff\n        /* \"--CODEGEN--\":4476:4482   */\n      dup2\n        /* \"--CODEGEN--\":4473:4503   */\n      gt\n        /* \"--CODEGEN--\":4470:4472   */\n      iszero\n      tag_718\n      jumpi\n        /* \"--CODEGEN--\":4516:4517   */\n      0x00\n        /* \"--CODEGEN--\":4513:4514   */\n      dup1\n        /* \"--CODEGEN--\":4506:4518   */\n      revert\n        /* \"--CODEGEN--\":4470:4472   */\n    tag_718:\n        /* \"--CODEGEN--\":4536:4614   */\n      tag_719\n        /* \"--CODEGEN--\":4606:4613   */\n      dup6\n        /* \"--CODEGEN--\":4597:4603   */\n      dup3\n        /* \"--CODEGEN--\":4586:4595   */\n      dup7\n        /* \"--CODEGEN--\":4582:4604   */\n      add\n        /* \"--CODEGEN--\":4536:4614   */\n      tag_660\n      jump\t// in\n    tag_719:\n        /* \"--CODEGEN--\":4526:4614   */\n      swap3\n      pop\n        /* \"--CODEGEN--\":4412:4620   */\n      pop\n        /* \"--CODEGEN--\":4679:4681   */\n      0x20\n        /* \"--CODEGEN--\":4668:4677   */\n      dup4\n        /* \"--CODEGEN--\":4664:4682   */\n      add\n        /* \"--CODEGEN--\":4651:4683   */\n      calldataload\n        /* \"--CODEGEN--\":4703:4721   */\n      0xffffffffffffffff\n        /* \"--CODEGEN--\":4695:4701   */\n      dup2\n        /* \"--CODEGEN--\":4692:4722   */\n      gt\n        /* \"--CODEGEN--\":4689:4691   */\n      iszero\n      tag_720\n      jumpi\n        /* \"--CODEGEN--\":4735:4736   */\n      0x00\n        /* \"--CODEGEN--\":4732:4733   */\n      dup1\n        /* \"--CODEGEN--\":4725:4737   */\n      revert\n        /* \"--CODEGEN--\":4689:4691   */\n    tag_720:\n        /* \"--CODEGEN--\":4755:4833   */\n      tag_721\n        /* \"--CODEGEN--\":4825:4832   */\n      dup6\n        /* \"--CODEGEN--\":4816:4822   */\n      dup3\n        /* \"--CODEGEN--\":4805:4814   */\n      dup7\n        /* \"--CODEGEN--\":4801:4823   */\n      add\n        /* \"--CODEGEN--\":4755:4833   */\n      tag_660\n      jump\t// in\n    tag_721:\n        /* \"--CODEGEN--\":4745:4833   */\n      swap2\n      pop\n        /* \"--CODEGEN--\":4630:4839   */\n      pop\n        /* \"--CODEGEN--\":4344:4849   */\n      swap3\n      pop\n      swap3\n      swap1\n      pop\n      jump\t// out\n        /* \"--CODEGEN--\":4856:5091   */\n    tag_136:\n      0x00\n        /* \"--CODEGEN--\":4957:4959   */\n      0x20\n        /* \"--CODEGEN--\":4945:4954   */\n      dup3\n        /* \"--CODEGEN--\":4936:4943   */\n      dup5\n        /* \"--CODEGEN--\":4932:4955   */\n      sub\n        /* \"--CODEGEN--\":4928:4960   */\n      slt\n        /* \"--CODEGEN--\":4925:4927   */\n      iszero\n      tag_723\n      jumpi\n        /* \"--CODEGEN--\":4973:4974   */\n      0x00\n        /* \"--CODEGEN--\":4970:4971   */\n      dup1\n        /* \"--CODEGEN--\":4963:4975   */\n      revert\n        /* \"--CODEGEN--\":4925:4927   */\n    tag_723:\n        /* \"--CODEGEN--\":5008:5009   */\n      0x00\n        /* \"--CODEGEN--\":5025:5075   */\n      tag_724\n        /* \"--CODEGEN--\":5067:5074   */\n      dup5\n        /* \"--CODEGEN--\":5058:5064   */\n      dup3\n        /* \"--CODEGEN--\":5047:5056   */\n      dup6\n        /* \"--CODEGEN--\":5043:5065   */\n      add\n        /* \"--CODEGEN--\":5025:5075   */\n      tag_673\n      jump\t// in\n    tag_724:\n        /* \"--CODEGEN--\":5015:5075   */\n      swap2\n      pop\n        /* \"--CODEGEN--\":4987:5081   */\n      pop\n        /* \"--CODEGEN--\":4919:5091   */\n      swap3\n      swap2\n      pop\n      pop\n      jump\t// out\n        /* \"--CODEGEN--\":5098:5355   */\n    tag_630:\n      0x00\n        /* \"--CODEGEN--\":5210:5212   */\n      0x20\n        /* \"--CODEGEN--\":5198:5207   */\n      dup3\n        /* \"--CODEGEN--\":5189:5196   */\n      dup5\n        /* \"--CODEGEN--\":5185:5208   */\n      sub\n        /* \"--CODEGEN--\":5181:5213   */\n      slt\n        /* \"--CODEGEN--\":5178:5180   */\n      iszero\n      tag_726\n      jumpi\n        /* \"--CODEGEN--\":5226:5227   */\n      0x00\n        /* \"--CODEGEN--\":5223:5224   */\n      dup1\n        /* \"--CODEGEN--\":5216:5228   */\n      revert\n        /* \"--CODEGEN--\":5178:5180   */\n    tag_726:\n        /* \"--CODEGEN--\":5261:5262   */\n      0x00\n        /* \"--CODEGEN--\":5278:5339   */\n      tag_727\n        /* \"--CODEGEN--\":5331:5338   */\n      dup5\n        /* \"--CODEGEN--\":5322:5328   */\n      dup3\n        /* \"--CODEGEN--\":5311:5320   */\n      dup6\n        /* \"--CODEGEN--\":5307:5329   */\n      add\n        /* \"--CODEGEN--\":5278:5339   */\n      tag_677\n      jump\t// in\n    tag_727:\n        /* \"--CODEGEN--\":5268:5339   */\n      swap2\n      pop\n        /* \"--CODEGEN--\":5240:5345   */\n      pop\n        /* \"--CODEGEN--\":5172:5355   */\n      swap3\n      swap2\n      pop\n      pop\n      jump\t// out\n        /* \"--CODEGEN--\":5362:5754   */\n    tag_232:\n      0x00\n      dup1\n        /* \"--CODEGEN--\":5496:5498   */\n      0x40\n        /* \"--CODEGEN--\":5484:5493   */\n      dup4\n        /* \"--CODEGEN--\":5475:5482   */\n      dup6\n        /* \"--CODEGEN--\":5471:5494   */\n      sub\n        /* \"--CODEGEN--\":5467:5499   */\n      slt\n        /* \"--CODEGEN--\":5464:5466   */\n      iszero\n      tag_729\n      jumpi\n        /* \"--CODEGEN--\":5512:5513   */\n      0x00\n        /* \"--CODEGEN--\":5509:5510   */\n      dup1\n        /* \"--CODEGEN--\":5502:5514   */\n      revert\n        /* \"--CODEGEN--\":5464:5466   */\n    tag_729:\n        /* \"--CODEGEN--\":5547:5548   */\n      0x00\n        /* \"--CODEGEN--\":5564:5630   */\n      tag_730\n        /* \"--CODEGEN--\":5622:5629   */\n      dup6\n        /* \"--CODEGEN--\":5613:5619   */\n      dup3\n        /* \"--CODEGEN--\":5602:5611   */\n      dup7\n        /* \"--CODEGEN--\":5598:5620   */\n      add\n        /* \"--CODEGEN--\":5564:5630   */\n      tag_680\n      jump\t// in\n    tag_730:\n        /* \"--CODEGEN--\":5554:5630   */\n      swap3\n      pop\n        /* \"--CODEGEN--\":5526:5636   */\n      pop\n        /* \"--CODEGEN--\":5667:5669   */\n      0x20\n        /* \"--CODEGEN--\":5685:5738   */\n      tag_731\n        /* \"--CODEGEN--\":5730:5737   */\n      dup6\n        /* \"--CODEGEN--\":5721:5727   */\n      dup3\n        /* \"--CODEGEN--\":5710:5719   */\n      dup7\n        /* \"--CODEGEN--\":5706:5728   */\n      add\n        /* \"--CODEGEN--\":5685:5738   */\n      tag_672\n      jump\t// in\n    tag_731:\n        /* \"--CODEGEN--\":5675:5738   */\n      swap2\n      pop\n        /* \"--CODEGEN--\":5646:5744   */\n      pop\n        /* \"--CODEGEN--\":5458:5754   */\n      swap3\n      pop\n      swap3\n      swap1\n      pop\n      jump\t// out\n        /* \"--CODEGEN--\":5761:6002   */\n    tag_85:\n      0x00\n        /* \"--CODEGEN--\":5865:5867   */\n      0x20\n        /* \"--CODEGEN--\":5853:5862   */\n      dup3\n        /* \"--CODEGEN--\":5844:5851   */\n      dup5\n        /* \"--CODEGEN--\":5840:5863   */\n      sub\n        /* \"--CODEGEN--\":5836:5868   */\n      slt\n        /* \"--CODEGEN--\":5833:5835   */\n      iszero\n      tag_733\n      jumpi\n        /* \"--CODEGEN--\":5881:5882   */\n      0x00\n        /* \"--CODEGEN--\":5878:5879   */\n      dup1\n        /* \"--CODEGEN--\":5871:5883   */\n      revert\n        /* \"--CODEGEN--\":5833:5835   */\n    tag_733:\n        /* \"--CODEGEN--\":5916:5917   */\n      0x00\n        /* \"--CODEGEN--\":5933:5986   */\n      tag_734\n        /* \"--CODEGEN--\":5978:5985   */\n      dup5\n        /* \"--CODEGEN--\":5969:5975   */\n      dup3\n        /* \"--CODEGEN--\":5958:5967   */\n      dup6\n        /* \"--CODEGEN--\":5954:5976   */\n      add\n        /* \"--CODEGEN--\":5933:5986   */\n      tag_672\n      jump\t// in\n    tag_734:\n        /* \"--CODEGEN--\":5923:5986   */\n      swap2\n      pop\n        /* \"--CODEGEN--\":5895:5992   */\n      pop\n        /* \"--CODEGEN--\":5827:6002   */\n      swap3\n      swap2\n      pop\n      pop\n      jump\t// out\n        /* \"--CODEGEN--\":6009:6272   */\n    tag_303:\n      0x00\n        /* \"--CODEGEN--\":6124:6126   */\n      0x20\n        /* \"--CODEGEN--\":6112:6121   */\n      dup3\n        /* \"--CODEGEN--\":6103:6110   */\n      dup5\n        /* \"--CODEGEN--\":6099:6122   */\n      sub\n        /* \"--CODEGEN--\":6095:6127   */\n      slt\n        /* \"--CODEGEN--\":6092:6094   */\n      iszero\n      tag_736\n      jumpi\n        /* \"--CODEGEN--\":6140:6141   */\n      0x00\n        /* \"--CODEGEN--\":6137:6138   */\n      dup1\n        /* \"--CODEGEN--\":6130:6142   */\n      revert\n        /* \"--CODEGEN--\":6092:6094   */\n    tag_736:\n        /* \"--CODEGEN--\":6175:6176   */\n      0x00\n        /* \"--CODEGEN--\":6192:6256   */\n      tag_737\n        /* \"--CODEGEN--\":6248:6255   */\n      dup5\n        /* \"--CODEGEN--\":6239:6245   */\n      dup3\n        /* \"--CODEGEN--\":6228:6237   */\n      dup6\n        /* \"--CODEGEN--\":6224:6246   */\n      add\n        /* \"--CODEGEN--\":6192:6256   */\n      tag_694\n      jump\t// in\n    tag_737:\n        /* \"--CODEGEN--\":6182:6256   */\n      swap2\n      pop\n        /* \"--CODEGEN--\":6154:6262   */\n      pop\n        /* \"--CODEGEN--\":6086:6272   */\n      swap3\n      swap2\n      pop\n      pop\n      jump\t// out\n        /* \"--CODEGEN--\":6279:6645   */\n    tag_237:\n      0x00\n      dup1\n        /* \"--CODEGEN--\":6400:6402   */\n      0x40\n        /* \"--CODEGEN--\":6388:6397   */\n      dup4\n        /* \"--CODEGEN--\":6379:6386   */\n      dup6\n        /* \"--CODEGEN--\":6375:6398   */\n      sub\n        /* \"--CODEGEN--\":6371:6403   */\n      slt\n        /* \"--CODEGEN--\":6368:6370   */\n      iszero\n      tag_739\n      jumpi\n        /* \"--CODEGEN--\":6416:6417   */\n      0x00\n        /* \"--CODEGEN--\":6413:6414   */\n      dup1\n        /* \"--CODEGEN--\":6406:6418   */\n      revert\n        /* \"--CODEGEN--\":6368:6370   */\n    tag_739:\n        /* \"--CODEGEN--\":6451:6452   */\n      0x00\n        /* \"--CODEGEN--\":6468:6521   */\n      tag_740\n        /* \"--CODEGEN--\":6513:6520   */\n      dup6\n        /* \"--CODEGEN--\":6504:6510   */\n      dup3\n        /* \"--CODEGEN--\":6493:6502   */\n      dup7\n        /* \"--CODEGEN--\":6489:6511   */\n      add\n        /* \"--CODEGEN--\":6468:6521   */\n      tag_672\n      jump\t// in\n    tag_740:\n        /* \"--CODEGEN--\":6458:6521   */\n      swap3\n      pop\n        /* \"--CODEGEN--\":6430:6527   */\n      pop\n        /* \"--CODEGEN--\":6558:6560   */\n      0x20\n        /* \"--CODEGEN--\":6576:6629   */\n      tag_741\n        /* \"--CODEGEN--\":6621:6628   */\n      dup6\n        /* \"--CODEGEN--\":6612:6618   */\n      dup3\n        /* \"--CODEGEN--\":6601:6610   */\n      dup7\n        /* \"--CODEGEN--\":6597:6619   */\n      add\n        /* \"--CODEGEN--\":6576:6629   */\n      tag_672\n      jump\t// in\n    tag_741:\n        /* \"--CODEGEN--\":6566:6629   */\n      swap2\n      pop\n        /* \"--CODEGEN--\":6537:6635   */\n      pop\n        /* \"--CODEGEN--\":6362:6645   */\n      swap3\n      pop\n      swap3\n      swap1\n      pop\n      jump\t// out\n        /* \"--CODEGEN--\":6653:6826   */\n    tag_742:\n      0x00\n        /* \"--CODEGEN--\":6740:6786   */\n      tag_744\n        /* \"--CODEGEN--\":6782:6785   */\n      dup4\n        /* \"--CODEGEN--\":6774:6780   */\n      dup4\n        /* \"--CODEGEN--\":6740:6786   */\n      tag_745\n      jump\t// in\n    tag_744:\n        /* \"--CODEGEN--\":6815:6819   */\n      0x20\n        /* \"--CODEGEN--\":6810:6813   */\n      dup4\n        /* \"--CODEGEN--\":6806:6820   */\n      add\n        /* \"--CODEGEN--\":6792:6820   */\n      swap1\n      pop\n        /* \"--CODEGEN--\":6733:6826   */\n      swap3\n      swap2\n      pop\n      pop\n      jump\t// out\n        /* \"--CODEGEN--\":6834:6976   */\n    tag_746:\n        /* \"--CODEGEN--\":6925:6970   */\n      tag_748\n        /* \"--CODEGEN--\":6964:6969   */\n      dup2\n        /* \"--CODEGEN--\":6925:6970   */\n      tag_749\n      jump\t// in\n    tag_748:\n        /* \"--CODEGEN--\":6920:6923   */\n      dup3\n        /* \"--CODEGEN--\":6913:6971   */\n      mstore\n        /* \"--CODEGEN--\":6907:6976   */\n      pop\n      pop\n      jump\t// out\n        /* \"--CODEGEN--\":6983:7096   */\n    tag_750:\n        /* \"--CODEGEN--\":7066:7090   */\n      tag_752\n        /* \"--CODEGEN--\":7084:7089   */\n      dup2\n        /* \"--CODEGEN--\":7066:7090   */\n      tag_753\n      jump\t// in\n    tag_752:\n        /* \"--CODEGEN--\":7061:7064   */\n      dup3\n        /* \"--CODEGEN--\":7054:7091   */\n      mstore\n        /* \"--CODEGEN--\":7048:7096   */\n      pop\n      pop\n      jump\t// out\n        /* \"--CODEGEN--\":7134:7824   */\n    tag_754:\n      0x00\n        /* \"--CODEGEN--\":7279:7333   */\n      tag_756\n        /* \"--CODEGEN--\":7327:7332   */\n      dup3\n        /* \"--CODEGEN--\":7279:7333   */\n      tag_757\n      jump\t// in\n    tag_756:\n        /* \"--CODEGEN--\":7346:7432   */\n      tag_758\n        /* \"--CODEGEN--\":7425:7431   */\n      dup2\n        /* \"--CODEGEN--\":7420:7423   */\n      dup6\n        /* \"--CODEGEN--\":7346:7432   */\n      tag_759\n      jump\t// in\n    tag_758:\n        /* \"--CODEGEN--\":7339:7432   */\n      swap4\n      pop\n        /* \"--CODEGEN--\":7453:7509   */\n      tag_760\n        /* \"--CODEGEN--\":7503:7508   */\n      dup4\n        /* \"--CODEGEN--\":7453:7509   */\n      tag_761\n      jump\t// in\n    tag_760:\n        /* \"--CODEGEN--\":7529:7536   */\n      dup1\n        /* \"--CODEGEN--\":7557:7558   */\n      0x00\n        /* \"--CODEGEN--\":7542:7802   */\n    tag_762:\n        /* \"--CODEGEN--\":7567:7573   */\n      dup4\n        /* \"--CODEGEN--\":7564:7565   */\n      dup2\n        /* \"--CODEGEN--\":7561:7574   */\n      lt\n        /* \"--CODEGEN--\":7542:7802   */\n      iszero\n      tag_764\n      jumpi\n        /* \"--CODEGEN--\":7634:7640   */\n      dup2\n        /* \"--CODEGEN--\":7628:7641   */\n      mload\n        /* \"--CODEGEN--\":7655:7718   */\n      tag_765\n        /* \"--CODEGEN--\":7714:7717   */\n      dup9\n        /* \"--CODEGEN--\":7699:7712   */\n      dup3\n        /* \"--CODEGEN--\":7655:7718   */\n      tag_742\n      jump\t// in\n    tag_765:\n        /* \"--CODEGEN--\":7648:7718   */\n      swap8\n      pop\n        /* \"--CODEGEN--\":7735:7795   */\n      tag_766\n        /* \"--CODEGEN--\":7788:7794   */\n      dup4\n        /* \"--CODEGEN--\":7735:7795   */\n      tag_767\n      jump\t// in\n    tag_766:\n        /* \"--CODEGEN--\":7725:7795   */\n      swap3\n      pop\n        /* \"--CODEGEN--\":7599:7802   */\n      pop\n        /* \"--CODEGEN--\":7589:7590   */\n      0x01\n        /* \"--CODEGEN--\":7586:7587   */\n      dup2\n        /* \"--CODEGEN--\":7582:7591   */\n      add\n        /* \"--CODEGEN--\":7577:7591   */\n      swap1\n      pop\n        /* \"--CODEGEN--\":7542:7802   */\n      jump(tag_762)\n    tag_764:\n        /* \"--CODEGEN--\":7546:7560   */\n      pop\n        /* \"--CODEGEN--\":7815:7818   */\n      dup6\n        /* \"--CODEGEN--\":7808:7818   */\n      swap4\n      pop\n        /* \"--CODEGEN--\":7258:7824   */\n      pop\n      pop\n      pop\n      swap3\n      swap2\n      pop\n      pop\n      jump\t// out\n        /* \"--CODEGEN--\":7832:7936   */\n    tag_768:\n        /* \"--CODEGEN--\":7909:7930   */\n      tag_770\n        /* \"--CODEGEN--\":7924:7929   */\n      dup2\n        /* \"--CODEGEN--\":7909:7930   */\n      tag_771\n      jump\t// in\n    tag_770:\n        /* \"--CODEGEN--\":7904:7907   */\n      dup3\n        /* \"--CODEGEN--\":7897:7931   */\n      mstore\n        /* \"--CODEGEN--\":7891:7936   */\n      pop\n      pop\n      jump\t// out\n        /* \"--CODEGEN--\":7943:8299   */\n    tag_772:\n      0x00\n        /* \"--CODEGEN--\":8071:8109   */\n      tag_774\n        /* \"--CODEGEN--\":8103:8108   */\n      dup3\n        /* \"--CODEGEN--\":8071:8109   */\n      tag_775\n      jump\t// in\n    tag_774:\n        /* \"--CODEGEN--\":8121:8209   */\n      tag_776\n        /* \"--CODEGEN--\":8202:8208   */\n      dup2\n        /* \"--CODEGEN--\":8197:8200   */\n      dup6\n        /* \"--CODEGEN--\":8121:8209   */\n      tag_777\n      jump\t// in\n    tag_776:\n        /* \"--CODEGEN--\":8114:8209   */\n      swap4\n      pop\n        /* \"--CODEGEN--\":8214:8266   */\n      tag_778\n        /* \"--CODEGEN--\":8259:8265   */\n      dup2\n        /* \"--CODEGEN--\":8254:8257   */\n      dup6\n        /* \"--CODEGEN--\":8247:8251   */\n      0x20\n        /* \"--CODEGEN--\":8240:8245   */\n      dup7\n        /* \"--CODEGEN--\":8236:8252   */\n      add\n        /* \"--CODEGEN--\":8214:8266   */\n      tag_779\n      jump\t// in\n    tag_778:\n        /* \"--CODEGEN--\":8287:8293   */\n      dup1\n        /* \"--CODEGEN--\":8282:8285   */\n      dup5\n        /* \"--CODEGEN--\":8278:8294   */\n      add\n        /* \"--CODEGEN--\":8271:8294   */\n      swap2\n      pop\n        /* \"--CODEGEN--\":8051:8299   */\n      pop\n      swap3\n      swap2\n      pop\n      pop\n      jump\t// out\n        /* \"--CODEGEN--\":8306:8458   */\n    tag_780:\n        /* \"--CODEGEN--\":8402:8452   */\n      tag_782\n        /* \"--CODEGEN--\":8446:8451   */\n      dup2\n        /* \"--CODEGEN--\":8402:8452   */\n      tag_783\n      jump\t// in\n    tag_782:\n        /* \"--CODEGEN--\":8397:8400   */\n      dup3\n        /* \"--CODEGEN--\":8390:8453   */\n      mstore\n        /* \"--CODEGEN--\":8384:8458   */\n      pop\n      pop\n      jump\t// out\n        /* \"--CODEGEN--\":8465:8812   */\n    tag_784:\n      0x00\n        /* \"--CODEGEN--\":8577:8616   */\n      tag_786\n        /* \"--CODEGEN--\":8610:8615   */\n      dup3\n        /* \"--CODEGEN--\":8577:8616   */\n      tag_787\n      jump\t// in\n    tag_786:\n        /* \"--CODEGEN--\":8628:8699   */\n      tag_788\n        /* \"--CODEGEN--\":8692:8698   */\n      dup2\n        /* \"--CODEGEN--\":8687:8690   */\n      dup6\n        /* \"--CODEGEN--\":8628:8699   */\n      tag_789\n      jump\t// in\n    tag_788:\n        /* \"--CODEGEN--\":8621:8699   */\n      swap4\n      pop\n        /* \"--CODEGEN--\":8704:8756   */\n      tag_790\n        /* \"--CODEGEN--\":8749:8755   */\n      dup2\n        /* \"--CODEGEN--\":8744:8747   */\n      dup6\n        /* \"--CODEGEN--\":8737:8741   */\n      0x20\n        /* \"--CODEGEN--\":8730:8735   */\n      dup7\n        /* \"--CODEGEN--\":8726:8742   */\n      add\n        /* \"--CODEGEN--\":8704:8756   */\n      tag_779\n      jump\t// in\n    tag_790:\n        /* \"--CODEGEN--\":8777:8806   */\n      tag_791\n        /* \"--CODEGEN--\":8799:8805   */\n      dup2\n        /* \"--CODEGEN--\":8777:8806   */\n      tag_792\n      jump\t// in\n    tag_791:\n        /* \"--CODEGEN--\":8772:8775   */\n      dup5\n        /* \"--CODEGEN--\":8768:8807   */\n      add\n        /* \"--CODEGEN--\":8761:8807   */\n      swap2\n      pop\n        /* \"--CODEGEN--\":8557:8812   */\n      pop\n      swap3\n      swap2\n      pop\n      pop\n      jump\t// out\n        /* \"--CODEGEN--\":8820:9142   */\n    tag_793:\n      0x00\n        /* \"--CODEGEN--\":8980:9047   */\n      tag_795\n        /* \"--CODEGEN--\":9044:9046   */\n      0x16\n        /* \"--CODEGEN--\":9039:9042   */\n      dup4\n        /* \"--CODEGEN--\":8980:9047   */\n      tag_789\n      jump\t// in\n    tag_795:\n        /* \"--CODEGEN--\":8973:9047   */\n      swap2\n      pop\n        /* \"--CODEGEN--\":9080:9104   */\n      0x43616c6c6572206973206e6f7420746865206465762100000000000000000000\n        /* \"--CODEGEN--\":9076:9077   */\n      0x00\n        /* \"--CODEGEN--\":9071:9074   */\n      dup4\n        /* \"--CODEGEN--\":9067:9078   */\n      add\n        /* \"--CODEGEN--\":9060:9105   */\n      mstore\n        /* \"--CODEGEN--\":9133:9135   */\n      0x20\n        /* \"--CODEGEN--\":9128:9131   */\n      dup3\n        /* \"--CODEGEN--\":9124:9136   */\n      add\n        /* \"--CODEGEN--\":9117:9136   */\n      swap1\n      pop\n        /* \"--CODEGEN--\":8966:9142   */\n      swap2\n      swap1\n      pop\n      jump\t// out\n        /* \"--CODEGEN--\":9151:9473   */\n    tag_796:\n      0x00\n        /* \"--CODEGEN--\":9311:9378   */\n      tag_798\n        /* \"--CODEGEN--\":9375:9377   */\n      0x16\n        /* \"--CODEGEN--\":9370:9373   */\n      dup4\n        /* \"--CODEGEN--\":9311:9378   */\n      tag_789\n      jump\t// in\n    tag_798:\n        /* \"--CODEGEN--\":9304:9378   */\n      swap2\n      pop\n        /* \"--CODEGEN--\":9411:9435   */\n      0x4e6f7420656e6f75676820746f20636f6d706f756e6400000000000000000000\n        /* \"--CODEGEN--\":9407:9408   */\n      0x00\n        /* \"--CODEGEN--\":9402:9405   */\n      dup4\n        /* \"--CODEGEN--\":9398:9409   */\n      add\n        /* \"--CODEGEN--\":9391:9436   */\n      mstore\n        /* \"--CODEGEN--\":9464:9466   */\n      0x20\n        /* \"--CODEGEN--\":9459:9462   */\n      dup3\n        /* \"--CODEGEN--\":9455:9467   */\n      add\n        /* \"--CODEGEN--\":9448:9467   */\n      swap1\n      pop\n        /* \"--CODEGEN--\":9297:9473   */\n      swap2\n      swap1\n      pop\n      jump\t// out\n        /* \"--CODEGEN--\":9482:9809   */\n    tag_799:\n      0x00\n        /* \"--CODEGEN--\":9642:9709   */\n      tag_801\n        /* \"--CODEGEN--\":9706:9708   */\n      0x1b\n        /* \"--CODEGEN--\":9701:9704   */\n      dup4\n        /* \"--CODEGEN--\":9642:9709   */\n      tag_789\n      jump\t// in\n    tag_801:\n        /* \"--CODEGEN--\":9635:9709   */\n      swap2\n      pop\n        /* \"--CODEGEN--\":9742:9771   */\n      0x536166654d6174683a206164646974696f6e206f766572666c6f770000000000\n        /* \"--CODEGEN--\":9738:9739   */\n      0x00\n        /* \"--CODEGEN--\":9733:9736   */\n      dup4\n        /* \"--CODEGEN--\":9729:9740   */\n      add\n        /* \"--CODEGEN--\":9722:9772   */\n      mstore\n        /* \"--CODEGEN--\":9800:9802   */\n      0x20\n        /* \"--CODEGEN--\":9795:9798   */\n      dup3\n        /* \"--CODEGEN--\":9791:9803   */\n      add\n        /* \"--CODEGEN--\":9784:9803   */\n      swap1\n      pop\n        /* \"--CODEGEN--\":9628:9809   */\n      swap2\n      swap1\n      pop\n      jump\t// out\n        /* \"--CODEGEN--\":9818:10140   */\n    tag_802:\n      0x00\n        /* \"--CODEGEN--\":9978:10045   */\n      tag_804\n        /* \"--CODEGEN--\":10042:10044   */\n      0x16\n        /* \"--CODEGEN--\":10037:10040   */\n      dup4\n        /* \"--CODEGEN--\":9978:10045   */\n      tag_789\n      jump\t// in\n    tag_804:\n        /* \"--CODEGEN--\":9971:10045   */\n      swap2\n      pop\n        /* \"--CODEGEN--\":10078:10102   */\n      0x496e73756666696369656e7420616c6c6f77616e636500000000000000000000\n        /* \"--CODEGEN--\":10074:10075   */\n      0x00\n        /* \"--CODEGEN--\":10069:10072   */\n      dup4\n        /* \"--CODEGEN--\":10065:10076   */\n      add\n        /* \"--CODEGEN--\":10058:10103   */\n      mstore\n        /* \"--CODEGEN--\":10131:10133   */\n      0x20\n        /* \"--CODEGEN--\":10126:10129   */\n      dup3\n        /* \"--CODEGEN--\":10122:10134   */\n      add\n        /* \"--CODEGEN--\":10115:10134   */\n      swap1\n      pop\n        /* \"--CODEGEN--\":9964:10140   */\n      swap2\n      swap1\n      pop\n      jump\t// out\n        /* \"--CODEGEN--\":10149:10469   */\n    tag_805:\n      0x00\n        /* \"--CODEGEN--\":10309:10376   */\n      tag_807\n        /* \"--CODEGEN--\":10373:10375   */\n      0x14\n        /* \"--CODEGEN--\":10368:10371   */\n      dup4\n        /* \"--CODEGEN--\":10309:10376   */\n      tag_789\n      jump\t// in\n    tag_807:\n        /* \"--CODEGEN--\":10302:10376   */\n      swap2\n      pop\n        /* \"--CODEGEN--\":10409:10431   */\n      0x496e73756666696369656e742062616c616e6365000000000000000000000000\n        /* \"--CODEGEN--\":10405:10406   */\n      0x00\n        /* \"--CODEGEN--\":10400:10403   */\n      dup4\n        /* \"--CODEGEN--\":10396:10407   */\n      add\n        /* \"--CODEGEN--\":10389:10432   */\n      mstore\n        /* \"--CODEGEN--\":10460:10462   */\n      0x20\n        /* \"--CODEGEN--\":10455:10458   */\n      dup3\n        /* \"--CODEGEN--\":10451:10463   */\n      add\n        /* \"--CODEGEN--\":10444:10463   */\n      swap1\n      pop\n        /* \"--CODEGEN--\":10295:10469   */\n      swap2\n      swap1\n      pop\n      jump\t// out\n        /* \"--CODEGEN--\":10478:10810   */\n    tag_808:\n      0x00\n        /* \"--CODEGEN--\":10638:10705   */\n      tag_810\n        /* \"--CODEGEN--\":10702:10704   */\n      0x20\n        /* \"--CODEGEN--\":10697:10700   */\n      dup4\n        /* \"--CODEGEN--\":10638:10705   */\n      tag_789\n      jump\t// in\n    tag_810:\n        /* \"--CODEGEN--\":10631:10705   */\n      swap2\n      pop\n        /* \"--CODEGEN--\":10738:10772   */\n      0x5361666545524332303a206c6f772d6c6576656c2063616c6c206661696c6564\n        /* \"--CODEGEN--\":10734:10735   */\n      0x00\n        /* \"--CODEGEN--\":10729:10732   */\n      dup4\n        /* \"--CODEGEN--\":10725:10736   */\n      add\n        /* \"--CODEGEN--\":10718:10773   */\n      mstore\n        /* \"--CODEGEN--\":10801:10803   */\n      0x20\n        /* \"--CODEGEN--\":10796:10799   */\n      dup3\n        /* \"--CODEGEN--\":10792:10804   */\n      add\n        /* \"--CODEGEN--\":10785:10804   */\n      swap1\n      pop\n        /* \"--CODEGEN--\":10624:10810   */\n      swap2\n      swap1\n      pop\n      jump\t// out\n        /* \"--CODEGEN--\":10819:11136   */\n    tag_811:\n      0x00\n        /* \"--CODEGEN--\":10979:11046   */\n      tag_813\n        /* \"--CODEGEN--\":11043:11045   */\n      0x11\n        /* \"--CODEGEN--\":11038:11041   */\n      dup4\n        /* \"--CODEGEN--\":10979:11046   */\n      tag_789\n      jump\t// in\n    tag_813:\n        /* \"--CODEGEN--\":10972:11046   */\n      swap2\n      pop\n        /* \"--CODEGEN--\":11079:11098   */\n      0x446f206e6f742073656e6420415641582e000000000000000000000000000000\n        /* \"--CODEGEN--\":11075:11076   */\n      0x00\n        /* \"--CODEGEN--\":11070:11073   */\n      dup4\n        /* \"--CODEGEN--\":11066:11077   */\n      add\n        /* \"--CODEGEN--\":11059:11099   */\n      mstore\n        /* \"--CODEGEN--\":11127:11129   */\n      0x20\n        /* \"--CODEGEN--\":11122:11125   */\n      dup3\n        /* \"--CODEGEN--\":11118:11130   */\n      add\n        /* \"--CODEGEN--\":11111:11130   */\n      swap1\n      pop\n        /* \"--CODEGEN--\":10965:11136   */\n      swap2\n      swap1\n      pop\n      jump\t// out\n        /* \"--CODEGEN--\":11145:11457   */\n    tag_814:\n      0x00\n        /* \"--CODEGEN--\":11305:11372   */\n      tag_816\n        /* \"--CODEGEN--\":11369:11371   */\n      0x0c\n        /* \"--CODEGEN--\":11364:11367   */\n      dup4\n        /* \"--CODEGEN--\":11305:11372   */\n      tag_789\n      jump\t// in\n    tag_816:\n        /* \"--CODEGEN--\":11298:11372   */\n      swap2\n      pop\n        /* \"--CODEGEN--\":11405:11419   */\n      0x5a65726f20616464726573730000000000000000000000000000000000000000\n        /* \"--CODEGEN--\":11401:11402   */\n      0x00\n        /* \"--CODEGEN--\":11396:11399   */\n      dup4\n        /* \"--CODEGEN--\":11392:11403   */\n      add\n        /* \"--CODEGEN--\":11385:11420   */\n      mstore\n        /* \"--CODEGEN--\":11448:11450   */\n      0x20\n        /* \"--CODEGEN--\":11443:11446   */\n      dup3\n        /* \"--CODEGEN--\":11439:11451   */\n      add\n        /* \"--CODEGEN--\":11432:11451   */\n      swap1\n      pop\n        /* \"--CODEGEN--\":11291:11457   */\n      swap2\n      swap1\n      pop\n      jump\t// out\n        /* \"--CODEGEN--\":11466:11782   */\n    tag_817:\n      0x00\n        /* \"--CODEGEN--\":11626:11693   */\n      tag_819\n        /* \"--CODEGEN--\":11690:11692   */\n      0x10\n        /* \"--CODEGEN--\":11685:11688   */\n      dup4\n        /* \"--CODEGEN--\":11626:11693   */\n      tag_789\n      jump\t// in\n    tag_819:\n        /* \"--CODEGEN--\":11619:11693   */\n      swap2\n      pop\n        /* \"--CODEGEN--\":11726:11744   */\n      0x496e76616c6964206e6f64655469657200000000000000000000000000000000\n        /* \"--CODEGEN--\":11722:11723   */\n      0x00\n        /* \"--CODEGEN--\":11717:11720   */\n      dup4\n        /* \"--CODEGEN--\":11713:11724   */\n      add\n        /* \"--CODEGEN--\":11706:11745   */\n      mstore\n        /* \"--CODEGEN--\":11773:11775   */\n      0x20\n        /* \"--CODEGEN--\":11768:11771   */\n      dup3\n        /* \"--CODEGEN--\":11764:11776   */\n      add\n        /* \"--CODEGEN--\":11757:11776   */\n      swap1\n      pop\n        /* \"--CODEGEN--\":11612:11782   */\n      swap2\n      swap1\n      pop\n      jump\t// out\n        /* \"--CODEGEN--\":11791:12161   */\n    tag_820:\n      0x00\n        /* \"--CODEGEN--\":11951:12018   */\n      tag_822\n        /* \"--CODEGEN--\":12015:12017   */\n      0x21\n        /* \"--CODEGEN--\":12010:12013   */\n      dup4\n        /* \"--CODEGEN--\":11951:12018   */\n      tag_789\n      jump\t// in\n    tag_822:\n        /* \"--CODEGEN--\":11944:12018   */\n      swap2\n      pop\n        /* \"--CODEGEN--\":12051:12085   */\n      0x536166654d6174683a206d756c7469706c69636174696f6e206f766572666c6f\n        /* \"--CODEGEN--\":12047:12048   */\n      0x00\n        /* \"--CODEGEN--\":12042:12045   */\n      dup4\n        /* \"--CODEGEN--\":12038:12049   */\n      add\n        /* \"--CODEGEN--\":12031:12086   */\n      mstore\n        /* \"--CODEGEN--\":12120:12123   */\n      0x7700000000000000000000000000000000000000000000000000000000000000\n        /* \"--CODEGEN--\":12115:12117   */\n      0x20\n        /* \"--CODEGEN--\":12110:12113   */\n      dup4\n        /* \"--CODEGEN--\":12106:12118   */\n      add\n        /* \"--CODEGEN--\":12099:12124   */\n      mstore\n        /* \"--CODEGEN--\":12152:12154   */\n      0x40\n        /* \"--CODEGEN--\":12147:12150   */\n      dup3\n        /* \"--CODEGEN--\":12143:12155   */\n      add\n        /* \"--CODEGEN--\":12136:12155   */\n      swap1\n      pop\n        /* \"--CODEGEN--\":11937:12161   */\n      swap2\n      swap1\n      pop\n      jump\t// out\n        /* \"--CODEGEN--\":12170:12485   */\n    tag_823:\n      0x00\n        /* \"--CODEGEN--\":12330:12397   */\n      tag_825\n        /* \"--CODEGEN--\":12394:12396   */\n      0x0f\n        /* \"--CODEGEN--\":12389:12392   */\n      dup4\n        /* \"--CODEGEN--\":12330:12397   */\n      tag_789\n      jump\t// in\n    tag_825:\n        /* \"--CODEGEN--\":12323:12397   */\n      swap2\n      pop\n        /* \"--CODEGEN--\":12430:12447   */\n      0x4c656e677468206d69736d617463680000000000000000000000000000000000\n        /* \"--CODEGEN--\":12426:12427   */\n      0x00\n        /* \"--CODEGEN--\":12421:12424   */\n      dup4\n        /* \"--CODEGEN--\":12417:12428   */\n      add\n        /* \"--CODEGEN--\":12410:12448   */\n      mstore\n        /* \"--CODEGEN--\":12476:12478   */\n      0x20\n        /* \"--CODEGEN--\":12471:12474   */\n      dup3\n        /* \"--CODEGEN--\":12467:12479   */\n      add\n        /* \"--CODEGEN--\":12460:12479   */\n      swap1\n      pop\n        /* \"--CODEGEN--\":12316:12485   */\n      swap2\n      swap1\n      pop\n      jump\t// out\n        /* \"--CODEGEN--\":12494:12801   */\n    tag_826:\n      0x00\n        /* \"--CODEGEN--\":12654:12720   */\n      tag_828\n        /* \"--CODEGEN--\":12718:12719   */\n      0x08\n        /* \"--CODEGEN--\":12713:12716   */\n      dup4\n        /* \"--CODEGEN--\":12654:12720   */\n      tag_789\n      jump\t// in\n    tag_828:\n        /* \"--CODEGEN--\":12647:12720   */\n      swap2\n      pop\n        /* \"--CODEGEN--\":12753:12763   */\n      0x44697361626c6564000000000000000000000000000000000000000000000000\n        /* \"--CODEGEN--\":12749:12750   */\n      0x00\n        /* \"--CODEGEN--\":12744:12747   */\n      dup4\n        /* \"--CODEGEN--\":12740:12751   */\n      add\n        /* \"--CODEGEN--\":12733:12764   */\n      mstore\n        /* \"--CODEGEN--\":12792:12794   */\n      0x20\n        /* \"--CODEGEN--\":12787:12790   */\n      dup3\n        /* \"--CODEGEN--\":12783:12795   */\n      add\n        /* \"--CODEGEN--\":12776:12795   */\n      swap1\n      pop\n        /* \"--CODEGEN--\":12640:12801   */\n      swap2\n      swap1\n      pop\n      jump\t// out\n        /* \"--CODEGEN--\":12810:13189   */\n    tag_829:\n      0x00\n        /* \"--CODEGEN--\":12970:13037   */\n      tag_831\n        /* \"--CODEGEN--\":13034:13036   */\n      0x2a\n        /* \"--CODEGEN--\":13029:13032   */\n      dup4\n        /* \"--CODEGEN--\":12970:13037   */\n      tag_789\n      jump\t// in\n    tag_831:\n        /* \"--CODEGEN--\":12963:13037   */\n      swap2\n      pop\n        /* \"--CODEGEN--\":13070:13104   */\n      0x5361666545524332303a204552433230206f7065726174696f6e20646964206e\n        /* \"--CODEGEN--\":13066:13067   */\n      0x00\n        /* \"--CODEGEN--\":13061:13064   */\n      dup4\n        /* \"--CODEGEN--\":13057:13068   */\n      add\n        /* \"--CODEGEN--\":13050:13105   */\n      mstore\n        /* \"--CODEGEN--\":13139:13151   */\n      0x6f74207375636365656400000000000000000000000000000000000000000000\n        /* \"--CODEGEN--\":13134:13136   */\n      0x20\n        /* \"--CODEGEN--\":13129:13132   */\n      dup4\n        /* \"--CODEGEN--\":13125:13137   */\n      add\n        /* \"--CODEGEN--\":13118:13152   */\n      mstore\n        /* \"--CODEGEN--\":13180:13182   */\n      0x40\n        /* \"--CODEGEN--\":13175:13178   */\n      dup3\n        /* \"--CODEGEN--\":13171:13183   */\n      add\n        /* \"--CODEGEN--\":13164:13183   */\n      swap1\n      pop\n        /* \"--CODEGEN--\":12956:13189   */\n      swap2\n      swap1\n      pop\n      jump\t// out\n        /* \"--CODEGEN--\":13198:13529   */\n    tag_832:\n      0x00\n        /* \"--CODEGEN--\":13358:13425   */\n      tag_834\n        /* \"--CODEGEN--\":13422:13424   */\n      0x1f\n        /* \"--CODEGEN--\":13417:13420   */\n      dup4\n        /* \"--CODEGEN--\":13358:13425   */\n      tag_789\n      jump\t// in\n    tag_834:\n        /* \"--CODEGEN--\":13351:13425   */\n      swap2\n      pop\n        /* \"--CODEGEN--\":13458:13491   */\n      0x5361666545524332303a2063616c6c20746f206e6f6e2d636f6e747261637400\n        /* \"--CODEGEN--\":13454:13455   */\n      0x00\n        /* \"--CODEGEN--\":13449:13452   */\n      dup4\n        /* \"--CODEGEN--\":13445:13456   */\n      add\n        /* \"--CODEGEN--\":13438:13492   */\n      mstore\n        /* \"--CODEGEN--\":13520:13522   */\n      0x20\n        /* \"--CODEGEN--\":13515:13518   */\n      dup3\n        /* \"--CODEGEN--\":13511:13523   */\n      add\n        /* \"--CODEGEN--\":13504:13523   */\n      swap1\n      pop\n        /* \"--CODEGEN--\":13344:13529   */\n      swap2\n      swap1\n      pop\n      jump\t// out\n        /* \"--CODEGEN--\":13537:13640   */\n    tag_745:\n        /* \"--CODEGEN--\":13610:13634   */\n      tag_836\n        /* \"--CODEGEN--\":13628:13633   */\n      dup2\n        /* \"--CODEGEN--\":13610:13634   */\n      tag_837\n      jump\t// in\n    tag_836:\n        /* \"--CODEGEN--\":13605:13608   */\n      dup3\n        /* \"--CODEGEN--\":13598:13635   */\n      mstore\n        /* \"--CODEGEN--\":13592:13640   */\n      pop\n      pop\n      jump\t// out\n        /* \"--CODEGEN--\":13647:13760   */\n    tag_838:\n        /* \"--CODEGEN--\":13730:13754   */\n      tag_840\n        /* \"--CODEGEN--\":13748:13753   */\n      dup2\n        /* \"--CODEGEN--\":13730:13754   */\n      tag_837\n      jump\t// in\n    tag_840:\n        /* \"--CODEGEN--\":13725:13728   */\n      dup3\n        /* \"--CODEGEN--\":13718:13755   */\n      mstore\n        /* \"--CODEGEN--\":13712:13760   */\n      pop\n      pop\n      jump\t// out\n        /* \"--CODEGEN--\":13767:14038   */\n    tag_621:\n      0x00\n        /* \"--CODEGEN--\":13920:14013   */\n      tag_842\n        /* \"--CODEGEN--\":14009:14012   */\n      dup3\n        /* \"--CODEGEN--\":14000:14006   */\n      dup5\n        /* \"--CODEGEN--\":13920:14013   */\n      tag_772\n      jump\t// in\n    tag_842:\n        /* \"--CODEGEN--\":13913:14013   */\n      swap2\n      pop\n        /* \"--CODEGEN--\":14030:14033   */\n      dup2\n        /* \"--CODEGEN--\":14023:14033   */\n      swap1\n      pop\n        /* \"--CODEGEN--\":13901:14038   */\n      swap3\n      swap2\n      pop\n      pop\n      jump\t// out\n        /* \"--CODEGEN--\":14045:14267   */\n    tag_101:\n      0x00\n        /* \"--CODEGEN--\":14172:14174   */\n      0x20\n        /* \"--CODEGEN--\":14161:14170   */\n      dup3\n        /* \"--CODEGEN--\":14157:14175   */\n      add\n        /* \"--CODEGEN--\":14149:14175   */\n      swap1\n      pop\n        /* \"--CODEGEN--\":14186:14257   */\n      tag_844\n        /* \"--CODEGEN--\":14254:14255   */\n      0x00\n        /* \"--CODEGEN--\":14243:14252   */\n      dup4\n        /* \"--CODEGEN--\":14239:14256   */\n      add\n        /* \"--CODEGEN--\":14230:14236   */\n      dup5\n        /* \"--CODEGEN--\":14186:14257   */\n      tag_750\n      jump\t// in\n    tag_844:\n        /* \"--CODEGEN--\":14143:14267   */\n      swap3\n      swap2\n      pop\n      pop\n      jump\t// out\n        /* \"--CODEGEN--\":14274:14512   */\n    tag_298:\n      0x00\n        /* \"--CODEGEN--\":14409:14411   */\n      0x20\n        /* \"--CODEGEN--\":14398:14407   */\n      dup3\n        /* \"--CODEGEN--\":14394:14412   */\n      add\n        /* \"--CODEGEN--\":14386:14412   */\n      swap1\n      pop\n        /* \"--CODEGEN--\":14423:14502   */\n      tag_846\n        /* \"--CODEGEN--\":14499:14500   */\n      0x00\n        /* \"--CODEGEN--\":14488:14497   */\n      dup4\n        /* \"--CODEGEN--\":14484:14501   */\n      add\n        /* \"--CODEGEN--\":14475:14481   */\n      dup5\n        /* \"--CODEGEN--\":14423:14502   */\n      tag_746\n      jump\t// in\n    tag_846:\n        /* \"--CODEGEN--\":14380:14512   */\n      swap3\n      swap2\n      pop\n      pop\n      jump\t// out\n        /* \"--CODEGEN--\":14519:14868   */\n    tag_506:\n      0x00\n        /* \"--CODEGEN--\":14682:14684   */\n      0x40\n        /* \"--CODEGEN--\":14671:14680   */\n      dup3\n        /* \"--CODEGEN--\":14667:14685   */\n      add\n        /* \"--CODEGEN--\":14659:14685   */\n      swap1\n      pop\n        /* \"--CODEGEN--\":14696:14767   */\n      tag_848\n        /* \"--CODEGEN--\":14764:14765   */\n      0x00\n        /* \"--CODEGEN--\":14753:14762   */\n      dup4\n        /* \"--CODEGEN--\":14749:14766   */\n      add\n        /* \"--CODEGEN--\":14740:14746   */\n      dup6\n        /* \"--CODEGEN--\":14696:14767   */\n      tag_750\n      jump\t// in\n    tag_848:\n        /* \"--CODEGEN--\":14778:14858   */\n      tag_849\n        /* \"--CODEGEN--\":14854:14856   */\n      0x20\n        /* \"--CODEGEN--\":14843:14852   */\n      dup4\n        /* \"--CODEGEN--\":14839:14857   */\n      add\n        /* \"--CODEGEN--\":14830:14836   */\n      dup5\n        /* \"--CODEGEN--\":14778:14858   */\n      tag_746\n      jump\t// in\n    tag_849:\n        /* \"--CODEGEN--\":14653:14868   */\n      swap4\n      swap3\n      pop\n      pop\n      pop\n      jump\t// out\n        /* \"--CODEGEN--\":14875:15319   */\n    tag_575:\n      0x00\n        /* \"--CODEGEN--\":15058:15060   */\n      0x60\n        /* \"--CODEGEN--\":15047:15056   */\n      dup3\n        /* \"--CODEGEN--\":15043:15061   */\n      add\n        /* \"--CODEGEN--\":15035:15061   */\n      swap1\n      pop\n        /* \"--CODEGEN--\":15072:15143   */\n      tag_851\n        /* \"--CODEGEN--\":15140:15141   */\n      0x00\n        /* \"--CODEGEN--\":15129:15138   */\n      dup4\n        /* \"--CODEGEN--\":15125:15142   */\n      add\n        /* \"--CODEGEN--\":15116:15122   */\n      dup7\n        /* \"--CODEGEN--\":15072:15143   */\n      tag_750\n      jump\t// in\n    tag_851:\n        /* \"--CODEGEN--\":15154:15226   */\n      tag_852\n        /* \"--CODEGEN--\":15222:15224   */\n      0x20\n        /* \"--CODEGEN--\":15211:15220   */\n      dup4\n        /* \"--CODEGEN--\":15207:15225   */\n      add\n        /* \"--CODEGEN--\":15198:15204   */\n      dup6\n        /* \"--CODEGEN--\":15154:15226   */\n      tag_750\n      jump\t// in\n    tag_852:\n        /* \"--CODEGEN--\":15237:15309   */\n      tag_853\n        /* \"--CODEGEN--\":15305:15307   */\n      0x40\n        /* \"--CODEGEN--\":15294:15303   */\n      dup4\n        /* \"--CODEGEN--\":15290:15308   */\n      add\n        /* \"--CODEGEN--\":15281:15287   */\n      dup5\n        /* \"--CODEGEN--\":15237:15309   */\n      tag_838\n      jump\t// in\n    tag_853:\n        /* \"--CODEGEN--\":15029:15319   */\n      swap5\n      swap4\n      pop\n      pop\n      pop\n      pop\n      jump\t// out\n        /* \"--CODEGEN--\":15326:15659   */\n    tag_546:\n      0x00\n        /* \"--CODEGEN--\":15481:15483   */\n      0x40\n        /* \"--CODEGEN--\":15470:15479   */\n      dup3\n        /* \"--CODEGEN--\":15466:15484   */\n      add\n        /* \"--CODEGEN--\":15458:15484   */\n      swap1\n      pop\n        /* \"--CODEGEN--\":15495:15566   */\n      tag_855\n        /* \"--CODEGEN--\":15563:15564   */\n      0x00\n        /* \"--CODEGEN--\":15552:15561   */\n      dup4\n        /* \"--CODEGEN--\":15548:15565   */\n      add\n        /* \"--CODEGEN--\":15539:15545   */\n      dup6\n        /* \"--CODEGEN--\":15495:15566   */\n      tag_750\n      jump\t// in\n    tag_855:\n        /* \"--CODEGEN--\":15577:15649   */\n      tag_856\n        /* \"--CODEGEN--\":15645:15647   */\n      0x20\n        /* \"--CODEGEN--\":15634:15643   */\n      dup4\n        /* \"--CODEGEN--\":15630:15648   */\n      add\n        /* \"--CODEGEN--\":15621:15627   */\n      dup5\n        /* \"--CODEGEN--\":15577:15649   */\n      tag_838\n      jump\t// in\n    tag_856:\n        /* \"--CODEGEN--\":15452:15659   */\n      swap4\n      swap3\n      pop\n      pop\n      pop\n      jump\t// out\n        /* \"--CODEGEN--\":15666:16036   */\n    tag_157:\n      0x00\n        /* \"--CODEGEN--\":15843:15845   */\n      0x20\n        /* \"--CODEGEN--\":15832:15841   */\n      dup3\n        /* \"--CODEGEN--\":15828:15846   */\n      add\n        /* \"--CODEGEN--\":15820:15846   */\n      swap1\n      pop\n        /* \"--CODEGEN--\":15893:15902   */\n      dup2\n        /* \"--CODEGEN--\":15887:15891   */\n      dup2\n        /* \"--CODEGEN--\":15883:15903   */\n      sub\n        /* \"--CODEGEN--\":15879:15880   */\n      0x00\n        /* \"--CODEGEN--\":15868:15877   */\n      dup4\n        /* \"--CODEGEN--\":15864:15881   */\n      add\n        /* \"--CODEGEN--\":15857:15904   */\n      mstore\n        /* \"--CODEGEN--\":15918:16026   */\n      tag_858\n        /* \"--CODEGEN--\":16021:16025   */\n      dup2\n        /* \"--CODEGEN--\":16012:16018   */\n      dup5\n        /* \"--CODEGEN--\":15918:16026   */\n      tag_754\n      jump\t// in\n    tag_858:\n        /* \"--CODEGEN--\":15910:16026   */\n      swap1\n      pop\n        /* \"--CODEGEN--\":15814:16036   */\n      swap3\n      swap2\n      pop\n      pop\n      jump\t// out\n        /* \"--CODEGEN--\":16043:16253   */\n    tag_111:\n      0x00\n        /* \"--CODEGEN--\":16164:16166   */\n      0x20\n        /* \"--CODEGEN--\":16153:16162   */\n      dup3\n        /* \"--CODEGEN--\":16149:16167   */\n      add\n        /* \"--CODEGEN--\":16141:16167   */\n      swap1\n      pop\n        /* \"--CODEGEN--\":16178:16243   */\n      tag_860\n        /* \"--CODEGEN--\":16240:16241   */\n      0x00\n        /* \"--CODEGEN--\":16229:16238   */\n      dup4\n        /* \"--CODEGEN--\":16225:16242   */\n      add\n        /* \"--CODEGEN--\":16216:16222   */\n      dup5\n        /* \"--CODEGEN--\":16178:16243   */\n      tag_768\n      jump\t// in\n    tag_860:\n        /* \"--CODEGEN--\":16135:16253   */\n      swap3\n      swap2\n      pop\n      pop\n      jump\t// out\n        /* \"--CODEGEN--\":16260:16508   */\n    tag_218:\n      0x00\n        /* \"--CODEGEN--\":16400:16402   */\n      0x20\n        /* \"--CODEGEN--\":16389:16398   */\n      dup3\n        /* \"--CODEGEN--\":16385:16403   */\n      add\n        /* \"--CODEGEN--\":16377:16403   */\n      swap1\n      pop\n        /* \"--CODEGEN--\":16414:16498   */\n      tag_862\n        /* \"--CODEGEN--\":16495:16496   */\n      0x00\n        /* \"--CODEGEN--\":16484:16493   */\n      dup4\n        /* \"--CODEGEN--\":16480:16497   */\n      add\n        /* \"--CODEGEN--\":16471:16477   */\n      dup5\n        /* \"--CODEGEN--\":16414:16498   */\n      tag_780\n      jump\t// in\n    tag_862:\n        /* \"--CODEGEN--\":16371:16508   */\n      swap3\n      swap2\n      pop\n      pop\n      jump\t// out\n        /* \"--CODEGEN--\":16515:16825   */\n    tag_637:\n      0x00\n        /* \"--CODEGEN--\":16662:16664   */\n      0x20\n        /* \"--CODEGEN--\":16651:16660   */\n      dup3\n        /* \"--CODEGEN--\":16647:16665   */\n      add\n        /* \"--CODEGEN--\":16639:16665   */\n      swap1\n      pop\n        /* \"--CODEGEN--\":16712:16721   */\n      dup2\n        /* \"--CODEGEN--\":16706:16710   */\n      dup2\n        /* \"--CODEGEN--\":16702:16722   */\n      sub\n        /* \"--CODEGEN--\":16698:16699   */\n      0x00\n        /* \"--CODEGEN--\":16687:16696   */\n      dup4\n        /* \"--CODEGEN--\":16683:16700   */\n      add\n        /* \"--CODEGEN--\":16676:16723   */\n      mstore\n        /* \"--CODEGEN--\":16737:16815   */\n      tag_864\n        /* \"--CODEGEN--\":16810:16814   */\n      dup2\n        /* \"--CODEGEN--\":16801:16807   */\n      dup5\n        /* \"--CODEGEN--\":16737:16815   */\n      tag_784\n      jump\t// in\n    tag_864:\n        /* \"--CODEGEN--\":16729:16815   */\n      swap1\n      pop\n        /* \"--CODEGEN--\":16633:16825   */\n      swap3\n      swap2\n      pop\n      pop\n      jump\t// out\n        /* \"--CODEGEN--\":16832:17248   */\n    tag_307:\n      0x00\n        /* \"--CODEGEN--\":17032:17034   */\n      0x20\n        /* \"--CODEGEN--\":17021:17030   */\n      dup3\n        /* \"--CODEGEN--\":17017:17035   */\n      add\n        /* \"--CODEGEN--\":17009:17035   */\n      swap1\n      pop\n        /* \"--CODEGEN--\":17082:17091   */\n      dup2\n        /* \"--CODEGEN--\":17076:17080   */\n      dup2\n        /* \"--CODEGEN--\":17072:17092   */\n      sub\n        /* \"--CODEGEN--\":17068:17069   */\n      0x00\n        /* \"--CODEGEN--\":17057:17066   */\n      dup4\n        /* \"--CODEGEN--\":17053:17070   */\n      add\n        /* \"--CODEGEN--\":17046:17093   */\n      mstore\n        /* \"--CODEGEN--\":17107:17238   */\n      tag_866\n        /* \"--CODEGEN--\":17233:17237   */\n      dup2\n        /* \"--CODEGEN--\":17107:17238   */\n      tag_793\n      jump\t// in\n    tag_866:\n        /* \"--CODEGEN--\":17099:17238   */\n      swap1\n      pop\n        /* \"--CODEGEN--\":17003:17248   */\n      swap2\n      swap1\n      pop\n      jump\t// out\n        /* \"--CODEGEN--\":17255:17671   */\n    tag_536:\n      0x00\n        /* \"--CODEGEN--\":17455:17457   */\n      0x20\n        /* \"--CODEGEN--\":17444:17453   */\n      dup3\n        /* \"--CODEGEN--\":17440:17458   */\n      add\n        /* \"--CODEGEN--\":17432:17458   */\n      swap1\n      pop\n        /* \"--CODEGEN--\":17505:17514   */\n      dup2\n        /* \"--CODEGEN--\":17499:17503   */\n      dup2\n        /* \"--CODEGEN--\":17495:17515   */\n      sub\n        /* \"--CODEGEN--\":17491:17492   */\n      0x00\n        /* \"--CODEGEN--\":17480:17489   */\n      dup4\n        /* \"--CODEGEN--\":17476:17493   */\n      add\n        /* \"--CODEGEN--\":17469:17516   */\n      mstore\n        /* \"--CODEGEN--\":17530:17661   */\n      tag_868\n        /* \"--CODEGEN--\":17656:17660   */\n      dup2\n        /* \"--CODEGEN--\":17530:17661   */\n      tag_796\n      jump\t// in\n    tag_868:\n        /* \"--CODEGEN--\":17522:17661   */\n      swap1\n      pop\n        /* \"--CODEGEN--\":17426:17671   */\n      swap2\n      swap1\n      pop\n      jump\t// out\n        /* \"--CODEGEN--\":17678:18094   */\n    tag_557:\n      0x00\n        /* \"--CODEGEN--\":17878:17880   */\n      0x20\n        /* \"--CODEGEN--\":17867:17876   */\n      dup3\n        /* \"--CODEGEN--\":17863:17881   */\n      add\n        /* \"--CODEGEN--\":17855:17881   */\n      swap1\n      pop\n        /* \"--CODEGEN--\":17928:17937   */\n      dup2\n        /* \"--CODEGEN--\":17922:17926   */\n      dup2\n        /* \"--CODEGEN--\":17918:17938   */\n      sub\n        /* \"--CODEGEN--\":17914:17915   */\n      0x00\n        /* \"--CODEGEN--\":17903:17912   */\n      dup4\n        /* \"--CODEGEN--\":17899:17916   */\n      add\n        /* \"--CODEGEN--\":17892:17939   */\n      mstore\n        /* \"--CODEGEN--\":17953:18084   */\n      tag_870\n        /* \"--CODEGEN--\":18079:18083   */\n      dup2\n        /* \"--CODEGEN--\":17953:18084   */\n      tag_799\n      jump\t// in\n    tag_870:\n        /* \"--CODEGEN--\":17945:18084   */\n      swap1\n      pop\n        /* \"--CODEGEN--\":17849:18094   */\n      swap2\n      swap1\n      pop\n      jump\t// out\n        /* \"--CODEGEN--\":18101:18517   */\n    tag_513:\n      0x00\n        /* \"--CODEGEN--\":18301:18303   */\n      0x20\n        /* \"--CODEGEN--\":18290:18299   */\n      dup3\n        /* \"--CODEGEN--\":18286:18304   */\n      add\n        /* \"--CODEGEN--\":18278:18304   */\n      swap1\n      pop\n        /* \"--CODEGEN--\":18351:18360   */\n      dup2\n        /* \"--CODEGEN--\":18345:18349   */\n      dup2\n        /* \"--CODEGEN--\":18341:18361   */\n      sub\n        /* \"--CODEGEN--\":18337:18338   */\n      0x00\n        /* \"--CODEGEN--\":18326:18335   */\n      dup4\n        /* \"--CODEGEN--\":18322:18339   */\n      add\n        /* \"--CODEGEN--\":18315:18362   */\n      mstore\n        /* \"--CODEGEN--\":18376:18507   */\n      tag_872\n        /* \"--CODEGEN--\":18502:18506   */\n      dup2\n        /* \"--CODEGEN--\":18376:18507   */\n      tag_802\n      jump\t// in\n    tag_872:\n        /* \"--CODEGEN--\":18368:18507   */\n      swap1\n      pop\n        /* \"--CODEGEN--\":18272:18517   */\n      swap2\n      swap1\n      pop\n      jump\t// out\n        /* \"--CODEGEN--\":18524:18940   */\n    tag_504:\n      0x00\n        /* \"--CODEGEN--\":18724:18726   */\n      0x20\n        /* \"--CODEGEN--\":18713:18722   */\n      dup3\n        /* \"--CODEGEN--\":18709:18727   */\n      add\n        /* \"--CODEGEN--\":18701:18727   */\n      swap1\n      pop\n        /* \"--CODEGEN--\":18774:18783   */\n      dup2\n        /* \"--CODEGEN--\":18768:18772   */\n      dup2\n        /* \"--CODEGEN--\":18764:18784   */\n      sub\n        /* \"--CODEGEN--\":18760:18761   */\n      0x00\n        /* \"--CODEGEN--\":18749:18758   */\n      dup4\n        /* \"--CODEGEN--\":18745:18762   */\n      add\n        /* \"--CODEGEN--\":18738:18785   */\n      mstore\n        /* \"--CODEGEN--\":18799:18930   */\n      tag_874\n        /* \"--CODEGEN--\":18925:18929   */\n      dup2\n        /* \"--CODEGEN--\":18799:18930   */\n      tag_805\n      jump\t// in\n    tag_874:\n        /* \"--CODEGEN--\":18791:18930   */\n      swap1\n      pop\n        /* \"--CODEGEN--\":18695:18940   */\n      swap2\n      swap1\n      pop\n      jump\t// out\n        /* \"--CODEGEN--\":18947:19363   */\n    tag_627:\n      0x00\n        /* \"--CODEGEN--\":19147:19149   */\n      0x20\n        /* \"--CODEGEN--\":19136:19145   */\n      dup3\n        /* \"--CODEGEN--\":19132:19150   */\n      add\n        /* \"--CODEGEN--\":19124:19150   */\n      swap1\n      pop\n        /* \"--CODEGEN--\":19197:19206   */\n      dup2\n        /* \"--CODEGEN--\":19191:19195   */\n      dup2\n        /* \"--CODEGEN--\":19187:19207   */\n      sub\n        /* \"--CODEGEN--\":19183:19184   */\n      0x00\n        /* \"--CODEGEN--\":19172:19181   */\n      dup4\n        /* \"--CODEGEN--\":19168:19185   */\n      add\n        /* \"--CODEGEN--\":19161:19208   */\n      mstore\n        /* \"--CODEGEN--\":19222:19353   */\n      tag_876\n        /* \"--CODEGEN--\":19348:19352   */\n      dup2\n        /* \"--CODEGEN--\":19222:19353   */\n      tag_808\n      jump\t// in\n    tag_876:\n        /* \"--CODEGEN--\":19214:19353   */\n      swap1\n      pop\n        /* \"--CODEGEN--\":19118:19363   */\n      swap2\n      swap1\n      pop\n      jump\t// out\n        /* \"--CODEGEN--\":19370:19786   */\n    tag_65:\n      0x00\n        /* \"--CODEGEN--\":19570:19572   */\n      0x20\n        /* \"--CODEGEN--\":19559:19568   */\n      dup3\n        /* \"--CODEGEN--\":19555:19573   */\n      add\n        /* \"--CODEGEN--\":19547:19573   */\n      swap1\n      pop\n        /* \"--CODEGEN--\":19620:19629   */\n      dup2\n        /* \"--CODEGEN--\":19614:19618   */\n      dup2\n        /* \"--CODEGEN--\":19610:19630   */\n      sub\n        /* \"--CODEGEN--\":19606:19607   */\n      0x00\n        /* \"--CODEGEN--\":19595:19604   */\n      dup4\n        /* \"--CODEGEN--\":19591:19608   */\n      add\n        /* \"--CODEGEN--\":19584:19631   */\n      mstore\n        /* \"--CODEGEN--\":19645:19776   */\n      tag_878\n        /* \"--CODEGEN--\":19771:19775   */\n      dup2\n        /* \"--CODEGEN--\":19645:19776   */\n      tag_811\n      jump\t// in\n    tag_878:\n        /* \"--CODEGEN--\":19637:19776   */\n      swap1\n      pop\n        /* \"--CODEGEN--\":19541:19786   */\n      swap2\n      swap1\n      pop\n      jump\t// out\n        /* \"--CODEGEN--\":19793:20209   */\n    tag_461:\n      0x00\n        /* \"--CODEGEN--\":19993:19995   */\n      0x20\n        /* \"--CODEGEN--\":19982:19991   */\n      dup3\n        /* \"--CODEGEN--\":19978:19996   */\n      add\n        /* \"--CODEGEN--\":19970:19996   */\n      swap1\n      pop\n        /* \"--CODEGEN--\":20043:20052   */\n      dup2\n        /* \"--CODEGEN--\":20037:20041   */\n      dup2\n        /* \"--CODEGEN--\":20033:20053   */\n      sub\n        /* \"--CODEGEN--\":20029:20030   */\n      0x00\n        /* \"--CODEGEN--\":20018:20027   */\n      dup4\n        /* \"--CODEGEN--\":20014:20031   */\n      add\n        /* \"--CODEGEN--\":20007:20054   */\n      mstore\n        /* \"--CODEGEN--\":20068:20199   */\n      tag_880\n        /* \"--CODEGEN--\":20194:20198   */\n      dup2\n        /* \"--CODEGEN--\":20068:20199   */\n      tag_814\n      jump\t// in\n    tag_880:\n        /* \"--CODEGEN--\":20060:20199   */\n      swap1\n      pop\n        /* \"--CODEGEN--\":19964:20209   */\n      swap2\n      swap1\n      pop\n      jump\t// out\n        /* \"--CODEGEN--\":20216:20632   */\n    tag_488:\n      0x00\n        /* \"--CODEGEN--\":20416:20418   */\n      0x20\n        /* \"--CODEGEN--\":20405:20414   */\n      dup3\n        /* \"--CODEGEN--\":20401:20419   */\n      add\n        /* \"--CODEGEN--\":20393:20419   */\n      swap1\n      pop\n        /* \"--CODEGEN--\":20466:20475   */\n      dup2\n        /* \"--CODEGEN--\":20460:20464   */\n      dup2\n        /* \"--CODEGEN--\":20456:20476   */\n      sub\n        /* \"--CODEGEN--\":20452:20453   */\n      0x00\n        /* \"--CODEGEN--\":20441:20450   */\n      dup4\n        /* \"--CODEGEN--\":20437:20454   */\n      add\n        /* \"--CODEGEN--\":20430:20477   */\n      mstore\n        /* \"--CODEGEN--\":20491:20622   */\n      tag_882\n        /* \"--CODEGEN--\":20617:20621   */\n      dup2\n        /* \"--CODEGEN--\":20491:20622   */\n      tag_817\n      jump\t// in\n    tag_882:\n        /* \"--CODEGEN--\":20483:20622   */\n      swap1\n      pop\n        /* \"--CODEGEN--\":20387:20632   */\n      swap2\n      swap1\n      pop\n      jump\t// out\n        /* \"--CODEGEN--\":20639:21055   */\n    tag_553:\n      0x00\n        /* \"--CODEGEN--\":20839:20841   */\n      0x20\n        /* \"--CODEGEN--\":20828:20837   */\n      dup3\n        /* \"--CODEGEN--\":20824:20842   */\n      add\n        /* \"--CODEGEN--\":20816:20842   */\n      swap1\n      pop\n        /* \"--CODEGEN--\":20889:20898   */\n      dup2\n        /* \"--CODEGEN--\":20883:20887   */\n      dup2\n        /* \"--CODEGEN--\":20879:20899   */\n      sub\n        /* \"--CODEGEN--\":20875:20876   */\n      0x00\n        /* \"--CODEGEN--\":20864:20873   */\n      dup4\n        /* \"--CODEGEN--\":20860:20877   */\n      add\n        /* \"--CODEGEN--\":20853:20900   */\n      mstore\n        /* \"--CODEGEN--\":20914:21045   */\n      tag_884\n        /* \"--CODEGEN--\":21040:21044   */\n      dup2\n        /* \"--CODEGEN--\":20914:21045   */\n      tag_820\n      jump\t// in\n    tag_884:\n        /* \"--CODEGEN--\":20906:21045   */\n      swap1\n      pop\n        /* \"--CODEGEN--\":20810:21055   */\n      swap2\n      swap1\n      pop\n      jump\t// out\n        /* \"--CODEGEN--\":21062:21478   */\n    tag_348:\n      0x00\n        /* \"--CODEGEN--\":21262:21264   */\n      0x20\n        /* \"--CODEGEN--\":21251:21260   */\n      dup3\n        /* \"--CODEGEN--\":21247:21265   */\n      add\n        /* \"--CODEGEN--\":21239:21265   */\n      swap1\n      pop\n        /* \"--CODEGEN--\":21312:21321   */\n      dup2\n        /* \"--CODEGEN--\":21306:21310   */\n      dup2\n        /* \"--CODEGEN--\":21302:21322   */\n      sub\n        /* \"--CODEGEN--\":21298:21299   */\n      0x00\n        /* \"--CODEGEN--\":21287:21296   */\n      dup4\n        /* \"--CODEGEN--\":21283:21300   */\n      add\n        /* \"--CODEGEN--\":21276:21323   */\n      mstore\n        /* \"--CODEGEN--\":21337:21468   */\n      tag_886\n        /* \"--CODEGEN--\":21463:21467   */\n      dup2\n        /* \"--CODEGEN--\":21337:21468   */\n      tag_823\n      jump\t// in\n    tag_886:\n        /* \"--CODEGEN--\":21329:21468   */\n      swap1\n      pop\n        /* \"--CODEGEN--\":21233:21478   */\n      swap2\n      swap1\n      pop\n      jump\t// out\n        /* \"--CODEGEN--\":21485:21901   */\n    tag_484:\n      0x00\n        /* \"--CODEGEN--\":21685:21687   */\n      0x20\n        /* \"--CODEGEN--\":21674:21683   */\n      dup3\n        /* \"--CODEGEN--\":21670:21688   */\n      add\n        /* \"--CODEGEN--\":21662:21688   */\n      swap1\n      pop\n        /* \"--CODEGEN--\":21735:21744   */\n      dup2\n        /* \"--CODEGEN--\":21729:21733   */\n      dup2\n        /* \"--CODEGEN--\":21725:21745   */\n      sub\n        /* \"--CODEGEN--\":21721:21722   */\n      0x00\n        /* \"--CODEGEN--\":21710:21719   */\n      dup4\n        /* \"--CODEGEN--\":21706:21723   */\n      add\n        /* \"--CODEGEN--\":21699:21746   */\n      mstore\n        /* \"--CODEGEN--\":21760:21891   */\n      tag_888\n        /* \"--CODEGEN--\":21886:21890   */\n      dup2\n        /* \"--CODEGEN--\":21760:21891   */\n      tag_826\n      jump\t// in\n    tag_888:\n        /* \"--CODEGEN--\":21752:21891   */\n      swap1\n      pop\n        /* \"--CODEGEN--\":21656:21901   */\n      swap2\n      swap1\n      pop\n      jump\t// out\n        /* \"--CODEGEN--\":21908:22324   */\n    tag_633:\n      0x00\n        /* \"--CODEGEN--\":22108:22110   */\n      0x20\n        /* \"--CODEGEN--\":22097:22106   */\n      dup3\n        /* \"--CODEGEN--\":22093:22111   */\n      add\n        /* \"--CODEGEN--\":22085:22111   */\n      swap1\n      pop\n        /* \"--CODEGEN--\":22158:22167   */\n      dup2\n        /* \"--CODEGEN--\":22152:22156   */\n      dup2\n        /* \"--CODEGEN--\":22148:22168   */\n      sub\n        /* \"--CODEGEN--\":22144:22145   */\n      0x00\n        /* \"--CODEGEN--\":22133:22142   */\n      dup4\n        /* \"--CODEGEN--\":22129:22146   */\n      add\n        /* \"--CODEGEN--\":22122:22169   */\n      mstore\n        /* \"--CODEGEN--\":22183:22314   */\n      tag_890\n        /* \"--CODEGEN--\":22309:22313   */\n      dup2\n        /* \"--CODEGEN--\":22183:22314   */\n      tag_829\n      jump\t// in\n    tag_890:\n        /* \"--CODEGEN--\":22175:22314   */\n      swap1\n      pop\n        /* \"--CODEGEN--\":22079:22324   */\n      swap2\n      swap1\n      pop\n      jump\t// out\n        /* \"--CODEGEN--\":22331:22747   */\n    tag_619:\n      0x00\n        /* \"--CODEGEN--\":22531:22533   */\n      0x20\n        /* \"--CODEGEN--\":22520:22529   */\n      dup3\n        /* \"--CODEGEN--\":22516:22534   */\n      add\n        /* \"--CODEGEN--\":22508:22534   */\n      swap1\n      pop\n        /* \"--CODEGEN--\":22581:22590   */\n      dup2\n        /* \"--CODEGEN--\":22575:22579   */\n      dup2\n        /* \"--CODEGEN--\":22571:22591   */\n      sub\n        /* \"--CODEGEN--\":22567:22568   */\n      0x00\n        /* \"--CODEGEN--\":22556:22565   */\n      dup4\n        /* \"--CODEGEN--\":22552:22569   */\n      add\n        /* \"--CODEGEN--\":22545:22592   */\n      mstore\n        /* \"--CODEGEN--\":22606:22737   */\n      tag_892\n        /* \"--CODEGEN--\":22732:22736   */\n      dup2\n        /* \"--CODEGEN--\":22606:22737   */\n      tag_832\n      jump\t// in\n    tag_892:\n        /* \"--CODEGEN--\":22598:22737   */\n      swap1\n      pop\n        /* \"--CODEGEN--\":22502:22747   */\n      swap2\n      swap1\n      pop\n      jump\t// out\n        /* \"--CODEGEN--\":22754:22976   */\n    tag_70:\n      0x00\n        /* \"--CODEGEN--\":22881:22883   */\n      0x20\n        /* \"--CODEGEN--\":22870:22879   */\n      dup3\n        /* \"--CODEGEN--\":22866:22884   */\n      add\n        /* \"--CODEGEN--\":22858:22884   */\n      swap1\n      pop\n        /* \"--CODEGEN--\":22895:22966   */\n      tag_894\n        /* \"--CODEGEN--\":22963:22964   */\n      0x00\n        /* \"--CODEGEN--\":22952:22961   */\n      dup4\n        /* \"--CODEGEN--\":22948:22965   */\n      add\n        /* \"--CODEGEN--\":22939:22945   */\n      dup5\n        /* \"--CODEGEN--\":22895:22966   */\n      tag_838\n      jump\t// in\n    tag_894:\n        /* \"--CODEGEN--\":22852:22976   */\n      swap3\n      swap2\n      pop\n      pop\n      jump\t// out\n        /* \"--CODEGEN--\":22983:23427   */\n    tag_524:\n      0x00\n        /* \"--CODEGEN--\":23166:23168   */\n      0x60\n        /* \"--CODEGEN--\":23155:23164   */\n      dup3\n        /* \"--CODEGEN--\":23151:23169   */\n      add\n        /* \"--CODEGEN--\":23143:23169   */\n      swap1\n      pop\n        /* \"--CODEGEN--\":23180:23251   */\n      tag_896\n        /* \"--CODEGEN--\":23248:23249   */\n      0x00\n        /* \"--CODEGEN--\":23237:23246   */\n      dup4\n        /* \"--CODEGEN--\":23233:23250   */\n      add\n        /* \"--CODEGEN--\":23224:23230   */\n      dup7\n        /* \"--CODEGEN--\":23180:23251   */\n      tag_838\n      jump\t// in\n    tag_896:\n        /* \"--CODEGEN--\":23262:23334   */\n      tag_897\n        /* \"--CODEGEN--\":23330:23332   */\n      0x20\n        /* \"--CODEGEN--\":23319:23328   */\n      dup4\n        /* \"--CODEGEN--\":23315:23333   */\n      add\n        /* \"--CODEGEN--\":23306:23312   */\n      dup6\n        /* \"--CODEGEN--\":23262:23334   */\n      tag_750\n      jump\t// in\n    tag_897:\n        /* \"--CODEGEN--\":23345:23417   */\n      tag_898\n        /* \"--CODEGEN--\":23413:23415   */\n      0x40\n        /* \"--CODEGEN--\":23402:23411   */\n      dup4\n        /* \"--CODEGEN--\":23398:23416   */\n      add\n        /* \"--CODEGEN--\":23389:23395   */\n      dup5\n        /* \"--CODEGEN--\":23345:23417   */\n      tag_838\n      jump\t// in\n    tag_898:\n        /* \"--CODEGEN--\":23137:23427   */\n      swap5\n      swap4\n      pop\n      pop\n      pop\n      pop\n      jump\t// out\n        /* \"--CODEGEN--\":23434:23878   */\n    tag_244:\n      0x00\n        /* \"--CODEGEN--\":23617:23619   */\n      0x60\n        /* \"--CODEGEN--\":23606:23615   */\n      dup3\n        /* \"--CODEGEN--\":23602:23620   */\n      add\n        /* \"--CODEGEN--\":23594:23620   */\n      swap1\n      pop\n        /* \"--CODEGEN--\":23631:23702   */\n      tag_900\n        /* \"--CODEGEN--\":23699:23700   */\n      0x00\n        /* \"--CODEGEN--\":23688:23697   */\n      dup4\n        /* \"--CODEGEN--\":23684:23701   */\n      add\n        /* \"--CODEGEN--\":23675:23681   */\n      dup7\n        /* \"--CODEGEN--\":23631:23702   */\n      tag_838\n      jump\t// in\n    tag_900:\n        /* \"--CODEGEN--\":23713:23785   */\n      tag_901\n        /* \"--CODEGEN--\":23781:23783   */\n      0x20\n        /* \"--CODEGEN--\":23770:23779   */\n      dup4\n        /* \"--CODEGEN--\":23766:23784   */\n      add\n        /* \"--CODEGEN--\":23757:23763   */\n      dup6\n        /* \"--CODEGEN--\":23713:23785   */\n      tag_838\n      jump\t// in\n    tag_901:\n        /* \"--CODEGEN--\":23796:23868   */\n      tag_902\n        /* \"--CODEGEN--\":23864:23866   */\n      0x40\n        /* \"--CODEGEN--\":23853:23862   */\n      dup4\n        /* \"--CODEGEN--\":23849:23867   */\n      add\n        /* \"--CODEGEN--\":23840:23846   */\n      dup5\n        /* \"--CODEGEN--\":23796:23868   */\n      tag_838\n      jump\t// in\n    tag_902:\n        /* \"--CODEGEN--\":23588:23878   */\n      swap5\n      swap4\n      pop\n      pop\n      pop\n      pop\n      jump\t// out\n        /* \"--CODEGEN--\":23885:24141   */\n    tag_666:\n      0x00\n        /* \"--CODEGEN--\":23947:23949   */\n      0x40\n        /* \"--CODEGEN--\":23941:23950   */\n      mload\n        /* \"--CODEGEN--\":23931:23950   */\n      swap1\n      pop\n        /* \"--CODEGEN--\":23985:23989   */\n      dup2\n        /* \"--CODEGEN--\":23977:23983   */\n      dup2\n        /* \"--CODEGEN--\":23973:23990   */\n      add\n        /* \"--CODEGEN--\":24084:24090   */\n      dup2\n        /* \"--CODEGEN--\":24072:24082   */\n      dup2\n        /* \"--CODEGEN--\":24069:24091   */\n      lt\n        /* \"--CODEGEN--\":24048:24066   */\n      0xffffffffffffffff\n        /* \"--CODEGEN--\":24036:24046   */\n      dup3\n        /* \"--CODEGEN--\":24033:24067   */\n      gt\n        /* \"--CODEGEN--\":24030:24092   */\n      or\n        /* \"--CODEGEN--\":24027:24029   */\n      iszero\n      tag_904\n      jumpi\n        /* \"--CODEGEN--\":24105:24106   */\n      0x00\n        /* \"--CODEGEN--\":24102:24103   */\n      dup1\n        /* \"--CODEGEN--\":24095:24107   */\n      revert\n        /* \"--CODEGEN--\":24027:24029   */\n    tag_904:\n        /* \"--CODEGEN--\":24125:24135   */\n      dup1\n        /* \"--CODEGEN--\":24121:24123   */\n      0x40\n        /* \"--CODEGEN--\":24114:24136   */\n      mstore\n        /* \"--CODEGEN--\":23925:24141   */\n      pop\n      swap2\n      swap1\n      pop\n      jump\t// out\n        /* \"--CODEGEN--\":24148:24452   */\n    tag_665:\n      0x00\n        /* \"--CODEGEN--\":24307:24325   */\n      0xffffffffffffffff\n        /* \"--CODEGEN--\":24299:24305   */\n      dup3\n        /* \"--CODEGEN--\":24296:24326   */\n      gt\n        /* \"--CODEGEN--\":24293:24295   */\n      iszero\n      tag_906\n      jumpi\n        /* \"--CODEGEN--\":24339:24340   */\n      0x00\n        /* \"--CODEGEN--\":24336:24337   */\n      dup1\n        /* \"--CODEGEN--\":24329:24341   */\n      revert\n        /* \"--CODEGEN--\":24293:24295   */\n    tag_906:\n        /* \"--CODEGEN--\":24374:24378   */\n      0x20\n        /* \"--CODEGEN--\":24366:24372   */\n      dup3\n        /* \"--CODEGEN--\":24362:24379   */\n      mul\n        /* \"--CODEGEN--\":24354:24379   */\n      swap1\n      pop\n        /* \"--CODEGEN--\":24437:24441   */\n      0x20\n        /* \"--CODEGEN--\":24431:24435   */\n      dup2\n        /* \"--CODEGEN--\":24427:24442   */\n      add\n        /* \"--CODEGEN--\":24419:24442   */\n      swap1\n      pop\n        /* \"--CODEGEN--\":24230:24452   */\n      swap2\n      swap1\n      pop\n      jump\t// out\n        /* \"--CODEGEN--\":24459:24610   */\n    tag_761:\n      0x00\n        /* \"--CODEGEN--\":24545:24548   */\n      dup2\n        /* \"--CODEGEN--\":24537:24548   */\n      swap1\n      pop\n        /* \"--CODEGEN--\":24583:24587   */\n      0x20\n        /* \"--CODEGEN--\":24578:24581   */\n      dup3\n        /* \"--CODEGEN--\":24574:24588   */\n      add\n        /* \"--CODEGEN--\":24566:24588   */\n      swap1\n      pop\n        /* \"--CODEGEN--\":24531:24610   */\n      swap2\n      swap1\n      pop\n      jump\t// out\n        /* \"--CODEGEN--\":24617:24754   */\n    tag_757:\n      0x00\n        /* \"--CODEGEN--\":24726:24731   */\n      dup2\n        /* \"--CODEGEN--\":24720:24732   */\n      mload\n        /* \"--CODEGEN--\":24710:24732   */\n      swap1\n      pop\n        /* \"--CODEGEN--\":24691:24754   */\n      swap2\n      swap1\n      pop\n      jump\t// out\n        /* \"--CODEGEN--\":24761:24882   */\n    tag_775:\n      0x00\n        /* \"--CODEGEN--\":24854:24859   */\n      dup2\n        /* \"--CODEGEN--\":24848:24860   */\n      mload\n        /* \"--CODEGEN--\":24838:24860   */\n      swap1\n      pop\n        /* \"--CODEGEN--\":24819:24882   */\n      swap2\n      swap1\n      pop\n      jump\t// out\n        /* \"--CODEGEN--\":24889:25011   */\n    tag_787:\n      0x00\n        /* \"--CODEGEN--\":24983:24988   */\n      dup2\n        /* \"--CODEGEN--\":24977:24989   */\n      mload\n        /* \"--CODEGEN--\":24967:24989   */\n      swap1\n      pop\n        /* \"--CODEGEN--\":24948:25011   */\n      swap2\n      swap1\n      pop\n      jump\t// out\n        /* \"--CODEGEN--\":25018:25126   */\n    tag_767:\n      0x00\n        /* \"--CODEGEN--\":25116:25120   */\n      0x20\n        /* \"--CODEGEN--\":25111:25114   */\n      dup3\n        /* \"--CODEGEN--\":25107:25121   */\n      add\n        /* \"--CODEGEN--\":25099:25121   */\n      swap1\n      pop\n        /* \"--CODEGEN--\":25093:25126   */\n      swap2\n      swap1\n      pop\n      jump\t// out\n        /* \"--CODEGEN--\":25134:25312   */\n    tag_759:\n      0x00\n        /* \"--CODEGEN--\":25264:25270   */\n      dup3\n        /* \"--CODEGEN--\":25259:25262   */\n      dup3\n        /* \"--CODEGEN--\":25252:25271   */\n      mstore\n        /* \"--CODEGEN--\":25301:25305   */\n      0x20\n        /* \"--CODEGEN--\":25296:25299   */\n      dup3\n        /* \"--CODEGEN--\":25292:25306   */\n      add\n        /* \"--CODEGEN--\":25277:25306   */\n      swap1\n      pop\n        /* \"--CODEGEN--\":25245:25312   */\n      swap3\n      swap2\n      pop\n      pop\n      jump\t// out\n        /* \"--CODEGEN--\":25321:25465   */\n    tag_777:\n      0x00\n        /* \"--CODEGEN--\":25456:25459   */\n      dup2\n        /* \"--CODEGEN--\":25441:25459   */\n      swap1\n      pop\n        /* \"--CODEGEN--\":25434:25465   */\n      swap3\n      swap2\n      pop\n      pop\n      jump\t// out\n        /* \"--CODEGEN--\":25474:25637   */\n    tag_789:\n      0x00\n        /* \"--CODEGEN--\":25589:25595   */\n      dup3\n        /* \"--CODEGEN--\":25584:25587   */\n      dup3\n        /* \"--CODEGEN--\":25577:25596   */\n      mstore\n        /* \"--CODEGEN--\":25626:25630   */\n      0x20\n        /* \"--CODEGEN--\":25621:25624   */\n      dup3\n        /* \"--CODEGEN--\":25617:25631   */\n      add\n        /* \"--CODEGEN--\":25602:25631   */\n      swap1\n      pop\n        /* \"--CODEGEN--\":25570:25637   */\n      swap3\n      swap2\n      pop\n      pop\n      jump\t// out\n        /* \"--CODEGEN--\":25645:25736   */\n    tag_753:\n      0x00\n        /* \"--CODEGEN--\":25707:25731   */\n      tag_916\n        /* \"--CODEGEN--\":25725:25730   */\n      dup3\n        /* \"--CODEGEN--\":25707:25731   */\n      tag_917\n      jump\t// in\n    tag_916:\n        /* \"--CODEGEN--\":25696:25731   */\n      swap1\n      pop\n        /* \"--CODEGEN--\":25690:25736   */\n      swap2\n      swap1\n      pop\n      jump\t// out\n        /* \"--CODEGEN--\":25743:25842   */\n    tag_918:\n      0x00\n        /* \"--CODEGEN--\":25813:25837   */\n      tag_920\n        /* \"--CODEGEN--\":25831:25836   */\n      dup3\n        /* \"--CODEGEN--\":25813:25837   */\n      tag_917\n      jump\t// in\n    tag_920:\n        /* \"--CODEGEN--\":25802:25837   */\n      swap1\n      pop\n        /* \"--CODEGEN--\":25796:25842   */\n      swap2\n      swap1\n      pop\n      jump\t// out\n        /* \"--CODEGEN--\":25849:25934   */\n    tag_771:\n      0x00\n        /* \"--CODEGEN--\":25922:25927   */\n      dup2\n        /* \"--CODEGEN--\":25915:25928   */\n      iszero\n        /* \"--CODEGEN--\":25908:25929   */\n      iszero\n        /* \"--CODEGEN--\":25897:25929   */\n      swap1\n      pop\n        /* \"--CODEGEN--\":25891:25934   */\n      swap2\n      swap1\n      pop\n      jump\t// out\n        /* \"--CODEGEN--\":25941:26045   */\n    tag_922:\n      0x00\n        /* \"--CODEGEN--\":26016:26040   */\n      tag_924\n        /* \"--CODEGEN--\":26034:26039   */\n      dup3\n        /* \"--CODEGEN--\":26016:26040   */\n      tag_753\n      jump\t// in\n    tag_924:\n        /* \"--CODEGEN--\":26005:26040   */\n      swap1\n      pop\n        /* \"--CODEGEN--\":25999:26045   */\n      swap2\n      swap1\n      pop\n      jump\t// out\n        /* \"--CODEGEN--\":26052:26173   */\n    tag_917:\n      0x00\n        /* \"--CODEGEN--\":26125:26167   */\n      0xffffffffffffffffffffffffffffffffffffffff\n        /* \"--CODEGEN--\":26118:26123   */\n      dup3\n        /* \"--CODEGEN--\":26114:26168   */\n      and\n        /* \"--CODEGEN--\":26103:26168   */\n      swap1\n      pop\n        /* \"--CODEGEN--\":26097:26173   */\n      swap2\n      swap1\n      pop\n      jump\t// out\n        /* \"--CODEGEN--\":26180:26252   */\n    tag_837:\n      0x00\n        /* \"--CODEGEN--\":26242:26247   */\n      dup2\n        /* \"--CODEGEN--\":26231:26247   */\n      swap1\n      pop\n        /* \"--CODEGEN--\":26225:26252   */\n      swap2\n      swap1\n      pop\n      jump\t// out\n        /* \"--CODEGEN--\":26259:26388   */\n    tag_749:\n      0x00\n        /* \"--CODEGEN--\":26346:26383   */\n      tag_928\n        /* \"--CODEGEN--\":26377:26382   */\n      dup3\n        /* \"--CODEGEN--\":26346:26383   */\n      tag_929\n      jump\t// in\n    tag_928:\n        /* \"--CODEGEN--\":26333:26383   */\n      swap1\n      pop\n        /* \"--CODEGEN--\":26327:26388   */\n      swap2\n      swap1\n      pop\n      jump\t// out\n        /* \"--CODEGEN--\":26395:26542   */\n    tag_783:\n      0x00\n        /* \"--CODEGEN--\":26487:26537   */\n      tag_931\n        /* \"--CODEGEN--\":26531:26536   */\n      dup3\n        /* \"--CODEGEN--\":26487:26537   */\n      tag_932\n      jump\t// in\n    tag_931:\n        /* \"--CODEGEN--\":26474:26537   */\n      swap1\n      pop\n        /* \"--CODEGEN--\":26468:26542   */\n      swap2\n      swap1\n      pop\n      jump\t// out\n        /* \"--CODEGEN--\":26549:26670   */\n    tag_932:\n      0x00\n        /* \"--CODEGEN--\":26641:26665   */\n      tag_934\n        /* \"--CODEGEN--\":26659:26664   */\n      dup3\n        /* \"--CODEGEN--\":26641:26665   */\n      tag_917\n      jump\t// in\n    tag_934:\n        /* \"--CODEGEN--\":26628:26665   */\n      swap1\n      pop\n        /* \"--CODEGEN--\":26622:26670   */\n      swap2\n      swap1\n      pop\n      jump\t// out\n        /* \"--CODEGEN--\":26677:26798   */\n    tag_929:\n      0x00\n        /* \"--CODEGEN--\":26756:26793   */\n      tag_936\n        /* \"--CODEGEN--\":26787:26792   */\n      dup3\n        /* \"--CODEGEN--\":26756:26793   */\n      tag_937\n      jump\t// in\n    tag_936:\n        /* \"--CODEGEN--\":26743:26793   */\n      swap1\n      pop\n        /* \"--CODEGEN--\":26737:26798   */\n      swap2\n      swap1\n      pop\n      jump\t// out\n        /* \"--CODEGEN--\":26805:26913   */\n    tag_937:\n      0x00\n        /* \"--CODEGEN--\":26884:26908   */\n      tag_939\n        /* \"--CODEGEN--\":26902:26907   */\n      dup3\n        /* \"--CODEGEN--\":26884:26908   */\n      tag_917\n      jump\t// in\n    tag_939:\n        /* \"--CODEGEN--\":26871:26908   */\n      swap1\n      pop\n        /* \"--CODEGEN--\":26865:26913   */\n      swap2\n      swap1\n      pop\n      jump\t// out\n        /* \"--CODEGEN--\":26921:27189   */\n    tag_779:\n        /* \"--CODEGEN--\":26986:26987   */\n      0x00\n        /* \"--CODEGEN--\":26993:27094   */\n    tag_941:\n        /* \"--CODEGEN--\":27007:27013   */\n      dup4\n        /* \"--CODEGEN--\":27004:27005   */\n      dup2\n        /* \"--CODEGEN--\":27001:27014   */\n      lt\n        /* \"--CODEGEN--\":26993:27094   */\n      iszero\n      tag_943\n      jumpi\n        /* \"--CODEGEN--\":27083:27084   */\n      dup1\n        /* \"--CODEGEN--\":27078:27081   */\n      dup3\n        /* \"--CODEGEN--\":27074:27085   */\n      add\n        /* \"--CODEGEN--\":27068:27086   */\n      mload\n        /* \"--CODEGEN--\":27064:27065   */\n      dup2\n        /* \"--CODEGEN--\":27059:27062   */\n      dup5\n        /* \"--CODEGEN--\":27055:27066   */\n      add\n        /* \"--CODEGEN--\":27048:27087   */\n      mstore\n        /* \"--CODEGEN--\":27029:27031   */\n      0x20\n        /* \"--CODEGEN--\":27026:27027   */\n      dup2\n        /* \"--CODEGEN--\":27022:27032   */\n      add\n        /* \"--CODEGEN--\":27017:27032   */\n      swap1\n      pop\n        /* \"--CODEGEN--\":26993:27094   */\n      jump(tag_941)\n    tag_943:\n        /* \"--CODEGEN--\":27109:27115   */\n      dup4\n        /* \"--CODEGEN--\":27106:27107   */\n      dup2\n        /* \"--CODEGEN--\":27103:27116   */\n      gt\n        /* \"--CODEGEN--\":27100:27102   */\n      iszero\n      tag_944\n      jumpi\n        /* \"--CODEGEN--\":27174:27175   */\n      0x00\n        /* \"--CODEGEN--\":27165:27171   */\n      dup5\n        /* \"--CODEGEN--\":27160:27163   */\n      dup5\n        /* \"--CODEGEN--\":27156:27172   */\n      add\n        /* \"--CODEGEN--\":27149:27176   */\n      mstore\n        /* \"--CODEGEN--\":27100:27102   */\n    tag_944:\n        /* \"--CODEGEN--\":26970:27189   */\n      pop\n      pop\n      pop\n      pop\n      jump\t// out\n        /* \"--CODEGEN--\":27197:27294   */\n    tag_792:\n      0x00\n        /* \"--CODEGEN--\":27285:27287   */\n      0x1f\n        /* \"--CODEGEN--\":27281:27288   */\n      not\n        /* \"--CODEGEN--\":27276:27278   */\n      0x1f\n        /* \"--CODEGEN--\":27269:27274   */\n      dup4\n        /* \"--CODEGEN--\":27265:27279   */\n      add\n        /* \"--CODEGEN--\":27261:27289   */\n      and\n        /* \"--CODEGEN--\":27251:27289   */\n      swap1\n      pop\n        /* \"--CODEGEN--\":27245:27294   */\n      swap2\n      swap1\n      pop\n      jump\t// out\n        /* \"--CODEGEN--\":27302:27419   */\n    tag_655:\n        /* \"--CODEGEN--\":27371:27395   */\n      tag_947\n        /* \"--CODEGEN--\":27389:27394   */\n      dup2\n        /* \"--CODEGEN--\":27371:27395   */\n      tag_753\n      jump\t// in\n    tag_947:\n        /* \"--CODEGEN--\":27364:27369   */\n      dup2\n        /* \"--CODEGEN--\":27361:27396   */\n      eq\n        /* \"--CODEGEN--\":27351:27353   */\n      tag_948\n      jumpi\n        /* \"--CODEGEN--\":27410:27411   */\n      0x00\n        /* \"--CODEGEN--\":27407:27408   */\n      dup1\n        /* \"--CODEGEN--\":27400:27412   */\n      revert\n        /* \"--CODEGEN--\":27351:27353   */\n    tag_948:\n        /* \"--CODEGEN--\":27345:27419   */\n      pop\n      jump\t// out\n        /* \"--CODEGEN--\":27426:27559   */\n    tag_659:\n        /* \"--CODEGEN--\":27503:27535   */\n      tag_950\n        /* \"--CODEGEN--\":27529:27534   */\n      dup2\n        /* \"--CODEGEN--\":27503:27535   */\n      tag_918\n      jump\t// in\n    tag_950:\n        /* \"--CODEGEN--\":27496:27501   */\n      dup2\n        /* \"--CODEGEN--\":27493:27536   */\n      eq\n        /* \"--CODEGEN--\":27483:27485   */\n      tag_951\n      jumpi\n        /* \"--CODEGEN--\":27550:27551   */\n      0x00\n        /* \"--CODEGEN--\":27547:27548   */\n      dup1\n        /* \"--CODEGEN--\":27540:27552   */\n      revert\n        /* \"--CODEGEN--\":27483:27485   */\n    tag_951:\n        /* \"--CODEGEN--\":27477:27559   */\n      pop\n      jump\t// out\n        /* \"--CODEGEN--\":27566:27677   */\n    tag_676:\n        /* \"--CODEGEN--\":27632:27653   */\n      tag_953\n        /* \"--CODEGEN--\":27647:27652   */\n      dup2\n        /* \"--CODEGEN--\":27632:27653   */\n      tag_771\n      jump\t// in\n    tag_953:\n        /* \"--CODEGEN--\":27625:27630   */\n      dup2\n        /* \"--CODEGEN--\":27622:27654   */\n      eq\n        /* \"--CODEGEN--\":27612:27614   */\n      tag_954\n      jumpi\n        /* \"--CODEGEN--\":27668:27669   */\n      0x00\n        /* \"--CODEGEN--\":27665:27666   */\n      dup1\n        /* \"--CODEGEN--\":27658:27670   */\n      revert\n        /* \"--CODEGEN--\":27612:27614   */\n    tag_954:\n        /* \"--CODEGEN--\":27606:27677   */\n      pop\n      jump\t// out\n        /* \"--CODEGEN--\":27684:27827   */\n    tag_683:\n        /* \"--CODEGEN--\":27766:27803   */\n      tag_956\n        /* \"--CODEGEN--\":27797:27802   */\n      dup2\n        /* \"--CODEGEN--\":27766:27803   */\n      tag_922\n      jump\t// in\n    tag_956:\n        /* \"--CODEGEN--\":27759:27764   */\n      dup2\n        /* \"--CODEGEN--\":27756:27804   */\n      eq\n        /* \"--CODEGEN--\":27746:27748   */\n      tag_957\n      jumpi\n        /* \"--CODEGEN--\":27818:27819   */\n      0x00\n        /* \"--CODEGEN--\":27815:27816   */\n      dup1\n        /* \"--CODEGEN--\":27808:27820   */\n      revert\n        /* \"--CODEGEN--\":27746:27748   */\n    tag_957:\n        /* \"--CODEGEN--\":27740:27827   */\n      pop\n      jump\t// out\n        /* \"--CODEGEN--\":27834:27951   */\n    tag_693:\n        /* \"--CODEGEN--\":27903:27927   */\n      tag_959\n        /* \"--CODEGEN--\":27921:27926   */\n      dup2\n        /* \"--CODEGEN--\":27903:27927   */\n      tag_837\n      jump\t// in\n    tag_959:\n        /* \"--CODEGEN--\":27896:27901   */\n      dup2\n        /* \"--CODEGEN--\":27893:27928   */\n      eq\n        /* \"--CODEGEN--\":27883:27885   */\n      tag_960\n      jumpi\n        /* \"--CODEGEN--\":27942:27943   */\n      0x00\n        /* \"--CODEGEN--\":27939:27940   */\n      dup1\n        /* \"--CODEGEN--\":27932:27944   */\n      revert\n        /* \"--CODEGEN--\":27883:27885   */\n    tag_960:\n        /* \"--CODEGEN--\":27877:27951   */\n      pop\n      jump\t// out\n\n    auxdata: 0xa264697066735822122007cdf9c4c0ec4b160d233ed4ee801d87eecf37112a4938059b10bc2525e4035364736f6c634300060c0033\n}\n",
				"bytecode": {
					"linkReferences": {},
					"object": "60806040526040518060a00160405280670de0b6b3a764000068ffffffffffffffffff168152602001671d24b2dfac52000068ffffffffffffffffff168152602001673d3377a28379000068ffffffffffffffffff168152602001678085ae6ee0e4800068ffffffffffffffffff16815260200168010de587e8d846400068ffffffffffffffffff1681525060009060056200009d92919062000209565b506040518060a00160405280670de0b6b3a764000068ffffffffffffffffff168152602001673782dace9d90000068ffffffffffffffffff168152602001682b5e3af16b1880000068ffffffffffffffffff1681526020016856bc75e2d63100000068ffffffffffffffffff16815260200168a2a15d09519be0000068ffffffffffffffffff1681525060019060056200013992919062000209565b503480156200014757600080fd5b50604051620049133803806200491383398181016040528101906200016d91906200029e565b610190600e81905550622bf200600f819055506014600b8190555042811162000197574262000199565b805b601081905550806011819055506001601260006101000a81548160ff02191690831515021790555033600260006101000a81548173ffffffffffffffffffffffffffffffffffffffff021916908373ffffffffffffffffffffffffffffffffffffffff16021790555050620002ee565b82805482825590600052602060002090810192821562000255579160200282015b8281111562000254578251829068ffffffffffffffffff169055916020019190600101906200022a565b5b50905062000264919062000268565b5090565b5b808211156200028357600081600090555060010162000269565b5090565b6000815190506200029881620002d4565b92915050565b600060208284031215620002b157600080fd5b6000620002c18482850162000287565b91505092915050565b6000819050919050565b620002df81620002ca565b8114620002eb57600080fd5b50565b61461580620002fe6000396000f3fe6080604052600436106102cd5760003560e01c80635c75dcbc116101755780639f7b4579116100dc578063d326159211610095578063e7cc62bd1161006f578063e7cc62bd14610b76578063f65f4eaf14610ba1578063f69e204614610bcc578063fba1f7b014610be35761030d565b8063d326159214610ae3578063de560cca14610b0e578063e300e98b14610b395761030d565b80639f7b4579146109ab578063a87430ba146109d4578063ab4e278514610a13578063adf1b67e14610a3e578063bcb1163914610a7b578063c7ce956014610ab85761030d565b8063740c8af71161012e578063740c8af71461089b57806378e97925146108c657806382bfefc8146108f157806388a8c95c1461091c57806394ac42cc1461094557806395ccea67146109825761030d565b80635c75dcbc1461078b5780635fb11d7e146107b65780635fbb48dc146107f357806363584ecd1461081c578063648acb09146108475780636af904c6146108705761030d565b80632ae2707111610234578063486af96a116101ed5780635083f17b116101c75780635083f17b146106f757806356e1221c146107205780635b0d2d8c146107495780635b2f3c8e146107745761030d565b8063486af96a146106785780634b3dd5b5146106b55780634e71d92d146106e05761030d565b80632ae27071146105465780632bcf161c1461056f578063328d8f72146105ac57806335771fe0146105d55780633e0a322d1461061257806344886d701461063b5761030d565b80631fa36cbe116102865780631fa36cbe14610410578063211aea021461043b5780632365d7bc14610478578063238dafe0146104b55780632702dfe7146104e0578063277e5316146105095761030d565b8063059f8b161461031257806305c4744b1461033d57806305d6bbf41461035457806312065fe01461037f5780631d1c7b4e146103aa5780631ed5c6c2146103e75761030d565b3661030d576040517f08c379a000000000000000000000000000000000000000000000000000000000815260040161030490614219565b60405180910390fd5b600080fd5b34801561031e57600080fd5b50610327610c0e565b6040516103349190614319565b60405180910390f35b34801561034957600080fd5b50610352610c1a565b005b34801561036057600080fd5b50610369610c93565b6040516103769190614319565b60405180910390f35b34801561038b57600080fd5b50610394610c99565b6040516103a19190614319565b60405180910390f35b3480156103b657600080fd5b506103d160048036038101906103cc9190613a75565b610d3d565b6040516103de9190614319565b60405180910390f35b3480156103f357600080fd5b5061040e60048036038101906104099190613a75565b610d55565b005b34801561041c57600080fd5b50610425610def565b6040516104329190614319565b60405180910390f35b34801561044757600080fd5b50610462600480360381019061045d9190613a75565b610e6c565b60405161046f9190614020565b60405180910390f35b34801561048457600080fd5b5061049f600480360381019061049a9190613a75565b610ea8565b6040516104ac9190614319565b60405180910390f35b3480156104c157600080fd5b506104ca610ec9565b6040516104d79190614101565b60405180910390f35b3480156104ec57600080fd5b5061050760048036038101906105029190613903565b610edc565b005b34801561051557600080fd5b50610530600480360381019061052b919061385d565b6110ec565b60405161053d9190614319565b60405180910390f35b34801561055257600080fd5b5061056d6004803603810190610568919061397b565b6111b6565b005b34801561057b57600080fd5b506105966004803603810190610591919061385d565b6112bc565b6040516105a39190614319565b60405180910390f35b3480156105b857600080fd5b506105d360048036038101906105ce91906139e7565b6113fc565b005b3480156105e157600080fd5b506105fc60048036038101906105f79190613a75565b6114a9565b6040516106099190614319565b60405180910390f35b34801561061e57600080fd5b5061063960048036038101906106349190613a75565b6114ca565b005b34801561064757600080fd5b50610662600480360381019061065d919061385d565b611564565b60405161066f9190614101565b60405180910390f35b34801561068457600080fd5b5061069f600480360381019061069a919061385d565b6115bb565b6040516106ac91906140df565b60405180910390f35b3480156106c157600080fd5b506106ca6116c1565b6040516106d79190614319565b60405180910390f35b3480156106ec57600080fd5b506106f561173c565b005b34801561070357600080fd5b5061071e600480360381019061071991906138af565b611943565b005b34801561072c57600080fd5b5061074760048036038101906107429190613a75565b611b0b565b005b34801561075557600080fd5b5061075e611ba5565b60405161076b9190614319565b60405180910390f35b34801561078057600080fd5b50610789611bdc565b005b34801561079757600080fd5b506107a0611c05565b6040516107ad9190614319565b60405180910390f35b3480156107c257600080fd5b506107dd60048036038101906107d8919061385d565b611c0b565b6040516107ea9190614319565b60405180910390f35b3480156107ff57600080fd5b5061081a60048036038101906108159190613a75565b611cc7565b005b34801561082857600080fd5b50610831611d61565b60405161083e91906140df565b60405180910390f35b34801561085357600080fd5b5061086e60048036038101906108699190613a75565b611e28565b005b34801561087c57600080fd5b50610885611ec2565b6040516108929190614319565b60405180910390f35b3480156108a757600080fd5b506108b0611ec8565b6040516108bd9190614319565b60405180910390f35b3480156108d257600080fd5b506108db611ece565b6040516108e89190614319565b60405180910390f35b3480156108fd57600080fd5b50610906611ed4565b604051610913919061411c565b60405180910390f35b34801561092857600080fd5b50610943600480360381019061093e9190613886565b611eec565b005b34801561095157600080fd5b5061096c6004803603810190610967919061385d565b612030565b6040516109799190614319565b60405180910390f35b34801561098e57600080fd5b506109a960048036038101906109a49190613a39565b6120c6565b005b3480156109b757600080fd5b506109d260048036038101906109cd9190613ac7565b6121a7565b005b3480156109e057600080fd5b506109fb60048036038101906109f6919061385d565b61285b565b604051610a0a9392919061436b565b60405180910390f35b348015610a1f57600080fd5b50610a28612885565b604051610a359190614319565b60405180910390f35b348015610a4a57600080fd5b50610a656004803603810190610a60919061393f565b61288b565b604051610a729190614319565b60405180910390f35b348015610a8757600080fd5b50610aa26004803603810190610a9d919061393f565b6128b0565b604051610aaf9190614319565b60405180910390f35b348015610ac457600080fd5b50610acd61290b565b604051610ada9190614319565b60405180910390f35b348015610aef57600080fd5b50610af8612911565b604051610b059190614319565b60405180910390f35b348015610b1a57600080fd5b50610b23612917565b604051610b309190614319565b60405180910390f35b348015610b4557600080fd5b50610b606004803603810190610b5b919061385d565b61291d565b604051610b6d9190614319565b60405180910390f35b348015610b8257600080fd5b50610b8b612990565b604051610b989190614319565b60405180910390f35b348015610bad57600080fd5b50610bb661299d565b604051610bc39190614319565b60405180910390f35b348015610bd857600080fd5b50610be16129a3565b005b348015610bef57600080fd5b50610bf8612a51565b604051610c059190614319565b60405180910390f35b678ac7230489e8000081565b6000600a541115610c9157610c88600260009054906101000a900473ffffffffffffffffffffffffffffffffffffffff16600a5473d9ff12172803c072a36785defea1aa981a6a0c1873ffffffffffffffffffffffffffffffffffffffff16612a579092919063ffffffff16565b6000600a819055505b565b60095481565b600073d9ff12172803c072a36785defea1aa981a6a0c1873ffffffffffffffffffffffffffffffffffffffff166370a08231306040518263ffffffff1660e01b8152600401610ce8919061403b565b60206040518083038186803b158015610d0057600080fd5b505afa158015610d14573d6000803e3d6000fd5b505050506040513d601f19601f82011682018060405250810190610d389190613a9e565b905090565b60056020528060005260406000206000915090505481565b600260009054906101000a900473ffffffffffffffffffffffffffffffffffffffff1673ffffffffffffffffffffffffffffffffffffffff163373ffffffffffffffffffffffffffffffffffffffff1614610de5576040517f08c379a0000000000000000000000000000000000000000000000000000000008152600401610ddc90614159565b60405180910390fd5b8060108190555050565b6000806000905060005b600080549050811015610e6457610e55610e46600560008481526020019081526020016000205460008481548110610e2d57fe5b9060005260206000200154612add90919063ffffffff16565b83612b4d90919063ffffffff16565b91508080600101915050610df9565b508091505090565b60068181548110610e7957fe5b906000526020600020016000915054906101000a900473ffffffffffffffffffffffffffffffffffffffff1681565b60008181548110610eb557fe5b906000526020600020016000915090505481565b601260009054906101000a900460ff1681565b600260009054906101000a900473ffffffffffffffffffffffffffffffffffffffff1673ffffffffffffffffffffffffffffffffffffffff163373ffffffffffffffffffffffffffffffffffffffff1614610f6c576040517f08c379a0000000000000000000000000000000000000000000000000000000008152600401610f6390614159565b60405180910390fd5b610fd98160000151610fcb600360008673ffffffffffffffffffffffffffffffffffffffff1673ffffffffffffffffffffffffffffffffffffffff16815260200190815260200160002060000154600754612ba290919063ffffffff16565b612b4d90919063ffffffff16565b60078190555061104c816020015161103e600360008673ffffffffffffffffffffffffffffffffffffffff1673ffffffffffffffffffffffffffffffffffffffff16815260200190815260200160002060010154600854612ba290919063ffffffff16565b612b4d90919063ffffffff16565b6008819055508060000151600360008473ffffffffffffffffffffffffffffffffffffffff1673ffffffffffffffffffffffffffffffffffffffff168152602001908152602001600020600001819055508060200151600360008473ffffffffffffffffffffffffffffffffffffffff1673ffffffffffffffffffffffffffffffffffffffff168152602001908152602001600020600101819055505050565b60006110f782611564565b1561110557600090506111b1565b600061115e600360008573ffffffffffffffffffffffffffffffffffffffff1673ffffffffffffffffffffffffffffffffffffffff16815260200190815260200160002060020154600d54612ba290919063ffffffff16565b90506000611197678ac7230489e800006111898461117b88611c0b565b612add90919063ffffffff16565b612bec90919063ffffffff16565b905060095481116111a857806111ac565b6009545b925050505b919050565b600260009054906101000a900473ffffffffffffffffffffffffffffffffffffffff1673ffffffffffffffffffffffffffffffffffffffff163373ffffffffffffffffffffffffffffffffffffffff1614611246576040517f08c379a000000000000000000000000000000000000000000000000000000000815260040161123d90614159565b60405180910390fd5b805182511461128a576040517f08c379a000000000000000000000000000000000000000000000000000000000815260040161128190614299565b60405180910390fd5b81600090805190602001906112a092919061367d565b5080600190805190602001906112b792919061367d565b505050565b600080600360008473ffffffffffffffffffffffffffffffffffffffff1673ffffffffffffffffffffffffffffffffffffffff16815260200190815260200160002060000154141561131157600090506113f7565b6000611368611351611321610def565b61134361132d87611c0b565b6113356116c1565b612add90919063ffffffff16565b612bec90919063ffffffff16565b61135a856110ec565b612b4d90919063ffffffff16565b90506000600360008573ffffffffffffffffffffffffffffffffffffffff1673ffffffffffffffffffffffffffffffffffffffff16815260200190815260200160002060010154905060006113bc8561291d565b9050806113d28484612b4d90919063ffffffff16565b116113dd57826113f1565b6113f08282612ba290919063ffffffff16565b5b93505050505b919050565b600260009054906101000a900473ffffffffffffffffffffffffffffffffffffffff1673ffffffffffffffffffffffffffffffffffffffff163373ffffffffffffffffffffffffffffffffffffffff161461148c576040517f08c379a000000000000000000000000000000000000000000000000000000000815260040161148390614159565b60405180910390fd5b80601260006101000a81548160ff02191690831515021790555050565b600181815481106114b657fe5b906000526020600020016000915090505481565b600260009054906101000a900473ffffffffffffffffffffffffffffffffffffffff1673ffffffffffffffffffffffffffffffffffffffff163373ffffffffffffffffffffffffffffffffffffffff161461155a576040517f08c379a000000000000000000000000000000000000000000000000000000000815260040161155190614159565b60405180910390fd5b8060118190555050565b600061156f8261291d565b600360008473ffffffffffffffffffffffffffffffffffffffff1673ffffffffffffffffffffffffffffffffffffffff1681526020019081526020016000206001015410159050919050565b60608060008054905067ffffffffffffffff811180156115da57600080fd5b506040519080825280602002602001820160405280156116095781602001602082028036833780820191505090505b50905060005b6000805490508110156116b757611692600460008673ffffffffffffffffffffffffffffffffffffffff1673ffffffffffffffffffffffffffffffffffffffff16815260200190815260200160002060008381526020019081526020016000205483838151811061167c57fe5b6020026020010151612b4d90919063ffffffff16565b82828151811061169e57fe5b602002602001018181525050808060010191505061160f565b5080915050919050565b60004260105410156117345760006116d7611ba5565b905060006116f060105442612ba290919063ffffffff16565b9050600061171b600f5461170d8585612add90919063ffffffff16565b612bec90919063ffffffff16565b905082811115611729578290505b809350505050611739565b600090505b90565b611744611bdc565b60003390506000611754826110ec565b9050600081111561193f5761177481600954612ba290919063ffffffff16565b6009819055506000600360008473ffffffffffffffffffffffffffffffffffffffff1673ffffffffffffffffffffffffffffffffffffffff16815260200190815260200160002060010154905060006117cc8461291d565b9050806117e28484612b4d90919063ffffffff16565b11156117fe576117fb8282612ba290919063ffffffff16565b92505b61185383600360008773ffffffffffffffffffffffffffffffffffffffff1673ffffffffffffffffffffffffffffffffffffffff16815260200190815260200160002060010154612b4d90919063ffffffff16565b600360008673ffffffffffffffffffffffffffffffffffffffff1673ffffffffffffffffffffffffffffffffffffffff168152602001908152602001600020600101819055506118ae83600854612b4d90919063ffffffff16565b6008819055506118f3848473d9ff12172803c072a36785defea1aa981a6a0c1873ffffffffffffffffffffffffffffffffffffffff16612a579092919063ffffffff16565b600d54600360008673ffffffffffffffffffffffffffffffffffffffff1673ffffffffffffffffffffffffffffffffffffffff1681526020019081526020016000206002018190555050505b5050565b600260009054906101000a900473ffffffffffffffffffffffffffffffffffffffff1673ffffffffffffffffffffffffffffffffffffffff163373ffffffffffffffffffffffffffffffffffffffff16146119d3576040517f08c379a00000000000000000000000000000000000000000000000000000000081526004016119ca90614159565b60405180910390fd5b60005b8151811015611b0657611a7a8282815181106119ee57fe5b6020026020010151611a6c600460008773ffffffffffffffffffffffffffffffffffffffff1673ffffffffffffffffffffffffffffffffffffffff1681526020019081526020016000206000858152602001908152602001600020546005600086815260200190815260200160002054612ba290919063ffffffff16565b612b4d90919063ffffffff16565b6005600083815260200190815260200160002081905550818181518110611a9d57fe5b6020026020010151600460008573ffffffffffffffffffffffffffffffffffffffff1673ffffffffffffffffffffffffffffffffffffffff16815260200190815260200160002060008381526020019081526020016000208190555080806001019150506119d6565b505050565b600260009054906101000a900473ffffffffffffffffffffffffffffffffffffffff1673ffffffffffffffffffffffffffffffffffffffff163373ffffffffffffffffffffffffffffffffffffffff1614611b9b576040517f08c379a0000000000000000000000000000000000000000000000000000000008152600401611b9290614159565b60405180910390fd5b80600b8190555050565b6000611bd7600a54611bc9600954611bbb610c99565b612ba290919063ffffffff16565b612ba290919063ffffffff16565b905090565b6000611be66116c1565b90506000811115611c0257611bfa81612c36565b426010819055505b50565b600b5481565b6000806000905060005b600080549050811015611cbd57611cae611c9f600460008773ffffffffffffffffffffffffffffffffffffffff1673ffffffffffffffffffffffffffffffffffffffff16815260200190815260200160002060008481526020019081526020016000205460008481548110611c8657fe5b9060005260206000200154612add90919063ffffffff16565b83612b4d90919063ffffffff16565b91508080600101915050611c15565b5080915050919050565b600260009054906101000a900473ffffffffffffffffffffffffffffffffffffffff1673ffffffffffffffffffffffffffffffffffffffff163373ffffffffffffffffffffffffffffffffffffffff1614611d57576040517f08c379a0000000000000000000000000000000000000000000000000000000008152600401611d4e90614159565b60405180910390fd5b80600f8190555050565b60608060008054905067ffffffffffffffff81118015611d8057600080fd5b50604051908082528060200260200182016040528015611daf5781602001602082028036833780820191505090505b50905060005b600080549050811015611e2057611dfb6005600083815260200190815260200160002054838381518110611de557fe5b6020026020010151612b4d90919063ffffffff16565b828281518110611e0757fe5b6020026020010181815250508080600101915050611db5565b508091505090565b600260009054906101000a900473ffffffffffffffffffffffffffffffffffffffff1673ffffffffffffffffffffffffffffffffffffffff163373ffffffffffffffffffffffffffffffffffffffff1614611eb8576040517f08c379a0000000000000000000000000000000000000000000000000000000008152600401611eaf90614159565b60405180910390fd5b80600e8190555050565b60085481565b600e5481565b60115481565b73d9ff12172803c072a36785defea1aa981a6a0c1881565b600260009054906101000a900473ffffffffffffffffffffffffffffffffffffffff1673ffffffffffffffffffffffffffffffffffffffff163373ffffffffffffffffffffffffffffffffffffffff1614611f7c576040517f08c379a0000000000000000000000000000000000000000000000000000000008152600401611f7390614159565b60405180910390fd5b600073ffffffffffffffffffffffffffffffffffffffff168173ffffffffffffffffffffffffffffffffffffffff161415611fec576040517f08c379a0000000000000000000000000000000000000000000000000000000008152600401611fe390614239565b60405180910390fd5b80600260006101000a81548173ffffffffffffffffffffffffffffffffffffffff021916908373ffffffffffffffffffffffffffffffffffffffff16021790555050565b60008061203c83611c0b565b11801561204f575061204d82611564565b155b61205a5760006120bf565b6120be600f546120b061206b610def565b6120a261207787611c0b565b61209462015180612086611ba5565b612add90919063ffffffff16565b612add90919063ffffffff16565b612bec90919063ffffffff16565b612bec90919063ffffffff16565b5b9050919050565b600260009054906101000a900473ffffffffffffffffffffffffffffffffffffffff1673ffffffffffffffffffffffffffffffffffffffff163373ffffffffffffffffffffffffffffffffffffffff1614612156576040517f08c379a000000000000000000000000000000000000000000000000000000000815260040161214d90614159565b60405180910390fd5b6121a3600260009054906101000a900473ffffffffffffffffffffffffffffffffffffffff16828473ffffffffffffffffffffffffffffffffffffffff16612a579092919063ffffffff16565b5050565b6000339050601260009054906101000a900460ff1680156121ca57506011544210155b612209576040517f08c379a0000000000000000000000000000000000000000000000000000000008152600401612200906142b9565b60405180910390fd5b60008054905083108015612221575060018054905083105b612260576040517f08c379a000000000000000000000000000000000000000000000000000000000815260040161225790614259565b60405180910390fd5b6000600360008373ffffffffffffffffffffffffffffffffffffffff1673ffffffffffffffffffffffffffffffffffffffff168152602001908152602001600020600001541415612358576006819080600181540180825580915050600190039060005260206000200160009091909190916101000a81548173ffffffffffffffffffffffffffffffffffffffff021916908373ffffffffffffffffffffffffffffffffffffffff160217905550600d54600360008373ffffffffffffffffffffffffffffffffffffffff1673ffffffffffffffffffffffffffffffffffffffff168152602001908152602001600020600201819055505b6000600360008373ffffffffffffffffffffffffffffffffffffffff1673ffffffffffffffffffffffffffffffffffffffff16815260200190815260200160002060000154141580156123b057506123af81611564565b5b156123ff57600d54600360008373ffffffffffffffffffffffffffffffffffffffff1673ffffffffffffffffffffffffffffffffffffffff168152602001908152602001600020600201819055505b600061242b836001868154811061241257fe5b9060005260206000200154612add90919063ffffffff16565b90508073d9ff12172803c072a36785defea1aa981a6a0c1873ffffffffffffffffffffffffffffffffffffffff166370a08231846040518263ffffffff1660e01b815260040161247b9190614020565b60206040518083038186803b15801561249357600080fd5b505afa1580156124a7573d6000803e3d6000fd5b505050506040513d601f19601f820116820180604052508101906124cb9190613a9e565b101561250c576040517f08c379a0000000000000000000000000000000000000000000000000000000008152600401612503906141d9565b60405180910390fd5b8073d9ff12172803c072a36785defea1aa981a6a0c1873ffffffffffffffffffffffffffffffffffffffff1663dd62ed3e84306040518363ffffffff1660e01b815260040161255c929190614056565b60206040518083038186803b15801561257457600080fd5b505afa158015612588573d6000803e3d6000fd5b505050506040513d601f19601f820116820180604052508101906125ac9190613a9e565b10156125ed576040517f08c379a00000000000000000000000000000000000000000000000000000000081526004016125e4906141b9565b60405180910390fd5b61262e82308373d9ff12172803c072a36785defea1aa981a6a0c1873ffffffffffffffffffffffffffffffffffffffff16612cc7909392919063ffffffff16565b61268381600360008573ffffffffffffffffffffffffffffffffffffffff1673ffffffffffffffffffffffffffffffffffffffff16815260200190815260200160002060000154612b4d90919063ffffffff16565b600360008473ffffffffffffffffffffffffffffffffffffffff1673ffffffffffffffffffffffffffffffffffffffff168152602001908152602001600020600001819055506126de81600754612b4d90919063ffffffff16565b60078190555061272061270f6064612701600b5485612add90919063ffffffff16565b612bec90919063ffffffff16565b600a54612b4d90919063ffffffff16565b600a8190555061278983600460008573ffffffffffffffffffffffffffffffffffffffff1673ffffffffffffffffffffffffffffffffffffffff168152602001908152602001600020600087815260200190815260200160002054612b4d90919063ffffffff16565b600460008473ffffffffffffffffffffffffffffffffffffffff1673ffffffffffffffffffffffffffffffffffffffff168152602001908152602001600020600086815260200190815260200160002081905550612803836005600087815260200190815260200160002054612b4d90919063ffffffff16565b60056000868152602001908152602001600020819055507fddc82401ab579d868e816af720a563cdf9f9d0350abb3fa3266bcf33dd4f48ab42838560405161284d93929190614334565b60405180910390a150505050565b60036020528060005260406000206000915090508060000154908060010154908060020154905083565b600a5481565b6004602052816000526040600020602052806000526040600020600091509150505481565b6000600460008473ffffffffffffffffffffffffffffffffffffffff1673ffffffffffffffffffffffffffffffffffffffff168152602001908152602001600020600083815260200190815260200160002054905092915050565b600d5481565b600f5481565b60075481565b6000612989606461297b600e54600360008773ffffffffffffffffffffffffffffffffffffffff1673ffffffffffffffffffffffffffffffffffffffff16815260200190815260200160002060000154612add90919063ffffffff16565b612bec90919063ffffffff16565b9050919050565b6000600680549050905090565b600c5481565b60006129ae336112bc565b905060016000815481106129be57fe5b9060005260206000200154811015612a0b576040517f08c379a0000000000000000000000000000000000000000000000000000000008152600401612a0290614179565b60405180910390fd5b6000612a386001600081548110612a1e57fe5b906000526020600020015483612bec90919063ffffffff16565b9050612a4261173c565b612a4d600082612d50565b5050565b60105481565b612ad88363a9059cbb60e01b8484604051602401612a769291906140b6565b604051602081830303815290604052907bffffffffffffffffffffffffffffffffffffffffffffffffffffffff19166020820180517bffffffffffffffffffffffffffffffffffffffffffffffffffffffff8381831617835250505050613404565b505050565b600080831415612af05760009050612b47565b6000828402905082848281612b0157fe5b0414612b42576040517f08c379a0000000000000000000000000000000000000000000000000000000008152600401612b3990614279565b60405180910390fd5b809150505b92915050565b600080828401905083811015612b98576040517f08c379a0000000000000000000000000000000000000000000000000000000008152600401612b8f90614199565b60405180910390fd5b8091505092915050565b6000612be483836040518060400160405280601e81526020017f536166654d6174683a207375627472616374696f6e206f766572666c6f770000815250613576565b905092915050565b6000612c2e83836040518060400160405280601a81526020017f536166654d6174683a206469766973696f6e206279207a65726f0000000000008152506135d1565b905092915050565b6000811115612cc457612c87612c76612c4d610def565b612c68678ac7230489e8000085612add90919063ffffffff16565b612bec90919063ffffffff16565b600d54612b4d90919063ffffffff16565b600d81905550612ca281600c54612b4d90919063ffffffff16565b600c81905550612cbd81600954612b4d90919063ffffffff16565b6009819055505b50565b612d4a846323b872dd60e01b858585604051602401612ce89392919061407f565b604051602081830303815290604052907bffffffffffffffffffffffffffffffffffffffffffffffffffffffff19166020820180517bffffffffffffffffffffffffffffffffffffffffffffffffffffffff8381831617835250505050613404565b50505050565b6000339050601260009054906101000a900460ff168015612d7357506011544210155b612db2576040517f08c379a0000000000000000000000000000000000000000000000000000000008152600401612da9906142b9565b60405180910390fd5b60008054905083108015612dca575060018054905083105b612e09576040517f08c379a0000000000000000000000000000000000000000000000000000000008152600401612e0090614259565b60405180910390fd5b6000600360008373ffffffffffffffffffffffffffffffffffffffff1673ffffffffffffffffffffffffffffffffffffffff168152602001908152602001600020600001541415612f01576006819080600181540180825580915050600190039060005260206000200160009091909190916101000a81548173ffffffffffffffffffffffffffffffffffffffff021916908373ffffffffffffffffffffffffffffffffffffffff160217905550600d54600360008373ffffffffffffffffffffffffffffffffffffffff1673ffffffffffffffffffffffffffffffffffffffff168152602001908152602001600020600201819055505b6000600360008373ffffffffffffffffffffffffffffffffffffffff1673ffffffffffffffffffffffffffffffffffffffff1681526020019081526020016000206000015414158015612f595750612f5881611564565b5b15612fa857600d54600360008373ffffffffffffffffffffffffffffffffffffffff1673ffffffffffffffffffffffffffffffffffffffff168152602001908152602001600020600201819055505b6000612fd48360018681548110612fbb57fe5b9060005260206000200154612add90919063ffffffff16565b90508073d9ff12172803c072a36785defea1aa981a6a0c1873ffffffffffffffffffffffffffffffffffffffff166370a08231846040518263ffffffff1660e01b81526004016130249190614020565b60206040518083038186803b15801561303c57600080fd5b505afa158015613050573d6000803e3d6000fd5b505050506040513d601f19601f820116820180604052508101906130749190613a9e565b10156130b5576040517f08c379a00000000000000000000000000000000000000000000000000000000081526004016130ac906141d9565b60405180910390fd5b8073d9ff12172803c072a36785defea1aa981a6a0c1873ffffffffffffffffffffffffffffffffffffffff1663dd62ed3e84306040518363ffffffff1660e01b8152600401613105929190614056565b60206040518083038186803b15801561311d57600080fd5b505afa158015613131573d6000803e3d6000fd5b505050506040513d601f19601f820116820180604052508101906131559190613a9e565b1015613196576040517f08c379a000000000000000000000000000000000000000000000000000000000815260040161318d906141b9565b60405180910390fd5b6131d782308373d9ff12172803c072a36785defea1aa981a6a0c1873ffffffffffffffffffffffffffffffffffffffff16612cc7909392919063ffffffff16565b61322c81600360008573ffffffffffffffffffffffffffffffffffffffff1673ffffffffffffffffffffffffffffffffffffffff16815260200190815260200160002060000154612b4d90919063ffffffff16565b600360008473ffffffffffffffffffffffffffffffffffffffff1673ffffffffffffffffffffffffffffffffffffffff1681526020019081526020016000206000018190555061328781600754612b4d90919063ffffffff16565b6007819055506132c96132b860646132aa600b5485612add90919063ffffffff16565b612bec90919063ffffffff16565b600a54612b4d90919063ffffffff16565b600a8190555061333283600460008573ffffffffffffffffffffffffffffffffffffffff1673ffffffffffffffffffffffffffffffffffffffff168152602001908152602001600020600087815260200190815260200160002054612b4d90919063ffffffff16565b600460008473ffffffffffffffffffffffffffffffffffffffff1673ffffffffffffffffffffffffffffffffffffffff1681526020019081526020016000206000868152602001908152602001600020819055506133ac836005600087815260200190815260200160002054612b4d90919063ffffffff16565b60056000868152602001908152602001600020819055507fddc82401ab579d868e816af720a563cdf9f9d0350abb3fa3266bcf33dd4f48ab4283856040516133f693929190614334565b60405180910390a150505050565b6134238273ffffffffffffffffffffffffffffffffffffffff16613632565b613462576040517f08c379a0000000000000000000000000000000000000000000000000000000008152600401613459906142f9565b60405180910390fd5b600060608373ffffffffffffffffffffffffffffffffffffffff168360405161348b9190614009565b6000604051808303816000865af19150503d80600081146134c8576040519150601f19603f3d011682016040523d82523d6000602084013e6134cd565b606091505b509150915081613512576040517f08c379a0000000000000000000000000000000000000000000000000000000008152600401613509906141f9565b60405180910390fd5b60008151111561357057808060200190518101906135309190613a10565b61356f576040517f08c379a0000000000000000000000000000000000000000000000000000000008152600401613566906142d9565b60405180910390fd5b5b50505050565b60008383111582906135be576040517f08c379a00000000000000000000000000000000000000000000000000000000081526004016135b59190614137565b60405180910390fd5b5060008385039050809150509392505050565b60008083118290613618576040517f08c379a000000000000000000000000000000000000000000000000000000000815260040161360f9190614137565b60405180910390fd5b50600083858161362457fe5b049050809150509392505050565b60008060007fc5d2460186f7233c927e7db2dcc703c0e500b653ca82273b7bfad8045d85a47060001b9050833f915080821415801561367457506000801b8214155b92505050919050565b8280548282559060005260206000209081019282156136b9579160200282015b828111156136b857825182559160200191906001019061369d565b5b5090506136c691906136ca565b5090565b5b808211156136e35760008160009055506001016136cb565b5090565b6000813590506136f68161456c565b92915050565b60008135905061370b81614583565b92915050565b600082601f83011261372257600080fd5b8135613735613730826143cf565b6143a2565b9150818183526020840193506020810190508385602084028201111561375a57600080fd5b60005b8381101561378a57816137708882613833565b84526020840193506020830192505060018101905061375d565b5050505092915050565b6000813590506137a38161459a565b92915050565b6000815190506137b88161459a565b92915050565b6000813590506137cd816145b1565b92915050565b6000606082840312156137e557600080fd5b6137ef60606143a2565b905060006137ff84828501613833565b600083015250602061381384828501613833565b602083015250604061382784828501613833565b60408301525092915050565b600081359050613842816145c8565b92915050565b600081519050613857816145c8565b92915050565b60006020828403121561386f57600080fd5b600061387d848285016136e7565b91505092915050565b60006020828403121561389857600080fd5b60006138a6848285016136fc565b91505092915050565b600080604083850312156138c257600080fd5b60006138d0858286016136e7565b925050602083013567ffffffffffffffff8111156138ed57600080fd5b6138f985828601613711565b9150509250929050565b6000806080838503121561391657600080fd5b6000613924858286016136e7565b9250506020613935858286016137d3565b9150509250929050565b6000806040838503121561395257600080fd5b6000613960858286016136e7565b925050602061397185828601613833565b9150509250929050565b6000806040838503121561398e57600080fd5b600083013567ffffffffffffffff8111156139a857600080fd5b6139b485828601613711565b925050602083013567ffffffffffffffff8111156139d157600080fd5b6139dd85828601613711565b9150509250929050565b6000602082840312156139f957600080fd5b6000613a0784828501613794565b91505092915050565b600060208284031215613a2257600080fd5b6000613a30848285016137a9565b91505092915050565b60008060408385031215613a4c57600080fd5b6000613a5a858286016137be565b9250506020613a6b85828601613833565b9150509250929050565b600060208284031215613a8757600080fd5b6000613a9584828501613833565b91505092915050565b600060208284031215613ab057600080fd5b6000613abe84828501613848565b91505092915050565b60008060408385031215613ada57600080fd5b6000613ae885828601613833565b9250506020613af985828601613833565b9150509250929050565b6000613b0f8383613feb565b60208301905092915050565b613b24816144ce565b82525050565b613b3381614462565b82525050565b6000613b4482614407565b613b4e8185614435565b9350613b59836143f7565b8060005b83811015613b8a578151613b718882613b03565b9750613b7c83614428565b925050600181019050613b5d565b5085935050505092915050565b613ba081614486565b82525050565b6000613bb182614412565b613bbb8185614446565b9350613bcb818560208601614528565b80840191505092915050565b613be0816144e0565b82525050565b6000613bf18261441d565b613bfb8185614451565b9350613c0b818560208601614528565b613c148161455b565b840191505092915050565b6000613c2c601683614451565b91507f43616c6c6572206973206e6f74207468652064657621000000000000000000006000830152602082019050919050565b6000613c6c601683614451565b91507f4e6f7420656e6f75676820746f20636f6d706f756e64000000000000000000006000830152602082019050919050565b6000613cac601b83614451565b91507f536166654d6174683a206164646974696f6e206f766572666c6f7700000000006000830152602082019050919050565b6000613cec601683614451565b91507f496e73756666696369656e7420616c6c6f77616e6365000000000000000000006000830152602082019050919050565b6000613d2c601483614451565b91507f496e73756666696369656e742062616c616e63650000000000000000000000006000830152602082019050919050565b6000613d6c602083614451565b91507f5361666545524332303a206c6f772d6c6576656c2063616c6c206661696c65646000830152602082019050919050565b6000613dac601183614451565b91507f446f206e6f742073656e6420415641582e0000000000000000000000000000006000830152602082019050919050565b6000613dec600c83614451565b91507f5a65726f206164647265737300000000000000000000000000000000000000006000830152602082019050919050565b6000613e2c601083614451565b91507f496e76616c6964206e6f646554696572000000000000000000000000000000006000830152602082019050919050565b6000613e6c602183614451565b91507f536166654d6174683a206d756c7469706c69636174696f6e206f766572666c6f60008301527f77000000000000000000000000000000000000000000000000000000000000006020830152604082019050919050565b6000613ed2600f83614451565b91507f4c656e677468206d69736d6174636800000000000000000000000000000000006000830152602082019050919050565b6000613f12600883614451565b91507f44697361626c65640000000000000000000000000000000000000000000000006000830152602082019050919050565b6000613f52602a83614451565b91507f5361666545524332303a204552433230206f7065726174696f6e20646964206e60008301527f6f742073756363656564000000000000000000000000000000000000000000006020830152604082019050919050565b6000613fb8601f83614451565b91507f5361666545524332303a2063616c6c20746f206e6f6e2d636f6e7472616374006000830152602082019050919050565b613ff4816144c4565b82525050565b614003816144c4565b82525050565b60006140158284613ba6565b915081905092915050565b60006020820190506140356000830184613b2a565b92915050565b60006020820190506140506000830184613b1b565b92915050565b600060408201905061406b6000830185613b2a565b6140786020830184613b1b565b9392505050565b60006060820190506140946000830186613b2a565b6140a16020830185613b2a565b6140ae6040830184613ffa565b949350505050565b60006040820190506140cb6000830185613b2a565b6140d86020830184613ffa565b9392505050565b600060208201905081810360008301526140f98184613b39565b905092915050565b60006020820190506141166000830184613b97565b92915050565b60006020820190506141316000830184613bd7565b92915050565b600060208201905081810360008301526141518184613be6565b905092915050565b6000602082019050818103600083015261417281613c1f565b9050919050565b6000602082019050818103600083015261419281613c5f565b9050919050565b600060208201905081810360008301526141b281613c9f565b9050919050565b600060208201905081810360008301526141d281613cdf565b9050919050565b600060208201905081810360008301526141f281613d1f565b9050919050565b6000602082019050818103600083015261421281613d5f565b9050919050565b6000602082019050818103600083015261423281613d9f565b9050919050565b6000602082019050818103600083015261425281613ddf565b9050919050565b6000602082019050818103600083015261427281613e1f565b9050919050565b6000602082019050818103600083015261429281613e5f565b9050919050565b600060208201905081810360008301526142b281613ec5565b9050919050565b600060208201905081810360008301526142d281613f05565b9050919050565b600060208201905081810360008301526142f281613f45565b9050919050565b6000602082019050818103600083015261431281613fab565b9050919050565b600060208201905061432e6000830184613ffa565b92915050565b60006060820190506143496000830186613ffa565b6143566020830185613b2a565b6143636040830184613ffa565b949350505050565b60006060820190506143806000830186613ffa565b61438d6020830185613ffa565b61439a6040830184613ffa565b949350505050565b6000604051905081810181811067ffffffffffffffff821117156143c557600080fd5b8060405250919050565b600067ffffffffffffffff8211156143e657600080fd5b602082029050602081019050919050565b6000819050602082019050919050565b600081519050919050565b600081519050919050565b600081519050919050565b6000602082019050919050565b600082825260208201905092915050565b600081905092915050565b600082825260208201905092915050565b600061446d826144a4565b9050919050565b600061447f826144a4565b9050919050565b60008115159050919050565b600061449d82614462565b9050919050565b600073ffffffffffffffffffffffffffffffffffffffff82169050919050565b6000819050919050565b60006144d982614504565b9050919050565b60006144eb826144f2565b9050919050565b60006144fd826144a4565b9050919050565b600061450f82614516565b9050919050565b6000614521826144a4565b9050919050565b60005b8381101561454657808201518184015260208101905061452b565b83811115614555576000848401525b50505050565b6000601f19601f8301169050919050565b61457581614462565b811461458057600080fd5b50565b61458c81614474565b811461459757600080fd5b50565b6145a381614486565b81146145ae57600080fd5b50565b6145ba81614492565b81146145c557600080fd5b50565b6145d1816144c4565b81146145dc57600080fd5b5056fea264697066735822122007cdf9c4c0ec4b160d233ed4ee801d87eecf37112a4938059b10bc2525e4035364736f6c634300060c0033",
					"opcodes": "PUSH1 0x80 PUSH1 0x40 MSTORE PUSH1 0x40 MLOAD DUP1 PUSH1 0xA0 ADD PUSH1 0x40 MSTORE DUP1 PUSH8 0xDE0B6B3A7640000 PUSH9 0xFFFFFFFFFFFFFFFFFF AND DUP2 MSTORE PUSH1 0x20 ADD PUSH8 0x1D24B2DFAC520000 PUSH9 0xFFFFFFFFFFFFFFFFFF AND DUP2 MSTORE PUSH1 0x20 ADD PUSH8 0x3D3377A283790000 PUSH9 0xFFFFFFFFFFFFFFFFFF AND DUP2 MSTORE PUSH1 0x20 ADD PUSH8 0x8085AE6EE0E48000 PUSH9 0xFFFFFFFFFFFFFFFFFF AND DUP2 MSTORE PUSH1 0x20 ADD PUSH9 0x10DE587E8D8464000 PUSH9 0xFFFFFFFFFFFFFFFFFF AND DUP2 MSTORE POP PUSH1 0x0 SWAP1 PUSH1 0x5 PUSH3 0x9D SWAP3 SWAP2 SWAP1 PUSH3 0x209 JUMP JUMPDEST POP PUSH1 0x40 MLOAD DUP1 PUSH1 0xA0 ADD PUSH1 0x40 MSTORE DUP1 PUSH8 0xDE0B6B3A7640000 PUSH9 0xFFFFFFFFFFFFFFFFFF AND DUP2 MSTORE PUSH1 0x20 ADD PUSH8 0x3782DACE9D900000 PUSH9 0xFFFFFFFFFFFFFFFFFF AND DUP2 MSTORE PUSH1 0x20 ADD PUSH9 0x2B5E3AF16B18800000 PUSH9 0xFFFFFFFFFFFFFFFFFF AND DUP2 MSTORE PUSH1 0x20 ADD PUSH9 0x56BC75E2D631000000 PUSH9 0xFFFFFFFFFFFFFFFFFF AND DUP2 MSTORE PUSH1 0x20 ADD PUSH9 0xA2A15D09519BE00000 PUSH9 0xFFFFFFFFFFFFFFFFFF AND DUP2 MSTORE POP PUSH1 0x1 SWAP1 PUSH1 0x5 PUSH3 0x139 SWAP3 SWAP2 SWAP1 PUSH3 0x209 JUMP JUMPDEST POP CALLVALUE DUP1 ISZERO PUSH3 0x147 JUMPI PUSH1 0x0 DUP1 REVERT JUMPDEST POP PUSH1 0x40 MLOAD PUSH3 0x4913 CODESIZE SUB DUP1 PUSH3 0x4913 DUP4 CODECOPY DUP2 DUP2 ADD PUSH1 0x40 MSTORE DUP2 ADD SWAP1 PUSH3 0x16D SWAP2 SWAP1 PUSH3 0x29E JUMP JUMPDEST PUSH2 0x190 PUSH1 0xE DUP2 SWAP1 SSTORE POP PUSH3 0x2BF200 PUSH1 0xF DUP2 SWAP1 SSTORE POP PUSH1 0x14 PUSH1 0xB DUP2 SWAP1 SSTORE POP TIMESTAMP DUP2 GT PUSH3 0x197 JUMPI TIMESTAMP PUSH3 0x199 JUMP JUMPDEST DUP1 JUMPDEST PUSH1 0x10 DUP2 SWAP1 SSTORE POP DUP1 PUSH1 0x11 DUP2 SWAP1 SSTORE POP PUSH1 0x1 PUSH1 0x12 PUSH1 0x0 PUSH2 0x100 EXP DUP2 SLOAD DUP2 PUSH1 0xFF MUL NOT AND SWAP1 DUP4 ISZERO ISZERO MUL OR SWAP1 SSTORE POP CALLER PUSH1 0x2 PUSH1 0x0 PUSH2 0x100 EXP DUP2 SLOAD DUP2 PUSH20 0xFFFFFFFFFFFFFFFFFFFFFFFFFFFFFFFFFFFFFFFF MUL NOT AND SWAP1 DUP4 PUSH20 0xFFFFFFFFFFFFFFFFFFFFFFFFFFFFFFFFFFFFFFFF AND MUL OR SWAP1 SSTORE POP POP PUSH3 0x2EE JUMP JUMPDEST DUP3 DUP1 SLOAD DUP3 DUP3 SSTORE SWAP1 PUSH1 0x0 MSTORE PUSH1 0x20 PUSH1 0x0 KECCAK256 SWAP1 DUP2 ADD SWAP3 DUP3 ISZERO PUSH3 0x255 JUMPI SWAP2 PUSH1 0x20 MUL DUP3 ADD JUMPDEST DUP3 DUP2 GT ISZERO PUSH3 0x254 JUMPI DUP3 MLOAD DUP3 SWAP1 PUSH9 0xFFFFFFFFFFFFFFFFFF AND SWAP1 SSTORE SWAP2 PUSH1 0x20 ADD SWAP2 SWAP1 PUSH1 0x1 ADD SWAP1 PUSH3 0x22A JUMP JUMPDEST JUMPDEST POP SWAP1 POP PUSH3 0x264 SWAP2 SWAP1 PUSH3 0x268 JUMP JUMPDEST POP SWAP1 JUMP JUMPDEST JUMPDEST DUP1 DUP3 GT ISZERO PUSH3 0x283 JUMPI PUSH1 0x0 DUP2 PUSH1 0x0 SWAP1 SSTORE POP PUSH1 0x1 ADD PUSH3 0x269 JUMP JUMPDEST POP SWAP1 JUMP JUMPDEST PUSH1 0x0 DUP2 MLOAD SWAP1 POP PUSH3 0x298 DUP2 PUSH3 0x2D4 JUMP JUMPDEST SWAP3 SWAP2 POP POP JUMP JUMPDEST PUSH1 0x0 PUSH1 0x20 DUP3 DUP5 SUB SLT ISZERO PUSH3 0x2B1 JUMPI PUSH1 0x0 DUP1 REVERT JUMPDEST PUSH1 0x0 PUSH3 0x2C1 DUP5 DUP3 DUP6 ADD PUSH3 0x287 JUMP JUMPDEST SWAP2 POP POP SWAP3 SWAP2 POP POP JUMP JUMPDEST PUSH1 0x0 DUP2 SWAP1 POP SWAP2 SWAP1 POP JUMP JUMPDEST PUSH3 0x2DF DUP2 PUSH3 0x2CA JUMP JUMPDEST DUP2 EQ PUSH3 0x2EB JUMPI PUSH1 0x0 DUP1 REVERT JUMPDEST POP JUMP JUMPDEST PUSH2 0x4615 DUP1 PUSH3 0x2FE PUSH1 0x0 CODECOPY PUSH1 0x0 RETURN INVALID PUSH1 0x80 PUSH1 0x40 MSTORE PUSH1 0x4 CALLDATASIZE LT PUSH2 0x2CD JUMPI PUSH1 0x0 CALLDATALOAD PUSH1 0xE0 SHR DUP1 PUSH4 0x5C75DCBC GT PUSH2 0x175 JUMPI DUP1 PUSH4 0x9F7B4579 GT PUSH2 0xDC JUMPI DUP1 PUSH4 0xD3261592 GT PUSH2 0x95 JUMPI DUP1 PUSH4 0xE7CC62BD GT PUSH2 0x6F JUMPI DUP1 PUSH4 0xE7CC62BD EQ PUSH2 0xB76 JUMPI DUP1 PUSH4 0xF65F4EAF EQ PUSH2 0xBA1 JUMPI DUP1 PUSH4 0xF69E2046 EQ PUSH2 0xBCC JUMPI DUP1 PUSH4 0xFBA1F7B0 EQ PUSH2 0xBE3 JUMPI PUSH2 0x30D JUMP JUMPDEST DUP1 PUSH4 0xD3261592 EQ PUSH2 0xAE3 JUMPI DUP1 PUSH4 0xDE560CCA EQ PUSH2 0xB0E JUMPI DUP1 PUSH4 0xE300E98B EQ PUSH2 0xB39 JUMPI PUSH2 0x30D JUMP JUMPDEST DUP1 PUSH4 0x9F7B4579 EQ PUSH2 0x9AB JUMPI DUP1 PUSH4 0xA87430BA EQ PUSH2 0x9D4 JUMPI DUP1 PUSH4 0xAB4E2785 EQ PUSH2 0xA13 JUMPI DUP1 PUSH4 0xADF1B67E EQ PUSH2 0xA3E JUMPI DUP1 PUSH4 0xBCB11639 EQ PUSH2 0xA7B JUMPI DUP1 PUSH4 0xC7CE9560 EQ PUSH2 0xAB8 JUMPI PUSH2 0x30D JUMP JUMPDEST DUP1 PUSH4 0x740C8AF7 GT PUSH2 0x12E JUMPI DUP1 PUSH4 0x740C8AF7 EQ PUSH2 0x89B JUMPI DUP1 PUSH4 0x78E97925 EQ PUSH2 0x8C6 JUMPI DUP1 PUSH4 0x82BFEFC8 EQ PUSH2 0x8F1 JUMPI DUP1 PUSH4 0x88A8C95C EQ PUSH2 0x91C JUMPI DUP1 PUSH4 0x94AC42CC EQ PUSH2 0x945 JUMPI DUP1 PUSH4 0x95CCEA67 EQ PUSH2 0x982 JUMPI PUSH2 0x30D JUMP JUMPDEST DUP1 PUSH4 0x5C75DCBC EQ PUSH2 0x78B JUMPI DUP1 PUSH4 0x5FB11D7E EQ PUSH2 0x7B6 JUMPI DUP1 PUSH4 0x5FBB48DC EQ PUSH2 0x7F3 JUMPI DUP1 PUSH4 0x63584ECD EQ PUSH2 0x81C JUMPI DUP1 PUSH4 0x648ACB09 EQ PUSH2 0x847 JUMPI DUP1 PUSH4 0x6AF904C6 EQ PUSH2 0x870 JUMPI PUSH2 0x30D JUMP JUMPDEST DUP1 PUSH4 0x2AE27071 GT PUSH2 0x234 JUMPI DUP1 PUSH4 0x486AF96A GT PUSH2 0x1ED JUMPI DUP1 PUSH4 0x5083F17B GT PUSH2 0x1C7 JUMPI DUP1 PUSH4 0x5083F17B EQ PUSH2 0x6F7 JUMPI DUP1 PUSH4 0x56E1221C EQ PUSH2 0x720 JUMPI DUP1 PUSH4 0x5B0D2D8C EQ PUSH2 0x749 JUMPI DUP1 PUSH4 0x5B2F3C8E EQ PUSH2 0x774 JUMPI PUSH2 0x30D JUMP JUMPDEST DUP1 PUSH4 0x486AF96A EQ PUSH2 0x678 JUMPI DUP1 PUSH4 0x4B3DD5B5 EQ PUSH2 0x6B5 JUMPI DUP1 PUSH4 0x4E71D92D EQ PUSH2 0x6E0 JUMPI PUSH2 0x30D JUMP JUMPDEST DUP1 PUSH4 0x2AE27071 EQ PUSH2 0x546 JUMPI DUP1 PUSH4 0x2BCF161C EQ PUSH2 0x56F JUMPI DUP1 PUSH4 0x328D8F72 EQ PUSH2 0x5AC JUMPI DUP1 PUSH4 0x35771FE0 EQ PUSH2 0x5D5 JUMPI DUP1 PUSH4 0x3E0A322D EQ PUSH2 0x612 JUMPI DUP1 PUSH4 0x44886D70 EQ PUSH2 0x63B JUMPI PUSH2 0x30D JUMP JUMPDEST DUP1 PUSH4 0x1FA36CBE GT PUSH2 0x286 JUMPI DUP1 PUSH4 0x1FA36CBE EQ PUSH2 0x410 JUMPI DUP1 PUSH4 0x211AEA02 EQ PUSH2 0x43B JUMPI DUP1 PUSH4 0x2365D7BC EQ PUSH2 0x478 JUMPI DUP1 PUSH4 0x238DAFE0 EQ PUSH2 0x4B5 JUMPI DUP1 PUSH4 0x2702DFE7 EQ PUSH2 0x4E0 JUMPI DUP1 PUSH4 0x277E5316 EQ PUSH2 0x509 JUMPI PUSH2 0x30D JUMP JUMPDEST DUP1 PUSH4 0x59F8B16 EQ PUSH2 0x312 JUMPI DUP1 PUSH4 0x5C4744B EQ PUSH2 0x33D JUMPI DUP1 PUSH4 0x5D6BBF4 EQ PUSH2 0x354 JUMPI DUP1 PUSH4 0x12065FE0 EQ PUSH2 0x37F JUMPI DUP1 PUSH4 0x1D1C7B4E EQ PUSH2 0x3AA JUMPI DUP1 PUSH4 0x1ED5C6C2 EQ PUSH2 0x3E7 JUMPI PUSH2 0x30D JUMP JUMPDEST CALLDATASIZE PUSH2 0x30D JUMPI PUSH1 0x40 MLOAD PUSH32 0x8C379A000000000000000000000000000000000000000000000000000000000 DUP2 MSTORE PUSH1 0x4 ADD PUSH2 0x304 SWAP1 PUSH2 0x4219 JUMP JUMPDEST PUSH1 0x40 MLOAD DUP1 SWAP2 SUB SWAP1 REVERT JUMPDEST PUSH1 0x0 DUP1 REVERT JUMPDEST CALLVALUE DUP1 ISZERO PUSH2 0x31E JUMPI PUSH1 0x0 DUP1 REVERT JUMPDEST POP PUSH2 0x327 PUSH2 0xC0E JUMP JUMPDEST PUSH1 0x40 MLOAD PUSH2 0x334 SWAP2 SWAP1 PUSH2 0x4319 JUMP JUMPDEST PUSH1 0x40 MLOAD DUP1 SWAP2 SUB SWAP1 RETURN JUMPDEST CALLVALUE DUP1 ISZERO PUSH2 0x349 JUMPI PUSH1 0x0 DUP1 REVERT JUMPDEST POP PUSH2 0x352 PUSH2 0xC1A JUMP JUMPDEST STOP JUMPDEST CALLVALUE DUP1 ISZERO PUSH2 0x360 JUMPI PUSH1 0x0 DUP1 REVERT JUMPDEST POP PUSH2 0x369 PUSH2 0xC93 JUMP JUMPDEST PUSH1 0x40 MLOAD PUSH2 0x376 SWAP2 SWAP1 PUSH2 0x4319 JUMP JUMPDEST PUSH1 0x40 MLOAD DUP1 SWAP2 SUB SWAP1 RETURN JUMPDEST CALLVALUE DUP1 ISZERO PUSH2 0x38B JUMPI PUSH1 0x0 DUP1 REVERT JUMPDEST POP PUSH2 0x394 PUSH2 0xC99 JUMP JUMPDEST PUSH1 0x40 MLOAD PUSH2 0x3A1 SWAP2 SWAP1 PUSH2 0x4319 JUMP JUMPDEST PUSH1 0x40 MLOAD DUP1 SWAP2 SUB SWAP1 RETURN JUMPDEST CALLVALUE DUP1 ISZERO PUSH2 0x3B6 JUMPI PUSH1 0x0 DUP1 REVERT JUMPDEST POP PUSH2 0x3D1 PUSH1 0x4 DUP1 CALLDATASIZE SUB DUP2 ADD SWAP1 PUSH2 0x3CC SWAP2 SWAP1 PUSH2 0x3A75 JUMP JUMPDEST PUSH2 0xD3D JUMP JUMPDEST PUSH1 0x40 MLOAD PUSH2 0x3DE SWAP2 SWAP1 PUSH2 0x4319 JUMP JUMPDEST PUSH1 0x40 MLOAD DUP1 SWAP2 SUB SWAP1 RETURN JUMPDEST CALLVALUE DUP1 ISZERO PUSH2 0x3F3 JUMPI PUSH1 0x0 DUP1 REVERT JUMPDEST POP PUSH2 0x40E PUSH1 0x4 DUP1 CALLDATASIZE SUB DUP2 ADD SWAP1 PUSH2 0x409 SWAP2 SWAP1 PUSH2 0x3A75 JUMP JUMPDEST PUSH2 0xD55 JUMP JUMPDEST STOP JUMPDEST CALLVALUE DUP1 ISZERO PUSH2 0x41C JUMPI PUSH1 0x0 DUP1 REVERT JUMPDEST POP PUSH2 0x425 PUSH2 0xDEF JUMP JUMPDEST PUSH1 0x40 MLOAD PUSH2 0x432 SWAP2 SWAP1 PUSH2 0x4319 JUMP JUMPDEST PUSH1 0x40 MLOAD DUP1 SWAP2 SUB SWAP1 RETURN JUMPDEST CALLVALUE DUP1 ISZERO PUSH2 0x447 JUMPI PUSH1 0x0 DUP1 REVERT JUMPDEST POP PUSH2 0x462 PUSH1 0x4 DUP1 CALLDATASIZE SUB DUP2 ADD SWAP1 PUSH2 0x45D SWAP2 SWAP1 PUSH2 0x3A75 JUMP JUMPDEST PUSH2 0xE6C JUMP JUMPDEST PUSH1 0x40 MLOAD PUSH2 0x46F SWAP2 SWAP1 PUSH2 0x4020 JUMP JUMPDEST PUSH1 0x40 MLOAD DUP1 SWAP2 SUB SWAP1 RETURN JUMPDEST CALLVALUE DUP1 ISZERO PUSH2 0x484 JUMPI PUSH1 0x0 DUP1 REVERT JUMPDEST POP PUSH2 0x49F PUSH1 0x4 DUP1 CALLDATASIZE SUB DUP2 ADD SWAP1 PUSH2 0x49A SWAP2 SWAP1 PUSH2 0x3A75 JUMP JUMPDEST PUSH2 0xEA8 JUMP JUMPDEST PUSH1 0x40 MLOAD PUSH2 0x4AC SWAP2 SWAP1 PUSH2 0x4319 JUMP JUMPDEST PUSH1 0x40 MLOAD DUP1 SWAP2 SUB SWAP1 RETURN JUMPDEST CALLVALUE DUP1 ISZERO PUSH2 0x4C1 JUMPI PUSH1 0x0 DUP1 REVERT JUMPDEST POP PUSH2 0x4CA PUSH2 0xEC9 JUMP JUMPDEST PUSH1 0x40 MLOAD PUSH2 0x4D7 SWAP2 SWAP1 PUSH2 0x4101 JUMP JUMPDEST PUSH1 0x40 MLOAD DUP1 SWAP2 SUB SWAP1 RETURN JUMPDEST CALLVALUE DUP1 ISZERO PUSH2 0x4EC JUMPI PUSH1 0x0 DUP1 REVERT JUMPDEST POP PUSH2 0x507 PUSH1 0x4 DUP1 CALLDATASIZE SUB DUP2 ADD SWAP1 PUSH2 0x502 SWAP2 SWAP1 PUSH2 0x3903 JUMP JUMPDEST PUSH2 0xEDC JUMP JUMPDEST STOP JUMPDEST CALLVALUE DUP1 ISZERO PUSH2 0x515 JUMPI PUSH1 0x0 DUP1 REVERT JUMPDEST POP PUSH2 0x530 PUSH1 0x4 DUP1 CALLDATASIZE SUB DUP2 ADD SWAP1 PUSH2 0x52B SWAP2 SWAP1 PUSH2 0x385D JUMP JUMPDEST PUSH2 0x10EC JUMP JUMPDEST PUSH1 0x40 MLOAD PUSH2 0x53D SWAP2 SWAP1 PUSH2 0x4319 JUMP JUMPDEST PUSH1 0x40 MLOAD DUP1 SWAP2 SUB SWAP1 RETURN JUMPDEST CALLVALUE DUP1 ISZERO PUSH2 0x552 JUMPI PUSH1 0x0 DUP1 REVERT JUMPDEST POP PUSH2 0x56D PUSH1 0x4 DUP1 CALLDATASIZE SUB DUP2 ADD SWAP1 PUSH2 0x568 SWAP2 SWAP1 PUSH2 0x397B JUMP JUMPDEST PUSH2 0x11B6 JUMP JUMPDEST STOP JUMPDEST CALLVALUE DUP1 ISZERO PUSH2 0x57B JUMPI PUSH1 0x0 DUP1 REVERT JUMPDEST POP PUSH2 0x596 PUSH1 0x4 DUP1 CALLDATASIZE SUB DUP2 ADD SWAP1 PUSH2 0x591 SWAP2 SWAP1 PUSH2 0x385D JUMP JUMPDEST PUSH2 0x12BC JUMP JUMPDEST PUSH1 0x40 MLOAD PUSH2 0x5A3 SWAP2 SWAP1 PUSH2 0x4319 JUMP JUMPDEST PUSH1 0x40 MLOAD DUP1 SWAP2 SUB SWAP1 RETURN JUMPDEST CALLVALUE DUP1 ISZERO PUSH2 0x5B8 JUMPI PUSH1 0x0 DUP1 REVERT JUMPDEST POP PUSH2 0x5D3 PUSH1 0x4 DUP1 CALLDATASIZE SUB DUP2 ADD SWAP1 PUSH2 0x5CE SWAP2 SWAP1 PUSH2 0x39E7 JUMP JUMPDEST PUSH2 0x13FC JUMP JUMPDEST STOP JUMPDEST CALLVALUE DUP1 ISZERO PUSH2 0x5E1 JUMPI PUSH1 0x0 DUP1 REVERT JUMPDEST POP PUSH2 0x5FC PUSH1 0x4 DUP1 CALLDATASIZE SUB DUP2 ADD SWAP1 PUSH2 0x5F7 SWAP2 SWAP1 PUSH2 0x3A75 JUMP JUMPDEST PUSH2 0x14A9 JUMP JUMPDEST PUSH1 0x40 MLOAD PUSH2 0x609 SWAP2 SWAP1 PUSH2 0x4319 JUMP JUMPDEST PUSH1 0x40 MLOAD DUP1 SWAP2 SUB SWAP1 RETURN JUMPDEST CALLVALUE DUP1 ISZERO PUSH2 0x61E JUMPI PUSH1 0x0 DUP1 REVERT JUMPDEST POP PUSH2 0x639 PUSH1 0x4 DUP1 CALLDATASIZE SUB DUP2 ADD SWAP1 PUSH2 0x634 SWAP2 SWAP1 PUSH2 0x3A75 JUMP JUMPDEST PUSH2 0x14CA JUMP JUMPDEST STOP JUMPDEST CALLVALUE DUP1 ISZERO PUSH2 0x647 JUMPI PUSH1 0x0 DUP1 REVERT JUMPDEST POP PUSH2 0x662 PUSH1 0x4 DUP1 CALLDATASIZE SUB DUP2 ADD SWAP1 PUSH2 0x65D SWAP2 SWAP1 PUSH2 0x385D JUMP JUMPDEST PUSH2 0x1564 JUMP JUMPDEST PUSH1 0x40 MLOAD PUSH2 0x66F SWAP2 SWAP1 PUSH2 0x4101 JUMP JUMPDEST PUSH1 0x40 MLOAD DUP1 SWAP2 SUB SWAP1 RETURN JUMPDEST CALLVALUE DUP1 ISZERO PUSH2 0x684 JUMPI PUSH1 0x0 DUP1 REVERT JUMPDEST POP PUSH2 0x69F PUSH1 0x4 DUP1 CALLDATASIZE SUB DUP2 ADD SWAP1 PUSH2 0x69A SWAP2 SWAP1 PUSH2 0x385D JUMP JUMPDEST PUSH2 0x15BB JUMP JUMPDEST PUSH1 0x40 MLOAD PUSH2 0x6AC SWAP2 SWAP1 PUSH2 0x40DF JUMP JUMPDEST PUSH1 0x40 MLOAD DUP1 SWAP2 SUB SWAP1 RETURN JUMPDEST CALLVALUE DUP1 ISZERO PUSH2 0x6C1 JUMPI PUSH1 0x0 DUP1 REVERT JUMPDEST POP PUSH2 0x6CA PUSH2 0x16C1 JUMP JUMPDEST PUSH1 0x40 MLOAD PUSH2 0x6D7 SWAP2 SWAP1 PUSH2 0x4319 JUMP JUMPDEST PUSH1 0x40 MLOAD DUP1 SWAP2 SUB SWAP1 RETURN JUMPDEST CALLVALUE DUP1 ISZERO PUSH2 0x6EC JUMPI PUSH1 0x0 DUP1 REVERT JUMPDEST POP PUSH2 0x6F5 PUSH2 0x173C JUMP JUMPDEST STOP JUMPDEST CALLVALUE DUP1 ISZERO PUSH2 0x703 JUMPI PUSH1 0x0 DUP1 REVERT JUMPDEST POP PUSH2 0x71E PUSH1 0x4 DUP1 CALLDATASIZE SUB DUP2 ADD SWAP1 PUSH2 0x719 SWAP2 SWAP1 PUSH2 0x38AF JUMP JUMPDEST PUSH2 0x1943 JUMP JUMPDEST STOP JUMPDEST CALLVALUE DUP1 ISZERO PUSH2 0x72C JUMPI PUSH1 0x0 DUP1 REVERT JUMPDEST POP PUSH2 0x747 PUSH1 0x4 DUP1 CALLDATASIZE SUB DUP2 ADD SWAP1 PUSH2 0x742 SWAP2 SWAP1 PUSH2 0x3A75 JUMP JUMPDEST PUSH2 0x1B0B JUMP JUMPDEST STOP JUMPDEST CALLVALUE DUP1 ISZERO PUSH2 0x755 JUMPI PUSH1 0x0 DUP1 REVERT JUMPDEST POP PUSH2 0x75E PUSH2 0x1BA5 JUMP JUMPDEST PUSH1 0x40 MLOAD PUSH2 0x76B SWAP2 SWAP1 PUSH2 0x4319 JUMP JUMPDEST PUSH1 0x40 MLOAD DUP1 SWAP2 SUB SWAP1 RETURN JUMPDEST CALLVALUE DUP1 ISZERO PUSH2 0x780 JUMPI PUSH1 0x0 DUP1 REVERT JUMPDEST POP PUSH2 0x789 PUSH2 0x1BDC JUMP JUMPDEST STOP JUMPDEST CALLVALUE DUP1 ISZERO PUSH2 0x797 JUMPI PUSH1 0x0 DUP1 REVERT JUMPDEST POP PUSH2 0x7A0 PUSH2 0x1C05 JUMP JUMPDEST PUSH1 0x40 MLOAD PUSH2 0x7AD SWAP2 SWAP1 PUSH2 0x4319 JUMP JUMPDEST PUSH1 0x40 MLOAD DUP1 SWAP2 SUB SWAP1 RETURN JUMPDEST CALLVALUE DUP1 ISZERO PUSH2 0x7C2 JUMPI PUSH1 0x0 DUP1 REVERT JUMPDEST POP PUSH2 0x7DD PUSH1 0x4 DUP1 CALLDATASIZE SUB DUP2 ADD SWAP1 PUSH2 0x7D8 SWAP2 SWAP1 PUSH2 0x385D JUMP JUMPDEST PUSH2 0x1C0B JUMP JUMPDEST PUSH1 0x40 MLOAD PUSH2 0x7EA SWAP2 SWAP1 PUSH2 0x4319 JUMP JUMPDEST PUSH1 0x40 MLOAD DUP1 SWAP2 SUB SWAP1 RETURN JUMPDEST CALLVALUE DUP1 ISZERO PUSH2 0x7FF JUMPI PUSH1 0x0 DUP1 REVERT JUMPDEST POP PUSH2 0x81A PUSH1 0x4 DUP1 CALLDATASIZE SUB DUP2 ADD SWAP1 PUSH2 0x815 SWAP2 SWAP1 PUSH2 0x3A75 JUMP JUMPDEST PUSH2 0x1CC7 JUMP JUMPDEST STOP JUMPDEST CALLVALUE DUP1 ISZERO PUSH2 0x828 JUMPI PUSH1 0x0 DUP1 REVERT JUMPDEST POP PUSH2 0x831 PUSH2 0x1D61 JUMP JUMPDEST PUSH1 0x40 MLOAD PUSH2 0x83E SWAP2 SWAP1 PUSH2 0x40DF JUMP JUMPDEST PUSH1 0x40 MLOAD DUP1 SWAP2 SUB SWAP1 RETURN JUMPDEST CALLVALUE DUP1 ISZERO PUSH2 0x853 JUMPI PUSH1 0x0 DUP1 REVERT JUMPDEST POP PUSH2 0x86E PUSH1 0x4 DUP1 CALLDATASIZE SUB DUP2 ADD SWAP1 PUSH2 0x869 SWAP2 SWAP1 PUSH2 0x3A75 JUMP JUMPDEST PUSH2 0x1E28 JUMP JUMPDEST STOP JUMPDEST CALLVALUE DUP1 ISZERO PUSH2 0x87C JUMPI PUSH1 0x0 DUP1 REVERT JUMPDEST POP PUSH2 0x885 PUSH2 0x1EC2 JUMP JUMPDEST PUSH1 0x40 MLOAD PUSH2 0x892 SWAP2 SWAP1 PUSH2 0x4319 JUMP JUMPDEST PUSH1 0x40 MLOAD DUP1 SWAP2 SUB SWAP1 RETURN JUMPDEST CALLVALUE DUP1 ISZERO PUSH2 0x8A7 JUMPI PUSH1 0x0 DUP1 REVERT JUMPDEST POP PUSH2 0x8B0 PUSH2 0x1EC8 JUMP JUMPDEST PUSH1 0x40 MLOAD PUSH2 0x8BD SWAP2 SWAP1 PUSH2 0x4319 JUMP JUMPDEST PUSH1 0x40 MLOAD DUP1 SWAP2 SUB SWAP1 RETURN JUMPDEST CALLVALUE DUP1 ISZERO PUSH2 0x8D2 JUMPI PUSH1 0x0 DUP1 REVERT JUMPDEST POP PUSH2 0x8DB PUSH2 0x1ECE JUMP JUMPDEST PUSH1 0x40 MLOAD PUSH2 0x8E8 SWAP2 SWAP1 PUSH2 0x4319 JUMP JUMPDEST PUSH1 0x40 MLOAD DUP1 SWAP2 SUB SWAP1 RETURN JUMPDEST CALLVALUE DUP1 ISZERO PUSH2 0x8FD JUMPI PUSH1 0x0 DUP1 REVERT JUMPDEST POP PUSH2 0x906 PUSH2 0x1ED4 JUMP JUMPDEST PUSH1 0x40 MLOAD PUSH2 0x913 SWAP2 SWAP1 PUSH2 0x411C JUMP JUMPDEST PUSH1 0x40 MLOAD DUP1 SWAP2 SUB SWAP1 RETURN JUMPDEST CALLVALUE DUP1 ISZERO PUSH2 0x928 JUMPI PUSH1 0x0 DUP1 REVERT JUMPDEST POP PUSH2 0x943 PUSH1 0x4 DUP1 CALLDATASIZE SUB DUP2 ADD SWAP1 PUSH2 0x93E SWAP2 SWAP1 PUSH2 0x3886 JUMP JUMPDEST PUSH2 0x1EEC JUMP JUMPDEST STOP JUMPDEST CALLVALUE DUP1 ISZERO PUSH2 0x951 JUMPI PUSH1 0x0 DUP1 REVERT JUMPDEST POP PUSH2 0x96C PUSH1 0x4 DUP1 CALLDATASIZE SUB DUP2 ADD SWAP1 PUSH2 0x967 SWAP2 SWAP1 PUSH2 0x385D JUMP JUMPDEST PUSH2 0x2030 JUMP JUMPDEST PUSH1 0x40 MLOAD PUSH2 0x979 SWAP2 SWAP1 PUSH2 0x4319 JUMP JUMPDEST PUSH1 0x40 MLOAD DUP1 SWAP2 SUB SWAP1 RETURN JUMPDEST CALLVALUE DUP1 ISZERO PUSH2 0x98E JUMPI PUSH1 0x0 DUP1 REVERT JUMPDEST POP PUSH2 0x9A9 PUSH1 0x4 DUP1 CALLDATASIZE SUB DUP2 ADD SWAP1 PUSH2 0x9A4 SWAP2 SWAP1 PUSH2 0x3A39 JUMP JUMPDEST PUSH2 0x20C6 JUMP JUMPDEST STOP JUMPDEST CALLVALUE DUP1 ISZERO PUSH2 0x9B7 JUMPI PUSH1 0x0 DUP1 REVERT JUMPDEST POP PUSH2 0x9D2 PUSH1 0x4 DUP1 CALLDATASIZE SUB DUP2 ADD SWAP1 PUSH2 0x9CD SWAP2 SWAP1 PUSH2 0x3AC7 JUMP JUMPDEST PUSH2 0x21A7 JUMP JUMPDEST STOP JUMPDEST CALLVALUE DUP1 ISZERO PUSH2 0x9E0 JUMPI PUSH1 0x0 DUP1 REVERT JUMPDEST POP PUSH2 0x9FB PUSH1 0x4 DUP1 CALLDATASIZE SUB DUP2 ADD SWAP1 PUSH2 0x9F6 SWAP2 SWAP1 PUSH2 0x385D JUMP JUMPDEST PUSH2 0x285B JUMP JUMPDEST PUSH1 0x40 MLOAD PUSH2 0xA0A SWAP4 SWAP3 SWAP2 SWAP1 PUSH2 0x436B JUMP JUMPDEST PUSH1 0x40 MLOAD DUP1 SWAP2 SUB SWAP1 RETURN JUMPDEST CALLVALUE DUP1 ISZERO PUSH2 0xA1F JUMPI PUSH1 0x0 DUP1 REVERT JUMPDEST POP PUSH2 0xA28 PUSH2 0x2885 JUMP JUMPDEST PUSH1 0x40 MLOAD PUSH2 0xA35 SWAP2 SWAP1 PUSH2 0x4319 JUMP JUMPDEST PUSH1 0x40 MLOAD DUP1 SWAP2 SUB SWAP1 RETURN JUMPDEST CALLVALUE DUP1 ISZERO PUSH2 0xA4A JUMPI PUSH1 0x0 DUP1 REVERT JUMPDEST POP PUSH2 0xA65 PUSH1 0x4 DUP1 CALLDATASIZE SUB DUP2 ADD SWAP1 PUSH2 0xA60 SWAP2 SWAP1 PUSH2 0x393F JUMP JUMPDEST PUSH2 0x288B JUMP JUMPDEST PUSH1 0x40 MLOAD PUSH2 0xA72 SWAP2 SWAP1 PUSH2 0x4319 JUMP JUMPDEST PUSH1 0x40 MLOAD DUP1 SWAP2 SUB SWAP1 RETURN JUMPDEST CALLVALUE DUP1 ISZERO PUSH2 0xA87 JUMPI PUSH1 0x0 DUP1 REVERT JUMPDEST POP PUSH2 0xAA2 PUSH1 0x4 DUP1 CALLDATASIZE SUB DUP2 ADD SWAP1 PUSH2 0xA9D SWAP2 SWAP1 PUSH2 0x393F JUMP JUMPDEST PUSH2 0x28B0 JUMP JUMPDEST PUSH1 0x40 MLOAD PUSH2 0xAAF SWAP2 SWAP1 PUSH2 0x4319 JUMP JUMPDEST PUSH1 0x40 MLOAD DUP1 SWAP2 SUB SWAP1 RETURN JUMPDEST CALLVALUE DUP1 ISZERO PUSH2 0xAC4 JUMPI PUSH1 0x0 DUP1 REVERT JUMPDEST POP PUSH2 0xACD PUSH2 0x290B JUMP JUMPDEST PUSH1 0x40 MLOAD PUSH2 0xADA SWAP2 SWAP1 PUSH2 0x4319 JUMP JUMPDEST PUSH1 0x40 MLOAD DUP1 SWAP2 SUB SWAP1 RETURN JUMPDEST CALLVALUE DUP1 ISZERO PUSH2 0xAEF JUMPI PUSH1 0x0 DUP1 REVERT JUMPDEST POP PUSH2 0xAF8 PUSH2 0x2911 JUMP JUMPDEST PUSH1 0x40 MLOAD PUSH2 0xB05 SWAP2 SWAP1 PUSH2 0x4319 JUMP JUMPDEST PUSH1 0x40 MLOAD DUP1 SWAP2 SUB SWAP1 RETURN JUMPDEST CALLVALUE DUP1 ISZERO PUSH2 0xB1A JUMPI PUSH1 0x0 DUP1 REVERT JUMPDEST POP PUSH2 0xB23 PUSH2 0x2917 JUMP JUMPDEST PUSH1 0x40 MLOAD PUSH2 0xB30 SWAP2 SWAP1 PUSH2 0x4319 JUMP JUMPDEST PUSH1 0x40 MLOAD DUP1 SWAP2 SUB SWAP1 RETURN JUMPDEST CALLVALUE DUP1 ISZERO PUSH2 0xB45 JUMPI PUSH1 0x0 DUP1 REVERT JUMPDEST POP PUSH2 0xB60 PUSH1 0x4 DUP1 CALLDATASIZE SUB DUP2 ADD SWAP1 PUSH2 0xB5B SWAP2 SWAP1 PUSH2 0x385D JUMP JUMPDEST PUSH2 0x291D JUMP JUMPDEST PUSH1 0x40 MLOAD PUSH2 0xB6D SWAP2 SWAP1 PUSH2 0x4319 JUMP JUMPDEST PUSH1 0x40 MLOAD DUP1 SWAP2 SUB SWAP1 RETURN JUMPDEST CALLVALUE DUP1 ISZERO PUSH2 0xB82 JUMPI PUSH1 0x0 DUP1 REVERT JUMPDEST POP PUSH2 0xB8B PUSH2 0x2990 JUMP JUMPDEST PUSH1 0x40 MLOAD PUSH2 0xB98 SWAP2 SWAP1 PUSH2 0x4319 JUMP JUMPDEST PUSH1 0x40 MLOAD DUP1 SWAP2 SUB SWAP1 RETURN JUMPDEST CALLVALUE DUP1 ISZERO PUSH2 0xBAD JUMPI PUSH1 0x0 DUP1 REVERT JUMPDEST POP PUSH2 0xBB6 PUSH2 0x299D JUMP JUMPDEST PUSH1 0x40 MLOAD PUSH2 0xBC3 SWAP2 SWAP1 PUSH2 0x4319 JUMP JUMPDEST PUSH1 0x40 MLOAD DUP1 SWAP2 SUB SWAP1 RETURN JUMPDEST CALLVALUE DUP1 ISZERO PUSH2 0xBD8 JUMPI PUSH1 0x0 DUP1 REVERT JUMPDEST POP PUSH2 0xBE1 PUSH2 0x29A3 JUMP JUMPDEST STOP JUMPDEST CALLVALUE DUP1 ISZERO PUSH2 0xBEF JUMPI PUSH1 0x0 DUP1 REVERT JUMPDEST POP PUSH2 0xBF8 PUSH2 0x2A51 JUMP JUMPDEST PUSH1 0x40 MLOAD PUSH2 0xC05 SWAP2 SWAP1 PUSH2 0x4319 JUMP JUMPDEST PUSH1 0x40 MLOAD DUP1 SWAP2 SUB SWAP1 RETURN JUMPDEST PUSH8 0x8AC7230489E80000 DUP2 JUMP JUMPDEST PUSH1 0x0 PUSH1 0xA SLOAD GT ISZERO PUSH2 0xC91 JUMPI PUSH2 0xC88 PUSH1 0x2 PUSH1 0x0 SWAP1 SLOAD SWAP1 PUSH2 0x100 EXP SWAP1 DIV PUSH20 0xFFFFFFFFFFFFFFFFFFFFFFFFFFFFFFFFFFFFFFFF AND PUSH1 0xA SLOAD PUSH20 0xD9FF12172803C072A36785DEFEA1AA981A6A0C18 PUSH20 0xFFFFFFFFFFFFFFFFFFFFFFFFFFFFFFFFFFFFFFFF AND PUSH2 0x2A57 SWAP1 SWAP3 SWAP2 SWAP1 PUSH4 0xFFFFFFFF AND JUMP JUMPDEST PUSH1 0x0 PUSH1 0xA DUP2 SWAP1 SSTORE POP JUMPDEST JUMP JUMPDEST PUSH1 0x9 SLOAD DUP2 JUMP JUMPDEST PUSH1 0x0 PUSH20 0xD9FF12172803C072A36785DEFEA1AA981A6A0C18 PUSH20 0xFFFFFFFFFFFFFFFFFFFFFFFFFFFFFFFFFFFFFFFF AND PUSH4 0x70A08231 ADDRESS PUSH1 0x40 MLOAD DUP3 PUSH4 0xFFFFFFFF AND PUSH1 0xE0 SHL DUP2 MSTORE PUSH1 0x4 ADD PUSH2 0xCE8 SWAP2 SWAP1 PUSH2 0x403B JUMP JUMPDEST PUSH1 0x20 PUSH1 0x40 MLOAD DUP1 DUP4 SUB DUP2 DUP7 DUP1 EXTCODESIZE ISZERO DUP1 ISZERO PUSH2 0xD00 JUMPI PUSH1 0x0 DUP1 REVERT JUMPDEST POP GAS STATICCALL ISZERO DUP1 ISZERO PUSH2 0xD14 JUMPI RETURNDATASIZE PUSH1 0x0 DUP1 RETURNDATACOPY RETURNDATASIZE PUSH1 0x0 REVERT JUMPDEST POP POP POP POP PUSH1 0x40 MLOAD RETURNDATASIZE PUSH1 0x1F NOT PUSH1 0x1F DUP3 ADD AND DUP3 ADD DUP1 PUSH1 0x40 MSTORE POP DUP2 ADD SWAP1 PUSH2 0xD38 SWAP2 SWAP1 PUSH2 0x3A9E JUMP JUMPDEST SWAP1 POP SWAP1 JUMP JUMPDEST PUSH1 0x5 PUSH1 0x20 MSTORE DUP1 PUSH1 0x0 MSTORE PUSH1 0x40 PUSH1 0x0 KECCAK256 PUSH1 0x0 SWAP2 POP SWAP1 POP SLOAD DUP2 JUMP JUMPDEST PUSH1 0x2 PUSH1 0x0 SWAP1 SLOAD SWAP1 PUSH2 0x100 EXP SWAP1 DIV PUSH20 0xFFFFFFFFFFFFFFFFFFFFFFFFFFFFFFFFFFFFFFFF AND PUSH20 0xFFFFFFFFFFFFFFFFFFFFFFFFFFFFFFFFFFFFFFFF AND CALLER PUSH20 0xFFFFFFFFFFFFFFFFFFFFFFFFFFFFFFFFFFFFFFFF AND EQ PUSH2 0xDE5 JUMPI PUSH1 0x40 MLOAD PUSH32 0x8C379A000000000000000000000000000000000000000000000000000000000 DUP2 MSTORE PUSH1 0x4 ADD PUSH2 0xDDC SWAP1 PUSH2 0x4159 JUMP JUMPDEST PUSH1 0x40 MLOAD DUP1 SWAP2 SUB SWAP1 REVERT JUMPDEST DUP1 PUSH1 0x10 DUP2 SWAP1 SSTORE POP POP JUMP JUMPDEST PUSH1 0x0 DUP1 PUSH1 0x0 SWAP1 POP PUSH1 0x0 JUMPDEST PUSH1 0x0 DUP1 SLOAD SWAP1 POP DUP2 LT ISZERO PUSH2 0xE64 JUMPI PUSH2 0xE55 PUSH2 0xE46 PUSH1 0x5 PUSH1 0x0 DUP5 DUP2 MSTORE PUSH1 0x20 ADD SWAP1 DUP2 MSTORE PUSH1 0x20 ADD PUSH1 0x0 KECCAK256 SLOAD PUSH1 0x0 DUP5 DUP2 SLOAD DUP2 LT PUSH2 0xE2D JUMPI INVALID JUMPDEST SWAP1 PUSH1 0x0 MSTORE PUSH1 0x20 PUSH1 0x0 KECCAK256 ADD SLOAD PUSH2 0x2ADD SWAP1 SWAP2 SWAP1 PUSH4 0xFFFFFFFF AND JUMP JUMPDEST DUP4 PUSH2 0x2B4D SWAP1 SWAP2 SWAP1 PUSH4 0xFFFFFFFF AND JUMP JUMPDEST SWAP2 POP DUP1 DUP1 PUSH1 0x1 ADD SWAP2 POP POP PUSH2 0xDF9 JUMP JUMPDEST POP DUP1 SWAP2 POP POP SWAP1 JUMP JUMPDEST PUSH1 0x6 DUP2 DUP2 SLOAD DUP2 LT PUSH2 0xE79 JUMPI INVALID JUMPDEST SWAP1 PUSH1 0x0 MSTORE PUSH1 0x20 PUSH1 0x0 KECCAK256 ADD PUSH1 0x0 SWAP2 POP SLOAD SWAP1 PUSH2 0x100 EXP SWAP1 DIV PUSH20 0xFFFFFFFFFFFFFFFFFFFFFFFFFFFFFFFFFFFFFFFF AND DUP2 JUMP JUMPDEST PUSH1 0x0 DUP2 DUP2 SLOAD DUP2 LT PUSH2 0xEB5 JUMPI INVALID JUMPDEST SWAP1 PUSH1 0x0 MSTORE PUSH1 0x20 PUSH1 0x0 KECCAK256 ADD PUSH1 0x0 SWAP2 POP SWAP1 POP SLOAD DUP2 JUMP JUMPDEST PUSH1 0x12 PUSH1 0x0 SWAP1 SLOAD SWAP1 PUSH2 0x100 EXP SWAP1 DIV PUSH1 0xFF AND DUP2 JUMP JUMPDEST PUSH1 0x2 PUSH1 0x0 SWAP1 SLOAD SWAP1 PUSH2 0x100 EXP SWAP1 DIV PUSH20 0xFFFFFFFFFFFFFFFFFFFFFFFFFFFFFFFFFFFFFFFF AND PUSH20 0xFFFFFFFFFFFFFFFFFFFFFFFFFFFFFFFFFFFFFFFF AND CALLER PUSH20 0xFFFFFFFFFFFFFFFFFFFFFFFFFFFFFFFFFFFFFFFF AND EQ PUSH2 0xF6C JUMPI PUSH1 0x40 MLOAD PUSH32 0x8C379A000000000000000000000000000000000000000000000000000000000 DUP2 MSTORE PUSH1 0x4 ADD PUSH2 0xF63 SWAP1 PUSH2 0x4159 JUMP JUMPDEST PUSH1 0x40 MLOAD DUP1 SWAP2 SUB SWAP1 REVERT JUMPDEST PUSH2 0xFD9 DUP2 PUSH1 0x0 ADD MLOAD PUSH2 0xFCB PUSH1 0x3 PUSH1 0x0 DUP7 PUSH20 0xFFFFFFFFFFFFFFFFFFFFFFFFFFFFFFFFFFFFFFFF AND PUSH20 0xFFFFFFFFFFFFFFFFFFFFFFFFFFFFFFFFFFFFFFFF AND DUP2 MSTORE PUSH1 0x20 ADD SWAP1 DUP2 MSTORE PUSH1 0x20 ADD PUSH1 0x0 KECCAK256 PUSH1 0x0 ADD SLOAD PUSH1 0x7 SLOAD PUSH2 0x2BA2 SWAP1 SWAP2 SWAP1 PUSH4 0xFFFFFFFF AND JUMP JUMPDEST PUSH2 0x2B4D SWAP1 SWAP2 SWAP1 PUSH4 0xFFFFFFFF AND JUMP JUMPDEST PUSH1 0x7 DUP2 SWAP1 SSTORE POP PUSH2 0x104C DUP2 PUSH1 0x20 ADD MLOAD PUSH2 0x103E PUSH1 0x3 PUSH1 0x0 DUP7 PUSH20 0xFFFFFFFFFFFFFFFFFFFFFFFFFFFFFFFFFFFFFFFF AND PUSH20 0xFFFFFFFFFFFFFFFFFFFFFFFFFFFFFFFFFFFFFFFF AND DUP2 MSTORE PUSH1 0x20 ADD SWAP1 DUP2 MSTORE PUSH1 0x20 ADD PUSH1 0x0 KECCAK256 PUSH1 0x1 ADD SLOAD PUSH1 0x8 SLOAD PUSH2 0x2BA2 SWAP1 SWAP2 SWAP1 PUSH4 0xFFFFFFFF AND JUMP JUMPDEST PUSH2 0x2B4D SWAP1 SWAP2 SWAP1 PUSH4 0xFFFFFFFF AND JUMP JUMPDEST PUSH1 0x8 DUP2 SWAP1 SSTORE POP DUP1 PUSH1 0x0 ADD MLOAD PUSH1 0x3 PUSH1 0x0 DUP5 PUSH20 0xFFFFFFFFFFFFFFFFFFFFFFFFFFFFFFFFFFFFFFFF AND PUSH20 0xFFFFFFFFFFFFFFFFFFFFFFFFFFFFFFFFFFFFFFFF AND DUP2 MSTORE PUSH1 0x20 ADD SWAP1 DUP2 MSTORE PUSH1 0x20 ADD PUSH1 0x0 KECCAK256 PUSH1 0x0 ADD DUP2 SWAP1 SSTORE POP DUP1 PUSH1 0x20 ADD MLOAD PUSH1 0x3 PUSH1 0x0 DUP5 PUSH20 0xFFFFFFFFFFFFFFFFFFFFFFFFFFFFFFFFFFFFFFFF AND PUSH20 0xFFFFFFFFFFFFFFFFFFFFFFFFFFFFFFFFFFFFFFFF AND DUP2 MSTORE PUSH1 0x20 ADD SWAP1 DUP2 MSTORE PUSH1 0x20 ADD PUSH1 0x0 KECCAK256 PUSH1 0x1 ADD DUP2 SWAP1 SSTORE POP POP POP JUMP JUMPDEST PUSH1 0x0 PUSH2 0x10F7 DUP3 PUSH2 0x1564 JUMP JUMPDEST ISZERO PUSH2 0x1105 JUMPI PUSH1 0x0 SWAP1 POP PUSH2 0x11B1 JUMP JUMPDEST PUSH1 0x0 PUSH2 0x115E PUSH1 0x3 PUSH1 0x0 DUP6 PUSH20 0xFFFFFFFFFFFFFFFFFFFFFFFFFFFFFFFFFFFFFFFF AND PUSH20 0xFFFFFFFFFFFFFFFFFFFFFFFFFFFFFFFFFFFFFFFF AND DUP2 MSTORE PUSH1 0x20 ADD SWAP1 DUP2 MSTORE PUSH1 0x20 ADD PUSH1 0x0 KECCAK256 PUSH1 0x2 ADD SLOAD PUSH1 0xD SLOAD PUSH2 0x2BA2 SWAP1 SWAP2 SWAP1 PUSH4 0xFFFFFFFF AND JUMP JUMPDEST SWAP1 POP PUSH1 0x0 PUSH2 0x1197 PUSH8 0x8AC7230489E80000 PUSH2 0x1189 DUP5 PUSH2 0x117B DUP9 PUSH2 0x1C0B JUMP JUMPDEST PUSH2 0x2ADD SWAP1 SWAP2 SWAP1 PUSH4 0xFFFFFFFF AND JUMP JUMPDEST PUSH2 0x2BEC SWAP1 SWAP2 SWAP1 PUSH4 0xFFFFFFFF AND JUMP JUMPDEST SWAP1 POP PUSH1 0x9 SLOAD DUP2 GT PUSH2 0x11A8 JUMPI DUP1 PUSH2 0x11AC JUMP JUMPDEST PUSH1 0x9 SLOAD JUMPDEST SWAP3 POP POP POP JUMPDEST SWAP2 SWAP1 POP JUMP JUMPDEST PUSH1 0x2 PUSH1 0x0 SWAP1 SLOAD SWAP1 PUSH2 0x100 EXP SWAP1 DIV PUSH20 0xFFFFFFFFFFFFFFFFFFFFFFFFFFFFFFFFFFFFFFFF AND PUSH20 0xFFFFFFFFFFFFFFFFFFFFFFFFFFFFFFFFFFFFFFFF AND CALLER PUSH20 0xFFFFFFFFFFFFFFFFFFFFFFFFFFFFFFFFFFFFFFFF AND EQ PUSH2 0x1246 JUMPI PUSH1 0x40 MLOAD PUSH32 0x8C379A000000000000000000000000000000000000000000000000000000000 DUP2 MSTORE PUSH1 0x4 ADD PUSH2 0x123D SWAP1 PUSH2 0x4159 JUMP JUMPDEST PUSH1 0x40 MLOAD DUP1 SWAP2 SUB SWAP1 REVERT JUMPDEST DUP1 MLOAD DUP3 MLOAD EQ PUSH2 0x128A JUMPI PUSH1 0x40 MLOAD PUSH32 0x8C379A000000000000000000000000000000000000000000000000000000000 DUP2 MSTORE PUSH1 0x4 ADD PUSH2 0x1281 SWAP1 PUSH2 0x4299 JUMP JUMPDEST PUSH1 0x40 MLOAD DUP1 SWAP2 SUB SWAP1 REVERT JUMPDEST DUP2 PUSH1 0x0 SWAP1 DUP1 MLOAD SWAP1 PUSH1 0x20 ADD SWAP1 PUSH2 0x12A0 SWAP3 SWAP2 SWAP1 PUSH2 0x367D JUMP JUMPDEST POP DUP1 PUSH1 0x1 SWAP1 DUP1 MLOAD SWAP1 PUSH1 0x20 ADD SWAP1 PUSH2 0x12B7 SWAP3 SWAP2 SWAP1 PUSH2 0x367D JUMP JUMPDEST POP POP POP JUMP JUMPDEST PUSH1 0x0 DUP1 PUSH1 0x3 PUSH1 0x0 DUP5 PUSH20 0xFFFFFFFFFFFFFFFFFFFFFFFFFFFFFFFFFFFFFFFF AND PUSH20 0xFFFFFFFFFFFFFFFFFFFFFFFFFFFFFFFFFFFFFFFF AND DUP2 MSTORE PUSH1 0x20 ADD SWAP1 DUP2 MSTORE PUSH1 0x20 ADD PUSH1 0x0 KECCAK256 PUSH1 0x0 ADD SLOAD EQ ISZERO PUSH2 0x1311 JUMPI PUSH1 0x0 SWAP1 POP PUSH2 0x13F7 JUMP JUMPDEST PUSH1 0x0 PUSH2 0x1368 PUSH2 0x1351 PUSH2 0x1321 PUSH2 0xDEF JUMP JUMPDEST PUSH2 0x1343 PUSH2 0x132D DUP8 PUSH2 0x1C0B JUMP JUMPDEST PUSH2 0x1335 PUSH2 0x16C1 JUMP JUMPDEST PUSH2 0x2ADD SWAP1 SWAP2 SWAP1 PUSH4 0xFFFFFFFF AND JUMP JUMPDEST PUSH2 0x2BEC SWAP1 SWAP2 SWAP1 PUSH4 0xFFFFFFFF AND JUMP JUMPDEST PUSH2 0x135A DUP6 PUSH2 0x10EC JUMP JUMPDEST PUSH2 0x2B4D SWAP1 SWAP2 SWAP1 PUSH4 0xFFFFFFFF AND JUMP JUMPDEST SWAP1 POP PUSH1 0x0 PUSH1 0x3 PUSH1 0x0 DUP6 PUSH20 0xFFFFFFFFFFFFFFFFFFFFFFFFFFFFFFFFFFFFFFFF AND PUSH20 0xFFFFFFFFFFFFFFFFFFFFFFFFFFFFFFFFFFFFFFFF AND DUP2 MSTORE PUSH1 0x20 ADD SWAP1 DUP2 MSTORE PUSH1 0x20 ADD PUSH1 0x0 KECCAK256 PUSH1 0x1 ADD SLOAD SWAP1 POP PUSH1 0x0 PUSH2 0x13BC DUP6 PUSH2 0x291D JUMP JUMPDEST SWAP1 POP DUP1 PUSH2 0x13D2 DUP5 DUP5 PUSH2 0x2B4D SWAP1 SWAP2 SWAP1 PUSH4 0xFFFFFFFF AND JUMP JUMPDEST GT PUSH2 0x13DD JUMPI DUP3 PUSH2 0x13F1 JUMP JUMPDEST PUSH2 0x13F0 DUP3 DUP3 PUSH2 0x2BA2 SWAP1 SWAP2 SWAP1 PUSH4 0xFFFFFFFF AND JUMP JUMPDEST JUMPDEST SWAP4 POP POP POP POP JUMPDEST SWAP2 SWAP1 POP JUMP JUMPDEST PUSH1 0x2 PUSH1 0x0 SWAP1 SLOAD SWAP1 PUSH2 0x100 EXP SWAP1 DIV PUSH20 0xFFFFFFFFFFFFFFFFFFFFFFFFFFFFFFFFFFFFFFFF AND PUSH20 0xFFFFFFFFFFFFFFFFFFFFFFFFFFFFFFFFFFFFFFFF AND CALLER PUSH20 0xFFFFFFFFFFFFFFFFFFFFFFFFFFFFFFFFFFFFFFFF AND EQ PUSH2 0x148C JUMPI PUSH1 0x40 MLOAD PUSH32 0x8C379A000000000000000000000000000000000000000000000000000000000 DUP2 MSTORE PUSH1 0x4 ADD PUSH2 0x1483 SWAP1 PUSH2 0x4159 JUMP JUMPDEST PUSH1 0x40 MLOAD DUP1 SWAP2 SUB SWAP1 REVERT JUMPDEST DUP1 PUSH1 0x12 PUSH1 0x0 PUSH2 0x100 EXP DUP2 SLOAD DUP2 PUSH1 0xFF MUL NOT AND SWAP1 DUP4 ISZERO ISZERO MUL OR SWAP1 SSTORE POP POP JUMP JUMPDEST PUSH1 0x1 DUP2 DUP2 SLOAD DUP2 LT PUSH2 0x14B6 JUMPI INVALID JUMPDEST SWAP1 PUSH1 0x0 MSTORE PUSH1 0x20 PUSH1 0x0 KECCAK256 ADD PUSH1 0x0 SWAP2 POP SWAP1 POP SLOAD DUP2 JUMP JUMPDEST PUSH1 0x2 PUSH1 0x0 SWAP1 SLOAD SWAP1 PUSH2 0x100 EXP SWAP1 DIV PUSH20 0xFFFFFFFFFFFFFFFFFFFFFFFFFFFFFFFFFFFFFFFF AND PUSH20 0xFFFFFFFFFFFFFFFFFFFFFFFFFFFFFFFFFFFFFFFF AND CALLER PUSH20 0xFFFFFFFFFFFFFFFFFFFFFFFFFFFFFFFFFFFFFFFF AND EQ PUSH2 0x155A JUMPI PUSH1 0x40 MLOAD PUSH32 0x8C379A000000000000000000000000000000000000000000000000000000000 DUP2 MSTORE PUSH1 0x4 ADD PUSH2 0x1551 SWAP1 PUSH2 0x4159 JUMP JUMPDEST PUSH1 0x40 MLOAD DUP1 SWAP2 SUB SWAP1 REVERT JUMPDEST DUP1 PUSH1 0x11 DUP2 SWAP1 SSTORE POP POP JUMP JUMPDEST PUSH1 0x0 PUSH2 0x156F DUP3 PUSH2 0x291D JUMP JUMPDEST PUSH1 0x3 PUSH1 0x0 DUP5 PUSH20 0xFFFFFFFFFFFFFFFFFFFFFFFFFFFFFFFFFFFFFFFF AND PUSH20 0xFFFFFFFFFFFFFFFFFFFFFFFFFFFFFFFFFFFFFFFF AND DUP2 MSTORE PUSH1 0x20 ADD SWAP1 DUP2 MSTORE PUSH1 0x20 ADD PUSH1 0x0 KECCAK256 PUSH1 0x1 ADD SLOAD LT ISZERO SWAP1 POP SWAP2 SWAP1 POP JUMP JUMPDEST PUSH1 0x60 DUP1 PUSH1 0x0 DUP1 SLOAD SWAP1 POP PUSH8 0xFFFFFFFFFFFFFFFF DUP2 GT DUP1 ISZERO PUSH2 0x15DA JUMPI PUSH1 0x0 DUP1 REVERT JUMPDEST POP PUSH1 0x40 MLOAD SWAP1 DUP1 DUP3 MSTORE DUP1 PUSH1 0x20 MUL PUSH1 0x20 ADD DUP3 ADD PUSH1 0x40 MSTORE DUP1 ISZERO PUSH2 0x1609 JUMPI DUP2 PUSH1 0x20 ADD PUSH1 0x20 DUP3 MUL DUP1 CALLDATASIZE DUP4 CALLDATACOPY DUP1 DUP3 ADD SWAP2 POP POP SWAP1 POP JUMPDEST POP SWAP1 POP PUSH1 0x0 JUMPDEST PUSH1 0x0 DUP1 SLOAD SWAP1 POP DUP2 LT ISZERO PUSH2 0x16B7 JUMPI PUSH2 0x1692 PUSH1 0x4 PUSH1 0x0 DUP7 PUSH20 0xFFFFFFFFFFFFFFFFFFFFFFFFFFFFFFFFFFFFFFFF AND PUSH20 0xFFFFFFFFFFFFFFFFFFFFFFFFFFFFFFFFFFFFFFFF AND DUP2 MSTORE PUSH1 0x20 ADD SWAP1 DUP2 MSTORE PUSH1 0x20 ADD PUSH1 0x0 KECCAK256 PUSH1 0x0 DUP4 DUP2 MSTORE PUSH1 0x20 ADD SWAP1 DUP2 MSTORE PUSH1 0x20 ADD PUSH1 0x0 KECCAK256 SLOAD DUP4 DUP4 DUP2 MLOAD DUP2 LT PUSH2 0x167C JUMPI INVALID JUMPDEST PUSH1 0x20 MUL PUSH1 0x20 ADD ADD MLOAD PUSH2 0x2B4D SWAP1 SWAP2 SWAP1 PUSH4 0xFFFFFFFF AND JUMP JUMPDEST DUP3 DUP3 DUP2 MLOAD DUP2 LT PUSH2 0x169E JUMPI INVALID JUMPDEST PUSH1 0x20 MUL PUSH1 0x20 ADD ADD DUP2 DUP2 MSTORE POP POP DUP1 DUP1 PUSH1 0x1 ADD SWAP2 POP POP PUSH2 0x160F JUMP JUMPDEST POP DUP1 SWAP2 POP POP SWAP2 SWAP1 POP JUMP JUMPDEST PUSH1 0x0 TIMESTAMP PUSH1 0x10 SLOAD LT ISZERO PUSH2 0x1734 JUMPI PUSH1 0x0 PUSH2 0x16D7 PUSH2 0x1BA5 JUMP JUMPDEST SWAP1 POP PUSH1 0x0 PUSH2 0x16F0 PUSH1 0x10 SLOAD TIMESTAMP PUSH2 0x2BA2 SWAP1 SWAP2 SWAP1 PUSH4 0xFFFFFFFF AND JUMP JUMPDEST SWAP1 POP PUSH1 0x0 PUSH2 0x171B PUSH1 0xF SLOAD PUSH2 0x170D DUP6 DUP6 PUSH2 0x2ADD SWAP1 SWAP2 SWAP1 PUSH4 0xFFFFFFFF AND JUMP JUMPDEST PUSH2 0x2BEC SWAP1 SWAP2 SWAP1 PUSH4 0xFFFFFFFF AND JUMP JUMPDEST SWAP1 POP DUP3 DUP2 GT ISZERO PUSH2 0x1729 JUMPI DUP3 SWAP1 POP JUMPDEST DUP1 SWAP4 POP POP POP POP PUSH2 0x1739 JUMP JUMPDEST PUSH1 0x0 SWAP1 POP JUMPDEST SWAP1 JUMP JUMPDEST PUSH2 0x1744 PUSH2 0x1BDC JUMP JUMPDEST PUSH1 0x0 CALLER SWAP1 POP PUSH1 0x0 PUSH2 0x1754 DUP3 PUSH2 0x10EC JUMP JUMPDEST SWAP1 POP PUSH1 0x0 DUP2 GT ISZERO PUSH2 0x193F JUMPI PUSH2 0x1774 DUP2 PUSH1 0x9 SLOAD PUSH2 0x2BA2 SWAP1 SWAP2 SWAP1 PUSH4 0xFFFFFFFF AND JUMP JUMPDEST PUSH1 0x9 DUP2 SWAP1 SSTORE POP PUSH1 0x0 PUSH1 0x3 PUSH1 0x0 DUP5 PUSH20 0xFFFFFFFFFFFFFFFFFFFFFFFFFFFFFFFFFFFFFFFF AND PUSH20 0xFFFFFFFFFFFFFFFFFFFFFFFFFFFFFFFFFFFFFFFF AND DUP2 MSTORE PUSH1 0x20 ADD SWAP1 DUP2 MSTORE PUSH1 0x20 ADD PUSH1 0x0 KECCAK256 PUSH1 0x1 ADD SLOAD SWAP1 POP PUSH1 0x0 PUSH2 0x17CC DUP5 PUSH2 0x291D JUMP JUMPDEST SWAP1 POP DUP1 PUSH2 0x17E2 DUP5 DUP5 PUSH2 0x2B4D SWAP1 SWAP2 SWAP1 PUSH4 0xFFFFFFFF AND JUMP JUMPDEST GT ISZERO PUSH2 0x17FE JUMPI PUSH2 0x17FB DUP3 DUP3 PUSH2 0x2BA2 SWAP1 SWAP2 SWAP1 PUSH4 0xFFFFFFFF AND JUMP JUMPDEST SWAP3 POP JUMPDEST PUSH2 0x1853 DUP4 PUSH1 0x3 PUSH1 0x0 DUP8 PUSH20 0xFFFFFFFFFFFFFFFFFFFFFFFFFFFFFFFFFFFFFFFF AND PUSH20 0xFFFFFFFFFFFFFFFFFFFFFFFFFFFFFFFFFFFFFFFF AND DUP2 MSTORE PUSH1 0x20 ADD SWAP1 DUP2 MSTORE PUSH1 0x20 ADD PUSH1 0x0 KECCAK256 PUSH1 0x1 ADD SLOAD PUSH2 0x2B4D SWAP1 SWAP2 SWAP1 PUSH4 0xFFFFFFFF AND JUMP JUMPDEST PUSH1 0x3 PUSH1 0x0 DUP7 PUSH20 0xFFFFFFFFFFFFFFFFFFFFFFFFFFFFFFFFFFFFFFFF AND PUSH20 0xFFFFFFFFFFFFFFFFFFFFFFFFFFFFFFFFFFFFFFFF AND DUP2 MSTORE PUSH1 0x20 ADD SWAP1 DUP2 MSTORE PUSH1 0x20 ADD PUSH1 0x0 KECCAK256 PUSH1 0x1 ADD DUP2 SWAP1 SSTORE POP PUSH2 0x18AE DUP4 PUSH1 0x8 SLOAD PUSH2 0x2B4D SWAP1 SWAP2 SWAP1 PUSH4 0xFFFFFFFF AND JUMP JUMPDEST PUSH1 0x8 DUP2 SWAP1 SSTORE POP PUSH2 0x18F3 DUP5 DUP5 PUSH20 0xD9FF12172803C072A36785DEFEA1AA981A6A0C18 PUSH20 0xFFFFFFFFFFFFFFFFFFFFFFFFFFFFFFFFFFFFFFFF AND PUSH2 0x2A57 SWAP1 SWAP3 SWAP2 SWAP1 PUSH4 0xFFFFFFFF AND JUMP JUMPDEST PUSH1 0xD SLOAD PUSH1 0x3 PUSH1 0x0 DUP7 PUSH20 0xFFFFFFFFFFFFFFFFFFFFFFFFFFFFFFFFFFFFFFFF AND PUSH20 0xFFFFFFFFFFFFFFFFFFFFFFFFFFFFFFFFFFFFFFFF AND DUP2 MSTORE PUSH1 0x20 ADD SWAP1 DUP2 MSTORE PUSH1 0x20 ADD PUSH1 0x0 KECCAK256 PUSH1 0x2 ADD DUP2 SWAP1 SSTORE POP POP POP JUMPDEST POP POP JUMP JUMPDEST PUSH1 0x2 PUSH1 0x0 SWAP1 SLOAD SWAP1 PUSH2 0x100 EXP SWAP1 DIV PUSH20 0xFFFFFFFFFFFFFFFFFFFFFFFFFFFFFFFFFFFFFFFF AND PUSH20 0xFFFFFFFFFFFFFFFFFFFFFFFFFFFFFFFFFFFFFFFF AND CALLER PUSH20 0xFFFFFFFFFFFFFFFFFFFFFFFFFFFFFFFFFFFFFFFF AND EQ PUSH2 0x19D3 JUMPI PUSH1 0x40 MLOAD PUSH32 0x8C379A000000000000000000000000000000000000000000000000000000000 DUP2 MSTORE PUSH1 0x4 ADD PUSH2 0x19CA SWAP1 PUSH2 0x4159 JUMP JUMPDEST PUSH1 0x40 MLOAD DUP1 SWAP2 SUB SWAP1 REVERT JUMPDEST PUSH1 0x0 JUMPDEST DUP2 MLOAD DUP2 LT ISZERO PUSH2 0x1B06 JUMPI PUSH2 0x1A7A DUP3 DUP3 DUP2 MLOAD DUP2 LT PUSH2 0x19EE JUMPI INVALID JUMPDEST PUSH1 0x20 MUL PUSH1 0x20 ADD ADD MLOAD PUSH2 0x1A6C PUSH1 0x4 PUSH1 0x0 DUP8 PUSH20 0xFFFFFFFFFFFFFFFFFFFFFFFFFFFFFFFFFFFFFFFF AND PUSH20 0xFFFFFFFFFFFFFFFFFFFFFFFFFFFFFFFFFFFFFFFF AND DUP2 MSTORE PUSH1 0x20 ADD SWAP1 DUP2 MSTORE PUSH1 0x20 ADD PUSH1 0x0 KECCAK256 PUSH1 0x0 DUP6 DUP2 MSTORE PUSH1 0x20 ADD SWAP1 DUP2 MSTORE PUSH1 0x20 ADD PUSH1 0x0 KECCAK256 SLOAD PUSH1 0x5 PUSH1 0x0 DUP7 DUP2 MSTORE PUSH1 0x20 ADD SWAP1 DUP2 MSTORE PUSH1 0x20 ADD PUSH1 0x0 KECCAK256 SLOAD PUSH2 0x2BA2 SWAP1 SWAP2 SWAP1 PUSH4 0xFFFFFFFF AND JUMP JUMPDEST PUSH2 0x2B4D SWAP1 SWAP2 SWAP1 PUSH4 0xFFFFFFFF AND JUMP JUMPDEST PUSH1 0x5 PUSH1 0x0 DUP4 DUP2 MSTORE PUSH1 0x20 ADD SWAP1 DUP2 MSTORE PUSH1 0x20 ADD PUSH1 0x0 KECCAK256 DUP2 SWAP1 SSTORE POP DUP2 DUP2 DUP2 MLOAD DUP2 LT PUSH2 0x1A9D JUMPI INVALID JUMPDEST PUSH1 0x20 MUL PUSH1 0x20 ADD ADD MLOAD PUSH1 0x4 PUSH1 0x0 DUP6 PUSH20 0xFFFFFFFFFFFFFFFFFFFFFFFFFFFFFFFFFFFFFFFF AND PUSH20 0xFFFFFFFFFFFFFFFFFFFFFFFFFFFFFFFFFFFFFFFF AND DUP2 MSTORE PUSH1 0x20 ADD SWAP1 DUP2 MSTORE PUSH1 0x20 ADD PUSH1 0x0 KECCAK256 PUSH1 0x0 DUP4 DUP2 MSTORE PUSH1 0x20 ADD SWAP1 DUP2 MSTORE PUSH1 0x20 ADD PUSH1 0x0 KECCAK256 DUP2 SWAP1 SSTORE POP DUP1 DUP1 PUSH1 0x1 ADD SWAP2 POP POP PUSH2 0x19D6 JUMP JUMPDEST POP POP POP JUMP JUMPDEST PUSH1 0x2 PUSH1 0x0 SWAP1 SLOAD SWAP1 PUSH2 0x100 EXP SWAP1 DIV PUSH20 0xFFFFFFFFFFFFFFFFFFFFFFFFFFFFFFFFFFFFFFFF AND PUSH20 0xFFFFFFFFFFFFFFFFFFFFFFFFFFFFFFFFFFFFFFFF AND CALLER PUSH20 0xFFFFFFFFFFFFFFFFFFFFFFFFFFFFFFFFFFFFFFFF AND EQ PUSH2 0x1B9B JUMPI PUSH1 0x40 MLOAD PUSH32 0x8C379A000000000000000000000000000000000000000000000000000000000 DUP2 MSTORE PUSH1 0x4 ADD PUSH2 0x1B92 SWAP1 PUSH2 0x4159 JUMP JUMPDEST PUSH1 0x40 MLOAD DUP1 SWAP2 SUB SWAP1 REVERT JUMPDEST DUP1 PUSH1 0xB DUP2 SWAP1 SSTORE POP POP JUMP JUMPDEST PUSH1 0x0 PUSH2 0x1BD7 PUSH1 0xA SLOAD PUSH2 0x1BC9 PUSH1 0x9 SLOAD PUSH2 0x1BBB PUSH2 0xC99 JUMP JUMPDEST PUSH2 0x2BA2 SWAP1 SWAP2 SWAP1 PUSH4 0xFFFFFFFF AND JUMP JUMPDEST PUSH2 0x2BA2 SWAP1 SWAP2 SWAP1 PUSH4 0xFFFFFFFF AND JUMP JUMPDEST SWAP1 POP SWAP1 JUMP JUMPDEST PUSH1 0x0 PUSH2 0x1BE6 PUSH2 0x16C1 JUMP JUMPDEST SWAP1 POP PUSH1 0x0 DUP2 GT ISZERO PUSH2 0x1C02 JUMPI PUSH2 0x1BFA DUP2 PUSH2 0x2C36 JUMP JUMPDEST TIMESTAMP PUSH1 0x10 DUP2 SWAP1 SSTORE POP JUMPDEST POP JUMP JUMPDEST PUSH1 0xB SLOAD DUP2 JUMP JUMPDEST PUSH1 0x0 DUP1 PUSH1 0x0 SWAP1 POP PUSH1 0x0 JUMPDEST PUSH1 0x0 DUP1 SLOAD SWAP1 POP DUP2 LT ISZERO PUSH2 0x1CBD JUMPI PUSH2 0x1CAE PUSH2 0x1C9F PUSH1 0x4 PUSH1 0x0 DUP8 PUSH20 0xFFFFFFFFFFFFFFFFFFFFFFFFFFFFFFFFFFFFFFFF AND PUSH20 0xFFFFFFFFFFFFFFFFFFFFFFFFFFFFFFFFFFFFFFFF AND DUP2 MSTORE PUSH1 0x20 ADD SWAP1 DUP2 MSTORE PUSH1 0x20 ADD PUSH1 0x0 KECCAK256 PUSH1 0x0 DUP5 DUP2 MSTORE PUSH1 0x20 ADD SWAP1 DUP2 MSTORE PUSH1 0x20 ADD PUSH1 0x0 KECCAK256 SLOAD PUSH1 0x0 DUP5 DUP2 SLOAD DUP2 LT PUSH2 0x1C86 JUMPI INVALID JUMPDEST SWAP1 PUSH1 0x0 MSTORE PUSH1 0x20 PUSH1 0x0 KECCAK256 ADD SLOAD PUSH2 0x2ADD SWAP1 SWAP2 SWAP1 PUSH4 0xFFFFFFFF AND JUMP JUMPDEST DUP4 PUSH2 0x2B4D SWAP1 SWAP2 SWAP1 PUSH4 0xFFFFFFFF AND JUMP JUMPDEST SWAP2 POP DUP1 DUP1 PUSH1 0x1 ADD SWAP2 POP POP PUSH2 0x1C15 JUMP JUMPDEST POP DUP1 SWAP2 POP POP SWAP2 SWAP1 POP JUMP JUMPDEST PUSH1 0x2 PUSH1 0x0 SWAP1 SLOAD SWAP1 PUSH2 0x100 EXP SWAP1 DIV PUSH20 0xFFFFFFFFFFFFFFFFFFFFFFFFFFFFFFFFFFFFFFFF AND PUSH20 0xFFFFFFFFFFFFFFFFFFFFFFFFFFFFFFFFFFFFFFFF AND CALLER PUSH20 0xFFFFFFFFFFFFFFFFFFFFFFFFFFFFFFFFFFFFFFFF AND EQ PUSH2 0x1D57 JUMPI PUSH1 0x40 MLOAD PUSH32 0x8C379A000000000000000000000000000000000000000000000000000000000 DUP2 MSTORE PUSH1 0x4 ADD PUSH2 0x1D4E SWAP1 PUSH2 0x4159 JUMP JUMPDEST PUSH1 0x40 MLOAD DUP1 SWAP2 SUB SWAP1 REVERT JUMPDEST DUP1 PUSH1 0xF DUP2 SWAP1 SSTORE POP POP JUMP JUMPDEST PUSH1 0x60 DUP1 PUSH1 0x0 DUP1 SLOAD SWAP1 POP PUSH8 0xFFFFFFFFFFFFFFFF DUP2 GT DUP1 ISZERO PUSH2 0x1D80 JUMPI PUSH1 0x0 DUP1 REVERT JUMPDEST POP PUSH1 0x40 MLOAD SWAP1 DUP1 DUP3 MSTORE DUP1 PUSH1 0x20 MUL PUSH1 0x20 ADD DUP3 ADD PUSH1 0x40 MSTORE DUP1 ISZERO PUSH2 0x1DAF JUMPI DUP2 PUSH1 0x20 ADD PUSH1 0x20 DUP3 MUL DUP1 CALLDATASIZE DUP4 CALLDATACOPY DUP1 DUP3 ADD SWAP2 POP POP SWAP1 POP JUMPDEST POP SWAP1 POP PUSH1 0x0 JUMPDEST PUSH1 0x0 DUP1 SLOAD SWAP1 POP DUP2 LT ISZERO PUSH2 0x1E20 JUMPI PUSH2 0x1DFB PUSH1 0x5 PUSH1 0x0 DUP4 DUP2 MSTORE PUSH1 0x20 ADD SWAP1 DUP2 MSTORE PUSH1 0x20 ADD PUSH1 0x0 KECCAK256 SLOAD DUP4 DUP4 DUP2 MLOAD DUP2 LT PUSH2 0x1DE5 JUMPI INVALID JUMPDEST PUSH1 0x20 MUL PUSH1 0x20 ADD ADD MLOAD PUSH2 0x2B4D SWAP1 SWAP2 SWAP1 PUSH4 0xFFFFFFFF AND JUMP JUMPDEST DUP3 DUP3 DUP2 MLOAD DUP2 LT PUSH2 0x1E07 JUMPI INVALID JUMPDEST PUSH1 0x20 MUL PUSH1 0x20 ADD ADD DUP2 DUP2 MSTORE POP POP DUP1 DUP1 PUSH1 0x1 ADD SWAP2 POP POP PUSH2 0x1DB5 JUMP JUMPDEST POP DUP1 SWAP2 POP POP SWAP1 JUMP JUMPDEST PUSH1 0x2 PUSH1 0x0 SWAP1 SLOAD SWAP1 PUSH2 0x100 EXP SWAP1 DIV PUSH20 0xFFFFFFFFFFFFFFFFFFFFFFFFFFFFFFFFFFFFFFFF AND PUSH20 0xFFFFFFFFFFFFFFFFFFFFFFFFFFFFFFFFFFFFFFFF AND CALLER PUSH20 0xFFFFFFFFFFFFFFFFFFFFFFFFFFFFFFFFFFFFFFFF AND EQ PUSH2 0x1EB8 JUMPI PUSH1 0x40 MLOAD PUSH32 0x8C379A000000000000000000000000000000000000000000000000000000000 DUP2 MSTORE PUSH1 0x4 ADD PUSH2 0x1EAF SWAP1 PUSH2 0x4159 JUMP JUMPDEST PUSH1 0x40 MLOAD DUP1 SWAP2 SUB SWAP1 REVERT JUMPDEST DUP1 PUSH1 0xE DUP2 SWAP1 SSTORE POP POP JUMP JUMPDEST PUSH1 0x8 SLOAD DUP2 JUMP JUMPDEST PUSH1 0xE SLOAD DUP2 JUMP JUMPDEST PUSH1 0x11 SLOAD DUP2 JUMP JUMPDEST PUSH20 0xD9FF12172803C072A36785DEFEA1AA981A6A0C18 DUP2 JUMP JUMPDEST PUSH1 0x2 PUSH1 0x0 SWAP1 SLOAD SWAP1 PUSH2 0x100 EXP SWAP1 DIV PUSH20 0xFFFFFFFFFFFFFFFFFFFFFFFFFFFFFFFFFFFFFFFF AND PUSH20 0xFFFFFFFFFFFFFFFFFFFFFFFFFFFFFFFFFFFFFFFF AND CALLER PUSH20 0xFFFFFFFFFFFFFFFFFFFFFFFFFFFFFFFFFFFFFFFF AND EQ PUSH2 0x1F7C JUMPI PUSH1 0x40 MLOAD PUSH32 0x8C379A000000000000000000000000000000000000000000000000000000000 DUP2 MSTORE PUSH1 0x4 ADD PUSH2 0x1F73 SWAP1 PUSH2 0x4159 JUMP JUMPDEST PUSH1 0x40 MLOAD DUP1 SWAP2 SUB SWAP1 REVERT JUMPDEST PUSH1 0x0 PUSH20 0xFFFFFFFFFFFFFFFFFFFFFFFFFFFFFFFFFFFFFFFF AND DUP2 PUSH20 0xFFFFFFFFFFFFFFFFFFFFFFFFFFFFFFFFFFFFFFFF AND EQ ISZERO PUSH2 0x1FEC JUMPI PUSH1 0x40 MLOAD PUSH32 0x8C379A000000000000000000000000000000000000000000000000000000000 DUP2 MSTORE PUSH1 0x4 ADD PUSH2 0x1FE3 SWAP1 PUSH2 0x4239 JUMP JUMPDEST PUSH1 0x40 MLOAD DUP1 SWAP2 SUB SWAP1 REVERT JUMPDEST DUP1 PUSH1 0x2 PUSH1 0x0 PUSH2 0x100 EXP DUP2 SLOAD DUP2 PUSH20 0xFFFFFFFFFFFFFFFFFFFFFFFFFFFFFFFFFFFFFFFF MUL NOT AND SWAP1 DUP4 PUSH20 0xFFFFFFFFFFFFFFFFFFFFFFFFFFFFFFFFFFFFFFFF AND MUL OR SWAP1 SSTORE POP POP JUMP JUMPDEST PUSH1 0x0 DUP1 PUSH2 0x203C DUP4 PUSH2 0x1C0B JUMP JUMPDEST GT DUP1 ISZERO PUSH2 0x204F JUMPI POP PUSH2 0x204D DUP3 PUSH2 0x1564 JUMP JUMPDEST ISZERO JUMPDEST PUSH2 0x205A JUMPI PUSH1 0x0 PUSH2 0x20BF JUMP JUMPDEST PUSH2 0x20BE PUSH1 0xF SLOAD PUSH2 0x20B0 PUSH2 0x206B PUSH2 0xDEF JUMP JUMPDEST PUSH2 0x20A2 PUSH2 0x2077 DUP8 PUSH2 0x1C0B JUMP JUMPDEST PUSH2 0x2094 PUSH3 0x15180 PUSH2 0x2086 PUSH2 0x1BA5 JUMP JUMPDEST PUSH2 0x2ADD SWAP1 SWAP2 SWAP1 PUSH4 0xFFFFFFFF AND JUMP JUMPDEST PUSH2 0x2ADD SWAP1 SWAP2 SWAP1 PUSH4 0xFFFFFFFF AND JUMP JUMPDEST PUSH2 0x2BEC SWAP1 SWAP2 SWAP1 PUSH4 0xFFFFFFFF AND JUMP JUMPDEST PUSH2 0x2BEC SWAP1 SWAP2 SWAP1 PUSH4 0xFFFFFFFF AND JUMP JUMPDEST JUMPDEST SWAP1 POP SWAP2 SWAP1 POP JUMP JUMPDEST PUSH1 0x2 PUSH1 0x0 SWAP1 SLOAD SWAP1 PUSH2 0x100 EXP SWAP1 DIV PUSH20 0xFFFFFFFFFFFFFFFFFFFFFFFFFFFFFFFFFFFFFFFF AND PUSH20 0xFFFFFFFFFFFFFFFFFFFFFFFFFFFFFFFFFFFFFFFF AND CALLER PUSH20 0xFFFFFFFFFFFFFFFFFFFFFFFFFFFFFFFFFFFFFFFF AND EQ PUSH2 0x2156 JUMPI PUSH1 0x40 MLOAD PUSH32 0x8C379A000000000000000000000000000000000000000000000000000000000 DUP2 MSTORE PUSH1 0x4 ADD PUSH2 0x214D SWAP1 PUSH2 0x4159 JUMP JUMPDEST PUSH1 0x40 MLOAD DUP1 SWAP2 SUB SWAP1 REVERT JUMPDEST PUSH2 0x21A3 PUSH1 0x2 PUSH1 0x0 SWAP1 SLOAD SWAP1 PUSH2 0x100 EXP SWAP1 DIV PUSH20 0xFFFFFFFFFFFFFFFFFFFFFFFFFFFFFFFFFFFFFFFF AND DUP3 DUP5 PUSH20 0xFFFFFFFFFFFFFFFFFFFFFFFFFFFFFFFFFFFFFFFF AND PUSH2 0x2A57 SWAP1 SWAP3 SWAP2 SWAP1 PUSH4 0xFFFFFFFF AND JUMP JUMPDEST POP POP JUMP JUMPDEST PUSH1 0x0 CALLER SWAP1 POP PUSH1 0x12 PUSH1 0x0 SWAP1 SLOAD SWAP1 PUSH2 0x100 EXP SWAP1 DIV PUSH1 0xFF AND DUP1 ISZERO PUSH2 0x21CA JUMPI POP PUSH1 0x11 SLOAD TIMESTAMP LT ISZERO JUMPDEST PUSH2 0x2209 JUMPI PUSH1 0x40 MLOAD PUSH32 0x8C379A000000000000000000000000000000000000000000000000000000000 DUP2 MSTORE PUSH1 0x4 ADD PUSH2 0x2200 SWAP1 PUSH2 0x42B9 JUMP JUMPDEST PUSH1 0x40 MLOAD DUP1 SWAP2 SUB SWAP1 REVERT JUMPDEST PUSH1 0x0 DUP1 SLOAD SWAP1 POP DUP4 LT DUP1 ISZERO PUSH2 0x2221 JUMPI POP PUSH1 0x1 DUP1 SLOAD SWAP1 POP DUP4 LT JUMPDEST PUSH2 0x2260 JUMPI PUSH1 0x40 MLOAD PUSH32 0x8C379A000000000000000000000000000000000000000000000000000000000 DUP2 MSTORE PUSH1 0x4 ADD PUSH2 0x2257 SWAP1 PUSH2 0x4259 JUMP JUMPDEST PUSH1 0x40 MLOAD DUP1 SWAP2 SUB SWAP1 REVERT JUMPDEST PUSH1 0x0 PUSH1 0x3 PUSH1 0x0 DUP4 PUSH20 0xFFFFFFFFFFFFFFFFFFFFFFFFFFFFFFFFFFFFFFFF AND PUSH20 0xFFFFFFFFFFFFFFFFFFFFFFFFFFFFFFFFFFFFFFFF AND DUP2 MSTORE PUSH1 0x20 ADD SWAP1 DUP2 MSTORE PUSH1 0x20 ADD PUSH1 0x0 KECCAK256 PUSH1 0x0 ADD SLOAD EQ ISZERO PUSH2 0x2358 JUMPI PUSH1 0x6 DUP2 SWAP1 DUP1 PUSH1 0x1 DUP2 SLOAD ADD DUP1 DUP3 SSTORE DUP1 SWAP2 POP POP PUSH1 0x1 SWAP1 SUB SWAP1 PUSH1 0x0 MSTORE PUSH1 0x20 PUSH1 0x0 KECCAK256 ADD PUSH1 0x0 SWAP1 SWAP2 SWAP1 SWAP2 SWAP1 SWAP2 PUSH2 0x100 EXP DUP2 SLOAD DUP2 PUSH20 0xFFFFFFFFFFFFFFFFFFFFFFFFFFFFFFFFFFFFFFFF MUL NOT AND SWAP1 DUP4 PUSH20 0xFFFFFFFFFFFFFFFFFFFFFFFFFFFFFFFFFFFFFFFF AND MUL OR SWAP1 SSTORE POP PUSH1 0xD SLOAD PUSH1 0x3 PUSH1 0x0 DUP4 PUSH20 0xFFFFFFFFFFFFFFFFFFFFFFFFFFFFFFFFFFFFFFFF AND PUSH20 0xFFFFFFFFFFFFFFFFFFFFFFFFFFFFFFFFFFFFFFFF AND DUP2 MSTORE PUSH1 0x20 ADD SWAP1 DUP2 MSTORE PUSH1 0x20 ADD PUSH1 0x0 KECCAK256 PUSH1 0x2 ADD DUP2 SWAP1 SSTORE POP JUMPDEST PUSH1 0x0 PUSH1 0x3 PUSH1 0x0 DUP4 PUSH20 0xFFFFFFFFFFFFFFFFFFFFFFFFFFFFFFFFFFFFFFFF AND PUSH20 0xFFFFFFFFFFFFFFFFFFFFFFFFFFFFFFFFFFFFFFFF AND DUP2 MSTORE PUSH1 0x20 ADD SWAP1 DUP2 MSTORE PUSH1 0x20 ADD PUSH1 0x0 KECCAK256 PUSH1 0x0 ADD SLOAD EQ ISZERO DUP1 ISZERO PUSH2 0x23B0 JUMPI POP PUSH2 0x23AF DUP2 PUSH2 0x1564 JUMP JUMPDEST JUMPDEST ISZERO PUSH2 0x23FF JUMPI PUSH1 0xD SLOAD PUSH1 0x3 PUSH1 0x0 DUP4 PUSH20 0xFFFFFFFFFFFFFFFFFFFFFFFFFFFFFFFFFFFFFFFF AND PUSH20 0xFFFFFFFFFFFFFFFFFFFFFFFFFFFFFFFFFFFFFFFF AND DUP2 MSTORE PUSH1 0x20 ADD SWAP1 DUP2 MSTORE PUSH1 0x20 ADD PUSH1 0x0 KECCAK256 PUSH1 0x2 ADD DUP2 SWAP1 SSTORE POP JUMPDEST PUSH1 0x0 PUSH2 0x242B DUP4 PUSH1 0x1 DUP7 DUP2 SLOAD DUP2 LT PUSH2 0x2412 JUMPI INVALID JUMPDEST SWAP1 PUSH1 0x0 MSTORE PUSH1 0x20 PUSH1 0x0 KECCAK256 ADD SLOAD PUSH2 0x2ADD SWAP1 SWAP2 SWAP1 PUSH4 0xFFFFFFFF AND JUMP JUMPDEST SWAP1 POP DUP1 PUSH20 0xD9FF12172803C072A36785DEFEA1AA981A6A0C18 PUSH20 0xFFFFFFFFFFFFFFFFFFFFFFFFFFFFFFFFFFFFFFFF AND PUSH4 0x70A08231 DUP5 PUSH1 0x40 MLOAD DUP3 PUSH4 0xFFFFFFFF AND PUSH1 0xE0 SHL DUP2 MSTORE PUSH1 0x4 ADD PUSH2 0x247B SWAP2 SWAP1 PUSH2 0x4020 JUMP JUMPDEST PUSH1 0x20 PUSH1 0x40 MLOAD DUP1 DUP4 SUB DUP2 DUP7 DUP1 EXTCODESIZE ISZERO DUP1 ISZERO PUSH2 0x2493 JUMPI PUSH1 0x0 DUP1 REVERT JUMPDEST POP GAS STATICCALL ISZERO DUP1 ISZERO PUSH2 0x24A7 JUMPI RETURNDATASIZE PUSH1 0x0 DUP1 RETURNDATACOPY RETURNDATASIZE PUSH1 0x0 REVERT JUMPDEST POP POP POP POP PUSH1 0x40 MLOAD RETURNDATASIZE PUSH1 0x1F NOT PUSH1 0x1F DUP3 ADD AND DUP3 ADD DUP1 PUSH1 0x40 MSTORE POP DUP2 ADD SWAP1 PUSH2 0x24CB SWAP2 SWAP1 PUSH2 0x3A9E JUMP JUMPDEST LT ISZERO PUSH2 0x250C JUMPI PUSH1 0x40 MLOAD PUSH32 0x8C379A000000000000000000000000000000000000000000000000000000000 DUP2 MSTORE PUSH1 0x4 ADD PUSH2 0x2503 SWAP1 PUSH2 0x41D9 JUMP JUMPDEST PUSH1 0x40 MLOAD DUP1 SWAP2 SUB SWAP1 REVERT JUMPDEST DUP1 PUSH20 0xD9FF12172803C072A36785DEFEA1AA981A6A0C18 PUSH20 0xFFFFFFFFFFFFFFFFFFFFFFFFFFFFFFFFFFFFFFFF AND PUSH4 0xDD62ED3E DUP5 ADDRESS PUSH1 0x40 MLOAD DUP4 PUSH4 0xFFFFFFFF AND PUSH1 0xE0 SHL DUP2 MSTORE PUSH1 0x4 ADD PUSH2 0x255C SWAP3 SWAP2 SWAP1 PUSH2 0x4056 JUMP JUMPDEST PUSH1 0x20 PUSH1 0x40 MLOAD DUP1 DUP4 SUB DUP2 DUP7 DUP1 EXTCODESIZE ISZERO DUP1 ISZERO PUSH2 0x2574 JUMPI PUSH1 0x0 DUP1 REVERT JUMPDEST POP GAS STATICCALL ISZERO DUP1 ISZERO PUSH2 0x2588 JUMPI RETURNDATASIZE PUSH1 0x0 DUP1 RETURNDATACOPY RETURNDATASIZE PUSH1 0x0 REVERT JUMPDEST POP POP POP POP PUSH1 0x40 MLOAD RETURNDATASIZE PUSH1 0x1F NOT PUSH1 0x1F DUP3 ADD AND DUP3 ADD DUP1 PUSH1 0x40 MSTORE POP DUP2 ADD SWAP1 PUSH2 0x25AC SWAP2 SWAP1 PUSH2 0x3A9E JUMP JUMPDEST LT ISZERO PUSH2 0x25ED JUMPI PUSH1 0x40 MLOAD PUSH32 0x8C379A000000000000000000000000000000000000000000000000000000000 DUP2 MSTORE PUSH1 0x4 ADD PUSH2 0x25E4 SWAP1 PUSH2 0x41B9 JUMP JUMPDEST PUSH1 0x40 MLOAD DUP1 SWAP2 SUB SWAP1 REVERT JUMPDEST PUSH2 0x262E DUP3 ADDRESS DUP4 PUSH20 0xD9FF12172803C072A36785DEFEA1AA981A6A0C18 PUSH20 0xFFFFFFFFFFFFFFFFFFFFFFFFFFFFFFFFFFFFFFFF AND PUSH2 0x2CC7 SWAP1 SWAP4 SWAP3 SWAP2 SWAP1 PUSH4 0xFFFFFFFF AND JUMP JUMPDEST PUSH2 0x2683 DUP2 PUSH1 0x3 PUSH1 0x0 DUP6 PUSH20 0xFFFFFFFFFFFFFFFFFFFFFFFFFFFFFFFFFFFFFFFF AND PUSH20 0xFFFFFFFFFFFFFFFFFFFFFFFFFFFFFFFFFFFFFFFF AND DUP2 MSTORE PUSH1 0x20 ADD SWAP1 DUP2 MSTORE PUSH1 0x20 ADD PUSH1 0x0 KECCAK256 PUSH1 0x0 ADD SLOAD PUSH2 0x2B4D SWAP1 SWAP2 SWAP1 PUSH4 0xFFFFFFFF AND JUMP JUMPDEST PUSH1 0x3 PUSH1 0x0 DUP5 PUSH20 0xFFFFFFFFFFFFFFFFFFFFFFFFFFFFFFFFFFFFFFFF AND PUSH20 0xFFFFFFFFFFFFFFFFFFFFFFFFFFFFFFFFFFFFFFFF AND DUP2 MSTORE PUSH1 0x20 ADD SWAP1 DUP2 MSTORE PUSH1 0x20 ADD PUSH1 0x0 KECCAK256 PUSH1 0x0 ADD DUP2 SWAP1 SSTORE POP PUSH2 0x26DE DUP2 PUSH1 0x7 SLOAD PUSH2 0x2B4D SWAP1 SWAP2 SWAP1 PUSH4 0xFFFFFFFF AND JUMP JUMPDEST PUSH1 0x7 DUP2 SWAP1 SSTORE POP PUSH2 0x2720 PUSH2 0x270F PUSH1 0x64 PUSH2 0x2701 PUSH1 0xB SLOAD DUP6 PUSH2 0x2ADD SWAP1 SWAP2 SWAP1 PUSH4 0xFFFFFFFF AND JUMP JUMPDEST PUSH2 0x2BEC SWAP1 SWAP2 SWAP1 PUSH4 0xFFFFFFFF AND JUMP JUMPDEST PUSH1 0xA SLOAD PUSH2 0x2B4D SWAP1 SWAP2 SWAP1 PUSH4 0xFFFFFFFF AND JUMP JUMPDEST PUSH1 0xA DUP2 SWAP1 SSTORE POP PUSH2 0x2789 DUP4 PUSH1 0x4 PUSH1 0x0 DUP6 PUSH20 0xFFFFFFFFFFFFFFFFFFFFFFFFFFFFFFFFFFFFFFFF AND PUSH20 0xFFFFFFFFFFFFFFFFFFFFFFFFFFFFFFFFFFFFFFFF AND DUP2 MSTORE PUSH1 0x20 ADD SWAP1 DUP2 MSTORE PUSH1 0x20 ADD PUSH1 0x0 KECCAK256 PUSH1 0x0 DUP8 DUP2 MSTORE PUSH1 0x20 ADD SWAP1 DUP2 MSTORE PUSH1 0x20 ADD PUSH1 0x0 KECCAK256 SLOAD PUSH2 0x2B4D SWAP1 SWAP2 SWAP1 PUSH4 0xFFFFFFFF AND JUMP JUMPDEST PUSH1 0x4 PUSH1 0x0 DUP5 PUSH20 0xFFFFFFFFFFFFFFFFFFFFFFFFFFFFFFFFFFFFFFFF AND PUSH20 0xFFFFFFFFFFFFFFFFFFFFFFFFFFFFFFFFFFFFFFFF AND DUP2 MSTORE PUSH1 0x20 ADD SWAP1 DUP2 MSTORE PUSH1 0x20 ADD PUSH1 0x0 KECCAK256 PUSH1 0x0 DUP7 DUP2 MSTORE PUSH1 0x20 ADD SWAP1 DUP2 MSTORE PUSH1 0x20 ADD PUSH1 0x0 KECCAK256 DUP2 SWAP1 SSTORE POP PUSH2 0x2803 DUP4 PUSH1 0x5 PUSH1 0x0 DUP8 DUP2 MSTORE PUSH1 0x20 ADD SWAP1 DUP2 MSTORE PUSH1 0x20 ADD PUSH1 0x0 KECCAK256 SLOAD PUSH2 0x2B4D SWAP1 SWAP2 SWAP1 PUSH4 0xFFFFFFFF AND JUMP JUMPDEST PUSH1 0x5 PUSH1 0x0 DUP7 DUP2 MSTORE PUSH1 0x20 ADD SWAP1 DUP2 MSTORE PUSH1 0x20 ADD PUSH1 0x0 KECCAK256 DUP2 SWAP1 SSTORE POP PUSH32 0xDDC82401AB579D868E816AF720A563CDF9F9D0350ABB3FA3266BCF33DD4F48AB TIMESTAMP DUP4 DUP6 PUSH1 0x40 MLOAD PUSH2 0x284D SWAP4 SWAP3 SWAP2 SWAP1 PUSH2 0x4334 JUMP JUMPDEST PUSH1 0x40 MLOAD DUP1 SWAP2 SUB SWAP1 LOG1 POP POP POP POP JUMP JUMPDEST PUSH1 0x3 PUSH1 0x20 MSTORE DUP1 PUSH1 0x0 MSTORE PUSH1 0x40 PUSH1 0x0 KECCAK256 PUSH1 0x0 SWAP2 POP SWAP1 POP DUP1 PUSH1 0x0 ADD SLOAD SWAP1 DUP1 PUSH1 0x1 ADD SLOAD SWAP1 DUP1 PUSH1 0x2 ADD SLOAD SWAP1 POP DUP4 JUMP JUMPDEST PUSH1 0xA SLOAD DUP2 JUMP JUMPDEST PUSH1 0x4 PUSH1 0x20 MSTORE DUP2 PUSH1 0x0 MSTORE PUSH1 0x40 PUSH1 0x0 KECCAK256 PUSH1 0x20 MSTORE DUP1 PUSH1 0x0 MSTORE PUSH1 0x40 PUSH1 0x0 KECCAK256 PUSH1 0x0 SWAP2 POP SWAP2 POP POP SLOAD DUP2 JUMP JUMPDEST PUSH1 0x0 PUSH1 0x4 PUSH1 0x0 DUP5 PUSH20 0xFFFFFFFFFFFFFFFFFFFFFFFFFFFFFFFFFFFFFFFF AND PUSH20 0xFFFFFFFFFFFFFFFFFFFFFFFFFFFFFFFFFFFFFFFF AND DUP2 MSTORE PUSH1 0x20 ADD SWAP1 DUP2 MSTORE PUSH1 0x20 ADD PUSH1 0x0 KECCAK256 PUSH1 0x0 DUP4 DUP2 MSTORE PUSH1 0x20 ADD SWAP1 DUP2 MSTORE PUSH1 0x20 ADD PUSH1 0x0 KECCAK256 SLOAD SWAP1 POP SWAP3 SWAP2 POP POP JUMP JUMPDEST PUSH1 0xD SLOAD DUP2 JUMP JUMPDEST PUSH1 0xF SLOAD DUP2 JUMP JUMPDEST PUSH1 0x7 SLOAD DUP2 JUMP JUMPDEST PUSH1 0x0 PUSH2 0x2989 PUSH1 0x64 PUSH2 0x297B PUSH1 0xE SLOAD PUSH1 0x3 PUSH1 0x0 DUP8 PUSH20 0xFFFFFFFFFFFFFFFFFFFFFFFFFFFFFFFFFFFFFFFF AND PUSH20 0xFFFFFFFFFFFFFFFFFFFFFFFFFFFFFFFFFFFFFFFF AND DUP2 MSTORE PUSH1 0x20 ADD SWAP1 DUP2 MSTORE PUSH1 0x20 ADD PUSH1 0x0 KECCAK256 PUSH1 0x0 ADD SLOAD PUSH2 0x2ADD SWAP1 SWAP2 SWAP1 PUSH4 0xFFFFFFFF AND JUMP JUMPDEST PUSH2 0x2BEC SWAP1 SWAP2 SWAP1 PUSH4 0xFFFFFFFF AND JUMP JUMPDEST SWAP1 POP SWAP2 SWAP1 POP JUMP JUMPDEST PUSH1 0x0 PUSH1 0x6 DUP1 SLOAD SWAP1 POP SWAP1 POP SWAP1 JUMP JUMPDEST PUSH1 0xC SLOAD DUP2 JUMP JUMPDEST PUSH1 0x0 PUSH2 0x29AE CALLER PUSH2 0x12BC JUMP JUMPDEST SWAP1 POP PUSH1 0x1 PUSH1 0x0 DUP2 SLOAD DUP2 LT PUSH2 0x29BE JUMPI INVALID JUMPDEST SWAP1 PUSH1 0x0 MSTORE PUSH1 0x20 PUSH1 0x0 KECCAK256 ADD SLOAD DUP2 LT ISZERO PUSH2 0x2A0B JUMPI PUSH1 0x40 MLOAD PUSH32 0x8C379A000000000000000000000000000000000000000000000000000000000 DUP2 MSTORE PUSH1 0x4 ADD PUSH2 0x2A02 SWAP1 PUSH2 0x4179 JUMP JUMPDEST PUSH1 0x40 MLOAD DUP1 SWAP2 SUB SWAP1 REVERT JUMPDEST PUSH1 0x0 PUSH2 0x2A38 PUSH1 0x1 PUSH1 0x0 DUP2 SLOAD DUP2 LT PUSH2 0x2A1E JUMPI INVALID JUMPDEST SWAP1 PUSH1 0x0 MSTORE PUSH1 0x20 PUSH1 0x0 KECCAK256 ADD SLOAD DUP4 PUSH2 0x2BEC SWAP1 SWAP2 SWAP1 PUSH4 0xFFFFFFFF AND JUMP JUMPDEST SWAP1 POP PUSH2 0x2A42 PUSH2 0x173C JUMP JUMPDEST PUSH2 0x2A4D PUSH1 0x0 DUP3 PUSH2 0x2D50 JUMP JUMPDEST POP POP JUMP JUMPDEST PUSH1 0x10 SLOAD DUP2 JUMP JUMPDEST PUSH2 0x2AD8 DUP4 PUSH4 0xA9059CBB PUSH1 0xE0 SHL DUP5 DUP5 PUSH1 0x40 MLOAD PUSH1 0x24 ADD PUSH2 0x2A76 SWAP3 SWAP2 SWAP1 PUSH2 0x40B6 JUMP JUMPDEST PUSH1 0x40 MLOAD PUSH1 0x20 DUP2 DUP4 SUB SUB DUP2 MSTORE SWAP1 PUSH1 0x40 MSTORE SWAP1 PUSH28 0xFFFFFFFFFFFFFFFFFFFFFFFFFFFFFFFFFFFFFFFFFFFFFFFFFFFFFFFF NOT AND PUSH1 0x20 DUP3 ADD DUP1 MLOAD PUSH28 0xFFFFFFFFFFFFFFFFFFFFFFFFFFFFFFFFFFFFFFFFFFFFFFFFFFFFFFFF DUP4 DUP2 DUP4 AND OR DUP4 MSTORE POP POP POP POP PUSH2 0x3404 JUMP JUMPDEST POP POP POP JUMP JUMPDEST PUSH1 0x0 DUP1 DUP4 EQ ISZERO PUSH2 0x2AF0 JUMPI PUSH1 0x0 SWAP1 POP PUSH2 0x2B47 JUMP JUMPDEST PUSH1 0x0 DUP3 DUP5 MUL SWAP1 POP DUP3 DUP5 DUP3 DUP2 PUSH2 0x2B01 JUMPI INVALID JUMPDEST DIV EQ PUSH2 0x2B42 JUMPI PUSH1 0x40 MLOAD PUSH32 0x8C379A000000000000000000000000000000000000000000000000000000000 DUP2 MSTORE PUSH1 0x4 ADD PUSH2 0x2B39 SWAP1 PUSH2 0x4279 JUMP JUMPDEST PUSH1 0x40 MLOAD DUP1 SWAP2 SUB SWAP1 REVERT JUMPDEST DUP1 SWAP2 POP POP JUMPDEST SWAP3 SWAP2 POP POP JUMP JUMPDEST PUSH1 0x0 DUP1 DUP3 DUP5 ADD SWAP1 POP DUP4 DUP2 LT ISZERO PUSH2 0x2B98 JUMPI PUSH1 0x40 MLOAD PUSH32 0x8C379A000000000000000000000000000000000000000000000000000000000 DUP2 MSTORE PUSH1 0x4 ADD PUSH2 0x2B8F SWAP1 PUSH2 0x4199 JUMP JUMPDEST PUSH1 0x40 MLOAD DUP1 SWAP2 SUB SWAP1 REVERT JUMPDEST DUP1 SWAP2 POP POP SWAP3 SWAP2 POP POP JUMP JUMPDEST PUSH1 0x0 PUSH2 0x2BE4 DUP4 DUP4 PUSH1 0x40 MLOAD DUP1 PUSH1 0x40 ADD PUSH1 0x40 MSTORE DUP1 PUSH1 0x1E DUP2 MSTORE PUSH1 0x20 ADD PUSH32 0x536166654D6174683A207375627472616374696F6E206F766572666C6F770000 DUP2 MSTORE POP PUSH2 0x3576 JUMP JUMPDEST SWAP1 POP SWAP3 SWAP2 POP POP JUMP JUMPDEST PUSH1 0x0 PUSH2 0x2C2E DUP4 DUP4 PUSH1 0x40 MLOAD DUP1 PUSH1 0x40 ADD PUSH1 0x40 MSTORE DUP1 PUSH1 0x1A DUP2 MSTORE PUSH1 0x20 ADD PUSH32 0x536166654D6174683A206469766973696F6E206279207A65726F000000000000 DUP2 MSTORE POP PUSH2 0x35D1 JUMP JUMPDEST SWAP1 POP SWAP3 SWAP2 POP POP JUMP JUMPDEST PUSH1 0x0 DUP2 GT ISZERO PUSH2 0x2CC4 JUMPI PUSH2 0x2C87 PUSH2 0x2C76 PUSH2 0x2C4D PUSH2 0xDEF JUMP JUMPDEST PUSH2 0x2C68 PUSH8 0x8AC7230489E80000 DUP6 PUSH2 0x2ADD SWAP1 SWAP2 SWAP1 PUSH4 0xFFFFFFFF AND JUMP JUMPDEST PUSH2 0x2BEC SWAP1 SWAP2 SWAP1 PUSH4 0xFFFFFFFF AND JUMP JUMPDEST PUSH1 0xD SLOAD PUSH2 0x2B4D SWAP1 SWAP2 SWAP1 PUSH4 0xFFFFFFFF AND JUMP JUMPDEST PUSH1 0xD DUP2 SWAP1 SSTORE POP PUSH2 0x2CA2 DUP2 PUSH1 0xC SLOAD PUSH2 0x2B4D SWAP1 SWAP2 SWAP1 PUSH4 0xFFFFFFFF AND JUMP JUMPDEST PUSH1 0xC DUP2 SWAP1 SSTORE POP PUSH2 0x2CBD DUP2 PUSH1 0x9 SLOAD PUSH2 0x2B4D SWAP1 SWAP2 SWAP1 PUSH4 0xFFFFFFFF AND JUMP JUMPDEST PUSH1 0x9 DUP2 SWAP1 SSTORE POP JUMPDEST POP JUMP JUMPDEST PUSH2 0x2D4A DUP5 PUSH4 0x23B872DD PUSH1 0xE0 SHL DUP6 DUP6 DUP6 PUSH1 0x40 MLOAD PUSH1 0x24 ADD PUSH2 0x2CE8 SWAP4 SWAP3 SWAP2 SWAP1 PUSH2 0x407F JUMP JUMPDEST PUSH1 0x40 MLOAD PUSH1 0x20 DUP2 DUP4 SUB SUB DUP2 MSTORE SWAP1 PUSH1 0x40 MSTORE SWAP1 PUSH28 0xFFFFFFFFFFFFFFFFFFFFFFFFFFFFFFFFFFFFFFFFFFFFFFFFFFFFFFFF NOT AND PUSH1 0x20 DUP3 ADD DUP1 MLOAD PUSH28 0xFFFFFFFFFFFFFFFFFFFFFFFFFFFFFFFFFFFFFFFFFFFFFFFFFFFFFFFF DUP4 DUP2 DUP4 AND OR DUP4 MSTORE POP POP POP POP PUSH2 0x3404 JUMP JUMPDEST POP POP POP POP JUMP JUMPDEST PUSH1 0x0 CALLER SWAP1 POP PUSH1 0x12 PUSH1 0x0 SWAP1 SLOAD SWAP1 PUSH2 0x100 EXP SWAP1 DIV PUSH1 0xFF AND DUP1 ISZERO PUSH2 0x2D73 JUMPI POP PUSH1 0x11 SLOAD TIMESTAMP LT ISZERO JUMPDEST PUSH2 0x2DB2 JUMPI PUSH1 0x40 MLOAD PUSH32 0x8C379A000000000000000000000000000000000000000000000000000000000 DUP2 MSTORE PUSH1 0x4 ADD PUSH2 0x2DA9 SWAP1 PUSH2 0x42B9 JUMP JUMPDEST PUSH1 0x40 MLOAD DUP1 SWAP2 SUB SWAP1 REVERT JUMPDEST PUSH1 0x0 DUP1 SLOAD SWAP1 POP DUP4 LT DUP1 ISZERO PUSH2 0x2DCA JUMPI POP PUSH1 0x1 DUP1 SLOAD SWAP1 POP DUP4 LT JUMPDEST PUSH2 0x2E09 JUMPI PUSH1 0x40 MLOAD PUSH32 0x8C379A000000000000000000000000000000000000000000000000000000000 DUP2 MSTORE PUSH1 0x4 ADD PUSH2 0x2E00 SWAP1 PUSH2 0x4259 JUMP JUMPDEST PUSH1 0x40 MLOAD DUP1 SWAP2 SUB SWAP1 REVERT JUMPDEST PUSH1 0x0 PUSH1 0x3 PUSH1 0x0 DUP4 PUSH20 0xFFFFFFFFFFFFFFFFFFFFFFFFFFFFFFFFFFFFFFFF AND PUSH20 0xFFFFFFFFFFFFFFFFFFFFFFFFFFFFFFFFFFFFFFFF AND DUP2 MSTORE PUSH1 0x20 ADD SWAP1 DUP2 MSTORE PUSH1 0x20 ADD PUSH1 0x0 KECCAK256 PUSH1 0x0 ADD SLOAD EQ ISZERO PUSH2 0x2F01 JUMPI PUSH1 0x6 DUP2 SWAP1 DUP1 PUSH1 0x1 DUP2 SLOAD ADD DUP1 DUP3 SSTORE DUP1 SWAP2 POP POP PUSH1 0x1 SWAP1 SUB SWAP1 PUSH1 0x0 MSTORE PUSH1 0x20 PUSH1 0x0 KECCAK256 ADD PUSH1 0x0 SWAP1 SWAP2 SWAP1 SWAP2 SWAP1 SWAP2 PUSH2 0x100 EXP DUP2 SLOAD DUP2 PUSH20 0xFFFFFFFFFFFFFFFFFFFFFFFFFFFFFFFFFFFFFFFF MUL NOT AND SWAP1 DUP4 PUSH20 0xFFFFFFFFFFFFFFFFFFFFFFFFFFFFFFFFFFFFFFFF AND MUL OR SWAP1 SSTORE POP PUSH1 0xD SLOAD PUSH1 0x3 PUSH1 0x0 DUP4 PUSH20 0xFFFFFFFFFFFFFFFFFFFFFFFFFFFFFFFFFFFFFFFF AND PUSH20 0xFFFFFFFFFFFFFFFFFFFFFFFFFFFFFFFFFFFFFFFF AND DUP2 MSTORE PUSH1 0x20 ADD SWAP1 DUP2 MSTORE PUSH1 0x20 ADD PUSH1 0x0 KECCAK256 PUSH1 0x2 ADD DUP2 SWAP1 SSTORE POP JUMPDEST PUSH1 0x0 PUSH1 0x3 PUSH1 0x0 DUP4 PUSH20 0xFFFFFFFFFFFFFFFFFFFFFFFFFFFFFFFFFFFFFFFF AND PUSH20 0xFFFFFFFFFFFFFFFFFFFFFFFFFFFFFFFFFFFFFFFF AND DUP2 MSTORE PUSH1 0x20 ADD SWAP1 DUP2 MSTORE PUSH1 0x20 ADD PUSH1 0x0 KECCAK256 PUSH1 0x0 ADD SLOAD EQ ISZERO DUP1 ISZERO PUSH2 0x2F59 JUMPI POP PUSH2 0x2F58 DUP2 PUSH2 0x1564 JUMP JUMPDEST JUMPDEST ISZERO PUSH2 0x2FA8 JUMPI PUSH1 0xD SLOAD PUSH1 0x3 PUSH1 0x0 DUP4 PUSH20 0xFFFFFFFFFFFFFFFFFFFFFFFFFFFFFFFFFFFFFFFF AND PUSH20 0xFFFFFFFFFFFFFFFFFFFFFFFFFFFFFFFFFFFFFFFF AND DUP2 MSTORE PUSH1 0x20 ADD SWAP1 DUP2 MSTORE PUSH1 0x20 ADD PUSH1 0x0 KECCAK256 PUSH1 0x2 ADD DUP2 SWAP1 SSTORE POP JUMPDEST PUSH1 0x0 PUSH2 0x2FD4 DUP4 PUSH1 0x1 DUP7 DUP2 SLOAD DUP2 LT PUSH2 0x2FBB JUMPI INVALID JUMPDEST SWAP1 PUSH1 0x0 MSTORE PUSH1 0x20 PUSH1 0x0 KECCAK256 ADD SLOAD PUSH2 0x2ADD SWAP1 SWAP2 SWAP1 PUSH4 0xFFFFFFFF AND JUMP JUMPDEST SWAP1 POP DUP1 PUSH20 0xD9FF12172803C072A36785DEFEA1AA981A6A0C18 PUSH20 0xFFFFFFFFFFFFFFFFFFFFFFFFFFFFFFFFFFFFFFFF AND PUSH4 0x70A08231 DUP5 PUSH1 0x40 MLOAD DUP3 PUSH4 0xFFFFFFFF AND PUSH1 0xE0 SHL DUP2 MSTORE PUSH1 0x4 ADD PUSH2 0x3024 SWAP2 SWAP1 PUSH2 0x4020 JUMP JUMPDEST PUSH1 0x20 PUSH1 0x40 MLOAD DUP1 DUP4 SUB DUP2 DUP7 DUP1 EXTCODESIZE ISZERO DUP1 ISZERO PUSH2 0x303C JUMPI PUSH1 0x0 DUP1 REVERT JUMPDEST POP GAS STATICCALL ISZERO DUP1 ISZERO PUSH2 0x3050 JUMPI RETURNDATASIZE PUSH1 0x0 DUP1 RETURNDATACOPY RETURNDATASIZE PUSH1 0x0 REVERT JUMPDEST POP POP POP POP PUSH1 0x40 MLOAD RETURNDATASIZE PUSH1 0x1F NOT PUSH1 0x1F DUP3 ADD AND DUP3 ADD DUP1 PUSH1 0x40 MSTORE POP DUP2 ADD SWAP1 PUSH2 0x3074 SWAP2 SWAP1 PUSH2 0x3A9E JUMP JUMPDEST LT ISZERO PUSH2 0x30B5 JUMPI PUSH1 0x40 MLOAD PUSH32 0x8C379A000000000000000000000000000000000000000000000000000000000 DUP2 MSTORE PUSH1 0x4 ADD PUSH2 0x30AC SWAP1 PUSH2 0x41D9 JUMP JUMPDEST PUSH1 0x40 MLOAD DUP1 SWAP2 SUB SWAP1 REVERT JUMPDEST DUP1 PUSH20 0xD9FF12172803C072A36785DEFEA1AA981A6A0C18 PUSH20 0xFFFFFFFFFFFFFFFFFFFFFFFFFFFFFFFFFFFFFFFF AND PUSH4 0xDD62ED3E DUP5 ADDRESS PUSH1 0x40 MLOAD DUP4 PUSH4 0xFFFFFFFF AND PUSH1 0xE0 SHL DUP2 MSTORE PUSH1 0x4 ADD PUSH2 0x3105 SWAP3 SWAP2 SWAP1 PUSH2 0x4056 JUMP JUMPDEST PUSH1 0x20 PUSH1 0x40 MLOAD DUP1 DUP4 SUB DUP2 DUP7 DUP1 EXTCODESIZE ISZERO DUP1 ISZERO PUSH2 0x311D JUMPI PUSH1 0x0 DUP1 REVERT JUMPDEST POP GAS STATICCALL ISZERO DUP1 ISZERO PUSH2 0x3131 JUMPI RETURNDATASIZE PUSH1 0x0 DUP1 RETURNDATACOPY RETURNDATASIZE PUSH1 0x0 REVERT JUMPDEST POP POP POP POP PUSH1 0x40 MLOAD RETURNDATASIZE PUSH1 0x1F NOT PUSH1 0x1F DUP3 ADD AND DUP3 ADD DUP1 PUSH1 0x40 MSTORE POP DUP2 ADD SWAP1 PUSH2 0x3155 SWAP2 SWAP1 PUSH2 0x3A9E JUMP JUMPDEST LT ISZERO PUSH2 0x3196 JUMPI PUSH1 0x40 MLOAD PUSH32 0x8C379A000000000000000000000000000000000000000000000000000000000 DUP2 MSTORE PUSH1 0x4 ADD PUSH2 0x318D SWAP1 PUSH2 0x41B9 JUMP JUMPDEST PUSH1 0x40 MLOAD DUP1 SWAP2 SUB SWAP1 REVERT JUMPDEST PUSH2 0x31D7 DUP3 ADDRESS DUP4 PUSH20 0xD9FF12172803C072A36785DEFEA1AA981A6A0C18 PUSH20 0xFFFFFFFFFFFFFFFFFFFFFFFFFFFFFFFFFFFFFFFF AND PUSH2 0x2CC7 SWAP1 SWAP4 SWAP3 SWAP2 SWAP1 PUSH4 0xFFFFFFFF AND JUMP JUMPDEST PUSH2 0x322C DUP2 PUSH1 0x3 PUSH1 0x0 DUP6 PUSH20 0xFFFFFFFFFFFFFFFFFFFFFFFFFFFFFFFFFFFFFFFF AND PUSH20 0xFFFFFFFFFFFFFFFFFFFFFFFFFFFFFFFFFFFFFFFF AND DUP2 MSTORE PUSH1 0x20 ADD SWAP1 DUP2 MSTORE PUSH1 0x20 ADD PUSH1 0x0 KECCAK256 PUSH1 0x0 ADD SLOAD PUSH2 0x2B4D SWAP1 SWAP2 SWAP1 PUSH4 0xFFFFFFFF AND JUMP JUMPDEST PUSH1 0x3 PUSH1 0x0 DUP5 PUSH20 0xFFFFFFFFFFFFFFFFFFFFFFFFFFFFFFFFFFFFFFFF AND PUSH20 0xFFFFFFFFFFFFFFFFFFFFFFFFFFFFFFFFFFFFFFFF AND DUP2 MSTORE PUSH1 0x20 ADD SWAP1 DUP2 MSTORE PUSH1 0x20 ADD PUSH1 0x0 KECCAK256 PUSH1 0x0 ADD DUP2 SWAP1 SSTORE POP PUSH2 0x3287 DUP2 PUSH1 0x7 SLOAD PUSH2 0x2B4D SWAP1 SWAP2 SWAP1 PUSH4 0xFFFFFFFF AND JUMP JUMPDEST PUSH1 0x7 DUP2 SWAP1 SSTORE POP PUSH2 0x32C9 PUSH2 0x32B8 PUSH1 0x64 PUSH2 0x32AA PUSH1 0xB SLOAD DUP6 PUSH2 0x2ADD SWAP1 SWAP2 SWAP1 PUSH4 0xFFFFFFFF AND JUMP JUMPDEST PUSH2 0x2BEC SWAP1 SWAP2 SWAP1 PUSH4 0xFFFFFFFF AND JUMP JUMPDEST PUSH1 0xA SLOAD PUSH2 0x2B4D SWAP1 SWAP2 SWAP1 PUSH4 0xFFFFFFFF AND JUMP JUMPDEST PUSH1 0xA DUP2 SWAP1 SSTORE POP PUSH2 0x3332 DUP4 PUSH1 0x4 PUSH1 0x0 DUP6 PUSH20 0xFFFFFFFFFFFFFFFFFFFFFFFFFFFFFFFFFFFFFFFF AND PUSH20 0xFFFFFFFFFFFFFFFFFFFFFFFFFFFFFFFFFFFFFFFF AND DUP2 MSTORE PUSH1 0x20 ADD SWAP1 DUP2 MSTORE PUSH1 0x20 ADD PUSH1 0x0 KECCAK256 PUSH1 0x0 DUP8 DUP2 MSTORE PUSH1 0x20 ADD SWAP1 DUP2 MSTORE PUSH1 0x20 ADD PUSH1 0x0 KECCAK256 SLOAD PUSH2 0x2B4D SWAP1 SWAP2 SWAP1 PUSH4 0xFFFFFFFF AND JUMP JUMPDEST PUSH1 0x4 PUSH1 0x0 DUP5 PUSH20 0xFFFFFFFFFFFFFFFFFFFFFFFFFFFFFFFFFFFFFFFF AND PUSH20 0xFFFFFFFFFFFFFFFFFFFFFFFFFFFFFFFFFFFFFFFF AND DUP2 MSTORE PUSH1 0x20 ADD SWAP1 DUP2 MSTORE PUSH1 0x20 ADD PUSH1 0x0 KECCAK256 PUSH1 0x0 DUP7 DUP2 MSTORE PUSH1 0x20 ADD SWAP1 DUP2 MSTORE PUSH1 0x20 ADD PUSH1 0x0 KECCAK256 DUP2 SWAP1 SSTORE POP PUSH2 0x33AC DUP4 PUSH1 0x5 PUSH1 0x0 DUP8 DUP2 MSTORE PUSH1 0x20 ADD SWAP1 DUP2 MSTORE PUSH1 0x20 ADD PUSH1 0x0 KECCAK256 SLOAD PUSH2 0x2B4D SWAP1 SWAP2 SWAP1 PUSH4 0xFFFFFFFF AND JUMP JUMPDEST PUSH1 0x5 PUSH1 0x0 DUP7 DUP2 MSTORE PUSH1 0x20 ADD SWAP1 DUP2 MSTORE PUSH1 0x20 ADD PUSH1 0x0 KECCAK256 DUP2 SWAP1 SSTORE POP PUSH32 0xDDC82401AB579D868E816AF720A563CDF9F9D0350ABB3FA3266BCF33DD4F48AB TIMESTAMP DUP4 DUP6 PUSH1 0x40 MLOAD PUSH2 0x33F6 SWAP4 SWAP3 SWAP2 SWAP1 PUSH2 0x4334 JUMP JUMPDEST PUSH1 0x40 MLOAD DUP1 SWAP2 SUB SWAP1 LOG1 POP POP POP POP JUMP JUMPDEST PUSH2 0x3423 DUP3 PUSH20 0xFFFFFFFFFFFFFFFFFFFFFFFFFFFFFFFFFFFFFFFF AND PUSH2 0x3632 JUMP JUMPDEST PUSH2 0x3462 JUMPI PUSH1 0x40 MLOAD PUSH32 0x8C379A000000000000000000000000000000000000000000000000000000000 DUP2 MSTORE PUSH1 0x4 ADD PUSH2 0x3459 SWAP1 PUSH2 0x42F9 JUMP JUMPDEST PUSH1 0x40 MLOAD DUP1 SWAP2 SUB SWAP1 REVERT JUMPDEST PUSH1 0x0 PUSH1 0x60 DUP4 PUSH20 0xFFFFFFFFFFFFFFFFFFFFFFFFFFFFFFFFFFFFFFFF AND DUP4 PUSH1 0x40 MLOAD PUSH2 0x348B SWAP2 SWAP1 PUSH2 0x4009 JUMP JUMPDEST PUSH1 0x0 PUSH1 0x40 MLOAD DUP1 DUP4 SUB DUP2 PUSH1 0x0 DUP7 GAS CALL SWAP2 POP POP RETURNDATASIZE DUP1 PUSH1 0x0 DUP2 EQ PUSH2 0x34C8 JUMPI PUSH1 0x40 MLOAD SWAP2 POP PUSH1 0x1F NOT PUSH1 0x3F RETURNDATASIZE ADD AND DUP3 ADD PUSH1 0x40 MSTORE RETURNDATASIZE DUP3 MSTORE RETURNDATASIZE PUSH1 0x0 PUSH1 0x20 DUP5 ADD RETURNDATACOPY PUSH2 0x34CD JUMP JUMPDEST PUSH1 0x60 SWAP2 POP JUMPDEST POP SWAP2 POP SWAP2 POP DUP2 PUSH2 0x3512 JUMPI PUSH1 0x40 MLOAD PUSH32 0x8C379A000000000000000000000000000000000000000000000000000000000 DUP2 MSTORE PUSH1 0x4 ADD PUSH2 0x3509 SWAP1 PUSH2 0x41F9 JUMP JUMPDEST PUSH1 0x40 MLOAD DUP1 SWAP2 SUB SWAP1 REVERT JUMPDEST PUSH1 0x0 DUP2 MLOAD GT ISZERO PUSH2 0x3570 JUMPI DUP1 DUP1 PUSH1 0x20 ADD SWAP1 MLOAD DUP2 ADD SWAP1 PUSH2 0x3530 SWAP2 SWAP1 PUSH2 0x3A10 JUMP JUMPDEST PUSH2 0x356F JUMPI PUSH1 0x40 MLOAD PUSH32 0x8C379A000000000000000000000000000000000000000000000000000000000 DUP2 MSTORE PUSH1 0x4 ADD PUSH2 0x3566 SWAP1 PUSH2 0x42D9 JUMP JUMPDEST PUSH1 0x40 MLOAD DUP1 SWAP2 SUB SWAP1 REVERT JUMPDEST JUMPDEST POP POP POP POP JUMP JUMPDEST PUSH1 0x0 DUP4 DUP4 GT ISZERO DUP3 SWAP1 PUSH2 0x35BE JUMPI PUSH1 0x40 MLOAD PUSH32 0x8C379A000000000000000000000000000000000000000000000000000000000 DUP2 MSTORE PUSH1 0x4 ADD PUSH2 0x35B5 SWAP2 SWAP1 PUSH2 0x4137 JUMP JUMPDEST PUSH1 0x40 MLOAD DUP1 SWAP2 SUB SWAP1 REVERT JUMPDEST POP PUSH1 0x0 DUP4 DUP6 SUB SWAP1 POP DUP1 SWAP2 POP POP SWAP4 SWAP3 POP POP POP JUMP JUMPDEST PUSH1 0x0 DUP1 DUP4 GT DUP3 SWAP1 PUSH2 0x3618 JUMPI PUSH1 0x40 MLOAD PUSH32 0x8C379A000000000000000000000000000000000000000000000000000000000 DUP2 MSTORE PUSH1 0x4 ADD PUSH2 0x360F SWAP2 SWAP1 PUSH2 0x4137 JUMP JUMPDEST PUSH1 0x40 MLOAD DUP1 SWAP2 SUB SWAP1 REVERT JUMPDEST POP PUSH1 0x0 DUP4 DUP6 DUP2 PUSH2 0x3624 JUMPI INVALID JUMPDEST DIV SWAP1 POP DUP1 SWAP2 POP POP SWAP4 SWAP3 POP POP POP JUMP JUMPDEST PUSH1 0x0 DUP1 PUSH1 0x0 PUSH32 0xC5D2460186F7233C927E7DB2DCC703C0E500B653CA82273B7BFAD8045D85A470 PUSH1 0x0 SHL SWAP1 POP DUP4 EXTCODEHASH SWAP2 POP DUP1 DUP3 EQ ISZERO DUP1 ISZERO PUSH2 0x3674 JUMPI POP PUSH1 0x0 DUP1 SHL DUP3 EQ ISZERO JUMPDEST SWAP3 POP POP POP SWAP2 SWAP1 POP JUMP JUMPDEST DUP3 DUP1 SLOAD DUP3 DUP3 SSTORE SWAP1 PUSH1 0x0 MSTORE PUSH1 0x20 PUSH1 0x0 KECCAK256 SWAP1 DUP2 ADD SWAP3 DUP3 ISZERO PUSH2 0x36B9 JUMPI SWAP2 PUSH1 0x20 MUL DUP3 ADD JUMPDEST DUP3 DUP2 GT ISZERO PUSH2 0x36B8 JUMPI DUP3 MLOAD DUP3 SSTORE SWAP2 PUSH1 0x20 ADD SWAP2 SWAP1 PUSH1 0x1 ADD SWAP1 PUSH2 0x369D JUMP JUMPDEST JUMPDEST POP SWAP1 POP PUSH2 0x36C6 SWAP2 SWAP1 PUSH2 0x36CA JUMP JUMPDEST POP SWAP1 JUMP JUMPDEST JUMPDEST DUP1 DUP3 GT ISZERO PUSH2 0x36E3 JUMPI PUSH1 0x0 DUP2 PUSH1 0x0 SWAP1 SSTORE POP PUSH1 0x1 ADD PUSH2 0x36CB JUMP JUMPDEST POP SWAP1 JUMP JUMPDEST PUSH1 0x0 DUP2 CALLDATALOAD SWAP1 POP PUSH2 0x36F6 DUP2 PUSH2 0x456C JUMP JUMPDEST SWAP3 SWAP2 POP POP JUMP JUMPDEST PUSH1 0x0 DUP2 CALLDATALOAD SWAP1 POP PUSH2 0x370B DUP2 PUSH2 0x4583 JUMP JUMPDEST SWAP3 SWAP2 POP POP JUMP JUMPDEST PUSH1 0x0 DUP3 PUSH1 0x1F DUP4 ADD SLT PUSH2 0x3722 JUMPI PUSH1 0x0 DUP1 REVERT JUMPDEST DUP2 CALLDATALOAD PUSH2 0x3735 PUSH2 0x3730 DUP3 PUSH2 0x43CF JUMP JUMPDEST PUSH2 0x43A2 JUMP JUMPDEST SWAP2 POP DUP2 DUP2 DUP4 MSTORE PUSH1 0x20 DUP5 ADD SWAP4 POP PUSH1 0x20 DUP2 ADD SWAP1 POP DUP4 DUP6 PUSH1 0x20 DUP5 MUL DUP3 ADD GT ISZERO PUSH2 0x375A JUMPI PUSH1 0x0 DUP1 REVERT JUMPDEST PUSH1 0x0 JUMPDEST DUP4 DUP2 LT ISZERO PUSH2 0x378A JUMPI DUP2 PUSH2 0x3770 DUP9 DUP3 PUSH2 0x3833 JUMP JUMPDEST DUP5 MSTORE PUSH1 0x20 DUP5 ADD SWAP4 POP PUSH1 0x20 DUP4 ADD SWAP3 POP POP PUSH1 0x1 DUP2 ADD SWAP1 POP PUSH2 0x375D JUMP JUMPDEST POP POP POP POP SWAP3 SWAP2 POP POP JUMP JUMPDEST PUSH1 0x0 DUP2 CALLDATALOAD SWAP1 POP PUSH2 0x37A3 DUP2 PUSH2 0x459A JUMP JUMPDEST SWAP3 SWAP2 POP POP JUMP JUMPDEST PUSH1 0x0 DUP2 MLOAD SWAP1 POP PUSH2 0x37B8 DUP2 PUSH2 0x459A JUMP JUMPDEST SWAP3 SWAP2 POP POP JUMP JUMPDEST PUSH1 0x0 DUP2 CALLDATALOAD SWAP1 POP PUSH2 0x37CD DUP2 PUSH2 0x45B1 JUMP JUMPDEST SWAP3 SWAP2 POP POP JUMP JUMPDEST PUSH1 0x0 PUSH1 0x60 DUP3 DUP5 SUB SLT ISZERO PUSH2 0x37E5 JUMPI PUSH1 0x0 DUP1 REVERT JUMPDEST PUSH2 0x37EF PUSH1 0x60 PUSH2 0x43A2 JUMP JUMPDEST SWAP1 POP PUSH1 0x0 PUSH2 0x37FF DUP5 DUP3 DUP6 ADD PUSH2 0x3833 JUMP JUMPDEST PUSH1 0x0 DUP4 ADD MSTORE POP PUSH1 0x20 PUSH2 0x3813 DUP5 DUP3 DUP6 ADD PUSH2 0x3833 JUMP JUMPDEST PUSH1 0x20 DUP4 ADD MSTORE POP PUSH1 0x40 PUSH2 0x3827 DUP5 DUP3 DUP6 ADD PUSH2 0x3833 JUMP JUMPDEST PUSH1 0x40 DUP4 ADD MSTORE POP SWAP3 SWAP2 POP POP JUMP JUMPDEST PUSH1 0x0 DUP2 CALLDATALOAD SWAP1 POP PUSH2 0x3842 DUP2 PUSH2 0x45C8 JUMP JUMPDEST SWAP3 SWAP2 POP POP JUMP JUMPDEST PUSH1 0x0 DUP2 MLOAD SWAP1 POP PUSH2 0x3857 DUP2 PUSH2 0x45C8 JUMP JUMPDEST SWAP3 SWAP2 POP POP JUMP JUMPDEST PUSH1 0x0 PUSH1 0x20 DUP3 DUP5 SUB SLT ISZERO PUSH2 0x386F JUMPI PUSH1 0x0 DUP1 REVERT JUMPDEST PUSH1 0x0 PUSH2 0x387D DUP5 DUP3 DUP6 ADD PUSH2 0x36E7 JUMP JUMPDEST SWAP2 POP POP SWAP3 SWAP2 POP POP JUMP JUMPDEST PUSH1 0x0 PUSH1 0x20 DUP3 DUP5 SUB SLT ISZERO PUSH2 0x3898 JUMPI PUSH1 0x0 DUP1 REVERT JUMPDEST PUSH1 0x0 PUSH2 0x38A6 DUP5 DUP3 DUP6 ADD PUSH2 0x36FC JUMP JUMPDEST SWAP2 POP POP SWAP3 SWAP2 POP POP JUMP JUMPDEST PUSH1 0x0 DUP1 PUSH1 0x40 DUP4 DUP6 SUB SLT ISZERO PUSH2 0x38C2 JUMPI PUSH1 0x0 DUP1 REVERT JUMPDEST PUSH1 0x0 PUSH2 0x38D0 DUP6 DUP3 DUP7 ADD PUSH2 0x36E7 JUMP JUMPDEST SWAP3 POP POP PUSH1 0x20 DUP4 ADD CALLDATALOAD PUSH8 0xFFFFFFFFFFFFFFFF DUP2 GT ISZERO PUSH2 0x38ED JUMPI PUSH1 0x0 DUP1 REVERT JUMPDEST PUSH2 0x38F9 DUP6 DUP3 DUP7 ADD PUSH2 0x3711 JUMP JUMPDEST SWAP2 POP POP SWAP3 POP SWAP3 SWAP1 POP JUMP JUMPDEST PUSH1 0x0 DUP1 PUSH1 0x80 DUP4 DUP6 SUB SLT ISZERO PUSH2 0x3916 JUMPI PUSH1 0x0 DUP1 REVERT JUMPDEST PUSH1 0x0 PUSH2 0x3924 DUP6 DUP3 DUP7 ADD PUSH2 0x36E7 JUMP JUMPDEST SWAP3 POP POP PUSH1 0x20 PUSH2 0x3935 DUP6 DUP3 DUP7 ADD PUSH2 0x37D3 JUMP JUMPDEST SWAP2 POP POP SWAP3 POP SWAP3 SWAP1 POP JUMP JUMPDEST PUSH1 0x0 DUP1 PUSH1 0x40 DUP4 DUP6 SUB SLT ISZERO PUSH2 0x3952 JUMPI PUSH1 0x0 DUP1 REVERT JUMPDEST PUSH1 0x0 PUSH2 0x3960 DUP6 DUP3 DUP7 ADD PUSH2 0x36E7 JUMP JUMPDEST SWAP3 POP POP PUSH1 0x20 PUSH2 0x3971 DUP6 DUP3 DUP7 ADD PUSH2 0x3833 JUMP JUMPDEST SWAP2 POP POP SWAP3 POP SWAP3 SWAP1 POP JUMP JUMPDEST PUSH1 0x0 DUP1 PUSH1 0x40 DUP4 DUP6 SUB SLT ISZERO PUSH2 0x398E JUMPI PUSH1 0x0 DUP1 REVERT JUMPDEST PUSH1 0x0 DUP4 ADD CALLDATALOAD PUSH8 0xFFFFFFFFFFFFFFFF DUP2 GT ISZERO PUSH2 0x39A8 JUMPI PUSH1 0x0 DUP1 REVERT JUMPDEST PUSH2 0x39B4 DUP6 DUP3 DUP7 ADD PUSH2 0x3711 JUMP JUMPDEST SWAP3 POP POP PUSH1 0x20 DUP4 ADD CALLDATALOAD PUSH8 0xFFFFFFFFFFFFFFFF DUP2 GT ISZERO PUSH2 0x39D1 JUMPI PUSH1 0x0 DUP1 REVERT JUMPDEST PUSH2 0x39DD DUP6 DUP3 DUP7 ADD PUSH2 0x3711 JUMP JUMPDEST SWAP2 POP POP SWAP3 POP SWAP3 SWAP1 POP JUMP JUMPDEST PUSH1 0x0 PUSH1 0x20 DUP3 DUP5 SUB SLT ISZERO PUSH2 0x39F9 JUMPI PUSH1 0x0 DUP1 REVERT JUMPDEST PUSH1 0x0 PUSH2 0x3A07 DUP5 DUP3 DUP6 ADD PUSH2 0x3794 JUMP JUMPDEST SWAP2 POP POP SWAP3 SWAP2 POP POP JUMP JUMPDEST PUSH1 0x0 PUSH1 0x20 DUP3 DUP5 SUB SLT ISZERO PUSH2 0x3A22 JUMPI PUSH1 0x0 DUP1 REVERT JUMPDEST PUSH1 0x0 PUSH2 0x3A30 DUP5 DUP3 DUP6 ADD PUSH2 0x37A9 JUMP JUMPDEST SWAP2 POP POP SWAP3 SWAP2 POP POP JUMP JUMPDEST PUSH1 0x0 DUP1 PUSH1 0x40 DUP4 DUP6 SUB SLT ISZERO PUSH2 0x3A4C JUMPI PUSH1 0x0 DUP1 REVERT JUMPDEST PUSH1 0x0 PUSH2 0x3A5A DUP6 DUP3 DUP7 ADD PUSH2 0x37BE JUMP JUMPDEST SWAP3 POP POP PUSH1 0x20 PUSH2 0x3A6B DUP6 DUP3 DUP7 ADD PUSH2 0x3833 JUMP JUMPDEST SWAP2 POP POP SWAP3 POP SWAP3 SWAP1 POP JUMP JUMPDEST PUSH1 0x0 PUSH1 0x20 DUP3 DUP5 SUB SLT ISZERO PUSH2 0x3A87 JUMPI PUSH1 0x0 DUP1 REVERT JUMPDEST PUSH1 0x0 PUSH2 0x3A95 DUP5 DUP3 DUP6 ADD PUSH2 0x3833 JUMP JUMPDEST SWAP2 POP POP SWAP3 SWAP2 POP POP JUMP JUMPDEST PUSH1 0x0 PUSH1 0x20 DUP3 DUP5 SUB SLT ISZERO PUSH2 0x3AB0 JUMPI PUSH1 0x0 DUP1 REVERT JUMPDEST PUSH1 0x0 PUSH2 0x3ABE DUP5 DUP3 DUP6 ADD PUSH2 0x3848 JUMP JUMPDEST SWAP2 POP POP SWAP3 SWAP2 POP POP JUMP JUMPDEST PUSH1 0x0 DUP1 PUSH1 0x40 DUP4 DUP6 SUB SLT ISZERO PUSH2 0x3ADA JUMPI PUSH1 0x0 DUP1 REVERT JUMPDEST PUSH1 0x0 PUSH2 0x3AE8 DUP6 DUP3 DUP7 ADD PUSH2 0x3833 JUMP JUMPDEST SWAP3 POP POP PUSH1 0x20 PUSH2 0x3AF9 DUP6 DUP3 DUP7 ADD PUSH2 0x3833 JUMP JUMPDEST SWAP2 POP POP SWAP3 POP SWAP3 SWAP1 POP JUMP JUMPDEST PUSH1 0x0 PUSH2 0x3B0F DUP4 DUP4 PUSH2 0x3FEB JUMP JUMPDEST PUSH1 0x20 DUP4 ADD SWAP1 POP SWAP3 SWAP2 POP POP JUMP JUMPDEST PUSH2 0x3B24 DUP2 PUSH2 0x44CE JUMP JUMPDEST DUP3 MSTORE POP POP JUMP JUMPDEST PUSH2 0x3B33 DUP2 PUSH2 0x4462 JUMP JUMPDEST DUP3 MSTORE POP POP JUMP JUMPDEST PUSH1 0x0 PUSH2 0x3B44 DUP3 PUSH2 0x4407 JUMP JUMPDEST PUSH2 0x3B4E DUP2 DUP6 PUSH2 0x4435 JUMP JUMPDEST SWAP4 POP PUSH2 0x3B59 DUP4 PUSH2 0x43F7 JUMP JUMPDEST DUP1 PUSH1 0x0 JUMPDEST DUP4 DUP2 LT ISZERO PUSH2 0x3B8A JUMPI DUP2 MLOAD PUSH2 0x3B71 DUP9 DUP3 PUSH2 0x3B03 JUMP JUMPDEST SWAP8 POP PUSH2 0x3B7C DUP4 PUSH2 0x4428 JUMP JUMPDEST SWAP3 POP POP PUSH1 0x1 DUP2 ADD SWAP1 POP PUSH2 0x3B5D JUMP JUMPDEST POP DUP6 SWAP4 POP POP POP POP SWAP3 SWAP2 POP POP JUMP JUMPDEST PUSH2 0x3BA0 DUP2 PUSH2 0x4486 JUMP JUMPDEST DUP3 MSTORE POP POP JUMP JUMPDEST PUSH1 0x0 PUSH2 0x3BB1 DUP3 PUSH2 0x4412 JUMP JUMPDEST PUSH2 0x3BBB DUP2 DUP6 PUSH2 0x4446 JUMP JUMPDEST SWAP4 POP PUSH2 0x3BCB DUP2 DUP6 PUSH1 0x20 DUP7 ADD PUSH2 0x4528 JUMP JUMPDEST DUP1 DUP5 ADD SWAP2 POP POP SWAP3 SWAP2 POP POP JUMP JUMPDEST PUSH2 0x3BE0 DUP2 PUSH2 0x44E0 JUMP JUMPDEST DUP3 MSTORE POP POP JUMP JUMPDEST PUSH1 0x0 PUSH2 0x3BF1 DUP3 PUSH2 0x441D JUMP JUMPDEST PUSH2 0x3BFB DUP2 DUP6 PUSH2 0x4451 JUMP JUMPDEST SWAP4 POP PUSH2 0x3C0B DUP2 DUP6 PUSH1 0x20 DUP7 ADD PUSH2 0x4528 JUMP JUMPDEST PUSH2 0x3C14 DUP2 PUSH2 0x455B JUMP JUMPDEST DUP5 ADD SWAP2 POP POP SWAP3 SWAP2 POP POP JUMP JUMPDEST PUSH1 0x0 PUSH2 0x3C2C PUSH1 0x16 DUP4 PUSH2 0x4451 JUMP JUMPDEST SWAP2 POP PUSH32 0x43616C6C6572206973206E6F7420746865206465762100000000000000000000 PUSH1 0x0 DUP4 ADD MSTORE PUSH1 0x20 DUP3 ADD SWAP1 POP SWAP2 SWAP1 POP JUMP JUMPDEST PUSH1 0x0 PUSH2 0x3C6C PUSH1 0x16 DUP4 PUSH2 0x4451 JUMP JUMPDEST SWAP2 POP PUSH32 0x4E6F7420656E6F75676820746F20636F6D706F756E6400000000000000000000 PUSH1 0x0 DUP4 ADD MSTORE PUSH1 0x20 DUP3 ADD SWAP1 POP SWAP2 SWAP1 POP JUMP JUMPDEST PUSH1 0x0 PUSH2 0x3CAC PUSH1 0x1B DUP4 PUSH2 0x4451 JUMP JUMPDEST SWAP2 POP PUSH32 0x536166654D6174683A206164646974696F6E206F766572666C6F770000000000 PUSH1 0x0 DUP4 ADD MSTORE PUSH1 0x20 DUP3 ADD SWAP1 POP SWAP2 SWAP1 POP JUMP JUMPDEST PUSH1 0x0 PUSH2 0x3CEC PUSH1 0x16 DUP4 PUSH2 0x4451 JUMP JUMPDEST SWAP2 POP PUSH32 0x496E73756666696369656E7420616C6C6F77616E636500000000000000000000 PUSH1 0x0 DUP4 ADD MSTORE PUSH1 0x20 DUP3 ADD SWAP1 POP SWAP2 SWAP1 POP JUMP JUMPDEST PUSH1 0x0 PUSH2 0x3D2C PUSH1 0x14 DUP4 PUSH2 0x4451 JUMP JUMPDEST SWAP2 POP PUSH32 0x496E73756666696369656E742062616C616E6365000000000000000000000000 PUSH1 0x0 DUP4 ADD MSTORE PUSH1 0x20 DUP3 ADD SWAP1 POP SWAP2 SWAP1 POP JUMP JUMPDEST PUSH1 0x0 PUSH2 0x3D6C PUSH1 0x20 DUP4 PUSH2 0x4451 JUMP JUMPDEST SWAP2 POP PUSH32 0x5361666545524332303A206C6F772D6C6576656C2063616C6C206661696C6564 PUSH1 0x0 DUP4 ADD MSTORE PUSH1 0x20 DUP3 ADD SWAP1 POP SWAP2 SWAP1 POP JUMP JUMPDEST PUSH1 0x0 PUSH2 0x3DAC PUSH1 0x11 DUP4 PUSH2 0x4451 JUMP JUMPDEST SWAP2 POP PUSH32 0x446F206E6F742073656E6420415641582E000000000000000000000000000000 PUSH1 0x0 DUP4 ADD MSTORE PUSH1 0x20 DUP3 ADD SWAP1 POP SWAP2 SWAP1 POP JUMP JUMPDEST PUSH1 0x0 PUSH2 0x3DEC PUSH1 0xC DUP4 PUSH2 0x4451 JUMP JUMPDEST SWAP2 POP PUSH32 0x5A65726F20616464726573730000000000000000000000000000000000000000 PUSH1 0x0 DUP4 ADD MSTORE PUSH1 0x20 DUP3 ADD SWAP1 POP SWAP2 SWAP1 POP JUMP JUMPDEST PUSH1 0x0 PUSH2 0x3E2C PUSH1 0x10 DUP4 PUSH2 0x4451 JUMP JUMPDEST SWAP2 POP PUSH32 0x496E76616C6964206E6F64655469657200000000000000000000000000000000 PUSH1 0x0 DUP4 ADD MSTORE PUSH1 0x20 DUP3 ADD SWAP1 POP SWAP2 SWAP1 POP JUMP JUMPDEST PUSH1 0x0 PUSH2 0x3E6C PUSH1 0x21 DUP4 PUSH2 0x4451 JUMP JUMPDEST SWAP2 POP PUSH32 0x536166654D6174683A206D756C7469706C69636174696F6E206F766572666C6F PUSH1 0x0 DUP4 ADD MSTORE PUSH32 0x7700000000000000000000000000000000000000000000000000000000000000 PUSH1 0x20 DUP4 ADD MSTORE PUSH1 0x40 DUP3 ADD SWAP1 POP SWAP2 SWAP1 POP JUMP JUMPDEST PUSH1 0x0 PUSH2 0x3ED2 PUSH1 0xF DUP4 PUSH2 0x4451 JUMP JUMPDEST SWAP2 POP PUSH32 0x4C656E677468206D69736D617463680000000000000000000000000000000000 PUSH1 0x0 DUP4 ADD MSTORE PUSH1 0x20 DUP3 ADD SWAP1 POP SWAP2 SWAP1 POP JUMP JUMPDEST PUSH1 0x0 PUSH2 0x3F12 PUSH1 0x8 DUP4 PUSH2 0x4451 JUMP JUMPDEST SWAP2 POP PUSH32 0x44697361626C6564000000000000000000000000000000000000000000000000 PUSH1 0x0 DUP4 ADD MSTORE PUSH1 0x20 DUP3 ADD SWAP1 POP SWAP2 SWAP1 POP JUMP JUMPDEST PUSH1 0x0 PUSH2 0x3F52 PUSH1 0x2A DUP4 PUSH2 0x4451 JUMP JUMPDEST SWAP2 POP PUSH32 0x5361666545524332303A204552433230206F7065726174696F6E20646964206E PUSH1 0x0 DUP4 ADD MSTORE PUSH32 0x6F74207375636365656400000000000000000000000000000000000000000000 PUSH1 0x20 DUP4 ADD MSTORE PUSH1 0x40 DUP3 ADD SWAP1 POP SWAP2 SWAP1 POP JUMP JUMPDEST PUSH1 0x0 PUSH2 0x3FB8 PUSH1 0x1F DUP4 PUSH2 0x4451 JUMP JUMPDEST SWAP2 POP PUSH32 0x5361666545524332303A2063616C6C20746F206E6F6E2D636F6E747261637400 PUSH1 0x0 DUP4 ADD MSTORE PUSH1 0x20 DUP3 ADD SWAP1 POP SWAP2 SWAP1 POP JUMP JUMPDEST PUSH2 0x3FF4 DUP2 PUSH2 0x44C4 JUMP JUMPDEST DUP3 MSTORE POP POP JUMP JUMPDEST PUSH2 0x4003 DUP2 PUSH2 0x44C4 JUMP JUMPDEST DUP3 MSTORE POP POP JUMP JUMPDEST PUSH1 0x0 PUSH2 0x4015 DUP3 DUP5 PUSH2 0x3BA6 JUMP JUMPDEST SWAP2 POP DUP2 SWAP1 POP SWAP3 SWAP2 POP POP JUMP JUMPDEST PUSH1 0x0 PUSH1 0x20 DUP3 ADD SWAP1 POP PUSH2 0x4035 PUSH1 0x0 DUP4 ADD DUP5 PUSH2 0x3B2A JUMP JUMPDEST SWAP3 SWAP2 POP POP JUMP JUMPDEST PUSH1 0x0 PUSH1 0x20 DUP3 ADD SWAP1 POP PUSH2 0x4050 PUSH1 0x0 DUP4 ADD DUP5 PUSH2 0x3B1B JUMP JUMPDEST SWAP3 SWAP2 POP POP JUMP JUMPDEST PUSH1 0x0 PUSH1 0x40 DUP3 ADD SWAP1 POP PUSH2 0x406B PUSH1 0x0 DUP4 ADD DUP6 PUSH2 0x3B2A JUMP JUMPDEST PUSH2 0x4078 PUSH1 0x20 DUP4 ADD DUP5 PUSH2 0x3B1B JUMP JUMPDEST SWAP4 SWAP3 POP POP POP JUMP JUMPDEST PUSH1 0x0 PUSH1 0x60 DUP3 ADD SWAP1 POP PUSH2 0x4094 PUSH1 0x0 DUP4 ADD DUP7 PUSH2 0x3B2A JUMP JUMPDEST PUSH2 0x40A1 PUSH1 0x20 DUP4 ADD DUP6 PUSH2 0x3B2A JUMP JUMPDEST PUSH2 0x40AE PUSH1 0x40 DUP4 ADD DUP5 PUSH2 0x3FFA JUMP JUMPDEST SWAP5 SWAP4 POP POP POP POP JUMP JUMPDEST PUSH1 0x0 PUSH1 0x40 DUP3 ADD SWAP1 POP PUSH2 0x40CB PUSH1 0x0 DUP4 ADD DUP6 PUSH2 0x3B2A JUMP JUMPDEST PUSH2 0x40D8 PUSH1 0x20 DUP4 ADD DUP5 PUSH2 0x3FFA JUMP JUMPDEST SWAP4 SWAP3 POP POP POP JUMP JUMPDEST PUSH1 0x0 PUSH1 0x20 DUP3 ADD SWAP1 POP DUP2 DUP2 SUB PUSH1 0x0 DUP4 ADD MSTORE PUSH2 0x40F9 DUP2 DUP5 PUSH2 0x3B39 JUMP JUMPDEST SWAP1 POP SWAP3 SWAP2 POP POP JUMP JUMPDEST PUSH1 0x0 PUSH1 0x20 DUP3 ADD SWAP1 POP PUSH2 0x4116 PUSH1 0x0 DUP4 ADD DUP5 PUSH2 0x3B97 JUMP JUMPDEST SWAP3 SWAP2 POP POP JUMP JUMPDEST PUSH1 0x0 PUSH1 0x20 DUP3 ADD SWAP1 POP PUSH2 0x4131 PUSH1 0x0 DUP4 ADD DUP5 PUSH2 0x3BD7 JUMP JUMPDEST SWAP3 SWAP2 POP POP JUMP JUMPDEST PUSH1 0x0 PUSH1 0x20 DUP3 ADD SWAP1 POP DUP2 DUP2 SUB PUSH1 0x0 DUP4 ADD MSTORE PUSH2 0x4151 DUP2 DUP5 PUSH2 0x3BE6 JUMP JUMPDEST SWAP1 POP SWAP3 SWAP2 POP POP JUMP JUMPDEST PUSH1 0x0 PUSH1 0x20 DUP3 ADD SWAP1 POP DUP2 DUP2 SUB PUSH1 0x0 DUP4 ADD MSTORE PUSH2 0x4172 DUP2 PUSH2 0x3C1F JUMP JUMPDEST SWAP1 POP SWAP2 SWAP1 POP JUMP JUMPDEST PUSH1 0x0 PUSH1 0x20 DUP3 ADD SWAP1 POP DUP2 DUP2 SUB PUSH1 0x0 DUP4 ADD MSTORE PUSH2 0x4192 DUP2 PUSH2 0x3C5F JUMP JUMPDEST SWAP1 POP SWAP2 SWAP1 POP JUMP JUMPDEST PUSH1 0x0 PUSH1 0x20 DUP3 ADD SWAP1 POP DUP2 DUP2 SUB PUSH1 0x0 DUP4 ADD MSTORE PUSH2 0x41B2 DUP2 PUSH2 0x3C9F JUMP JUMPDEST SWAP1 POP SWAP2 SWAP1 POP JUMP JUMPDEST PUSH1 0x0 PUSH1 0x20 DUP3 ADD SWAP1 POP DUP2 DUP2 SUB PUSH1 0x0 DUP4 ADD MSTORE PUSH2 0x41D2 DUP2 PUSH2 0x3CDF JUMP JUMPDEST SWAP1 POP SWAP2 SWAP1 POP JUMP JUMPDEST PUSH1 0x0 PUSH1 0x20 DUP3 ADD SWAP1 POP DUP2 DUP2 SUB PUSH1 0x0 DUP4 ADD MSTORE PUSH2 0x41F2 DUP2 PUSH2 0x3D1F JUMP JUMPDEST SWAP1 POP SWAP2 SWAP1 POP JUMP JUMPDEST PUSH1 0x0 PUSH1 0x20 DUP3 ADD SWAP1 POP DUP2 DUP2 SUB PUSH1 0x0 DUP4 ADD MSTORE PUSH2 0x4212 DUP2 PUSH2 0x3D5F JUMP JUMPDEST SWAP1 POP SWAP2 SWAP1 POP JUMP JUMPDEST PUSH1 0x0 PUSH1 0x20 DUP3 ADD SWAP1 POP DUP2 DUP2 SUB PUSH1 0x0 DUP4 ADD MSTORE PUSH2 0x4232 DUP2 PUSH2 0x3D9F JUMP JUMPDEST SWAP1 POP SWAP2 SWAP1 POP JUMP JUMPDEST PUSH1 0x0 PUSH1 0x20 DUP3 ADD SWAP1 POP DUP2 DUP2 SUB PUSH1 0x0 DUP4 ADD MSTORE PUSH2 0x4252 DUP2 PUSH2 0x3DDF JUMP JUMPDEST SWAP1 POP SWAP2 SWAP1 POP JUMP JUMPDEST PUSH1 0x0 PUSH1 0x20 DUP3 ADD SWAP1 POP DUP2 DUP2 SUB PUSH1 0x0 DUP4 ADD MSTORE PUSH2 0x4272 DUP2 PUSH2 0x3E1F JUMP JUMPDEST SWAP1 POP SWAP2 SWAP1 POP JUMP JUMPDEST PUSH1 0x0 PUSH1 0x20 DUP3 ADD SWAP1 POP DUP2 DUP2 SUB PUSH1 0x0 DUP4 ADD MSTORE PUSH2 0x4292 DUP2 PUSH2 0x3E5F JUMP JUMPDEST SWAP1 POP SWAP2 SWAP1 POP JUMP JUMPDEST PUSH1 0x0 PUSH1 0x20 DUP3 ADD SWAP1 POP DUP2 DUP2 SUB PUSH1 0x0 DUP4 ADD MSTORE PUSH2 0x42B2 DUP2 PUSH2 0x3EC5 JUMP JUMPDEST SWAP1 POP SWAP2 SWAP1 POP JUMP JUMPDEST PUSH1 0x0 PUSH1 0x20 DUP3 ADD SWAP1 POP DUP2 DUP2 SUB PUSH1 0x0 DUP4 ADD MSTORE PUSH2 0x42D2 DUP2 PUSH2 0x3F05 JUMP JUMPDEST SWAP1 POP SWAP2 SWAP1 POP JUMP JUMPDEST PUSH1 0x0 PUSH1 0x20 DUP3 ADD SWAP1 POP DUP2 DUP2 SUB PUSH1 0x0 DUP4 ADD MSTORE PUSH2 0x42F2 DUP2 PUSH2 0x3F45 JUMP JUMPDEST SWAP1 POP SWAP2 SWAP1 POP JUMP JUMPDEST PUSH1 0x0 PUSH1 0x20 DUP3 ADD SWAP1 POP DUP2 DUP2 SUB PUSH1 0x0 DUP4 ADD MSTORE PUSH2 0x4312 DUP2 PUSH2 0x3FAB JUMP JUMPDEST SWAP1 POP SWAP2 SWAP1 POP JUMP JUMPDEST PUSH1 0x0 PUSH1 0x20 DUP3 ADD SWAP1 POP PUSH2 0x432E PUSH1 0x0 DUP4 ADD DUP5 PUSH2 0x3FFA JUMP JUMPDEST SWAP3 SWAP2 POP POP JUMP JUMPDEST PUSH1 0x0 PUSH1 0x60 DUP3 ADD SWAP1 POP PUSH2 0x4349 PUSH1 0x0 DUP4 ADD DUP7 PUSH2 0x3FFA JUMP JUMPDEST PUSH2 0x4356 PUSH1 0x20 DUP4 ADD DUP6 PUSH2 0x3B2A JUMP JUMPDEST PUSH2 0x4363 PUSH1 0x40 DUP4 ADD DUP5 PUSH2 0x3FFA JUMP JUMPDEST SWAP5 SWAP4 POP POP POP POP JUMP JUMPDEST PUSH1 0x0 PUSH1 0x60 DUP3 ADD SWAP1 POP PUSH2 0x4380 PUSH1 0x0 DUP4 ADD DUP7 PUSH2 0x3FFA JUMP JUMPDEST PUSH2 0x438D PUSH1 0x20 DUP4 ADD DUP6 PUSH2 0x3FFA JUMP JUMPDEST PUSH2 0x439A PUSH1 0x40 DUP4 ADD DUP5 PUSH2 0x3FFA JUMP JUMPDEST SWAP5 SWAP4 POP POP POP POP JUMP JUMPDEST PUSH1 0x0 PUSH1 0x40 MLOAD SWAP1 POP DUP2 DUP2 ADD DUP2 DUP2 LT PUSH8 0xFFFFFFFFFFFFFFFF DUP3 GT OR ISZERO PUSH2 0x43C5 JUMPI PUSH1 0x0 DUP1 REVERT JUMPDEST DUP1 PUSH1 0x40 MSTORE POP SWAP2 SWAP1 POP JUMP JUMPDEST PUSH1 0x0 PUSH8 0xFFFFFFFFFFFFFFFF DUP3 GT ISZERO PUSH2 0x43E6 JUMPI PUSH1 0x0 DUP1 REVERT JUMPDEST PUSH1 0x20 DUP3 MUL SWAP1 POP PUSH1 0x20 DUP2 ADD SWAP1 POP SWAP2 SWAP1 POP JUMP JUMPDEST PUSH1 0x0 DUP2 SWAP1 POP PUSH1 0x20 DUP3 ADD SWAP1 POP SWAP2 SWAP1 POP JUMP JUMPDEST PUSH1 0x0 DUP2 MLOAD SWAP1 POP SWAP2 SWAP1 POP JUMP JUMPDEST PUSH1 0x0 DUP2 MLOAD SWAP1 POP SWAP2 SWAP1 POP JUMP JUMPDEST PUSH1 0x0 DUP2 MLOAD SWAP1 POP SWAP2 SWAP1 POP JUMP JUMPDEST PUSH1 0x0 PUSH1 0x20 DUP3 ADD SWAP1 POP SWAP2 SWAP1 POP JUMP JUMPDEST PUSH1 0x0 DUP3 DUP3 MSTORE PUSH1 0x20 DUP3 ADD SWAP1 POP SWAP3 SWAP2 POP POP JUMP JUMPDEST PUSH1 0x0 DUP2 SWAP1 POP SWAP3 SWAP2 POP POP JUMP JUMPDEST PUSH1 0x0 DUP3 DUP3 MSTORE PUSH1 0x20 DUP3 ADD SWAP1 POP SWAP3 SWAP2 POP POP JUMP JUMPDEST PUSH1 0x0 PUSH2 0x446D DUP3 PUSH2 0x44A4 JUMP JUMPDEST SWAP1 POP SWAP2 SWAP1 POP JUMP JUMPDEST PUSH1 0x0 PUSH2 0x447F DUP3 PUSH2 0x44A4 JUMP JUMPDEST SWAP1 POP SWAP2 SWAP1 POP JUMP JUMPDEST PUSH1 0x0 DUP2 ISZERO ISZERO SWAP1 POP SWAP2 SWAP1 POP JUMP JUMPDEST PUSH1 0x0 PUSH2 0x449D DUP3 PUSH2 0x4462 JUMP JUMPDEST SWAP1 POP SWAP2 SWAP1 POP JUMP JUMPDEST PUSH1 0x0 PUSH20 0xFFFFFFFFFFFFFFFFFFFFFFFFFFFFFFFFFFFFFFFF DUP3 AND SWAP1 POP SWAP2 SWAP1 POP JUMP JUMPDEST PUSH1 0x0 DUP2 SWAP1 POP SWAP2 SWAP1 POP JUMP JUMPDEST PUSH1 0x0 PUSH2 0x44D9 DUP3 PUSH2 0x4504 JUMP JUMPDEST SWAP1 POP SWAP2 SWAP1 POP JUMP JUMPDEST PUSH1 0x0 PUSH2 0x44EB DUP3 PUSH2 0x44F2 JUMP JUMPDEST SWAP1 POP SWAP2 SWAP1 POP JUMP JUMPDEST PUSH1 0x0 PUSH2 0x44FD DUP3 PUSH2 0x44A4 JUMP JUMPDEST SWAP1 POP SWAP2 SWAP1 POP JUMP JUMPDEST PUSH1 0x0 PUSH2 0x450F DUP3 PUSH2 0x4516 JUMP JUMPDEST SWAP1 POP SWAP2 SWAP1 POP JUMP JUMPDEST PUSH1 0x0 PUSH2 0x4521 DUP3 PUSH2 0x44A4 JUMP JUMPDEST SWAP1 POP SWAP2 SWAP1 POP JUMP JUMPDEST PUSH1 0x0 JUMPDEST DUP4 DUP2 LT ISZERO PUSH2 0x4546 JUMPI DUP1 DUP3 ADD MLOAD DUP2 DUP5 ADD MSTORE PUSH1 0x20 DUP2 ADD SWAP1 POP PUSH2 0x452B JUMP JUMPDEST DUP4 DUP2 GT ISZERO PUSH2 0x4555 JUMPI PUSH1 0x0 DUP5 DUP5 ADD MSTORE JUMPDEST POP POP POP POP JUMP JUMPDEST PUSH1 0x0 PUSH1 0x1F NOT PUSH1 0x1F DUP4 ADD AND SWAP1 POP SWAP2 SWAP1 POP JUMP JUMPDEST PUSH2 0x4575 DUP2 PUSH2 0x4462 JUMP JUMPDEST DUP2 EQ PUSH2 0x4580 JUMPI PUSH1 0x0 DUP1 REVERT JUMPDEST POP JUMP JUMPDEST PUSH2 0x458C DUP2 PUSH2 0x4474 JUMP JUMPDEST DUP2 EQ PUSH2 0x4597 JUMPI PUSH1 0x0 DUP1 REVERT JUMPDEST POP JUMP JUMPDEST PUSH2 0x45A3 DUP2 PUSH2 0x4486 JUMP JUMPDEST DUP2 EQ PUSH2 0x45AE JUMPI PUSH1 0x0 DUP1 REVERT JUMPDEST POP JUMP JUMPDEST PUSH2 0x45BA DUP2 PUSH2 0x4492 JUMP JUMPDEST DUP2 EQ PUSH2 0x45C5 JUMPI PUSH1 0x0 DUP1 REVERT JUMPDEST POP JUMP JUMPDEST PUSH2 0x45D1 DUP2 PUSH2 0x44C4 JUMP JUMPDEST DUP2 EQ PUSH2 0x45DC JUMPI PUSH1 0x0 DUP1 REVERT JUMPDEST POP JUMP INVALID LOG2 PUSH5 0x6970667358 0x22 SLT KECCAK256 SMOD 0xCD 0xF9 0xC4 0xC0 0xEC 0x4B AND 0xD 0x23 RETURNDATACOPY 0xD4 0xEE DUP1 SAR DUP8 0xEE 0xCF CALLDATACOPY GT 0x2A 0x49 CODESIZE SDIV SWAP12 LT 0xBC 0x25 0x25 0xE4 SUB MSTORE8 PUSH5 0x736F6C6343 STOP MOD 0xC STOP CALLER "
				},
				"gasEstimates": {
					"creation": {
						"codeDepositCost": "3588200",
						"executionCost": "infinite",
						"totalCost": "infinite"
					},
					"external": {
						"MULTIPLIER()": "376",
						"TOKEN()": "510",
						"allocPoints(address)": "infinite",
						"changeDev(address)": "22341",
						"claim()": "infinite",
						"claimTreasuryRewards()": "infinite",
						"compound()": "infinite",
						"create(uint256,uint256)": "infinite",
						"dripRate()": "1196",
						"dripRewards()": "infinite",
						"emergencyWithdraw(address,uint256)": "infinite",
						"enabled()": "1283",
						"getBalance()": "infinite",
						"getBalancePool()": "infinite",
						"getDayDripEstimate(address)": "infinite",
						"getDistributionRewards(address)": "infinite",
						"getNodes(address)": "infinite",
						"getRewardDrip()": "infinite",
						"getTotalNodes()": "infinite",
						"getTotalRewards(address)": "infinite",
						"isMaxPayout(address)": "infinite",
						"lastDripTime()": "1261",
						"maxPayout(address)": "infinite",
						"maxReturnPercent()": "1174",
						"nodes(address,uint256)": "infinite",
						"numNodes(address,uint256)": "infinite",
						"setDripRate(uint256)": "21380",
						"setEnabled(bool)": "22239",
						"setLastDripTime(uint256)": "21447",
						"setMaxReturnPercent(uint256)": "21424",
						"setNodes(address,uint256[])": "infinite",
						"setStartTime(uint256)": "21424",
						"setTierValues(uint256[],uint256[])": "infinite",
						"setTreasuryFeePercent(uint256)": "21379",
						"setUser(address,(uint256,uint256,uint256))": "infinite",
						"startTime()": "1196",
						"tierAllocPoints(uint256)": "infinite",
						"tierAmounts(uint256)": "infinite",
						"totalAllocPoints()": "infinite",
						"totalDistributePoints()": "1284",
						"totalDistributeRewards()": "1217",
						"totalNodes(uint256)": "infinite",
						"total_claimed()": "1285",
						"total_deposited()": "1218",
						"total_rewards()": "1220",
						"total_users()": "1211",
						"treasuryFeePercent()": "1175",
						"treasury_rewards()": "1218",
						"userIndices(uint256)": "2424",
						"users(address)": "infinite"
					},
					"internal": {
						"_compound(uint256,uint256)": "infinite",
						"_disperse(uint256)": "infinite"
					}
				},
				"methodIdentifiers": {
					"MULTIPLIER()": "059f8b16",
					"TOKEN()": "82bfefc8",
					"allocPoints(address)": "5fb11d7e",
					"changeDev(address)": "88a8c95c",
					"claim()": "4e71d92d",
					"claimTreasuryRewards()": "05c4744b",
					"compound()": "f69e2046",
					"create(uint256,uint256)": "9f7b4579",
					"dripRate()": "d3261592",
					"dripRewards()": "5b2f3c8e",
					"emergencyWithdraw(address,uint256)": "95ccea67",
					"enabled()": "238dafe0",
					"getBalance()": "12065fe0",
					"getBalancePool()": "5b0d2d8c",
					"getDayDripEstimate(address)": "94ac42cc",
					"getDistributionRewards(address)": "277e5316",
					"getNodes(address)": "486af96a",
					"getRewardDrip()": "4b3dd5b5",
					"getTotalNodes()": "63584ecd",
					"getTotalRewards(address)": "2bcf161c",
					"isMaxPayout(address)": "44886d70",
					"lastDripTime()": "fba1f7b0",
					"maxPayout(address)": "e300e98b",
					"maxReturnPercent()": "740c8af7",
					"nodes(address,uint256)": "adf1b67e",
					"numNodes(address,uint256)": "bcb11639",
					"setDripRate(uint256)": "5fbb48dc",
					"setEnabled(bool)": "328d8f72",
					"setLastDripTime(uint256)": "1ed5c6c2",
					"setMaxReturnPercent(uint256)": "648acb09",
					"setNodes(address,uint256[])": "5083f17b",
					"setStartTime(uint256)": "3e0a322d",
					"setTierValues(uint256[],uint256[])": "2ae27071",
					"setTreasuryFeePercent(uint256)": "56e1221c",
					"setUser(address,(uint256,uint256,uint256))": "2702dfe7",
					"startTime()": "78e97925",
					"tierAllocPoints(uint256)": "2365d7bc",
					"tierAmounts(uint256)": "35771fe0",
					"totalAllocPoints()": "1fa36cbe",
					"totalDistributePoints()": "c7ce9560",
					"totalDistributeRewards()": "f65f4eaf",
					"totalNodes(uint256)": "1d1c7b4e",
					"total_claimed()": "6af904c6",
					"total_deposited()": "de560cca",
					"total_rewards()": "05d6bbf4",
					"total_users()": "e7cc62bd",
					"treasuryFeePercent()": "5c75dcbc",
					"treasury_rewards()": "ab4e2785",
					"userIndices(uint256)": "211aea02",
					"users(address)": "a87430ba"
				}
			},
			"userdoc": {
				"kind": "user",
				"methods": {},
				"version": 1
			}
		}
	}
}