{
	"contracts/Super-Zap.sol": {
		"SuperZap": {
			"abi": [
				{
					"inputs": [
						{
							"internalType": "address",
							"name": "_zapper",
							"type": "address"
						},
						{
							"internalType": "address",
							"name": "_fudge",
							"type": "address"
						},
						{
							"internalType": "address",
							"name": "_straw",
							"type": "address"
						},
						{
							"internalType": "address",
							"name": "_fudgePair",
							"type": "address"
						},
						{
							"internalType": "address",
							"name": "_strawPair",
							"type": "address"
						}
					],
					"stateMutability": "nonpayable",
					"type": "constructor"
				},
				{
					"inputs": [
						{
							"internalType": "address",
							"name": "asset",
							"type": "address"
						}
					],
					"name": "approveZapper",
					"outputs": [],
					"stateMutability": "nonpayable",
					"type": "function"
				},
				{
					"inputs": [],
					"name": "fudge",
					"outputs": [
						{
							"internalType": "contract IERC20",
							"name": "",
							"type": "address"
						}
					],
					"stateMutability": "view",
					"type": "function"
				},
				{
					"inputs": [],
					"name": "fudgePair",
					"outputs": [
						{
							"internalType": "contract IERC20",
							"name": "",
							"type": "address"
						}
					],
					"stateMutability": "view",
					"type": "function"
				},
				{
					"inputs": [],
					"name": "minFudge",
					"outputs": [
						{
							"internalType": "uint256",
							"name": "",
							"type": "uint256"
						}
					],
					"stateMutability": "view",
					"type": "function"
				},
				{
					"inputs": [],
					"name": "minStraw",
					"outputs": [
						{
							"internalType": "uint256",
							"name": "",
							"type": "uint256"
						}
					],
					"stateMutability": "view",
					"type": "function"
				},
				{
					"inputs": [],
					"name": "operator",
					"outputs": [
						{
							"internalType": "address",
							"name": "",
							"type": "address"
						}
					],
					"stateMutability": "view",
					"type": "function"
				},
				{
					"inputs": [
						{
							"internalType": "uint256",
							"name": "_minStraw",
							"type": "uint256"
						},
						{
							"internalType": "uint256",
							"name": "_minFudge",
							"type": "uint256"
						}
					],
					"name": "setMins",
					"outputs": [],
					"stateMutability": "nonpayable",
					"type": "function"
				},
				{
					"inputs": [],
					"name": "straw",
					"outputs": [
						{
							"internalType": "contract IERC20",
							"name": "",
							"type": "address"
						}
					],
					"stateMutability": "view",
					"type": "function"
				},
				{
					"inputs": [],
					"name": "strawPair",
					"outputs": [
						{
							"internalType": "contract IERC20",
							"name": "",
							"type": "address"
						}
					],
					"stateMutability": "view",
					"type": "function"
				},
				{
					"inputs": [
						{
							"internalType": "address",
							"name": "asset",
							"type": "address"
						}
					],
					"name": "withdraw",
					"outputs": [],
					"stateMutability": "nonpayable",
					"type": "function"
				},
				{
					"inputs": [
						{
							"internalType": "address",
							"name": "from",
							"type": "address"
						},
						{
							"internalType": "uint256",
							"name": "amount",
							"type": "uint256"
						},
						{
							"internalType": "uint256",
							"name": "percentFudgeLP",
							"type": "uint256"
						}
					],
					"name": "zapStrategy",
					"outputs": [
						{
							"internalType": "uint256",
							"name": "",
							"type": "uint256"
						},
						{
							"internalType": "uint256",
							"name": "",
							"type": "uint256"
						}
					],
					"stateMutability": "nonpayable",
					"type": "function"
				},
				{
					"inputs": [],
					"name": "zapper",
					"outputs": [
						{
							"internalType": "contract IZapper",
							"name": "",
							"type": "address"
						}
					],
					"stateMutability": "view",
					"type": "function"
				}
			],
			"devdoc": {
				"kind": "dev",
				"methods": {},
				"version": 1
			},
			"evm": {
				"assembly": "    /* \"contracts/Super-Zap.sol\":15881:19227  contract SuperZap is ContractGuard {\r... */\n  mstore(0x40, 0x80)\n    /* \"contracts/Super-Zap.sol\":16255:16770  constructor(address _zapper, address _fudge, address _straw, address _fudgePair, address _strawPair) public {\r... */\n  callvalue\n  dup1\n  iszero\n  tag_1\n  jumpi\n  0x00\n  dup1\n  revert\ntag_1:\n  pop\n  mload(0x40)\n  sub(codesize, bytecodeSize)\n  dup1\n  bytecodeSize\n  dup4\n  codecopy\n  dup2\n  dup2\n  add\n  0x40\n  mstore\n  0xa0\n  dup2\n  lt\n  iszero\n  tag_2\n  jumpi\n  0x00\n  dup1\n  revert\ntag_2:\n  pop\n  dup1\n  mload\n  0x20\n  dup1\n  dup4\n  add\n  mload\n  0x40\n  dup1\n  dup6\n  add\n  mload\n  0x60\n  dup7\n  add\n  mload\n  0x80\n  swap1\n  swap7\n  add\n  mload\n    /* \"contracts/Super-Zap.sol\":16374:16380  zapper */\n  0x01\n    /* \"contracts/Super-Zap.sol\":16374:16399  zapper = IZapper(_zapper) */\n  dup1\n  sload\n  sub(shl(0xa0, 0x01), 0x01)\n  dup1\n  dup10\n  and\n  not(sub(shl(0xa0, 0x01), 0x01))\n  swap3\n  dup4\n  and\n  or\n  swap3\n  dup4\n  swap1\n  sstore\n    /* \"contracts/Super-Zap.sol\":16410:16415  fudge */\n  0x02\n    /* \"contracts/Super-Zap.sol\":16410:16432  fudge = IERC20(_fudge) */\n  dup1\n  sload\n  dup3\n  dup10\n  and\n  swap1\n  dup5\n  and\n  or\n  swap1\n  dup2\n  swap1\n  sstore\n    /* \"contracts/Super-Zap.sol\":16443:16448  straw */\n  0x03\n    /* \"contracts/Super-Zap.sol\":16443:16465  straw = IERC20(_straw) */\n  dup1\n  sload\n  dup4\n  dup9\n  and\n  swap1\n  dup6\n  and\n  or\n  swap1\n  sstore\n    /* \"contracts/Super-Zap.sol\":16476:16485  fudgePair */\n  0x04\n    /* \"contracts/Super-Zap.sol\":16476:16506  fudgePair = IERC20(_fudgePair) */\n  dup1\n  sload\n  dup4\n  dup14\n  and\n  swap1\n  dup6\n  and\n  or\n  dup2\n  sstore\n    /* \"contracts/Super-Zap.sol\":16517:16526  strawPair */\n  0x05\n    /* \"contracts/Super-Zap.sol\":16517:16547  strawPair = IERC20(_strawPair) */\n  dup1\n  sload\n  dup5\n  dup9\n  and\n  swap1\n  dup7\n  and\n  or\n  swap1\n  sstore\n    /* \"contracts/Super-Zap.sol\":16558:16566  operator */\n  0x06\n    /* \"contracts/Super-Zap.sol\":16558:16579  operator = msg.sender */\n  dup1\n  sload\n  swap1\n  swap5\n  and\n    /* \"contracts/Super-Zap.sol\":16569:16579  msg.sender */\n  caller\n    /* \"contracts/Super-Zap.sol\":16558:16579  operator = msg.sender */\n  or\n  swap1\n  swap4\n  sstore\n    /* \"contracts/Super-Zap.sol\":16601:16614  0.0005 * 1e18 */\n  0x01c6bf52634000\n    /* \"contracts/Super-Zap.sol\":16590:16598  minStraw */\n  0x07\n    /* \"contracts/Super-Zap.sol\":16590:16614  minStraw = 0.0005 * 1e18 */\n  sstore\n    /* \"contracts/Super-Zap.sol\":16636:16640  1e18 */\n  0x0de0b6b3a7640000\n    /* \"contracts/Super-Zap.sol\":16625:16633  minFudge */\n  0x08\n    /* \"contracts/Super-Zap.sol\":16625:16640  minFudge = 1e18 */\n  sstore\n    /* \"contracts/Super-Zap.sol\":16653:16702  fudge.approve(address(zapper), type(uint256).max) */\n  dup7\n  mload\n  shl(0xe0, 0x095ea7b3)\n  dup2\n  mstore\n    /* \"contracts/Super-Zap.sol\":16675:16681  zapper */\n  swap4\n  dup3\n  and\n    /* \"contracts/Super-Zap.sol\":16653:16702  fudge.approve(address(zapper), type(uint256).max) */\n  swap3\n  dup5\n  add\n  swap3\n  swap1\n  swap3\n  mstore\n  not(0x00)\n  0x24\n  dup5\n  add\n  mstore\n  swap5\n  mload\n    /* \"contracts/Super-Zap.sol\":16255:16770  constructor(address _zapper, address _fudge, address _straw, address _fudgePair, address _strawPair) public {\r... */\n  swap8\n  swap9\n  swap6\n  swap8\n  swap4\n  swap7\n  swap3\n  swap5\n    /* \"contracts/Super-Zap.sol\":16653:16658  fudge */\n  and\n  swap3\n    /* \"contracts/Super-Zap.sol\":16653:16666  fudge.approve */\n  0x095ea7b3\n  swap3\n    /* \"contracts/Super-Zap.sol\":16653:16702  fudge.approve(address(zapper), type(uint256).max) */\n  0x44\n  dup1\n  dup5\n  add\n  swap4\n    /* \"contracts/Super-Zap.sol\":16255:16770  constructor(address _zapper, address _fudge, address _straw, address _fudgePair, address _strawPair) public {\r... */\n  swap2\n  swap3\n    /* \"contracts/Super-Zap.sol\":16653:16702  fudge.approve(address(zapper), type(uint256).max) */\n  swap2\n  dup3\n  swap1\n  sub\n  add\n  dup2\n    /* \"contracts/Super-Zap.sol\":16374:16380  zapper */\n  0x00\n    /* \"contracts/Super-Zap.sol\":16653:16658  fudge */\n  dup8\n    /* \"contracts/Super-Zap.sol\":16653:16702  fudge.approve(address(zapper), type(uint256).max) */\n  dup1\n  extcodesize\n  iszero\n  dup1\n  iszero\n  tag_5\n  jumpi\n  0x00\n  dup1\n  revert\ntag_5:\n  pop\n  gas\n  call\n  iszero\n  dup1\n  iszero\n  tag_7\n  jumpi\n  returndatasize\n  0x00\n  dup1\n  returndatacopy\n  revert(0x00, returndatasize)\ntag_7:\n  pop\n  pop\n  pop\n  pop\n  mload(0x40)\n  returndatasize\n  0x20\n  dup2\n  lt\n  iszero\n  tag_8\n  jumpi\n  0x00\n  dup1\n  revert\ntag_8:\n  pop\n  pop\n    /* \"contracts/Super-Zap.sol\":16713:16718  straw */\n  sload(0x03)\n  0x01\n    /* \"contracts/Super-Zap.sol\":16735:16741  zapper */\n  sload\n    /* \"contracts/Super-Zap.sol\":16713:16762  straw.approve(address(zapper), type(uint256).max) */\n  0x40\n  dup1\n  mload\n  shl(0xe0, 0x095ea7b3)\n  dup2\n  mstore\n  sub(shl(0xa0, 0x01), 0x01)\n    /* \"contracts/Super-Zap.sol\":16735:16741  zapper */\n  swap3\n  dup4\n  and\n    /* \"contracts/Super-Zap.sol\":16713:16762  straw.approve(address(zapper), type(uint256).max) */\n  0x04\n  dup3\n  add\n  mstore\n  not(0x00)\n  0x24\n  dup3\n  add\n  mstore\n  swap1\n  mload\n    /* \"contracts/Super-Zap.sol\":16713:16718  straw */\n  swap2\n  swap1\n  swap3\n  and\n  swap2\n    /* \"contracts/Super-Zap.sol\":16713:16726  straw.approve */\n  0x095ea7b3\n  swap2\n    /* \"contracts/Super-Zap.sol\":16713:16762  straw.approve(address(zapper), type(uint256).max) */\n  0x44\n  dup1\n  dup4\n  add\n  swap3\n    /* \"contracts/Super-Zap.sol\":16653:16702  fudge.approve(address(zapper), type(uint256).max) */\n  0x20\n  swap3\n    /* \"contracts/Super-Zap.sol\":16713:16762  straw.approve(address(zapper), type(uint256).max) */\n  swap2\n  swap1\n  dup3\n  swap1\n  sub\n  add\n  dup2\n    /* \"contracts/Super-Zap.sol\":16713:16718  straw */\n  0x00\n  dup8\n    /* \"contracts/Super-Zap.sol\":16713:16762  straw.approve(address(zapper), type(uint256).max) */\n  dup1\n  extcodesize\n  iszero\n  dup1\n  iszero\n  tag_9\n  jumpi\n  0x00\n  dup1\n  revert\ntag_9:\n  pop\n  gas\n  call\n  iszero\n  dup1\n  iszero\n  tag_11\n  jumpi\n  returndatasize\n  0x00\n  dup1\n  returndatacopy\n  revert(0x00, returndatasize)\ntag_11:\n  pop\n  pop\n  pop\n  pop\n  mload(0x40)\n  returndatasize\n  0x20\n  dup2\n  lt\n  iszero\n  tag_12\n  jumpi\n  0x00\n  dup1\n  revert\ntag_12:\n  pop\n  pop\n  pop\n  pop\n  pop\n  pop\n  pop\n    /* \"contracts/Super-Zap.sol\":15881:19227  contract SuperZap is ContractGuard {\r... */\n  dataSize(sub_0)\n  dup1\n  dataOffset(sub_0)\n  0x00\n  codecopy\n  0x00\n  return\nstop\n\nsub_0: assembly {\n        /* \"contracts/Super-Zap.sol\":15881:19227  contract SuperZap is ContractGuard {\r... */\n      mstore(0x40, 0x80)\n      callvalue\n      dup1\n      iszero\n      tag_1\n      jumpi\n      0x00\n      dup1\n      revert\n    tag_1:\n      pop\n      jumpi(tag_2, lt(calldatasize, 0x04))\n      shr(0xe0, calldataload(0x00))\n      dup1\n      0x741aa610\n      gt\n      tag_15\n      jumpi\n      dup1\n      0x741aa610\n      eq\n      tag_9\n      jumpi\n      dup1\n      0x85499cfb\n      eq\n      tag_10\n      jumpi\n      dup1\n      0x984b163e\n      eq\n      tag_11\n      jumpi\n      dup1\n      0xa7a21712\n      eq\n      tag_12\n      jumpi\n      dup1\n      0xb9b5fd07\n      eq\n      tag_13\n      jumpi\n      dup1\n      0xd0318d7e\n      eq\n      tag_14\n      jumpi\n      jump(tag_2)\n    tag_15:\n      dup1\n      0x02c426a8\n      eq\n      tag_3\n      jumpi\n      dup1\n      0x1c15716b\n      eq\n      tag_4\n      jumpi\n      dup1\n      0x4d4af36f\n      eq\n      tag_5\n      jumpi\n      dup1\n      0x51cff8d9\n      eq\n      tag_6\n      jumpi\n      dup1\n      0x570ca735\n      eq\n      tag_7\n      jumpi\n      dup1\n      0x620b2c73\n      eq\n      tag_8\n      jumpi\n    tag_2:\n      0x00\n      dup1\n      revert\n        /* \"contracts/Super-Zap.sol\":16223:16246  uint256 public minFudge */\n    tag_3:\n      tag_16\n      tag_17\n      jump\t// in\n    tag_16:\n      0x40\n      dup1\n      mload\n      swap2\n      dup3\n      mstore\n      mload\n      swap1\n      dup2\n      swap1\n      sub\n      0x20\n      add\n      swap1\n      return\n        /* \"contracts/Super-Zap.sol\":16103:16126  IERC20 public fudgePair */\n    tag_4:\n      tag_18\n      tag_19\n      jump\t// in\n    tag_18:\n      0x40\n      dup1\n      mload\n      sub(shl(0xa0, 0x01), 0x01)\n      swap1\n      swap3\n      and\n      dup3\n      mstore\n      mload\n      swap1\n      dup2\n      swap1\n      sub\n      0x20\n      add\n      swap1\n      return\n        /* \"contracts/Super-Zap.sol\":16912:17059  function setMins(uint256 _minStraw, uint256 _minFudge) external onlyOperator {\r... */\n    tag_5:\n      tag_20\n      0x04\n      dup1\n      calldatasize\n      sub\n      0x40\n      dup2\n      lt\n      iszero\n      tag_21\n      jumpi\n      0x00\n      dup1\n      revert\n    tag_21:\n      pop\n      dup1\n      calldataload\n      swap1\n      0x20\n      add\n      calldataload\n      tag_22\n      jump\t// in\n    tag_20:\n      stop\n        /* \"contracts/Super-Zap.sol\":17211:17481  function withdraw(address asset) external onlyOperator {\r... */\n    tag_6:\n      tag_20\n      0x04\n      dup1\n      calldatasize\n      sub\n      0x20\n      dup2\n      lt\n      iszero\n      tag_24\n      jumpi\n      0x00\n      dup1\n      revert\n    tag_24:\n      pop\n      calldataload\n      sub(shl(0xa0, 0x01), 0x01)\n      and\n      tag_25\n      jump\t// in\n        /* \"contracts/Super-Zap.sol\":16163:16186  address public operator */\n    tag_7:\n      tag_18\n      tag_27\n      jump\t// in\n        /* \"contracts/Super-Zap.sol\":17665:19224  function zapStrategy(address from, uint256 amount, uint256 percentFudgeLP) external returns (uint256, uint256) {\r... */\n    tag_8:\n      tag_28\n      0x04\n      dup1\n      calldatasize\n      sub\n      0x60\n      dup2\n      lt\n      iszero\n      tag_29\n      jumpi\n      0x00\n      dup1\n      revert\n    tag_29:\n      pop\n      sub(shl(0xa0, 0x01), 0x01)\n      dup2\n      calldataload\n      and\n      swap1\n      0x20\n      dup2\n      add\n      calldataload\n      swap1\n      0x40\n      add\n      calldataload\n      tag_30\n      jump\t// in\n    tag_28:\n      0x40\n      dup1\n      mload\n      swap3\n      dup4\n      mstore\n      0x20\n      dup4\n      add\n      swap2\n      swap1\n      swap2\n      mstore\n      dup1\n      mload\n      swap2\n      dup3\n      swap1\n      sub\n      add\n      swap1\n      return\n        /* \"contracts/Super-Zap.sol\":16051:16070  IERC20 public fudge */\n    tag_9:\n      tag_18\n      tag_32\n      jump\t// in\n        /* \"contracts/Super-Zap.sol\":17067:17203  function approveZapper(address asset) external onlyOperator {\r... */\n    tag_10:\n      tag_20\n      0x04\n      dup1\n      calldatasize\n      sub\n      0x20\n      dup2\n      lt\n      iszero\n      tag_34\n      jumpi\n      0x00\n      dup1\n      revert\n    tag_34:\n      pop\n      calldataload\n      sub(shl(0xa0, 0x01), 0x01)\n      and\n      tag_35\n      jump\t// in\n        /* \"contracts/Super-Zap.sol\":16133:16156  IERC20 public strawPair */\n    tag_11:\n      tag_18\n      tag_37\n      jump\t// in\n        /* \"contracts/Super-Zap.sol\":16023:16044  IZapper public zapper */\n    tag_12:\n      tag_18\n      tag_39\n      jump\t// in\n        /* \"contracts/Super-Zap.sol\":16077:16096  IERC20 public straw */\n    tag_13:\n      tag_18\n      tag_41\n      jump\t// in\n        /* \"contracts/Super-Zap.sol\":16193:16216  uint256 public minStraw */\n    tag_14:\n      tag_16\n      tag_43\n      jump\t// in\n        /* \"contracts/Super-Zap.sol\":16223:16246  uint256 public minFudge */\n    tag_17:\n      sload(0x08)\n      dup2\n      jump\t// out\n        /* \"contracts/Super-Zap.sol\":16103:16126  IERC20 public fudgePair */\n    tag_19:\n      and(sub(shl(0xa0, 0x01), 0x01), sload(0x04))\n      dup2\n      jump\t// out\n        /* \"contracts/Super-Zap.sol\":16912:17059  function setMins(uint256 _minStraw, uint256 _minFudge) external onlyOperator {\r... */\n    tag_22:\n        /* \"contracts/Super-Zap.sol\":16821:16829  operator */\n      and(sub(shl(0xa0, 0x01), 0x01), sload(0x06))\n        /* \"contracts/Super-Zap.sol\":16833:16843  msg.sender */\n      caller\n        /* \"contracts/Super-Zap.sol\":16821:16843  operator == msg.sender */\n      eq\n        /* \"contracts/Super-Zap.sol\":16813:16884  require(operator == msg.sender, \"SuperZap: caller is not the operator\") */\n      tag_45\n      jumpi\n      mload(0x40)\n      shl(0xe5, 0x461bcd)\n      dup2\n      mstore\n      0x04\n      add\n      dup1\n      dup1\n      0x20\n      add\n      dup3\n      dup2\n      sub\n      dup3\n      mstore\n      0x24\n      dup2\n      mstore\n      0x20\n      add\n      dup1\n      data_40960c214819ead63fefdd8daacedc8ff37ea1cb3d93ededabce0e8931268929\n      0x24\n      swap2\n      codecopy\n      0x40\n      add\n      swap2\n      pop\n      pop\n      mload(0x40)\n      dup1\n      swap2\n      sub\n      swap1\n      revert\n    tag_45:\n        /* \"contracts/Super-Zap.sol\":17000:17008  minStraw */\n      0x07\n        /* \"contracts/Super-Zap.sol\":17000:17020  minStraw = _minStraw */\n      swap2\n      swap1\n      swap2\n      sstore\n        /* \"contracts/Super-Zap.sol\":17031:17039  minFudge */\n      0x08\n        /* \"contracts/Super-Zap.sol\":17031:17051  minFudge = _minFudge */\n      sstore\n        /* \"contracts/Super-Zap.sol\":16912:17059  function setMins(uint256 _minStraw, uint256 _minFudge) external onlyOperator {\r... */\n      jump\t// out\n        /* \"contracts/Super-Zap.sol\":17211:17481  function withdraw(address asset) external onlyOperator {\r... */\n    tag_25:\n        /* \"contracts/Super-Zap.sol\":16821:16829  operator */\n      and(sub(shl(0xa0, 0x01), 0x01), sload(0x06))\n        /* \"contracts/Super-Zap.sol\":16833:16843  msg.sender */\n      caller\n        /* \"contracts/Super-Zap.sol\":16821:16843  operator == msg.sender */\n      eq\n        /* \"contracts/Super-Zap.sol\":16813:16884  require(operator == msg.sender, \"SuperZap: caller is not the operator\") */\n      tag_48\n      jumpi\n      mload(0x40)\n      shl(0xe5, 0x461bcd)\n      dup2\n      mstore\n      0x04\n      add\n      dup1\n      dup1\n      0x20\n      add\n      dup3\n      dup2\n      sub\n      dup3\n      mstore\n      0x24\n      dup2\n      mstore\n      0x20\n      add\n      dup1\n      data_40960c214819ead63fefdd8daacedc8ff37ea1cb3d93ededabce0e8931268929\n      0x24\n      swap2\n      codecopy\n      0x40\n      add\n      swap2\n      pop\n      pop\n      mload(0x40)\n      dup1\n      swap2\n      sub\n      swap1\n      revert\n    tag_48:\n      sub(shl(0xa0, 0x01), 0x01)\n        /* \"contracts/Super-Zap.sol\":17281:17300  asset != address(0) */\n      dup2\n      and\n      iszero\n        /* \"contracts/Super-Zap.sol\":17277:17473  if (asset != address(0))\r... */\n      tag_50\n      jumpi\n        /* \"contracts/Super-Zap.sol\":17315:17393  IERC20(asset).safeTransfer(msg.sender, IERC20(asset).balanceOf(address(this))) */\n      tag_51\n        /* \"contracts/Super-Zap.sol\":17342:17352  msg.sender */\n      caller\n        /* \"contracts/Super-Zap.sol\":17361:17366  asset */\n      dup3\n      sub(shl(0xa0, 0x01), 0x01)\n        /* \"contracts/Super-Zap.sol\":17354:17377  IERC20(asset).balanceOf */\n      and\n      0x70a08231\n        /* \"contracts/Super-Zap.sol\":17386:17390  this */\n      address\n        /* \"contracts/Super-Zap.sol\":17354:17392  IERC20(asset).balanceOf(address(this)) */\n      mload(0x40)\n      dup3\n      0xffffffff\n      and\n      0xe0\n      shl\n      dup2\n      mstore\n      0x04\n      add\n      dup1\n      dup3\n      sub(shl(0xa0, 0x01), 0x01)\n      and\n      dup2\n      mstore\n      0x20\n      add\n      swap2\n      pop\n      pop\n      0x20\n      mload(0x40)\n      dup1\n      dup4\n      sub\n      dup2\n      dup7\n      dup1\n      extcodesize\n      iszero\n      dup1\n      iszero\n      tag_52\n      jumpi\n      0x00\n      dup1\n      revert\n    tag_52:\n      pop\n      gas\n      staticcall\n      iszero\n      dup1\n      iszero\n      tag_54\n      jumpi\n      returndatasize\n      0x00\n      dup1\n      returndatacopy\n      revert(0x00, returndatasize)\n    tag_54:\n      pop\n      pop\n      pop\n      pop\n      mload(0x40)\n      returndatasize\n      0x20\n      dup2\n      lt\n      iszero\n      tag_55\n      jumpi\n      0x00\n      dup1\n      revert\n    tag_55:\n      pop\n      mload\n      sub(shl(0xa0, 0x01), 0x01)\n        /* \"contracts/Super-Zap.sol\":17315:17341  IERC20(asset).safeTransfer */\n      dup5\n      and\n      swap2\n        /* \"contracts/Super-Zap.sol\":17315:17393  IERC20(asset).safeTransfer(msg.sender, IERC20(asset).balanceOf(address(this))) */\n      swap1\n        /* \"contracts/Super-Zap.sol\":17315:17341  IERC20(asset).safeTransfer */\n      tag_56\n        /* \"contracts/Super-Zap.sol\":17315:17393  IERC20(asset).safeTransfer(msg.sender, IERC20(asset).balanceOf(address(this))) */\n      jump\t// in\n    tag_51:\n        /* \"contracts/Super-Zap.sol\":17277:17473  if (asset != address(0))\r... */\n      jump(tag_57)\n    tag_50:\n        /* \"contracts/Super-Zap.sol\":17422:17473  payable(msg.sender).transfer(address(this).balance) */\n      mload(0x40)\n        /* \"contracts/Super-Zap.sol\":17430:17440  msg.sender */\n      caller\n      swap1\n        /* \"contracts/Super-Zap.sol\":17451:17472  address(this).balance */\n      selfbalance\n        /* \"contracts/Super-Zap.sol\":17422:17473  payable(msg.sender).transfer(address(this).balance) */\n      dup1\n      iszero\n      0x08fc\n      mul\n      swap2\n      0x00\n      dup2\n      dup2\n      dup2\n        /* \"contracts/Super-Zap.sol\":17451:17472  address(this).balance */\n      dup6\n        /* \"contracts/Super-Zap.sol\":17430:17440  msg.sender */\n      dup9\n        /* \"contracts/Super-Zap.sol\":17422:17473  payable(msg.sender).transfer(address(this).balance) */\n      dup9\n      call\n      swap4\n      pop\n      pop\n      pop\n      pop\n      iszero\n      dup1\n      iszero\n      tag_59\n      jumpi\n      returndatasize\n      0x00\n      dup1\n      returndatacopy\n      revert(0x00, returndatasize)\n    tag_59:\n      pop\n        /* \"contracts/Super-Zap.sol\":17277:17473  if (asset != address(0))\r... */\n    tag_57:\n        /* \"contracts/Super-Zap.sol\":17211:17481  function withdraw(address asset) external onlyOperator {\r... */\n      pop\n      jump\t// out\n        /* \"contracts/Super-Zap.sol\":16163:16186  address public operator */\n    tag_27:\n      and(sub(shl(0xa0, 0x01), 0x01), sload(0x06))\n      dup2\n      jump\t// out\n        /* \"contracts/Super-Zap.sol\":17665:19224  function zapStrategy(address from, uint256 amount, uint256 percentFudgeLP) external returns (uint256, uint256) {\r... */\n    tag_30:\n        /* \"contracts/Super-Zap.sol\":17758:17765  uint256 */\n      0x00\n        /* \"contracts/Super-Zap.sol\":17767:17774  uint256 */\n      dup1\n        /* \"contracts/Super-Zap.sol\":17813:17816  100 */\n      0x64\n        /* \"contracts/Super-Zap.sol\":17795:17809  percentFudgeLP */\n      dup4\n        /* \"contracts/Super-Zap.sol\":17795:17816  percentFudgeLP <= 100 */\n      gt\n      iszero\n        /* \"contracts/Super-Zap.sol\":17787:17849  require(percentFudgeLP <= 100, \"Invalid FUDGE-DAI-LP percent\") */\n      tag_61\n      jumpi\n      0x40\n      dup1\n      mload\n      shl(0xe5, 0x461bcd)\n      dup2\n      mstore\n      0x20\n      0x04\n      dup3\n      add\n      mstore\n      0x1c\n      0x24\n      dup3\n      add\n      mstore\n      0x496e76616c69642046554447452d4441492d4c502070657263656e7400000000\n      0x44\n      dup3\n      add\n      mstore\n      swap1\n      mload\n      swap1\n      dup2\n      swap1\n      sub\n      0x64\n      add\n      swap1\n      revert\n    tag_61:\n        /* \"contracts/Super-Zap.sol\":17906:17912  amount */\n      dup4\n        /* \"contracts/Super-Zap.sol\":17875:17879  from */\n      dup6\n      sub(shl(0xa0, 0x01), 0x01)\n        /* \"contracts/Super-Zap.sol\":17868:17890  IERC20(from).balanceOf */\n      and\n      0x70a08231\n        /* \"contracts/Super-Zap.sol\":17891:17901  msg.sender */\n      caller\n        /* \"contracts/Super-Zap.sol\":17868:17902  IERC20(from).balanceOf(msg.sender) */\n      mload(0x40)\n      dup3\n      0xffffffff\n      and\n      0xe0\n      shl\n      dup2\n      mstore\n      0x04\n      add\n      dup1\n      dup3\n      sub(shl(0xa0, 0x01), 0x01)\n      and\n      dup2\n      mstore\n      0x20\n      add\n      swap2\n      pop\n      pop\n      0x20\n      mload(0x40)\n      dup1\n      dup4\n      sub\n      dup2\n      dup7\n      dup1\n      extcodesize\n      iszero\n      dup1\n      iszero\n      tag_62\n      jumpi\n      0x00\n      dup1\n      revert\n    tag_62:\n      pop\n      gas\n      staticcall\n      iszero\n      dup1\n      iszero\n      tag_64\n      jumpi\n      returndatasize\n      0x00\n      dup1\n      returndatacopy\n      revert(0x00, returndatasize)\n    tag_64:\n      pop\n      pop\n      pop\n      pop\n      mload(0x40)\n      returndatasize\n      0x20\n      dup2\n      lt\n      iszero\n      tag_65\n      jumpi\n      0x00\n      dup1\n      revert\n    tag_65:\n      pop\n      mload\n        /* \"contracts/Super-Zap.sol\":17868:17912  IERC20(from).balanceOf(msg.sender) >= amount */\n      lt\n      iszero\n        /* \"contracts/Super-Zap.sol\":17860:17937  require(IERC20(from).balanceOf(msg.sender) >= amount, \"Insufficient balance\") */\n      tag_66\n      jumpi\n      0x40\n      dup1\n      mload\n      shl(0xe5, 0x461bcd)\n      dup2\n      mstore\n      0x20\n      0x04\n      dup3\n      add\n      mstore\n      0x14\n      0x24\n      dup3\n      add\n      mstore\n      shl(0x60, 0x496e73756666696369656e742062616c616e6365)\n      0x44\n      dup3\n      add\n      mstore\n      swap1\n      mload\n      swap1\n      dup2\n      swap1\n      sub\n      0x64\n      add\n      swap1\n      revert\n    tag_66:\n        /* \"contracts/Super-Zap.sol\":17948:18012  IERC20(from).safeTransferFrom(msg.sender, address(this), amount) */\n      tag_67\n      sub(shl(0xa0, 0x01), 0x01)\n        /* \"contracts/Super-Zap.sol\":17948:17977  IERC20(from).safeTransferFrom */\n      dup7\n      and\n        /* \"contracts/Super-Zap.sol\":17978:17988  msg.sender */\n      caller\n        /* \"contracts/Super-Zap.sol\":17998:18002  this */\n      address\n        /* \"contracts/Super-Zap.sol\":18005:18011  amount */\n      dup8\n        /* \"contracts/Super-Zap.sol\":17948:17977  IERC20(from).safeTransferFrom */\n      tag_68\n        /* \"contracts/Super-Zap.sol\":17948:18012  IERC20(from).safeTransferFrom(msg.sender, address(this), amount) */\n      jump\t// in\n    tag_67:\n        /* \"contracts/Super-Zap.sol\":18025:18048  uint256 amountFudgePair */\n      0x00\n        /* \"contracts/Super-Zap.sol\":18068:18071  100 */\n      0x64\n        /* \"contracts/Super-Zap.sol\":18051:18065  percentFudgeLP */\n      dup5\n        /* \"contracts/Super-Zap.sol\":18051:18071  percentFudgeLP < 100 */\n      lt\n        /* \"contracts/Super-Zap.sol\":18051:18118  percentFudgeLP < 100 ? amount.mul(percentFudgeLP).div(100) : amount */\n      tag_69\n      jumpi\n        /* \"contracts/Super-Zap.sol\":18112:18118  amount */\n      dup5\n        /* \"contracts/Super-Zap.sol\":18051:18118  percentFudgeLP < 100 ? amount.mul(percentFudgeLP).div(100) : amount */\n      jump(tag_71)\n    tag_69:\n        /* \"contracts/Super-Zap.sol\":18074:18109  amount.mul(percentFudgeLP).div(100) */\n      tag_71\n        /* \"contracts/Super-Zap.sol\":18105:18108  100 */\n      0x64\n        /* \"contracts/Super-Zap.sol\":18074:18100  amount.mul(percentFudgeLP) */\n      tag_72\n        /* \"contracts/Super-Zap.sol\":18074:18080  amount */\n      dup8\n        /* \"contracts/Super-Zap.sol\":18085:18099  percentFudgeLP */\n      dup8\n        /* \"contracts/Super-Zap.sol\":18074:18084  amount.mul */\n      tag_73\n        /* \"contracts/Super-Zap.sol\":18074:18100  amount.mul(percentFudgeLP) */\n      jump\t// in\n    tag_72:\n        /* \"contracts/Super-Zap.sol\":18074:18104  amount.mul(percentFudgeLP).div */\n      swap1\n      tag_74\n        /* \"contracts/Super-Zap.sol\":18074:18109  amount.mul(percentFudgeLP).div(100) */\n      jump\t// in\n    tag_71:\n        /* \"contracts/Super-Zap.sol\":18025:18118  uint256 amountFudgePair = percentFudgeLP < 100 ? amount.mul(percentFudgeLP).div(100) : amount */\n      swap1\n      pop\n        /* \"contracts/Super-Zap.sol\":18129:18152  uint256 amountStrawPair */\n      0x00\n        /* \"contracts/Super-Zap.sol\":18155:18182  amount.sub(amountFudgePair) */\n      tag_75\n        /* \"contracts/Super-Zap.sol\":18155:18161  amount */\n      dup7\n        /* \"contracts/Super-Zap.sol\":18025:18118  uint256 amountFudgePair = percentFudgeLP < 100 ? amount.mul(percentFudgeLP).div(100) : amount */\n      dup4\n        /* \"contracts/Super-Zap.sol\":18155:18165  amount.sub */\n      tag_76\n        /* \"contracts/Super-Zap.sol\":18155:18182  amount.sub(amountFudgePair) */\n      jump\t// in\n    tag_75:\n        /* \"contracts/Super-Zap.sol\":18217:18226  fudgePair */\n      0x04\n      dup1\n      sload\n        /* \"contracts/Super-Zap.sol\":18217:18251  fudgePair.balanceOf(address(this)) */\n      0x40\n      dup1\n      mload\n      shl(0xe0, 0x70a08231)\n      dup2\n      mstore\n        /* \"contracts/Super-Zap.sol\":18245:18249  this */\n      address\n        /* \"contracts/Super-Zap.sol\":18217:18251  fudgePair.balanceOf(address(this)) */\n      swap4\n      dup2\n      add\n      swap4\n      swap1\n      swap4\n      mstore\n      mload\n        /* \"contracts/Super-Zap.sol\":18129:18182  uint256 amountStrawPair = amount.sub(amountFudgePair) */\n      swap3\n      swap4\n      pop\n        /* \"contracts/Super-Zap.sol\":18195:18214  uint256 prevFudgeLP */\n      0x00\n      swap3\n      sub(shl(0xa0, 0x01), 0x01)\n        /* \"contracts/Super-Zap.sol\":18217:18226  fudgePair */\n      swap1\n      swap2\n      and\n      swap2\n        /* \"contracts/Super-Zap.sol\":18217:18236  fudgePair.balanceOf */\n      0x70a08231\n      swap2\n        /* \"contracts/Super-Zap.sol\":18217:18251  fudgePair.balanceOf(address(this)) */\n      0x24\n      dup1\n      dup4\n      add\n      swap3\n      0x20\n      swap3\n      swap2\n      swap1\n      dup3\n      swap1\n      sub\n      add\n      dup2\n        /* \"contracts/Super-Zap.sol\":18217:18226  fudgePair */\n      dup7\n        /* \"contracts/Super-Zap.sol\":18217:18251  fudgePair.balanceOf(address(this)) */\n      dup1\n      extcodesize\n      iszero\n      dup1\n      iszero\n      tag_77\n      jumpi\n      0x00\n      dup1\n      revert\n    tag_77:\n      pop\n      gas\n      staticcall\n      iszero\n      dup1\n      iszero\n      tag_79\n      jumpi\n      returndatasize\n      0x00\n      dup1\n      returndatacopy\n      revert(0x00, returndatasize)\n    tag_79:\n      pop\n      pop\n      pop\n      pop\n      mload(0x40)\n      returndatasize\n      0x20\n      dup2\n      lt\n      iszero\n      tag_80\n      jumpi\n      0x00\n      dup1\n      revert\n    tag_80:\n      pop\n      mload\n        /* \"contracts/Super-Zap.sol\":18284:18293  strawPair */\n      sload(0x05)\n        /* \"contracts/Super-Zap.sol\":18284:18318  strawPair.balanceOf(address(this)) */\n      0x40\n      dup1\n      mload\n      shl(0xe0, 0x70a08231)\n      dup2\n      mstore\n        /* \"contracts/Super-Zap.sol\":18312:18316  this */\n      address\n        /* \"contracts/Super-Zap.sol\":18284:18318  strawPair.balanceOf(address(this)) */\n      0x04\n      dup3\n      add\n      mstore\n      swap1\n      mload\n        /* \"contracts/Super-Zap.sol\":18217:18251  fudgePair.balanceOf(address(this)) */\n      swap3\n      swap4\n      pop\n        /* \"contracts/Super-Zap.sol\":18262:18281  uint256 prevStrawLP */\n      0x00\n      swap3\n      sub(shl(0xa0, 0x01), 0x01)\n        /* \"contracts/Super-Zap.sol\":18284:18293  strawPair */\n      swap1\n      swap3\n      and\n      swap2\n        /* \"contracts/Super-Zap.sol\":18284:18303  strawPair.balanceOf */\n      0x70a08231\n      swap2\n        /* \"contracts/Super-Zap.sol\":18284:18318  strawPair.balanceOf(address(this)) */\n      0x24\n      dup1\n      dup3\n      add\n      swap3\n        /* \"contracts/Super-Zap.sol\":18217:18251  fudgePair.balanceOf(address(this)) */\n      0x20\n      swap3\n        /* \"contracts/Super-Zap.sol\":18284:18318  strawPair.balanceOf(address(this)) */\n      swap1\n      swap2\n      swap1\n      dup3\n      swap1\n      sub\n      add\n      dup2\n        /* \"contracts/Super-Zap.sol\":18284:18293  strawPair */\n      dup7\n        /* \"contracts/Super-Zap.sol\":18284:18318  strawPair.balanceOf(address(this)) */\n      dup1\n      extcodesize\n      iszero\n      dup1\n      iszero\n      tag_81\n      jumpi\n      0x00\n      dup1\n      revert\n    tag_81:\n      pop\n      gas\n      staticcall\n      iszero\n      dup1\n      iszero\n      tag_83\n      jumpi\n      returndatasize\n      0x00\n      dup1\n      returndatacopy\n      revert(0x00, returndatasize)\n    tag_83:\n      pop\n      pop\n      pop\n      pop\n      mload(0x40)\n      returndatasize\n      0x20\n      dup2\n      lt\n      iszero\n      tag_84\n      jumpi\n      0x00\n      dup1\n      revert\n    tag_84:\n      pop\n      mload\n      swap1\n      pop\n        /* \"contracts/Super-Zap.sol\":18343:18375  _checkMin(from, amountFudgePair) */\n      tag_85\n        /* \"contracts/Super-Zap.sol\":18353:18357  from */\n      dup10\n        /* \"contracts/Super-Zap.sol\":18359:18374  amountFudgePair */\n      dup6\n        /* \"contracts/Super-Zap.sol\":18343:18352  _checkMin */\n      tag_86\n        /* \"contracts/Super-Zap.sol\":18343:18375  _checkMin(from, amountFudgePair) */\n      jump\t// in\n    tag_85:\n        /* \"contracts/Super-Zap.sol\":18339:18553  if (_checkMin(from, amountFudgePair)) {\r... */\n      iszero\n      tag_87\n      jumpi\n        /* \"contracts/Super-Zap.sol\":18392:18398  zapper */\n      sload(0x01)\n        /* \"contracts/Super-Zap.sol\":18443:18452  fudgePair */\n      0x04\n      dup1\n      sload\n        /* \"contracts/Super-Zap.sol\":18392:18454  zapper.zapTokenToLP(from, amountFudgePair, address(fudgePair)) */\n      0x40\n      dup1\n      mload\n      shl(0xe0, 0x84767627)\n      dup2\n      mstore\n      sub(shl(0xa0, 0x01), 0x01)\n      dup15\n      dup2\n      and\n      swap5\n      dup3\n      add\n      swap5\n      swap1\n      swap5\n      mstore\n      0x24\n      dup2\n      add\n      dup10\n      swap1\n      mstore\n        /* \"contracts/Super-Zap.sol\":18443:18452  fudgePair */\n      swap2\n      dup4\n      and\n        /* \"contracts/Super-Zap.sol\":18392:18454  zapper.zapTokenToLP(from, amountFudgePair, address(fudgePair)) */\n      0x44\n      dup4\n      add\n      mstore\n      mload\n        /* \"contracts/Super-Zap.sol\":18392:18398  zapper */\n      swap2\n      swap1\n      swap3\n      and\n      swap2\n        /* \"contracts/Super-Zap.sol\":18392:18411  zapper.zapTokenToLP */\n      0x84767627\n      swap2\n        /* \"contracts/Super-Zap.sol\":18392:18454  zapper.zapTokenToLP(from, amountFudgePair, address(fudgePair)) */\n      0x64\n      dup1\n      dup4\n      add\n      swap3\n        /* \"contracts/Super-Zap.sol\":18392:18398  zapper */\n      0x00\n      swap3\n        /* \"contracts/Super-Zap.sol\":18392:18454  zapper.zapTokenToLP(from, amountFudgePair, address(fudgePair)) */\n      swap2\n      swap1\n      dup3\n      swap1\n      sub\n      add\n      dup2\n        /* \"contracts/Super-Zap.sol\":18392:18398  zapper */\n      dup4\n      dup8\n        /* \"contracts/Super-Zap.sol\":18392:18454  zapper.zapTokenToLP(from, amountFudgePair, address(fudgePair)) */\n      dup1\n      extcodesize\n      iszero\n      dup1\n      iszero\n      tag_88\n      jumpi\n      0x00\n      dup1\n      revert\n    tag_88:\n      pop\n      gas\n      call\n      iszero\n      dup1\n      iszero\n      tag_90\n      jumpi\n      returndatasize\n      0x00\n      dup1\n      returndatacopy\n      revert(0x00, returndatasize)\n    tag_90:\n      pop\n      pop\n      pop\n      pop\n        /* \"contracts/Super-Zap.sol\":18339:18553  if (_checkMin(from, amountFudgePair)) {\r... */\n      jump(tag_92)\n    tag_87:\n        /* \"contracts/Super-Zap.sol\":18487:18541  IERC20(from).safeTransfer(msg.sender, amountFudgePair) */\n      tag_92\n      sub(shl(0xa0, 0x01), 0x01)\n        /* \"contracts/Super-Zap.sol\":18487:18512  IERC20(from).safeTransfer */\n      dup11\n      and\n        /* \"contracts/Super-Zap.sol\":18513:18523  msg.sender */\n      caller\n        /* \"contracts/Super-Zap.sol\":18525:18540  amountFudgePair */\n      dup7\n        /* \"contracts/Super-Zap.sol\":18487:18512  IERC20(from).safeTransfer */\n      tag_56\n        /* \"contracts/Super-Zap.sol\":18487:18541  IERC20(from).safeTransfer(msg.sender, amountFudgePair) */\n      jump\t// in\n    tag_92:\n        /* \"contracts/Super-Zap.sol\":18567:18599  _checkMin(from, amountStrawPair) */\n      tag_93\n        /* \"contracts/Super-Zap.sol\":18577:18581  from */\n      dup10\n        /* \"contracts/Super-Zap.sol\":18583:18598  amountStrawPair */\n      dup5\n        /* \"contracts/Super-Zap.sol\":18567:18576  _checkMin */\n      tag_86\n        /* \"contracts/Super-Zap.sol\":18567:18599  _checkMin(from, amountStrawPair) */\n      jump\t// in\n    tag_93:\n        /* \"contracts/Super-Zap.sol\":18563:18777  if (_checkMin(from, amountStrawPair)) {\r... */\n      iszero\n      tag_94\n      jumpi\n        /* \"contracts/Super-Zap.sol\":18616:18622  zapper */\n      sload(0x01)\n        /* \"contracts/Super-Zap.sol\":18667:18676  strawPair */\n      sload(0x05)\n        /* \"contracts/Super-Zap.sol\":18616:18678  zapper.zapTokenToLP(from, amountStrawPair, address(strawPair)) */\n      0x40\n      dup1\n      mload\n      shl(0xe0, 0x84767627)\n      dup2\n      mstore\n      sub(shl(0xa0, 0x01), 0x01)\n      dup14\n      dup2\n      and\n      0x04\n      dup4\n      add\n      mstore\n      0x24\n      dup3\n      add\n      dup9\n      swap1\n      mstore\n        /* \"contracts/Super-Zap.sol\":18667:18676  strawPair */\n      swap3\n      dup4\n      and\n        /* \"contracts/Super-Zap.sol\":18616:18678  zapper.zapTokenToLP(from, amountStrawPair, address(strawPair)) */\n      0x44\n      dup3\n      add\n      mstore\n      swap1\n      mload\n        /* \"contracts/Super-Zap.sol\":18616:18622  zapper */\n      swap2\n      swap1\n      swap3\n      and\n      swap2\n        /* \"contracts/Super-Zap.sol\":18616:18635  zapper.zapTokenToLP */\n      0x84767627\n      swap2\n        /* \"contracts/Super-Zap.sol\":18616:18678  zapper.zapTokenToLP(from, amountStrawPair, address(strawPair)) */\n      0x64\n      dup1\n      dup4\n      add\n      swap3\n        /* \"contracts/Super-Zap.sol\":18616:18622  zapper */\n      0x00\n      swap3\n        /* \"contracts/Super-Zap.sol\":18616:18678  zapper.zapTokenToLP(from, amountStrawPair, address(strawPair)) */\n      swap2\n      swap1\n      dup3\n      swap1\n      sub\n      add\n      dup2\n        /* \"contracts/Super-Zap.sol\":18616:18622  zapper */\n      dup4\n      dup8\n        /* \"contracts/Super-Zap.sol\":18616:18678  zapper.zapTokenToLP(from, amountStrawPair, address(strawPair)) */\n      dup1\n      extcodesize\n      iszero\n      dup1\n      iszero\n      tag_95\n      jumpi\n      0x00\n      dup1\n      revert\n    tag_95:\n      pop\n      gas\n      call\n      iszero\n      dup1\n      iszero\n      tag_97\n      jumpi\n      returndatasize\n      0x00\n      dup1\n      returndatacopy\n      revert(0x00, returndatasize)\n    tag_97:\n      pop\n      pop\n      pop\n      pop\n        /* \"contracts/Super-Zap.sol\":18563:18777  if (_checkMin(from, amountStrawPair)) {\r... */\n      jump(tag_99)\n    tag_94:\n        /* \"contracts/Super-Zap.sol\":18711:18765  IERC20(from).safeTransfer(msg.sender, amountStrawPair) */\n      tag_99\n      sub(shl(0xa0, 0x01), 0x01)\n        /* \"contracts/Super-Zap.sol\":18711:18736  IERC20(from).safeTransfer */\n      dup11\n      and\n        /* \"contracts/Super-Zap.sol\":18737:18747  msg.sender */\n      caller\n        /* \"contracts/Super-Zap.sol\":18749:18764  amountStrawPair */\n      dup6\n        /* \"contracts/Super-Zap.sol\":18711:18736  IERC20(from).safeTransfer */\n      tag_56\n        /* \"contracts/Super-Zap.sol\":18711:18765  IERC20(from).safeTransfer(msg.sender, amountStrawPair) */\n      jump\t// in\n    tag_99:\n        /* \"contracts/Super-Zap.sol\":18813:18822  fudgePair */\n      0x04\n      dup1\n      sload\n        /* \"contracts/Super-Zap.sol\":18813:18847  fudgePair.balanceOf(address(this)) */\n      0x40\n      dup1\n      mload\n      shl(0xe0, 0x70a08231)\n      dup2\n      mstore\n        /* \"contracts/Super-Zap.sol\":18841:18845  this */\n      address\n        /* \"contracts/Super-Zap.sol\":18813:18847  fudgePair.balanceOf(address(this)) */\n      swap4\n      dup2\n      add\n      swap4\n      swap1\n      swap4\n      mstore\n      mload\n        /* \"contracts/Super-Zap.sol\":18789:18810  uint256 zappedFudgeLP */\n      0x00\n      swap3\n        /* \"contracts/Super-Zap.sol\":18813:18864  fudgePair.balanceOf(address(this)).sub(prevFudgeLP) */\n      tag_100\n      swap3\n        /* \"contracts/Super-Zap.sol\":18852:18863  prevFudgeLP */\n      dup7\n      swap3\n      sub(shl(0xa0, 0x01), 0x01)\n        /* \"contracts/Super-Zap.sol\":18813:18822  fudgePair */\n      swap1\n      swap2\n      and\n      swap2\n        /* \"contracts/Super-Zap.sol\":18813:18832  fudgePair.balanceOf */\n      0x70a08231\n      swap2\n        /* \"contracts/Super-Zap.sol\":18813:18847  fudgePair.balanceOf(address(this)) */\n      0x24\n      dup1\n      dup4\n      add\n      swap3\n      0x20\n      swap3\n      swap2\n      swap1\n      dup3\n      swap1\n      sub\n      add\n      dup2\n        /* \"contracts/Super-Zap.sol\":18813:18822  fudgePair */\n      dup7\n        /* \"contracts/Super-Zap.sol\":18813:18847  fudgePair.balanceOf(address(this)) */\n      dup1\n      extcodesize\n      iszero\n      dup1\n      iszero\n      tag_101\n      jumpi\n      0x00\n      dup1\n      revert\n    tag_101:\n      pop\n      gas\n      staticcall\n      iszero\n      dup1\n      iszero\n      tag_103\n      jumpi\n      returndatasize\n      0x00\n      dup1\n      returndatacopy\n      revert(0x00, returndatasize)\n    tag_103:\n      pop\n      pop\n      pop\n      pop\n      mload(0x40)\n      returndatasize\n      0x20\n      dup2\n      lt\n      iszero\n      tag_104\n      jumpi\n      0x00\n      dup1\n      revert\n    tag_104:\n      pop\n      mload\n      swap1\n        /* \"contracts/Super-Zap.sol\":18813:18851  fudgePair.balanceOf(address(this)).sub */\n      tag_76\n        /* \"contracts/Super-Zap.sol\":18813:18864  fudgePair.balanceOf(address(this)).sub(prevFudgeLP) */\n      jump\t// in\n    tag_100:\n        /* \"contracts/Super-Zap.sol\":18899:18908  strawPair */\n      sload(0x05)\n        /* \"contracts/Super-Zap.sol\":18899:18933  strawPair.balanceOf(address(this)) */\n      0x40\n      dup1\n      mload\n      shl(0xe0, 0x70a08231)\n      dup2\n      mstore\n        /* \"contracts/Super-Zap.sol\":18927:18931  this */\n      address\n        /* \"contracts/Super-Zap.sol\":18899:18933  strawPair.balanceOf(address(this)) */\n      0x04\n      dup3\n      add\n      mstore\n      swap1\n      mload\n        /* \"contracts/Super-Zap.sol\":18789:18864  uint256 zappedFudgeLP = fudgePair.balanceOf(address(this)).sub(prevFudgeLP) */\n      swap3\n      swap4\n      pop\n        /* \"contracts/Super-Zap.sol\":18875:18896  uint256 zappedStrawLP */\n      0x00\n      swap3\n        /* \"contracts/Super-Zap.sol\":18899:18950  strawPair.balanceOf(address(this)).sub(prevStrawLP) */\n      tag_105\n      swap3\n        /* \"contracts/Super-Zap.sol\":18938:18949  prevStrawLP */\n      dup7\n      swap3\n      sub(shl(0xa0, 0x01), 0x01)\n        /* \"contracts/Super-Zap.sol\":18899:18908  strawPair */\n      swap1\n      swap2\n      and\n      swap2\n        /* \"contracts/Super-Zap.sol\":18899:18918  strawPair.balanceOf */\n      0x70a08231\n      swap2\n        /* \"contracts/Super-Zap.sol\":18899:18933  strawPair.balanceOf(address(this)) */\n      0x24\n      dup1\n      dup3\n      add\n      swap3\n      0x20\n      swap3\n      swap1\n      swap2\n      swap1\n      dup3\n      swap1\n      sub\n      add\n      dup2\n        /* \"contracts/Super-Zap.sol\":18899:18908  strawPair */\n      dup7\n        /* \"contracts/Super-Zap.sol\":18899:18933  strawPair.balanceOf(address(this)) */\n      dup1\n      extcodesize\n      iszero\n      dup1\n      iszero\n      tag_101\n      jumpi\n      0x00\n      dup1\n      revert\n        /* \"contracts/Super-Zap.sol\":18899:18950  strawPair.balanceOf(address(this)).sub(prevStrawLP) */\n    tag_105:\n        /* \"contracts/Super-Zap.sol\":18875:18950  uint256 zappedStrawLP = strawPair.balanceOf(address(this)).sub(prevStrawLP) */\n      swap1\n      pop\n        /* \"contracts/Super-Zap.sol\":18975:18992  zappedFudgeLP > 0 */\n      dup2\n      iszero\n        /* \"contracts/Super-Zap.sol\":18971:19057  if (zappedFudgeLP > 0)\r... */\n      tag_111\n      jumpi\n        /* \"contracts/Super-Zap.sol\":19007:19016  fudgePair */\n      sload(0x04)\n        /* \"contracts/Super-Zap.sol\":19007:19057  fudgePair.safeTransfer(msg.sender,  zappedFudgeLP) */\n      tag_111\n      swap1\n      sub(shl(0xa0, 0x01), 0x01)\n        /* \"contracts/Super-Zap.sol\":19007:19016  fudgePair */\n      and\n        /* \"contracts/Super-Zap.sol\":19030:19040  msg.sender */\n      caller\n        /* \"contracts/Super-Zap.sol\":19043:19056  zappedFudgeLP */\n      dup5\n        /* \"contracts/Super-Zap.sol\":19007:19029  fudgePair.safeTransfer */\n      tag_56\n        /* \"contracts/Super-Zap.sol\":19007:19057  fudgePair.safeTransfer(msg.sender,  zappedFudgeLP) */\n      jump\t// in\n    tag_111:\n        /* \"contracts/Super-Zap.sol\":19072:19089  zappedStrawLP > 0 */\n      dup1\n      iszero\n        /* \"contracts/Super-Zap.sol\":19068:19154  if (zappedStrawLP > 0)\r... */\n      tag_113\n      jumpi\n        /* \"contracts/Super-Zap.sol\":19104:19113  strawPair */\n      sload(0x05)\n        /* \"contracts/Super-Zap.sol\":19104:19154  strawPair.safeTransfer(msg.sender,  zappedStrawLP) */\n      tag_113\n      swap1\n      sub(shl(0xa0, 0x01), 0x01)\n        /* \"contracts/Super-Zap.sol\":19104:19113  strawPair */\n      and\n        /* \"contracts/Super-Zap.sol\":19127:19137  msg.sender */\n      caller\n        /* \"contracts/Super-Zap.sol\":19140:19153  zappedStrawLP */\n      dup4\n        /* \"contracts/Super-Zap.sol\":19104:19126  strawPair.safeTransfer */\n      tag_56\n        /* \"contracts/Super-Zap.sol\":19104:19154  strawPair.safeTransfer(msg.sender,  zappedStrawLP) */\n      jump\t// in\n    tag_113:\n        /* \"contracts/Super-Zap.sol\":19187:19200  zappedFudgeLP */\n      swap1\n      swap11\n      swap1\n      swap10\n      pop\n        /* \"contracts/Super-Zap.sol\":17665:19224  function zapStrategy(address from, uint256 amount, uint256 percentFudgeLP) external returns (uint256, uint256) {\r... */\n      swap8\n      pop\n      pop\n      pop\n      pop\n      pop\n      pop\n      pop\n      pop\n      jump\t// out\n        /* \"contracts/Super-Zap.sol\":16051:16070  IERC20 public fudge */\n    tag_32:\n      and(sub(shl(0xa0, 0x01), 0x01), sload(0x02))\n      dup2\n      jump\t// out\n        /* \"contracts/Super-Zap.sol\":17067:17203  function approveZapper(address asset) external onlyOperator {\r... */\n    tag_35:\n        /* \"contracts/Super-Zap.sol\":16821:16829  operator */\n      and(sub(shl(0xa0, 0x01), 0x01), sload(0x06))\n        /* \"contracts/Super-Zap.sol\":16833:16843  msg.sender */\n      caller\n        /* \"contracts/Super-Zap.sol\":16821:16843  operator == msg.sender */\n      eq\n        /* \"contracts/Super-Zap.sol\":16813:16884  require(operator == msg.sender, \"SuperZap: caller is not the operator\") */\n      tag_115\n      jumpi\n      mload(0x40)\n      shl(0xe5, 0x461bcd)\n      dup2\n      mstore\n      0x04\n      add\n      dup1\n      dup1\n      0x20\n      add\n      dup3\n      dup2\n      sub\n      dup3\n      mstore\n      0x24\n      dup2\n      mstore\n      0x20\n      add\n      dup1\n      data_40960c214819ead63fefdd8daacedc8ff37ea1cb3d93ededabce0e8931268929\n      0x24\n      swap2\n      codecopy\n      0x40\n      add\n      swap2\n      pop\n      pop\n      mload(0x40)\n      dup1\n      swap2\n      sub\n      swap1\n      revert\n    tag_115:\n        /* \"contracts/Super-Zap.sol\":17168:17174  zapper */\n      sload(0x01)\n        /* \"contracts/Super-Zap.sol\":17138:17195  IERC20(asset).approve(address(zapper), type(uint256).max) */\n      0x40\n      dup1\n      mload\n      shl(0xe0, 0x095ea7b3)\n      dup2\n      mstore\n      sub(shl(0xa0, 0x01), 0x01)\n        /* \"contracts/Super-Zap.sol\":17168:17174  zapper */\n      swap3\n      dup4\n      and\n        /* \"contracts/Super-Zap.sol\":17138:17195  IERC20(asset).approve(address(zapper), type(uint256).max) */\n      0x04\n      dup3\n      add\n      mstore\n      not(0x00)\n      0x24\n      dup3\n      add\n      mstore\n      swap1\n      mload\n        /* \"contracts/Super-Zap.sol\":17138:17159  IERC20(asset).approve */\n      swap2\n      dup4\n      and\n      swap2\n      0x095ea7b3\n      swap2\n        /* \"contracts/Super-Zap.sol\":17138:17195  IERC20(asset).approve(address(zapper), type(uint256).max) */\n      0x44\n      dup1\n      dup3\n      add\n      swap3\n      0x20\n      swap3\n      swap1\n      swap2\n      swap1\n      dup3\n      swap1\n      sub\n      add\n      dup2\n        /* \"contracts/Super-Zap.sol\":17168:17174  zapper */\n      0x00\n        /* \"contracts/Super-Zap.sol\":17138:17159  IERC20(asset).approve */\n      dup8\n        /* \"contracts/Super-Zap.sol\":17138:17195  IERC20(asset).approve(address(zapper), type(uint256).max) */\n      dup1\n      extcodesize\n      iszero\n      dup1\n      iszero\n      tag_117\n      jumpi\n      0x00\n      dup1\n      revert\n    tag_117:\n      pop\n      gas\n      call\n      iszero\n      dup1\n      iszero\n      tag_119\n      jumpi\n      returndatasize\n      0x00\n      dup1\n      returndatacopy\n      revert(0x00, returndatasize)\n    tag_119:\n      pop\n      pop\n      pop\n      pop\n      mload(0x40)\n      returndatasize\n      0x20\n      dup2\n      lt\n      iszero\n      tag_120\n      jumpi\n      0x00\n      dup1\n      revert\n    tag_120:\n      pop\n      pop\n      pop\n        /* \"contracts/Super-Zap.sol\":17067:17203  function approveZapper(address asset) external onlyOperator {\r... */\n      jump\t// out\n        /* \"contracts/Super-Zap.sol\":16133:16156  IERC20 public strawPair */\n    tag_37:\n      and(sub(shl(0xa0, 0x01), 0x01), sload(0x05))\n      dup2\n      jump\t// out\n        /* \"contracts/Super-Zap.sol\":16023:16044  IZapper public zapper */\n    tag_39:\n      and(sub(shl(0xa0, 0x01), 0x01), sload(0x01))\n      dup2\n      jump\t// out\n        /* \"contracts/Super-Zap.sol\":16077:16096  IERC20 public straw */\n    tag_41:\n      and(sub(shl(0xa0, 0x01), 0x01), sload(0x03))\n      dup2\n      jump\t// out\n        /* \"contracts/Super-Zap.sol\":16193:16216  uint256 public minStraw */\n    tag_43:\n      sload(0x07)\n      dup2\n      jump\t// out\n        /* \"contracts/Super-Zap.sol\":11769:11946  function safeTransfer(IERC20 token, address to, uint256 value) internal {\r... */\n    tag_56:\n        /* \"contracts/Super-Zap.sol\":11879:11937  abi.encodeWithSelector(token.transfer.selector, to, value) */\n      0x40\n      dup1\n      mload\n      sub(shl(0xa0, 0x01), 0x01)\n      dup5\n      and\n      0x24\n      dup3\n      add\n      mstore\n      0x44\n      dup1\n      dup3\n      add\n      dup5\n      swap1\n      mstore\n      dup3\n      mload\n      dup1\n      dup4\n      sub\n      swap1\n      swap2\n      add\n      dup2\n      mstore\n      0x64\n      swap1\n      swap2\n      add\n      swap1\n      swap2\n      mstore\n      0x20\n      dup2\n      add\n      dup1\n      mload\n      sub(shl(0xe0, 0x01), 0x01)\n      and\n      shl(0xe0, 0xa9059cbb)\n      or\n      swap1\n      mstore\n        /* \"contracts/Super-Zap.sol\":11852:11938  _callOptionalReturn(token, abi.encodeWithSelector(token.transfer.selector, to, value)) */\n      tag_120\n      swap1\n        /* \"contracts/Super-Zap.sol\":11872:11877  token */\n      dup5\n      swap1\n        /* \"contracts/Super-Zap.sol\":11852:11871  _callOptionalReturn */\n      tag_123\n        /* \"contracts/Super-Zap.sol\":11852:11938  _callOptionalReturn(token, abi.encodeWithSelector(token.transfer.selector, to, value)) */\n      jump\t// in\n        /* \"contracts/Super-Zap.sol\":11954:12159  function safeTransferFrom(IERC20 token, address from, address to, uint256 value) internal {\r... */\n    tag_68:\n        /* \"contracts/Super-Zap.sol\":12082:12150  abi.encodeWithSelector(token.transferFrom.selector, from, to, value) */\n      0x40\n      dup1\n      mload\n      sub(shl(0xa0, 0x01), 0x01)\n      dup1\n      dup7\n      and\n      0x24\n      dup4\n      add\n      mstore\n      dup5\n      and\n      0x44\n      dup3\n      add\n      mstore\n      0x64\n      dup1\n      dup3\n      add\n      dup5\n      swap1\n      mstore\n      dup3\n      mload\n      dup1\n      dup4\n      sub\n      swap1\n      swap2\n      add\n      dup2\n      mstore\n      0x84\n      swap1\n      swap2\n      add\n      swap1\n      swap2\n      mstore\n      0x20\n      dup2\n      add\n      dup1\n      mload\n      sub(shl(0xe0, 0x01), 0x01)\n      and\n      shl(0xe0, 0x23b872dd)\n      or\n      swap1\n      mstore\n        /* \"contracts/Super-Zap.sol\":12055:12151  _callOptionalReturn(token, abi.encodeWithSelector(token.transferFrom.selector, from, to, value)) */\n      tag_125\n      swap1\n        /* \"contracts/Super-Zap.sol\":12075:12080  token */\n      dup6\n      swap1\n        /* \"contracts/Super-Zap.sol\":12055:12074  _callOptionalReturn */\n      tag_123\n        /* \"contracts/Super-Zap.sol\":12055:12151  _callOptionalReturn(token, abi.encodeWithSelector(token.transferFrom.selector, from, to, value)) */\n      jump\t// in\n    tag_125:\n        /* \"contracts/Super-Zap.sol\":11954:12159  function safeTransferFrom(IERC20 token, address from, address to, uint256 value) internal {\r... */\n      pop\n      pop\n      pop\n      pop\n      jump\t// out\n        /* \"contracts/Super-Zap.sol\":5233:5704  function mul(uint256 a, uint256 b) internal pure returns (uint256) {\r... */\n    tag_73:\n        /* \"contracts/Super-Zap.sol\":5291:5298  uint256 */\n      0x00\n        /* \"contracts/Super-Zap.sol\":5536:5542  a == 0 */\n      dup3\n        /* \"contracts/Super-Zap.sol\":5532:5579  if (a == 0) {\r... */\n      tag_127\n      jumpi\n      pop\n        /* \"contracts/Super-Zap.sol\":5566:5567  0 */\n      0x00\n        /* \"contracts/Super-Zap.sol\":5559:5567  return 0 */\n      jump(tag_126)\n        /* \"contracts/Super-Zap.sol\":5532:5579  if (a == 0) {\r... */\n    tag_127:\n        /* \"contracts/Super-Zap.sol\":5603:5608  a * b */\n      dup3\n      dup3\n      mul\n        /* \"contracts/Super-Zap.sol\":5607:5608  b */\n      dup3\n        /* \"contracts/Super-Zap.sol\":5603:5604  a */\n      dup5\n        /* \"contracts/Super-Zap.sol\":5603:5608  a * b */\n      dup3\n        /* \"contracts/Super-Zap.sol\":5603:5604  a */\n      dup2\n        /* \"contracts/Super-Zap.sol\":5627:5632  c / a */\n      tag_128\n      jumpi\n      invalid\n    tag_128:\n      div\n        /* \"contracts/Super-Zap.sol\":5627:5637  c / a == b */\n      eq\n        /* \"contracts/Super-Zap.sol\":5619:5675  require(c / a == b, \"SafeMath: multiplication overflow\") */\n      tag_129\n      jumpi\n      mload(0x40)\n      shl(0xe5, 0x461bcd)\n      dup2\n      mstore\n      0x04\n      add\n      dup1\n      dup1\n      0x20\n      add\n      dup3\n      dup2\n      sub\n      dup3\n      mstore\n      0x21\n      dup2\n      mstore\n      0x20\n      add\n      dup1\n      data_9113bb53c2876a3805b2c9242029423fc540a728243ce887ab24c82cf119fba3\n      0x21\n      swap2\n      codecopy\n      0x40\n      add\n      swap2\n      pop\n      pop\n      mload(0x40)\n      dup1\n      swap2\n      sub\n      swap1\n      revert\n    tag_129:\n        /* \"contracts/Super-Zap.sol\":5695:5696  c */\n      swap1\n      pop\n        /* \"contracts/Super-Zap.sol\":5233:5704  function mul(uint256 a, uint256 b) internal pure returns (uint256) {\r... */\n    tag_126:\n      swap3\n      swap2\n      pop\n      pop\n      jump\t// out\n        /* \"contracts/Super-Zap.sol\":6172:6304  function div(uint256 a, uint256 b) internal pure returns (uint256) {\r... */\n    tag_74:\n        /* \"contracts/Super-Zap.sol\":6230:6237  uint256 */\n      0x00\n        /* \"contracts/Super-Zap.sol\":6257:6296  div(a, b, \"SafeMath: division by zero\") */\n      tag_129\n        /* \"contracts/Super-Zap.sol\":6261:6262  a */\n      dup4\n        /* \"contracts/Super-Zap.sol\":6264:6265  b */\n      dup4\n        /* \"contracts/Super-Zap.sol\":6257:6296  div(a, b, \"SafeMath: division by zero\") */\n      mload(0x40)\n      dup1\n      0x40\n      add\n      0x40\n      mstore\n      dup1\n      0x1a\n      dup2\n      mstore\n      0x20\n      add\n      0x536166654d6174683a206469766973696f6e206279207a65726f000000000000\n      dup2\n      mstore\n      pop\n        /* \"contracts/Super-Zap.sol\":6257:6260  div */\n      tag_132\n        /* \"contracts/Super-Zap.sol\":6257:6296  div(a, b, \"SafeMath: division by zero\") */\n      jump\t// in\n        /* \"contracts/Super-Zap.sol\":4359:4495  function sub(uint256 a, uint256 b) internal pure returns (uint256) {\r... */\n    tag_76:\n        /* \"contracts/Super-Zap.sol\":4417:4424  uint256 */\n      0x00\n        /* \"contracts/Super-Zap.sol\":4444:4487  sub(a, b, \"SafeMath: subtraction overflow\") */\n      tag_129\n        /* \"contracts/Super-Zap.sol\":4448:4449  a */\n      dup4\n        /* \"contracts/Super-Zap.sol\":4451:4452  b */\n      dup4\n        /* \"contracts/Super-Zap.sol\":4444:4487  sub(a, b, \"SafeMath: subtraction overflow\") */\n      mload(0x40)\n      dup1\n      0x40\n      add\n      0x40\n      mstore\n      dup1\n      0x1e\n      dup2\n      mstore\n      0x20\n      add\n      0x536166654d6174683a207375627472616374696f6e206f766572666c6f770000\n      dup2\n      mstore\n      pop\n        /* \"contracts/Super-Zap.sol\":4444:4447  sub */\n      tag_135\n        /* \"contracts/Super-Zap.sol\":4444:4487  sub(a, b, \"SafeMath: subtraction overflow\") */\n      jump\t// in\n        /* \"contracts/Super-Zap.sol\":17489:17657  function _checkMin(address from, uint256 amount) internal view returns (bool) {\r... */\n    tag_86:\n        /* \"contracts/Super-Zap.sol\":17601:17606  fudge */\n      sload(0x02)\n        /* \"contracts/Super-Zap.sol\":17561:17565  bool */\n      0x00\n      swap1\n      sub(shl(0xa0, 0x01), 0x01)\n        /* \"contracts/Super-Zap.sol\":17585:17607  from == address(fudge) */\n      dup5\n      dup2\n      and\n        /* \"contracts/Super-Zap.sol\":17601:17606  fudge */\n      swap2\n      and\n        /* \"contracts/Super-Zap.sol\":17585:17607  from == address(fudge) */\n      eq\n        /* \"contracts/Super-Zap.sol\":17585:17649  from == address(fudge) ? amount >= minFudge : amount >= minStraw */\n      tag_137\n      jumpi\n        /* \"contracts/Super-Zap.sol\":17641:17649  minStraw */\n      sload(0x07)\n        /* \"contracts/Super-Zap.sol\":17631:17637  amount */\n      dup3\n        /* \"contracts/Super-Zap.sol\":17631:17649  amount >= minStraw */\n      lt\n      iszero\n        /* \"contracts/Super-Zap.sol\":17585:17649  from == address(fudge) ? amount >= minFudge : amount >= minStraw */\n      jump(tag_129)\n    tag_137:\n      pop\n        /* \"contracts/Super-Zap.sol\":17620:17628  minFudge */\n      sload(0x08)\n      gt\n        /* \"contracts/Super-Zap.sol\":17610:17628  amount >= minFudge */\n      iszero\n      swap2\n        /* \"contracts/Super-Zap.sol\":17489:17657  function _checkMin(address from, uint256 amount) internal view returns (bool) {\r... */\n      swap1\n      pop\n      jump\t// out\n        /* \"contracts/Super-Zap.sol\":13813:14928  function _callOptionalReturn(IERC20 token, bytes memory data) private {\r... */\n    tag_123:\n        /* \"contracts/Super-Zap.sol\":14418:14445  address(token).isContract() */\n      tag_140\n        /* \"contracts/Super-Zap.sol\":14426:14431  token */\n      dup3\n      sub(shl(0xa0, 0x01), 0x01)\n        /* \"contracts/Super-Zap.sol\":14418:14443  address(token).isContract */\n      and\n      tag_141\n        /* \"contracts/Super-Zap.sol\":14418:14445  address(token).isContract() */\n      jump\t// in\n    tag_140:\n        /* \"contracts/Super-Zap.sol\":14410:14481  require(address(token).isContract(), \"SafeERC20: call to non-contract\") */\n      tag_142\n      jumpi\n      0x40\n      dup1\n      mload\n      shl(0xe5, 0x461bcd)\n      dup2\n      mstore\n      0x20\n      0x04\n      dup3\n      add\n      mstore\n      0x1f\n      0x24\n      dup3\n      add\n      mstore\n      0x5361666545524332303a2063616c6c20746f206e6f6e2d636f6e747261637400\n      0x44\n      dup3\n      add\n      mstore\n      swap1\n      mload\n      swap1\n      dup2\n      swap1\n      sub\n      0x64\n      add\n      swap1\n      revert\n    tag_142:\n        /* \"contracts/Super-Zap.sol\":14555:14567  bool success */\n      0x00\n        /* \"contracts/Super-Zap.sol\":14569:14592  bytes memory returndata */\n      0x60\n        /* \"contracts/Super-Zap.sol\":14604:14609  token */\n      dup4\n      sub(shl(0xa0, 0x01), 0x01)\n        /* \"contracts/Super-Zap.sol\":14596:14615  address(token).call */\n      and\n        /* \"contracts/Super-Zap.sol\":14616:14620  data */\n      dup4\n        /* \"contracts/Super-Zap.sol\":14596:14621  address(token).call(data) */\n      mload(0x40)\n      dup1\n      dup3\n      dup1\n      mload\n      swap1\n      0x20\n      add\n      swap1\n      dup1\n      dup4\n      dup4\n    tag_143:\n      0x20\n      dup4\n      lt\n      tag_145\n      jumpi\n      dup1\n      mload\n      dup3\n      mstore\n      not(0x1f)\n      swap1\n      swap3\n      add\n      swap2\n      0x20\n      swap2\n      dup3\n      add\n      swap2\n      add\n      jump(tag_143)\n    tag_145:\n      0x01\n      dup4\n      0x20\n      sub\n      0x0100\n      exp\n      sub\n      dup1\n      not\n      dup3\n      mload\n      and\n      dup2\n      dup5\n      mload\n      and\n      dup1\n      dup3\n      or\n      dup6\n      mstore\n      pop\n      pop\n      pop\n      pop\n      pop\n      pop\n      swap1\n      pop\n      add\n      swap2\n      pop\n      pop\n      0x00\n      mload(0x40)\n      dup1\n      dup4\n      sub\n      dup2\n      0x00\n      dup7\n      gas\n      call\n      swap2\n      pop\n      pop\n      returndatasize\n      dup1\n      0x00\n      dup2\n      eq\n      tag_148\n      jumpi\n      mload(0x40)\n      swap2\n      pop\n      and(add(returndatasize, 0x3f), not(0x1f))\n      dup3\n      add\n      0x40\n      mstore\n      returndatasize\n      dup3\n      mstore\n      returndatasize\n      0x00\n      0x20\n      dup5\n      add\n      returndatacopy\n      jump(tag_147)\n    tag_148:\n      0x60\n      swap2\n      pop\n    tag_147:\n      pop\n        /* \"contracts/Super-Zap.sol\":14554:14621  (bool success, bytes memory returndata) = address(token).call(data) */\n      swap2\n      pop\n      swap2\n      pop\n        /* \"contracts/Super-Zap.sol\":14640:14647  success */\n      dup2\n        /* \"contracts/Super-Zap.sol\":14632:14684  require(success, \"SafeERC20: low-level call failed\") */\n      tag_149\n      jumpi\n      0x40\n      dup1\n      mload\n      shl(0xe5, 0x461bcd)\n      dup2\n      mstore\n      0x20\n      0x04\n      dup3\n      add\n      dup2\n      swap1\n      mstore\n      0x24\n      dup3\n      add\n      mstore\n      0x5361666545524332303a206c6f772d6c6576656c2063616c6c206661696c6564\n      0x44\n      dup3\n      add\n      mstore\n      swap1\n      mload\n      swap1\n      dup2\n      swap1\n      sub\n      0x64\n      add\n      swap1\n      revert\n    tag_149:\n        /* \"contracts/Super-Zap.sol\":14701:14718  returndata.length */\n      dup1\n      mload\n        /* \"contracts/Super-Zap.sol\":14701:14722  returndata.length > 0 */\n      iszero\n        /* \"contracts/Super-Zap.sol\":14697:14921  if (returndata.length > 0) { // Return data is optional\r... */\n      tag_125\n      jumpi\n        /* \"contracts/Super-Zap.sol\":14843:14853  returndata */\n      dup1\n        /* \"contracts/Super-Zap.sol\":14832:14862  abi.decode(returndata, (bool)) */\n      dup1\n      0x20\n      add\n      swap1\n      mload\n      0x20\n      dup2\n      lt\n      iszero\n      tag_151\n      jumpi\n      0x00\n      dup1\n      revert\n    tag_151:\n      pop\n      mload\n        /* \"contracts/Super-Zap.sol\":14824:14909  require(abi.decode(returndata, (bool)), \"SafeERC20: ERC20 operation did not succeed\") */\n      tag_125\n      jumpi\n      mload(0x40)\n      shl(0xe5, 0x461bcd)\n      dup2\n      mstore\n      0x04\n      add\n      dup1\n      dup1\n      0x20\n      add\n      dup3\n      dup2\n      sub\n      dup3\n      mstore\n      0x2a\n      dup2\n      mstore\n      0x20\n      add\n      dup1\n      data_e11ad79d1e4a7f2e5f376964cb99e8e8f7904e3fc16a109f7a7ecb9aa7956dcd\n      0x2a\n      swap2\n      codecopy\n      0x40\n      add\n      swap2\n      pop\n      pop\n      mload(0x40)\n      dup1\n      swap2\n      sub\n      swap1\n      revert\n        /* \"contracts/Super-Zap.sol\":6792:7137  function div(uint256 a, uint256 b, string memory errorMessage) internal pure returns (uint256) {\r... */\n    tag_132:\n        /* \"contracts/Super-Zap.sol\":6878:6885  uint256 */\n      0x00\n        /* \"contracts/Super-Zap.sol\":6980:6992  errorMessage */\n      dup2\n        /* \"contracts/Super-Zap.sol\":6973:6978  b > 0 */\n      dup4\n        /* \"contracts/Super-Zap.sol\":6965:6993  require(b > 0, errorMessage) */\n      tag_154\n      jumpi\n      mload(0x40)\n      shl(0xe5, 0x461bcd)\n      dup2\n      mstore\n      0x04\n      add\n      dup1\n      dup1\n      0x20\n      add\n      dup3\n      dup2\n      sub\n      dup3\n      mstore\n      dup4\n      dup2\n      dup2\n      mload\n      dup2\n      mstore\n      0x20\n      add\n      swap2\n      pop\n      dup1\n      mload\n      swap1\n      0x20\n      add\n      swap1\n      dup1\n      dup4\n      dup4\n      0x00\n    tag_155:\n      dup4\n      dup2\n      lt\n      iszero\n      tag_157\n      jumpi\n      dup2\n      dup2\n      add\n      mload\n      dup4\n      dup3\n      add\n      mstore\n      0x20\n      add\n      jump(tag_155)\n    tag_157:\n      pop\n      pop\n      pop\n      pop\n      swap1\n      pop\n      swap1\n      dup2\n      add\n      swap1\n      0x1f\n      and\n      dup1\n      iszero\n      tag_158\n      jumpi\n      dup1\n      dup3\n      sub\n      dup1\n      mload\n      0x01\n      dup4\n      0x20\n      sub\n      0x0100\n      exp\n      sub\n      not\n      and\n      dup2\n      mstore\n      0x20\n      add\n      swap2\n      pop\n    tag_158:\n      pop\n      swap3\n      pop\n      pop\n      pop\n      mload(0x40)\n      dup1\n      swap2\n      sub\n      swap1\n      revert\n    tag_154:\n      pop\n        /* \"contracts/Super-Zap.sol\":7004:7013  uint256 c */\n      0x00\n        /* \"contracts/Super-Zap.sol\":7020:7021  b */\n      dup4\n        /* \"contracts/Super-Zap.sol\":7016:7017  a */\n      dup6\n        /* \"contracts/Super-Zap.sol\":7016:7021  a / b */\n      dup2\n      tag_159\n      jumpi\n      invalid\n    tag_159:\n      div\n      swap6\n        /* \"contracts/Super-Zap.sol\":6792:7137  function div(uint256 a, uint256 b, string memory errorMessage) internal pure returns (uint256) {\r... */\n      swap5\n      pop\n      pop\n      pop\n      pop\n      pop\n      jump\t// out\n        /* \"contracts/Super-Zap.sol\":4790:4982  function sub(uint256 a, uint256 b, string memory errorMessage) internal pure returns (uint256) {\r... */\n    tag_135:\n        /* \"contracts/Super-Zap.sol\":4876:4883  uint256 */\n      0x00\n        /* \"contracts/Super-Zap.sol\":4912:4924  errorMessage */\n      dup2\n        /* \"contracts/Super-Zap.sol\":4904:4910  b <= a */\n      dup5\n      dup5\n      gt\n      iszero\n        /* \"contracts/Super-Zap.sol\":4896:4925  require(b <= a, errorMessage) */\n      tag_161\n      jumpi\n      mload(0x40)\n      shl(0xe5, 0x461bcd)\n      dup2\n      mstore\n      0x20\n      0x04\n      dup3\n      add\n      dup2\n      dup2\n      mstore\n      dup4\n      mload\n      0x24\n      dup5\n      add\n      mstore\n      dup4\n      mload\n      swap1\n      swap3\n      dup4\n      swap3\n      0x44\n      swap1\n      swap2\n      add\n      swap2\n      swap1\n      dup6\n      add\n      swap1\n      dup1\n      dup4\n      dup4\n      0x00\n      dup4\n      iszero\n      tag_157\n      jumpi\n      dup2\n      dup2\n      add\n      mload\n      dup4\n      dup3\n      add\n      mstore\n      0x20\n      add\n      jump(tag_155)\n    tag_161:\n      pop\n      pop\n      pop\n        /* \"contracts/Super-Zap.sol\":4948:4953  a - b */\n      swap1\n      sub\n      swap1\n        /* \"contracts/Super-Zap.sol\":4790:4982  function sub(uint256 a, uint256 b, string memory errorMessage) internal pure returns (uint256) {\r... */\n      jump\t// out\n        /* \"contracts/Super-Zap.sol\":9148:9767  function isContract(address account) internal view returns (bool) {\r... */\n    tag_141:\n        /* \"contracts/Super-Zap.sol\":9208:9212  bool */\n      0x00\n        /* \"contracts/Super-Zap.sol\":9676:9696  extcodehash(account) */\n      dup2\n      extcodehash\n        /* \"contracts/Super-Zap.sol\":9519:9585  0xc5d2460186f7233c927e7db2dcc703c0e500b653ca82273b7bfad8045d85a470 */\n      0xc5d2460186f7233c927e7db2dcc703c0e500b653ca82273b7bfad8045d85a470\n        /* \"contracts/Super-Zap.sol\":9716:9739  codehash != accountHash */\n      dup2\n      dup2\n      eq\n      dup1\n      iszero\n      swap1\n        /* \"contracts/Super-Zap.sol\":9716:9758  codehash != accountHash && codehash != 0x0 */\n      tag_167\n      jumpi\n      pop\n        /* \"contracts/Super-Zap.sol\":9743:9758  codehash != 0x0 */\n      dup2\n      iszero\n      iszero\n        /* \"contracts/Super-Zap.sol\":9716:9758  codehash != accountHash && codehash != 0x0 */\n    tag_167:\n        /* \"contracts/Super-Zap.sol\":9708:9759  return (codehash != accountHash && codehash != 0x0) */\n      swap5\n        /* \"contracts/Super-Zap.sol\":9148:9767  function isContract(address account) internal view returns (bool) {\r... */\n      swap4\n      pop\n      pop\n      pop\n      pop\n      jump\t// out\n    stop\n    data_40960c214819ead63fefdd8daacedc8ff37ea1cb3d93ededabce0e8931268929 53757065725a61703a2063616c6c6572206973206e6f7420746865206f70657261746f72\n    data_9113bb53c2876a3805b2c9242029423fc540a728243ce887ab24c82cf119fba3 536166654d6174683a206d756c7469706c69636174696f6e206f766572666c6f77\n    data_e11ad79d1e4a7f2e5f376964cb99e8e8f7904e3fc16a109f7a7ecb9aa7956dcd 5361666545524332303a204552433230206f7065726174696f6e20646964206e6f742073756363656564\n\n    auxdata: 0xa26469706673582212200c84df823c3331ec0488a21b65e6f85f14e289f0e8e5c4477e4271932876594c64736f6c634300060c0033\n}\n",
				"bytecode": {
					"linkReferences": {},
					"object": "608060405234801561001057600080fd5b5060405161108c38038061108c833981810160405260a081101561003357600080fd5b5080516020808301516040808501516060860151608090960151600180546001600160a01b038089166001600160a01b031992831617928390556002805482891690841617908190556003805483881690851617905560048054838d16908516178155600580548488169086161790556006805490941633179093556601c6bf52634000600755670de0b6b3a7640000600855865163095ea7b360e01b815293821692840192909252600019602484015294519798959793969294169263095ea7b3926044808401939192918290030181600087803b15801561011557600080fd5b505af1158015610129573d6000803e3d6000fd5b505050506040513d602081101561013f57600080fd5b50506003546001546040805163095ea7b360e01b81526001600160a01b03928316600482015260001960248201529051919092169163095ea7b39160448083019260209291908290030181600087803b15801561019b57600080fd5b505af11580156101af573d6000803e3d6000fd5b505050506040513d60208110156101c557600080fd5b50505050505050610eb1806101db6000396000f3fe608060405234801561001057600080fd5b50600436106100b45760003560e01c8063741aa61011610071578063741aa6101461019557806385499cfb1461019d578063984b163e146101c3578063a7a21712146101cb578063b9b5fd07146101d3578063d0318d7e146101db576100b4565b806302c426a8146100b95780631c15716b146100d35780634d4af36f146100f757806351cff8d91461011c578063570ca73514610142578063620b2c731461014a575b600080fd5b6100c16101e3565b60408051918252519081900360200190f35b6100db6101e9565b604080516001600160a01b039092168252519081900360200190f35b61011a6004803603604081101561010d57600080fd5b50803590602001356101f8565b005b61011a6004803603602081101561013257600080fd5b50356001600160a01b031661024c565b6100db610368565b61017c6004803603606081101561016057600080fd5b506001600160a01b038135169060208101359060400135610377565b6040805192835260208301919091528051918290030190f35b6100db610845565b61011a600480360360208110156101b357600080fd5b50356001600160a01b0316610854565b6100db610923565b6100db610932565b6100db610941565b6100c1610950565b60085481565b6004546001600160a01b031681565b6006546001600160a01b031633146102415760405162461bcd60e51b8152600401808060200182810382526024815260200180610e0d6024913960400191505060405180910390fd5b600791909155600855565b6006546001600160a01b031633146102955760405162461bcd60e51b8152600401808060200182810382526024815260200180610e0d6024913960400191505060405180910390fd5b6001600160a01b038116156103375761033233826001600160a01b03166370a08231306040518263ffffffff1660e01b815260040180826001600160a01b0316815260200191505060206040518083038186803b1580156102f557600080fd5b505afa158015610309573d6000803e3d6000fd5b505050506040513d602081101561031f57600080fd5b50516001600160a01b0384169190610956565b610365565b60405133904780156108fc02916000818181858888f19350505050158015610363573d6000803e3d6000fd5b505b50565b6006546001600160a01b031681565b60008060648311156103d0576040805162461bcd60e51b815260206004820152601c60248201527f496e76616c69642046554447452d4441492d4c502070657263656e7400000000604482015290519081900360640190fd5b83856001600160a01b03166370a08231336040518263ffffffff1660e01b815260040180826001600160a01b0316815260200191505060206040518083038186803b15801561041e57600080fd5b505afa158015610432573d6000803e3d6000fd5b505050506040513d602081101561044857600080fd5b50511015610494576040805162461bcd60e51b8152602060048201526014602482015273496e73756666696369656e742062616c616e636560601b604482015290519081900360640190fd5b6104a96001600160a01b0386163330876109a8565b6000606484106104b957846104ce565b6104ce60646104c88787610a08565b90610a6a565b905060006104dc8683610aac565b60048054604080516370a0823160e01b81523093810193909352519293506000926001600160a01b03909116916370a08231916024808301926020929190829003018186803b15801561052e57600080fd5b505afa158015610542573d6000803e3d6000fd5b505050506040513d602081101561055857600080fd5b5051600554604080516370a0823160e01b815230600482015290519293506000926001600160a01b03909216916370a0823191602480820192602092909190829003018186803b1580156105ab57600080fd5b505afa1580156105bf573d6000803e3d6000fd5b505050506040513d60208110156105d557600080fd5b505190506105e38985610aee565b15610667576001546004805460408051638476762760e01b81526001600160a01b038e811694820194909452602481018990529183166044830152519190921691638476762791606480830192600092919082900301818387803b15801561064a57600080fd5b505af115801561065e573d6000803e3d6000fd5b5050505061067b565b61067b6001600160a01b038a163386610956565b6106858984610aee565b156107075760015460055460408051638476762760e01b81526001600160a01b038d8116600483015260248201889052928316604482015290519190921691638476762791606480830192600092919082900301818387803b1580156106ea57600080fd5b505af11580156106fe573d6000803e3d6000fd5b5050505061071b565b61071b6001600160a01b038a163385610956565b60048054604080516370a0823160e01b81523093810193909352516000926107a29286926001600160a01b03909116916370a08231916024808301926020929190829003018186803b15801561077057600080fd5b505afa158015610784573d6000803e3d6000fd5b505050506040513d602081101561079a57600080fd5b505190610aac565b600554604080516370a0823160e01b815230600482015290519293506000926107f99286926001600160a01b03909116916370a0823191602480820192602092909190829003018186803b15801561077057600080fd5b9050811561081857600454610818906001600160a01b03163384610956565b801561083557600554610835906001600160a01b03163383610956565b909a909950975050505050505050565b6002546001600160a01b031681565b6006546001600160a01b0316331461089d5760405162461bcd60e51b8152600401808060200182810382526024815260200180610e0d6024913960400191505060405180910390fd5b6001546040805163095ea7b360e01b81526001600160a01b039283166004820152600019602482015290519183169163095ea7b3916044808201926020929091908290030181600087803b1580156108f457600080fd5b505af1158015610908573d6000803e3d6000fd5b505050506040513d602081101561091e57600080fd5b505050565b6005546001600160a01b031681565b6001546001600160a01b031681565b6003546001600160a01b031681565b60075481565b604080516001600160a01b038416602482015260448082018490528251808303909101815260649091019091526020810180516001600160e01b031663a9059cbb60e01b17905261091e908490610b1c565b604080516001600160a01b0380861660248301528416604482015260648082018490528251808303909101815260849091019091526020810180516001600160e01b03166323b872dd60e01b179052610a02908590610b1c565b50505050565b600082610a1757506000610a64565b82820282848281610a2457fe5b0414610a615760405162461bcd60e51b8152600401808060200182810382526021815260200180610e316021913960400191505060405180910390fd5b90505b92915050565b6000610a6183836040518060400160405280601a81526020017f536166654d6174683a206469766973696f6e206279207a65726f000000000000815250610cd4565b6000610a6183836040518060400160405280601e81526020017f536166654d6174683a207375627472616374696f6e206f766572666c6f770000815250610d76565b6002546000906001600160a01b03848116911614610b1157600754821015610a61565b506008541115919050565b610b2e826001600160a01b0316610dd0565b610b7f576040805162461bcd60e51b815260206004820152601f60248201527f5361666545524332303a2063616c6c20746f206e6f6e2d636f6e747261637400604482015290519081900360640190fd5b60006060836001600160a01b0316836040518082805190602001908083835b60208310610bbd5780518252601f199092019160209182019101610b9e565b6001836020036101000a0380198251168184511680821785525050505050509050019150506000604051808303816000865af19150503d8060008114610c1f576040519150601f19603f3d011682016040523d82523d6000602084013e610c24565b606091505b509150915081610c7b576040805162461bcd60e51b815260206004820181905260248201527f5361666545524332303a206c6f772d6c6576656c2063616c6c206661696c6564604482015290519081900360640190fd5b805115610a0257808060200190516020811015610c9757600080fd5b5051610a025760405162461bcd60e51b815260040180806020018281038252602a815260200180610e52602a913960400191505060405180910390fd5b60008183610d605760405162461bcd60e51b81526004018080602001828103825283818151815260200191508051906020019080838360005b83811015610d25578181015183820152602001610d0d565b50505050905090810190601f168015610d525780820380516001836020036101000a031916815260200191505b509250505060405180910390fd5b506000838581610d6c57fe5b0495945050505050565b60008184841115610dc85760405162461bcd60e51b8152602060048201818152835160248401528351909283926044909101919085019080838360008315610d25578181015183820152602001610d0d565b505050900390565b6000813f7fc5d2460186f7233c927e7db2dcc703c0e500b653ca82273b7bfad8045d85a470818114801590610e0457508115155b94935050505056fe53757065725a61703a2063616c6c6572206973206e6f7420746865206f70657261746f72536166654d6174683a206d756c7469706c69636174696f6e206f766572666c6f775361666545524332303a204552433230206f7065726174696f6e20646964206e6f742073756363656564a26469706673582212200c84df823c3331ec0488a21b65e6f85f14e289f0e8e5c4477e4271932876594c64736f6c634300060c0033",
					"opcodes": "PUSH1 0x80 PUSH1 0x40 MSTORE CALLVALUE DUP1 ISZERO PUSH2 0x10 JUMPI PUSH1 0x0 DUP1 REVERT JUMPDEST POP PUSH1 0x40 MLOAD PUSH2 0x108C CODESIZE SUB DUP1 PUSH2 0x108C DUP4 CODECOPY DUP2 DUP2 ADD PUSH1 0x40 MSTORE PUSH1 0xA0 DUP2 LT ISZERO PUSH2 0x33 JUMPI PUSH1 0x0 DUP1 REVERT JUMPDEST POP DUP1 MLOAD PUSH1 0x20 DUP1 DUP4 ADD MLOAD PUSH1 0x40 DUP1 DUP6 ADD MLOAD PUSH1 0x60 DUP7 ADD MLOAD PUSH1 0x80 SWAP1 SWAP7 ADD MLOAD PUSH1 0x1 DUP1 SLOAD PUSH1 0x1 PUSH1 0x1 PUSH1 0xA0 SHL SUB DUP1 DUP10 AND PUSH1 0x1 PUSH1 0x1 PUSH1 0xA0 SHL SUB NOT SWAP3 DUP4 AND OR SWAP3 DUP4 SWAP1 SSTORE PUSH1 0x2 DUP1 SLOAD DUP3 DUP10 AND SWAP1 DUP5 AND OR SWAP1 DUP2 SWAP1 SSTORE PUSH1 0x3 DUP1 SLOAD DUP4 DUP9 AND SWAP1 DUP6 AND OR SWAP1 SSTORE PUSH1 0x4 DUP1 SLOAD DUP4 DUP14 AND SWAP1 DUP6 AND OR DUP2 SSTORE PUSH1 0x5 DUP1 SLOAD DUP5 DUP9 AND SWAP1 DUP7 AND OR SWAP1 SSTORE PUSH1 0x6 DUP1 SLOAD SWAP1 SWAP5 AND CALLER OR SWAP1 SWAP4 SSTORE PUSH7 0x1C6BF52634000 PUSH1 0x7 SSTORE PUSH8 0xDE0B6B3A7640000 PUSH1 0x8 SSTORE DUP7 MLOAD PUSH4 0x95EA7B3 PUSH1 0xE0 SHL DUP2 MSTORE SWAP4 DUP3 AND SWAP3 DUP5 ADD SWAP3 SWAP1 SWAP3 MSTORE PUSH1 0x0 NOT PUSH1 0x24 DUP5 ADD MSTORE SWAP5 MLOAD SWAP8 SWAP9 SWAP6 SWAP8 SWAP4 SWAP7 SWAP3 SWAP5 AND SWAP3 PUSH4 0x95EA7B3 SWAP3 PUSH1 0x44 DUP1 DUP5 ADD SWAP4 SWAP2 SWAP3 SWAP2 DUP3 SWAP1 SUB ADD DUP2 PUSH1 0x0 DUP8 DUP1 EXTCODESIZE ISZERO DUP1 ISZERO PUSH2 0x115 JUMPI PUSH1 0x0 DUP1 REVERT JUMPDEST POP GAS CALL ISZERO DUP1 ISZERO PUSH2 0x129 JUMPI RETURNDATASIZE PUSH1 0x0 DUP1 RETURNDATACOPY RETURNDATASIZE PUSH1 0x0 REVERT JUMPDEST POP POP POP POP PUSH1 0x40 MLOAD RETURNDATASIZE PUSH1 0x20 DUP2 LT ISZERO PUSH2 0x13F JUMPI PUSH1 0x0 DUP1 REVERT JUMPDEST POP POP PUSH1 0x3 SLOAD PUSH1 0x1 SLOAD PUSH1 0x40 DUP1 MLOAD PUSH4 0x95EA7B3 PUSH1 0xE0 SHL DUP2 MSTORE PUSH1 0x1 PUSH1 0x1 PUSH1 0xA0 SHL SUB SWAP3 DUP4 AND PUSH1 0x4 DUP3 ADD MSTORE PUSH1 0x0 NOT PUSH1 0x24 DUP3 ADD MSTORE SWAP1 MLOAD SWAP2 SWAP1 SWAP3 AND SWAP2 PUSH4 0x95EA7B3 SWAP2 PUSH1 0x44 DUP1 DUP4 ADD SWAP3 PUSH1 0x20 SWAP3 SWAP2 SWAP1 DUP3 SWAP1 SUB ADD DUP2 PUSH1 0x0 DUP8 DUP1 EXTCODESIZE ISZERO DUP1 ISZERO PUSH2 0x19B JUMPI PUSH1 0x0 DUP1 REVERT JUMPDEST POP GAS CALL ISZERO DUP1 ISZERO PUSH2 0x1AF JUMPI RETURNDATASIZE PUSH1 0x0 DUP1 RETURNDATACOPY RETURNDATASIZE PUSH1 0x0 REVERT JUMPDEST POP POP POP POP PUSH1 0x40 MLOAD RETURNDATASIZE PUSH1 0x20 DUP2 LT ISZERO PUSH2 0x1C5 JUMPI PUSH1 0x0 DUP1 REVERT JUMPDEST POP POP POP POP POP POP POP PUSH2 0xEB1 DUP1 PUSH2 0x1DB PUSH1 0x0 CODECOPY PUSH1 0x0 RETURN INVALID PUSH1 0x80 PUSH1 0x40 MSTORE CALLVALUE DUP1 ISZERO PUSH2 0x10 JUMPI PUSH1 0x0 DUP1 REVERT JUMPDEST POP PUSH1 0x4 CALLDATASIZE LT PUSH2 0xB4 JUMPI PUSH1 0x0 CALLDATALOAD PUSH1 0xE0 SHR DUP1 PUSH4 0x741AA610 GT PUSH2 0x71 JUMPI DUP1 PUSH4 0x741AA610 EQ PUSH2 0x195 JUMPI DUP1 PUSH4 0x85499CFB EQ PUSH2 0x19D JUMPI DUP1 PUSH4 0x984B163E EQ PUSH2 0x1C3 JUMPI DUP1 PUSH4 0xA7A21712 EQ PUSH2 0x1CB JUMPI DUP1 PUSH4 0xB9B5FD07 EQ PUSH2 0x1D3 JUMPI DUP1 PUSH4 0xD0318D7E EQ PUSH2 0x1DB JUMPI PUSH2 0xB4 JUMP JUMPDEST DUP1 PUSH4 0x2C426A8 EQ PUSH2 0xB9 JUMPI DUP1 PUSH4 0x1C15716B EQ PUSH2 0xD3 JUMPI DUP1 PUSH4 0x4D4AF36F EQ PUSH2 0xF7 JUMPI DUP1 PUSH4 0x51CFF8D9 EQ PUSH2 0x11C JUMPI DUP1 PUSH4 0x570CA735 EQ PUSH2 0x142 JUMPI DUP1 PUSH4 0x620B2C73 EQ PUSH2 0x14A JUMPI JUMPDEST PUSH1 0x0 DUP1 REVERT JUMPDEST PUSH2 0xC1 PUSH2 0x1E3 JUMP JUMPDEST PUSH1 0x40 DUP1 MLOAD SWAP2 DUP3 MSTORE MLOAD SWAP1 DUP2 SWAP1 SUB PUSH1 0x20 ADD SWAP1 RETURN JUMPDEST PUSH2 0xDB PUSH2 0x1E9 JUMP JUMPDEST PUSH1 0x40 DUP1 MLOAD PUSH1 0x1 PUSH1 0x1 PUSH1 0xA0 SHL SUB SWAP1 SWAP3 AND DUP3 MSTORE MLOAD SWAP1 DUP2 SWAP1 SUB PUSH1 0x20 ADD SWAP1 RETURN JUMPDEST PUSH2 0x11A PUSH1 0x4 DUP1 CALLDATASIZE SUB PUSH1 0x40 DUP2 LT ISZERO PUSH2 0x10D JUMPI PUSH1 0x0 DUP1 REVERT JUMPDEST POP DUP1 CALLDATALOAD SWAP1 PUSH1 0x20 ADD CALLDATALOAD PUSH2 0x1F8 JUMP JUMPDEST STOP JUMPDEST PUSH2 0x11A PUSH1 0x4 DUP1 CALLDATASIZE SUB PUSH1 0x20 DUP2 LT ISZERO PUSH2 0x132 JUMPI PUSH1 0x0 DUP1 REVERT JUMPDEST POP CALLDATALOAD PUSH1 0x1 PUSH1 0x1 PUSH1 0xA0 SHL SUB AND PUSH2 0x24C JUMP JUMPDEST PUSH2 0xDB PUSH2 0x368 JUMP JUMPDEST PUSH2 0x17C PUSH1 0x4 DUP1 CALLDATASIZE SUB PUSH1 0x60 DUP2 LT ISZERO PUSH2 0x160 JUMPI PUSH1 0x0 DUP1 REVERT JUMPDEST POP PUSH1 0x1 PUSH1 0x1 PUSH1 0xA0 SHL SUB DUP2 CALLDATALOAD AND SWAP1 PUSH1 0x20 DUP2 ADD CALLDATALOAD SWAP1 PUSH1 0x40 ADD CALLDATALOAD PUSH2 0x377 JUMP JUMPDEST PUSH1 0x40 DUP1 MLOAD SWAP3 DUP4 MSTORE PUSH1 0x20 DUP4 ADD SWAP2 SWAP1 SWAP2 MSTORE DUP1 MLOAD SWAP2 DUP3 SWAP1 SUB ADD SWAP1 RETURN JUMPDEST PUSH2 0xDB PUSH2 0x845 JUMP JUMPDEST PUSH2 0x11A PUSH1 0x4 DUP1 CALLDATASIZE SUB PUSH1 0x20 DUP2 LT ISZERO PUSH2 0x1B3 JUMPI PUSH1 0x0 DUP1 REVERT JUMPDEST POP CALLDATALOAD PUSH1 0x1 PUSH1 0x1 PUSH1 0xA0 SHL SUB AND PUSH2 0x854 JUMP JUMPDEST PUSH2 0xDB PUSH2 0x923 JUMP JUMPDEST PUSH2 0xDB PUSH2 0x932 JUMP JUMPDEST PUSH2 0xDB PUSH2 0x941 JUMP JUMPDEST PUSH2 0xC1 PUSH2 0x950 JUMP JUMPDEST PUSH1 0x8 SLOAD DUP2 JUMP JUMPDEST PUSH1 0x4 SLOAD PUSH1 0x1 PUSH1 0x1 PUSH1 0xA0 SHL SUB AND DUP2 JUMP JUMPDEST PUSH1 0x6 SLOAD PUSH1 0x1 PUSH1 0x1 PUSH1 0xA0 SHL SUB AND CALLER EQ PUSH2 0x241 JUMPI PUSH1 0x40 MLOAD PUSH3 0x461BCD PUSH1 0xE5 SHL DUP2 MSTORE PUSH1 0x4 ADD DUP1 DUP1 PUSH1 0x20 ADD DUP3 DUP2 SUB DUP3 MSTORE PUSH1 0x24 DUP2 MSTORE PUSH1 0x20 ADD DUP1 PUSH2 0xE0D PUSH1 0x24 SWAP2 CODECOPY PUSH1 0x40 ADD SWAP2 POP POP PUSH1 0x40 MLOAD DUP1 SWAP2 SUB SWAP1 REVERT JUMPDEST PUSH1 0x7 SWAP2 SWAP1 SWAP2 SSTORE PUSH1 0x8 SSTORE JUMP JUMPDEST PUSH1 0x6 SLOAD PUSH1 0x1 PUSH1 0x1 PUSH1 0xA0 SHL SUB AND CALLER EQ PUSH2 0x295 JUMPI PUSH1 0x40 MLOAD PUSH3 0x461BCD PUSH1 0xE5 SHL DUP2 MSTORE PUSH1 0x4 ADD DUP1 DUP1 PUSH1 0x20 ADD DUP3 DUP2 SUB DUP3 MSTORE PUSH1 0x24 DUP2 MSTORE PUSH1 0x20 ADD DUP1 PUSH2 0xE0D PUSH1 0x24 SWAP2 CODECOPY PUSH1 0x40 ADD SWAP2 POP POP PUSH1 0x40 MLOAD DUP1 SWAP2 SUB SWAP1 REVERT JUMPDEST PUSH1 0x1 PUSH1 0x1 PUSH1 0xA0 SHL SUB DUP2 AND ISZERO PUSH2 0x337 JUMPI PUSH2 0x332 CALLER DUP3 PUSH1 0x1 PUSH1 0x1 PUSH1 0xA0 SHL SUB AND PUSH4 0x70A08231 ADDRESS PUSH1 0x40 MLOAD DUP3 PUSH4 0xFFFFFFFF AND PUSH1 0xE0 SHL DUP2 MSTORE PUSH1 0x4 ADD DUP1 DUP3 PUSH1 0x1 PUSH1 0x1 PUSH1 0xA0 SHL SUB AND DUP2 MSTORE PUSH1 0x20 ADD SWAP2 POP POP PUSH1 0x20 PUSH1 0x40 MLOAD DUP1 DUP4 SUB DUP2 DUP7 DUP1 EXTCODESIZE ISZERO DUP1 ISZERO PUSH2 0x2F5 JUMPI PUSH1 0x0 DUP1 REVERT JUMPDEST POP GAS STATICCALL ISZERO DUP1 ISZERO PUSH2 0x309 JUMPI RETURNDATASIZE PUSH1 0x0 DUP1 RETURNDATACOPY RETURNDATASIZE PUSH1 0x0 REVERT JUMPDEST POP POP POP POP PUSH1 0x40 MLOAD RETURNDATASIZE PUSH1 0x20 DUP2 LT ISZERO PUSH2 0x31F JUMPI PUSH1 0x0 DUP1 REVERT JUMPDEST POP MLOAD PUSH1 0x1 PUSH1 0x1 PUSH1 0xA0 SHL SUB DUP5 AND SWAP2 SWAP1 PUSH2 0x956 JUMP JUMPDEST PUSH2 0x365 JUMP JUMPDEST PUSH1 0x40 MLOAD CALLER SWAP1 SELFBALANCE DUP1 ISZERO PUSH2 0x8FC MUL SWAP2 PUSH1 0x0 DUP2 DUP2 DUP2 DUP6 DUP9 DUP9 CALL SWAP4 POP POP POP POP ISZERO DUP1 ISZERO PUSH2 0x363 JUMPI RETURNDATASIZE PUSH1 0x0 DUP1 RETURNDATACOPY RETURNDATASIZE PUSH1 0x0 REVERT JUMPDEST POP JUMPDEST POP JUMP JUMPDEST PUSH1 0x6 SLOAD PUSH1 0x1 PUSH1 0x1 PUSH1 0xA0 SHL SUB AND DUP2 JUMP JUMPDEST PUSH1 0x0 DUP1 PUSH1 0x64 DUP4 GT ISZERO PUSH2 0x3D0 JUMPI PUSH1 0x40 DUP1 MLOAD PUSH3 0x461BCD PUSH1 0xE5 SHL DUP2 MSTORE PUSH1 0x20 PUSH1 0x4 DUP3 ADD MSTORE PUSH1 0x1C PUSH1 0x24 DUP3 ADD MSTORE PUSH32 0x496E76616C69642046554447452D4441492D4C502070657263656E7400000000 PUSH1 0x44 DUP3 ADD MSTORE SWAP1 MLOAD SWAP1 DUP2 SWAP1 SUB PUSH1 0x64 ADD SWAP1 REVERT JUMPDEST DUP4 DUP6 PUSH1 0x1 PUSH1 0x1 PUSH1 0xA0 SHL SUB AND PUSH4 0x70A08231 CALLER PUSH1 0x40 MLOAD DUP3 PUSH4 0xFFFFFFFF AND PUSH1 0xE0 SHL DUP2 MSTORE PUSH1 0x4 ADD DUP1 DUP3 PUSH1 0x1 PUSH1 0x1 PUSH1 0xA0 SHL SUB AND DUP2 MSTORE PUSH1 0x20 ADD SWAP2 POP POP PUSH1 0x20 PUSH1 0x40 MLOAD DUP1 DUP4 SUB DUP2 DUP7 DUP1 EXTCODESIZE ISZERO DUP1 ISZERO PUSH2 0x41E JUMPI PUSH1 0x0 DUP1 REVERT JUMPDEST POP GAS STATICCALL ISZERO DUP1 ISZERO PUSH2 0x432 JUMPI RETURNDATASIZE PUSH1 0x0 DUP1 RETURNDATACOPY RETURNDATASIZE PUSH1 0x0 REVERT JUMPDEST POP POP POP POP PUSH1 0x40 MLOAD RETURNDATASIZE PUSH1 0x20 DUP2 LT ISZERO PUSH2 0x448 JUMPI PUSH1 0x0 DUP1 REVERT JUMPDEST POP MLOAD LT ISZERO PUSH2 0x494 JUMPI PUSH1 0x40 DUP1 MLOAD PUSH3 0x461BCD PUSH1 0xE5 SHL DUP2 MSTORE PUSH1 0x20 PUSH1 0x4 DUP3 ADD MSTORE PUSH1 0x14 PUSH1 0x24 DUP3 ADD MSTORE PUSH20 0x496E73756666696369656E742062616C616E6365 PUSH1 0x60 SHL PUSH1 0x44 DUP3 ADD MSTORE SWAP1 MLOAD SWAP1 DUP2 SWAP1 SUB PUSH1 0x64 ADD SWAP1 REVERT JUMPDEST PUSH2 0x4A9 PUSH1 0x1 PUSH1 0x1 PUSH1 0xA0 SHL SUB DUP7 AND CALLER ADDRESS DUP8 PUSH2 0x9A8 JUMP JUMPDEST PUSH1 0x0 PUSH1 0x64 DUP5 LT PUSH2 0x4B9 JUMPI DUP5 PUSH2 0x4CE JUMP JUMPDEST PUSH2 0x4CE PUSH1 0x64 PUSH2 0x4C8 DUP8 DUP8 PUSH2 0xA08 JUMP JUMPDEST SWAP1 PUSH2 0xA6A JUMP JUMPDEST SWAP1 POP PUSH1 0x0 PUSH2 0x4DC DUP7 DUP4 PUSH2 0xAAC JUMP JUMPDEST PUSH1 0x4 DUP1 SLOAD PUSH1 0x40 DUP1 MLOAD PUSH4 0x70A08231 PUSH1 0xE0 SHL DUP2 MSTORE ADDRESS SWAP4 DUP2 ADD SWAP4 SWAP1 SWAP4 MSTORE MLOAD SWAP3 SWAP4 POP PUSH1 0x0 SWAP3 PUSH1 0x1 PUSH1 0x1 PUSH1 0xA0 SHL SUB SWAP1 SWAP2 AND SWAP2 PUSH4 0x70A08231 SWAP2 PUSH1 0x24 DUP1 DUP4 ADD SWAP3 PUSH1 0x20 SWAP3 SWAP2 SWAP1 DUP3 SWAP1 SUB ADD DUP2 DUP7 DUP1 EXTCODESIZE ISZERO DUP1 ISZERO PUSH2 0x52E JUMPI PUSH1 0x0 DUP1 REVERT JUMPDEST POP GAS STATICCALL ISZERO DUP1 ISZERO PUSH2 0x542 JUMPI RETURNDATASIZE PUSH1 0x0 DUP1 RETURNDATACOPY RETURNDATASIZE PUSH1 0x0 REVERT JUMPDEST POP POP POP POP PUSH1 0x40 MLOAD RETURNDATASIZE PUSH1 0x20 DUP2 LT ISZERO PUSH2 0x558 JUMPI PUSH1 0x0 DUP1 REVERT JUMPDEST POP MLOAD PUSH1 0x5 SLOAD PUSH1 0x40 DUP1 MLOAD PUSH4 0x70A08231 PUSH1 0xE0 SHL DUP2 MSTORE ADDRESS PUSH1 0x4 DUP3 ADD MSTORE SWAP1 MLOAD SWAP3 SWAP4 POP PUSH1 0x0 SWAP3 PUSH1 0x1 PUSH1 0x1 PUSH1 0xA0 SHL SUB SWAP1 SWAP3 AND SWAP2 PUSH4 0x70A08231 SWAP2 PUSH1 0x24 DUP1 DUP3 ADD SWAP3 PUSH1 0x20 SWAP3 SWAP1 SWAP2 SWAP1 DUP3 SWAP1 SUB ADD DUP2 DUP7 DUP1 EXTCODESIZE ISZERO DUP1 ISZERO PUSH2 0x5AB JUMPI PUSH1 0x0 DUP1 REVERT JUMPDEST POP GAS STATICCALL ISZERO DUP1 ISZERO PUSH2 0x5BF JUMPI RETURNDATASIZE PUSH1 0x0 DUP1 RETURNDATACOPY RETURNDATASIZE PUSH1 0x0 REVERT JUMPDEST POP POP POP POP PUSH1 0x40 MLOAD RETURNDATASIZE PUSH1 0x20 DUP2 LT ISZERO PUSH2 0x5D5 JUMPI PUSH1 0x0 DUP1 REVERT JUMPDEST POP MLOAD SWAP1 POP PUSH2 0x5E3 DUP10 DUP6 PUSH2 0xAEE JUMP JUMPDEST ISZERO PUSH2 0x667 JUMPI PUSH1 0x1 SLOAD PUSH1 0x4 DUP1 SLOAD PUSH1 0x40 DUP1 MLOAD PUSH4 0x84767627 PUSH1 0xE0 SHL DUP2 MSTORE PUSH1 0x1 PUSH1 0x1 PUSH1 0xA0 SHL SUB DUP15 DUP2 AND SWAP5 DUP3 ADD SWAP5 SWAP1 SWAP5 MSTORE PUSH1 0x24 DUP2 ADD DUP10 SWAP1 MSTORE SWAP2 DUP4 AND PUSH1 0x44 DUP4 ADD MSTORE MLOAD SWAP2 SWAP1 SWAP3 AND SWAP2 PUSH4 0x84767627 SWAP2 PUSH1 0x64 DUP1 DUP4 ADD SWAP3 PUSH1 0x0 SWAP3 SWAP2 SWAP1 DUP3 SWAP1 SUB ADD DUP2 DUP4 DUP8 DUP1 EXTCODESIZE ISZERO DUP1 ISZERO PUSH2 0x64A JUMPI PUSH1 0x0 DUP1 REVERT JUMPDEST POP GAS CALL ISZERO DUP1 ISZERO PUSH2 0x65E JUMPI RETURNDATASIZE PUSH1 0x0 DUP1 RETURNDATACOPY RETURNDATASIZE PUSH1 0x0 REVERT JUMPDEST POP POP POP POP PUSH2 0x67B JUMP JUMPDEST PUSH2 0x67B PUSH1 0x1 PUSH1 0x1 PUSH1 0xA0 SHL SUB DUP11 AND CALLER DUP7 PUSH2 0x956 JUMP JUMPDEST PUSH2 0x685 DUP10 DUP5 PUSH2 0xAEE JUMP JUMPDEST ISZERO PUSH2 0x707 JUMPI PUSH1 0x1 SLOAD PUSH1 0x5 SLOAD PUSH1 0x40 DUP1 MLOAD PUSH4 0x84767627 PUSH1 0xE0 SHL DUP2 MSTORE PUSH1 0x1 PUSH1 0x1 PUSH1 0xA0 SHL SUB DUP14 DUP2 AND PUSH1 0x4 DUP4 ADD MSTORE PUSH1 0x24 DUP3 ADD DUP9 SWAP1 MSTORE SWAP3 DUP4 AND PUSH1 0x44 DUP3 ADD MSTORE SWAP1 MLOAD SWAP2 SWAP1 SWAP3 AND SWAP2 PUSH4 0x84767627 SWAP2 PUSH1 0x64 DUP1 DUP4 ADD SWAP3 PUSH1 0x0 SWAP3 SWAP2 SWAP1 DUP3 SWAP1 SUB ADD DUP2 DUP4 DUP8 DUP1 EXTCODESIZE ISZERO DUP1 ISZERO PUSH2 0x6EA JUMPI PUSH1 0x0 DUP1 REVERT JUMPDEST POP GAS CALL ISZERO DUP1 ISZERO PUSH2 0x6FE JUMPI RETURNDATASIZE PUSH1 0x0 DUP1 RETURNDATACOPY RETURNDATASIZE PUSH1 0x0 REVERT JUMPDEST POP POP POP POP PUSH2 0x71B JUMP JUMPDEST PUSH2 0x71B PUSH1 0x1 PUSH1 0x1 PUSH1 0xA0 SHL SUB DUP11 AND CALLER DUP6 PUSH2 0x956 JUMP JUMPDEST PUSH1 0x4 DUP1 SLOAD PUSH1 0x40 DUP1 MLOAD PUSH4 0x70A08231 PUSH1 0xE0 SHL DUP2 MSTORE ADDRESS SWAP4 DUP2 ADD SWAP4 SWAP1 SWAP4 MSTORE MLOAD PUSH1 0x0 SWAP3 PUSH2 0x7A2 SWAP3 DUP7 SWAP3 PUSH1 0x1 PUSH1 0x1 PUSH1 0xA0 SHL SUB SWAP1 SWAP2 AND SWAP2 PUSH4 0x70A08231 SWAP2 PUSH1 0x24 DUP1 DUP4 ADD SWAP3 PUSH1 0x20 SWAP3 SWAP2 SWAP1 DUP3 SWAP1 SUB ADD DUP2 DUP7 DUP1 EXTCODESIZE ISZERO DUP1 ISZERO PUSH2 0x770 JUMPI PUSH1 0x0 DUP1 REVERT JUMPDEST POP GAS STATICCALL ISZERO DUP1 ISZERO PUSH2 0x784 JUMPI RETURNDATASIZE PUSH1 0x0 DUP1 RETURNDATACOPY RETURNDATASIZE PUSH1 0x0 REVERT JUMPDEST POP POP POP POP PUSH1 0x40 MLOAD RETURNDATASIZE PUSH1 0x20 DUP2 LT ISZERO PUSH2 0x79A JUMPI PUSH1 0x0 DUP1 REVERT JUMPDEST POP MLOAD SWAP1 PUSH2 0xAAC JUMP JUMPDEST PUSH1 0x5 SLOAD PUSH1 0x40 DUP1 MLOAD PUSH4 0x70A08231 PUSH1 0xE0 SHL DUP2 MSTORE ADDRESS PUSH1 0x4 DUP3 ADD MSTORE SWAP1 MLOAD SWAP3 SWAP4 POP PUSH1 0x0 SWAP3 PUSH2 0x7F9 SWAP3 DUP7 SWAP3 PUSH1 0x1 PUSH1 0x1 PUSH1 0xA0 SHL SUB SWAP1 SWAP2 AND SWAP2 PUSH4 0x70A08231 SWAP2 PUSH1 0x24 DUP1 DUP3 ADD SWAP3 PUSH1 0x20 SWAP3 SWAP1 SWAP2 SWAP1 DUP3 SWAP1 SUB ADD DUP2 DUP7 DUP1 EXTCODESIZE ISZERO DUP1 ISZERO PUSH2 0x770 JUMPI PUSH1 0x0 DUP1 REVERT JUMPDEST SWAP1 POP DUP2 ISZERO PUSH2 0x818 JUMPI PUSH1 0x4 SLOAD PUSH2 0x818 SWAP1 PUSH1 0x1 PUSH1 0x1 PUSH1 0xA0 SHL SUB AND CALLER DUP5 PUSH2 0x956 JUMP JUMPDEST DUP1 ISZERO PUSH2 0x835 JUMPI PUSH1 0x5 SLOAD PUSH2 0x835 SWAP1 PUSH1 0x1 PUSH1 0x1 PUSH1 0xA0 SHL SUB AND CALLER DUP4 PUSH2 0x956 JUMP JUMPDEST SWAP1 SWAP11 SWAP1 SWAP10 POP SWAP8 POP POP POP POP POP POP POP POP JUMP JUMPDEST PUSH1 0x2 SLOAD PUSH1 0x1 PUSH1 0x1 PUSH1 0xA0 SHL SUB AND DUP2 JUMP JUMPDEST PUSH1 0x6 SLOAD PUSH1 0x1 PUSH1 0x1 PUSH1 0xA0 SHL SUB AND CALLER EQ PUSH2 0x89D JUMPI PUSH1 0x40 MLOAD PUSH3 0x461BCD PUSH1 0xE5 SHL DUP2 MSTORE PUSH1 0x4 ADD DUP1 DUP1 PUSH1 0x20 ADD DUP3 DUP2 SUB DUP3 MSTORE PUSH1 0x24 DUP2 MSTORE PUSH1 0x20 ADD DUP1 PUSH2 0xE0D PUSH1 0x24 SWAP2 CODECOPY PUSH1 0x40 ADD SWAP2 POP POP PUSH1 0x40 MLOAD DUP1 SWAP2 SUB SWAP1 REVERT JUMPDEST PUSH1 0x1 SLOAD PUSH1 0x40 DUP1 MLOAD PUSH4 0x95EA7B3 PUSH1 0xE0 SHL DUP2 MSTORE PUSH1 0x1 PUSH1 0x1 PUSH1 0xA0 SHL SUB SWAP3 DUP4 AND PUSH1 0x4 DUP3 ADD MSTORE PUSH1 0x0 NOT PUSH1 0x24 DUP3 ADD MSTORE SWAP1 MLOAD SWAP2 DUP4 AND SWAP2 PUSH4 0x95EA7B3 SWAP2 PUSH1 0x44 DUP1 DUP3 ADD SWAP3 PUSH1 0x20 SWAP3 SWAP1 SWAP2 SWAP1 DUP3 SWAP1 SUB ADD DUP2 PUSH1 0x0 DUP8 DUP1 EXTCODESIZE ISZERO DUP1 ISZERO PUSH2 0x8F4 JUMPI PUSH1 0x0 DUP1 REVERT JUMPDEST POP GAS CALL ISZERO DUP1 ISZERO PUSH2 0x908 JUMPI RETURNDATASIZE PUSH1 0x0 DUP1 RETURNDATACOPY RETURNDATASIZE PUSH1 0x0 REVERT JUMPDEST POP POP POP POP PUSH1 0x40 MLOAD RETURNDATASIZE PUSH1 0x20 DUP2 LT ISZERO PUSH2 0x91E JUMPI PUSH1 0x0 DUP1 REVERT JUMPDEST POP POP POP JUMP JUMPDEST PUSH1 0x5 SLOAD PUSH1 0x1 PUSH1 0x1 PUSH1 0xA0 SHL SUB AND DUP2 JUMP JUMPDEST PUSH1 0x1 SLOAD PUSH1 0x1 PUSH1 0x1 PUSH1 0xA0 SHL SUB AND DUP2 JUMP JUMPDEST PUSH1 0x3 SLOAD PUSH1 0x1 PUSH1 0x1 PUSH1 0xA0 SHL SUB AND DUP2 JUMP JUMPDEST PUSH1 0x7 SLOAD DUP2 JUMP JUMPDEST PUSH1 0x40 DUP1 MLOAD PUSH1 0x1 PUSH1 0x1 PUSH1 0xA0 SHL SUB DUP5 AND PUSH1 0x24 DUP3 ADD MSTORE PUSH1 0x44 DUP1 DUP3 ADD DUP5 SWAP1 MSTORE DUP3 MLOAD DUP1 DUP4 SUB SWAP1 SWAP2 ADD DUP2 MSTORE PUSH1 0x64 SWAP1 SWAP2 ADD SWAP1 SWAP2 MSTORE PUSH1 0x20 DUP2 ADD DUP1 MLOAD PUSH1 0x1 PUSH1 0x1 PUSH1 0xE0 SHL SUB AND PUSH4 0xA9059CBB PUSH1 0xE0 SHL OR SWAP1 MSTORE PUSH2 0x91E SWAP1 DUP5 SWAP1 PUSH2 0xB1C JUMP JUMPDEST PUSH1 0x40 DUP1 MLOAD PUSH1 0x1 PUSH1 0x1 PUSH1 0xA0 SHL SUB DUP1 DUP7 AND PUSH1 0x24 DUP4 ADD MSTORE DUP5 AND PUSH1 0x44 DUP3 ADD MSTORE PUSH1 0x64 DUP1 DUP3 ADD DUP5 SWAP1 MSTORE DUP3 MLOAD DUP1 DUP4 SUB SWAP1 SWAP2 ADD DUP2 MSTORE PUSH1 0x84 SWAP1 SWAP2 ADD SWAP1 SWAP2 MSTORE PUSH1 0x20 DUP2 ADD DUP1 MLOAD PUSH1 0x1 PUSH1 0x1 PUSH1 0xE0 SHL SUB AND PUSH4 0x23B872DD PUSH1 0xE0 SHL OR SWAP1 MSTORE PUSH2 0xA02 SWAP1 DUP6 SWAP1 PUSH2 0xB1C JUMP JUMPDEST POP POP POP POP JUMP JUMPDEST PUSH1 0x0 DUP3 PUSH2 0xA17 JUMPI POP PUSH1 0x0 PUSH2 0xA64 JUMP JUMPDEST DUP3 DUP3 MUL DUP3 DUP5 DUP3 DUP2 PUSH2 0xA24 JUMPI INVALID JUMPDEST DIV EQ PUSH2 0xA61 JUMPI PUSH1 0x40 MLOAD PUSH3 0x461BCD PUSH1 0xE5 SHL DUP2 MSTORE PUSH1 0x4 ADD DUP1 DUP1 PUSH1 0x20 ADD DUP3 DUP2 SUB DUP3 MSTORE PUSH1 0x21 DUP2 MSTORE PUSH1 0x20 ADD DUP1 PUSH2 0xE31 PUSH1 0x21 SWAP2 CODECOPY PUSH1 0x40 ADD SWAP2 POP POP PUSH1 0x40 MLOAD DUP1 SWAP2 SUB SWAP1 REVERT JUMPDEST SWAP1 POP JUMPDEST SWAP3 SWAP2 POP POP JUMP JUMPDEST PUSH1 0x0 PUSH2 0xA61 DUP4 DUP4 PUSH1 0x40 MLOAD DUP1 PUSH1 0x40 ADD PUSH1 0x40 MSTORE DUP1 PUSH1 0x1A DUP2 MSTORE PUSH1 0x20 ADD PUSH32 0x536166654D6174683A206469766973696F6E206279207A65726F000000000000 DUP2 MSTORE POP PUSH2 0xCD4 JUMP JUMPDEST PUSH1 0x0 PUSH2 0xA61 DUP4 DUP4 PUSH1 0x40 MLOAD DUP1 PUSH1 0x40 ADD PUSH1 0x40 MSTORE DUP1 PUSH1 0x1E DUP2 MSTORE PUSH1 0x20 ADD PUSH32 0x536166654D6174683A207375627472616374696F6E206F766572666C6F770000 DUP2 MSTORE POP PUSH2 0xD76 JUMP JUMPDEST PUSH1 0x2 SLOAD PUSH1 0x0 SWAP1 PUSH1 0x1 PUSH1 0x1 PUSH1 0xA0 SHL SUB DUP5 DUP2 AND SWAP2 AND EQ PUSH2 0xB11 JUMPI PUSH1 0x7 SLOAD DUP3 LT ISZERO PUSH2 0xA61 JUMP JUMPDEST POP PUSH1 0x8 SLOAD GT ISZERO SWAP2 SWAP1 POP JUMP JUMPDEST PUSH2 0xB2E DUP3 PUSH1 0x1 PUSH1 0x1 PUSH1 0xA0 SHL SUB AND PUSH2 0xDD0 JUMP JUMPDEST PUSH2 0xB7F JUMPI PUSH1 0x40 DUP1 MLOAD PUSH3 0x461BCD PUSH1 0xE5 SHL DUP2 MSTORE PUSH1 0x20 PUSH1 0x4 DUP3 ADD MSTORE PUSH1 0x1F PUSH1 0x24 DUP3 ADD MSTORE PUSH32 0x5361666545524332303A2063616C6C20746F206E6F6E2D636F6E747261637400 PUSH1 0x44 DUP3 ADD MSTORE SWAP1 MLOAD SWAP1 DUP2 SWAP1 SUB PUSH1 0x64 ADD SWAP1 REVERT JUMPDEST PUSH1 0x0 PUSH1 0x60 DUP4 PUSH1 0x1 PUSH1 0x1 PUSH1 0xA0 SHL SUB AND DUP4 PUSH1 0x40 MLOAD DUP1 DUP3 DUP1 MLOAD SWAP1 PUSH1 0x20 ADD SWAP1 DUP1 DUP4 DUP4 JUMPDEST PUSH1 0x20 DUP4 LT PUSH2 0xBBD JUMPI DUP1 MLOAD DUP3 MSTORE PUSH1 0x1F NOT SWAP1 SWAP3 ADD SWAP2 PUSH1 0x20 SWAP2 DUP3 ADD SWAP2 ADD PUSH2 0xB9E JUMP JUMPDEST PUSH1 0x1 DUP4 PUSH1 0x20 SUB PUSH2 0x100 EXP SUB DUP1 NOT DUP3 MLOAD AND DUP2 DUP5 MLOAD AND DUP1 DUP3 OR DUP6 MSTORE POP POP POP POP POP POP SWAP1 POP ADD SWAP2 POP POP PUSH1 0x0 PUSH1 0x40 MLOAD DUP1 DUP4 SUB DUP2 PUSH1 0x0 DUP7 GAS CALL SWAP2 POP POP RETURNDATASIZE DUP1 PUSH1 0x0 DUP2 EQ PUSH2 0xC1F JUMPI PUSH1 0x40 MLOAD SWAP2 POP PUSH1 0x1F NOT PUSH1 0x3F RETURNDATASIZE ADD AND DUP3 ADD PUSH1 0x40 MSTORE RETURNDATASIZE DUP3 MSTORE RETURNDATASIZE PUSH1 0x0 PUSH1 0x20 DUP5 ADD RETURNDATACOPY PUSH2 0xC24 JUMP JUMPDEST PUSH1 0x60 SWAP2 POP JUMPDEST POP SWAP2 POP SWAP2 POP DUP2 PUSH2 0xC7B JUMPI PUSH1 0x40 DUP1 MLOAD PUSH3 0x461BCD PUSH1 0xE5 SHL DUP2 MSTORE PUSH1 0x20 PUSH1 0x4 DUP3 ADD DUP2 SWAP1 MSTORE PUSH1 0x24 DUP3 ADD MSTORE PUSH32 0x5361666545524332303A206C6F772D6C6576656C2063616C6C206661696C6564 PUSH1 0x44 DUP3 ADD MSTORE SWAP1 MLOAD SWAP1 DUP2 SWAP1 SUB PUSH1 0x64 ADD SWAP1 REVERT JUMPDEST DUP1 MLOAD ISZERO PUSH2 0xA02 JUMPI DUP1 DUP1 PUSH1 0x20 ADD SWAP1 MLOAD PUSH1 0x20 DUP2 LT ISZERO PUSH2 0xC97 JUMPI PUSH1 0x0 DUP1 REVERT JUMPDEST POP MLOAD PUSH2 0xA02 JUMPI PUSH1 0x40 MLOAD PUSH3 0x461BCD PUSH1 0xE5 SHL DUP2 MSTORE PUSH1 0x4 ADD DUP1 DUP1 PUSH1 0x20 ADD DUP3 DUP2 SUB DUP3 MSTORE PUSH1 0x2A DUP2 MSTORE PUSH1 0x20 ADD DUP1 PUSH2 0xE52 PUSH1 0x2A SWAP2 CODECOPY PUSH1 0x40 ADD SWAP2 POP POP PUSH1 0x40 MLOAD DUP1 SWAP2 SUB SWAP1 REVERT JUMPDEST PUSH1 0x0 DUP2 DUP4 PUSH2 0xD60 JUMPI PUSH1 0x40 MLOAD PUSH3 0x461BCD PUSH1 0xE5 SHL DUP2 MSTORE PUSH1 0x4 ADD DUP1 DUP1 PUSH1 0x20 ADD DUP3 DUP2 SUB DUP3 MSTORE DUP4 DUP2 DUP2 MLOAD DUP2 MSTORE PUSH1 0x20 ADD SWAP2 POP DUP1 MLOAD SWAP1 PUSH1 0x20 ADD SWAP1 DUP1 DUP4 DUP4 PUSH1 0x0 JUMPDEST DUP4 DUP2 LT ISZERO PUSH2 0xD25 JUMPI DUP2 DUP2 ADD MLOAD DUP4 DUP3 ADD MSTORE PUSH1 0x20 ADD PUSH2 0xD0D JUMP JUMPDEST POP POP POP POP SWAP1 POP SWAP1 DUP2 ADD SWAP1 PUSH1 0x1F AND DUP1 ISZERO PUSH2 0xD52 JUMPI DUP1 DUP3 SUB DUP1 MLOAD PUSH1 0x1 DUP4 PUSH1 0x20 SUB PUSH2 0x100 EXP SUB NOT AND DUP2 MSTORE PUSH1 0x20 ADD SWAP2 POP JUMPDEST POP SWAP3 POP POP POP PUSH1 0x40 MLOAD DUP1 SWAP2 SUB SWAP1 REVERT JUMPDEST POP PUSH1 0x0 DUP4 DUP6 DUP2 PUSH2 0xD6C JUMPI INVALID JUMPDEST DIV SWAP6 SWAP5 POP POP POP POP POP JUMP JUMPDEST PUSH1 0x0 DUP2 DUP5 DUP5 GT ISZERO PUSH2 0xDC8 JUMPI PUSH1 0x40 MLOAD PUSH3 0x461BCD PUSH1 0xE5 SHL DUP2 MSTORE PUSH1 0x20 PUSH1 0x4 DUP3 ADD DUP2 DUP2 MSTORE DUP4 MLOAD PUSH1 0x24 DUP5 ADD MSTORE DUP4 MLOAD SWAP1 SWAP3 DUP4 SWAP3 PUSH1 0x44 SWAP1 SWAP2 ADD SWAP2 SWAP1 DUP6 ADD SWAP1 DUP1 DUP4 DUP4 PUSH1 0x0 DUP4 ISZERO PUSH2 0xD25 JUMPI DUP2 DUP2 ADD MLOAD DUP4 DUP3 ADD MSTORE PUSH1 0x20 ADD PUSH2 0xD0D JUMP JUMPDEST POP POP POP SWAP1 SUB SWAP1 JUMP JUMPDEST PUSH1 0x0 DUP2 EXTCODEHASH PUSH32 0xC5D2460186F7233C927E7DB2DCC703C0E500B653CA82273B7BFAD8045D85A470 DUP2 DUP2 EQ DUP1 ISZERO SWAP1 PUSH2 0xE04 JUMPI POP DUP2 ISZERO ISZERO JUMPDEST SWAP5 SWAP4 POP POP POP POP JUMP INVALID MSTORE8 PUSH22 0x7065725A61703A2063616C6C6572206973206E6F7420 PUSH21 0x6865206F70657261746F72536166654D6174683A20 PUSH14 0x756C7469706C69636174696F6E20 PUSH16 0x766572666C6F77536166654552433230 GASPRICE KECCAK256 GASLIMIT MSTORE NUMBER ORIGIN ADDRESS KECCAK256 PUSH16 0x7065726174696F6E20646964206E6F74 KECCAK256 PUSH20 0x756363656564A26469706673582212200C84DF82 EXTCODECOPY CALLER BALANCE 0xEC DIV DUP9 LOG2 SHL PUSH6 0xE6F85F14E289 CREATE 0xE8 0xE5 0xC4 SELFBALANCE PUSH31 0x4271932876594C64736F6C634300060C003300000000000000000000000000 "
				},
				"gasEstimates": {
					"creation": {
						"codeDepositCost": "752200",
						"executionCost": "infinite",
						"totalCost": "infinite"
					},
					"external": {
						"approveZapper(address)": "infinite",
						"fudge()": "1037",
						"fudgePair()": "1060",
						"minFudge()": "999",
						"minStraw()": "1108",
						"operator()": "1126",
						"setMins(uint256,uint256)": "infinite",
						"straw()": "1125",
						"strawPair()": "1081",
						"withdraw(address)": "infinite",
						"zapStrategy(address,uint256,uint256)": "infinite",
						"zapper()": "1103"
					},
					"internal": {
						"_checkMin(address,uint256)": "1704"
					}
				},
				"methodIdentifiers": {
					"approveZapper(address)": "85499cfb",
					"fudge()": "741aa610",
					"fudgePair()": "1c15716b",
					"minFudge()": "02c426a8",
					"minStraw()": "d0318d7e",
					"operator()": "570ca735",
					"setMins(uint256,uint256)": "4d4af36f",
					"straw()": "b9b5fd07",
					"strawPair()": "984b163e",
					"withdraw(address)": "51cff8d9",
					"zapStrategy(address,uint256,uint256)": "620b2c73",
					"zapper()": "a7a21712"
				}
			},
			"storageLayout": {
				"storage": [
					{
						"astId": 566,
						"contract": "contracts/Super-Zap.sol:SuperZap",
						"label": "_status",
						"offset": 0,
						"slot": "0",
						"type": "t_mapping(t_uint256,t_mapping(t_address,t_bool))"
					},
					{
						"astId": 657,
						"contract": "contracts/Super-Zap.sol:SuperZap",
						"label": "zapper",
						"offset": 0,
						"slot": "1",
						"type": "t_contract(IZapper)644"
					},
					{
						"astId": 659,
						"contract": "contracts/Super-Zap.sol:SuperZap",
						"label": "fudge",
						"offset": 0,
						"slot": "2",
						"type": "t_contract(IERC20)77"
					},
					{
						"astId": 661,
						"contract": "contracts/Super-Zap.sol:SuperZap",
						"label": "straw",
						"offset": 0,
						"slot": "3",
						"type": "t_contract(IERC20)77"
					},
					{
						"astId": 663,
						"contract": "contracts/Super-Zap.sol:SuperZap",
						"label": "fudgePair",
						"offset": 0,
						"slot": "4",
						"type": "t_contract(IERC20)77"
					},
					{
						"astId": 665,
						"contract": "contracts/Super-Zap.sol:SuperZap",
						"label": "strawPair",
						"offset": 0,
						"slot": "5",
						"type": "t_contract(IERC20)77"
					},
					{
						"astId": 667,
						"contract": "contracts/Super-Zap.sol:SuperZap",
						"label": "operator",
						"offset": 0,
						"slot": "6",
						"type": "t_address"
					},
					{
						"astId": 669,
						"contract": "contracts/Super-Zap.sol:SuperZap",
						"label": "minStraw",
						"offset": 0,
						"slot": "7",
						"type": "t_uint256"
					},
					{
						"astId": 671,
						"contract": "contracts/Super-Zap.sol:SuperZap",
						"label": "minFudge",
						"offset": 0,
						"slot": "8",
						"type": "t_uint256"
					}
				],
				"types": {
					"t_address": {
						"encoding": "inplace",
						"label": "address",
						"numberOfBytes": "20"
					},
					"t_bool": {
						"encoding": "inplace",
						"label": "bool",
						"numberOfBytes": "1"
					},
					"t_contract(IERC20)77": {
						"encoding": "inplace",
						"label": "contract IERC20",
						"numberOfBytes": "20"
					},
					"t_contract(IZapper)644": {
						"encoding": "inplace",
						"label": "contract IZapper",
						"numberOfBytes": "20"
					},
					"t_mapping(t_address,t_bool)": {
						"encoding": "mapping",
						"key": "t_address",
						"label": "mapping(address => bool)",
						"numberOfBytes": "32",
						"value": "t_bool"
					},
					"t_mapping(t_uint256,t_mapping(t_address,t_bool))": {
						"encoding": "mapping",
						"key": "t_uint256",
						"label": "mapping(uint256 => mapping(address => bool))",
						"numberOfBytes": "32",
						"value": "t_mapping(t_address,t_bool)"
					},
					"t_uint256": {
						"encoding": "inplace",
						"label": "uint256",
						"numberOfBytes": "32"
					}
				}
			},
			"userdoc": {
				"kind": "user",
				"methods": {},
				"version": 1
			}
		}
	}
}