{
	"contracts/Super-Zap.sol": {
		"SuperZap": {
			"abi": [
				{
					"inputs": [
						{
							"internalType": "address",
							"name": "_zapper",
							"type": "address"
						},
						{
							"internalType": "address",
							"name": "_fudge",
							"type": "address"
						},
						{
							"internalType": "address",
							"name": "_straw",
							"type": "address"
						},
						{
							"internalType": "address",
							"name": "_fudgePair",
							"type": "address"
						},
						{
							"internalType": "address",
							"name": "_strawPair",
							"type": "address"
						}
					],
					"stateMutability": "nonpayable",
					"type": "constructor"
				},
				{
					"inputs": [
						{
							"internalType": "address",
							"name": "asset",
							"type": "address"
						}
					],
					"name": "approveZapper",
					"outputs": [],
					"stateMutability": "nonpayable",
					"type": "function"
				},
				{
					"inputs": [],
					"name": "fudge",
					"outputs": [
						{
							"internalType": "contract IERC20",
							"name": "",
							"type": "address"
						}
					],
					"stateMutability": "view",
					"type": "function"
				},
				{
					"inputs": [],
					"name": "fudgePair",
					"outputs": [
						{
							"internalType": "contract IERC20",
							"name": "",
							"type": "address"
						}
					],
					"stateMutability": "view",
					"type": "function"
				},
				{
					"inputs": [],
					"name": "minFudge",
					"outputs": [
						{
							"internalType": "uint256",
							"name": "",
							"type": "uint256"
						}
					],
					"stateMutability": "view",
					"type": "function"
				},
				{
					"inputs": [],
					"name": "minStraw",
					"outputs": [
						{
							"internalType": "uint256",
							"name": "",
							"type": "uint256"
						}
					],
					"stateMutability": "view",
					"type": "function"
				},
				{
					"inputs": [],
					"name": "operator",
					"outputs": [
						{
							"internalType": "address",
							"name": "",
							"type": "address"
						}
					],
					"stateMutability": "view",
					"type": "function"
				},
				{
					"inputs": [
						{
							"internalType": "uint256",
							"name": "_minStraw",
							"type": "uint256"
						},
						{
							"internalType": "uint256",
							"name": "_minFudge",
							"type": "uint256"
						}
					],
					"name": "setMins",
					"outputs": [],
					"stateMutability": "nonpayable",
					"type": "function"
				},
				{
					"inputs": [],
					"name": "straw",
					"outputs": [
						{
							"internalType": "contract IERC20",
							"name": "",
							"type": "address"
						}
					],
					"stateMutability": "view",
					"type": "function"
				},
				{
					"inputs": [],
					"name": "strawPair",
					"outputs": [
						{
							"internalType": "contract IERC20",
							"name": "",
							"type": "address"
						}
					],
					"stateMutability": "view",
					"type": "function"
				},
				{
					"inputs": [
						{
							"internalType": "address",
							"name": "asset",
							"type": "address"
						}
					],
					"name": "withdraw",
					"outputs": [],
					"stateMutability": "nonpayable",
					"type": "function"
				},
				{
					"inputs": [
						{
							"internalType": "address",
							"name": "from",
							"type": "address"
						},
						{
							"internalType": "uint256",
							"name": "amount",
							"type": "uint256"
						},
						{
							"internalType": "uint256",
							"name": "percentFudgeLP",
							"type": "uint256"
						}
					],
					"name": "zapStrategy",
					"outputs": [
						{
							"internalType": "uint256",
							"name": "",
							"type": "uint256"
						},
						{
							"internalType": "uint256",
							"name": "",
							"type": "uint256"
						}
					],
					"stateMutability": "nonpayable",
					"type": "function"
				},
				{
					"inputs": [],
					"name": "zapper",
					"outputs": [
						{
							"internalType": "contract IZapper",
							"name": "",
							"type": "address"
						}
					],
					"stateMutability": "view",
					"type": "function"
				}
			],
			"devdoc": {
				"kind": "dev",
				"methods": {},
				"version": 1
			},
			"evm": {
				"assembly": "    /* \"contracts/Super-Zap.sol\":15881:19227  contract SuperZap is ContractGuard {\r... */\n  mstore(0x40, 0x80)\n    /* \"contracts/Super-Zap.sol\":16255:16770  constructor(address _zapper, address _fudge, address _straw, address _fudgePair, address _strawPair) public {\r... */\n  callvalue\n  dup1\n  iszero\n  tag_1\n  jumpi\n  0x00\n  dup1\n  revert\ntag_1:\n  pop\n  mload(0x40)\n  sub(codesize, bytecodeSize)\n  dup1\n  bytecodeSize\n  dup4\n  codecopy\n  dup2\n  dup2\n  add\n  0x40\n  mstore\n  0xa0\n  dup2\n  lt\n  iszero\n  tag_2\n  jumpi\n  0x00\n  dup1\n  revert\ntag_2:\n  dup2\n  add\n  swap1\n  dup1\n  dup1\n  mload\n  swap1\n  0x20\n  add\n  swap1\n  swap3\n  swap2\n  swap1\n  dup1\n  mload\n  swap1\n  0x20\n  add\n  swap1\n  swap3\n  swap2\n  swap1\n  dup1\n  mload\n  swap1\n  0x20\n  add\n  swap1\n  swap3\n  swap2\n  swap1\n  dup1\n  mload\n  swap1\n  0x20\n  add\n  swap1\n  swap3\n  swap2\n  swap1\n  dup1\n  mload\n  swap1\n  0x20\n  add\n  swap1\n  swap3\n  swap2\n  swap1\n  pop\n  pop\n  pop\n    /* \"contracts/Super-Zap.sol\":16391:16398  _zapper */\n  dup5\n    /* \"contracts/Super-Zap.sol\":16374:16380  zapper */\n  0x01\n  0x00\n    /* \"contracts/Super-Zap.sol\":16374:16399  zapper = IZapper(_zapper) */\n  0x0100\n  exp\n  dup2\n  sload\n  dup2\n  0xffffffffffffffffffffffffffffffffffffffff\n  mul\n  not\n  and\n  swap1\n  dup4\n  0xffffffffffffffffffffffffffffffffffffffff\n  and\n  mul\n  or\n  swap1\n  sstore\n  pop\n    /* \"contracts/Super-Zap.sol\":16425:16431  _fudge */\n  dup4\n    /* \"contracts/Super-Zap.sol\":16410:16415  fudge */\n  0x02\n  0x00\n    /* \"contracts/Super-Zap.sol\":16410:16432  fudge = IERC20(_fudge) */\n  0x0100\n  exp\n  dup2\n  sload\n  dup2\n  0xffffffffffffffffffffffffffffffffffffffff\n  mul\n  not\n  and\n  swap1\n  dup4\n  0xffffffffffffffffffffffffffffffffffffffff\n  and\n  mul\n  or\n  swap1\n  sstore\n  pop\n    /* \"contracts/Super-Zap.sol\":16458:16464  _straw */\n  dup3\n    /* \"contracts/Super-Zap.sol\":16443:16448  straw */\n  0x03\n  0x00\n    /* \"contracts/Super-Zap.sol\":16443:16465  straw = IERC20(_straw) */\n  0x0100\n  exp\n  dup2\n  sload\n  dup2\n  0xffffffffffffffffffffffffffffffffffffffff\n  mul\n  not\n  and\n  swap1\n  dup4\n  0xffffffffffffffffffffffffffffffffffffffff\n  and\n  mul\n  or\n  swap1\n  sstore\n  pop\n    /* \"contracts/Super-Zap.sol\":16495:16505  _fudgePair */\n  dup2\n    /* \"contracts/Super-Zap.sol\":16476:16485  fudgePair */\n  0x04\n  0x00\n    /* \"contracts/Super-Zap.sol\":16476:16506  fudgePair = IERC20(_fudgePair) */\n  0x0100\n  exp\n  dup2\n  sload\n  dup2\n  0xffffffffffffffffffffffffffffffffffffffff\n  mul\n  not\n  and\n  swap1\n  dup4\n  0xffffffffffffffffffffffffffffffffffffffff\n  and\n  mul\n  or\n  swap1\n  sstore\n  pop\n    /* \"contracts/Super-Zap.sol\":16536:16546  _strawPair */\n  dup1\n    /* \"contracts/Super-Zap.sol\":16517:16526  strawPair */\n  0x05\n  0x00\n    /* \"contracts/Super-Zap.sol\":16517:16547  strawPair = IERC20(_strawPair) */\n  0x0100\n  exp\n  dup2\n  sload\n  dup2\n  0xffffffffffffffffffffffffffffffffffffffff\n  mul\n  not\n  and\n  swap1\n  dup4\n  0xffffffffffffffffffffffffffffffffffffffff\n  and\n  mul\n  or\n  swap1\n  sstore\n  pop\n    /* \"contracts/Super-Zap.sol\":16569:16579  msg.sender */\n  caller\n    /* \"contracts/Super-Zap.sol\":16558:16566  operator */\n  0x06\n  0x00\n    /* \"contracts/Super-Zap.sol\":16558:16579  operator = msg.sender */\n  0x0100\n  exp\n  dup2\n  sload\n  dup2\n  0xffffffffffffffffffffffffffffffffffffffff\n  mul\n  not\n  and\n  swap1\n  dup4\n  0xffffffffffffffffffffffffffffffffffffffff\n  and\n  mul\n  or\n  swap1\n  sstore\n  pop\n    /* \"contracts/Super-Zap.sol\":16601:16614  0.0005 * 1e18 */\n  0x01c6bf52634000\n    /* \"contracts/Super-Zap.sol\":16590:16598  minStraw */\n  0x07\n    /* \"contracts/Super-Zap.sol\":16590:16614  minStraw = 0.0005 * 1e18 */\n  dup2\n  swap1\n  sstore\n  pop\n    /* \"contracts/Super-Zap.sol\":16636:16640  1e18 */\n  0x0de0b6b3a7640000\n    /* \"contracts/Super-Zap.sol\":16625:16633  minFudge */\n  0x08\n    /* \"contracts/Super-Zap.sol\":16625:16640  minFudge = 1e18 */\n  dup2\n  swap1\n  sstore\n  pop\n    /* \"contracts/Super-Zap.sol\":16653:16658  fudge */\n  0x02\n  0x00\n  swap1\n  sload\n  swap1\n  0x0100\n  exp\n  swap1\n  div\n  0xffffffffffffffffffffffffffffffffffffffff\n  and\n    /* \"contracts/Super-Zap.sol\":16653:16666  fudge.approve */\n  0xffffffffffffffffffffffffffffffffffffffff\n  and\n  0x095ea7b3\n    /* \"contracts/Super-Zap.sol\":16675:16681  zapper */\n  0x01\n  0x00\n  swap1\n  sload\n  swap1\n  0x0100\n  exp\n  swap1\n  div\n  0xffffffffffffffffffffffffffffffffffffffff\n  and\n    /* \"contracts/Super-Zap.sol\":16684:16701  type(uint256).max */\n  0xffffffffffffffffffffffffffffffffffffffffffffffffffffffffffffffff\n    /* \"contracts/Super-Zap.sol\":16653:16702  fudge.approve(address(zapper), type(uint256).max) */\n  mload(0x40)\n  dup4\n  0xffffffff\n  and\n  0xe0\n  shl\n  dup2\n  mstore\n  0x04\n  add\n  dup1\n  dup4\n  0xffffffffffffffffffffffffffffffffffffffff\n  and\n  dup2\n  mstore\n  0x20\n  add\n  dup3\n  dup2\n  mstore\n  0x20\n  add\n  swap3\n  pop\n  pop\n  pop\n  0x20\n  mload(0x40)\n  dup1\n  dup4\n  sub\n  dup2\n  0x00\n  dup8\n  dup1\n  extcodesize\n  iszero\n  dup1\n  iszero\n  tag_5\n  jumpi\n  0x00\n  dup1\n  revert\ntag_5:\n  pop\n  gas\n  call\n  iszero\n  dup1\n  iszero\n  tag_7\n  jumpi\n  returndatasize\n  0x00\n  dup1\n  returndatacopy\n  revert(0x00, returndatasize)\ntag_7:\n  pop\n  pop\n  pop\n  pop\n  mload(0x40)\n  returndatasize\n  0x20\n  dup2\n  lt\n  iszero\n  tag_8\n  jumpi\n  0x00\n  dup1\n  revert\ntag_8:\n  dup2\n  add\n  swap1\n  dup1\n  dup1\n  mload\n  swap1\n  0x20\n  add\n  swap1\n  swap3\n  swap2\n  swap1\n  pop\n  pop\n  pop\n  pop\n    /* \"contracts/Super-Zap.sol\":16713:16718  straw */\n  0x03\n  0x00\n  swap1\n  sload\n  swap1\n  0x0100\n  exp\n  swap1\n  div\n  0xffffffffffffffffffffffffffffffffffffffff\n  and\n    /* \"contracts/Super-Zap.sol\":16713:16726  straw.approve */\n  0xffffffffffffffffffffffffffffffffffffffff\n  and\n  0x095ea7b3\n    /* \"contracts/Super-Zap.sol\":16735:16741  zapper */\n  0x01\n  0x00\n  swap1\n  sload\n  swap1\n  0x0100\n  exp\n  swap1\n  div\n  0xffffffffffffffffffffffffffffffffffffffff\n  and\n    /* \"contracts/Super-Zap.sol\":16744:16761  type(uint256).max */\n  0xffffffffffffffffffffffffffffffffffffffffffffffffffffffffffffffff\n    /* \"contracts/Super-Zap.sol\":16713:16762  straw.approve(address(zapper), type(uint256).max) */\n  mload(0x40)\n  dup4\n  0xffffffff\n  and\n  0xe0\n  shl\n  dup2\n  mstore\n  0x04\n  add\n  dup1\n  dup4\n  0xffffffffffffffffffffffffffffffffffffffff\n  and\n  dup2\n  mstore\n  0x20\n  add\n  dup3\n  dup2\n  mstore\n  0x20\n  add\n  swap3\n  pop\n  pop\n  pop\n  0x20\n  mload(0x40)\n  dup1\n  dup4\n  sub\n  dup2\n  0x00\n  dup8\n  dup1\n  extcodesize\n  iszero\n  dup1\n  iszero\n  tag_9\n  jumpi\n  0x00\n  dup1\n  revert\ntag_9:\n  pop\n  gas\n  call\n  iszero\n  dup1\n  iszero\n  tag_11\n  jumpi\n  returndatasize\n  0x00\n  dup1\n  returndatacopy\n  revert(0x00, returndatasize)\ntag_11:\n  pop\n  pop\n  pop\n  pop\n  mload(0x40)\n  returndatasize\n  0x20\n  dup2\n  lt\n  iszero\n  tag_12\n  jumpi\n  0x00\n  dup1\n  revert\ntag_12:\n  dup2\n  add\n  swap1\n  dup1\n  dup1\n  mload\n  swap1\n  0x20\n  add\n  swap1\n  swap3\n  swap2\n  swap1\n  pop\n  pop\n  pop\n  pop\n    /* \"contracts/Super-Zap.sol\":16255:16770  constructor(address _zapper, address _fudge, address _straw, address _fudgePair, address _strawPair) public {\r... */\n  pop\n  pop\n  pop\n  pop\n  pop\n    /* \"contracts/Super-Zap.sol\":15881:19227  contract SuperZap is ContractGuard {\r... */\n  dataSize(sub_0)\n  dup1\n  dataOffset(sub_0)\n  0x00\n  codecopy\n  0x00\n  return\nstop\n\nsub_0: assembly {\n        /* \"contracts/Super-Zap.sol\":15881:19227  contract SuperZap is ContractGuard {\r... */\n      mstore(0x40, 0x80)\n      callvalue\n      dup1\n      iszero\n      tag_1\n      jumpi\n      0x00\n      dup1\n      revert\n    tag_1:\n      pop\n      jumpi(tag_2, lt(calldatasize, 0x04))\n      shr(0xe0, calldataload(0x00))\n      dup1\n      0x741aa610\n      gt\n      tag_15\n      jumpi\n      dup1\n      0x741aa610\n      eq\n      tag_9\n      jumpi\n      dup1\n      0x85499cfb\n      eq\n      tag_10\n      jumpi\n      dup1\n      0x984b163e\n      eq\n      tag_11\n      jumpi\n      dup1\n      0xa7a21712\n      eq\n      tag_12\n      jumpi\n      dup1\n      0xb9b5fd07\n      eq\n      tag_13\n      jumpi\n      dup1\n      0xd0318d7e\n      eq\n      tag_14\n      jumpi\n      jump(tag_2)\n    tag_15:\n      dup1\n      0x02c426a8\n      eq\n      tag_3\n      jumpi\n      dup1\n      0x1c15716b\n      eq\n      tag_4\n      jumpi\n      dup1\n      0x4d4af36f\n      eq\n      tag_5\n      jumpi\n      dup1\n      0x51cff8d9\n      eq\n      tag_6\n      jumpi\n      dup1\n      0x570ca735\n      eq\n      tag_7\n      jumpi\n      dup1\n      0x620b2c73\n      eq\n      tag_8\n      jumpi\n    tag_2:\n      0x00\n      dup1\n      revert\n        /* \"contracts/Super-Zap.sol\":16223:16246  uint256 public minFudge */\n    tag_3:\n      tag_16\n      tag_17\n      jump\t// in\n    tag_16:\n      mload(0x40)\n      dup1\n      dup3\n      dup2\n      mstore\n      0x20\n      add\n      swap2\n      pop\n      pop\n      mload(0x40)\n      dup1\n      swap2\n      sub\n      swap1\n      return\n        /* \"contracts/Super-Zap.sol\":16103:16126  IERC20 public fudgePair */\n    tag_4:\n      tag_18\n      tag_19\n      jump\t// in\n    tag_18:\n      mload(0x40)\n      dup1\n      dup3\n      0xffffffffffffffffffffffffffffffffffffffff\n      and\n      dup2\n      mstore\n      0x20\n      add\n      swap2\n      pop\n      pop\n      mload(0x40)\n      dup1\n      swap2\n      sub\n      swap1\n      return\n        /* \"contracts/Super-Zap.sol\":16912:17059  function setMins(uint256 _minStraw, uint256 _minFudge) external onlyOperator {\r... */\n    tag_5:\n      tag_20\n      0x04\n      dup1\n      calldatasize\n      sub\n      0x40\n      dup2\n      lt\n      iszero\n      tag_21\n      jumpi\n      0x00\n      dup1\n      revert\n    tag_21:\n      dup2\n      add\n      swap1\n      dup1\n      dup1\n      calldataload\n      swap1\n      0x20\n      add\n      swap1\n      swap3\n      swap2\n      swap1\n      dup1\n      calldataload\n      swap1\n      0x20\n      add\n      swap1\n      swap3\n      swap2\n      swap1\n      pop\n      pop\n      pop\n      tag_22\n      jump\t// in\n    tag_20:\n      stop\n        /* \"contracts/Super-Zap.sol\":17211:17481  function withdraw(address asset) external onlyOperator {\r... */\n    tag_6:\n      tag_23\n      0x04\n      dup1\n      calldatasize\n      sub\n      0x20\n      dup2\n      lt\n      iszero\n      tag_24\n      jumpi\n      0x00\n      dup1\n      revert\n    tag_24:\n      dup2\n      add\n      swap1\n      dup1\n      dup1\n      calldataload\n      0xffffffffffffffffffffffffffffffffffffffff\n      and\n      swap1\n      0x20\n      add\n      swap1\n      swap3\n      swap2\n      swap1\n      pop\n      pop\n      pop\n      tag_25\n      jump\t// in\n    tag_23:\n      stop\n        /* \"contracts/Super-Zap.sol\":16163:16186  address public operator */\n    tag_7:\n      tag_26\n      tag_27\n      jump\t// in\n    tag_26:\n      mload(0x40)\n      dup1\n      dup3\n      0xffffffffffffffffffffffffffffffffffffffff\n      and\n      dup2\n      mstore\n      0x20\n      add\n      swap2\n      pop\n      pop\n      mload(0x40)\n      dup1\n      swap2\n      sub\n      swap1\n      return\n        /* \"contracts/Super-Zap.sol\":17665:19224  function zapStrategy(address from, uint256 amount, uint256 percentFudgeLP) external returns (uint256, uint256) {\r... */\n    tag_8:\n      tag_28\n      0x04\n      dup1\n      calldatasize\n      sub\n      0x60\n      dup2\n      lt\n      iszero\n      tag_29\n      jumpi\n      0x00\n      dup1\n      revert\n    tag_29:\n      dup2\n      add\n      swap1\n      dup1\n      dup1\n      calldataload\n      0xffffffffffffffffffffffffffffffffffffffff\n      and\n      swap1\n      0x20\n      add\n      swap1\n      swap3\n      swap2\n      swap1\n      dup1\n      calldataload\n      swap1\n      0x20\n      add\n      swap1\n      swap3\n      swap2\n      swap1\n      dup1\n      calldataload\n      swap1\n      0x20\n      add\n      swap1\n      swap3\n      swap2\n      swap1\n      pop\n      pop\n      pop\n      tag_30\n      jump\t// in\n    tag_28:\n      mload(0x40)\n      dup1\n      dup4\n      dup2\n      mstore\n      0x20\n      add\n      dup3\n      dup2\n      mstore\n      0x20\n      add\n      swap3\n      pop\n      pop\n      pop\n      mload(0x40)\n      dup1\n      swap2\n      sub\n      swap1\n      return\n        /* \"contracts/Super-Zap.sol\":16051:16070  IERC20 public fudge */\n    tag_9:\n      tag_31\n      tag_32\n      jump\t// in\n    tag_31:\n      mload(0x40)\n      dup1\n      dup3\n      0xffffffffffffffffffffffffffffffffffffffff\n      and\n      dup2\n      mstore\n      0x20\n      add\n      swap2\n      pop\n      pop\n      mload(0x40)\n      dup1\n      swap2\n      sub\n      swap1\n      return\n        /* \"contracts/Super-Zap.sol\":17067:17203  function approveZapper(address asset) external onlyOperator {\r... */\n    tag_10:\n      tag_33\n      0x04\n      dup1\n      calldatasize\n      sub\n      0x20\n      dup2\n      lt\n      iszero\n      tag_34\n      jumpi\n      0x00\n      dup1\n      revert\n    tag_34:\n      dup2\n      add\n      swap1\n      dup1\n      dup1\n      calldataload\n      0xffffffffffffffffffffffffffffffffffffffff\n      and\n      swap1\n      0x20\n      add\n      swap1\n      swap3\n      swap2\n      swap1\n      pop\n      pop\n      pop\n      tag_35\n      jump\t// in\n    tag_33:\n      stop\n        /* \"contracts/Super-Zap.sol\":16133:16156  IERC20 public strawPair */\n    tag_11:\n      tag_36\n      tag_37\n      jump\t// in\n    tag_36:\n      mload(0x40)\n      dup1\n      dup3\n      0xffffffffffffffffffffffffffffffffffffffff\n      and\n      dup2\n      mstore\n      0x20\n      add\n      swap2\n      pop\n      pop\n      mload(0x40)\n      dup1\n      swap2\n      sub\n      swap1\n      return\n        /* \"contracts/Super-Zap.sol\":16023:16044  IZapper public zapper */\n    tag_12:\n      tag_38\n      tag_39\n      jump\t// in\n    tag_38:\n      mload(0x40)\n      dup1\n      dup3\n      0xffffffffffffffffffffffffffffffffffffffff\n      and\n      dup2\n      mstore\n      0x20\n      add\n      swap2\n      pop\n      pop\n      mload(0x40)\n      dup1\n      swap2\n      sub\n      swap1\n      return\n        /* \"contracts/Super-Zap.sol\":16077:16096  IERC20 public straw */\n    tag_13:\n      tag_40\n      tag_41\n      jump\t// in\n    tag_40:\n      mload(0x40)\n      dup1\n      dup3\n      0xffffffffffffffffffffffffffffffffffffffff\n      and\n      dup2\n      mstore\n      0x20\n      add\n      swap2\n      pop\n      pop\n      mload(0x40)\n      dup1\n      swap2\n      sub\n      swap1\n      return\n        /* \"contracts/Super-Zap.sol\":16193:16216  uint256 public minStraw */\n    tag_14:\n      tag_42\n      tag_43\n      jump\t// in\n    tag_42:\n      mload(0x40)\n      dup1\n      dup3\n      dup2\n      mstore\n      0x20\n      add\n      swap2\n      pop\n      pop\n      mload(0x40)\n      dup1\n      swap2\n      sub\n      swap1\n      return\n        /* \"contracts/Super-Zap.sol\":16223:16246  uint256 public minFudge */\n    tag_17:\n      sload(0x08)\n      dup2\n      jump\t// out\n        /* \"contracts/Super-Zap.sol\":16103:16126  IERC20 public fudgePair */\n    tag_19:\n      0x04\n      0x00\n      swap1\n      sload\n      swap1\n      0x0100\n      exp\n      swap1\n      div\n      0xffffffffffffffffffffffffffffffffffffffff\n      and\n      dup2\n      jump\t// out\n        /* \"contracts/Super-Zap.sol\":16912:17059  function setMins(uint256 _minStraw, uint256 _minFudge) external onlyOperator {\r... */\n    tag_22:\n        /* \"contracts/Super-Zap.sol\":16833:16843  msg.sender */\n      caller\n        /* \"contracts/Super-Zap.sol\":16821:16843  operator == msg.sender */\n      0xffffffffffffffffffffffffffffffffffffffff\n      and\n        /* \"contracts/Super-Zap.sol\":16821:16829  operator */\n      0x06\n      0x00\n      swap1\n      sload\n      swap1\n      0x0100\n      exp\n      swap1\n      div\n      0xffffffffffffffffffffffffffffffffffffffff\n      and\n        /* \"contracts/Super-Zap.sol\":16821:16843  operator == msg.sender */\n      0xffffffffffffffffffffffffffffffffffffffff\n      and\n      eq\n        /* \"contracts/Super-Zap.sol\":16813:16884  require(operator == msg.sender, \"SuperZap: caller is not the operator\") */\n      tag_45\n      jumpi\n      mload(0x40)\n      0x08c379a000000000000000000000000000000000000000000000000000000000\n      dup2\n      mstore\n      0x04\n      add\n      dup1\n      dup1\n      0x20\n      add\n      dup3\n      dup2\n      sub\n      dup3\n      mstore\n      0x24\n      dup2\n      mstore\n      0x20\n      add\n      dup1\n      data_40960c214819ead63fefdd8daacedc8ff37ea1cb3d93ededabce0e8931268929\n      0x24\n      swap2\n      codecopy\n      0x40\n      add\n      swap2\n      pop\n      pop\n      mload(0x40)\n      dup1\n      swap2\n      sub\n      swap1\n      revert\n    tag_45:\n        /* \"contracts/Super-Zap.sol\":17011:17020  _minStraw */\n      dup2\n        /* \"contracts/Super-Zap.sol\":17000:17008  minStraw */\n      0x07\n        /* \"contracts/Super-Zap.sol\":17000:17020  minStraw = _minStraw */\n      dup2\n      swap1\n      sstore\n      pop\n        /* \"contracts/Super-Zap.sol\":17042:17051  _minFudge */\n      dup1\n        /* \"contracts/Super-Zap.sol\":17031:17039  minFudge */\n      0x08\n        /* \"contracts/Super-Zap.sol\":17031:17051  minFudge = _minFudge */\n      dup2\n      swap1\n      sstore\n      pop\n        /* \"contracts/Super-Zap.sol\":16912:17059  function setMins(uint256 _minStraw, uint256 _minFudge) external onlyOperator {\r... */\n      pop\n      pop\n      jump\t// out\n        /* \"contracts/Super-Zap.sol\":17211:17481  function withdraw(address asset) external onlyOperator {\r... */\n    tag_25:\n        /* \"contracts/Super-Zap.sol\":16833:16843  msg.sender */\n      caller\n        /* \"contracts/Super-Zap.sol\":16821:16843  operator == msg.sender */\n      0xffffffffffffffffffffffffffffffffffffffff\n      and\n        /* \"contracts/Super-Zap.sol\":16821:16829  operator */\n      0x06\n      0x00\n      swap1\n      sload\n      swap1\n      0x0100\n      exp\n      swap1\n      div\n      0xffffffffffffffffffffffffffffffffffffffff\n      and\n        /* \"contracts/Super-Zap.sol\":16821:16843  operator == msg.sender */\n      0xffffffffffffffffffffffffffffffffffffffff\n      and\n      eq\n        /* \"contracts/Super-Zap.sol\":16813:16884  require(operator == msg.sender, \"SuperZap: caller is not the operator\") */\n      tag_48\n      jumpi\n      mload(0x40)\n      0x08c379a000000000000000000000000000000000000000000000000000000000\n      dup2\n      mstore\n      0x04\n      add\n      dup1\n      dup1\n      0x20\n      add\n      dup3\n      dup2\n      sub\n      dup3\n      mstore\n      0x24\n      dup2\n      mstore\n      0x20\n      add\n      dup1\n      data_40960c214819ead63fefdd8daacedc8ff37ea1cb3d93ededabce0e8931268929\n      0x24\n      swap2\n      codecopy\n      0x40\n      add\n      swap2\n      pop\n      pop\n      mload(0x40)\n      dup1\n      swap2\n      sub\n      swap1\n      revert\n    tag_48:\n        /* \"contracts/Super-Zap.sol\":17298:17299  0 */\n      0x00\n        /* \"contracts/Super-Zap.sol\":17281:17300  asset != address(0) */\n      0xffffffffffffffffffffffffffffffffffffffff\n      and\n        /* \"contracts/Super-Zap.sol\":17281:17286  asset */\n      dup2\n        /* \"contracts/Super-Zap.sol\":17281:17300  asset != address(0) */\n      0xffffffffffffffffffffffffffffffffffffffff\n      and\n      eq\n        /* \"contracts/Super-Zap.sol\":17277:17473  if (asset != address(0))\r... */\n      tag_50\n      jumpi\n        /* \"contracts/Super-Zap.sol\":17315:17393  IERC20(asset).safeTransfer(msg.sender, IERC20(asset).balanceOf(address(this))) */\n      tag_51\n        /* \"contracts/Super-Zap.sol\":17342:17352  msg.sender */\n      caller\n        /* \"contracts/Super-Zap.sol\":17361:17366  asset */\n      dup3\n        /* \"contracts/Super-Zap.sol\":17354:17377  IERC20(asset).balanceOf */\n      0xffffffffffffffffffffffffffffffffffffffff\n      and\n      0x70a08231\n        /* \"contracts/Super-Zap.sol\":17386:17390  this */\n      address\n        /* \"contracts/Super-Zap.sol\":17354:17392  IERC20(asset).balanceOf(address(this)) */\n      mload(0x40)\n      dup3\n      0xffffffff\n      and\n      0xe0\n      shl\n      dup2\n      mstore\n      0x04\n      add\n      dup1\n      dup3\n      0xffffffffffffffffffffffffffffffffffffffff\n      and\n      dup2\n      mstore\n      0x20\n      add\n      swap2\n      pop\n      pop\n      0x20\n      mload(0x40)\n      dup1\n      dup4\n      sub\n      dup2\n      dup7\n      dup1\n      extcodesize\n      iszero\n      dup1\n      iszero\n      tag_52\n      jumpi\n      0x00\n      dup1\n      revert\n    tag_52:\n      pop\n      gas\n      staticcall\n      iszero\n      dup1\n      iszero\n      tag_54\n      jumpi\n      returndatasize\n      0x00\n      dup1\n      returndatacopy\n      revert(0x00, returndatasize)\n    tag_54:\n      pop\n      pop\n      pop\n      pop\n      mload(0x40)\n      returndatasize\n      0x20\n      dup2\n      lt\n      iszero\n      tag_55\n      jumpi\n      0x00\n      dup1\n      revert\n    tag_55:\n      dup2\n      add\n      swap1\n      dup1\n      dup1\n      mload\n      swap1\n      0x20\n      add\n      swap1\n      swap3\n      swap2\n      swap1\n      pop\n      pop\n      pop\n        /* \"contracts/Super-Zap.sol\":17322:17327  asset */\n      dup4\n        /* \"contracts/Super-Zap.sol\":17315:17341  IERC20(asset).safeTransfer */\n      0xffffffffffffffffffffffffffffffffffffffff\n      and\n      tag_56\n      swap1\n        /* \"contracts/Super-Zap.sol\":17315:17393  IERC20(asset).safeTransfer(msg.sender, IERC20(asset).balanceOf(address(this))) */\n      swap3\n      swap2\n      swap1\n      0xffffffff\n      and\n      jump\t// in\n    tag_51:\n        /* \"contracts/Super-Zap.sol\":17277:17473  if (asset != address(0))\r... */\n      jump(tag_57)\n    tag_50:\n        /* \"contracts/Super-Zap.sol\":17430:17440  msg.sender */\n      caller\n        /* \"contracts/Super-Zap.sol\":17422:17450  payable(msg.sender).transfer */\n      0xffffffffffffffffffffffffffffffffffffffff\n      and\n        /* \"contracts/Super-Zap.sol\":17422:17473  payable(msg.sender).transfer(address(this).balance) */\n      0x08fc\n        /* \"contracts/Super-Zap.sol\":17451:17472  address(this).balance */\n      selfbalance\n        /* \"contracts/Super-Zap.sol\":17422:17473  payable(msg.sender).transfer(address(this).balance) */\n      swap1\n      dup2\n      iszero\n      mul\n      swap1\n      mload(0x40)\n      0x00\n      mload(0x40)\n      dup1\n      dup4\n      sub\n      dup2\n      dup6\n      dup9\n      dup9\n      call\n      swap4\n      pop\n      pop\n      pop\n      pop\n      iszero\n      dup1\n      iszero\n      tag_59\n      jumpi\n      returndatasize\n      0x00\n      dup1\n      returndatacopy\n      revert(0x00, returndatasize)\n    tag_59:\n      pop\n        /* \"contracts/Super-Zap.sol\":17277:17473  if (asset != address(0))\r... */\n    tag_57:\n        /* \"contracts/Super-Zap.sol\":17211:17481  function withdraw(address asset) external onlyOperator {\r... */\n      pop\n      jump\t// out\n        /* \"contracts/Super-Zap.sol\":16163:16186  address public operator */\n    tag_27:\n      0x06\n      0x00\n      swap1\n      sload\n      swap1\n      0x0100\n      exp\n      swap1\n      div\n      0xffffffffffffffffffffffffffffffffffffffff\n      and\n      dup2\n      jump\t// out\n        /* \"contracts/Super-Zap.sol\":17665:19224  function zapStrategy(address from, uint256 amount, uint256 percentFudgeLP) external returns (uint256, uint256) {\r... */\n    tag_30:\n        /* \"contracts/Super-Zap.sol\":17758:17765  uint256 */\n      0x00\n        /* \"contracts/Super-Zap.sol\":17767:17774  uint256 */\n      dup1\n        /* \"contracts/Super-Zap.sol\":17813:17816  100 */\n      0x64\n        /* \"contracts/Super-Zap.sol\":17795:17809  percentFudgeLP */\n      dup4\n        /* \"contracts/Super-Zap.sol\":17795:17816  percentFudgeLP <= 100 */\n      gt\n      iszero\n        /* \"contracts/Super-Zap.sol\":17787:17849  require(percentFudgeLP <= 100, \"Invalid FUDGE-DAI-LP percent\") */\n      tag_61\n      jumpi\n      mload(0x40)\n      0x08c379a000000000000000000000000000000000000000000000000000000000\n      dup2\n      mstore\n      0x04\n      add\n      dup1\n      dup1\n      0x20\n      add\n      dup3\n      dup2\n      sub\n      dup3\n      mstore\n      0x1c\n      dup2\n      mstore\n      0x20\n      add\n      dup1\n      0x496e76616c69642046554447452d4441492d4c502070657263656e7400000000\n      dup2\n      mstore\n      pop\n      0x20\n      add\n      swap2\n      pop\n      pop\n      mload(0x40)\n      dup1\n      swap2\n      sub\n      swap1\n      revert\n    tag_61:\n        /* \"contracts/Super-Zap.sol\":17906:17912  amount */\n      dup4\n        /* \"contracts/Super-Zap.sol\":17875:17879  from */\n      dup6\n        /* \"contracts/Super-Zap.sol\":17868:17890  IERC20(from).balanceOf */\n      0xffffffffffffffffffffffffffffffffffffffff\n      and\n      0x70a08231\n        /* \"contracts/Super-Zap.sol\":17891:17901  msg.sender */\n      caller\n        /* \"contracts/Super-Zap.sol\":17868:17902  IERC20(from).balanceOf(msg.sender) */\n      mload(0x40)\n      dup3\n      0xffffffff\n      and\n      0xe0\n      shl\n      dup2\n      mstore\n      0x04\n      add\n      dup1\n      dup3\n      0xffffffffffffffffffffffffffffffffffffffff\n      and\n      dup2\n      mstore\n      0x20\n      add\n      swap2\n      pop\n      pop\n      0x20\n      mload(0x40)\n      dup1\n      dup4\n      sub\n      dup2\n      dup7\n      dup1\n      extcodesize\n      iszero\n      dup1\n      iszero\n      tag_62\n      jumpi\n      0x00\n      dup1\n      revert\n    tag_62:\n      pop\n      gas\n      staticcall\n      iszero\n      dup1\n      iszero\n      tag_64\n      jumpi\n      returndatasize\n      0x00\n      dup1\n      returndatacopy\n      revert(0x00, returndatasize)\n    tag_64:\n      pop\n      pop\n      pop\n      pop\n      mload(0x40)\n      returndatasize\n      0x20\n      dup2\n      lt\n      iszero\n      tag_65\n      jumpi\n      0x00\n      dup1\n      revert\n    tag_65:\n      dup2\n      add\n      swap1\n      dup1\n      dup1\n      mload\n      swap1\n      0x20\n      add\n      swap1\n      swap3\n      swap2\n      swap1\n      pop\n      pop\n      pop\n        /* \"contracts/Super-Zap.sol\":17868:17912  IERC20(from).balanceOf(msg.sender) >= amount */\n      lt\n      iszero\n        /* \"contracts/Super-Zap.sol\":17860:17937  require(IERC20(from).balanceOf(msg.sender) >= amount, \"Insufficient balance\") */\n      tag_66\n      jumpi\n      mload(0x40)\n      0x08c379a000000000000000000000000000000000000000000000000000000000\n      dup2\n      mstore\n      0x04\n      add\n      dup1\n      dup1\n      0x20\n      add\n      dup3\n      dup2\n      sub\n      dup3\n      mstore\n      0x14\n      dup2\n      mstore\n      0x20\n      add\n      dup1\n      0x496e73756666696369656e742062616c616e6365000000000000000000000000\n      dup2\n      mstore\n      pop\n      0x20\n      add\n      swap2\n      pop\n      pop\n      mload(0x40)\n      dup1\n      swap2\n      sub\n      swap1\n      revert\n    tag_66:\n        /* \"contracts/Super-Zap.sol\":17948:18012  IERC20(from).safeTransferFrom(msg.sender, address(this), amount) */\n      tag_67\n        /* \"contracts/Super-Zap.sol\":17978:17988  msg.sender */\n      caller\n        /* \"contracts/Super-Zap.sol\":17998:18002  this */\n      address\n        /* \"contracts/Super-Zap.sol\":18005:18011  amount */\n      dup7\n        /* \"contracts/Super-Zap.sol\":17955:17959  from */\n      dup9\n        /* \"contracts/Super-Zap.sol\":17948:17977  IERC20(from).safeTransferFrom */\n      0xffffffffffffffffffffffffffffffffffffffff\n      and\n      tag_68\n      swap1\n        /* \"contracts/Super-Zap.sol\":17948:18012  IERC20(from).safeTransferFrom(msg.sender, address(this), amount) */\n      swap4\n      swap3\n      swap2\n      swap1\n      0xffffffff\n      and\n      jump\t// in\n    tag_67:\n        /* \"contracts/Super-Zap.sol\":18025:18048  uint256 amountFudgePair */\n      0x00\n        /* \"contracts/Super-Zap.sol\":18068:18071  100 */\n      0x64\n        /* \"contracts/Super-Zap.sol\":18051:18065  percentFudgeLP */\n      dup5\n        /* \"contracts/Super-Zap.sol\":18051:18071  percentFudgeLP < 100 */\n      lt\n        /* \"contracts/Super-Zap.sol\":18051:18118  percentFudgeLP < 100 ? amount.mul(percentFudgeLP).div(100) : amount */\n      tag_69\n      jumpi\n        /* \"contracts/Super-Zap.sol\":18112:18118  amount */\n      dup5\n        /* \"contracts/Super-Zap.sol\":18051:18118  percentFudgeLP < 100 ? amount.mul(percentFudgeLP).div(100) : amount */\n      jump(tag_70)\n    tag_69:\n        /* \"contracts/Super-Zap.sol\":18074:18109  amount.mul(percentFudgeLP).div(100) */\n      tag_71\n        /* \"contracts/Super-Zap.sol\":18105:18108  100 */\n      0x64\n        /* \"contracts/Super-Zap.sol\":18074:18100  amount.mul(percentFudgeLP) */\n      tag_72\n        /* \"contracts/Super-Zap.sol\":18085:18099  percentFudgeLP */\n      dup7\n        /* \"contracts/Super-Zap.sol\":18074:18080  amount */\n      dup9\n        /* \"contracts/Super-Zap.sol\":18074:18084  amount.mul */\n      tag_73\n      swap1\n        /* \"contracts/Super-Zap.sol\":18074:18100  amount.mul(percentFudgeLP) */\n      swap2\n      swap1\n      0xffffffff\n      and\n      jump\t// in\n    tag_72:\n        /* \"contracts/Super-Zap.sol\":18074:18104  amount.mul(percentFudgeLP).div */\n      tag_74\n      swap1\n        /* \"contracts/Super-Zap.sol\":18074:18109  amount.mul(percentFudgeLP).div(100) */\n      swap2\n      swap1\n      0xffffffff\n      and\n      jump\t// in\n    tag_71:\n        /* \"contracts/Super-Zap.sol\":18051:18118  percentFudgeLP < 100 ? amount.mul(percentFudgeLP).div(100) : amount */\n    tag_70:\n        /* \"contracts/Super-Zap.sol\":18025:18118  uint256 amountFudgePair = percentFudgeLP < 100 ? amount.mul(percentFudgeLP).div(100) : amount */\n      swap1\n      pop\n        /* \"contracts/Super-Zap.sol\":18129:18152  uint256 amountStrawPair */\n      0x00\n        /* \"contracts/Super-Zap.sol\":18155:18182  amount.sub(amountFudgePair) */\n      tag_75\n        /* \"contracts/Super-Zap.sol\":18166:18181  amountFudgePair */\n      dup3\n        /* \"contracts/Super-Zap.sol\":18155:18161  amount */\n      dup8\n        /* \"contracts/Super-Zap.sol\":18155:18165  amount.sub */\n      tag_76\n      swap1\n        /* \"contracts/Super-Zap.sol\":18155:18182  amount.sub(amountFudgePair) */\n      swap2\n      swap1\n      0xffffffff\n      and\n      jump\t// in\n    tag_75:\n        /* \"contracts/Super-Zap.sol\":18129:18182  uint256 amountStrawPair = amount.sub(amountFudgePair) */\n      swap1\n      pop\n        /* \"contracts/Super-Zap.sol\":18195:18214  uint256 prevFudgeLP */\n      0x00\n        /* \"contracts/Super-Zap.sol\":18217:18226  fudgePair */\n      0x04\n      0x00\n      swap1\n      sload\n      swap1\n      0x0100\n      exp\n      swap1\n      div\n      0xffffffffffffffffffffffffffffffffffffffff\n      and\n        /* \"contracts/Super-Zap.sol\":18217:18236  fudgePair.balanceOf */\n      0xffffffffffffffffffffffffffffffffffffffff\n      and\n      0x70a08231\n        /* \"contracts/Super-Zap.sol\":18245:18249  this */\n      address\n        /* \"contracts/Super-Zap.sol\":18217:18251  fudgePair.balanceOf(address(this)) */\n      mload(0x40)\n      dup3\n      0xffffffff\n      and\n      0xe0\n      shl\n      dup2\n      mstore\n      0x04\n      add\n      dup1\n      dup3\n      0xffffffffffffffffffffffffffffffffffffffff\n      and\n      dup2\n      mstore\n      0x20\n      add\n      swap2\n      pop\n      pop\n      0x20\n      mload(0x40)\n      dup1\n      dup4\n      sub\n      dup2\n      dup7\n      dup1\n      extcodesize\n      iszero\n      dup1\n      iszero\n      tag_77\n      jumpi\n      0x00\n      dup1\n      revert\n    tag_77:\n      pop\n      gas\n      staticcall\n      iszero\n      dup1\n      iszero\n      tag_79\n      jumpi\n      returndatasize\n      0x00\n      dup1\n      returndatacopy\n      revert(0x00, returndatasize)\n    tag_79:\n      pop\n      pop\n      pop\n      pop\n      mload(0x40)\n      returndatasize\n      0x20\n      dup2\n      lt\n      iszero\n      tag_80\n      jumpi\n      0x00\n      dup1\n      revert\n    tag_80:\n      dup2\n      add\n      swap1\n      dup1\n      dup1\n      mload\n      swap1\n      0x20\n      add\n      swap1\n      swap3\n      swap2\n      swap1\n      pop\n      pop\n      pop\n        /* \"contracts/Super-Zap.sol\":18195:18251  uint256 prevFudgeLP = fudgePair.balanceOf(address(this)) */\n      swap1\n      pop\n        /* \"contracts/Super-Zap.sol\":18262:18281  uint256 prevStrawLP */\n      0x00\n        /* \"contracts/Super-Zap.sol\":18284:18293  strawPair */\n      0x05\n      0x00\n      swap1\n      sload\n      swap1\n      0x0100\n      exp\n      swap1\n      div\n      0xffffffffffffffffffffffffffffffffffffffff\n      and\n        /* \"contracts/Super-Zap.sol\":18284:18303  strawPair.balanceOf */\n      0xffffffffffffffffffffffffffffffffffffffff\n      and\n      0x70a08231\n        /* \"contracts/Super-Zap.sol\":18312:18316  this */\n      address\n        /* \"contracts/Super-Zap.sol\":18284:18318  strawPair.balanceOf(address(this)) */\n      mload(0x40)\n      dup3\n      0xffffffff\n      and\n      0xe0\n      shl\n      dup2\n      mstore\n      0x04\n      add\n      dup1\n      dup3\n      0xffffffffffffffffffffffffffffffffffffffff\n      and\n      dup2\n      mstore\n      0x20\n      add\n      swap2\n      pop\n      pop\n      0x20\n      mload(0x40)\n      dup1\n      dup4\n      sub\n      dup2\n      dup7\n      dup1\n      extcodesize\n      iszero\n      dup1\n      iszero\n      tag_81\n      jumpi\n      0x00\n      dup1\n      revert\n    tag_81:\n      pop\n      gas\n      staticcall\n      iszero\n      dup1\n      iszero\n      tag_83\n      jumpi\n      returndatasize\n      0x00\n      dup1\n      returndatacopy\n      revert(0x00, returndatasize)\n    tag_83:\n      pop\n      pop\n      pop\n      pop\n      mload(0x40)\n      returndatasize\n      0x20\n      dup2\n      lt\n      iszero\n      tag_84\n      jumpi\n      0x00\n      dup1\n      revert\n    tag_84:\n      dup2\n      add\n      swap1\n      dup1\n      dup1\n      mload\n      swap1\n      0x20\n      add\n      swap1\n      swap3\n      swap2\n      swap1\n      pop\n      pop\n      pop\n        /* \"contracts/Super-Zap.sol\":18262:18318  uint256 prevStrawLP = strawPair.balanceOf(address(this)) */\n      swap1\n      pop\n        /* \"contracts/Super-Zap.sol\":18343:18375  _checkMin(from, amountFudgePair) */\n      tag_85\n        /* \"contracts/Super-Zap.sol\":18353:18357  from */\n      dup10\n        /* \"contracts/Super-Zap.sol\":18359:18374  amountFudgePair */\n      dup6\n        /* \"contracts/Super-Zap.sol\":18343:18352  _checkMin */\n      tag_86\n        /* \"contracts/Super-Zap.sol\":18343:18375  _checkMin(from, amountFudgePair) */\n      jump\t// in\n    tag_85:\n        /* \"contracts/Super-Zap.sol\":18339:18553  if (_checkMin(from, amountFudgePair)) {\r... */\n      iszero\n      tag_87\n      jumpi\n        /* \"contracts/Super-Zap.sol\":18392:18398  zapper */\n      0x01\n      0x00\n      swap1\n      sload\n      swap1\n      0x0100\n      exp\n      swap1\n      div\n      0xffffffffffffffffffffffffffffffffffffffff\n      and\n        /* \"contracts/Super-Zap.sol\":18392:18411  zapper.zapTokenToLP */\n      0xffffffffffffffffffffffffffffffffffffffff\n      and\n      0x84767627\n        /* \"contracts/Super-Zap.sol\":18412:18416  from */\n      dup11\n        /* \"contracts/Super-Zap.sol\":18418:18433  amountFudgePair */\n      dup7\n        /* \"contracts/Super-Zap.sol\":18443:18452  fudgePair */\n      0x04\n      0x00\n      swap1\n      sload\n      swap1\n      0x0100\n      exp\n      swap1\n      div\n      0xffffffffffffffffffffffffffffffffffffffff\n      and\n        /* \"contracts/Super-Zap.sol\":18392:18454  zapper.zapTokenToLP(from, amountFudgePair, address(fudgePair)) */\n      mload(0x40)\n      dup5\n      0xffffffff\n      and\n      0xe0\n      shl\n      dup2\n      mstore\n      0x04\n      add\n      dup1\n      dup5\n      0xffffffffffffffffffffffffffffffffffffffff\n      and\n      dup2\n      mstore\n      0x20\n      add\n      dup4\n      dup2\n      mstore\n      0x20\n      add\n      dup3\n      0xffffffffffffffffffffffffffffffffffffffff\n      and\n      dup2\n      mstore\n      0x20\n      add\n      swap4\n      pop\n      pop\n      pop\n      pop\n      0x00\n      mload(0x40)\n      dup1\n      dup4\n      sub\n      dup2\n      0x00\n      dup8\n      dup1\n      extcodesize\n      iszero\n      dup1\n      iszero\n      tag_88\n      jumpi\n      0x00\n      dup1\n      revert\n    tag_88:\n      pop\n      gas\n      call\n      iszero\n      dup1\n      iszero\n      tag_90\n      jumpi\n      returndatasize\n      0x00\n      dup1\n      returndatacopy\n      revert(0x00, returndatasize)\n    tag_90:\n      pop\n      pop\n      pop\n      pop\n        /* \"contracts/Super-Zap.sol\":18339:18553  if (_checkMin(from, amountFudgePair)) {\r... */\n      jump(tag_91)\n    tag_87:\n        /* \"contracts/Super-Zap.sol\":18487:18541  IERC20(from).safeTransfer(msg.sender, amountFudgePair) */\n      tag_92\n        /* \"contracts/Super-Zap.sol\":18513:18523  msg.sender */\n      caller\n        /* \"contracts/Super-Zap.sol\":18525:18540  amountFudgePair */\n      dup6\n        /* \"contracts/Super-Zap.sol\":18494:18498  from */\n      dup12\n        /* \"contracts/Super-Zap.sol\":18487:18512  IERC20(from).safeTransfer */\n      0xffffffffffffffffffffffffffffffffffffffff\n      and\n      tag_56\n      swap1\n        /* \"contracts/Super-Zap.sol\":18487:18541  IERC20(from).safeTransfer(msg.sender, amountFudgePair) */\n      swap3\n      swap2\n      swap1\n      0xffffffff\n      and\n      jump\t// in\n    tag_92:\n        /* \"contracts/Super-Zap.sol\":18339:18553  if (_checkMin(from, amountFudgePair)) {\r... */\n    tag_91:\n        /* \"contracts/Super-Zap.sol\":18567:18599  _checkMin(from, amountStrawPair) */\n      tag_93\n        /* \"contracts/Super-Zap.sol\":18577:18581  from */\n      dup10\n        /* \"contracts/Super-Zap.sol\":18583:18598  amountStrawPair */\n      dup5\n        /* \"contracts/Super-Zap.sol\":18567:18576  _checkMin */\n      tag_86\n        /* \"contracts/Super-Zap.sol\":18567:18599  _checkMin(from, amountStrawPair) */\n      jump\t// in\n    tag_93:\n        /* \"contracts/Super-Zap.sol\":18563:18777  if (_checkMin(from, amountStrawPair)) {\r... */\n      iszero\n      tag_94\n      jumpi\n        /* \"contracts/Super-Zap.sol\":18616:18622  zapper */\n      0x01\n      0x00\n      swap1\n      sload\n      swap1\n      0x0100\n      exp\n      swap1\n      div\n      0xffffffffffffffffffffffffffffffffffffffff\n      and\n        /* \"contracts/Super-Zap.sol\":18616:18635  zapper.zapTokenToLP */\n      0xffffffffffffffffffffffffffffffffffffffff\n      and\n      0x84767627\n        /* \"contracts/Super-Zap.sol\":18636:18640  from */\n      dup11\n        /* \"contracts/Super-Zap.sol\":18642:18657  amountStrawPair */\n      dup6\n        /* \"contracts/Super-Zap.sol\":18667:18676  strawPair */\n      0x05\n      0x00\n      swap1\n      sload\n      swap1\n      0x0100\n      exp\n      swap1\n      div\n      0xffffffffffffffffffffffffffffffffffffffff\n      and\n        /* \"contracts/Super-Zap.sol\":18616:18678  zapper.zapTokenToLP(from, amountStrawPair, address(strawPair)) */\n      mload(0x40)\n      dup5\n      0xffffffff\n      and\n      0xe0\n      shl\n      dup2\n      mstore\n      0x04\n      add\n      dup1\n      dup5\n      0xffffffffffffffffffffffffffffffffffffffff\n      and\n      dup2\n      mstore\n      0x20\n      add\n      dup4\n      dup2\n      mstore\n      0x20\n      add\n      dup3\n      0xffffffffffffffffffffffffffffffffffffffff\n      and\n      dup2\n      mstore\n      0x20\n      add\n      swap4\n      pop\n      pop\n      pop\n      pop\n      0x00\n      mload(0x40)\n      dup1\n      dup4\n      sub\n      dup2\n      0x00\n      dup8\n      dup1\n      extcodesize\n      iszero\n      dup1\n      iszero\n      tag_95\n      jumpi\n      0x00\n      dup1\n      revert\n    tag_95:\n      pop\n      gas\n      call\n      iszero\n      dup1\n      iszero\n      tag_97\n      jumpi\n      returndatasize\n      0x00\n      dup1\n      returndatacopy\n      revert(0x00, returndatasize)\n    tag_97:\n      pop\n      pop\n      pop\n      pop\n        /* \"contracts/Super-Zap.sol\":18563:18777  if (_checkMin(from, amountStrawPair)) {\r... */\n      jump(tag_98)\n    tag_94:\n        /* \"contracts/Super-Zap.sol\":18711:18765  IERC20(from).safeTransfer(msg.sender, amountStrawPair) */\n      tag_99\n        /* \"contracts/Super-Zap.sol\":18737:18747  msg.sender */\n      caller\n        /* \"contracts/Super-Zap.sol\":18749:18764  amountStrawPair */\n      dup5\n        /* \"contracts/Super-Zap.sol\":18718:18722  from */\n      dup12\n        /* \"contracts/Super-Zap.sol\":18711:18736  IERC20(from).safeTransfer */\n      0xffffffffffffffffffffffffffffffffffffffff\n      and\n      tag_56\n      swap1\n        /* \"contracts/Super-Zap.sol\":18711:18765  IERC20(from).safeTransfer(msg.sender, amountStrawPair) */\n      swap3\n      swap2\n      swap1\n      0xffffffff\n      and\n      jump\t// in\n    tag_99:\n        /* \"contracts/Super-Zap.sol\":18563:18777  if (_checkMin(from, amountStrawPair)) {\r... */\n    tag_98:\n        /* \"contracts/Super-Zap.sol\":18789:18810  uint256 zappedFudgeLP */\n      0x00\n        /* \"contracts/Super-Zap.sol\":18813:18864  fudgePair.balanceOf(address(this)).sub(prevFudgeLP) */\n      tag_100\n        /* \"contracts/Super-Zap.sol\":18852:18863  prevFudgeLP */\n      dup4\n        /* \"contracts/Super-Zap.sol\":18813:18822  fudgePair */\n      0x04\n      0x00\n      swap1\n      sload\n      swap1\n      0x0100\n      exp\n      swap1\n      div\n      0xffffffffffffffffffffffffffffffffffffffff\n      and\n        /* \"contracts/Super-Zap.sol\":18813:18832  fudgePair.balanceOf */\n      0xffffffffffffffffffffffffffffffffffffffff\n      and\n      0x70a08231\n        /* \"contracts/Super-Zap.sol\":18841:18845  this */\n      address\n        /* \"contracts/Super-Zap.sol\":18813:18847  fudgePair.balanceOf(address(this)) */\n      mload(0x40)\n      dup3\n      0xffffffff\n      and\n      0xe0\n      shl\n      dup2\n      mstore\n      0x04\n      add\n      dup1\n      dup3\n      0xffffffffffffffffffffffffffffffffffffffff\n      and\n      dup2\n      mstore\n      0x20\n      add\n      swap2\n      pop\n      pop\n      0x20\n      mload(0x40)\n      dup1\n      dup4\n      sub\n      dup2\n      dup7\n      dup1\n      extcodesize\n      iszero\n      dup1\n      iszero\n      tag_101\n      jumpi\n      0x00\n      dup1\n      revert\n    tag_101:\n      pop\n      gas\n      staticcall\n      iszero\n      dup1\n      iszero\n      tag_103\n      jumpi\n      returndatasize\n      0x00\n      dup1\n      returndatacopy\n      revert(0x00, returndatasize)\n    tag_103:\n      pop\n      pop\n      pop\n      pop\n      mload(0x40)\n      returndatasize\n      0x20\n      dup2\n      lt\n      iszero\n      tag_104\n      jumpi\n      0x00\n      dup1\n      revert\n    tag_104:\n      dup2\n      add\n      swap1\n      dup1\n      dup1\n      mload\n      swap1\n      0x20\n      add\n      swap1\n      swap3\n      swap2\n      swap1\n      pop\n      pop\n      pop\n        /* \"contracts/Super-Zap.sol\":18813:18851  fudgePair.balanceOf(address(this)).sub */\n      tag_76\n      swap1\n        /* \"contracts/Super-Zap.sol\":18813:18864  fudgePair.balanceOf(address(this)).sub(prevFudgeLP) */\n      swap2\n      swap1\n      0xffffffff\n      and\n      jump\t// in\n    tag_100:\n        /* \"contracts/Super-Zap.sol\":18789:18864  uint256 zappedFudgeLP = fudgePair.balanceOf(address(this)).sub(prevFudgeLP) */\n      swap1\n      pop\n        /* \"contracts/Super-Zap.sol\":18875:18896  uint256 zappedStrawLP */\n      0x00\n        /* \"contracts/Super-Zap.sol\":18899:18950  strawPair.balanceOf(address(this)).sub(prevStrawLP) */\n      tag_105\n        /* \"contracts/Super-Zap.sol\":18938:18949  prevStrawLP */\n      dup4\n        /* \"contracts/Super-Zap.sol\":18899:18908  strawPair */\n      0x05\n      0x00\n      swap1\n      sload\n      swap1\n      0x0100\n      exp\n      swap1\n      div\n      0xffffffffffffffffffffffffffffffffffffffff\n      and\n        /* \"contracts/Super-Zap.sol\":18899:18918  strawPair.balanceOf */\n      0xffffffffffffffffffffffffffffffffffffffff\n      and\n      0x70a08231\n        /* \"contracts/Super-Zap.sol\":18927:18931  this */\n      address\n        /* \"contracts/Super-Zap.sol\":18899:18933  strawPair.balanceOf(address(this)) */\n      mload(0x40)\n      dup3\n      0xffffffff\n      and\n      0xe0\n      shl\n      dup2\n      mstore\n      0x04\n      add\n      dup1\n      dup3\n      0xffffffffffffffffffffffffffffffffffffffff\n      and\n      dup2\n      mstore\n      0x20\n      add\n      swap2\n      pop\n      pop\n      0x20\n      mload(0x40)\n      dup1\n      dup4\n      sub\n      dup2\n      dup7\n      dup1\n      extcodesize\n      iszero\n      dup1\n      iszero\n      tag_106\n      jumpi\n      0x00\n      dup1\n      revert\n    tag_106:\n      pop\n      gas\n      staticcall\n      iszero\n      dup1\n      iszero\n      tag_108\n      jumpi\n      returndatasize\n      0x00\n      dup1\n      returndatacopy\n      revert(0x00, returndatasize)\n    tag_108:\n      pop\n      pop\n      pop\n      pop\n      mload(0x40)\n      returndatasize\n      0x20\n      dup2\n      lt\n      iszero\n      tag_109\n      jumpi\n      0x00\n      dup1\n      revert\n    tag_109:\n      dup2\n      add\n      swap1\n      dup1\n      dup1\n      mload\n      swap1\n      0x20\n      add\n      swap1\n      swap3\n      swap2\n      swap1\n      pop\n      pop\n      pop\n        /* \"contracts/Super-Zap.sol\":18899:18937  strawPair.balanceOf(address(this)).sub */\n      tag_76\n      swap1\n        /* \"contracts/Super-Zap.sol\":18899:18950  strawPair.balanceOf(address(this)).sub(prevStrawLP) */\n      swap2\n      swap1\n      0xffffffff\n      and\n      jump\t// in\n    tag_105:\n        /* \"contracts/Super-Zap.sol\":18875:18950  uint256 zappedStrawLP = strawPair.balanceOf(address(this)).sub(prevStrawLP) */\n      swap1\n      pop\n        /* \"contracts/Super-Zap.sol\":18991:18992  0 */\n      0x00\n        /* \"contracts/Super-Zap.sol\":18975:18988  zappedFudgeLP */\n      dup3\n        /* \"contracts/Super-Zap.sol\":18975:18992  zappedFudgeLP > 0 */\n      gt\n        /* \"contracts/Super-Zap.sol\":18971:19057  if (zappedFudgeLP > 0)\r... */\n      iszero\n      tag_110\n      jumpi\n        /* \"contracts/Super-Zap.sol\":19007:19057  fudgePair.safeTransfer(msg.sender,  zappedFudgeLP) */\n      tag_111\n        /* \"contracts/Super-Zap.sol\":19030:19040  msg.sender */\n      caller\n        /* \"contracts/Super-Zap.sol\":19043:19056  zappedFudgeLP */\n      dup4\n        /* \"contracts/Super-Zap.sol\":19007:19016  fudgePair */\n      0x04\n      0x00\n      swap1\n      sload\n      swap1\n      0x0100\n      exp\n      swap1\n      div\n      0xffffffffffffffffffffffffffffffffffffffff\n      and\n        /* \"contracts/Super-Zap.sol\":19007:19029  fudgePair.safeTransfer */\n      0xffffffffffffffffffffffffffffffffffffffff\n      and\n      tag_56\n      swap1\n        /* \"contracts/Super-Zap.sol\":19007:19057  fudgePair.safeTransfer(msg.sender,  zappedFudgeLP) */\n      swap3\n      swap2\n      swap1\n      0xffffffff\n      and\n      jump\t// in\n    tag_111:\n        /* \"contracts/Super-Zap.sol\":18971:19057  if (zappedFudgeLP > 0)\r... */\n    tag_110:\n        /* \"contracts/Super-Zap.sol\":19088:19089  0 */\n      0x00\n        /* \"contracts/Super-Zap.sol\":19072:19085  zappedStrawLP */\n      dup2\n        /* \"contracts/Super-Zap.sol\":19072:19089  zappedStrawLP > 0 */\n      gt\n        /* \"contracts/Super-Zap.sol\":19068:19154  if (zappedStrawLP > 0)\r... */\n      iszero\n      tag_112\n      jumpi\n        /* \"contracts/Super-Zap.sol\":19104:19154  strawPair.safeTransfer(msg.sender,  zappedStrawLP) */\n      tag_113\n        /* \"contracts/Super-Zap.sol\":19127:19137  msg.sender */\n      caller\n        /* \"contracts/Super-Zap.sol\":19140:19153  zappedStrawLP */\n      dup3\n        /* \"contracts/Super-Zap.sol\":19104:19113  strawPair */\n      0x05\n      0x00\n      swap1\n      sload\n      swap1\n      0x0100\n      exp\n      swap1\n      div\n      0xffffffffffffffffffffffffffffffffffffffff\n      and\n        /* \"contracts/Super-Zap.sol\":19104:19126  strawPair.safeTransfer */\n      0xffffffffffffffffffffffffffffffffffffffff\n      and\n      tag_56\n      swap1\n        /* \"contracts/Super-Zap.sol\":19104:19154  strawPair.safeTransfer(msg.sender,  zappedStrawLP) */\n      swap3\n      swap2\n      swap1\n      0xffffffff\n      and\n      jump\t// in\n    tag_113:\n        /* \"contracts/Super-Zap.sol\":19068:19154  if (zappedStrawLP > 0)\r... */\n    tag_112:\n        /* \"contracts/Super-Zap.sol\":19187:19200  zappedFudgeLP */\n      dup2\n        /* \"contracts/Super-Zap.sol\":19202:19215  zappedStrawLP */\n      dup2\n        /* \"contracts/Super-Zap.sol\":19179:19216  return (zappedFudgeLP, zappedStrawLP) */\n      swap8\n      pop\n      swap8\n      pop\n      pop\n      pop\n      pop\n      pop\n      pop\n      pop\n        /* \"contracts/Super-Zap.sol\":17665:19224  function zapStrategy(address from, uint256 amount, uint256 percentFudgeLP) external returns (uint256, uint256) {\r... */\n      swap4\n      pop\n      swap4\n      swap2\n      pop\n      pop\n      jump\t// out\n        /* \"contracts/Super-Zap.sol\":16051:16070  IERC20 public fudge */\n    tag_32:\n      0x02\n      0x00\n      swap1\n      sload\n      swap1\n      0x0100\n      exp\n      swap1\n      div\n      0xffffffffffffffffffffffffffffffffffffffff\n      and\n      dup2\n      jump\t// out\n        /* \"contracts/Super-Zap.sol\":17067:17203  function approveZapper(address asset) external onlyOperator {\r... */\n    tag_35:\n        /* \"contracts/Super-Zap.sol\":16833:16843  msg.sender */\n      caller\n        /* \"contracts/Super-Zap.sol\":16821:16843  operator == msg.sender */\n      0xffffffffffffffffffffffffffffffffffffffff\n      and\n        /* \"contracts/Super-Zap.sol\":16821:16829  operator */\n      0x06\n      0x00\n      swap1\n      sload\n      swap1\n      0x0100\n      exp\n      swap1\n      div\n      0xffffffffffffffffffffffffffffffffffffffff\n      and\n        /* \"contracts/Super-Zap.sol\":16821:16843  operator == msg.sender */\n      0xffffffffffffffffffffffffffffffffffffffff\n      and\n      eq\n        /* \"contracts/Super-Zap.sol\":16813:16884  require(operator == msg.sender, \"SuperZap: caller is not the operator\") */\n      tag_115\n      jumpi\n      mload(0x40)\n      0x08c379a000000000000000000000000000000000000000000000000000000000\n      dup2\n      mstore\n      0x04\n      add\n      dup1\n      dup1\n      0x20\n      add\n      dup3\n      dup2\n      sub\n      dup3\n      mstore\n      0x24\n      dup2\n      mstore\n      0x20\n      add\n      dup1\n      data_40960c214819ead63fefdd8daacedc8ff37ea1cb3d93ededabce0e8931268929\n      0x24\n      swap2\n      codecopy\n      0x40\n      add\n      swap2\n      pop\n      pop\n      mload(0x40)\n      dup1\n      swap2\n      sub\n      swap1\n      revert\n    tag_115:\n        /* \"contracts/Super-Zap.sol\":17145:17150  asset */\n      dup1\n        /* \"contracts/Super-Zap.sol\":17138:17159  IERC20(asset).approve */\n      0xffffffffffffffffffffffffffffffffffffffff\n      and\n      0x095ea7b3\n        /* \"contracts/Super-Zap.sol\":17168:17174  zapper */\n      0x01\n      0x00\n      swap1\n      sload\n      swap1\n      0x0100\n      exp\n      swap1\n      div\n      0xffffffffffffffffffffffffffffffffffffffff\n      and\n        /* \"contracts/Super-Zap.sol\":17177:17194  type(uint256).max */\n      0xffffffffffffffffffffffffffffffffffffffffffffffffffffffffffffffff\n        /* \"contracts/Super-Zap.sol\":17138:17195  IERC20(asset).approve(address(zapper), type(uint256).max) */\n      mload(0x40)\n      dup4\n      0xffffffff\n      and\n      0xe0\n      shl\n      dup2\n      mstore\n      0x04\n      add\n      dup1\n      dup4\n      0xffffffffffffffffffffffffffffffffffffffff\n      and\n      dup2\n      mstore\n      0x20\n      add\n      dup3\n      dup2\n      mstore\n      0x20\n      add\n      swap3\n      pop\n      pop\n      pop\n      0x20\n      mload(0x40)\n      dup1\n      dup4\n      sub\n      dup2\n      0x00\n      dup8\n      dup1\n      extcodesize\n      iszero\n      dup1\n      iszero\n      tag_117\n      jumpi\n      0x00\n      dup1\n      revert\n    tag_117:\n      pop\n      gas\n      call\n      iszero\n      dup1\n      iszero\n      tag_119\n      jumpi\n      returndatasize\n      0x00\n      dup1\n      returndatacopy\n      revert(0x00, returndatasize)\n    tag_119:\n      pop\n      pop\n      pop\n      pop\n      mload(0x40)\n      returndatasize\n      0x20\n      dup2\n      lt\n      iszero\n      tag_120\n      jumpi\n      0x00\n      dup1\n      revert\n    tag_120:\n      dup2\n      add\n      swap1\n      dup1\n      dup1\n      mload\n      swap1\n      0x20\n      add\n      swap1\n      swap3\n      swap2\n      swap1\n      pop\n      pop\n      pop\n      pop\n        /* \"contracts/Super-Zap.sol\":17067:17203  function approveZapper(address asset) external onlyOperator {\r... */\n      pop\n      jump\t// out\n        /* \"contracts/Super-Zap.sol\":16133:16156  IERC20 public strawPair */\n    tag_37:\n      0x05\n      0x00\n      swap1\n      sload\n      swap1\n      0x0100\n      exp\n      swap1\n      div\n      0xffffffffffffffffffffffffffffffffffffffff\n      and\n      dup2\n      jump\t// out\n        /* \"contracts/Super-Zap.sol\":16023:16044  IZapper public zapper */\n    tag_39:\n      0x01\n      0x00\n      swap1\n      sload\n      swap1\n      0x0100\n      exp\n      swap1\n      div\n      0xffffffffffffffffffffffffffffffffffffffff\n      and\n      dup2\n      jump\t// out\n        /* \"contracts/Super-Zap.sol\":16077:16096  IERC20 public straw */\n    tag_41:\n      0x03\n      0x00\n      swap1\n      sload\n      swap1\n      0x0100\n      exp\n      swap1\n      div\n      0xffffffffffffffffffffffffffffffffffffffff\n      and\n      dup2\n      jump\t// out\n        /* \"contracts/Super-Zap.sol\":16193:16216  uint256 public minStraw */\n    tag_43:\n      sload(0x07)\n      dup2\n      jump\t// out\n        /* \"contracts/Super-Zap.sol\":11769:11946  function safeTransfer(IERC20 token, address to, uint256 value) internal {\r... */\n    tag_56:\n        /* \"contracts/Super-Zap.sol\":11852:11938  _callOptionalReturn(token, abi.encodeWithSelector(token.transfer.selector, to, value)) */\n      tag_122\n        /* \"contracts/Super-Zap.sol\":11872:11877  token */\n      dup4\n        /* \"contracts/Super-Zap.sol\":11902:11925  token.transfer.selector */\n      shl(0xe0, 0xa9059cbb)\n        /* \"contracts/Super-Zap.sol\":11927:11929  to */\n      dup5\n        /* \"contracts/Super-Zap.sol\":11931:11936  value */\n      dup5\n        /* \"contracts/Super-Zap.sol\":11879:11937  abi.encodeWithSelector(token.transfer.selector, to, value) */\n      add(0x24, mload(0x40))\n      dup1\n      dup4\n      0xffffffffffffffffffffffffffffffffffffffff\n      and\n      dup2\n      mstore\n      0x20\n      add\n      dup3\n      dup2\n      mstore\n      0x20\n      add\n      swap3\n      pop\n      pop\n      pop\n      mload(0x40)\n      0x20\n      dup2\n      dup4\n      sub\n      sub\n      dup2\n      mstore\n      swap1\n      0x40\n      mstore\n      swap1\n      not(0xffffffffffffffffffffffffffffffffffffffffffffffffffffffff)\n      and\n      0x20\n      dup3\n      add\n      dup1\n      mload\n      0xffffffffffffffffffffffffffffffffffffffffffffffffffffffff\n      dup4\n      dup2\n      dup4\n      and\n      or\n      dup4\n      mstore\n      pop\n      pop\n      pop\n      pop\n        /* \"contracts/Super-Zap.sol\":11852:11871  _callOptionalReturn */\n      tag_123\n        /* \"contracts/Super-Zap.sol\":11852:11938  _callOptionalReturn(token, abi.encodeWithSelector(token.transfer.selector, to, value)) */\n      jump\t// in\n    tag_122:\n        /* \"contracts/Super-Zap.sol\":11769:11946  function safeTransfer(IERC20 token, address to, uint256 value) internal {\r... */\n      pop\n      pop\n      pop\n      jump\t// out\n        /* \"contracts/Super-Zap.sol\":11954:12159  function safeTransferFrom(IERC20 token, address from, address to, uint256 value) internal {\r... */\n    tag_68:\n        /* \"contracts/Super-Zap.sol\":12055:12151  _callOptionalReturn(token, abi.encodeWithSelector(token.transferFrom.selector, from, to, value)) */\n      tag_125\n        /* \"contracts/Super-Zap.sol\":12075:12080  token */\n      dup5\n        /* \"contracts/Super-Zap.sol\":12105:12132  token.transferFrom.selector */\n      shl(0xe0, 0x23b872dd)\n        /* \"contracts/Super-Zap.sol\":12134:12138  from */\n      dup6\n        /* \"contracts/Super-Zap.sol\":12140:12142  to */\n      dup6\n        /* \"contracts/Super-Zap.sol\":12144:12149  value */\n      dup6\n        /* \"contracts/Super-Zap.sol\":12082:12150  abi.encodeWithSelector(token.transferFrom.selector, from, to, value) */\n      add(0x24, mload(0x40))\n      dup1\n      dup5\n      0xffffffffffffffffffffffffffffffffffffffff\n      and\n      dup2\n      mstore\n      0x20\n      add\n      dup4\n      0xffffffffffffffffffffffffffffffffffffffff\n      and\n      dup2\n      mstore\n      0x20\n      add\n      dup3\n      dup2\n      mstore\n      0x20\n      add\n      swap4\n      pop\n      pop\n      pop\n      pop\n      mload(0x40)\n      0x20\n      dup2\n      dup4\n      sub\n      sub\n      dup2\n      mstore\n      swap1\n      0x40\n      mstore\n      swap1\n      not(0xffffffffffffffffffffffffffffffffffffffffffffffffffffffff)\n      and\n      0x20\n      dup3\n      add\n      dup1\n      mload\n      0xffffffffffffffffffffffffffffffffffffffffffffffffffffffff\n      dup4\n      dup2\n      dup4\n      and\n      or\n      dup4\n      mstore\n      pop\n      pop\n      pop\n      pop\n        /* \"contracts/Super-Zap.sol\":12055:12074  _callOptionalReturn */\n      tag_123\n        /* \"contracts/Super-Zap.sol\":12055:12151  _callOptionalReturn(token, abi.encodeWithSelector(token.transferFrom.selector, from, to, value)) */\n      jump\t// in\n    tag_125:\n        /* \"contracts/Super-Zap.sol\":11954:12159  function safeTransferFrom(IERC20 token, address from, address to, uint256 value) internal {\r... */\n      pop\n      pop\n      pop\n      pop\n      jump\t// out\n        /* \"contracts/Super-Zap.sol\":5233:5704  function mul(uint256 a, uint256 b) internal pure returns (uint256) {\r... */\n    tag_73:\n        /* \"contracts/Super-Zap.sol\":5291:5298  uint256 */\n      0x00\n        /* \"contracts/Super-Zap.sol\":5541:5542  0 */\n      dup1\n        /* \"contracts/Super-Zap.sol\":5536:5537  a */\n      dup4\n        /* \"contracts/Super-Zap.sol\":5536:5542  a == 0 */\n      eq\n        /* \"contracts/Super-Zap.sol\":5532:5579  if (a == 0) {\r... */\n      iszero\n      tag_127\n      jumpi\n        /* \"contracts/Super-Zap.sol\":5566:5567  0 */\n      0x00\n        /* \"contracts/Super-Zap.sol\":5559:5567  return 0 */\n      swap1\n      pop\n      jump(tag_126)\n        /* \"contracts/Super-Zap.sol\":5532:5579  if (a == 0) {\r... */\n    tag_127:\n        /* \"contracts/Super-Zap.sol\":5591:5600  uint256 c */\n      0x00\n        /* \"contracts/Super-Zap.sol\":5607:5608  b */\n      dup3\n        /* \"contracts/Super-Zap.sol\":5603:5604  a */\n      dup5\n        /* \"contracts/Super-Zap.sol\":5603:5608  a * b */\n      mul\n        /* \"contracts/Super-Zap.sol\":5591:5608  uint256 c = a * b */\n      swap1\n      pop\n        /* \"contracts/Super-Zap.sol\":5636:5637  b */\n      dup3\n        /* \"contracts/Super-Zap.sol\":5631:5632  a */\n      dup5\n        /* \"contracts/Super-Zap.sol\":5627:5628  c */\n      dup3\n        /* \"contracts/Super-Zap.sol\":5627:5632  c / a */\n      dup2\n      tag_128\n      jumpi\n      invalid\n    tag_128:\n      div\n        /* \"contracts/Super-Zap.sol\":5627:5637  c / a == b */\n      eq\n        /* \"contracts/Super-Zap.sol\":5619:5675  require(c / a == b, \"SafeMath: multiplication overflow\") */\n      tag_129\n      jumpi\n      mload(0x40)\n      0x08c379a000000000000000000000000000000000000000000000000000000000\n      dup2\n      mstore\n      0x04\n      add\n      dup1\n      dup1\n      0x20\n      add\n      dup3\n      dup2\n      sub\n      dup3\n      mstore\n      0x21\n      dup2\n      mstore\n      0x20\n      add\n      dup1\n      data_9113bb53c2876a3805b2c9242029423fc540a728243ce887ab24c82cf119fba3\n      0x21\n      swap2\n      codecopy\n      0x40\n      add\n      swap2\n      pop\n      pop\n      mload(0x40)\n      dup1\n      swap2\n      sub\n      swap1\n      revert\n    tag_129:\n        /* \"contracts/Super-Zap.sol\":5695:5696  c */\n      dup1\n        /* \"contracts/Super-Zap.sol\":5688:5696  return c */\n      swap2\n      pop\n      pop\n        /* \"contracts/Super-Zap.sol\":5233:5704  function mul(uint256 a, uint256 b) internal pure returns (uint256) {\r... */\n    tag_126:\n      swap3\n      swap2\n      pop\n      pop\n      jump\t// out\n        /* \"contracts/Super-Zap.sol\":6172:6304  function div(uint256 a, uint256 b) internal pure returns (uint256) {\r... */\n    tag_74:\n        /* \"contracts/Super-Zap.sol\":6230:6237  uint256 */\n      0x00\n        /* \"contracts/Super-Zap.sol\":6257:6296  div(a, b, \"SafeMath: division by zero\") */\n      tag_131\n        /* \"contracts/Super-Zap.sol\":6261:6262  a */\n      dup4\n        /* \"contracts/Super-Zap.sol\":6264:6265  b */\n      dup4\n        /* \"contracts/Super-Zap.sol\":6257:6296  div(a, b, \"SafeMath: division by zero\") */\n      mload(0x40)\n      dup1\n      0x40\n      add\n      0x40\n      mstore\n      dup1\n      0x1a\n      dup2\n      mstore\n      0x20\n      add\n      0x536166654d6174683a206469766973696f6e206279207a65726f000000000000\n      dup2\n      mstore\n      pop\n        /* \"contracts/Super-Zap.sol\":6257:6260  div */\n      tag_132\n        /* \"contracts/Super-Zap.sol\":6257:6296  div(a, b, \"SafeMath: division by zero\") */\n      jump\t// in\n    tag_131:\n        /* \"contracts/Super-Zap.sol\":6250:6296  return div(a, b, \"SafeMath: division by zero\") */\n      swap1\n      pop\n        /* \"contracts/Super-Zap.sol\":6172:6304  function div(uint256 a, uint256 b) internal pure returns (uint256) {\r... */\n      swap3\n      swap2\n      pop\n      pop\n      jump\t// out\n        /* \"contracts/Super-Zap.sol\":4359:4495  function sub(uint256 a, uint256 b) internal pure returns (uint256) {\r... */\n    tag_76:\n        /* \"contracts/Super-Zap.sol\":4417:4424  uint256 */\n      0x00\n        /* \"contracts/Super-Zap.sol\":4444:4487  sub(a, b, \"SafeMath: subtraction overflow\") */\n      tag_134\n        /* \"contracts/Super-Zap.sol\":4448:4449  a */\n      dup4\n        /* \"contracts/Super-Zap.sol\":4451:4452  b */\n      dup4\n        /* \"contracts/Super-Zap.sol\":4444:4487  sub(a, b, \"SafeMath: subtraction overflow\") */\n      mload(0x40)\n      dup1\n      0x40\n      add\n      0x40\n      mstore\n      dup1\n      0x1e\n      dup2\n      mstore\n      0x20\n      add\n      0x536166654d6174683a207375627472616374696f6e206f766572666c6f770000\n      dup2\n      mstore\n      pop\n        /* \"contracts/Super-Zap.sol\":4444:4447  sub */\n      tag_135\n        /* \"contracts/Super-Zap.sol\":4444:4487  sub(a, b, \"SafeMath: subtraction overflow\") */\n      jump\t// in\n    tag_134:\n        /* \"contracts/Super-Zap.sol\":4437:4487  return sub(a, b, \"SafeMath: subtraction overflow\") */\n      swap1\n      pop\n        /* \"contracts/Super-Zap.sol\":4359:4495  function sub(uint256 a, uint256 b) internal pure returns (uint256) {\r... */\n      swap3\n      swap2\n      pop\n      pop\n      jump\t// out\n        /* \"contracts/Super-Zap.sol\":17489:17657  function _checkMin(address from, uint256 amount) internal view returns (bool) {\r... */\n    tag_86:\n        /* \"contracts/Super-Zap.sol\":17561:17565  bool */\n      0x00\n        /* \"contracts/Super-Zap.sol\":17601:17606  fudge */\n      0x02\n      0x00\n      swap1\n      sload\n      swap1\n      0x0100\n      exp\n      swap1\n      div\n      0xffffffffffffffffffffffffffffffffffffffff\n      and\n        /* \"contracts/Super-Zap.sol\":17585:17607  from == address(fudge) */\n      0xffffffffffffffffffffffffffffffffffffffff\n      and\n        /* \"contracts/Super-Zap.sol\":17585:17589  from */\n      dup4\n        /* \"contracts/Super-Zap.sol\":17585:17607  from == address(fudge) */\n      0xffffffffffffffffffffffffffffffffffffffff\n      and\n      eq\n        /* \"contracts/Super-Zap.sol\":17585:17649  from == address(fudge) ? amount >= minFudge : amount >= minStraw */\n      tag_137\n      jumpi\n        /* \"contracts/Super-Zap.sol\":17641:17649  minStraw */\n      sload(0x07)\n        /* \"contracts/Super-Zap.sol\":17631:17637  amount */\n      dup3\n        /* \"contracts/Super-Zap.sol\":17631:17649  amount >= minStraw */\n      lt\n      iszero\n        /* \"contracts/Super-Zap.sol\":17585:17649  from == address(fudge) ? amount >= minFudge : amount >= minStraw */\n      jump(tag_138)\n    tag_137:\n        /* \"contracts/Super-Zap.sol\":17620:17628  minFudge */\n      sload(0x08)\n        /* \"contracts/Super-Zap.sol\":17610:17616  amount */\n      dup3\n        /* \"contracts/Super-Zap.sol\":17610:17628  amount >= minFudge */\n      lt\n      iszero\n        /* \"contracts/Super-Zap.sol\":17585:17649  from == address(fudge) ? amount >= minFudge : amount >= minStraw */\n    tag_138:\n        /* \"contracts/Super-Zap.sol\":17578:17649  return from == address(fudge) ? amount >= minFudge : amount >= minStraw */\n      swap1\n      pop\n        /* \"contracts/Super-Zap.sol\":17489:17657  function _checkMin(address from, uint256 amount) internal view returns (bool) {\r... */\n      swap3\n      swap2\n      pop\n      pop\n      jump\t// out\n        /* \"contracts/Super-Zap.sol\":13813:14928  function _callOptionalReturn(IERC20 token, bytes memory data) private {\r... */\n    tag_123:\n        /* \"contracts/Super-Zap.sol\":14418:14445  address(token).isContract() */\n      tag_140\n        /* \"contracts/Super-Zap.sol\":14426:14431  token */\n      dup3\n        /* \"contracts/Super-Zap.sol\":14418:14443  address(token).isContract */\n      0xffffffffffffffffffffffffffffffffffffffff\n      and\n      tag_141\n        /* \"contracts/Super-Zap.sol\":14418:14445  address(token).isContract() */\n      jump\t// in\n    tag_140:\n        /* \"contracts/Super-Zap.sol\":14410:14481  require(address(token).isContract(), \"SafeERC20: call to non-contract\") */\n      tag_142\n      jumpi\n      mload(0x40)\n      0x08c379a000000000000000000000000000000000000000000000000000000000\n      dup2\n      mstore\n      0x04\n      add\n      dup1\n      dup1\n      0x20\n      add\n      dup3\n      dup2\n      sub\n      dup3\n      mstore\n      0x1f\n      dup2\n      mstore\n      0x20\n      add\n      dup1\n      0x5361666545524332303a2063616c6c20746f206e6f6e2d636f6e747261637400\n      dup2\n      mstore\n      pop\n      0x20\n      add\n      swap2\n      pop\n      pop\n      mload(0x40)\n      dup1\n      swap2\n      sub\n      swap1\n      revert\n    tag_142:\n        /* \"contracts/Super-Zap.sol\":14555:14567  bool success */\n      0x00\n        /* \"contracts/Super-Zap.sol\":14569:14592  bytes memory returndata */\n      0x60\n        /* \"contracts/Super-Zap.sol\":14604:14609  token */\n      dup4\n        /* \"contracts/Super-Zap.sol\":14596:14615  address(token).call */\n      0xffffffffffffffffffffffffffffffffffffffff\n      and\n        /* \"contracts/Super-Zap.sol\":14616:14620  data */\n      dup4\n        /* \"contracts/Super-Zap.sol\":14596:14621  address(token).call(data) */\n      mload(0x40)\n      dup1\n      dup3\n      dup1\n      mload\n      swap1\n      0x20\n      add\n      swap1\n      dup1\n      dup4\n      dup4\n    tag_143:\n      0x20\n      dup4\n      lt\n      tag_145\n      jumpi\n      dup1\n      mload\n      dup3\n      mstore\n      0x20\n      dup3\n      add\n      swap2\n      pop\n      0x20\n      dup2\n      add\n      swap1\n      pop\n      0x20\n      dup4\n      sub\n      swap3\n      pop\n      jump(tag_143)\n    tag_145:\n      0x01\n      dup4\n      0x20\n      sub\n      0x0100\n      exp\n      sub\n      dup1\n      not\n      dup3\n      mload\n      and\n      dup2\n      dup5\n      mload\n      and\n      dup1\n      dup3\n      or\n      dup6\n      mstore\n      pop\n      pop\n      pop\n      pop\n      pop\n      pop\n      swap1\n      pop\n      add\n      swap2\n      pop\n      pop\n      0x00\n      mload(0x40)\n      dup1\n      dup4\n      sub\n      dup2\n      0x00\n      dup7\n      gas\n      call\n      swap2\n      pop\n      pop\n      returndatasize\n      dup1\n      0x00\n      dup2\n      eq\n      tag_148\n      jumpi\n      mload(0x40)\n      swap2\n      pop\n      and(add(returndatasize, 0x3f), not(0x1f))\n      dup3\n      add\n      0x40\n      mstore\n      returndatasize\n      dup3\n      mstore\n      returndatasize\n      0x00\n      0x20\n      dup5\n      add\n      returndatacopy\n      jump(tag_147)\n    tag_148:\n      0x60\n      swap2\n      pop\n    tag_147:\n      pop\n        /* \"contracts/Super-Zap.sol\":14554:14621  (bool success, bytes memory returndata) = address(token).call(data) */\n      swap2\n      pop\n      swap2\n      pop\n        /* \"contracts/Super-Zap.sol\":14640:14647  success */\n      dup2\n        /* \"contracts/Super-Zap.sol\":14632:14684  require(success, \"SafeERC20: low-level call failed\") */\n      tag_149\n      jumpi\n      mload(0x40)\n      0x08c379a000000000000000000000000000000000000000000000000000000000\n      dup2\n      mstore\n      0x04\n      add\n      dup1\n      dup1\n      0x20\n      add\n      dup3\n      dup2\n      sub\n      dup3\n      mstore\n      0x20\n      dup2\n      mstore\n      0x20\n      add\n      dup1\n      0x5361666545524332303a206c6f772d6c6576656c2063616c6c206661696c6564\n      dup2\n      mstore\n      pop\n      0x20\n      add\n      swap2\n      pop\n      pop\n      mload(0x40)\n      dup1\n      swap2\n      sub\n      swap1\n      revert\n    tag_149:\n        /* \"contracts/Super-Zap.sol\":14721:14722  0 */\n      0x00\n        /* \"contracts/Super-Zap.sol\":14701:14711  returndata */\n      dup2\n        /* \"contracts/Super-Zap.sol\":14701:14718  returndata.length */\n      mload\n        /* \"contracts/Super-Zap.sol\":14701:14722  returndata.length > 0 */\n      gt\n        /* \"contracts/Super-Zap.sol\":14697:14921  if (returndata.length > 0) { // Return data is optional\r... */\n      iszero\n      tag_150\n      jumpi\n        /* \"contracts/Super-Zap.sol\":14843:14853  returndata */\n      dup1\n        /* \"contracts/Super-Zap.sol\":14832:14862  abi.decode(returndata, (bool)) */\n      dup1\n      0x20\n      add\n      swap1\n      mload\n      0x20\n      dup2\n      lt\n      iszero\n      tag_151\n      jumpi\n      0x00\n      dup1\n      revert\n    tag_151:\n      dup2\n      add\n      swap1\n      dup1\n      dup1\n      mload\n      swap1\n      0x20\n      add\n      swap1\n      swap3\n      swap2\n      swap1\n      pop\n      pop\n      pop\n        /* \"contracts/Super-Zap.sol\":14824:14909  require(abi.decode(returndata, (bool)), \"SafeERC20: ERC20 operation did not succeed\") */\n      tag_152\n      jumpi\n      mload(0x40)\n      0x08c379a000000000000000000000000000000000000000000000000000000000\n      dup2\n      mstore\n      0x04\n      add\n      dup1\n      dup1\n      0x20\n      add\n      dup3\n      dup2\n      sub\n      dup3\n      mstore\n      0x2a\n      dup2\n      mstore\n      0x20\n      add\n      dup1\n      data_e11ad79d1e4a7f2e5f376964cb99e8e8f7904e3fc16a109f7a7ecb9aa7956dcd\n      0x2a\n      swap2\n      codecopy\n      0x40\n      add\n      swap2\n      pop\n      pop\n      mload(0x40)\n      dup1\n      swap2\n      sub\n      swap1\n      revert\n    tag_152:\n        /* \"contracts/Super-Zap.sol\":14697:14921  if (returndata.length > 0) { // Return data is optional\r... */\n    tag_150:\n        /* \"contracts/Super-Zap.sol\":13813:14928  function _callOptionalReturn(IERC20 token, bytes memory data) private {\r... */\n      pop\n      pop\n      pop\n      pop\n      jump\t// out\n        /* \"contracts/Super-Zap.sol\":6792:7137  function div(uint256 a, uint256 b, string memory errorMessage) internal pure returns (uint256) {\r... */\n    tag_132:\n        /* \"contracts/Super-Zap.sol\":6878:6885  uint256 */\n      0x00\n        /* \"contracts/Super-Zap.sol\":6977:6978  0 */\n      dup1\n        /* \"contracts/Super-Zap.sol\":6973:6974  b */\n      dup4\n        /* \"contracts/Super-Zap.sol\":6973:6978  b > 0 */\n      gt\n        /* \"contracts/Super-Zap.sol\":6980:6992  errorMessage */\n      dup3\n        /* \"contracts/Super-Zap.sol\":6965:6993  require(b > 0, errorMessage) */\n      swap1\n      tag_154\n      jumpi\n      mload(0x40)\n      0x08c379a000000000000000000000000000000000000000000000000000000000\n      dup2\n      mstore\n      0x04\n      add\n      dup1\n      dup1\n      0x20\n      add\n      dup3\n      dup2\n      sub\n      dup3\n      mstore\n      dup4\n      dup2\n      dup2\n      mload\n      dup2\n      mstore\n      0x20\n      add\n      swap2\n      pop\n      dup1\n      mload\n      swap1\n      0x20\n      add\n      swap1\n      dup1\n      dup4\n      dup4\n      0x00\n    tag_155:\n      dup4\n      dup2\n      lt\n      iszero\n      tag_157\n      jumpi\n      dup1\n      dup3\n      add\n      mload\n      dup2\n      dup5\n      add\n      mstore\n      0x20\n      dup2\n      add\n      swap1\n      pop\n      jump(tag_155)\n    tag_157:\n      pop\n      pop\n      pop\n      pop\n      swap1\n      pop\n      swap1\n      dup2\n      add\n      swap1\n      0x1f\n      and\n      dup1\n      iszero\n      tag_158\n      jumpi\n      dup1\n      dup3\n      sub\n      dup1\n      mload\n      0x01\n      dup4\n      0x20\n      sub\n      0x0100\n      exp\n      sub\n      not\n      and\n      dup2\n      mstore\n      0x20\n      add\n      swap2\n      pop\n    tag_158:\n      pop\n      swap3\n      pop\n      pop\n      pop\n      mload(0x40)\n      dup1\n      swap2\n      sub\n      swap1\n      revert\n    tag_154:\n      pop\n        /* \"contracts/Super-Zap.sol\":7004:7013  uint256 c */\n      0x00\n        /* \"contracts/Super-Zap.sol\":7020:7021  b */\n      dup4\n        /* \"contracts/Super-Zap.sol\":7016:7017  a */\n      dup6\n        /* \"contracts/Super-Zap.sol\":7016:7021  a / b */\n      dup2\n      tag_159\n      jumpi\n      invalid\n    tag_159:\n      div\n        /* \"contracts/Super-Zap.sol\":7004:7021  uint256 c = a / b */\n      swap1\n      pop\n        /* \"contracts/Super-Zap.sol\":7128:7129  c */\n      dup1\n        /* \"contracts/Super-Zap.sol\":7121:7129  return c */\n      swap2\n      pop\n      pop\n        /* \"contracts/Super-Zap.sol\":6792:7137  function div(uint256 a, uint256 b, string memory errorMessage) internal pure returns (uint256) {\r... */\n      swap4\n      swap3\n      pop\n      pop\n      pop\n      jump\t// out\n        /* \"contracts/Super-Zap.sol\":4790:4982  function sub(uint256 a, uint256 b, string memory errorMessage) internal pure returns (uint256) {\r... */\n    tag_135:\n        /* \"contracts/Super-Zap.sol\":4876:4883  uint256 */\n      0x00\n        /* \"contracts/Super-Zap.sol\":4909:4910  a */\n      dup4\n        /* \"contracts/Super-Zap.sol\":4904:4905  b */\n      dup4\n        /* \"contracts/Super-Zap.sol\":4904:4910  b <= a */\n      gt\n      iszero\n        /* \"contracts/Super-Zap.sol\":4912:4924  errorMessage */\n      dup3\n        /* \"contracts/Super-Zap.sol\":4896:4925  require(b <= a, errorMessage) */\n      swap1\n      tag_161\n      jumpi\n      mload(0x40)\n      0x08c379a000000000000000000000000000000000000000000000000000000000\n      dup2\n      mstore\n      0x04\n      add\n      dup1\n      dup1\n      0x20\n      add\n      dup3\n      dup2\n      sub\n      dup3\n      mstore\n      dup4\n      dup2\n      dup2\n      mload\n      dup2\n      mstore\n      0x20\n      add\n      swap2\n      pop\n      dup1\n      mload\n      swap1\n      0x20\n      add\n      swap1\n      dup1\n      dup4\n      dup4\n      0x00\n    tag_162:\n      dup4\n      dup2\n      lt\n      iszero\n      tag_164\n      jumpi\n      dup1\n      dup3\n      add\n      mload\n      dup2\n      dup5\n      add\n      mstore\n      0x20\n      dup2\n      add\n      swap1\n      pop\n      jump(tag_162)\n    tag_164:\n      pop\n      pop\n      pop\n      pop\n      swap1\n      pop\n      swap1\n      dup2\n      add\n      swap1\n      0x1f\n      and\n      dup1\n      iszero\n      tag_165\n      jumpi\n      dup1\n      dup3\n      sub\n      dup1\n      mload\n      0x01\n      dup4\n      0x20\n      sub\n      0x0100\n      exp\n      sub\n      not\n      and\n      dup2\n      mstore\n      0x20\n      add\n      swap2\n      pop\n    tag_165:\n      pop\n      swap3\n      pop\n      pop\n      pop\n      mload(0x40)\n      dup1\n      swap2\n      sub\n      swap1\n      revert\n    tag_161:\n      pop\n        /* \"contracts/Super-Zap.sol\":4936:4945  uint256 c */\n      0x00\n        /* \"contracts/Super-Zap.sol\":4952:4953  b */\n      dup4\n        /* \"contracts/Super-Zap.sol\":4948:4949  a */\n      dup6\n        /* \"contracts/Super-Zap.sol\":4948:4953  a - b */\n      sub\n        /* \"contracts/Super-Zap.sol\":4936:4953  uint256 c = a - b */\n      swap1\n      pop\n        /* \"contracts/Super-Zap.sol\":4973:4974  c */\n      dup1\n        /* \"contracts/Super-Zap.sol\":4966:4974  return c */\n      swap2\n      pop\n      pop\n        /* \"contracts/Super-Zap.sol\":4790:4982  function sub(uint256 a, uint256 b, string memory errorMessage) internal pure returns (uint256) {\r... */\n      swap4\n      swap3\n      pop\n      pop\n      pop\n      jump\t// out\n        /* \"contracts/Super-Zap.sol\":9148:9767  function isContract(address account) internal view returns (bool) {\r... */\n    tag_141:\n        /* \"contracts/Super-Zap.sol\":9208:9212  bool */\n      0x00\n        /* \"contracts/Super-Zap.sol\":9470:9486  bytes32 codehash */\n      dup1\n        /* \"contracts/Super-Zap.sol\":9497:9516  bytes32 accountHash */\n      0x00\n        /* \"contracts/Super-Zap.sol\":9519:9585  0xc5d2460186f7233c927e7db2dcc703c0e500b653ca82273b7bfad8045d85a470 */\n      0xc5d2460186f7233c927e7db2dcc703c0e500b653ca82273b7bfad8045d85a470\n        /* \"contracts/Super-Zap.sol\":9497:9585  bytes32 accountHash = 0xc5d2460186f7233c927e7db2dcc703c0e500b653ca82273b7bfad8045d85a470 */\n      0x00\n      shl\n      swap1\n      pop\n        /* \"contracts/Super-Zap.sol\":9688:9695  account */\n      dup4\n        /* \"contracts/Super-Zap.sol\":9676:9696  extcodehash(account) */\n      extcodehash\n        /* \"contracts/Super-Zap.sol\":9664:9696  codehash := extcodehash(account) */\n      swap2\n      pop\n        /* \"contracts/Super-Zap.sol\":9728:9739  accountHash */\n      dup1\n        /* \"contracts/Super-Zap.sol\":9716:9724  codehash */\n      dup3\n        /* \"contracts/Super-Zap.sol\":9716:9739  codehash != accountHash */\n      eq\n      iszero\n        /* \"contracts/Super-Zap.sol\":9716:9758  codehash != accountHash && codehash != 0x0 */\n      dup1\n      iszero\n      tag_167\n      jumpi\n      pop\n        /* \"contracts/Super-Zap.sol\":9755:9758  0x0 */\n      0x00\n        /* \"contracts/Super-Zap.sol\":9743:9758  codehash != 0x0 */\n      dup1\n      shl\n        /* \"contracts/Super-Zap.sol\":9743:9751  codehash */\n      dup3\n        /* \"contracts/Super-Zap.sol\":9743:9758  codehash != 0x0 */\n      eq\n      iszero\n        /* \"contracts/Super-Zap.sol\":9716:9758  codehash != accountHash && codehash != 0x0 */\n    tag_167:\n        /* \"contracts/Super-Zap.sol\":9708:9759  return (codehash != accountHash && codehash != 0x0) */\n      swap3\n      pop\n      pop\n      pop\n        /* \"contracts/Super-Zap.sol\":9148:9767  function isContract(address account) internal view returns (bool) {\r... */\n      swap2\n      swap1\n      pop\n      jump\t// out\n    stop\n    data_40960c214819ead63fefdd8daacedc8ff37ea1cb3d93ededabce0e8931268929 53757065725a61703a2063616c6c6572206973206e6f7420746865206f70657261746f72\n    data_9113bb53c2876a3805b2c9242029423fc540a728243ce887ab24c82cf119fba3 536166654d6174683a206d756c7469706c69636174696f6e206f766572666c6f77\n    data_e11ad79d1e4a7f2e5f376964cb99e8e8f7904e3fc16a109f7a7ecb9aa7956dcd 5361666545524332303a204552433230206f7065726174696f6e20646964206e6f742073756363656564\n\n    auxdata: 0xa2646970667358221220792488fcfef89432323f27ab93af29d81d5f5fdf8b2f446ca612461c54edb66f64736f6c634300060c0033\n}\n",
				"bytecode": {
					"linkReferences": {},
					"object": "608060405234801561001057600080fd5b50604051611cf4380380611cf4833981810160405260a081101561003357600080fd5b81019080805190602001909291908051906020019092919080519060200190929190805190602001909291908051906020019092919050505084600160006101000a81548173ffffffffffffffffffffffffffffffffffffffff021916908373ffffffffffffffffffffffffffffffffffffffff16021790555083600260006101000a81548173ffffffffffffffffffffffffffffffffffffffff021916908373ffffffffffffffffffffffffffffffffffffffff16021790555082600360006101000a81548173ffffffffffffffffffffffffffffffffffffffff021916908373ffffffffffffffffffffffffffffffffffffffff16021790555081600460006101000a81548173ffffffffffffffffffffffffffffffffffffffff021916908373ffffffffffffffffffffffffffffffffffffffff16021790555080600560006101000a81548173ffffffffffffffffffffffffffffffffffffffff021916908373ffffffffffffffffffffffffffffffffffffffff16021790555033600660006101000a81548173ffffffffffffffffffffffffffffffffffffffff021916908373ffffffffffffffffffffffffffffffffffffffff1602179055506601c6bf52634000600781905550670de0b6b3a7640000600881905550600260009054906101000a900473ffffffffffffffffffffffffffffffffffffffff1673ffffffffffffffffffffffffffffffffffffffff1663095ea7b3600160009054906101000a900473ffffffffffffffffffffffffffffffffffffffff167fffffffffffffffffffffffffffffffffffffffffffffffffffffffffffffffff6040518363ffffffff1660e01b8152600401808373ffffffffffffffffffffffffffffffffffffffff16815260200182815260200192505050602060405180830381600087803b1580156102e457600080fd5b505af11580156102f8573d6000803e3d6000fd5b505050506040513d602081101561030e57600080fd5b810190808051906020019092919050505050600360009054906101000a900473ffffffffffffffffffffffffffffffffffffffff1673ffffffffffffffffffffffffffffffffffffffff1663095ea7b3600160009054906101000a900473ffffffffffffffffffffffffffffffffffffffff167fffffffffffffffffffffffffffffffffffffffffffffffffffffffffffffffff6040518363ffffffff1660e01b8152600401808373ffffffffffffffffffffffffffffffffffffffff16815260200182815260200192505050602060405180830381600087803b1580156103f557600080fd5b505af1158015610409573d6000803e3d6000fd5b505050506040513d602081101561041f57600080fd5b81019080805190602001909291905050505050505050506118af806104456000396000f3fe608060405234801561001057600080fd5b50600436106100b45760003560e01c8063741aa61011610071578063741aa6101461022e57806385499cfb14610262578063984b163e146102a6578063a7a21712146102da578063b9b5fd071461030e578063d0318d7e14610342576100b4565b806302c426a8146100b95780631c15716b146100d75780634d4af36f1461010b57806351cff8d914610143578063570ca73514610187578063620b2c73146101bb575b600080fd5b6100c1610360565b6040518082815260200191505060405180910390f35b6100df610366565b604051808273ffffffffffffffffffffffffffffffffffffffff16815260200191505060405180910390f35b6101416004803603604081101561012157600080fd5b81019080803590602001909291908035906020019092919050505061038c565b005b6101856004803603602081101561015957600080fd5b81019080803573ffffffffffffffffffffffffffffffffffffffff169060200190929190505050610444565b005b61018f61063a565b604051808273ffffffffffffffffffffffffffffffffffffffff16815260200191505060405180910390f35b610211600480360360608110156101d157600080fd5b81019080803573ffffffffffffffffffffffffffffffffffffffff1690602001909291908035906020019092919080359060200190929190505050610660565b604051808381526020018281526020019250505060405180910390f35b610236610eca565b604051808273ffffffffffffffffffffffffffffffffffffffff16815260200191505060405180910390f35b6102a46004803603602081101561027857600080fd5b81019080803573ffffffffffffffffffffffffffffffffffffffff169060200190929190505050610ef0565b005b6102ae611088565b604051808273ffffffffffffffffffffffffffffffffffffffff16815260200191505060405180910390f35b6102e26110ae565b604051808273ffffffffffffffffffffffffffffffffffffffff16815260200191505060405180910390f35b6103166110d4565b604051808273ffffffffffffffffffffffffffffffffffffffff16815260200191505060405180910390f35b61034a6110fa565b6040518082815260200191505060405180910390f35b60085481565b600460009054906101000a900473ffffffffffffffffffffffffffffffffffffffff1681565b3373ffffffffffffffffffffffffffffffffffffffff16600660009054906101000a900473ffffffffffffffffffffffffffffffffffffffff1673ffffffffffffffffffffffffffffffffffffffff1614610432576040517f08c379a000000000000000000000000000000000000000000000000000000000815260040180806020018281038252602481526020018061180b6024913960400191505060405180910390fd5b81600781905550806008819055505050565b3373ffffffffffffffffffffffffffffffffffffffff16600660009054906101000a900473ffffffffffffffffffffffffffffffffffffffff1673ffffffffffffffffffffffffffffffffffffffff16146104ea576040517f08c379a000000000000000000000000000000000000000000000000000000000815260040180806020018281038252602481526020018061180b6024913960400191505060405180910390fd5b600073ffffffffffffffffffffffffffffffffffffffff168173ffffffffffffffffffffffffffffffffffffffff16146105ef576105ea338273ffffffffffffffffffffffffffffffffffffffff166370a08231306040518263ffffffff1660e01b8152600401808273ffffffffffffffffffffffffffffffffffffffff16815260200191505060206040518083038186803b15801561058957600080fd5b505afa15801561059d573d6000803e3d6000fd5b505050506040513d60208110156105b357600080fd5b81019080805190602001909291905050508373ffffffffffffffffffffffffffffffffffffffff166111009092919063ffffffff16565b610637565b3373ffffffffffffffffffffffffffffffffffffffff166108fc479081150290604051600060405180830381858888f19350505050158015610635573d6000803e3d6000fd5b505b50565b600660009054906101000a900473ffffffffffffffffffffffffffffffffffffffff1681565b60008060648311156106da576040517f08c379a000000000000000000000000000000000000000000000000000000000815260040180806020018281038252601c8152602001807f496e76616c69642046554447452d4441492d4c502070657263656e740000000081525060200191505060405180910390fd5b838573ffffffffffffffffffffffffffffffffffffffff166370a08231336040518263ffffffff1660e01b8152600401808273ffffffffffffffffffffffffffffffffffffffff16815260200191505060206040518083038186803b15801561074257600080fd5b505afa158015610756573d6000803e3d6000fd5b505050506040513d602081101561076c57600080fd5b810190808051906020019092919050505010156107f1576040517f08c379a00000000000000000000000000000000000000000000000000000000081526004018080602001828103825260148152602001807f496e73756666696369656e742062616c616e636500000000000000000000000081525060200191505060405180910390fd5b61081e3330868873ffffffffffffffffffffffffffffffffffffffff166111a2909392919063ffffffff16565b60006064841061082e5784610855565b6108546064610846868861126390919063ffffffff16565b6112e990919063ffffffff16565b5b9050600061086c828761133390919063ffffffff16565b90506000600460009054906101000a900473ffffffffffffffffffffffffffffffffffffffff1673ffffffffffffffffffffffffffffffffffffffff166370a08231306040518263ffffffff1660e01b8152600401808273ffffffffffffffffffffffffffffffffffffffff16815260200191505060206040518083038186803b1580156108f957600080fd5b505afa15801561090d573d6000803e3d6000fd5b505050506040513d602081101561092357600080fd5b810190808051906020019092919050505090506000600560009054906101000a900473ffffffffffffffffffffffffffffffffffffffff1673ffffffffffffffffffffffffffffffffffffffff166370a08231306040518263ffffffff1660e01b8152600401808273ffffffffffffffffffffffffffffffffffffffff16815260200191505060206040518083038186803b1580156109c157600080fd5b505afa1580156109d5573d6000803e3d6000fd5b505050506040513d60208110156109eb57600080fd5b81019080805190602001909291905050509050610a08898561137d565b15610afd57600160009054906101000a900473ffffffffffffffffffffffffffffffffffffffff1673ffffffffffffffffffffffffffffffffffffffff1663847676278a86600460009054906101000a900473ffffffffffffffffffffffffffffffffffffffff166040518463ffffffff1660e01b8152600401808473ffffffffffffffffffffffffffffffffffffffff1681526020018381526020018273ffffffffffffffffffffffffffffffffffffffff1681526020019350505050600060405180830381600087803b158015610ae057600080fd5b505af1158015610af4573d6000803e3d6000fd5b50505050610b29565b610b2833858b73ffffffffffffffffffffffffffffffffffffffff166111009092919063ffffffff16565b5b610b33898461137d565b15610c2857600160009054906101000a900473ffffffffffffffffffffffffffffffffffffffff1673ffffffffffffffffffffffffffffffffffffffff1663847676278a85600560009054906101000a900473ffffffffffffffffffffffffffffffffffffffff166040518463ffffffff1660e01b8152600401808473ffffffffffffffffffffffffffffffffffffffff1681526020018381526020018273ffffffffffffffffffffffffffffffffffffffff1681526020019350505050600060405180830381600087803b158015610c0b57600080fd5b505af1158015610c1f573d6000803e3d6000fd5b50505050610c54565b610c5333848b73ffffffffffffffffffffffffffffffffffffffff166111009092919063ffffffff16565b5b6000610d2c83600460009054906101000a900473ffffffffffffffffffffffffffffffffffffffff1673ffffffffffffffffffffffffffffffffffffffff166370a08231306040518263ffffffff1660e01b8152600401808273ffffffffffffffffffffffffffffffffffffffff16815260200191505060206040518083038186803b158015610ce357600080fd5b505afa158015610cf7573d6000803e3d6000fd5b505050506040513d6020811015610d0d57600080fd5b810190808051906020019092919050505061133390919063ffffffff16565b90506000610e0683600560009054906101000a900473ffffffffffffffffffffffffffffffffffffffff1673ffffffffffffffffffffffffffffffffffffffff166370a08231306040518263ffffffff1660e01b8152600401808273ffffffffffffffffffffffffffffffffffffffff16815260200191505060206040518083038186803b158015610dbd57600080fd5b505afa158015610dd1573d6000803e3d6000fd5b505050506040513d6020811015610de757600080fd5b810190808051906020019092919050505061133390919063ffffffff16565b90506000821115610e5f57610e5e3383600460009054906101000a900473ffffffffffffffffffffffffffffffffffffffff1673ffffffffffffffffffffffffffffffffffffffff166111009092919063ffffffff16565b5b6000811115610eb657610eb53382600560009054906101000a900473ffffffffffffffffffffffffffffffffffffffff1673ffffffffffffffffffffffffffffffffffffffff166111009092919063ffffffff16565b5b818197509750505050505050935093915050565b600260009054906101000a900473ffffffffffffffffffffffffffffffffffffffff1681565b3373ffffffffffffffffffffffffffffffffffffffff16600660009054906101000a900473ffffffffffffffffffffffffffffffffffffffff1673ffffffffffffffffffffffffffffffffffffffff1614610f96576040517f08c379a000000000000000000000000000000000000000000000000000000000815260040180806020018281038252602481526020018061180b6024913960400191505060405180910390fd5b8073ffffffffffffffffffffffffffffffffffffffff1663095ea7b3600160009054906101000a900473ffffffffffffffffffffffffffffffffffffffff167fffffffffffffffffffffffffffffffffffffffffffffffffffffffffffffffff6040518363ffffffff1660e01b8152600401808373ffffffffffffffffffffffffffffffffffffffff16815260200182815260200192505050602060405180830381600087803b15801561104957600080fd5b505af115801561105d573d6000803e3d6000fd5b505050506040513d602081101561107357600080fd5b81019080805190602001909291905050505050565b600560009054906101000a900473ffffffffffffffffffffffffffffffffffffffff1681565b600160009054906101000a900473ffffffffffffffffffffffffffffffffffffffff1681565b600360009054906101000a900473ffffffffffffffffffffffffffffffffffffffff1681565b60075481565b61119d8363a9059cbb60e01b8484604051602401808373ffffffffffffffffffffffffffffffffffffffff16815260200182815260200192505050604051602081830303815290604052907bffffffffffffffffffffffffffffffffffffffffffffffffffffffff19166020820180517bffffffffffffffffffffffffffffffffffffffffffffffffffffffff83818316178352505050506113ee565b505050565b61125d846323b872dd60e01b858585604051602401808473ffffffffffffffffffffffffffffffffffffffff1681526020018373ffffffffffffffffffffffffffffffffffffffff1681526020018281526020019350505050604051602081830303815290604052907bffffffffffffffffffffffffffffffffffffffffffffffffffffffff19166020820180517bffffffffffffffffffffffffffffffffffffffffffffffffffffffff83818316178352505050506113ee565b50505050565b60008083141561127657600090506112e3565b600082840290508284828161128757fe5b04146112de576040517f08c379a000000000000000000000000000000000000000000000000000000000815260040180806020018281038252602181526020018061182f6021913960400191505060405180910390fd5b809150505b92915050565b600061132b83836040518060400160405280601a81526020017f536166654d6174683a206469766973696f6e206279207a65726f000000000000815250611639565b905092915050565b600061137583836040518060400160405280601e81526020017f536166654d6174683a207375627472616374696f6e206f766572666c6f7700008152506116ff565b905092915050565b6000600260009054906101000a900473ffffffffffffffffffffffffffffffffffffffff1673ffffffffffffffffffffffffffffffffffffffff168373ffffffffffffffffffffffffffffffffffffffff16146113df576007548210156113e6565b6008548210155b905092915050565b61140d8273ffffffffffffffffffffffffffffffffffffffff166117bf565b61147f576040517f08c379a000000000000000000000000000000000000000000000000000000000815260040180806020018281038252601f8152602001807f5361666545524332303a2063616c6c20746f206e6f6e2d636f6e74726163740081525060200191505060405180910390fd5b600060608373ffffffffffffffffffffffffffffffffffffffff16836040518082805190602001908083835b602083106114ce57805182526020820191506020810190506020830392506114ab565b6001836020036101000a0380198251168184511680821785525050505050509050019150506000604051808303816000865af19150503d8060008114611530576040519150601f19603f3d011682016040523d82523d6000602084013e611535565b606091505b5091509150816115ad576040517f08c379a00000000000000000000000000000000000000000000000000000000081526004018080602001828103825260208152602001807f5361666545524332303a206c6f772d6c6576656c2063616c6c206661696c656481525060200191505060405180910390fd5b600081511115611633578080602001905160208110156115cc57600080fd5b8101908080519060200190929190505050611632576040517f08c379a000000000000000000000000000000000000000000000000000000000815260040180806020018281038252602a815260200180611850602a913960400191505060405180910390fd5b5b50505050565b600080831182906116e5576040517f08c379a00000000000000000000000000000000000000000000000000000000081526004018080602001828103825283818151815260200191508051906020019080838360005b838110156116aa57808201518184015260208101905061168f565b50505050905090810190601f1680156116d75780820380516001836020036101000a031916815260200191505b509250505060405180910390fd5b5060008385816116f157fe5b049050809150509392505050565b60008383111582906117ac576040517f08c379a00000000000000000000000000000000000000000000000000000000081526004018080602001828103825283818151815260200191508051906020019080838360005b83811015611771578082015181840152602081019050611756565b50505050905090810190601f16801561179e5780820380516001836020036101000a031916815260200191505b509250505060405180910390fd5b5060008385039050809150509392505050565b60008060007fc5d2460186f7233c927e7db2dcc703c0e500b653ca82273b7bfad8045d85a47060001b9050833f915080821415801561180157506000801b8214155b9250505091905056fe53757065725a61703a2063616c6c6572206973206e6f7420746865206f70657261746f72536166654d6174683a206d756c7469706c69636174696f6e206f766572666c6f775361666545524332303a204552433230206f7065726174696f6e20646964206e6f742073756363656564a2646970667358221220792488fcfef89432323f27ab93af29d81d5f5fdf8b2f446ca612461c54edb66f64736f6c634300060c0033",
					"opcodes": "PUSH1 0x80 PUSH1 0x40 MSTORE CALLVALUE DUP1 ISZERO PUSH2 0x10 JUMPI PUSH1 0x0 DUP1 REVERT JUMPDEST POP PUSH1 0x40 MLOAD PUSH2 0x1CF4 CODESIZE SUB DUP1 PUSH2 0x1CF4 DUP4 CODECOPY DUP2 DUP2 ADD PUSH1 0x40 MSTORE PUSH1 0xA0 DUP2 LT ISZERO PUSH2 0x33 JUMPI PUSH1 0x0 DUP1 REVERT JUMPDEST DUP2 ADD SWAP1 DUP1 DUP1 MLOAD SWAP1 PUSH1 0x20 ADD SWAP1 SWAP3 SWAP2 SWAP1 DUP1 MLOAD SWAP1 PUSH1 0x20 ADD SWAP1 SWAP3 SWAP2 SWAP1 DUP1 MLOAD SWAP1 PUSH1 0x20 ADD SWAP1 SWAP3 SWAP2 SWAP1 DUP1 MLOAD SWAP1 PUSH1 0x20 ADD SWAP1 SWAP3 SWAP2 SWAP1 DUP1 MLOAD SWAP1 PUSH1 0x20 ADD SWAP1 SWAP3 SWAP2 SWAP1 POP POP POP DUP5 PUSH1 0x1 PUSH1 0x0 PUSH2 0x100 EXP DUP2 SLOAD DUP2 PUSH20 0xFFFFFFFFFFFFFFFFFFFFFFFFFFFFFFFFFFFFFFFF MUL NOT AND SWAP1 DUP4 PUSH20 0xFFFFFFFFFFFFFFFFFFFFFFFFFFFFFFFFFFFFFFFF AND MUL OR SWAP1 SSTORE POP DUP4 PUSH1 0x2 PUSH1 0x0 PUSH2 0x100 EXP DUP2 SLOAD DUP2 PUSH20 0xFFFFFFFFFFFFFFFFFFFFFFFFFFFFFFFFFFFFFFFF MUL NOT AND SWAP1 DUP4 PUSH20 0xFFFFFFFFFFFFFFFFFFFFFFFFFFFFFFFFFFFFFFFF AND MUL OR SWAP1 SSTORE POP DUP3 PUSH1 0x3 PUSH1 0x0 PUSH2 0x100 EXP DUP2 SLOAD DUP2 PUSH20 0xFFFFFFFFFFFFFFFFFFFFFFFFFFFFFFFFFFFFFFFF MUL NOT AND SWAP1 DUP4 PUSH20 0xFFFFFFFFFFFFFFFFFFFFFFFFFFFFFFFFFFFFFFFF AND MUL OR SWAP1 SSTORE POP DUP2 PUSH1 0x4 PUSH1 0x0 PUSH2 0x100 EXP DUP2 SLOAD DUP2 PUSH20 0xFFFFFFFFFFFFFFFFFFFFFFFFFFFFFFFFFFFFFFFF MUL NOT AND SWAP1 DUP4 PUSH20 0xFFFFFFFFFFFFFFFFFFFFFFFFFFFFFFFFFFFFFFFF AND MUL OR SWAP1 SSTORE POP DUP1 PUSH1 0x5 PUSH1 0x0 PUSH2 0x100 EXP DUP2 SLOAD DUP2 PUSH20 0xFFFFFFFFFFFFFFFFFFFFFFFFFFFFFFFFFFFFFFFF MUL NOT AND SWAP1 DUP4 PUSH20 0xFFFFFFFFFFFFFFFFFFFFFFFFFFFFFFFFFFFFFFFF AND MUL OR SWAP1 SSTORE POP CALLER PUSH1 0x6 PUSH1 0x0 PUSH2 0x100 EXP DUP2 SLOAD DUP2 PUSH20 0xFFFFFFFFFFFFFFFFFFFFFFFFFFFFFFFFFFFFFFFF MUL NOT AND SWAP1 DUP4 PUSH20 0xFFFFFFFFFFFFFFFFFFFFFFFFFFFFFFFFFFFFFFFF AND MUL OR SWAP1 SSTORE POP PUSH7 0x1C6BF52634000 PUSH1 0x7 DUP2 SWAP1 SSTORE POP PUSH8 0xDE0B6B3A7640000 PUSH1 0x8 DUP2 SWAP1 SSTORE POP PUSH1 0x2 PUSH1 0x0 SWAP1 SLOAD SWAP1 PUSH2 0x100 EXP SWAP1 DIV PUSH20 0xFFFFFFFFFFFFFFFFFFFFFFFFFFFFFFFFFFFFFFFF AND PUSH20 0xFFFFFFFFFFFFFFFFFFFFFFFFFFFFFFFFFFFFFFFF AND PUSH4 0x95EA7B3 PUSH1 0x1 PUSH1 0x0 SWAP1 SLOAD SWAP1 PUSH2 0x100 EXP SWAP1 DIV PUSH20 0xFFFFFFFFFFFFFFFFFFFFFFFFFFFFFFFFFFFFFFFF AND PUSH32 0xFFFFFFFFFFFFFFFFFFFFFFFFFFFFFFFFFFFFFFFFFFFFFFFFFFFFFFFFFFFFFFFF PUSH1 0x40 MLOAD DUP4 PUSH4 0xFFFFFFFF AND PUSH1 0xE0 SHL DUP2 MSTORE PUSH1 0x4 ADD DUP1 DUP4 PUSH20 0xFFFFFFFFFFFFFFFFFFFFFFFFFFFFFFFFFFFFFFFF AND DUP2 MSTORE PUSH1 0x20 ADD DUP3 DUP2 MSTORE PUSH1 0x20 ADD SWAP3 POP POP POP PUSH1 0x20 PUSH1 0x40 MLOAD DUP1 DUP4 SUB DUP2 PUSH1 0x0 DUP8 DUP1 EXTCODESIZE ISZERO DUP1 ISZERO PUSH2 0x2E4 JUMPI PUSH1 0x0 DUP1 REVERT JUMPDEST POP GAS CALL ISZERO DUP1 ISZERO PUSH2 0x2F8 JUMPI RETURNDATASIZE PUSH1 0x0 DUP1 RETURNDATACOPY RETURNDATASIZE PUSH1 0x0 REVERT JUMPDEST POP POP POP POP PUSH1 0x40 MLOAD RETURNDATASIZE PUSH1 0x20 DUP2 LT ISZERO PUSH2 0x30E JUMPI PUSH1 0x0 DUP1 REVERT JUMPDEST DUP2 ADD SWAP1 DUP1 DUP1 MLOAD SWAP1 PUSH1 0x20 ADD SWAP1 SWAP3 SWAP2 SWAP1 POP POP POP POP PUSH1 0x3 PUSH1 0x0 SWAP1 SLOAD SWAP1 PUSH2 0x100 EXP SWAP1 DIV PUSH20 0xFFFFFFFFFFFFFFFFFFFFFFFFFFFFFFFFFFFFFFFF AND PUSH20 0xFFFFFFFFFFFFFFFFFFFFFFFFFFFFFFFFFFFFFFFF AND PUSH4 0x95EA7B3 PUSH1 0x1 PUSH1 0x0 SWAP1 SLOAD SWAP1 PUSH2 0x100 EXP SWAP1 DIV PUSH20 0xFFFFFFFFFFFFFFFFFFFFFFFFFFFFFFFFFFFFFFFF AND PUSH32 0xFFFFFFFFFFFFFFFFFFFFFFFFFFFFFFFFFFFFFFFFFFFFFFFFFFFFFFFFFFFFFFFF PUSH1 0x40 MLOAD DUP4 PUSH4 0xFFFFFFFF AND PUSH1 0xE0 SHL DUP2 MSTORE PUSH1 0x4 ADD DUP1 DUP4 PUSH20 0xFFFFFFFFFFFFFFFFFFFFFFFFFFFFFFFFFFFFFFFF AND DUP2 MSTORE PUSH1 0x20 ADD DUP3 DUP2 MSTORE PUSH1 0x20 ADD SWAP3 POP POP POP PUSH1 0x20 PUSH1 0x40 MLOAD DUP1 DUP4 SUB DUP2 PUSH1 0x0 DUP8 DUP1 EXTCODESIZE ISZERO DUP1 ISZERO PUSH2 0x3F5 JUMPI PUSH1 0x0 DUP1 REVERT JUMPDEST POP GAS CALL ISZERO DUP1 ISZERO PUSH2 0x409 JUMPI RETURNDATASIZE PUSH1 0x0 DUP1 RETURNDATACOPY RETURNDATASIZE PUSH1 0x0 REVERT JUMPDEST POP POP POP POP PUSH1 0x40 MLOAD RETURNDATASIZE PUSH1 0x20 DUP2 LT ISZERO PUSH2 0x41F JUMPI PUSH1 0x0 DUP1 REVERT JUMPDEST DUP2 ADD SWAP1 DUP1 DUP1 MLOAD SWAP1 PUSH1 0x20 ADD SWAP1 SWAP3 SWAP2 SWAP1 POP POP POP POP POP POP POP POP POP PUSH2 0x18AF DUP1 PUSH2 0x445 PUSH1 0x0 CODECOPY PUSH1 0x0 RETURN INVALID PUSH1 0x80 PUSH1 0x40 MSTORE CALLVALUE DUP1 ISZERO PUSH2 0x10 JUMPI PUSH1 0x0 DUP1 REVERT JUMPDEST POP PUSH1 0x4 CALLDATASIZE LT PUSH2 0xB4 JUMPI PUSH1 0x0 CALLDATALOAD PUSH1 0xE0 SHR DUP1 PUSH4 0x741AA610 GT PUSH2 0x71 JUMPI DUP1 PUSH4 0x741AA610 EQ PUSH2 0x22E JUMPI DUP1 PUSH4 0x85499CFB EQ PUSH2 0x262 JUMPI DUP1 PUSH4 0x984B163E EQ PUSH2 0x2A6 JUMPI DUP1 PUSH4 0xA7A21712 EQ PUSH2 0x2DA JUMPI DUP1 PUSH4 0xB9B5FD07 EQ PUSH2 0x30E JUMPI DUP1 PUSH4 0xD0318D7E EQ PUSH2 0x342 JUMPI PUSH2 0xB4 JUMP JUMPDEST DUP1 PUSH4 0x2C426A8 EQ PUSH2 0xB9 JUMPI DUP1 PUSH4 0x1C15716B EQ PUSH2 0xD7 JUMPI DUP1 PUSH4 0x4D4AF36F EQ PUSH2 0x10B JUMPI DUP1 PUSH4 0x51CFF8D9 EQ PUSH2 0x143 JUMPI DUP1 PUSH4 0x570CA735 EQ PUSH2 0x187 JUMPI DUP1 PUSH4 0x620B2C73 EQ PUSH2 0x1BB JUMPI JUMPDEST PUSH1 0x0 DUP1 REVERT JUMPDEST PUSH2 0xC1 PUSH2 0x360 JUMP JUMPDEST PUSH1 0x40 MLOAD DUP1 DUP3 DUP2 MSTORE PUSH1 0x20 ADD SWAP2 POP POP PUSH1 0x40 MLOAD DUP1 SWAP2 SUB SWAP1 RETURN JUMPDEST PUSH2 0xDF PUSH2 0x366 JUMP JUMPDEST PUSH1 0x40 MLOAD DUP1 DUP3 PUSH20 0xFFFFFFFFFFFFFFFFFFFFFFFFFFFFFFFFFFFFFFFF AND DUP2 MSTORE PUSH1 0x20 ADD SWAP2 POP POP PUSH1 0x40 MLOAD DUP1 SWAP2 SUB SWAP1 RETURN JUMPDEST PUSH2 0x141 PUSH1 0x4 DUP1 CALLDATASIZE SUB PUSH1 0x40 DUP2 LT ISZERO PUSH2 0x121 JUMPI PUSH1 0x0 DUP1 REVERT JUMPDEST DUP2 ADD SWAP1 DUP1 DUP1 CALLDATALOAD SWAP1 PUSH1 0x20 ADD SWAP1 SWAP3 SWAP2 SWAP1 DUP1 CALLDATALOAD SWAP1 PUSH1 0x20 ADD SWAP1 SWAP3 SWAP2 SWAP1 POP POP POP PUSH2 0x38C JUMP JUMPDEST STOP JUMPDEST PUSH2 0x185 PUSH1 0x4 DUP1 CALLDATASIZE SUB PUSH1 0x20 DUP2 LT ISZERO PUSH2 0x159 JUMPI PUSH1 0x0 DUP1 REVERT JUMPDEST DUP2 ADD SWAP1 DUP1 DUP1 CALLDATALOAD PUSH20 0xFFFFFFFFFFFFFFFFFFFFFFFFFFFFFFFFFFFFFFFF AND SWAP1 PUSH1 0x20 ADD SWAP1 SWAP3 SWAP2 SWAP1 POP POP POP PUSH2 0x444 JUMP JUMPDEST STOP JUMPDEST PUSH2 0x18F PUSH2 0x63A JUMP JUMPDEST PUSH1 0x40 MLOAD DUP1 DUP3 PUSH20 0xFFFFFFFFFFFFFFFFFFFFFFFFFFFFFFFFFFFFFFFF AND DUP2 MSTORE PUSH1 0x20 ADD SWAP2 POP POP PUSH1 0x40 MLOAD DUP1 SWAP2 SUB SWAP1 RETURN JUMPDEST PUSH2 0x211 PUSH1 0x4 DUP1 CALLDATASIZE SUB PUSH1 0x60 DUP2 LT ISZERO PUSH2 0x1D1 JUMPI PUSH1 0x0 DUP1 REVERT JUMPDEST DUP2 ADD SWAP1 DUP1 DUP1 CALLDATALOAD PUSH20 0xFFFFFFFFFFFFFFFFFFFFFFFFFFFFFFFFFFFFFFFF AND SWAP1 PUSH1 0x20 ADD SWAP1 SWAP3 SWAP2 SWAP1 DUP1 CALLDATALOAD SWAP1 PUSH1 0x20 ADD SWAP1 SWAP3 SWAP2 SWAP1 DUP1 CALLDATALOAD SWAP1 PUSH1 0x20 ADD SWAP1 SWAP3 SWAP2 SWAP1 POP POP POP PUSH2 0x660 JUMP JUMPDEST PUSH1 0x40 MLOAD DUP1 DUP4 DUP2 MSTORE PUSH1 0x20 ADD DUP3 DUP2 MSTORE PUSH1 0x20 ADD SWAP3 POP POP POP PUSH1 0x40 MLOAD DUP1 SWAP2 SUB SWAP1 RETURN JUMPDEST PUSH2 0x236 PUSH2 0xECA JUMP JUMPDEST PUSH1 0x40 MLOAD DUP1 DUP3 PUSH20 0xFFFFFFFFFFFFFFFFFFFFFFFFFFFFFFFFFFFFFFFF AND DUP2 MSTORE PUSH1 0x20 ADD SWAP2 POP POP PUSH1 0x40 MLOAD DUP1 SWAP2 SUB SWAP1 RETURN JUMPDEST PUSH2 0x2A4 PUSH1 0x4 DUP1 CALLDATASIZE SUB PUSH1 0x20 DUP2 LT ISZERO PUSH2 0x278 JUMPI PUSH1 0x0 DUP1 REVERT JUMPDEST DUP2 ADD SWAP1 DUP1 DUP1 CALLDATALOAD PUSH20 0xFFFFFFFFFFFFFFFFFFFFFFFFFFFFFFFFFFFFFFFF AND SWAP1 PUSH1 0x20 ADD SWAP1 SWAP3 SWAP2 SWAP1 POP POP POP PUSH2 0xEF0 JUMP JUMPDEST STOP JUMPDEST PUSH2 0x2AE PUSH2 0x1088 JUMP JUMPDEST PUSH1 0x40 MLOAD DUP1 DUP3 PUSH20 0xFFFFFFFFFFFFFFFFFFFFFFFFFFFFFFFFFFFFFFFF AND DUP2 MSTORE PUSH1 0x20 ADD SWAP2 POP POP PUSH1 0x40 MLOAD DUP1 SWAP2 SUB SWAP1 RETURN JUMPDEST PUSH2 0x2E2 PUSH2 0x10AE JUMP JUMPDEST PUSH1 0x40 MLOAD DUP1 DUP3 PUSH20 0xFFFFFFFFFFFFFFFFFFFFFFFFFFFFFFFFFFFFFFFF AND DUP2 MSTORE PUSH1 0x20 ADD SWAP2 POP POP PUSH1 0x40 MLOAD DUP1 SWAP2 SUB SWAP1 RETURN JUMPDEST PUSH2 0x316 PUSH2 0x10D4 JUMP JUMPDEST PUSH1 0x40 MLOAD DUP1 DUP3 PUSH20 0xFFFFFFFFFFFFFFFFFFFFFFFFFFFFFFFFFFFFFFFF AND DUP2 MSTORE PUSH1 0x20 ADD SWAP2 POP POP PUSH1 0x40 MLOAD DUP1 SWAP2 SUB SWAP1 RETURN JUMPDEST PUSH2 0x34A PUSH2 0x10FA JUMP JUMPDEST PUSH1 0x40 MLOAD DUP1 DUP3 DUP2 MSTORE PUSH1 0x20 ADD SWAP2 POP POP PUSH1 0x40 MLOAD DUP1 SWAP2 SUB SWAP1 RETURN JUMPDEST PUSH1 0x8 SLOAD DUP2 JUMP JUMPDEST PUSH1 0x4 PUSH1 0x0 SWAP1 SLOAD SWAP1 PUSH2 0x100 EXP SWAP1 DIV PUSH20 0xFFFFFFFFFFFFFFFFFFFFFFFFFFFFFFFFFFFFFFFF AND DUP2 JUMP JUMPDEST CALLER PUSH20 0xFFFFFFFFFFFFFFFFFFFFFFFFFFFFFFFFFFFFFFFF AND PUSH1 0x6 PUSH1 0x0 SWAP1 SLOAD SWAP1 PUSH2 0x100 EXP SWAP1 DIV PUSH20 0xFFFFFFFFFFFFFFFFFFFFFFFFFFFFFFFFFFFFFFFF AND PUSH20 0xFFFFFFFFFFFFFFFFFFFFFFFFFFFFFFFFFFFFFFFF AND EQ PUSH2 0x432 JUMPI PUSH1 0x40 MLOAD PUSH32 0x8C379A000000000000000000000000000000000000000000000000000000000 DUP2 MSTORE PUSH1 0x4 ADD DUP1 DUP1 PUSH1 0x20 ADD DUP3 DUP2 SUB DUP3 MSTORE PUSH1 0x24 DUP2 MSTORE PUSH1 0x20 ADD DUP1 PUSH2 0x180B PUSH1 0x24 SWAP2 CODECOPY PUSH1 0x40 ADD SWAP2 POP POP PUSH1 0x40 MLOAD DUP1 SWAP2 SUB SWAP1 REVERT JUMPDEST DUP2 PUSH1 0x7 DUP2 SWAP1 SSTORE POP DUP1 PUSH1 0x8 DUP2 SWAP1 SSTORE POP POP POP JUMP JUMPDEST CALLER PUSH20 0xFFFFFFFFFFFFFFFFFFFFFFFFFFFFFFFFFFFFFFFF AND PUSH1 0x6 PUSH1 0x0 SWAP1 SLOAD SWAP1 PUSH2 0x100 EXP SWAP1 DIV PUSH20 0xFFFFFFFFFFFFFFFFFFFFFFFFFFFFFFFFFFFFFFFF AND PUSH20 0xFFFFFFFFFFFFFFFFFFFFFFFFFFFFFFFFFFFFFFFF AND EQ PUSH2 0x4EA JUMPI PUSH1 0x40 MLOAD PUSH32 0x8C379A000000000000000000000000000000000000000000000000000000000 DUP2 MSTORE PUSH1 0x4 ADD DUP1 DUP1 PUSH1 0x20 ADD DUP3 DUP2 SUB DUP3 MSTORE PUSH1 0x24 DUP2 MSTORE PUSH1 0x20 ADD DUP1 PUSH2 0x180B PUSH1 0x24 SWAP2 CODECOPY PUSH1 0x40 ADD SWAP2 POP POP PUSH1 0x40 MLOAD DUP1 SWAP2 SUB SWAP1 REVERT JUMPDEST PUSH1 0x0 PUSH20 0xFFFFFFFFFFFFFFFFFFFFFFFFFFFFFFFFFFFFFFFF AND DUP2 PUSH20 0xFFFFFFFFFFFFFFFFFFFFFFFFFFFFFFFFFFFFFFFF AND EQ PUSH2 0x5EF JUMPI PUSH2 0x5EA CALLER DUP3 PUSH20 0xFFFFFFFFFFFFFFFFFFFFFFFFFFFFFFFFFFFFFFFF AND PUSH4 0x70A08231 ADDRESS PUSH1 0x40 MLOAD DUP3 PUSH4 0xFFFFFFFF AND PUSH1 0xE0 SHL DUP2 MSTORE PUSH1 0x4 ADD DUP1 DUP3 PUSH20 0xFFFFFFFFFFFFFFFFFFFFFFFFFFFFFFFFFFFFFFFF AND DUP2 MSTORE PUSH1 0x20 ADD SWAP2 POP POP PUSH1 0x20 PUSH1 0x40 MLOAD DUP1 DUP4 SUB DUP2 DUP7 DUP1 EXTCODESIZE ISZERO DUP1 ISZERO PUSH2 0x589 JUMPI PUSH1 0x0 DUP1 REVERT JUMPDEST POP GAS STATICCALL ISZERO DUP1 ISZERO PUSH2 0x59D JUMPI RETURNDATASIZE PUSH1 0x0 DUP1 RETURNDATACOPY RETURNDATASIZE PUSH1 0x0 REVERT JUMPDEST POP POP POP POP PUSH1 0x40 MLOAD RETURNDATASIZE PUSH1 0x20 DUP2 LT ISZERO PUSH2 0x5B3 JUMPI PUSH1 0x0 DUP1 REVERT JUMPDEST DUP2 ADD SWAP1 DUP1 DUP1 MLOAD SWAP1 PUSH1 0x20 ADD SWAP1 SWAP3 SWAP2 SWAP1 POP POP POP DUP4 PUSH20 0xFFFFFFFFFFFFFFFFFFFFFFFFFFFFFFFFFFFFFFFF AND PUSH2 0x1100 SWAP1 SWAP3 SWAP2 SWAP1 PUSH4 0xFFFFFFFF AND JUMP JUMPDEST PUSH2 0x637 JUMP JUMPDEST CALLER PUSH20 0xFFFFFFFFFFFFFFFFFFFFFFFFFFFFFFFFFFFFFFFF AND PUSH2 0x8FC SELFBALANCE SWAP1 DUP2 ISZERO MUL SWAP1 PUSH1 0x40 MLOAD PUSH1 0x0 PUSH1 0x40 MLOAD DUP1 DUP4 SUB DUP2 DUP6 DUP9 DUP9 CALL SWAP4 POP POP POP POP ISZERO DUP1 ISZERO PUSH2 0x635 JUMPI RETURNDATASIZE PUSH1 0x0 DUP1 RETURNDATACOPY RETURNDATASIZE PUSH1 0x0 REVERT JUMPDEST POP JUMPDEST POP JUMP JUMPDEST PUSH1 0x6 PUSH1 0x0 SWAP1 SLOAD SWAP1 PUSH2 0x100 EXP SWAP1 DIV PUSH20 0xFFFFFFFFFFFFFFFFFFFFFFFFFFFFFFFFFFFFFFFF AND DUP2 JUMP JUMPDEST PUSH1 0x0 DUP1 PUSH1 0x64 DUP4 GT ISZERO PUSH2 0x6DA JUMPI PUSH1 0x40 MLOAD PUSH32 0x8C379A000000000000000000000000000000000000000000000000000000000 DUP2 MSTORE PUSH1 0x4 ADD DUP1 DUP1 PUSH1 0x20 ADD DUP3 DUP2 SUB DUP3 MSTORE PUSH1 0x1C DUP2 MSTORE PUSH1 0x20 ADD DUP1 PUSH32 0x496E76616C69642046554447452D4441492D4C502070657263656E7400000000 DUP2 MSTORE POP PUSH1 0x20 ADD SWAP2 POP POP PUSH1 0x40 MLOAD DUP1 SWAP2 SUB SWAP1 REVERT JUMPDEST DUP4 DUP6 PUSH20 0xFFFFFFFFFFFFFFFFFFFFFFFFFFFFFFFFFFFFFFFF AND PUSH4 0x70A08231 CALLER PUSH1 0x40 MLOAD DUP3 PUSH4 0xFFFFFFFF AND PUSH1 0xE0 SHL DUP2 MSTORE PUSH1 0x4 ADD DUP1 DUP3 PUSH20 0xFFFFFFFFFFFFFFFFFFFFFFFFFFFFFFFFFFFFFFFF AND DUP2 MSTORE PUSH1 0x20 ADD SWAP2 POP POP PUSH1 0x20 PUSH1 0x40 MLOAD DUP1 DUP4 SUB DUP2 DUP7 DUP1 EXTCODESIZE ISZERO DUP1 ISZERO PUSH2 0x742 JUMPI PUSH1 0x0 DUP1 REVERT JUMPDEST POP GAS STATICCALL ISZERO DUP1 ISZERO PUSH2 0x756 JUMPI RETURNDATASIZE PUSH1 0x0 DUP1 RETURNDATACOPY RETURNDATASIZE PUSH1 0x0 REVERT JUMPDEST POP POP POP POP PUSH1 0x40 MLOAD RETURNDATASIZE PUSH1 0x20 DUP2 LT ISZERO PUSH2 0x76C JUMPI PUSH1 0x0 DUP1 REVERT JUMPDEST DUP2 ADD SWAP1 DUP1 DUP1 MLOAD SWAP1 PUSH1 0x20 ADD SWAP1 SWAP3 SWAP2 SWAP1 POP POP POP LT ISZERO PUSH2 0x7F1 JUMPI PUSH1 0x40 MLOAD PUSH32 0x8C379A000000000000000000000000000000000000000000000000000000000 DUP2 MSTORE PUSH1 0x4 ADD DUP1 DUP1 PUSH1 0x20 ADD DUP3 DUP2 SUB DUP3 MSTORE PUSH1 0x14 DUP2 MSTORE PUSH1 0x20 ADD DUP1 PUSH32 0x496E73756666696369656E742062616C616E6365000000000000000000000000 DUP2 MSTORE POP PUSH1 0x20 ADD SWAP2 POP POP PUSH1 0x40 MLOAD DUP1 SWAP2 SUB SWAP1 REVERT JUMPDEST PUSH2 0x81E CALLER ADDRESS DUP7 DUP9 PUSH20 0xFFFFFFFFFFFFFFFFFFFFFFFFFFFFFFFFFFFFFFFF AND PUSH2 0x11A2 SWAP1 SWAP4 SWAP3 SWAP2 SWAP1 PUSH4 0xFFFFFFFF AND JUMP JUMPDEST PUSH1 0x0 PUSH1 0x64 DUP5 LT PUSH2 0x82E JUMPI DUP5 PUSH2 0x855 JUMP JUMPDEST PUSH2 0x854 PUSH1 0x64 PUSH2 0x846 DUP7 DUP9 PUSH2 0x1263 SWAP1 SWAP2 SWAP1 PUSH4 0xFFFFFFFF AND JUMP JUMPDEST PUSH2 0x12E9 SWAP1 SWAP2 SWAP1 PUSH4 0xFFFFFFFF AND JUMP JUMPDEST JUMPDEST SWAP1 POP PUSH1 0x0 PUSH2 0x86C DUP3 DUP8 PUSH2 0x1333 SWAP1 SWAP2 SWAP1 PUSH4 0xFFFFFFFF AND JUMP JUMPDEST SWAP1 POP PUSH1 0x0 PUSH1 0x4 PUSH1 0x0 SWAP1 SLOAD SWAP1 PUSH2 0x100 EXP SWAP1 DIV PUSH20 0xFFFFFFFFFFFFFFFFFFFFFFFFFFFFFFFFFFFFFFFF AND PUSH20 0xFFFFFFFFFFFFFFFFFFFFFFFFFFFFFFFFFFFFFFFF AND PUSH4 0x70A08231 ADDRESS PUSH1 0x40 MLOAD DUP3 PUSH4 0xFFFFFFFF AND PUSH1 0xE0 SHL DUP2 MSTORE PUSH1 0x4 ADD DUP1 DUP3 PUSH20 0xFFFFFFFFFFFFFFFFFFFFFFFFFFFFFFFFFFFFFFFF AND DUP2 MSTORE PUSH1 0x20 ADD SWAP2 POP POP PUSH1 0x20 PUSH1 0x40 MLOAD DUP1 DUP4 SUB DUP2 DUP7 DUP1 EXTCODESIZE ISZERO DUP1 ISZERO PUSH2 0x8F9 JUMPI PUSH1 0x0 DUP1 REVERT JUMPDEST POP GAS STATICCALL ISZERO DUP1 ISZERO PUSH2 0x90D JUMPI RETURNDATASIZE PUSH1 0x0 DUP1 RETURNDATACOPY RETURNDATASIZE PUSH1 0x0 REVERT JUMPDEST POP POP POP POP PUSH1 0x40 MLOAD RETURNDATASIZE PUSH1 0x20 DUP2 LT ISZERO PUSH2 0x923 JUMPI PUSH1 0x0 DUP1 REVERT JUMPDEST DUP2 ADD SWAP1 DUP1 DUP1 MLOAD SWAP1 PUSH1 0x20 ADD SWAP1 SWAP3 SWAP2 SWAP1 POP POP POP SWAP1 POP PUSH1 0x0 PUSH1 0x5 PUSH1 0x0 SWAP1 SLOAD SWAP1 PUSH2 0x100 EXP SWAP1 DIV PUSH20 0xFFFFFFFFFFFFFFFFFFFFFFFFFFFFFFFFFFFFFFFF AND PUSH20 0xFFFFFFFFFFFFFFFFFFFFFFFFFFFFFFFFFFFFFFFF AND PUSH4 0x70A08231 ADDRESS PUSH1 0x40 MLOAD DUP3 PUSH4 0xFFFFFFFF AND PUSH1 0xE0 SHL DUP2 MSTORE PUSH1 0x4 ADD DUP1 DUP3 PUSH20 0xFFFFFFFFFFFFFFFFFFFFFFFFFFFFFFFFFFFFFFFF AND DUP2 MSTORE PUSH1 0x20 ADD SWAP2 POP POP PUSH1 0x20 PUSH1 0x40 MLOAD DUP1 DUP4 SUB DUP2 DUP7 DUP1 EXTCODESIZE ISZERO DUP1 ISZERO PUSH2 0x9C1 JUMPI PUSH1 0x0 DUP1 REVERT JUMPDEST POP GAS STATICCALL ISZERO DUP1 ISZERO PUSH2 0x9D5 JUMPI RETURNDATASIZE PUSH1 0x0 DUP1 RETURNDATACOPY RETURNDATASIZE PUSH1 0x0 REVERT JUMPDEST POP POP POP POP PUSH1 0x40 MLOAD RETURNDATASIZE PUSH1 0x20 DUP2 LT ISZERO PUSH2 0x9EB JUMPI PUSH1 0x0 DUP1 REVERT JUMPDEST DUP2 ADD SWAP1 DUP1 DUP1 MLOAD SWAP1 PUSH1 0x20 ADD SWAP1 SWAP3 SWAP2 SWAP1 POP POP POP SWAP1 POP PUSH2 0xA08 DUP10 DUP6 PUSH2 0x137D JUMP JUMPDEST ISZERO PUSH2 0xAFD JUMPI PUSH1 0x1 PUSH1 0x0 SWAP1 SLOAD SWAP1 PUSH2 0x100 EXP SWAP1 DIV PUSH20 0xFFFFFFFFFFFFFFFFFFFFFFFFFFFFFFFFFFFFFFFF AND PUSH20 0xFFFFFFFFFFFFFFFFFFFFFFFFFFFFFFFFFFFFFFFF AND PUSH4 0x84767627 DUP11 DUP7 PUSH1 0x4 PUSH1 0x0 SWAP1 SLOAD SWAP1 PUSH2 0x100 EXP SWAP1 DIV PUSH20 0xFFFFFFFFFFFFFFFFFFFFFFFFFFFFFFFFFFFFFFFF AND PUSH1 0x40 MLOAD DUP5 PUSH4 0xFFFFFFFF AND PUSH1 0xE0 SHL DUP2 MSTORE PUSH1 0x4 ADD DUP1 DUP5 PUSH20 0xFFFFFFFFFFFFFFFFFFFFFFFFFFFFFFFFFFFFFFFF AND DUP2 MSTORE PUSH1 0x20 ADD DUP4 DUP2 MSTORE PUSH1 0x20 ADD DUP3 PUSH20 0xFFFFFFFFFFFFFFFFFFFFFFFFFFFFFFFFFFFFFFFF AND DUP2 MSTORE PUSH1 0x20 ADD SWAP4 POP POP POP POP PUSH1 0x0 PUSH1 0x40 MLOAD DUP1 DUP4 SUB DUP2 PUSH1 0x0 DUP8 DUP1 EXTCODESIZE ISZERO DUP1 ISZERO PUSH2 0xAE0 JUMPI PUSH1 0x0 DUP1 REVERT JUMPDEST POP GAS CALL ISZERO DUP1 ISZERO PUSH2 0xAF4 JUMPI RETURNDATASIZE PUSH1 0x0 DUP1 RETURNDATACOPY RETURNDATASIZE PUSH1 0x0 REVERT JUMPDEST POP POP POP POP PUSH2 0xB29 JUMP JUMPDEST PUSH2 0xB28 CALLER DUP6 DUP12 PUSH20 0xFFFFFFFFFFFFFFFFFFFFFFFFFFFFFFFFFFFFFFFF AND PUSH2 0x1100 SWAP1 SWAP3 SWAP2 SWAP1 PUSH4 0xFFFFFFFF AND JUMP JUMPDEST JUMPDEST PUSH2 0xB33 DUP10 DUP5 PUSH2 0x137D JUMP JUMPDEST ISZERO PUSH2 0xC28 JUMPI PUSH1 0x1 PUSH1 0x0 SWAP1 SLOAD SWAP1 PUSH2 0x100 EXP SWAP1 DIV PUSH20 0xFFFFFFFFFFFFFFFFFFFFFFFFFFFFFFFFFFFFFFFF AND PUSH20 0xFFFFFFFFFFFFFFFFFFFFFFFFFFFFFFFFFFFFFFFF AND PUSH4 0x84767627 DUP11 DUP6 PUSH1 0x5 PUSH1 0x0 SWAP1 SLOAD SWAP1 PUSH2 0x100 EXP SWAP1 DIV PUSH20 0xFFFFFFFFFFFFFFFFFFFFFFFFFFFFFFFFFFFFFFFF AND PUSH1 0x40 MLOAD DUP5 PUSH4 0xFFFFFFFF AND PUSH1 0xE0 SHL DUP2 MSTORE PUSH1 0x4 ADD DUP1 DUP5 PUSH20 0xFFFFFFFFFFFFFFFFFFFFFFFFFFFFFFFFFFFFFFFF AND DUP2 MSTORE PUSH1 0x20 ADD DUP4 DUP2 MSTORE PUSH1 0x20 ADD DUP3 PUSH20 0xFFFFFFFFFFFFFFFFFFFFFFFFFFFFFFFFFFFFFFFF AND DUP2 MSTORE PUSH1 0x20 ADD SWAP4 POP POP POP POP PUSH1 0x0 PUSH1 0x40 MLOAD DUP1 DUP4 SUB DUP2 PUSH1 0x0 DUP8 DUP1 EXTCODESIZE ISZERO DUP1 ISZERO PUSH2 0xC0B JUMPI PUSH1 0x0 DUP1 REVERT JUMPDEST POP GAS CALL ISZERO DUP1 ISZERO PUSH2 0xC1F JUMPI RETURNDATASIZE PUSH1 0x0 DUP1 RETURNDATACOPY RETURNDATASIZE PUSH1 0x0 REVERT JUMPDEST POP POP POP POP PUSH2 0xC54 JUMP JUMPDEST PUSH2 0xC53 CALLER DUP5 DUP12 PUSH20 0xFFFFFFFFFFFFFFFFFFFFFFFFFFFFFFFFFFFFFFFF AND PUSH2 0x1100 SWAP1 SWAP3 SWAP2 SWAP1 PUSH4 0xFFFFFFFF AND JUMP JUMPDEST JUMPDEST PUSH1 0x0 PUSH2 0xD2C DUP4 PUSH1 0x4 PUSH1 0x0 SWAP1 SLOAD SWAP1 PUSH2 0x100 EXP SWAP1 DIV PUSH20 0xFFFFFFFFFFFFFFFFFFFFFFFFFFFFFFFFFFFFFFFF AND PUSH20 0xFFFFFFFFFFFFFFFFFFFFFFFFFFFFFFFFFFFFFFFF AND PUSH4 0x70A08231 ADDRESS PUSH1 0x40 MLOAD DUP3 PUSH4 0xFFFFFFFF AND PUSH1 0xE0 SHL DUP2 MSTORE PUSH1 0x4 ADD DUP1 DUP3 PUSH20 0xFFFFFFFFFFFFFFFFFFFFFFFFFFFFFFFFFFFFFFFF AND DUP2 MSTORE PUSH1 0x20 ADD SWAP2 POP POP PUSH1 0x20 PUSH1 0x40 MLOAD DUP1 DUP4 SUB DUP2 DUP7 DUP1 EXTCODESIZE ISZERO DUP1 ISZERO PUSH2 0xCE3 JUMPI PUSH1 0x0 DUP1 REVERT JUMPDEST POP GAS STATICCALL ISZERO DUP1 ISZERO PUSH2 0xCF7 JUMPI RETURNDATASIZE PUSH1 0x0 DUP1 RETURNDATACOPY RETURNDATASIZE PUSH1 0x0 REVERT JUMPDEST POP POP POP POP PUSH1 0x40 MLOAD RETURNDATASIZE PUSH1 0x20 DUP2 LT ISZERO PUSH2 0xD0D JUMPI PUSH1 0x0 DUP1 REVERT JUMPDEST DUP2 ADD SWAP1 DUP1 DUP1 MLOAD SWAP1 PUSH1 0x20 ADD SWAP1 SWAP3 SWAP2 SWAP1 POP POP POP PUSH2 0x1333 SWAP1 SWAP2 SWAP1 PUSH4 0xFFFFFFFF AND JUMP JUMPDEST SWAP1 POP PUSH1 0x0 PUSH2 0xE06 DUP4 PUSH1 0x5 PUSH1 0x0 SWAP1 SLOAD SWAP1 PUSH2 0x100 EXP SWAP1 DIV PUSH20 0xFFFFFFFFFFFFFFFFFFFFFFFFFFFFFFFFFFFFFFFF AND PUSH20 0xFFFFFFFFFFFFFFFFFFFFFFFFFFFFFFFFFFFFFFFF AND PUSH4 0x70A08231 ADDRESS PUSH1 0x40 MLOAD DUP3 PUSH4 0xFFFFFFFF AND PUSH1 0xE0 SHL DUP2 MSTORE PUSH1 0x4 ADD DUP1 DUP3 PUSH20 0xFFFFFFFFFFFFFFFFFFFFFFFFFFFFFFFFFFFFFFFF AND DUP2 MSTORE PUSH1 0x20 ADD SWAP2 POP POP PUSH1 0x20 PUSH1 0x40 MLOAD DUP1 DUP4 SUB DUP2 DUP7 DUP1 EXTCODESIZE ISZERO DUP1 ISZERO PUSH2 0xDBD JUMPI PUSH1 0x0 DUP1 REVERT JUMPDEST POP GAS STATICCALL ISZERO DUP1 ISZERO PUSH2 0xDD1 JUMPI RETURNDATASIZE PUSH1 0x0 DUP1 RETURNDATACOPY RETURNDATASIZE PUSH1 0x0 REVERT JUMPDEST POP POP POP POP PUSH1 0x40 MLOAD RETURNDATASIZE PUSH1 0x20 DUP2 LT ISZERO PUSH2 0xDE7 JUMPI PUSH1 0x0 DUP1 REVERT JUMPDEST DUP2 ADD SWAP1 DUP1 DUP1 MLOAD SWAP1 PUSH1 0x20 ADD SWAP1 SWAP3 SWAP2 SWAP1 POP POP POP PUSH2 0x1333 SWAP1 SWAP2 SWAP1 PUSH4 0xFFFFFFFF AND JUMP JUMPDEST SWAP1 POP PUSH1 0x0 DUP3 GT ISZERO PUSH2 0xE5F JUMPI PUSH2 0xE5E CALLER DUP4 PUSH1 0x4 PUSH1 0x0 SWAP1 SLOAD SWAP1 PUSH2 0x100 EXP SWAP1 DIV PUSH20 0xFFFFFFFFFFFFFFFFFFFFFFFFFFFFFFFFFFFFFFFF AND PUSH20 0xFFFFFFFFFFFFFFFFFFFFFFFFFFFFFFFFFFFFFFFF AND PUSH2 0x1100 SWAP1 SWAP3 SWAP2 SWAP1 PUSH4 0xFFFFFFFF AND JUMP JUMPDEST JUMPDEST PUSH1 0x0 DUP2 GT ISZERO PUSH2 0xEB6 JUMPI PUSH2 0xEB5 CALLER DUP3 PUSH1 0x5 PUSH1 0x0 SWAP1 SLOAD SWAP1 PUSH2 0x100 EXP SWAP1 DIV PUSH20 0xFFFFFFFFFFFFFFFFFFFFFFFFFFFFFFFFFFFFFFFF AND PUSH20 0xFFFFFFFFFFFFFFFFFFFFFFFFFFFFFFFFFFFFFFFF AND PUSH2 0x1100 SWAP1 SWAP3 SWAP2 SWAP1 PUSH4 0xFFFFFFFF AND JUMP JUMPDEST JUMPDEST DUP2 DUP2 SWAP8 POP SWAP8 POP POP POP POP POP POP POP SWAP4 POP SWAP4 SWAP2 POP POP JUMP JUMPDEST PUSH1 0x2 PUSH1 0x0 SWAP1 SLOAD SWAP1 PUSH2 0x100 EXP SWAP1 DIV PUSH20 0xFFFFFFFFFFFFFFFFFFFFFFFFFFFFFFFFFFFFFFFF AND DUP2 JUMP JUMPDEST CALLER PUSH20 0xFFFFFFFFFFFFFFFFFFFFFFFFFFFFFFFFFFFFFFFF AND PUSH1 0x6 PUSH1 0x0 SWAP1 SLOAD SWAP1 PUSH2 0x100 EXP SWAP1 DIV PUSH20 0xFFFFFFFFFFFFFFFFFFFFFFFFFFFFFFFFFFFFFFFF AND PUSH20 0xFFFFFFFFFFFFFFFFFFFFFFFFFFFFFFFFFFFFFFFF AND EQ PUSH2 0xF96 JUMPI PUSH1 0x40 MLOAD PUSH32 0x8C379A000000000000000000000000000000000000000000000000000000000 DUP2 MSTORE PUSH1 0x4 ADD DUP1 DUP1 PUSH1 0x20 ADD DUP3 DUP2 SUB DUP3 MSTORE PUSH1 0x24 DUP2 MSTORE PUSH1 0x20 ADD DUP1 PUSH2 0x180B PUSH1 0x24 SWAP2 CODECOPY PUSH1 0x40 ADD SWAP2 POP POP PUSH1 0x40 MLOAD DUP1 SWAP2 SUB SWAP1 REVERT JUMPDEST DUP1 PUSH20 0xFFFFFFFFFFFFFFFFFFFFFFFFFFFFFFFFFFFFFFFF AND PUSH4 0x95EA7B3 PUSH1 0x1 PUSH1 0x0 SWAP1 SLOAD SWAP1 PUSH2 0x100 EXP SWAP1 DIV PUSH20 0xFFFFFFFFFFFFFFFFFFFFFFFFFFFFFFFFFFFFFFFF AND PUSH32 0xFFFFFFFFFFFFFFFFFFFFFFFFFFFFFFFFFFFFFFFFFFFFFFFFFFFFFFFFFFFFFFFF PUSH1 0x40 MLOAD DUP4 PUSH4 0xFFFFFFFF AND PUSH1 0xE0 SHL DUP2 MSTORE PUSH1 0x4 ADD DUP1 DUP4 PUSH20 0xFFFFFFFFFFFFFFFFFFFFFFFFFFFFFFFFFFFFFFFF AND DUP2 MSTORE PUSH1 0x20 ADD DUP3 DUP2 MSTORE PUSH1 0x20 ADD SWAP3 POP POP POP PUSH1 0x20 PUSH1 0x40 MLOAD DUP1 DUP4 SUB DUP2 PUSH1 0x0 DUP8 DUP1 EXTCODESIZE ISZERO DUP1 ISZERO PUSH2 0x1049 JUMPI PUSH1 0x0 DUP1 REVERT JUMPDEST POP GAS CALL ISZERO DUP1 ISZERO PUSH2 0x105D JUMPI RETURNDATASIZE PUSH1 0x0 DUP1 RETURNDATACOPY RETURNDATASIZE PUSH1 0x0 REVERT JUMPDEST POP POP POP POP PUSH1 0x40 MLOAD RETURNDATASIZE PUSH1 0x20 DUP2 LT ISZERO PUSH2 0x1073 JUMPI PUSH1 0x0 DUP1 REVERT JUMPDEST DUP2 ADD SWAP1 DUP1 DUP1 MLOAD SWAP1 PUSH1 0x20 ADD SWAP1 SWAP3 SWAP2 SWAP1 POP POP POP POP POP JUMP JUMPDEST PUSH1 0x5 PUSH1 0x0 SWAP1 SLOAD SWAP1 PUSH2 0x100 EXP SWAP1 DIV PUSH20 0xFFFFFFFFFFFFFFFFFFFFFFFFFFFFFFFFFFFFFFFF AND DUP2 JUMP JUMPDEST PUSH1 0x1 PUSH1 0x0 SWAP1 SLOAD SWAP1 PUSH2 0x100 EXP SWAP1 DIV PUSH20 0xFFFFFFFFFFFFFFFFFFFFFFFFFFFFFFFFFFFFFFFF AND DUP2 JUMP JUMPDEST PUSH1 0x3 PUSH1 0x0 SWAP1 SLOAD SWAP1 PUSH2 0x100 EXP SWAP1 DIV PUSH20 0xFFFFFFFFFFFFFFFFFFFFFFFFFFFFFFFFFFFFFFFF AND DUP2 JUMP JUMPDEST PUSH1 0x7 SLOAD DUP2 JUMP JUMPDEST PUSH2 0x119D DUP4 PUSH4 0xA9059CBB PUSH1 0xE0 SHL DUP5 DUP5 PUSH1 0x40 MLOAD PUSH1 0x24 ADD DUP1 DUP4 PUSH20 0xFFFFFFFFFFFFFFFFFFFFFFFFFFFFFFFFFFFFFFFF AND DUP2 MSTORE PUSH1 0x20 ADD DUP3 DUP2 MSTORE PUSH1 0x20 ADD SWAP3 POP POP POP PUSH1 0x40 MLOAD PUSH1 0x20 DUP2 DUP4 SUB SUB DUP2 MSTORE SWAP1 PUSH1 0x40 MSTORE SWAP1 PUSH28 0xFFFFFFFFFFFFFFFFFFFFFFFFFFFFFFFFFFFFFFFFFFFFFFFFFFFFFFFF NOT AND PUSH1 0x20 DUP3 ADD DUP1 MLOAD PUSH28 0xFFFFFFFFFFFFFFFFFFFFFFFFFFFFFFFFFFFFFFFFFFFFFFFFFFFFFFFF DUP4 DUP2 DUP4 AND OR DUP4 MSTORE POP POP POP POP PUSH2 0x13EE JUMP JUMPDEST POP POP POP JUMP JUMPDEST PUSH2 0x125D DUP5 PUSH4 0x23B872DD PUSH1 0xE0 SHL DUP6 DUP6 DUP6 PUSH1 0x40 MLOAD PUSH1 0x24 ADD DUP1 DUP5 PUSH20 0xFFFFFFFFFFFFFFFFFFFFFFFFFFFFFFFFFFFFFFFF AND DUP2 MSTORE PUSH1 0x20 ADD DUP4 PUSH20 0xFFFFFFFFFFFFFFFFFFFFFFFFFFFFFFFFFFFFFFFF AND DUP2 MSTORE PUSH1 0x20 ADD DUP3 DUP2 MSTORE PUSH1 0x20 ADD SWAP4 POP POP POP POP PUSH1 0x40 MLOAD PUSH1 0x20 DUP2 DUP4 SUB SUB DUP2 MSTORE SWAP1 PUSH1 0x40 MSTORE SWAP1 PUSH28 0xFFFFFFFFFFFFFFFFFFFFFFFFFFFFFFFFFFFFFFFFFFFFFFFFFFFFFFFF NOT AND PUSH1 0x20 DUP3 ADD DUP1 MLOAD PUSH28 0xFFFFFFFFFFFFFFFFFFFFFFFFFFFFFFFFFFFFFFFFFFFFFFFFFFFFFFFF DUP4 DUP2 DUP4 AND OR DUP4 MSTORE POP POP POP POP PUSH2 0x13EE JUMP JUMPDEST POP POP POP POP JUMP JUMPDEST PUSH1 0x0 DUP1 DUP4 EQ ISZERO PUSH2 0x1276 JUMPI PUSH1 0x0 SWAP1 POP PUSH2 0x12E3 JUMP JUMPDEST PUSH1 0x0 DUP3 DUP5 MUL SWAP1 POP DUP3 DUP5 DUP3 DUP2 PUSH2 0x1287 JUMPI INVALID JUMPDEST DIV EQ PUSH2 0x12DE JUMPI PUSH1 0x40 MLOAD PUSH32 0x8C379A000000000000000000000000000000000000000000000000000000000 DUP2 MSTORE PUSH1 0x4 ADD DUP1 DUP1 PUSH1 0x20 ADD DUP3 DUP2 SUB DUP3 MSTORE PUSH1 0x21 DUP2 MSTORE PUSH1 0x20 ADD DUP1 PUSH2 0x182F PUSH1 0x21 SWAP2 CODECOPY PUSH1 0x40 ADD SWAP2 POP POP PUSH1 0x40 MLOAD DUP1 SWAP2 SUB SWAP1 REVERT JUMPDEST DUP1 SWAP2 POP POP JUMPDEST SWAP3 SWAP2 POP POP JUMP JUMPDEST PUSH1 0x0 PUSH2 0x132B DUP4 DUP4 PUSH1 0x40 MLOAD DUP1 PUSH1 0x40 ADD PUSH1 0x40 MSTORE DUP1 PUSH1 0x1A DUP2 MSTORE PUSH1 0x20 ADD PUSH32 0x536166654D6174683A206469766973696F6E206279207A65726F000000000000 DUP2 MSTORE POP PUSH2 0x1639 JUMP JUMPDEST SWAP1 POP SWAP3 SWAP2 POP POP JUMP JUMPDEST PUSH1 0x0 PUSH2 0x1375 DUP4 DUP4 PUSH1 0x40 MLOAD DUP1 PUSH1 0x40 ADD PUSH1 0x40 MSTORE DUP1 PUSH1 0x1E DUP2 MSTORE PUSH1 0x20 ADD PUSH32 0x536166654D6174683A207375627472616374696F6E206F766572666C6F770000 DUP2 MSTORE POP PUSH2 0x16FF JUMP JUMPDEST SWAP1 POP SWAP3 SWAP2 POP POP JUMP JUMPDEST PUSH1 0x0 PUSH1 0x2 PUSH1 0x0 SWAP1 SLOAD SWAP1 PUSH2 0x100 EXP SWAP1 DIV PUSH20 0xFFFFFFFFFFFFFFFFFFFFFFFFFFFFFFFFFFFFFFFF AND PUSH20 0xFFFFFFFFFFFFFFFFFFFFFFFFFFFFFFFFFFFFFFFF AND DUP4 PUSH20 0xFFFFFFFFFFFFFFFFFFFFFFFFFFFFFFFFFFFFFFFF AND EQ PUSH2 0x13DF JUMPI PUSH1 0x7 SLOAD DUP3 LT ISZERO PUSH2 0x13E6 JUMP JUMPDEST PUSH1 0x8 SLOAD DUP3 LT ISZERO JUMPDEST SWAP1 POP SWAP3 SWAP2 POP POP JUMP JUMPDEST PUSH2 0x140D DUP3 PUSH20 0xFFFFFFFFFFFFFFFFFFFFFFFFFFFFFFFFFFFFFFFF AND PUSH2 0x17BF JUMP JUMPDEST PUSH2 0x147F JUMPI PUSH1 0x40 MLOAD PUSH32 0x8C379A000000000000000000000000000000000000000000000000000000000 DUP2 MSTORE PUSH1 0x4 ADD DUP1 DUP1 PUSH1 0x20 ADD DUP3 DUP2 SUB DUP3 MSTORE PUSH1 0x1F DUP2 MSTORE PUSH1 0x20 ADD DUP1 PUSH32 0x5361666545524332303A2063616C6C20746F206E6F6E2D636F6E747261637400 DUP2 MSTORE POP PUSH1 0x20 ADD SWAP2 POP POP PUSH1 0x40 MLOAD DUP1 SWAP2 SUB SWAP1 REVERT JUMPDEST PUSH1 0x0 PUSH1 0x60 DUP4 PUSH20 0xFFFFFFFFFFFFFFFFFFFFFFFFFFFFFFFFFFFFFFFF AND DUP4 PUSH1 0x40 MLOAD DUP1 DUP3 DUP1 MLOAD SWAP1 PUSH1 0x20 ADD SWAP1 DUP1 DUP4 DUP4 JUMPDEST PUSH1 0x20 DUP4 LT PUSH2 0x14CE JUMPI DUP1 MLOAD DUP3 MSTORE PUSH1 0x20 DUP3 ADD SWAP2 POP PUSH1 0x20 DUP2 ADD SWAP1 POP PUSH1 0x20 DUP4 SUB SWAP3 POP PUSH2 0x14AB JUMP JUMPDEST PUSH1 0x1 DUP4 PUSH1 0x20 SUB PUSH2 0x100 EXP SUB DUP1 NOT DUP3 MLOAD AND DUP2 DUP5 MLOAD AND DUP1 DUP3 OR DUP6 MSTORE POP POP POP POP POP POP SWAP1 POP ADD SWAP2 POP POP PUSH1 0x0 PUSH1 0x40 MLOAD DUP1 DUP4 SUB DUP2 PUSH1 0x0 DUP7 GAS CALL SWAP2 POP POP RETURNDATASIZE DUP1 PUSH1 0x0 DUP2 EQ PUSH2 0x1530 JUMPI PUSH1 0x40 MLOAD SWAP2 POP PUSH1 0x1F NOT PUSH1 0x3F RETURNDATASIZE ADD AND DUP3 ADD PUSH1 0x40 MSTORE RETURNDATASIZE DUP3 MSTORE RETURNDATASIZE PUSH1 0x0 PUSH1 0x20 DUP5 ADD RETURNDATACOPY PUSH2 0x1535 JUMP JUMPDEST PUSH1 0x60 SWAP2 POP JUMPDEST POP SWAP2 POP SWAP2 POP DUP2 PUSH2 0x15AD JUMPI PUSH1 0x40 MLOAD PUSH32 0x8C379A000000000000000000000000000000000000000000000000000000000 DUP2 MSTORE PUSH1 0x4 ADD DUP1 DUP1 PUSH1 0x20 ADD DUP3 DUP2 SUB DUP3 MSTORE PUSH1 0x20 DUP2 MSTORE PUSH1 0x20 ADD DUP1 PUSH32 0x5361666545524332303A206C6F772D6C6576656C2063616C6C206661696C6564 DUP2 MSTORE POP PUSH1 0x20 ADD SWAP2 POP POP PUSH1 0x40 MLOAD DUP1 SWAP2 SUB SWAP1 REVERT JUMPDEST PUSH1 0x0 DUP2 MLOAD GT ISZERO PUSH2 0x1633 JUMPI DUP1 DUP1 PUSH1 0x20 ADD SWAP1 MLOAD PUSH1 0x20 DUP2 LT ISZERO PUSH2 0x15CC JUMPI PUSH1 0x0 DUP1 REVERT JUMPDEST DUP2 ADD SWAP1 DUP1 DUP1 MLOAD SWAP1 PUSH1 0x20 ADD SWAP1 SWAP3 SWAP2 SWAP1 POP POP POP PUSH2 0x1632 JUMPI PUSH1 0x40 MLOAD PUSH32 0x8C379A000000000000000000000000000000000000000000000000000000000 DUP2 MSTORE PUSH1 0x4 ADD DUP1 DUP1 PUSH1 0x20 ADD DUP3 DUP2 SUB DUP3 MSTORE PUSH1 0x2A DUP2 MSTORE PUSH1 0x20 ADD DUP1 PUSH2 0x1850 PUSH1 0x2A SWAP2 CODECOPY PUSH1 0x40 ADD SWAP2 POP POP PUSH1 0x40 MLOAD DUP1 SWAP2 SUB SWAP1 REVERT JUMPDEST JUMPDEST POP POP POP POP JUMP JUMPDEST PUSH1 0x0 DUP1 DUP4 GT DUP3 SWAP1 PUSH2 0x16E5 JUMPI PUSH1 0x40 MLOAD PUSH32 0x8C379A000000000000000000000000000000000000000000000000000000000 DUP2 MSTORE PUSH1 0x4 ADD DUP1 DUP1 PUSH1 0x20 ADD DUP3 DUP2 SUB DUP3 MSTORE DUP4 DUP2 DUP2 MLOAD DUP2 MSTORE PUSH1 0x20 ADD SWAP2 POP DUP1 MLOAD SWAP1 PUSH1 0x20 ADD SWAP1 DUP1 DUP4 DUP4 PUSH1 0x0 JUMPDEST DUP4 DUP2 LT ISZERO PUSH2 0x16AA JUMPI DUP1 DUP3 ADD MLOAD DUP2 DUP5 ADD MSTORE PUSH1 0x20 DUP2 ADD SWAP1 POP PUSH2 0x168F JUMP JUMPDEST POP POP POP POP SWAP1 POP SWAP1 DUP2 ADD SWAP1 PUSH1 0x1F AND DUP1 ISZERO PUSH2 0x16D7 JUMPI DUP1 DUP3 SUB DUP1 MLOAD PUSH1 0x1 DUP4 PUSH1 0x20 SUB PUSH2 0x100 EXP SUB NOT AND DUP2 MSTORE PUSH1 0x20 ADD SWAP2 POP JUMPDEST POP SWAP3 POP POP POP PUSH1 0x40 MLOAD DUP1 SWAP2 SUB SWAP1 REVERT JUMPDEST POP PUSH1 0x0 DUP4 DUP6 DUP2 PUSH2 0x16F1 JUMPI INVALID JUMPDEST DIV SWAP1 POP DUP1 SWAP2 POP POP SWAP4 SWAP3 POP POP POP JUMP JUMPDEST PUSH1 0x0 DUP4 DUP4 GT ISZERO DUP3 SWAP1 PUSH2 0x17AC JUMPI PUSH1 0x40 MLOAD PUSH32 0x8C379A000000000000000000000000000000000000000000000000000000000 DUP2 MSTORE PUSH1 0x4 ADD DUP1 DUP1 PUSH1 0x20 ADD DUP3 DUP2 SUB DUP3 MSTORE DUP4 DUP2 DUP2 MLOAD DUP2 MSTORE PUSH1 0x20 ADD SWAP2 POP DUP1 MLOAD SWAP1 PUSH1 0x20 ADD SWAP1 DUP1 DUP4 DUP4 PUSH1 0x0 JUMPDEST DUP4 DUP2 LT ISZERO PUSH2 0x1771 JUMPI DUP1 DUP3 ADD MLOAD DUP2 DUP5 ADD MSTORE PUSH1 0x20 DUP2 ADD SWAP1 POP PUSH2 0x1756 JUMP JUMPDEST POP POP POP POP SWAP1 POP SWAP1 DUP2 ADD SWAP1 PUSH1 0x1F AND DUP1 ISZERO PUSH2 0x179E JUMPI DUP1 DUP3 SUB DUP1 MLOAD PUSH1 0x1 DUP4 PUSH1 0x20 SUB PUSH2 0x100 EXP SUB NOT AND DUP2 MSTORE PUSH1 0x20 ADD SWAP2 POP JUMPDEST POP SWAP3 POP POP POP PUSH1 0x40 MLOAD DUP1 SWAP2 SUB SWAP1 REVERT JUMPDEST POP PUSH1 0x0 DUP4 DUP6 SUB SWAP1 POP DUP1 SWAP2 POP POP SWAP4 SWAP3 POP POP POP JUMP JUMPDEST PUSH1 0x0 DUP1 PUSH1 0x0 PUSH32 0xC5D2460186F7233C927E7DB2DCC703C0E500B653CA82273B7BFAD8045D85A470 PUSH1 0x0 SHL SWAP1 POP DUP4 EXTCODEHASH SWAP2 POP DUP1 DUP3 EQ ISZERO DUP1 ISZERO PUSH2 0x1801 JUMPI POP PUSH1 0x0 DUP1 SHL DUP3 EQ ISZERO JUMPDEST SWAP3 POP POP POP SWAP2 SWAP1 POP JUMP INVALID MSTORE8 PUSH22 0x7065725A61703A2063616C6C6572206973206E6F7420 PUSH21 0x6865206F70657261746F72536166654D6174683A20 PUSH14 0x756C7469706C69636174696F6E20 PUSH16 0x766572666C6F77536166654552433230 GASPRICE KECCAK256 GASLIMIT MSTORE NUMBER ORIGIN ADDRESS KECCAK256 PUSH16 0x7065726174696F6E20646964206E6F74 KECCAK256 PUSH20 0x756363656564A2646970667358221220792488FC INVALID 0xF8 SWAP5 ORIGIN ORIGIN EXTCODEHASH 0x27 0xAB SWAP4 0xAF 0x29 0xD8 SAR 0x5F 0x5F 0xDF DUP12 0x2F DIFFICULTY PUSH13 0xA612461C54EDB66F64736F6C63 NUMBER STOP MOD 0xC STOP CALLER "
				},
				"gasEstimates": {
					"creation": {
						"codeDepositCost": "1263800",
						"executionCost": "infinite",
						"totalCost": "infinite"
					},
					"external": {
						"approveZapper(address)": "infinite",
						"fudge()": "1047",
						"fudgePair()": "1070",
						"minFudge()": "1006",
						"minStraw()": "1115",
						"operator()": "1136",
						"setMins(uint256,uint256)": "infinite",
						"straw()": "1135",
						"strawPair()": "1091",
						"withdraw(address)": "infinite",
						"zapStrategy(address,uint256,uint256)": "infinite",
						"zapper()": "1113"
					},
					"internal": {
						"_checkMin(address,uint256)": "1721"
					}
				},
				"methodIdentifiers": {
					"approveZapper(address)": "85499cfb",
					"fudge()": "741aa610",
					"fudgePair()": "1c15716b",
					"minFudge()": "02c426a8",
					"minStraw()": "d0318d7e",
					"operator()": "570ca735",
					"setMins(uint256,uint256)": "4d4af36f",
					"straw()": "b9b5fd07",
					"strawPair()": "984b163e",
					"withdraw(address)": "51cff8d9",
					"zapStrategy(address,uint256,uint256)": "620b2c73",
					"zapper()": "a7a21712"
				}
			},
			"storageLayout": {
				"storage": [
					{
						"astId": 566,
						"contract": "contracts/Super-Zap.sol:SuperZap",
						"label": "_status",
						"offset": 0,
						"slot": "0",
						"type": "t_mapping(t_uint256,t_mapping(t_address,t_bool))"
					},
					{
						"astId": 657,
						"contract": "contracts/Super-Zap.sol:SuperZap",
						"label": "zapper",
						"offset": 0,
						"slot": "1",
						"type": "t_contract(IZapper)644"
					},
					{
						"astId": 659,
						"contract": "contracts/Super-Zap.sol:SuperZap",
						"label": "fudge",
						"offset": 0,
						"slot": "2",
						"type": "t_contract(IERC20)77"
					},
					{
						"astId": 661,
						"contract": "contracts/Super-Zap.sol:SuperZap",
						"label": "straw",
						"offset": 0,
						"slot": "3",
						"type": "t_contract(IERC20)77"
					},
					{
						"astId": 663,
						"contract": "contracts/Super-Zap.sol:SuperZap",
						"label": "fudgePair",
						"offset": 0,
						"slot": "4",
						"type": "t_contract(IERC20)77"
					},
					{
						"astId": 665,
						"contract": "contracts/Super-Zap.sol:SuperZap",
						"label": "strawPair",
						"offset": 0,
						"slot": "5",
						"type": "t_contract(IERC20)77"
					},
					{
						"astId": 667,
						"contract": "contracts/Super-Zap.sol:SuperZap",
						"label": "operator",
						"offset": 0,
						"slot": "6",
						"type": "t_address"
					},
					{
						"astId": 669,
						"contract": "contracts/Super-Zap.sol:SuperZap",
						"label": "minStraw",
						"offset": 0,
						"slot": "7",
						"type": "t_uint256"
					},
					{
						"astId": 671,
						"contract": "contracts/Super-Zap.sol:SuperZap",
						"label": "minFudge",
						"offset": 0,
						"slot": "8",
						"type": "t_uint256"
					}
				],
				"types": {
					"t_address": {
						"encoding": "inplace",
						"label": "address",
						"numberOfBytes": "20"
					},
					"t_bool": {
						"encoding": "inplace",
						"label": "bool",
						"numberOfBytes": "1"
					},
					"t_contract(IERC20)77": {
						"encoding": "inplace",
						"label": "contract IERC20",
						"numberOfBytes": "20"
					},
					"t_contract(IZapper)644": {
						"encoding": "inplace",
						"label": "contract IZapper",
						"numberOfBytes": "20"
					},
					"t_mapping(t_address,t_bool)": {
						"encoding": "mapping",
						"key": "t_address",
						"label": "mapping(address => bool)",
						"numberOfBytes": "32",
						"value": "t_bool"
					},
					"t_mapping(t_uint256,t_mapping(t_address,t_bool))": {
						"encoding": "mapping",
						"key": "t_uint256",
						"label": "mapping(uint256 => mapping(address => bool))",
						"numberOfBytes": "32",
						"value": "t_mapping(t_address,t_bool)"
					},
					"t_uint256": {
						"encoding": "inplace",
						"label": "uint256",
						"numberOfBytes": "32"
					}
				}
			},
			"userdoc": {
				"kind": "user",
				"methods": {},
				"version": 1
			}
		}
	}
}